:0400000081EF0BF091
:10100000003C6C3636CF0750B98488083CABAA2A1E
:10101000BEA3858832DA0FC93F83F9223F00000062
:101020003F179ACC373F04B6BA9FAA2A3D0000006A
:10103000BFDB0FC940E4CB9640DB0F4940DB0FC953
:101040003F286E756C6C29004D555349430025644B
:10105000200D0047414D45004750494F0055415232
:101060005400252D2A73004441430041444300505D
:10107000574D00001B50D96EDA6ADFCFF6FF100E15
:10108000F76E0800F550250AD8A449EF08F04BEF99
:1010900008F012EF09F01B50D96EDA6ADF2A000E51
:1010A000406E000E3F6E3FC043F041684268000E44
:1010B0001E6E75EF08F043801B50D96EDA6ADF2A86
:1010C00075EF08F0010E1E6E75EF08F01B50D96E1B
:1010D000DA6ADFCFF6FF100EF76E0800F5502D0A22
:1010E000D8B45BEF08F062EF08F01E50D8B47BEF85
:1010F00008F07DEF08F066EF08F01BC007F01CC099
:1011000008F0A7EC0AF007C03FF008C040F040BE6E
:101110008EEF08F08CEF08F093EF08F043803F6CFF
:10112000401ED8B0402A000E1E6E1B50D96EDA6ADF
:10113000DFCFF6FF100EF76E0800F550730AD8A443
:10114000A4EF08F0A6EF08F0AEEF08F01B50D96E40
:10115000DA6ADF2A010E1E6EF0EF08F01B50D96E1E
:10116000DA6ADFCFF6FF100EF76E0800F5506C0A52
:10117000D8A4BDEF08F0BFEF08F0F0EF08F01B5067
:10118000D96EDA6ADF501D6E010E1D261DC0F6FFF6
:10119000100EF76E0800F5506C0AD8A4D2EF08F0D4
:1011A000D4EF08F0F0EF08F01B50D96EDA6ADF5088
:1011B0001D6E020E1D261DC0F6FF100EF76E0800F4
:1011C000F550730AD8A4E7EF08F0E9EF08F0F0EF64
:1011D00008F01B50D96EDA6A030EDF26AAEF08F07A
:1011E0001E50D8B4F6EF08F0F8EF08F00CEF09F055
:1011F00019C00BF01AC00CF01C50D96EDA6A020E3E
:10120000DF26DF5CD96EDA6ADECF0DF0DECF0EF0BE
:1012100026EC09F025EF09F01B50D96EDA6ADF2AB7
:1012200025EF09F01B50D96EDA6ADFCFF6FF100EFA
:10123000F76E0800F550026E036A19C004F01AC078
:1012400005F04AEC0AF00CEF09F012000DC015F0A1
:101250000EC016F015501610D8A431EF09F033EF78
:1012600009F039EF09F0410E156E1550D8A4100E93
:10127000166E000E186E000E176E41EF09F0174A39
:10128000182A175015240F6E18501620106E0FC014
:10129000F6FF10C0F7FF000EF86E0F0EF76403D0D4
:1012A0000800F55005D0F6CFE9FFF7CFEAFFEF5081
:1012B0000009D8A45EEF09F060EF09F03FEF09F0F4
:1012C00017C011F018C012F03FC013F040C014F066
:1012D00043B06DEF09F06FEF09F0ABEF09F07DEF70
:1012E00009F0000E036E200E026E0BC004F00CC05D
:1012F00005F04AEC0AF0174A182A1350175C1850E8
:10130000800A0F6E1450800A0F58D8A08AEF09F097
:101310008CEF09F071EF09F0ABEF09F015C0F6FFA3
:1013200016C0F7FF000EF86E0F0EF76403D008002A
:10133000F55005D0F6CFE9FFF7CFEAFFEF500F6E7B
:101340000F50026E036A0BC004F00CC005F04AECAB
:101350000AF0154A162A1106D8A01206112806E12D
:101360001228D8A4B6EF09F0B8EF09F08EEF09F013
:1013700043A0BDEF09F0BFEF09F0DCEF09F0CDEFBE
:1013800009F0000E036E200E026E0BC004F00CC0BC
:1013900005F04AEC0AF0174A182A1350175C185047
:1013A000800A0F6E1450800A0F58D8A0DAEF09F0A7
:1013B000DCEF09F0C1EF09F012000F013B913B9304
:1013C00095809582929089806C50F00B08096C6E24
:1013D000130E6E6E6C8A340E026EF20EE82EFED77D
:1013E000022EFCD76B806BB0F8EF09F0FAEF09F032
:1013F000F3EF09F0A49E7C0EF1EC0BF0800EF1EC03
:101400000BF0380EF1EC0BF0800EF1EC0BF0390E16
:10141000F1EC0BF0800EF1EC0BF0170EF1EC0BF091
:10142000800EF1EC0BF07A0EF1EC0BF0800EF1EC8B
:101430000BF05E0EF1EC0BF0800EF1EC0BF06B0E8E
:10144000F1EC0BF0800EF1EC0BF00C0EF1EC0BF06C
:10145000800EF1EC0BF0010EF1EC0BF0800EF1ECD4
:101460000BF0060EF1EC0BF0800EF1EC0BF0020E1F
:10147000F1EC0BF06B846BB440EF0AF042EF0AF032
:101480003BEF0AF0340E026EF20EE82EFED7022E6B
:10149000FCD7120004500510D8B451EF0AF053EFF6
:1014A0000AF05CEF0AF004500510D8A45AEF0AF0D5
:1014B0005CEF0AF061EF0AF0025004EC0CF0A6EFCA
:1014C0000AF020EE0AF00450D9260550DA22DE5048
:1014D000DE10D8B46EEF0AF070EF0AF08BEF0AF06E
:1014E00020EE0AF00450D9260550DA2210EE03F05F
:1014F0000450E1260550E222DE50E65CE650800A08
:101500000A6EDE50800A0A58D8B089EF0AF08BEFD5
:101510000AF0A6EF0AF020EE03F00450D926055099
:10152000DA22DF50066E04C0D9FF05C0DAFFDF50B3
:101530000624D96EDA6A02C0DFFF20EE03F0045001
:10154000D9260550DA22DE2A000EDD221200000E16
:101550000B6E000E0A6E0750D96EDA6ADFCFF6FF07
:10156000100EF76E0800F5502A0AD8A4BAEF0AF058
:10157000BCEF0AF0E2EF0AF00750D96EDA6ADF2A10
:101580000850D96EDA6A020EDF26DF5CD96EDA6A9D
:10159000DECF0AF0DECF0BF0F5EF0AF00AC001F063
:1015A0000BC002F0000E046E0A0E036EDEEC0BF0B0
:1015B000095001240A6E000E02200B6E0750D96EEE
:1015C000DA6ADF2A0750D96EDA6ADFCFF6FF100E2B
:1015D000F76E0800F550D00F096E090E0964F3EF9D
:1015E0000AF0F5EF0AF0CEEF0AF00AC007F00BC0E0
:1015F00008F01200036E6B806BB001EF0BF003EF8D
:101600000BF0FCEF0AF0A49E7C0EF1EC0BF0800EC8
:10161000F1EC0BF00304D8A410EF0BF012EF0BF079
:1016200017EF0BF0800EF1EC0BF023EF0BF0020E36
:101630000318D8A41EEF0BF020EF0BF023EF0BF0F4
:10164000C00EF1EC0BF0400EF1EC0BF0000E046E4E
:1016500002500424D96EDA6ADF50F1EC0BF0042A50
:101660000F0E046436EF0BF038EF0BF028EF0BF0A1
:101670006B846BB43EEF0BF040EF0BF039EF0BF0E7
:10168000120094809288928692840F013897389540
:10169000DDEC09F020EEABF010EE82F0070EDBCFB0
:1016A000E3FFE806FCE2600E246E620E256E000E7B
:1016B000276E100E266E82C028F02850D8A4100E77
:1016C000296EC3EC0BF0710E246E620E256E000EB7
:1016D000276E100E266E83C028F02850D8A4100E56
:1016E000296EC3EC0BF0600E026E010EFAEC0AF0EC
:1016F000710E026E020EFAEC0AF07DEF0BF000EFB5
:1017000000F01E0EF66E180EF76E000EF86E00EE6C
:10171000ABF010EE08F00900F5CFEEFFE550E15018
:10172000FAE100EE8AF0210EEE6AE806FDE100EE35
:1017300037F00D0EEE6AE806FDE1000EF86E0001CE
:1017400041EF0BF021C023F0B0EF0BF01FC019F0F8
:1017500020C01AF0230E1B6E22C01CF03AEC08F0D9
:1017600023C0F6FF100EF76E0800F5500009D8A44C
:10177000BCEF0BF0BEEF0BF0A6EF0BF0000E206EEF
:10178000000E1F6E1200260E2A6E24C02BF0000ED3
:101790002F6E000E2E6E000E366E000E356E2B0E66
:1017A0001F6E206A25C021F02A0E226EA2EC0BF0DB
:1017B00024502E24D96EDA6ADF6A12000150030227
:1017C000F3CF05F0F4CF06F001500402F3500626E3
:1017D00002500302F350062605C001F006C002F0D5
:1017E0001200016E01C06FFF6DB0F9EF0BF0FBEF5F
:1017F0000BF0F4EF0BF0A4AE00EF0CF002EF0CF0E6
:10180000FBEF0BF0A49E1200016E9EA80AEF0CF0F5
:101810000CEF0CF005EF0CF001C0ADFF1200585DAD
:061820006F6B6753485294
:020000040030CA
:04000000FF331F3C6F
:00000001FF
