:040000008AEF00F093
:100008005A82D9CF03F0DACF04F09DA00EEF00F0AA
:1000180010EF00F049EF00F09EA015EF00F017EF89
:1000280000F049EF00F001012451D8B41EEF00F0B0
:1000380020EF00F049EF00F080A425EF00F027EF53
:1000480000F044EF00F0030E026E080E016E770E0A
:10005800E82EFED7012EFCD7022EFAD7000080A486
:1000680038EF00F03AEF00F044EF00F080B43FEFD3
:1000780000F041EF00F03AEF00F0000E0001FF6FD2
:100088009E0ECF6E580ECE6E9E909DAA4EEF00F03B
:1000980050EF00F084EF00F09EAA55EF00F057EF04
:1000A80000F084EF00F001012351D8B45EEF00F0B6
:1000B80060EF00F084EF00F0AECF05F00A0E0518EF
:1000C800D8B469EF00F06BEF00F077EF00F0750E31
:1000D8002125D96E010E2221DA6E05C0DFFF214BE2
:1000E800222B84EF00F0010E946F750E2125D96E36
:1000F800010E2221DA6EDF6A000E226F000E216FD8
:1001080004C0DAFF03C0D9FF5A921100D3EF24F0DC
:10011800000E0001AE6F86C0AFF087C0B0F088C097
:10012800B1F089C0B2F0B2BF9EEF00F09CEF00F0D2
:10013800B2EF00F0010EAE6FAFC080F0B0C081F03A
:10014800B1C082F0B2C083F0D2EC25F080C0AFF02D
:1001580081C0B0F082C0B1F083C0B2F0000E0001DF
:10016800B46F000EB36F55C09EF056C09FF0AE51ED
:10017800D8B4C1EF00F0C3EF00F0D7EF00F0AE51F4
:10018800D8A4C9EF00F0CBEF00F0D1EF00F0000EDB
:10019800946F2B0E936FD5EF00F0000E946F2D0E19
:1001A800936F93C0AEF0AFC006F0B0C007F0B1C017
:1001B80008F0B2C009F065EC20F006040710D8A4D6
:1001C800E8EF00F0EAEF00F01DEF01F00001AE519A
:1001D800D8B4F1EF00F0F3EF00F0FCEF00F0AEC0A0
:1001E80025F19E07D8A09F07000EB46F010EB36FCC
:1001F800250EB325066E010EB421076EEB0E086EB0
:10020800FF0E096EEFEC25F00001FD0E9E27FF0E94
:100218009F2384C017F085C018F0250E196E010EB3
:100228001A6E9EC01BF09FC01CF0EDEC23F088EF07
:1002380005F0AFC006F0B0C007F0B1C008F0B2C01A
:1002480009F065EC20F006500710D8A42EEF01F055
:1002580030EF01F050EF01F00001AE51D8B437EFA4
:1002680001F039EF01F042EF01F0AEC025F19E0731
:10027800D8A09F07000EB46F010EB36F250EB325EB
:10028800066E010EB421076EEF0E086EFF0E096EA2
:10029800EFEC25F008EF01F0000E0001B56F000E3D
:1002A800B66F800EB76F3F0EB86F000E9D6F000ED1
:1002B8009C6FAFC006F0B0C007F0B1C008F0B2C084
:1002C80009F0000E0A6E000E0B6E000E0C6E000E8A
:1002D8000D6E98EC23F0D8B074EF01F076EF01F0D2
:1002E80055EF02F083EF01F0A0C0B5F0A1C0B6F061
:1002F800A2C0B7F0A3C0B8F000019C4B9D2BB5C0BD
:1003080014F0B6C015F0B7C016F0B8C017F0000E5C
:10031800186E000E196E200E1A6E410E1B6E1DEC23
:100328000DF014C0A0F015C0A1F016C0A2F017C0BF
:10033800A3F00001A051AF5D066EA151B059076E40
:10034800A251B159086EA351B259096EA8EC24F014
:1003580009BEBAEF01F009500810071009E1020EB2
:10036800065CD8A0BAEF01F0BCEF01F078EF01F01D
:10037800A0C02DF0A1C02EF0A2C02FF0A3C030F075
:10038800AFC031F0B0C032F0B1C033F0B2C034F019
:10039800E3EC1FF0D8A0D3EF01F0D5EF01F078EF30
:1003A80001F00001B551AF5D066EB651B059076E48
:1003B800B751B159086EB851B259096EA8EC24F07A
:1003C80009BEF4EF01F009500810071007E1020E0A
:1003D800065CD8B0F2EF01F0F4EF01F03CEF02F068
:1003E800B5C0AFF0B6C0B0F0B7C0B1F0B8C0B2F0A9
:1003F80055EF02F0B5C02DF0B6C02EF0B7C02FF003
:10040800B8C030F0000E316E000E326E200E336E22
:10041800410E346E13EC11F02DC0B5F02EC0B6F0BD
:100428002FC0B7F030C0B8F000019C07D8A09D07D6
:10043800B551AF5D066EB651B059076EB751B15997
:10044800086EB851B259096EA8EC24F009BE3AEF0B
:1004580002F009500810071007E1020E065CD8B038
:1004680038EF02F03AEF02F03CEF02F0F4EF01F05F
:10047800AFC02DF0B0C02EF0B1C02FF0B2C030F038
:10048800B5C031F0B6C032F0B7C033F0B8C034F000
:10049800E3EC1FF0D8A053EF02F055EF02F0FEEFA7
:1004A80001F08AC096F096C097F058BE5EEF02F051
:1004B80060EF02F066EF02F057C08FF058C090F07E
:1004C8006BEF02F0000E0001906F060E8F6F8FC069
:1004D8009AF090C09BF000019A4B9B2B660E9719DF
:1004E800D8A479EF02F07BEF02F09BEF02F09DBFFA
:1004F80082EF02F080EF02F08EEF02F0000EB56F8F
:10050800000EB66F800EB76F3F0EB86F000E9D6F6E
:10051800000E9C6F670E9619D8B495EF02F097EF0E
:1005280002F09BEF02F09C519A279D519B23000EED
:10053800A56F000EA46FAFC0A6F0B0C0A7F0B1C001
:10054800A8F0B2C0A9F0B5C0A0F0B6C0A1F0B7C07D
:10055800A2F0B8C0A3F02CEF03F0A6C02DF0A7C0FE
:100568002EF0A8C02FF0A9C030F0B5C031F0B6C049
:1005780032F0B7C033F0B8C034F013EC11F02DC02E
:1005880046F02EC047F02FC048F030C049F0C6EC06
:1005980016F046C0AAF047C0ABF048C0ACF049C05E
:1005A800ADF0AAC064F0ABC065F0ACC066F0ADC0F9
:1005B80067F05FEC1FF064C098F065C099F0A6C0C2
:1005C80064F0A7C065F0A8C066F0A9C067F0AAC02B
:1005D80018F0ABC019F0ACC01AF0ADC01BF0B5C034
:1005E80014F0B6C015F0B7C016F0B8C017F01DEC7F
:1005F8000DF014C068F015C069F016C06AF017C095
:100608006BF04AEC25F064C0A6F065C0A7F066C0A0
:10061800A8F067C0A9F0B5C02DF0B6C02EF0B7C0DD
:100628002FF0B8C030F0000E316E000E326E200E82
:10063800336E410E346E13EC11F02DC0B5F02EC0A0
:10064800B6F02FC0B7F030C0B8F00001A44BA52B0E
:100658009A51A45DA551800A8B6F9B51800A8B59D2
:10066800D8A039EF03F03BEF03F0B1EF02F0B5C0CB
:1006780014F0B6C015F0B7C016F0B8C017F0000EE9
:10068800186E000E196EA00E1A6E400E1B6E1DEC31
:100698000DF014C0AAF015C0ABF016C0ACF017C02E
:1006A800ADF0A6C02DF0A7C02EF0A8C02FF0A9C0AD
:1006B80030F0AAC031F0ABC032F0ACC033F0ADC0FE
:1006C80034F0E3EC1FF0D8B06CEF03F06EEF03F0FA
:1006D80079EF03F0000E0001AA6F000EAB6F000E59
:1006E800AC6F000EAD6FA2EF03F0A6C006F0A7C076
:1006F80007F0A8C008F0A9C009F0AAC00AF0ABC06A
:100708000BF0ACC00CF0ADC00DF098EC23F0D8A005
:1007180090EF03F092EF03F0A2EF03F0000198B11D
:1007280098EF03F09AEF03F0A2EF03F0000EAA6F20
:10073800000EAB6F000EAC6F000EAD6FAFC046F091
:10074800B0C047F0B1C048F0B2C049F0AAC04AF002
:10075800ABC04BF0ACC04CF0ADC04DF0BCEC0AF0F7
:1007680046C0A6F047C0A7F048C0A8F049C0A9F005
:10077800A6C02DF0A7C02EF0A8C02FF0A9C030F059
:10078800000E186E000E196E200E1A6E410E1B6EAA
:10079800A0C014F0A1C015F0A2C016F0A3C017F0B5
:1007A8001DEC0DF014C031F015C032F016C033F056
:1007B80017C034F0E3EC1FF0D8A0E5EF03F0E7EF43
:1007C80003F010EF04F000019C4B9D2BA0C014F027
:1007D800A1C015F0A2C016F0A3C017F0000E186E45
:1007E800000E196E200E1A6E410E1B6E1DEC0DF0D8
:1007F80014C0A0F015C0A1F016C0A2F017C0A3F055
:10080800660E00019719D8A40CEF04F00EEF04F05F
:1008180010EF04F09A4B9B2BA0C0B5F0A1C0B6F026
:10082800A2C0B7F0A3C0B8F09CC08DF09DC08EF0F8
:10083800000E0001956F000E926F000E916F000E72
:10084800A56F000EA46F0EEF05F0A6C02DF0A7C08F
:100858002EF0A8C02FF0A9C030F0B5C031F0B6C056
:1008680032F0B7C033F0B8C034F013EC11F02DC03B
:1008780046F02EC047F02FC048F030C049F0C6EC13
:1008880016F046C0AAF047C0ABF048C0ACF049C06B
:10089800ADF0AAC064F0ABC065F0ACC066F0ADC006
:1008A80067F05FEC1FF0000165BF66EF04F065516B
:1008B80007E10A0E645DD8B064EF04F066EF04F057
:1008C80076EF04F0AAC064F0ABC065F0ACC066F087
:1008D800ADC067F05FEC1FF064C098F065C099F098
:1008E8007AEF04F0000E996F090E986F0001955188
:1008F800D8A481EF04F083EF04F0ABEF04F08EBFCF
:100908008AEF04F088EF04F0ABEF04F0250EB3256E
:10091800D96E010EB421DA6E2E0EDF6EB34BB42BF6
:100928009E07D8A09F07010E956FABEF04F0250E28
:10093800B325D96E010EB421DA6E300EDF6EB34BDB
:10094800B42B9E07D8A09F079107D8A09207915172
:100958009211D8A4B2EF04F0B4EF04F09BEF04F0C6
:10096800250EB325D96E010EB421DA6E9851300FD9
:10097800DF6EB34BB42B9E07D8A09F07A6C064F0C8
:10098800A7C065F0A8C066F0A9C067F0AAC018F0B3
:10099800ABC019F0ACC01AF0ADC01BF0B5C014F074
:1009A800B6C015F0B7C016F0B8C017F01DEC0DF0C2
:1009B80014C068F015C069F016C06AF017C06BF073
:1009C8004AEC25F064C0A6F065C0A7F066C0A8F0A0
:1009D80067C0A9F0B5C02DF0B6C02EF0B7C02FF093
:1009E800B8C030F0000E316E000E326E200E336E3D
:1009F800410E346E13EC11F02DC0B5F02EC0B6F0D8
:100A08002FC0B7F030C0B8F000018D07D8A08E070E
:100A1800A44BA52B9A51A45DA551800A8B6F9B51BD
:100A2800800A8B59D8B01BEF05F01DEF05F02BEFAE
:100A380005F0B4BF29EF05F0B45109E14B0EB35DE1
:100A4800D8A029EF05F02BEF05F029EF04F0000EF0
:100A5800A56F4F0EA46F250EA425D96E010EA521F2
:100A6800DA6EDF6A250E8B6F010E8C6FB3518B5FC8
:100A7800B4518C5BA4518B25066EA5518C21076E51
:100A8800250E086E010E096EB3C00AF0B4C00BF053
:100A9800FDEC24F00001B351A45DB36FB451A55926
:100AA800B46FAE51D8A45BEF05F05EEF05F0010E10
:100AB8005FEF05F0000EA46FA56BAE51D8B467EFD9
:100AC80005F069EF05F074EF05F0B307D8A0B40797
:100AD800250EB325D96E010EB421DA6EAEC0DFFF44
:100AE800A4519E5FA5519F5B84C017F085C018F084
:100AF800250EB325196E010EB4211A6E9EC01BF087
:100B08009FC01CF0EDEC23F012000001BB51D96E20
:100B1800DA6ADECFF6FFDDCFF7FF0800F550250AC9
:100B2800D8A499EF05F09BEF05F023EF08F0BB512F
:100B3800D96EDA6ADE2A000EDD22000E566E000E2D
:100B4800556E55C059F057685868000EBF6FC9EF09
:100B580005F05980BB51D96EDA6ADE2A000EDD2213
:100B6800C9EF05F0010EBF6FC9EF05F0BB51D96E93
:100B7800DA6ADECFF6FFDDCFF7FF0800F5502D0A61
:100B8800D8B4ADEF05F0B6EF05F0BF51D8B4CFEF4C
:100B980005F0D1EF05F0BAEF05F0BBC00CF0BCC012
:100BA8000DF041EC23F00CC055F00DC056F056BEC8
:100BB800E2EF05F0E0EF05F0E7EF05F05980556C3E
:100BC800561ED8B0562A0001BB51D96EDA6ADECF5C
:100BD800F6FFDDCFF7FF0800F5502E0AD8A4F7EF8F
:100BE80005F0F9EF05F009EF06F0BB51D96EDA6AA6
:100BF800DE2A000EDD22BBC00CF0BCC00DF041ECBB
:100C080023F00CC057F00DC058F00001BB51D96E4D
:100C1800DA6ADECFC5F0DDCFC6F0C5C0F6FFC6C0C4
:100C2800F7FF0800F5CFC4F026EF06F0C54BC62B3A
:100C380039EF06F0690EC46F39EF06F0000EC46F85
:100C480039EF06F0C451640AD8B41EEF06F00C0A56
:100C5800D8B41AEF06F0010AD8B41EEF06F01C0A41
:100C6800D8B41EEF06F022EF06F0C5C0F6FFC6C0E6
:100C7800F7FF0800F550640AD8B445EF06F047EFCF
:100C880006F073EF06F0C5C0F6FFC6C0F7FF080010
:100C9800F550690AD8A453EF06F055EF06F097EF20
:100CA80006F073EF06F0BC51D96EDA6A020EDF2641
:100CB800DF5CD96EDA6ADECFC0F0DECFC1F07EEF3E
:100CC80006F0BC51D96EDA6A020EDF26DF5CD96EF7
:100CD800DA6ADECFC0F0DECFC1F07EEF06F0C45195
:100CE800680AD8B465EF06F0010AD8B457EF06F0E1
:100CF8007EEF06F0010EC525BD6F000EC621BE6F42
:100D0800BB51D96EDA6ABDC0DEFFBEC0DDFFB9C017
:100D180020F0BAC021F0C0C022F0C1C023F082EC9C
:100D28001BF036EF08F0C5C0F6FFC6C0F7FF080095
:100D3800F550750AD8A4A3EF06F0A5EF06F0F5EF75
:100D480006F0C3EF06F0BC51D96EDA6A020EDF2650
:100D5800DF5CD96EDA6ADECFC0F0DECFC1F0CEEF4D
:100D680006F0BC51D96EDA6A020EDF26DF5CD96E56
:100D7800DA6ADECFC0F0DECFC1F0CEEF06F0C451A4
:100D8800680AD8B4B5EF06F0010AD8B4A7EF06F0A0
:100D9800CEEF06F0010EC525BD6F000EC621BE6F51
:100DA800BB51D96EDA6ABDC0DEFFBEC0DDFFE9EF18
:100DB80006F0B9C020F0BAC021F0C0C022F0C1C00E
:100DC80023F0E4EC20F036EF08F0C5C0F6FFC6C00B
:100DD800F7FF0800F550750AD8B4DDEF06F0F5EF17
:100DE80006F0000EBF6FBB51D96EDA6ADECFF6FF90
:100DF800DDCFF7FF0800F550730AD8A406EF07F017
:100E080008EF07F012EF07F0BB51D96EDA6ADE2A55
:100E1800000EDD22010EBF6F5EEF07F0BB51D96EE9
:100E2800DA6ADECFF6FFDDCFF7FF0800F5506C0A6F
:100E3800D8A421EF07F023EF07F05EEF07F0BB51CE
:100E4800D96EDA6ADECFBDF0DDCFBEF0010EBD2768
:100E5800000EBE23BDC0F6FFBEC0F7FF0800F55068
:100E68006C0AD8A43AEF07F03CEF07F05EEF07F002
:100E7800BB51D96EDA6ADECFBDF0DDCFBEF0020E0F
:100E8800BD27000EBE23BDC0F6FFBEC0F7FF080099
:100E9800F550730AD8A453EF07F055EF07F05EEF4B
:100EA80007F0BB51D96EDA6A030EDE26000EDD228A
:100EB8000EEF07F0BF51D8B464EF07F066EF07F004
:100EC8007AEF07F0B9C010F0BAC011F0BC51D96E72
:100ED800DA6A020EDF26DF5CD96EDA6ADECF12F03C
:100EE800DECF13F0B3EC1AF036EF08F0BB51D96E31
:100EF800DA6ADECFC5F0DDCFC6F0C5C0F6FFC6C0E2
:100F0800F7FF0800F5CFC4F096EF07F0C54BC62BE6
:100F1800A5EF07F06C0EC46FA5EF07F0000EC46FC5
:100F2800A5EF07F0C4514C0AD8B48AEF07F02A0A93
:100F3800D8B48EEF07F00A0AD8B48AEF07F092EF18
:100F480007F0C5C0F6FFC6C0F7FF0800F550660AEF
:100F5800D8A4B1EF07F0B3EF07F01AEF08F0DDEF10
:100F680007F0BC51D96EDA6ADFCFBDF0040EDF2678
:100F7800BD51D96EDA6ADECFC0F0DECFC1F0DECF68
:100F8800C2F0DECFC3F0E8EF07F0BC51D96EDA6AE1
:100F9800DFCFBDF0040EDF26BD51D96EDA6ADECF91
:100FA800C0F0DECFC1F0DECFC2F0DECFC3F0E8EF95
:100FB80007F0C4514C0AD8B4C9EF07F0200AD8B4D6
:100FC800B5EF07F0E8EF07F0010EC525BD6F000E7D
:100FD800C621BE6FBB51D96EDA6ABDC0DEFFBEC086
:100FE800DDFF0EEF08F0B9C084F0BAC085F0C0C0CC
:100FF80086F0C1C087F0C2C088F0C3C089F0C5C000
:10100800F6FFC6C0F7FF0800F5CF8AF08CEC00F0B9
:1010180036EF08F0C5C0F6FFC6C0F7FF0800F55068
:10102800660AD8B4F7EF07F01AEF08F00001BB51D1
:10103800D96EDA6ADE2A000EDD2236EF08F0BB51DF
:10104800D96EDA6ADECFF6FFDDCFF7FF0800F5507C
:10105800076E086AB9C009F0BAC00AF0C9EC21F0F5
:101068001AEF08F01200A4C0BAF0A5C0BBF0A6C0E1
:10107800BCF0A7C0BDF00001BDBF45EF08F048EFC8
:1010880008F0010E49EF08F0000EB16FBD9FDB0EAE
:10109800BA5D0F0EBB59490EBC593F0EBD59D8B0A9
:1010A80058EF08F05AEF08F083EF08F0800EBC5DA7
:1010B800390EBD59D8B063EF08F065EF08F06FEF4F
:1010C80008F0A4C0A4F0A5C0A5F0A6C0A6F0A7C0CB
:1010D800A7F0BBEF0AF0A4C064F0A5C065F0A6C0F5
:1010E80066F0A7C067F0ADEC15F064C0A4F065C069
:1010F800A5F066C0A6F067C0A7F0BBEF0AF0D20E55
:10110800BA5D530EBB597B0EBC59400EBD59D8B0C1
:1011180090EF08F092EF08F075EF09F0E40EBA5D71
:10112800CB0EBB59160EBC59400EBD59D8B09FEF17
:1011380008F0A1EF08F00FEF09F0B151D8B4A7EF0C
:1011480008F0A9EF08F0E1EF08F0DB0E4A6E0F0E89
:101158004B6EC90E4C6E3F0E4D6EA4C046F0A5C036
:1011680047F0A6C048F0A7C049F0BCEC0AF046C05A
:10117800B2F047C0B3F048C0B4F049C0B5F0B2C04F
:1011880064F0B3C065F0B4C066F0B5C067F0DAECDF
:1011980018F064C080F065C081F066C082F067C056
:1011A80083F0D2EC25F080C0A4F081C0A5F082C005
:1011B800A6F083C0A7F0BBEF0AF0A4C046F0A5C014
:1011C80047F0A6C048F0A7C049F0DB0E4A6E0F0EE4
:1011D8004B6EC90E4C6EBF0E4D6EBCEC0AF046C08D
:1011E800B2F047C0B3F048C0B4F049C0B5F0B2C0DF
:1011F80064F0B3C065F0B4C066F0B5C067F0DAEC6F
:1012080018F064C0A4F065C0A5F066C0A6F067C079
:10121800A7F0BBEF0AF0B151D8A415EF09F017EF0A
:1012280009F03DEF09F0DB0E4A6E0F0E4B6E490ECA
:101238004C6EC00E4D6EA4C046F0A5C047F0A6C0C7
:1012480048F0A7C049F0BCEC0AF046C080F047C09F
:1012580081F048C082F049C083F0D2EC25F080C00C
:10126800A8F081C0A9F082C0AAF083C0ABF061EFFA
:1012780009F0DB0E4A6E0F0E4B6E490E4C6E400E97
:101288004D6EA4C046F0A5C047F0A6C048F0A7C060
:1012980049F0BCEC0AF046C080F047C081F048C075
:1012A80082F049C083F0D2EC25F080C0A8F081C05C
:1012B800A9F082C0AAF083C0ABF0A8C064F0A9C0AE
:1012C80065F0AAC066F0ABC067F0ADEC15F064C07D
:1012D800A4F065C0A5F066C0A6F067C0A7F0BBEF94
:1012E8000AF0D60EBA5D310EBB59E20EBC59400E5B
:1012F800BD59D8B082EF09F084EF09F025EF0AF064
:10130800E00EBA5DED0EBB59AF0EBC59400EBD598B
:10131800D8B091EF09F093EF09F0D3EF09F0B1518C
:10132800D8B499EF09F09BEF09F0B7EF09F0A4C022
:1013380046F0A5C047F0A6C048F0A7C049F0E40EA3
:101348004A6ECB0E4B6E960E4C6E400E4D6EBCEC3C
:101358000AF046C0B2F047C0B3F048C0B4F049C084
:10136800B5F0FBEF08F0E40E4A6ECB0E4B6E960E0E
:101378004C6EC00E4D6EA4C046F0A5C047F0A6C086
:1013880048F0A7C049F0BCEC0AF046C0B2F047C02C
:10139800B3F048C0B4F049C0B5F0C3EF08F0B1519C
:1013A800D8A4D9EF09F0DBEF09F0F7EF09F0A4C0F2
:1013B80046F0A5C047F0A6C048F0A7C049F0DB0E2C
:1013C8004A6E0F0E4B6EC90E4C6EC00E4D6EBCECC5
:1013D8000AF046C0ACF047C0ADF048C0AEF049C016
:1013E800AFF011EF0AF0A4C046F0A5C047F0A6C0C0
:1013F80048F0A7C049F0DB0E4A6E0F0E4B6EC90EBF
:101408004C6E400E4D6EBCEC0AF046C0ACF047C0C6
:10141800ADF048C0AEF049C0AFF0ACC064F0ADC0AC
:1014280065F0AEC066F0AFC067F0ADEC15F064C013
:10143800A4F065C0A5F066C0A6F067C0A7F0BBEF32
:101448000AF0800EBC5D7F0EBD59D8A02EEF0AF0C1
:1014580030EF0AF042EF0AF0FF0EBA13FF0EBB138B
:10146800FF0EBC13000EBD13BAC0A4F0BBC0A5F09C
:10147800BCC0A6F0BDC0A7F0BBEF0AF0A4C084F0C2
:10148800A5C085F0A6C086F0A7C087F0B60E886F05
:1014980032EC0FF000018451030BB06FACEF0AF08F
:1014A800B6C080F0B7C081F0B8C082F0B9C083F090
:1014B800D2EC25F080C0B6F081C0B7F082C0B8F099
:1014C80083C0B9F0B6C064F0B7C065F0B8C066F0C4
:1014D800B9C067F0ADEC15F064C0A4F065C0A5F024
:1014E80066C0A6F067C0A7F0BBEF0AF0B6C064F00C
:1014F800B7C065F0B8C066F0B9C067F0DAEC18F0AC
:1015080064C0A4F065C0A5F066C0A6F067C0A7F0E7
:10151800BBEF0AF0B6C064F0B7C065F0B8C066F0BB
:10152800B9C067F0DAEC18F064C080F065C081F0EB
:1015380066C082F067C083F0D2EC25F080C0A4F0CA
:1015480081C0A5F082C0A6F083C0A7F0BBEF0AF067
:10155800B051000AD8B466EF0AF0010AD8B47AEF9D
:101568000AF0030AD8B454EF0AF08EEF0AF012001A
:101578004950800B0001606F49504924626F48AEA2
:10158800C8EF0AF0CAEF0AF0CBEF0AF062816251A5
:10159800D8B4D1EF0AF0D3EF0AF0E8EF0AF06229E5
:1015A800D8A4D9EF0AF0DBEF0AF0E3EF0AF0000E57
:1015B800466E000E476E000E486E000E496E488E4D
:1015C800000E496EF0EF0AF0000E466E000E476EF0
:1015D800000E486E000E496E4D50800B616F6051D1
:1015E8006119D8B4FAEF0AF0FCEF0AF0FDEF0AF03F
:1015F800608D4D504D24616F4CAE05EF0BF007EF39
:101608000BF008EF0BF061816151D8B40EEF0BF0CD
:1016180010EF0BF025EF0BF06129D8A416EF0BF0B3
:1016280018EF0BF020EF0BF0000E4A6E000E4B6E19
:10163800000E4C6E000E4D6E4C8E000E4D6E2DEF52
:101648000BF0000E4A6E000E4B6E000E4C6E000E34
:101658004D6E6251615DD8B034EF0BF036EF0BF090
:101668005DEF0BF060AD3BEF0BF03DEF0BF03FEFA4
:101678000BF0800E601B62C063F061C062F063C053
:1016880061F046C063F04AC046F063C04AF047C004
:1016980063F04BC047F063C04BF048C063F04CC0E8
:1016A80048F063C04CF049C063F04DC049F063C0D6
:1016B8004DF0000E636F625161C04EF04F6A4E5E8E
:1016C800000E4F5A4FBE72EF0BF04F5009E11A0E41
:1016D8004E5CD8A072EF0BF074EF0BF0ABEF0BF091
:1016E8004650471048104910D8A47DEF0BF080EF02
:1016F8000BF0010E81EF0BF0000E636F000E466ECB
:10170800000E476E000E486E000E496E61C062F012
:10171800B4EF0BF063A193EF0BF095EF0BF09BEF99
:101728000BF0D89063310109636F9DEF0BF0D890EF
:10173800633346A0A2EF0BF0A4EF0BF0A5EF0BF07C
:10174800638F49344932483247324632622B6151FD
:10175800625DD8A0B2EF0BF0B4EF0BF08EEF0BF098
:1017680060BDB9EF0BF0BBEF0BF0FBEF0BF0625174
:10177800D8A4C1EF0BF0C3EF0BF0CDEF0BF0000EC8
:10178800466E000E476E000E486E000E496E1CEF46
:101798000DF04A5046264B5047224C5048224D5097
:1017A800492249A0DAEF0BF0DCEF0BF088EF0CF0E0
:1017B80063A1E1EF0BF0E3EF0BF0E9EF0BF0D8904A
:1017C80063310109636FEBEF0BF0D890633346A0E8
:1017D800F0EF0BF0F2EF0BF0F3EF0BF0638F4934FF
:1017E8004932483247324632622B88EF0CF04A5071
:1017F800465C4B5047584C5048584950800A4E6EEA
:101808004D50800A4E58D8B00CEF0CF00EEF0CF08B
:1018180039EF0CF046504A5C4E6E47504B584F6EAD
:1018280048504C58506E49504D58516EFF0E4E243A
:10183800466EFF0E4F20476EFF0E5020486EFF0E7B
:101848005120496E800E601B636D6351D8A42FEF41
:101858000CF031EF0CF041EF0CF0010E4626000EB3
:1018680047224822492241EF0CF04A50465E4B502D
:10187800475A4C50485A4D50495A465047104810FC
:101888004910D8A44AEF0CF04CEF0CF081EF0CF0A3
:101898006351D8A452EF0CF054EF0CF081EF0CF028
:1018A800000E466E000E476E000E486E000E496E22
:1018B8001CEF0DF0D890463647364836493663AFA8
:1018C80068EF0CF06AEF0CF06BEF0CF0468063A148
:1018D80070EF0CF072EF0CF076EF0CF0D8806337F5
:1018E80078EF0CF0D89063376251D8B47EEF0CF0E3
:1018F80080EF0CF081EF0CF0620748AE86EF0CF039
:1019080088EF0CF05EEF0CF0000E616F63AF8FEFA5
:101918000CF091EF0CF0A9EF0CF063C04EF07F0EC5
:101928004E16D8B49AEF0CF09CEF0CF0A0EF0CF028
:10193800010E616FA9EF0CF046A0A5EF0CF0A7EF20
:101948000CF0A9EF0CF09CEF0CF06151D8B4AFEF9C
:101958000CF0B1EF0CF0DCEF0CF0010E4626000E97
:1019680047224822492249A0BCEF0CF0BEEF0CF0F8
:10197800DCEF0CF046C04EF047C04FF048C050F0C6
:1019880049C051F05134513250324F324E324EC06C
:1019980046F04FC047F050C048F051C049F06229A6
:1019A800D8B4D9EF0CF0DBEF0CF0DCEF0CF0622BC5
:1019B8006229D8B4E2EF0CF0E4EF0CF0ECEF0CF095
:1019C8006251D8A4EAEF0CF0ECEF0CF0FEEF0CF04B
:1019D800000E466E000E476E000E486E000E496EF1
:1019E8006251D8A4FAEF0CF0FCEF0CF0FEEF0CF00B
:1019F800000E606F62A103EF0DF005EF0DF008EF28
:101A08000DF0488E09EF0DF0489ED8906231496E6E
:101A180060AF11EF0DF013EF0DF014EF0DF0498EDC
:101A280046C046F047C047F048C048F049C049F0B2
:101A380012001750800B206E17501724266E16AE12
:101A480028EF0DF02AEF0DF02BEF0DF02680265031
:101A5800D8B431EF0DF033EF0DF046EF0DF0262836
:101A6800D8A439EF0DF03BEF0DF043EF0DF0000E69
:101A7800146E000E156E000E166E000E176E168E82
:101A88004EEF0DF0000E146E000E156E000E166E61
:101A9800000E176E1B50800B201A1B501B24216E42
:101AA8001AAE59EF0DF05BEF0DF05CEF0DF02180F1
:101AB8002150D8B462EF0DF064EF0DF077EF0DF020
:101AC8002128D8A46AEF0DF06CEF0DF074EF0DF03B
:101AD800000E186E000E196E000E1A6E000E1B6EA8
:101AE8001A8E7FEF0DF0000E186E000E196E000EA4
:101AF8001A6E000E1B6E2150D8B485EF0DF087EFDB
:101B08000DF08FEF0DF02650D8A48DEF0DF08FEF6C
:101B18000DF099EF0DF0000E146E000E156E000E0C
:101B2800166E000E176E31EF0FF01A501402F3CF35
:101B38002BF0F4CF2CF02B50226E236A246A256AEE
:101B48002C50276E286A296A2A6A19501502F3CF81
:101B58002BF0F4CF2CF02B502226000E2322242227
:101B680025222C502726000E282229222A22185006
:101B78001602F3CF2BF0F4CF2CF02B502226000EB8
:101B88002322242225222C502726000E282229220F
:101B98002A2224C025F023C024F022C023F0226A80
:101BA80018501502F3CF2BF0F4CF2CF02B5022262F
:101BB8002C502322000E2422000E25221950140234
:101BC800F3CF2BF0F4CF2CF02B5022262C502322CD
:101BD800000E2422000E252224C025F023C024F064
:101BE80022C023F0226A18501402F3CF2BF0F4CF4E
:101BF8002CF02B5022262C502322000E2422000EDB
:101C080025221A501502F3CF2BF0F4CF2CF02B50CD
:101C180027262C502822000E2922000E2A2219508D
:101C28001602F3CF2BF0F4CF2CF02B5027262C5094
:101C38002822000E2922000E2A221A501602F3CF5B
:101C48002BF0F4CF2CF02B501C6E2C501D6E1E6AFE
:101C58001F6A1EC01FF01DC01EF01CC01DF01C6AAC
:101C68001C5027261D5028221E5029221F502A2288
:101C780022C01CF023C01DF024C01EF025C01FF098
:101C8800190E4CEF0EF0D8901F321E321D321C3246
:101C9800E82E47EF0EF01C5027261D5028221E5014
:101CA80029221F502A2224C025F023C024F022C054
:101CB80023F0226A215026C01CF01D6A1C26000E43
:101CC8001D22820E1C242B6EFF0E1D202C6E82EF0F
:101CD8000EF0D8902736283629362A3625AE77EFE3
:101CE8000EF079EF0EF07AEF0EF02780D8902236BA
:101CF8002336243625362B06D8A02C0629AE87EFA6
:101D08000EF089EF0EF06DEF0EF0000E216E25AE8D
:101D180090EF0EF092EF0EF0B6EF0EF0FF0E2214D9
:101D28001C6EFF0E23141D6EFF0E24141E6E7F0EF4
:101D380025141F6E1C501D101E101F10D8B4A7EFBD
:101D48000EF0A9EF0EF0ADEF0EF0010E216EB6EF1A
:101D58000EF027A0B2EF0EF0B4EF0EF0B6EF0EF0D3
:101D6800A9EF0EF02150D8B4BCEF0EF0BEEF0EF084
:101D7800E2EF0EF0010E2726000E282229222A2241
:101D88002AA0C9EF0EF0CBEF0EF0E2EF0EF027C05D
:101D98001CF028C01DF029C01EF02AC01FF01F34F7
:101DA8001F321E321D321C321CC027F01DC028F005
:101DB8001EC029F01FC02AF02B4A2C2A2CBEEDEF9A
:101DC8000EF02C5008E12B28D8A0EDEF0EF0EFEF25
:101DD8000EF0F9EF0EF0000E276E000E286E800E42
:101DE800296E7F0E2A6E27EF0FF02CBE06EF0FF03C
:101DF8002C5006E12B04D8B004EF0FF006EF0FF0DB
:101E080012EF0FF0000E276E000E286E000E296EDE
:101E1800000E2A6E000E206E27EF0FF02BC026F062
:101E2800FF0E2716FF0E28167F0E2916000E2A16FB
:101E380026A021EF0FF023EF0FF024EF0FF0298EEB
:101E4800D89026302A6E20502A1227C014F028C0B5
:101E580015F029C016F02AC017F0120015C194F029
:101E680016C195F017C196F018C197F084C094F088
:101E780085C095F086C096F087C097F0000197BF9F
:101E880048EF0FF04BEF0FF0010E4CEF0FF0000E84
:101E9800936F979FDB0E945D0F0E9559C90E965957
:101EA8004D0E9759D8B05BEF0FF05DEF0FF049EF8B
:101EB80010F084C006F085C007F086C008F087C01F
:101EC80009F041EC26F006C09CF007C09DF008C060
:101ED8009EF009C09FF0000E4A6E000E4B6E000E79
:101EE8004C6E3F0E4D6E830E186EF90E196E220E53
:101EF8001A6E3F0E1B6E9CC014F09DC015F09EC05C
:101F080016F09FC017F01DEC0DF014C046F015C078
:101F180047F016C048F017C049F0BCEC0AF046C0BC
:101F280064F047C065F048C066F049C067F05FECF0
:101F38001FF064C0A0F065C0A1F066C0A2F067C041
:101F4800A3F0A0C006F0A1C007F0A2C008F0A3C08B
:101F580009F0010ED9EC19F006C098F007C099F005
:101F680008C09AF009C09BF0DA0E186E0F0E196EB1
:101F7800C90E1A6E3F0E1B6E98C014F099C015F06A
:101F88009AC016F09BC017F01DEC0DF014C068F055
:101F980015C069F016C06AF017C06BF09CC064F0F9
:101FA8009DC065F09EC066F09FC067F04AEC25F0C2
:101FB80064C08FF065C090F066C091F067C092F081
:101FC8008FC064F090C065F091C066F092C067F071
:101FD800A30E186E850E196E880E1A6E320E1B6EC1
:101FE80098C014F099C015F09AC016F09BC017F06D
:101FF8001DEC0DF014C068F015C069F016C06AF049
:1020080017C06BF04AEC25F000018851D96EDA6AE6
:1020180064C0DEFF65C0DEFF66C0DEFF67C0DEFFAE
:102028009351D8B41AEF10F01CEF10F043EF10F0F2
:102038008851D96EDA6ADECF80F0DECF81F0DECF4C
:1020480082F0DECF83F0D2EC25F000018851D96E02
:10205800DA6A80C0DEFF81C0DEFF82C0DEFF83C097
:10206800DEFFA0C089F0A1C08AF0891F8A1F894BB2
:102078008A2B89C084F08AC085F012EF11F0A0C0C5
:1020880084F0A1C085F012EF11F084C006F085C07D
:1020980007F086C008F087C009F041EC26F006C0BA
:1020A8009CF007C09DF008C09EF009C09FF0000E8C
:1020B8004A6E000E4B6E000E4C6E3F0E4D6E830E38
:1020C800186EF90E196E220E1A6E3F0E1B6E9CC00A
:1020D80014F09DC015F09EC016F09FC017F01DECBF
:1020E8000DF014C046F015C047F016C048F017C0F0
:1020F80049F0BCEC0AF046C064F047C065F048C03F
:1021080066F049C067F05FEC1FF064C0A0F065C0DE
:10211800A1F066C0A2F067C0A3F0A0C006F0A1C0FD
:1021280007F0A2C008F0A3C009F0010ED9EC19F01D
:1021380006C098F007C099F008C09AF009C09BF053
:10214800DA0E186E0F0E196EC90E1A6E3F0E1B6E40
:1021580098C014F099C015F09AC016F09BC017F0FB
:102168001DEC0DF014C068F015C069F016C06AF0D7
:1021780017C06BF09CC064F09DC065F09EC066F00F
:102188009FC067F04AEC25F064C08FF065C090F0FE
:1021980066C091F067C092F08FC064F090C065F09F
:1021A80091C066F092C067F0A30E186E850E196E86
:1021B800880E1A6E320E1B6E98C014F099C015F076
:1021C8009AC016F09BC017F01DEC0DF014C068F013
:1021D80015C069F016C06AF017C06BF04AEC25F01C
:1021E80064C08BF065C08CF066C08DF067C08EF05F
:1021F80000018851D96EDA6A8BC0DEFF8CC0DEFF21
:102208008DC0DEFF8EC0DEFF9351D8B40EEF11F003
:1022180010EF11F043EF10F01CEF10F012003050E7
:10222800800B3D6E30503024446E2FAE1EEF11F0FF
:1022380020EF11F021EF11F044804450D8B427EF7B
:1022480011F029EF11F03EEF11F04428D8A42FEF38
:1022580011F031EF11F039EF11F0000E2D6E000E74
:102268002E6E000E2F6E000E306E2F8E000E306E0A
:1022780046EF11F0000E2D6E000E2E6E000E2F6E22
:10228800000E306E3450800B3D1A34503424456EA5
:1022980033AE51EF11F053EF11F054EF11F04580C8
:1022A8004550D8B45AEF11F05CEF11F071EF11F00E
:1022B8004528D8A462EF11F064EF11F06CEF11F02B
:1022C800000E316E000E326E000E336E000E346E4C
:1022D800338E000E346E79EF11F0000E316E000E61
:1022E800326E000E336E000E346E315032103310E1
:1022F8003410D8A482EF11F084EF11F09CEF11F0A4
:10230800000E2D6E000E2E6E000E2F6E000E306E1B
:10231800800E2F127F0E30123D5030122DC02DF03E
:102328002EC02EF02FC02FF030C030F0DFEF12F0AB
:102338004450D8A4A2EF11F0A4EF11F0AEEF11F0C1
:10234800000E2D6E000E2E6E000E2F6E000E306EDB
:10235800DFEF12F0455044C035F0366A355E000EA6
:10236800365A7F0E35243E6E000E36203F6E2DC045
:1023780039F02EC03AF02FC03BF030C03CF0000ED0
:102388002D6E000E2E6E000E2F6E000E306E000E9B
:10239800406E000E416E000E426E000E436E000E3F
:1023A800456E0FEF12F04550D8B4DDEF11F0DFEFB6
:1023B80011F0F6EF11F0D89039363A363B363C3604
:1023C800D8902D362E362F36303643AEEEEF11F03C
:1023D800F0EF11F0F1EF11F02D80D8904036413632
:1023E800423643363150395C32503A5833503B58B4
:1023F80034503C58D8A003EF12F005EF12F00EEF5E
:1024080012F0438C3150395E32503A5A33503B5AAD
:1024180034503C5A452A190E456415EF12F017EF4F
:1024280012F0D7EF11F039503A103B103C10D8B4E5
:1024380020EF12F022EF12F03AEF12F040803AEF5C
:1024480012F0D8902D362E362F36303643AE2FEF79
:1024580012F031EF12F032EF12F02D80D8904036A2
:102468004136423643363E06D8A03F062FAE3FEFF0
:1024780012F041EF12F025EF12F0000E456E43AE58
:1024880048EF12F04AEF12F06EEF12F0FF0E401410
:10249800356EFF0E4114366EFF0E4214376E7F0EF6
:1024A8004314386E3550361037103810D8B45FEFF3
:1024B80012F061EF12F065EF12F0010E456E6EEF4B
:1024C80012F02DA06AEF12F06CEF12F06EEF12F01E
:1024D80061EF12F04550D8B474EF12F076EF12F0B5
:1024E8009AEF12F0010E2D26000E2E222F223022F6
:1024F80030A081EF12F083EF12F09AEF12F02DC0A6
:1025080035F02EC036F02FC037F030C038F03834F0
:10251800383237323632353235C02DF036C02EF0EB
:1025280037C02FF038C030F03E4A3F2A3FBEA5EFF3
:1025380012F03F5008E13E28D8A0A5EF12F0A7EF0F
:1025480012F0B2EF12F0000E3F6E3E68000E2D6ED4
:10255800000E2E6E000E2F6E000E306E3FBEBFEFC7
:1025680012F03F5006E13E04D8B0BDEF12F0BFEFC5
:1025780012F0CDEF12F0000E3F6E000E3E6E000E10
:102588002D6E000E2E6E000E2F6E000E306E000E99
:102598003D6E3EC044F044A0D4EF12F0D6EF12F0E6
:1025A800D9EF12F02F8EDAEF12F02F9ED890443028
:1025B800306E90EF11F01200948092889286928487
:1025C8000F013897389593969496949AC650F00BC5
:1025D8000209C66EC698C78CC68A3981C09EC0508B
:1025E800F80B0609C06EC050C70B3009C06EC28018
:1025F800190EAF6EAB8EAC98AC8AAB888A86C25087
:10260800830B3009C26E010E0001DC6F010EDB6F17
:10261800000EDD6F4AEF14F07F0EDD6116EF13F048
:1026280018EF13F040EF13F0330E186E330E196ED7
:10263800F30E1A6E3F0E1B6EDD51066E076A086AAE
:10264800096A010ED9EC19F006C014F007C015F09C
:1026580008C016F009C017F01DEC0DF014C064F0A6
:1026680015C065F016C066F017C067F05FEC1FF084
:1026780000016451B3EC25F07E0E0001DD6547EFE3
:1026880013F049EF13F005EF14F0330E186E330E04
:10269800196EF30E1A6E3F0E1B6EDD51FF0AD26FD4
:1026A800D251066E076A086A096A010ED9EC19F058
:1026B80006C014F007C015F008C016F009C017F0DE
:1026C8001DEC0DF014C064F015C065F016C066F07E
:1026D80017C067F05FEC1FF000016451B3EC25F000
:1026E80005EF14F0000E316E000E326E7F0E336E61
:1026F800430E346EC30E186EF50E196EC80E1A6EA0
:10270800400E1B6EDD51066E076A086A096A010EE3
:10271800D9EC19F006C014F007C015F008C016F07F
:1027280009C017F01DEC0DF014C02DF015C02EF0E7
:1027380016C02FF017C030F013EC11F02DC0D3F0F5
:102748002EC0D4F02FC0D5F030C0D6F0D3C0A4F03E
:10275800D4C0A5F0D5C0A6F0D6C0A7F037EC08F0D5
:10276800A4C0D7F0A5C0D8F0A6C0D9F0A7C0DAF0A9
:10277800000E4A6E000E4B6EFE0E4C6E420E4D6EF3
:10278800000E186E000E196EFE0E1A6E420E1B6EAB
:10279800D7C014F0D8C015F0D9C016F0DAC017F0B9
:1027A8001DEC0DF014C046F015C047F016C048F0F7
:1027B80017C049F0BCEC0AF046C064F047C065F0A9
:1027C80048C066F049C067F05FEC1FF00001645133
:1027D800B3EC25F005EF14F0DD51FF0AB3EC25F05A
:1027E80005EF14F0DC51010AD8B410EF13F0030A16
:1027F800D8B476EF13F0010AD8B4F0EF13F005EF70
:1028080014F0C282C2B20BEF14F00DEF14F006EF11
:1028180014F0E60E0001CE6FFF0ECF6FC4CFD0F0DC
:10282800D16BAFEC26F082A01CEF14F01EEF14F071
:1028380021EF14F0010E0001DC6F80A826EF14F0E0
:1028480028EF14F02BEF14F0020E0001DC6F80A6C5
:1028580030EF14F032EF14F035EF14F0030E0001EE
:10286800DC6F80A43AEF14F03CEF14F03FEF14F063
:10287800000E0001DB6F0001DD2B680E0001D26F36
:10288800E40EE82EFED7D22FFCD700000001DB5162
:10289800D8A451EF14F053EF14F0F6EF13F0120030
:1028A800050E0001FE6F0F0EFD6FF10EE82EFED72C
:1028B800FD2FFCD7FE2FFAD79480928892869284B7
:1028C8000F01389738959594959694989598959A78
:1028D800959C8C848C868B888C888C8A8C8C5CEC00
:1028E80021F0000E0101C96F000EC86F000E000133
:1028F800E76F0101C95151EC1EF00101C96F82A0B7
:1029080088EF14F08AEF14F0ADEF14F0030E000115
:10291800FE6F080EFD6F770EE82EFED7FD2FFCD751
:10292800FE2FFAD782A09BEF14F09DEF14F0ADEFC5
:1029380014F0020E0001E76F0101C95151EC1EF0BD
:102948000101C96F82B0ABEF14F0ADEF14F0A6EF40
:1029580014F080A8B2EF14F0B4EF14F0D7EF14F02D
:10296800030E0001FE6F080EFD6F770EE82EFED7EE
:10297800FD2FFCD7FE2FFAD780A8C5EF14F0C7EFBC
:1029880014F0D7EF14F0010E0001E76F0101C951EF
:1029980051EC1EF00101C96F80B8D5EF14F0D7EFE4
:1029A80014F0D0EF14F080A6DCEF14F0DEEF14F092
:1029B80094EF15F0030E0001FE6F080EFD6F770E01
:1029C800E82EFED7FD2FFCD7FE2FFAD780A6EFEF13
:1029D80014F0F1EF14F094EF15F080B6F6EF14F060
:1029E800F8EF14F0F1EF14F074EF15F0590E076ECC
:1029F800FF0E086E010E90EC22F0370E076EFF0EE8
:102A0800086E020E90EC22F040EC1CF0010E010161
:102A1800C86F94EF15F0480E076EFF0E086E010E92
:102A280090EC22F09D0E076EFF0E086E020E90ECE1
:102A380022F0F8EC1CF00AEF15F06A0E076EFF0E94
:102A4800086E010E90EC22F0370E076EFF0E086E2E
:102A5800020E90EC22F0AEEC1DF00AEF15F08C0E91
:102A6800076EFF0E086E010E90EC22F0D1EC17F005
:102A78000AEF15F07B0E076EFF0E086E010E90EC44
:102A880022F0AE0E076EFF0E086E020E90EC22F0DA
:102A9800E0EC12F00AEF15F0370E076EFF0E086E25
:102AA800010E90EC22F0370E076EFF0E086E020E34
:102AB80090EC22F0DAEC1EF00AEF15F0370E076EF4
:102AC800FF0E086E010E90EC22F0370E076EFF0E17
:102AD800086E020E90EC22F0F4EC26F00AEF15F0E6
:102AE8000101C951000AD8B4FAEF14F0010AD8B4A8
:102AF8000FEF15F0030AD8B421EF15F0010AD8B486
:102B080033EF15F0070AD8B43EEF15F0010AD8B430
:102B180050EF15F0030AD8B462EF15F094EF15F0F2
:102B280080500101C851D8B49CEF15F09EEF15F004
:102B380083EF14F0000E0001E76F0101C95151EC59
:102B48001EF00101C96F000EC86F83EF14F08AEF01
:102B580000F064C014F065C015F066C016F067C0D8
:102B680017F064C018F065C019F066C01AF067C0A5
:102B78001BF01DEC0DF014C080F015C081F016C0DC
:102B880082F017C083F080C014F081C015F082C0B5
:102B980016F083C017F080C018F081C019F082C009
:102BA8001AF083C01BF01DEC0DF014C06CF015C0BA
:102BB8006DF016C06EF017C06FF03C0E186E6C0EFC
:102BC800196E360E1A6E360E1B6E80C014F081C058
:102BD80015F082C016F083C017F01DEC0DF014C07C
:102BE80046F015C047F016C048F017C049F0CF0EA0
:102BF8004A6E070E4B6E500E4C6EB90E4D6EBCEC05
:102C08000AF046C068F047C069F048C06AF049C099
:102C18006BF080C014F081C015F082C016F083C03C
:102C280017F064C018F065C019F066C01AF067C0E4
:102C38001BF01DEC0DF014C07CF015C07DF016C023
:102C48007EF017C07FF0AB0E4A6EAA0E4B6E2A0EAE
:102C58004C6EBE0E4D6E840E186E880E196E080EE0
:102C68001A6E3C0E1B6E80C014F081C015F082C035
:102C780016F083C017F01DEC0DF014C046F015C017
:102C880047F016C048F017C049F0BCEC0AF046C03F
:102C980070F047C071F048C072F049C073F06CC062
:102CA80018F06DC019F06EC01AF06FC01BF07CC030
:102CB80014F07DC015F07EC016F07FC017F01DEC33
:102CC8000DF014C074F015C075F016C076F017C07A
:102CD80077F064C04AF065C04BF066C04CF067C03E
:102CE8004DF07CC018F07DC019F07EC01AF07FC08E
:102CF8001BF070C014F071C015F072C016F073C0EC
:102D080017F01DEC0DF014C046F015C047F016C0C2
:102D180048F017C049F0BCEC0AF046C078F047C04C
:102D280079F048C07AF049C07BF078C046F079C0A5
:102D380047F07AC048F07BC049F068C018F069C015
:102D480019F06AC01AF06BC01BF074C014F075C09B
:102D580015F076C016F077C017F01DEC0DF014C012
:102D68004AF015C04BF016C04CF017C04DF0BCEC43
:102D78000AF046C064F047C065F048C066F049C034
:102D880067F0120019C166F01AC167F01BC168F03C
:102D98001CC169F046C066F047C067F048C068F0DB
:102DA80049C069F0810E4A6EFF0E4B6E66C04CF04A
:102DB80067C04DF068C04EF069C04FF0180EEAEFDA
:102DC80016F0D8904F324E324D324C32E82EE5EFA5
:102DD80016F04C504A240001646F000E4B20656FBA
:102DE80065BF00EF17F0655109E1170E645DD8A0C3
:102DF80000EF17F002EF17F00CEF17F046C046F09F
:102E080047C047F048C048F049C049F0D0EF17F034
:102E180065BF11EF17F013EF17F084EF17F064C0D8
:102E28004AF0FF0E4B6EFF0E4C6E7F0E4D6E000E7D
:102E38004E6E4A6622EF17F02AEF17F04E344E32E4
:102E48004D324C324B324A2E1DEF17F04BC060F01A
:102E58004CC061F04DC062F04EC063F0000160519B
:102E680066154A6E615167154B6E625168154C6E56
:102E7800635169154D6E4A504B104C104D10D8A433
:102E880048EF17F04AEF17F04CEF17F002EF17F082
:102E980066C04AF067C04BF068C04CF069C04DF09E
:102EA800200E5CEF17F0D8904D324C324B324A323C
:102EB800E82E57EF17F04A504B104C104D10D8B46D
:102EC80068EF17F06AEF17F072EF17F06051662796
:102ED800615167236251682363516923601D4A6EFB
:102EE800611D4B6E621D4C6E631D4D6E4A50661718
:102EF8004B5067174C5068174D506917C8EF17F0BB
:102F080066C04AF067C04BF068C04CF069C04DF02D
:102F1800200E94EF17F0D8904D324C324B324A3293
:102F2800E82E8FEF17F04A504B104C104D10D8A4D4
:102F3800A0EF17F0A2EF17F0ACEF17F0000E666FD6
:102F4800000E676F000E686F000E696FC8EF17F00C
:102F5800D89066354A6E67354B6E68354C6E693564
:102F68004D6E4A504B104C104D10D8B4BEEF17F0B0
:102F7800C0EF17F0C8EF17F0000E666F000E676F0E
:102F8800800E686FBF0E696F66C046F067C047F075
:102F980068C048F069C049F012000F01388B3C81C5
:102FA800C08EC050F80B0609C06EC050C70B300960
:102FB800C06EC28021EE95F0100EDE6AE806FDE2D2
:102FC800010E0101B26FCFEF18F0C250830B140944
:102FD800C26EC282C2B2F3EF17F0F5EF17F0EEEF50
:102FE80017F0C350C4CFE7F00001E86BE7C0E8F082
:102FF800E76BE7110101AE6F0001E8510101AF6F06
:10300800000E316EC00E326E7F0E336E440E346E7B
:10301800AEC106F0AFC107F0086A096A000ED9EC24
:1030280019F006C02DF007C02EF008C02FF009C017
:1030380030F013EC11F02DC014F02EC015F02FC095
:1030480016F030C017F0330E186E330E196E530E8B
:103058001A6E400E1B6E1DEC0DF014C0A6F115C0C3
:10306800A7F116C0A8F117C0A9F1C250830B100927
:10307800C26EC282C2B243EF18F045EF18F03EEFBD
:1030880018F0C350C4CFE7F00001E86BE7C0E8F0E0
:10309800E76BE7110101B06F0001E8510101B16F61
:1030A800000E316EC00E326E7F0E336E440E346EDB
:1030B800B0C106F0B1C107F0086A096A000ED9EC80
:1030C80019F006C02DF007C02EF008C02FF009C077
:1030D80030F013EC11F02DC014F02EC015F02FC0F5
:1030E80016F030C017F0330E186E330E196E530EEB
:1030F8001A6E400E1B6E1DEC0DF014C0AAF115C01F
:10310800ABF116C0ACF117C0ADF1950E0001CE6F52
:10311800010ECF6F130ED06FFF0ED16FA6C1D2F084
:10312800A7C1D3F0A8C1D4F0A9C1D5F0AAC1D6F0DF
:10313800ABC1D7F0ACC1D8F0ADC1D9F06EEC25F079
:10314800950E076E010E086E020E90EC22F080A418
:10315800B0EF18F0B2EF18F0CFEF18F0030E00013F
:10316800E86F080EE76F770EE82EFED7E72FFCD73B
:10317800E82FFAD780A4C3EF18F0C5EF18F0CFEF07
:1031880018F080B4CAEF18F0CCEF18F0C5EF18F0BB
:10319800000E0101B26F0101B251D8A4D6EF18F0A8
:1031A800D8EF18F0E9EF17F0C290120064C014F0DD
:1031B80065C015F066C016F067C017F064C018F057
:1031C80065C019F066C01AF067C01BF01DEC0DF061
:1031D80014C07CF015C07DF016C07EF017C07FF0DB
:1031E8007CC014F07DC015F07EC016F07FC017F0CB
:1031F8007CC018F07DC019F07EC01AF07FC01BF0AB
:103208001DEC0DF014C078F015C079F016C07AF0F6
:1032180017C07BF0170E186E9A0E196ECC0E1A6E28
:10322800370E1B6E7CC014F07DC015F07EC016F002
:103238007FC017F01DEC0DF014C046F015C047F024
:1032480016C048F017C049F03F0E4A6E040E4B6E88
:10325800B60E4C6EBA0E4D6EBCEC0AF046C068F065
:1032680047C069F048C06AF049C06BF0000E4A6E6A
:10327800000E4B6E800E4C6E3F0E4D6E000E186E9B
:10328800000E196E000E1A6EBF0E1B6E7CC014F075
:103298007DC015F07EC016F07FC017F01DEC0DF054
:1032A80014C046F015C047F016C048F017C049F0E2
:1032B800BCEC0AF046C06CF047C06DF048C06EF038
:1032C80049C06FF07CC018F07DC019F07EC01AF0BC
:1032D8007FC01BF078C014F079C015F07AC016F0E2
:1032E8007BC017F01DEC0DF014C070F015C071F024
:1032F80016C072F017C073F09F0E186EAA0E196EE2
:103308002A0E1A6E3D0E1B6E78C014F079C015F0A7
:103318007AC016F07BC017F01DEC0DF014C04AF00F
:1033280015C04BF016C04CF017C04DF06CC046F0FD
:103338006DC047F06EC048F06FC049F0BCEC0AF0B1
:1033480046C074F047C075F048C076F049C077F0C1
:1033580074C046F075C047F076C048F077C049F0B1
:1033680068C018F069C019F06AC01AF06BC01BF089
:1033780070C014F071C015F072C016F073C017F069
:103388001DEC0DF014C04AF015C04BF016C04CF0FF
:1033980017C04DF0BCEC0AF046C064F047C065F0B9
:1033A80048C066F049C067F012000E6E0E50D8B4DF
:1033B800E0EF19F0E2EF19F004EF1AF009BEE9EFB7
:1033C80019F0E7EF19F004EF1AF006C00AF007C089
:1033D8000BF008C00CF009C00DF00A1E0B1E0C1EE5
:1033E8000D1E0A2A000E0B220C220D220AC010F014
:1033F8000BC011F00CC012F00DC013F00CEF1AF056
:1034080006C010F007C011F008C012F009C013F090
:103418000650071008100910D8A415EF1AF017EF76
:103428001AF021EF1AF0000E066E000E076E000E5D
:10343800086E000E096EB2EF1AF0960E0F6E2BEFA3
:103448001AF00F2AD8901332123211321032000EAD
:1034580010140A6E000E11140B6E000E12140C6E6E
:10346800FE0E13140D6E0A500B100C100D10D8A47C
:1034780040EF1AF042EF1AF025EF1AF050EF1AF069
:103488000F2A010E1026000E112212221322D890A4
:103498001332123211321032000E10140A6E000E5E
:1034A80011140B6E000E12140C6EFF0E13140D6E19
:1034B8000A500B100C100D10D8A465EF1AF067EF26
:1034C8001AF044EF1AF06FEF1AF00F06D890103682
:1034D80011361236133612BE74EF1AF076EF1AF060
:1034E8007EEF1AF0020E0F607CEF1AF07EEF1AF0F2
:1034F80069EF1AF00FB083EF1AF085EF1AF086EF34
:103508001AF0129ED8900F320FC00AF00B6A0C6A9C
:103518000D6A0AC00DF00C6A0B6A0A6A0A5010128A
:103528000B5011120C5012120D5013120E50D8B429
:10353800A0EF1AF0A2EF1AF0AAEF1AF009BEA9EF4D
:103548001AF0A7EF1AF0AAEF1AF0138E10C006F0BF
:1035580011C007F012C008F013C009F0120012C021
:103568001AF013C01BF01A501B10D8A4BEEF1AF0A3
:10357800C0EF1AF0C4EF1AF0BF0E1A6EFF0E1B6EE2
:10358800000E1D6E000E1C6ECCEF1AF01C4A1D2A90
:103598001C501A24146E1D501B20156E14C0F6FF03
:1035A80015C0F7FF000EF86E0F0EF76403D0080081
:1035B800F55005D0F6CFE1FFF7CFE2FFE75000095D
:1035C800D8A4E9EF1AF0EBEF1AF0CAEF1AF058BED8
:1035D800F0EF1AF0F2EF1AF005EF1BF01C50575CF1
:1035E8005850800A146E1D50800A1458D8B0FFEF46
:1035F8001AF001EF1BF005EF1BF057C01CF058C084
:103608001DF01CC016F01DC017F055C018F056C0AC
:1036180019F059B012EF1BF014EF1BF050EF1BF02C
:1036280022EF1BF0000E086E200E076E10C009F086
:1036380011C00AF0C9EC21F01C4A1D2A18501C5C64
:103648001D50800A146E1950800A1458D8A02FEF04
:103658001BF031EF1BF016EF1BF050EF1BF01AC0F8
:10366800F6FF1BC0F7FF000EF86E0F0EF76403D0CD
:103678000800F55005D0F6CFE1FFF7CFE2FFE7509D
:10368800146E1450076E086A10C009F011C00AF0D1
:10369800C9EC21F01A4A1B2A1606D8A017061628C4
:1036A80006E11728D8A45BEF1BF05DEF1BF033EFA2
:1036B8001BF059A062EF1BF064EF1BF081EF1BF0C9
:1036C80072EF1BF0000E086E200E076E10C009F096
:1036D80011C00AF0C9EC21F01C4A1D2A18501C5CC4
:1036E8001D50800A146E1950800A1458D8A07FEF14
:1036F8001BF081EF1BF066EF1BF0120023BE87EF73
:103708001BF08AEF1BF0010E8BEF1BF0000E2A6EE8
:1037180058BE93EF1BF091EF1BF099EF1BF0000ED2
:10372800296E010E286E9DEF1BF057C028F058C077
:1037380029F055C026F056C027F02A50D8B4A7EF74
:103748001BF0A9EF1BF0C0EF1BF02606D8A0270638
:103758002A50D8A4B2EF1BF0B4EF1BF0BAEF1BF05D
:10376800000E256E2B0E246EBEEF1BF0000E256E8C
:103778002D0E246E24C02AF0000E2C6E4F0E2B6ED8
:10378800000E0101746FF9EF1BF02B06D8A02C0670
:10379800250E2B24D96E010E2C20DA6E22C006F0DD
:1037A80023C007F0000E096E0A0E086EE9EC22F03D
:1037B80006C00CF007C00DF05BEC26F00C50300F83
:1037C800DF6E2806D8A029062606D8A0270622C01C
:1037D80006F023C007F0000E096E0A0E086E2EECE4
:1037E80022F006C022F007C023F02CBE04EF1CF024
:1037F8002C5008E12B04D8A004EF1CF006EF1CF0B5
:103808001CEF1CF022502310D8A40DEF1CF00FEF72
:103818001CF0C9EF1BF029BE1CEF1CF0295006E173
:103828002804D8B01AEF1CF01CEF1CF0C9EF1BF0ED
:103838002A50D8B422EF1CF024EF1CF02FEF1CF014
:103848002B06D8A02C06250E2B24D96E010E2C2071
:10385800DA6E2AC0DFFF20C017F021C018F0250E4D
:103868002B24196E010E2C201A6E26C01BF027C0BF
:103878001CF0EDEC23F01200959495969498959889
:10388800959A959C0F013B953B973A993B993B9BA1
:103898003B9D8C848C868B888C888C8A8C8C9284BB
:1038A80038953F0ECD16300ECD129D80F28CF28EDB
:1038B800010E0101246F9E809E0ECF6E580ECE6EB3
:1038C800CD80010E0001FF6F000E216E21EEE6F0A3
:1038D80010EE15F00B0EDBCFE3FFE806FCE221EE5D
:1038E800DAF010EE09F00B0EDBCFE3FFE806FCE29E
:1038F800000E236E0C0E226E000E246EE3EF1CF0F9
:10390800000E266E000E256E2550020DF350150F81
:10391800D96EDA6A02D8B5EF1CF00500FA6EDE50EF
:10392800FD6EDE50FE6EF850FF6EFA502550050809
:10393800076E2450090FD96EDA6ADF50086E072A1D
:10394800A8EF1CF0D8900832072EA6EF1CF008A0AC
:10395800B0EF1CF0B3EF1CF0010EB4EF1CF0000E3A
:103968001200254A262A26BEC3EF1CF0265009E17C
:10397800060E255CD8A0C3EF1CF0C5EF1CF088EF3D
:103988001CF0110E086E3C0E076ECB0EE82EFED70B
:10399800072EFCD7082EFAD70000242A2450076ED9
:1039A800086A2250071807E123500818D8A4DFEF47
:1039B8001CF0E1EF1CF0E3EF1CF0000E246E000198
:1039C800FF51D8A4EAEF1CF0ECEF1CF084EF1CF0D8
:1039D8008C848C868B888C888C8A8C8CCD909D90DE
:1039E800000E0101246F120092840F013A9D3A9F44
:1039F800948C948E190EAF6EAC98AB8EAC8AAB8853
:103A0800010E0101236F9D8AF28CF28E010E0001D6
:103A1800F36F9BEF1DF001019451D8B416EF1DF020
:103A280018EF1DF077EF1DF0750E066E010E076E8C
:103A38000BEC26F006C0F4F007C0F5F0000E00010C
:103A4800F76F000EF66F3FEF1DF0740ED26F010E88
:103A5800D36FF651D25FF751D35BF451D225D96EAB
:103A6800F551D321DA6EF651D40FE16EE26ADFCF59
:103A7800E7FFF64BF72BF451F65DF551F759D8A04F
:103A880048EF1DF04AEF1DF029EF1DF0F451D40F57
:103A9800D96EDA6ADF6AD20ECE6FFF0ECF6FD40E00
:103AA800D06FD16BAFEC26F0000E0101946F000EC1
:103AB8000001F96F000EF86F750EF825D96E010E2A
:103AC800F921DA6EDF6AF84BF92BF9BF75EF1DF0B3
:103AD800F95109E11F0EF85DD8A075EF1DF077EFD9
:103AE8001DF060EF1DF080A47CEF1DF07EEF1DF04F
:103AF8009BEF1DF0030E0001D36F080ED26F770EF7
:103B0800E82EFED7D22FFCD7D32FFAD780A48FEF79
:103B18001DF091EF1DF09BEF1DF080B496EF1DF0A6
:103B280098EF1DF091EF1DF0000E0001F36F0001FA
:103B3800F351D8A4A2EF1DF0A4EF1DF00FEF1DF074
:103B4800AB9EAC9AAB98000E0101236F9D9AF29C34
:103B5800F29E12009484FC0E0F014917C70EBB6E2B
:103B68000C0EBD12BD503F0B8009BD6E000EBE6E1F
:103B78009E92BA849EA2C3EF1DF0C5EF1DF0BEEF62
:103B88001DF094849288928495949596949895982B
:103B9800959A959C8C848C868B888C888C8A8C8C46
:103BA800010E106E000E116E44EF1EF01150C70D7D
:103BB800F3CF06F0F4CF07F0000E096E050E086E7D
:103BC8002EEC22F00650BE6E80A8EDEF1DF0EFEF50
:103BD8001DF021EF1EF0030E0F6E080E0E6E770E0D
:103BE800E82EFED70E2EFCD70F2EFAD7000080A89D
:103BF80000EF1EF002EF1EF021EF1EF080B807EF75
:103C08001EF009EF1EF002EF1EF0050E1118D8A4E1
:103C180010EF1EF012EF1EF016EF1EF0000E116EE0
:103C280021EF1EF0050E11601CEF1EF01EEF1EF0B6
:103C380021EF1EF0112A21EF1EF080A426EF1EF0BE
:103C480028EF1EF044EF1EF0030E0F6E080E0E6EE6
:103C5800770EE82EFED70E2EFCD70F2EFAD70000CF
:103C680080A439EF1EF03BEF1EF044EF1EF080B445
:103C780040EF1EF042EF1EF03BEF1EF0000E106EFC
:103C88001050D8A44AEF1EF04CEF1EF0DAEF1DF0EA
:103C9800F00EBD16BA949D9212000101C76F26EC72
:103CA80026F021EECAF011EEB7F00F0EDBCFE3FFDE
:103CB800E806FCE278EF1EF0060E0101C76167EF27
:103CC8001EF069EF1EF088EF1EF0C72B88EF1EF07C
:103CD8000101C751D8B473EF1EF075EF1EF088EFDD
:103CE8001EF0C70788EF1EF00001E751000AD8B49C
:103CF80088EF1EF0010AD8B460EF1EF0030AD8B4AA
:103D08006CEF1EF088EF1EF0950E0001CE6F010ECD
:103D1800CF6FCC0ED06FFF0ED16F000ED36F0F0E8A
:103D2800D26F0101C751020DB70EF324D96E010EEF
:103D3800F420DA6EDECFD4F0DDCFD5F06EEC25F0CE
:103D4800A60E0001CE6F010ECF6FCD0ED06FFF0E05
:103D5800D16F000ED36F100ED26F0101C751000151
:103D6800E86FE96BD890E837E937020EE827000ECC
:103D7800E923B70EE825D96E010EE921DA6EDECF08
:103D8800D4F0DDCFD5F06EEC25F0950E076E010E60
:103D9800086E010E90EC22F0A60E076E010E086E5A
:103DA800020E90EC22F00101C751120095949596ED
:103DB80094989598959A959C0F013B953B973A99BD
:103DC8003B993B9B3B9D8C848C868B888C888C8A0A
:103DD8008C8C92843895388BC08EC050F80B0609AD
:103DE800C06EC050C70B3009C06EC28020EEE9F02B
:103DF800100EDE6AE806FDE2010E0001FC6F54EFCA
:103E08001FF0C250830B1409C26EC282C2B20FEFF8
:103E18001FF011EF1FF00AEF1FF0C350C4CFE7F0F7
:103E28000001E86BE7C0E8F0E76BE711FA6FE851CB
:103E3800FB6FE90ECE6FCF6B260ED06FFF0ED16FE2
:103E4800FAC0D2F0FBC0D3F06EEC25F0E90E076E95
:103E5800086A020E90EC22F080A435EF1FF037EFCD
:103E68001FF054EF1FF0030E0001E86F080EE76F14
:103E7800770EE82EFED7E72FFCD7E82FFAD780A4D5
:103E880048EF1FF04AEF1FF054EF1FF080B44FEFD8
:103E98001FF051EF1FF04AEF1FF0000E0001FC6FFA
:103EA8000001FC51D8A45BEF1FF05DEF1FF005EF98
:103EB8001FF0C2901200000166356735536E5350EB
:103EC800D8A469EF1FF06BEF1FF075EF1FF0000E1D
:103ED800646F000E656F000E666F000E676FE2EF8D
:103EE8001FF064C068F065C069F066C06AF067C01A
:103EF8006BF0200E85EF1FF0D8906B336A3369336F
:103F08006833E82E80EF1FF06851526E668FFF0EFF
:103F18006417FF0E6517FF0E6617000E6717960EDB
:103F2800535E53BE9CEF1FF09AEF1FF0B2EF1FF0E5
:103F38005350800A970FD8B0A4EF1FF0A6EF1FF0D8
:103F4800A8EF1FF06BEF1FF0D89067336633653327
:103F58006433533EA8EF1FF0CAEF1FF01F0E5364DF
:103F6800B8EF1FF0BAEF1FF0C2EF1FF06BEF1FF0B2
:103F7800D890643765376637673753065350D8A4E7
:103F8800C8EF1FF0CAEF1FF0BCEF1FF05250D8B4B3
:103F9800D0EF1FF0D2EF1FF0DAEF1FF0671F661F98
:103FA800651F646D000E65236623672364C064F093
:103FB80065C065F066C066F067C067F01200000E65
:103FC8002D14356E000E2E14366E800E2F14376E9B
:103FD8007F0E3014386E3550361037103810D8A48C
:103FE800F8EF1FF0FAEF1FF002EF20F0000E2D6E31
:103FF800000E2E6E000E2F6E000E306E000E311465
:10400800356E000E3214366E800E3314376E7F0E06
:104018003414386E3550361037103810D8A417EFCE
:1040280020F019EF20F021EF20F0000E316E000E85
:10403800326E000E336E000E346E30AE26EF20F076
:1040480028EF20F031EF20F02D6C2E1ED8B02E2A4C
:104058002F1ED8B02F2A800E305634AE36EF20F0FF
:1040680038EF20F041EF20F0316C321ED8B0322A00
:10407800331ED8B0332A800E3456000E2D1A000E87
:104088002E1A000E2F1A800E301A000E311A000E4A
:10409800321A000E331A800E341A31502D5C325009
:1040A8002E5833502F5834503058D8B05EEF20F087
:1040B80060EF20F063EF20F0D89064EF20F0D88014
:1040C80012001DC110F01EC111F01FC112F020C155
:1040D80013F006C010F007C011F008C012F009C0B4
:1040E80013F010C00AF011C00BF012C00CF013C08E
:1040F8000DF0180E85EF20F0D8900D320C320B32EF
:104108000A32E82E80EF20F00A500E6E0F6A0E5029
:104118000F10D8A492EF20F094EF20F0B4EF20F025
:10412800D89010340A6E11340B6E12340C6E13349E
:104138000D6E0A500B100C100D10D8A4A6EF20F02D
:10414800A8EF20F0AEEF20F0000E076E020E066E0C
:10415800E3EF20F0000E076E030E066EE3EF20F08B
:104168000E280F10D8A4BBEF20F0BDEF20F0DFEF32
:1041780020F010C00AF011C00BF012C00CF013C0F0
:104188000DF0090ED8900A360B360C360D36E82E8F
:10419800C6EF20F00A500B100C100D10D8B4D7EF52
:1041A80020F0DAEF20F0010EDBEF20F0000E066EB3
:1041B800076AE3EF20F0000E076E040E066E120089
:1041C80058BEEBEF20F0E9EF20F0F1EF20F0000E01
:1041D800276E010E266EF5EF20F057C026F058C066
:1041E80027F055C024F056C025F0000E296E4F0E5A
:1041F800286E000E0101746F2CEF21F02806D8A05C
:104208002906250E2824D96E010E2920DA6E22C02F
:1042180006F023C007F0000E096E0A0E086E76EC51
:1042280024F00650300FDF6E2606D8A02706240695
:10423800D8A0250622C006F023C007F0000E096E9C
:104248000A0E086E3CEC24F006C022F007C023F0EA
:1042580028502910D8B433EF21F035EF21F04BEF77
:1042680021F022502310D8A43CEF21F03EEF21F09A
:1042780002EF21F027BE4BEF21F0275006E126047C
:10428800D8B049EF21F04BEF21F002EF21F020C028
:1042980017F021C018F0250E2824196E010E2920C8
:1042A8001A6E24C01BF025C01CF0EDEC23F01200A0
:1042B8000F013B913B9395809582929089806C5039
:1042C800F00B08096C6E130E6E6E6C8A340E076E56
:1042D800F20EE82EFED7072EFCD76B806BB077EF77
:1042E80021F079EF21F072EF21F0A49E7C0E9CEC76
:1042F80026F0800E9CEC26F0380E9CEC26F0800E02
:104308009CEC26F0390E9CEC26F0800E9CEC26F0F6
:10431800170E9CEC26F0800E9CEC26F07A0E9CEC96
:1043280026F0800E9CEC26F05E0E9CEC26F0800EAB
:104338009CEC26F06B0E9CEC26F0800E9CEC26F094
:104348000C0E9CEC26F0800E9CEC26F0010E9CECEA
:1043580026F0800E9CEC26F0060E9CEC26F0800ED3
:104368009CEC26F0020E9CEC26F06B846BB4BFEF3D
:1043780021F0C1EF21F0BAEF21F0340E076EF20EF2
:10438800E82EFED7072EFCD7120009500A10D8B421
:10439800D0EF21F0D2EF21F0DBEF21F009500A1025
:1043A800D8A4D9EF21F0DBEF21F0E0EF21F007509E
:1043B800BFEC26F02DEF22F020EE0AF00950D926A6
:1043C8000A50DA22DE50DE10D8B4EDEF21F0EFEF1C
:1043D80021F00AEF22F020EE0AF00950D9260A50FF
:1043E800DA2210EE03F00950E1260A50E222DE50EC
:1043F800E65CE650800A0F6EDE50800A0F58D8B08F
:1044080008EF22F00AEF22F02DEF22F020EE03F061
:104418000950D9260A50DA22DECF0BF0DDCF0CF096
:1044280009C0D9FF0AC0DAFFDECF0DF0DDCF0EF0EC
:104438000B500D24D96E0C500E20DA6E07C0DFFF2A
:1044480020EE03F00950D9260A50DA22DE2A000E9F
:10445800DD221200000E0B6E09BE37EF22F035EF99
:1044680022F03DEF22F0086C091ED8B0092A010E8F
:104478000B6E07BE44EF22F042EF22F04AEF22F023
:10448800066C071ED8B0072A010E0B1A000E0D6E17
:10449800000E0C6E08500910D8B455EF22F057EFF3
:1044A80022F07FEF22F0010E0A6E5FEF22F0D89023
:1044B800083609360A2A09AE64EF22F066EF22F0C0
:1044C8005BEF22F0D8900C360D360850065C095088
:1044D8000758D8A072EF22F074EF22F079EF22F09B
:1044E8000850065E0950075A0C80D89009320832E5
:1044F8000A2E66EF22F00B50D8B485EF22F087EF32
:1045080022F08BEF22F00C6C0D1ED8B00D2A0CC0D7
:1045180006F00DC007F012000B6E6B806BB097EFC2
:1045280022F099EF22F092EF22F0A49E7C0E9CECF0
:1045380026F0800E9CEC26F00B04D8A4A6EF22F0FF
:10454800A8EF22F0ADEF22F0800E9CEC26F0B9EF38
:1045580022F0020E0B18D8A4B4EF22F0B6EF22F026
:10456800B9EF22F0C00E9CEC26F0400E9CEC26F031
:10457800000E0C6E0C500724096E000E08200A6EFF
:1045880009C0F6FF0AC0F7FF000EF86E0F0EF764B9
:1045980003D00800F55005D0F6CFE1FFF7CFE2FFD2
:1045A800E7509CEC26F00C2A0F0E0C64DEEF22F08C
:1045B800E0EF22F0BEEF22F06B846BB4E6EF22F05E
:1045C800E8EF22F0E1EF22F01200000E0B6E07BEBA
:1045D800F2EF22F0F0EF22F0F8EF22F0066C071E5F
:1045E800D8B0072A010E0B6E09BEFFEF22F0FDEFCF
:1045F80022F003EF23F0086C091ED8B0092A0850EE
:104608000910D8B40AEF23F00CEF23F030EF23F0B1
:10461800010E0A6E14EF23F0D890083609360A2ADC
:1046280009AE19EF23F01BEF23F010EF23F0085029
:10463800065C09500758D8A024EF23F026EF23F092
:104648002AEF23F00850065E0950075AD89009321D
:1046580008320A2E1BEF23F00B50D8B436EF23F0A4
:1046680038EF23F03CEF23F0066C071ED8B0072A7A
:1046780006C006F007C007F01200000E106E000E0C
:104688000F6E0C50D96EDA6ADECFF6FFDDCFF7FF7A
:104698000800F5502A0AD8A454EF23F056EF23F067
:1046A80080EF23F00C50D96EDA6ADE2A000EDD2284
:1046B8000D50D96EDA6A020EDF26DF5CD96EDA6A2F
:1046C800DECF0FF0DECF10F093EF23F00FC006F02F
:1046D80010C007F0000E096E0A0E086E89EC26F06D
:1046E8000E5006240F6E000E0720106E0C50D96E67
:1046F800DA6ADE2A000EDD220C50D96EDA6ADECFC5
:10470800F6FFDDCFF7FF0800F550D00F0E6E090E4B
:104718000E6491EF23F093EF23F06AEF23F00FC0BC
:104728000CF010C00DF01200000E06140E6E000EF4
:1047380007140F6E800E0814106E7F0E0914116E88
:104748000E500F1010101110D8A4ADEF23F0AFEFDA
:1047580023F0B7EF23F0000E066E000E076E000E72
:10476800086E000E096E000E0A140E6E000E0B1471
:104778000F6E800E0C14106E7F0E0D14116E0E50FD
:104788000F1010101110D8A4CCEF23F0CEEF23F0A7
:10479800D6EF23F0000E0A6E000E0B6E000E0C6EA4
:1047A800000E0D6E0A5006180FE10B5007180CE1A9
:1047B8000C50081809E10D500918D8B4E6EF23F099
:1047C800E8EF23F0EBEF23F0D890ECEF23F0D8805C
:1047D800120059A0F2EF23F0F4EF23F0FEEF23F0DC
:1047E80019C010F01AC011F017C012F018C013F059
:1047F80091EC25F01CBE05EF24F003EF24F009EF3F
:1048080024F0000E1C6E000E1B6E000E1F6E000EB4
:104818001E6E1BEF24F0000E086E200E076E17C0E8
:1048280009F018C00AF0C9EC21F01E4A1F2A1B50D3
:104838001E5C1F50800A1D6E1C50800A1D58D8A08F
:1048480028EF24F02AEF24F00FEF24F059B02FEFCF
:1048580024F031EF24F03BEF24F019C010F01AC017
:1048680011F017C012F018C013F091EC25F01200E7
:10487800000E0C6E000E0B6E08500910D8B447EFEE
:1048880024F049EF24F071EF24F0010E0A6E51EF85
:1048980024F0D890083609360A2A09AE56EF24F0D3
:1048A80058EF24F04DEF24F0D8900B360C36085012
:1048B800065C09500758D8A064EF24F066EF24F08E
:1048C8006BEF24F00850065E0950075A0B80D89009
:1048D800093208320A2E58EF24F00BC006F00CC03B
:1048E80007F0120008500910D8B47DEF24F07FEFCC
:1048F80024F0A3EF24F0010E0A6E87EF24F0D8907D
:10490800083609360A2A09AE8CEF24F08EEF24F017
:1049180083EF24F00850065C09500758D8A097EF99
:1049280024F099EF24F09DEF24F00850065E09501A
:10493800075AD890093208320A2E8EEF24F006C0A2
:1049480006F007C007F0120009BEADEF24F0AFEF84
:1049580024F0B9EF24F006C006F007C007F008C03D
:1049680008F009C009F0D2EF24F006C00AF007C029
:104978000BF008C00CF009C00DF00A1E0B1E0C1E2F
:104988000D1E0A2A000E0B220C220D220AC006F068
:104998000BC007F00CC008F00DC009F01200EA0EB9
:1049A800F66E4C0EF76E000EF86E01EECAF010EEC1
:1049B80028F00900F5CFEEFFE550E150FAE102EEEC
:1049C80000F0110EEE6AE806FDE101EE00F0950E2A
:1049D800EE6AE806FDE10001FF6B596A586A576AFA
:1049E800566A556A5A905A92000EF86E000154EFB2
:1049F80014F008C00FF009C010F006C00DF007C091
:104A08000EF017EF25F00FC0D9FF10C0DAFFDF5006
:104A18000C6E0F4A102A0DC0D9FF0EC0DAFF0CC069
:104A2800DFFF0D4A0E2A0A06D8A00B060A2806E15F
:104A38000B28D8A422EF25F024EF25F007EF25F066
:104A48001200C9C0CCF0CAC0CDF036EF25F0C7C0FF
:104A5800B9F0C8C0BAF0CC0E0001BB6FCBC0BCF037
:104A680089EC05F0CCC0F6FFCDC0F7FF0800F55083
:104A78000009D8A442EF25F044EF25F02BEF25F0EC
:104A8800000E0001C86F000EC76F1200000E000173
:104A9800681B000E691B000E6A1B800E6B1B64C02E
:104AA80046F065C047F066C048F067C049F068C086
:104AB8004AF069C04BF06AC04CF06BC04DF0BCECDA
:104AC8000AF046C064F047C065F048C066F049C0C7
:104AD80067F01200D20E0001DA6FCEC0DBF0CFC053
:104AE800DCF0000EDF6F000EDE6F000EE66F000ECA
:104AF800E56FDB0EC76FC86BD0C0C9F0D1C0CAF074
:104B0800DA0ECB6F25EC25F00001DE51CE25D96EEB
:104B1800DF51CF21DA6EDF6A1200000E166E000E2A
:104B2800156EA2EF25F014C007F0086A12C009F04C
:104B380013C00AF0C9EC21F0154A162A15501024A2
:104B4800D96E16501120DA6EDF50146E1450D8A4A6
:104B5800B0EF25F0B2EF25F097EF25F01200086EC0
:104B680008380F0B3009066E0838F00B076E8A9666
:104B780006C0C9FF9EA6C3EF25F0C5EF25F0BEEF1E
:104B880025F09E9607C0C9FF9EA6CDEF25F0CFEF72
:104B980025F0C8EF25F09E968A8612000001805104
:104BA800811182118311D8B4DCEF25F0DEEF25F0F6
:104BB800E6EF25F0000E801B000E811B000E821B05
:104BC800800E831B80C080F081C081F082C082F09B
:104BD80083C083F0120006C00AF007C00BF008C0BB
:104BE800F6FF09C0F7FF084A092A0AC0D9FF0BC017
:104BF800DAFF0A4A0B2A0800F5CFDFFFDF50D8A4F6
:104C080008EF26F00AEF26F0F3EF25F0120006C0B1
:104C180008F007C009F013EF26F0064A072A06C075
:104C2800D9FF07C0DAFFDF50D8A41DEF26F01FEF29
:104C380026F011EF26F00850065C066E095007585A
:104C4800076E12006B806BB02CEF26F02EEF26F06B
:104C580027EF26F0A49E7C0E9CEC26F0800E9CECA0
:104C680026F0010E9CEC26F06B846BB43EEF26F028
:104C780040EF26F039EF26F0120011C10AF012C1F8
:104C88000BF013C10CF014C10DF006C00AF007C0F8
:104C98000BF008C00CF009C00DF00D9E0AC006F01C
:104CA8000BC007F00CC008F00DC009F012000DBED3
:104CB80060EF26F062EF26F068EF26F00CC00CF0EB
:104CC8000DC00DF074EF26F00CC00EF00DC00FF003
:104CD8000E1E0F1E0E4A0F2A0EC00CF00FC00DF04C
:104CE8001200DCFFE1FFFBFFF7FFF3FFD7FFC6FF72
:104CF800D6FF2030180C06030103060C1830CC4DE3
:104D0800BE4DB04DA24D944DDA4D06500802F3CF7A
:104D18000AF0F4CF0BF006500902F3500B260750A7
:104D28000802F3500B260AC006F00BC007F0120069
:104D3800066E06C06FFF6DB0A4EF26F0A6EF26F052
:104D48009FEF26F0A4AEABEF26F0ADEF26F0A6EF6E
:104D580026F0A49E1200D00E546E000E0001C76FFC
:104D6800000EC86FCEC0C9F0CFC0CAF0540ECB6FCA
:104D780025EC25F01200066E9EA8C5EF26F0C7EFB9
:104D880026F0C0EF26F006C0ADFF1200066E06B092
:104D980002D08C9A01D08C8A1200066E06B002D01E
:104DA8008C9801D08C881200066E06B002D08B98C1
:104DB80001D08B881200066E06B002D08C9601D006
:104DC8008C861200066E06B002D08C9401D08C84BA
:104DD8001200066E06B002D08C9C01D08C8C12009A
:024DE8001200B7
:10FED200003C6C3636CF0750B98488083CABAA2A5E
:10FEE200BEA3858832DA0FC93F83F9223F000000A2
:10FEF2003F179ACC373F04B6BA9FAA2A3D000000AA
:10FF0200BFDB0FC940E4CB9640DB0F4940DB0FC992
:10FF12003F504F54313A252E3166504F54323A25D4
:10FF22002E316600256875202020202020202020E8
:10FF320020202020002020202020202020202020DF
:10FF420020202020200042523A2031393230302005
:10FF520020202020202000506F7A6F7221204861DB
:10FF620064212121202020005A6D61636B6E65742B
:10FF7200652042544E322020005242302D41322C14
:10FF82002042523A313932303000566F6C74792047
:10FF92006E6120504F546563683A004B6F6E656323
:10FFA200202D206E6577206C696E6500313A74727F
:10FFB2002C323A73696E2C333A70696C00286E7574
:10FFC2006C6C29004D55534943003E252D2A730080
:10FFD2002573200A0047414D45004750494F0055BF
:10FFE200415254002564200D00696E66006E616EF8
:0EFFF20000444143004144430050574D00007D
:020000040030CA
:04000000FF331F3C6F
:00000001FF
