:0400000047EF00F0D6
:100008005D829DA00AEF00F00CEF00F045EF00F0D4
:100018009EA011EF00F013EF00F045EF00F0010192
:100028002151D8B41AEF00F01CEF00F045EF00F0B2
:1000380080A421EF00F023EF00F040EF00F0030E62
:10004800026E080E016E770EE82EFED7012EFCD741
:10005800022EFAD7000080A434EF00F036EF00F04B
:1000680040EF00F080B43BEF00F03DEF00F036EFDA
:1000780000F0000E0001FF6F9E0ECF6E580ECE6E80
:0A0088009E905D92110062EF29F0D6
:10100000003C6C3636CF0750B98488083CABAA2A1E
:10101000BEA3858832DA0FC93F83F9223F00000062
:101020003F179ACC373F04B6BA9FAA2A3D0000006A
:10103000BFDB0FC940E4CB9640DB0F4940DB0FC953
:101040003F504F54313A252E3166504F54323A2595
:101050002E3166002020202020202020202020204B
:101060002020202000506F7A6F7221204861642177
:10107000212120202000566F6C7479206E61205051
:101080004F543A202020005A6D61636B6E65746581
:101090002042544E322020005242302D41322C202A
:1010A00042523A203936303000313A74722C323A9A
:1010B00073696E2C333A70696C00286E756C6C29FC
:1010C000004D55534943003E252D2A730047414D9D
:1010D00045004750494F0055415254002564200DAA
:1010E00000696E66006E616E0044414300414443F6
:1010F0000050574D0000000E0001A66F7EC0A7F003
:101100007FC0A8F080C0A9F081C0AAF0AABF8DEF6F
:1011100008F08BEF08F0A1EF08F0010EA66FA7C052
:1011200078F0A8C079F0A9C07AF0AAC07BF04BECA7
:101130002AF078C0A7F079C0A8F07AC0A9F07BC0E7
:10114000AAF0000E0001AC6F000EAB6FFCC096F071
:10115000FDC097F0A651D8B4B0EF08F0B2EF08F098
:10116000C6EF08F0A651D8A4B8EF08F0BAEF08F01F
:10117000C0EF08F0000E8C6F2B0E8B6FC4EF08F0E1
:10118000000E8C6F2D0E8B6F8BC0A6F0A7C003F0E6
:10119000A8C004F0A9C005F0AAC006F0B2EC25F082
:1011A00003040410D8A4D7EF08F0D9EF08F00AEF31
:1011B00009F00001A651D8B4E0EF08F0E2EF08F022
:1011C000EBEF08F0A6C022F19607D8A09707000E13
:1011D000AC6F010EAB6F220EAB25036E010EAC217E
:1011E000046EE10E056E2EEC2AF00001FD0E96272E
:1011F000FF0E97237CC014F07DC015F0220E166EF2
:10120000010E176E96C018F097C019F0BEEC28F0CA
:1012100073EF0DF0A7C003F0A8C004F0A9C005F05B
:10122000AAC006F0B2EC25F003500410D8A41BEFBE
:1012300009F01DEF09F03BEF09F00001A651D8B409
:1012400024EF09F026EF09F02FEF09F0A6C022F1F4
:101250009607D8A09707000EAC6F010EAB6F220E59
:10126000AB25036E010EAC21046EE50E056E2EEC6F
:101270002AF0F5EF08F0000E0001AD6F000EAE6F22
:10128000800EAF6F3F0EB06F000E956F000E946F23
:10129000A7C003F0A8C004F0A9C005F0AAC006F0DA
:1012A000000E076E000E086E000E096E000E0A6E2C
:1012B00016EC28F0D8B05FEF09F061EF09F040EFCD
:1012C0000AF06EEF09F098C0ADF099C0AEF09AC088
:1012D000AFF09BC0B0F00001944B952BADC011F066
:1012E000AEC012F0AFC013F0B0C014F0000E156E17
:1012F000000E166E200E176E410E186E59EC12F08D
:1013000011C098F012C099F013C09AF014C09BF06D
:1013100000019851A75D036E9951A859046E9A5126
:10132000A959056E9B51AA59066E0FEC29F006BE0D
:10133000A5EF09F006500510041009E1020E035C48
:10134000D8A0A5EF09F0A7EF09F063EF09F098C066
:101350002AF099C02BF09AC02CF09BC02DF0A7C0AA
:101360002EF0A8C02FF0A9C030F0AAC031F030ECA8
:1013700025F0D8A0BEEF09F0C0EF09F063EF09F047
:101380000001AD51A75D036EAE51A859046EAF5177
:10139000A959056EB051AA59066E0FEC29F006BE88
:1013A000DFEF09F006500510041007E1020E035CA0
:1013B000D8B0DDEF09F0DFEF09F027EF0AF0ADC09C
:1013C000A7F0AEC0A8F0AFC0A9F0B0C0AAF040EF3F
:1013D0000AF0ADC02AF0AEC02BF0AFC02CF0B0C008
:1013E0002DF0000E2E6E000E2F6E200E306E410E70
:1013F000316E31EC18F02AC0ADF02BC0AEF02CC02D
:10140000AFF02DC0B0F000019407D8A09507AD5102
:10141000A75D036EAE51A859046EAF51A959056E70
:10142000B051AA59066E0FEC29F006BE25EF0AF05E
:1014300006500510041007E1020E035CD8B023EF3C
:101440000AF025EF0AF027EF0AF0DFEF09F0A7C056
:101450002AF0A8C02BF0A9C02CF0AAC02DF0ADC076
:101460002EF0AEC02FF0AFC030F0B0C031F030EC95
:1014700025F0D8A03EEF0AF040EF0AF0E9EF09F0BE
:1014800082C08EF08EC08FF05CBE49EF0AF04BEF49
:101490000AF051EF0AF05BC087F05CC088F056EFAD
:1014A0000AF0000E0001886F060E876F87C092F069
:1014B00088C093F00001924B932B660E8F19D8A42D
:1014C00064EF0AF066EF0AF086EF0AF095BF6DEF61
:1014D0000AF06BEF0AF079EF0AF0000EAD6F000E24
:1014E000AE6F800EAF6F3F0EB06F000E956F000EA7
:1014F000946F670E8E19D8B480EF0AF082EF0AF06D
:1015000086EF0AF09451922795519323000E9D6F18
:10151000000E9C6FA7C09EF0A8C09FF0A9C0A0F0CD
:10152000AAC0A1F0ADC098F0AEC099F0AFC09AF0DB
:10153000B0C09BF017EF0BF09EC02AF09FC02BF0BD
:10154000A0C02CF0A1C02DF0ADC02EF0AEC02FF089
:10155000AFC030F0B0C031F031EC18F02AC043F029
:101560002BC044F02CC045F02DC046F061EC1DF0BE
:1015700043C0A2F044C0A3F045C0A4F046C0A5F00B
:10158000A2C053F0A3C054F0A4C055F0A5C056F0BB
:10159000ACEC24F053C090F054C091F09EC053F0D6
:1015A0009FC054F0A0C055F0A1C056F0A2C015F0E5
:1015B000A3C016F0A4C017F0A5C018F0ADC011F07C
:1015C000AEC012F0AFC013F0B0C014F059EC12F07E
:1015D00011C057F012C058F013C059F014C05AF09F
:1015E000A9EC29F053C09EF054C09FF055C0A0F064
:1015F00056C0A1F0ADC02AF0AEC02BF0AFC02CF0A9
:10160000B0C02DF0000E2E6E000E2F6E200E306E2C
:10161000410E316E31EC18F02AC0ADF02BC0AEF0A7
:101620002CC0AFF02DC0B0F000019C4B9D2B92510F
:101630009C5D9D51800A836F9351800A8359D8A085
:1016400024EF0BF026EF0BF09CEF0AF0ADC011F089
:10165000AEC012F0AFC013F0B0C014F0000E156EA3
:10166000000E166EA00E176E400E186E59EC12F09A
:1016700011C0A2F012C0A3F013C0A4F014C0A5F0D2
:101680009EC02AF09FC02BF0A0C02CF0A1C02DF06E
:10169000A2C02EF0A3C02FF0A4C030F0A5C031F03E
:1016A00030EC25F0D8B057EF0BF059EF0BF064EFAA
:1016B0000BF0000E0001A26F000EA36F000EA46FCE
:1016C000000EA56F8DEF0BF09EC003F09FC004F0DD
:1016D000A0C005F0A1C006F0A2C007F0A3C008F0AA
:1016E000A4C009F0A5C00AF016EC28F0D8A07BEF42
:1016F0000BF07DEF0BF08DEF0BF0000190B183EF5D
:101700000BF085EF0BF08DEF0BF0000EA26F000ECB
:10171000A36F000EA46F000EA56FA7C043F0A8C072
:1017200044F0A9C045F0AAC046F0A2C047F0A3C04B
:1017300048F0A4C049F0A5C04AF0F9EC0FF043C04E
:101740009EF044C09FF045C0A0F046C0A1F09EC0EE
:101750002AF09FC02BF0A0C02CF0A1C02DF0000EED
:10176000156E000E166E200E176E410E186E98C084
:1017700011F099C012F09AC013F09BC014F059EC0C
:1017800012F011C02EF012C02FF013C030F014C0B0
:1017900031F030EC25F0D8A0D0EF0BF0D2EF0BF009
:1017A000FBEF0BF00001944B952B98C011F099C002
:1017B00012F09AC013F09BC014F0000E156E000ECC
:1017C000166E200E176E410E186E59EC12F011C0F5
:1017D00098F012C099F013C09AF014C09BF0660EF6
:1017E00000018F19D8A4F7EF0BF0F9EF0BF0FBEF26
:1017F0000BF0924B932B98C0ADF099C0AEF09AC00D
:10180000AFF09BC0B0F094C085F095C086F0000E9C
:1018100000018D6F000E8A6F000E896F000E9D6FA4
:10182000000E9C6FF9EF0CF09EC02AF09FC02BF0C9
:10183000A0C02CF0A1C02DF0ADC02EF0AEC02FF096
:10184000AFC030F0B0C031F031EC18F02AC043F036
:101850002BC044F02CC045F02DC046F061EC1DF0CB
:1018600043C0A2F044C0A3F045C0A4F046C0A5F018
:10187000A2C053F0A3C054F0A4C055F0A5C056F0C8
:10188000ACEC24F054BE50EF0CF0545007E10A0EBB
:10189000535CD8B04EEF0CF050EF0CF060EF0CF052
:1018A000A2C053F0A3C054F0A4C055F0A5C056F098
:1018B000ACEC24F053C090F054C091F065EF0CF004
:1018C000000E0001916F090E906F00018D51D8A498
:1018D0006CEF0CF06EEF0CF096EF0CF086BF75EF2E
:1018E0000CF073EF0CF096EF0CF0220EAB25D96ED6
:1018F000010EAC21DA6E2E0EDF6EAB4BAC2B9607D1
:10190000D8A09707010E8D6F96EF0CF0220EAB2535
:10191000D96E010EAC21DA6E300EDF6EAB4BAC2B04
:101920009607D8A097078907D8A08A0789518A11F6
:10193000D8A49DEF0CF09FEF0CF086EF0CF0220E78
:10194000AB25D96E010EAC21DA6E9051300FDF6EEF
:10195000AB4BAC2B9607D8A097079EC053F09FC007
:1019600054F0A0C055F0A1C056F0A2C015F0A3C01D
:1019700016F0A4C017F0A5C018F0ADC011F0AEC0AD
:1019800012F0AFC013F0B0C014F059EC12F011C057
:1019900057F012C058F013C059F014C05AF0A9EC17
:1019A00029F053C09EF054C09FF055C0A0F056C01F
:1019B000A1F0ADC02AF0AEC02BF0AFC02CF0B0C08B
:1019C0002DF0000E2E6E000E2F6E200E306E410E8A
:1019D000316E31EC18F02AC0ADF02BC0AEF02CC047
:1019E000AFF02DC0B0F000018507D8A086079C4B52
:1019F0009D2B92519C5D9D51800A836F9351800A6B
:101A00008359D8B006EF0DF008EF0DF016EF0DF08A
:101A1000ACBF14EF0DF0AC5109E14B0EAB5DD8A09B
:101A200014EF0DF016EF0DF014EF0CF0000E9D6F9B
:101A30004F0E9C6F220E9C25D96E010E9D21DA6EF1
:101A4000DF6A220E836F010E846FAB51835FAC514E
:101A5000845B9C518325036E9D518421046E220E6C
:101A6000056E010E066EABC007F0ACC008F03AEC94
:101A700029F00001AB519C5DAB6FAC519D59AC6F2F
:101A8000A651D8A446EF0DF049EF0DF0010E4AEF34
:101A90000DF0000E9C6F9D6BA651D8B452EF0DF067
:101AA00054EF0DF05FEF0DF0AB07D8A0AC07220E9E
:101AB000AB25D96E010EAC21DA6EA6C0DFFF9C51BA
:101AC000965F9D51975B7CC014F07DC015F0220E8F
:101AD000AB25166E010EAC21176E96C018F097C09C
:101AE00019F0BEEC28F012009CC0B2F09DC0B3F01B
:101AF0009EC0B4F09FC0B5F00001B5BF82EF0DF0FD
:101B000085EF0DF0010E86EF0DF0000EA96FB59F69
:101B1000DB0EB25D0F0EB359490EB4593F0EB559E5
:101B2000D8B095EF0DF097EF0DF0C0EF0DF0800EEF
:101B3000B45D390EB559D8B0A0EF0DF0A2EF0DF09D
:101B4000ACEF0DF09CC09CF09DC09DF09EC09EF03F
:101B50009FC09FF0F8EF0FF09CC053F09DC054F071
:101B60009EC055F09FC056F048EC1CF053C09CF04E
:101B700054C09DF055C09EF056C09FF0F8EF0FF096
:101B8000D20EB25D530EB3597B0EB459400EB55907
:101B9000D8B0CDEF0DF0CFEF0DF0B2EF0EF0E40EB8
:101BA000B25DCB0EB359160EB459400EB559D8B02C
:101BB000DCEF0DF0DEEF0DF04CEF0EF0A951D8B4D4
:101BC000E4EF0DF0E6EF0DF01EEF0EF0DB0E476ECA
:101BD0000F0E486EC90E496E3F0E4A6E9CC043F010
:101BE0009DC044F09EC045F09FC046F0F9EC0FF058
:101BF00043C0AAF044C0ABF045C0ACF046C0ADF065
:101C0000AAC053F0ABC054F0ACC055F0ADC056F014
:101C10006AEC1EF053C078F054C079F055C07AF0E9
:101C200056C07BF04BEC2AF078C09CF079C09DF058
:101C30007AC09EF07BC09FF0F8EF0FF09CC043F09D
:101C40009DC044F09EC045F09FC046F0DB0E476E3D
:101C50000F0E486EC90E496EBF0E4A6EF9EC0FF0BA
:101C600043C0AAF044C0ABF045C0ACF046C0ADF0F4
:101C7000AAC053F0ABC054F0ACC055F0ADC056F0A4
:101C80006AEC1EF053C09CF054C09DF055C09EF00D
:101C900056C09FF0F8EF0FF0A951D8A452EF0EF004
:101CA00054EF0EF07AEF0EF0DB0E476E0F0E486E1B
:101CB000490E496EC00E4A6E9CC043F09DC044F070
:101CC0009EC045F09FC046F0F9EC0FF043C078F09D
:101CD00044C079F045C07AF046C07BF04BEC2AF066
:101CE00078C0A0F079C0A1F07AC0A2F07BC0A3F0C8
:101CF0009EEF0EF0DB0E476E0F0E486E490E496EDA
:101D0000400E4A6E9CC043F09DC044F09EC045F01A
:101D10009FC046F0F9EC0FF043C078F044C079F072
:101D200045C07AF046C07BF04BEC2AF078C0A0F0BA
:101D300079C0A1F07AC0A2F07BC0A3F0A0C053F09C
:101D4000A1C054F0A2C055F0A3C056F048EC1CF05E
:101D500053C09CF054C09DF055C09EF056C09FF0FB
:101D6000F8EF0FF0D60EB25D310EB359E20EB45952
:101D7000400EB559D8B0BFEF0EF0C1EF0EF062EFD4
:101D80000FF0E00EB25DED0EB359AF0EB459400E38
:101D9000B559D8B0CEEF0EF0D0EF0EF010EF0FF037
:101DA000A951D8B4D6EF0EF0D8EF0EF0F4EF0EF044
:101DB0009CC043F09DC044F09EC045F09FC046F0DB
:101DC000E40E476ECB0E486E960E496E400E4A6E7C
:101DD000F9EC0FF043C0AAF044C0ABF045C0ACF042
:101DE00046C0ADF038EF0EF0E40E476ECB0E486EF5
:101DF000960E496EC00E4A6E9CC043F09DC044F0E2
:101E00009EC045F09FC046F0F9EC0FF043C0AAF029
:101E100044C0ABF045C0ACF046C0ADF000EF0EF0F2
:101E2000A951D8A416EF0FF018EF0FF034EF0FF010
:101E30009CC043F09DC044F09EC045F09FC046F05A
:101E4000DB0E476E0F0E486EC90E496EC00E4A6E0D
:101E5000F9EC0FF043C0A4F044C0A5F045C0A6F0D3
:101E600046C0A7F04EEF0FF09CC043F09DC044F079
:101E70009EC045F09FC046F0DB0E476E0F0E486EC9
:101E8000C90E496E400E4A6EF9EC0FF043C0A4F043
:101E900044C0A5F045C0A6F046C0A7F0A4C053F0CA
:101EA000A5C054F0A6C055F0A7C056F048EC1CF0F1
:101EB00053C09CF054C09DF055C09EF056C09FF09A
:101EC000F8EF0FF0800EB45D7F0EB559D8A06BEF20
:101ED0000FF06DEF0FF07FEF0FF0FF0EB213FF0E5C
:101EE000B313FF0EB413000EB513B2C09CF0B3C011
:101EF0009DF0B4C09EF0B5C09FF0F8EF0FF09CC00D
:101F00007CF09DC07DF09EC07EF09FC07FF0AE0E45
:101F1000806F50EC16F000017C51030BA86FE9EFC5
:101F20000FF0AEC078F0AFC079F0B0C07AF0B1C0B9
:101F30007BF04BEC2AF078C0AEF079C0AFF07AC0FD
:101F4000B0F07BC0B1F0AEC053F0AFC054F0B0C041
:101F500055F0B1C056F048EC1CF053C09CF054C092
:101F60009DF055C09EF056C09FF0F8EF0FF0AEC048
:101F700053F0AFC054F0B0C055F0B1C056F06AECA9
:101F80001EF053C09CF054C09DF055C09EF056C04A
:101F90009FF0F8EF0FF0AEC053F0AFC054F0B0C0F8
:101FA00055F0B1C056F06AEC1EF053C078F054C042
:101FB00079F055C07AF056C07BF04BEC2AF078C02F
:101FC0009CF079C09DF07AC09EF07BC09FF0F8EF46
:101FD0000FF0A851000AD8B4A3EF0FF0010AD8B44B
:101FE000B7EF0FF0030AD8B491EF0FF0CBEF0FF07B
:101FF00012004650800B4F6E46504624516E45AE3F
:1020000004EF10F006EF10F007EF10F05180515080
:10201000D8B40DEF10F00FEF10F024EF10F05128AE
:10202000D8A415EF10F017EF10F01FEF10F0000E0E
:10203000436E000E446E000E456E000E466E458ED9
:10204000000E466E2CEF10F0000E436E000E446E34
:10205000000E456E000E466E4A50800B506E4F507B
:102060005018D8B436EF10F038EF10F039EF10F008
:102070004F8C4A504A24506E49AE41EF10F043EF66
:1020800010F044EF10F050805050D8B44AEF10F0E8
:102090004CEF10F061EF10F05028D8A452EF10F080
:1020A00054EF10F05CEF10F0000E476E000E486E1B
:1020B000000E496E000E4A6E498E000E4A6E69EFA0
:1020C00010F0000E476E000E486E000E496E000EB6
:1020D0004A6E5150505CD8B070EF10F072EF10F0B3
:1020E00099EF10F04FAC77EF10F079EF10F07BEF35
:1020F00010F0800E4F1A51C052F050C051F052C033
:1021000050F043C052F047C043F052C047F044C0C3
:1021100052F048C044F052C048F045C052F049C0A7
:1021200045F052C049F046C052F04AC046F052C095
:102130004AF0000E526E515050C04BF04C6A4B5E4C
:10214000000E4C5A4CBEAEEF10F04C5009E11A0E86
:102150004B5CD8A0AEEF10F0B0EF10F0E7EF10F04E
:102160004350441045104610D8A4B9EF10F0BCEF0E
:1021700010F0010EBDEF10F0000E526E000E436E17
:10218000000E446E000E456E000E466E50C051F0BB
:10219000F0EF10F052A0CFEF10F0D1EF10F0D7EF2A
:1021A00010F0D89052300109526ED9EF10F0D8904B
:1021B000523243A0DEEF10F0E0EF10F0E1EF10F04C
:1021C000528E46344632453244324332512A5050C0
:1021D000515CD8A0EEEF10F0F0EF10F0CAEF10F065
:1021E0004FBCF5EF10F0F7EF10F037EF11F0515052
:1021F000D8A4FDEF10F0FFEF10F009EF11F0000E82
:10220000436E000E446E000E456E000E466E58EF93
:1022100012F04750432648504422495045224A5024
:10222000462246A016EF11F018EF11F0C4EF11F09E
:1022300052A01DEF11F01FEF11F025EF11F0D89013
:1022400052300109526E27EF11F0D890523243A05C
:102250002CEF11F02EEF11F02FEF11F0528E4634CB
:102260004632453244324332512AC4EF11F04750CE
:10227000435C48504458495045584650800A4B6E7C
:102280004A50800A4B58D8B048EF11F04AEF11F08D
:1022900075EF11F04350475C4B6E445048584C6EFC
:1022A000455049584D6E46504A584E6EFF0E4B24CD
:1022B000436EFF0E4C20446EFF0E4D20456EFF0E08
:1022C0004E20466E800E4F1A526C5250D8A46BEFBF
:1022D00011F06DEF11F07DEF11F0010E4326000EAD
:1022E0004422452246227DEF11F04750435E48507C
:1022F000445A4950455A4A50465A43504410451092
:102300004610D8A486EF11F088EF11F0BDEF11F060
:102310005250D8A48EEF11F090EF11F0BDEF11F0F4
:10232000000E436E000E446E000E456E000E466EAB
:1023300058EF12F0D890433644364536463652AE02
:10234000A4EF11F0A6EF11F0A7EF11F0438052A017
:10235000ACEF11F0AEEF11F0B2EF11F0D8805236C1
:10236000B4EF11F0D89052365150D8B4BAEF11F002
:10237000BCEF11F0BDEF11F0510645AEC2EF11F008
:10238000C4EF11F09AEF11F0000E506E52AECBEF89
:1023900011F0CDEF11F0E5EF11F052C04BF07F0ED0
:1023A0004B16D8B4D6EF11F0D8EF11F0DCEF11F0E6
:1023B000010E506EE5EF11F043A0E1EF11F0E3EFF5
:1023C00011F0E5EF11F0D8EF11F05050D8B4EBEF69
:1023D00011F0EDEF11F018EF12F0010E4326000E90
:1023E00044224522462246A0F8EF11F0FAEF11F000
:1023F00018EF12F043C04BF044C04CF045C04DF014
:1024000046C04EF04E344E324D324C324B324BC001
:1024100043F04CC044F04DC045F04EC046F051284A
:10242000D8B415EF12F017EF12F018EF12F0512A8E
:102430005128D8B41EEF12F020EF12F028EF12F05E
:102440005150D8A426EF12F028EF12F03AEF12F014
:10245000000E436E000E446E000E456E000E466E7A
:102460005150D8A436EF12F038EF12F03AEF12F0D4
:10247000000E4F6E51A03FEF12F041EF12F044EF0B
:1024800012F0458E45EF12F0459ED8905130466EC1
:102490004FAE4DEF12F04FEF12F050EF12F0468EAC
:1024A00043C043F044C044F045C045F046C046F048
:1024B00012001450800B1D6E14501424236E13AEA2
:1024C00064EF12F066EF12F067EF12F023802350F2
:1024D000D8B46DEF12F06FEF12F082EF12F02328F4
:1024E000D8A475EF12F077EF12F07FEF12F0000E24
:1024F000116E000E126E000E136E000E146E138E0F
:102500008AEF12F0000E116E000E126E000E136EA6
:10251000000E146E1850800B1D1A185018241E6ED1
:1025200017AE95EF12F097EF12F098EF12F01E80B1
:102530001E50D8B49EEF12F0A0EF12F0B3EF12F0DD
:102540001E28D8A4A6EF12F0A8EF12F0B0EF12F0F8
:10255000000E156E000E166E000E176E000E186E31
:10256000178EBBEF12F0000E156E000E166E000EE9
:10257000176E000E186E1E50D8B4C1EF12F0C3EFE4
:1025800012F0CBEF12F02350D8A4C9EF12F0CBEF2A
:1025900012F0D5EF12F0000E116E000E126E000E4A
:1025A000136E000E146E6DEF14F017501102F3CF7E
:1025B00028F0F4CF29F028501F6E206A216A226A81
:1025C0002950246E256A266A276A16501202F3CF14
:1025D00028F0F4CF29F028501F26000E20222122B7
:1025E000222229502426000E252226222722155099
:1025F0001302F3CF28F0F4CF29F028501F26000E45
:1026000020222122222229502426000E25222622A1
:10261000272221C022F020C021F01FC020F01F6A15
:1026200015501202F3CF28F0F4CF29F028501F26BE
:1026300029502022000E2122000E222216501102C3
:10264000F3CF28F0F4CF29F028501F26295020225C
:10265000000E2122000E222221C022F020C021F0F3
:102660001FC020F01F6A15501102F3CF28F0F4CFDD
:1026700029F028501F2629502022000E2122000E6A
:10268000222217501202F3CF28F0F4CF29F028505D
:10269000242629502522000E2622000E272216501D
:1026A0001302F3CF28F0F4CF29F028502426295024
:1026B0002522000E2622000E272217501302F3CFE8
:1026C00028F0F4CF29F02850196E29501A6E1B6A91
:1026D0001C6A1BC01CF01AC01BF019C01AF0196A42
:1026E000195024261A5025221B5026221C5027221E
:1026F0001FC019F020C01AF021C01BF022C01CF02E
:10270000190E88EF13F0D8901C321B321A3219328E
:10271000E82E83EF13F0195024261A5025221B505F
:1027200026221C50272221C022F020C021F01FC0E9
:1027300020F01F6A1E5023C019F01A6A1926000ED5
:102740001A22820E1924286EFF0E1A20296EBEEF5F
:1027500013F0D890243625362636273622AEB3EF2E
:1027600013F0B5EF13F0B6EF13F02480D8901F36B6
:102770002036213622362806D8A0290626AEC3EFF9
:1027800013F0C5EF13F0A9EF13F0000E1E6E22AE8A
:10279000CCEF13F0CEEF13F0F2EF13F0FF0E1F1497
:1027A000196EFF0E20141A6EFF0E21141B6E7F0E81
:1027B00022141C6E19501A101B101C10D8B4E3EF11
:1027C00013F0E5EF13F0E9EF13F0010E1E6EF2EFD8
:1027D00013F024A0EEEF13F0F0EF13F0F2EF13F08C
:1027E000E5EF13F01E50D8B4F8EF13F0FAEF13F042
:1027F0001EEF14F0010E2426000E25222622272289
:1028000027A005EF14F007EF14F01EEF14F024C01A
:1028100019F025C01AF026C01BF027C01CF01C348C
:102820001C321B321A32193219C024F01AC025F09A
:102830001BC026F01CC027F0284A292A29BE29EFF0
:1028400014F0295008E12828D8A029EF14F02BEF24
:1028500014F035EF14F0000E246E000E256E800E7D
:10286000266E7F0E276E63EF14F029BE42EF14F040
:10287000295006E12804D8B040EF14F042EF14F0DC
:102880004EEF14F0000E246E000E256E000E266E24
:10289000000E276E000E1D6E63EF14F028C023F0AB
:1028A000FF0E2416FF0E25167F0E2616000E271685
:1028B00023A05DEF14F05FEF14F060EF14F0268EAC
:1028C000D8902330276E1D50271224C011F025C048
:1028D00012F026C013F027C014F012000001B3510B
:1028E000D96EDA6ADFCFF6FF100EF76E0800F550EA
:1028F000250AD8A47EEF14F080EF14F03CEF16F018
:10290000B351D96EDA6ADF2A000EFD6F000EFC6F3C
:10291000FCC0FEF05B685C68000EBB6FAAEF14F0B1
:10292000FE81B351D96EDA6ADF2AAAEF14F0010EE4
:10293000BB6FAAEF14F0B351D96EDA6ADFCFF6FF9E
:10294000100EF76E0800F5502D0AD8B490EF14F071
:1029500097EF14F0BB51D8B4B0EF14F0B2EF14F00D
:102960009BEF14F0B3C009F0B4C00AF06BEC28F090
:1029700009C0FCF00AC0FDF00001FDBFC4EF14F077
:10298000C2EF14F0C9EF14F0FE81FC6DFD1FD8B04A
:10299000FD2BB351D96EDA6ADFCFF6FF100EF76E5A
:1029A0000800F5502E0AD8A4D8EF14F0DAEF14F08E
:1029B000E8EF14F0B351D96EDA6ADF2AB3C009F038
:1029C000B4C00AF06BEC28F009C05BF00AC05CF000
:1029D0000001B351D96EDA6ADF50BC6FBCC0F6FF9C
:1029E000100EF76E0800F550640AD8B4FAEF14F030
:1029F000FCEF14F00AEF15F0BCC0F6FF100EF76EF6
:102A00000800F550690AD8A408EF15F00AEF15F090
:102A100027EF15F0B451D96EDA6A020EDF26DF5CBB
:102A2000D96EDA6ADECFB6F0DECFB7F0B351D96E29
:102A3000DA6ABC29DF6EB1C01DF0B2C01EF0B6C0AC
:102A40001FF0B7C020F014EC22F04FEF16F0000E8C
:102A5000BB6FB351D96EDA6ADFCFF6FF100EF76E97
:102A60000800F550730AD8A438EF15F03AEF15F0C6
:102A700042EF15F0B351D96EDA6ADF2A010EBB6F4F
:102A800084EF15F0B351D96EDA6ADFCFF6FF100E7E
:102A9000F76E0800F5506C0AD8A451EF15F053EF0B
:102AA00015F084EF15F0B351D96EDA6ADF50B56FC7
:102AB000010EB527B5C0F6FF100EF76E0800F550F1
:102AC0006C0AD8A466EF15F068EF15F084EF15F0E6
:102AD000B351D96EDA6ADF50B56F020EB527B5C0B3
:102AE000F6FF100EF76E0800F550730AD8A47BEFBE
:102AF00015F07DEF15F084EF15F0B351D96EDA6A59
:102B0000030EDF263EEF15F0BB51D8B48AEF15F067
:102B10008CEF15F0A0EF15F0B1C00DF0B2C00EF0C3
:102B2000B451D96EDA6A020EDF26DF5CD96EDA6A3A
:102B3000DECF0FF0DECF10F041EC21F04FEF16F0BA
:102B4000B351D96EDA6ADF50BC6FBCC0F6FF100E0D
:102B5000F76E0800F5CFBAF0B9EF15F0BC2BC8EF4F
:102B600015F06C0EBA6FC8EF15F0000EBA6FC8EF13
:102B700015F0BA514C0AD8B4AEEF15F02A0AD8B401
:102B8000B1EF15F00A0AD8B4AEEF15F0B5EF15F0B5
:102B9000BCC0F6FF100EF76E0800F550660AD8A408
:102BA000D4EF15F0D6EF15F035EF16F000EF16F074
:102BB000B451D96EDA6ADFCFB5F0040EDF26B55115
:102BC000D96EDA6ADECFB6F0DECFB7F0DECFB8F07E
:102BD000DECFB9F00BEF16F0B451D96EDA6ADFCF61
:102BE000B5F0040EDF26B551D96EDA6ADECFB6F045
:102BF000DECFB7F0DECFB8F0DECFB9F00BEF16F0D6
:102C0000BA514C0AD8B4ECEF15F0200AD8B4D8EF7A
:102C100015F00BEF16F0B351D96EDA6ABC29DF6EEE
:102C200029EF16F0B1C07CF0B2C07DF0B6C07EF0E6
:102C3000B7C07FF0B8C080F0B9C081F0BCC0F6FF6B
:102C4000100EF76E0800F5CF82F07BEC08F04FEF26
:102C500016F0BCC0F6FF100EF76E0800F550660ABD
:102C6000D8B412EF16F035EF16F00001B351D96E5B
:102C7000DA6ADF2A4FEF16F0B351D96EDA6ADFCF86
:102C8000F6FF100EF76E0800F550046E056AB1C02D
:102C900006F0B2C007F09EEC26F035EF16F01200F9
:102CA00015C18CF016C18DF017C18EF018C18FF0D0
:102CB0007CC08CF07DC08DF07EC08EF07FC08FF028
:102CC00000018FBF66EF16F069EF16F0010E6AEF94
:102CD00016F0000E8B6F8F9FDB0E8C5D0F0E8D59E3
:102CE000C90E8E594D0E8F59D8B079EF16F07BEF83
:102CF00016F067EF17F07CC003F07DC004F07EC0D3
:102D000005F07FC006F083EC2AF003C094F004C005
:102D100095F005C096F006C097F0000E476E000EC5
:102D2000486E000E496E3F0E4A6E830E156EF90E08
:102D3000166E220E176E3F0E186E94C011F095C0DD
:102D400012F096C013F097C014F059EC12F011C0B5
:102D500043F012C044F013C045F014C046F0F9EC43
:102D60000FF043C053F044C054F045C055F046C086
:102D700056F0ACEC24F053C098F054C099F055C014
:102D80009AF056C09BF098C003F099C004F09AC026
:102D900005F09BC006F0010E67EC20F003C090F038
:102DA00004C091F005C092F006C093F0DA0E156EE3
:102DB0000F0E166EC90E176E3F0E186E90C011F0F2
:102DC00091C012F092C013F093C014F059EC12F0BD
:102DD00011C057F012C058F013C059F014C05AF087
:102DE00094C053F095C054F096C055F097C056F07B
:102DF000A9EC29F053C087F054C088F055C089F081
:102E000056C08AF087C053F088C054F089C055F08E
:102E10008AC056F0A30E156E850E166E880E176EBC
:102E2000320E186E90C011F091C012F092C013F0E3
:102E300093C014F059EC12F011C057F012C058F0C2
:102E400013C059F014C05AF0A9EC29F000018051C8
:102E5000D96EDA6A53C0DEFF54C0DEFF55C0DEFF14
:102E600056C0DEFF8B51D8B438EF17F03AEF17F0A9
:102E700061EF17F08051D96EDA6ADECF78F0DECFDD
:102E800079F0DECF7AF0DECF7BF04BEC2AF0000158
:102E90008051D96EDA6A78C0DEFF79C0DEFF7AC071
:102EA000DEFF7BC0DEFF98C081F099C082F0811FF9
:102EB000821F814B822B81C07CF082C07DF030EF7D
:102EC00018F098C07CF099C07DF030EF18F07CC00D
:102ED00003F07DC004F07EC005F07FC006F083ECF7
:102EE0002AF003C094F004C095F005C096F006C027
:102EF00097F0000E476E000E486E000E496E3F0EB2
:102F00004A6E830E156EF90E166E220E176E3F0E68
:102F1000186E94C011F095C012F096C013F097C0CF
:102F200014F059EC12F011C043F012C044F013C079
:102F300045F014C046F0F9EC0FF043C053F044C024
:102F400054F045C055F046C056F0ACEC24F053C0E8
:102F500098F054C099F055C09AF056C09BF098C0B4
:102F600003F099C004F09AC005F09BC006F0010E72
:102F700067EC20F003C090F004C091F005C092F01F
:102F800006C093F0DA0E156E0F0E166EC90E176E90
:102F90003F0E186E90C011F091C012F092C013F065
:102FA00093C014F059EC12F011C057F012C058F051
:102FB00013C059F014C05AF094C053F095C054F0A7
:102FC00096C055F097C056F0A9EC29F053C087F091
:102FD00054C088F055C089F056C08AF087C053F0BD
:102FE00088C054F089C055F08AC056F0A30E156E03
:102FF000850E166E880E176E320E186E90C011F088
:1030000091C012F092C013F093C014F059EC12F07A
:1030100011C057F012C058F013C059F014C05AF044
:10302000A9EC29F053C083F054C084F055C085F05A
:1030300056C086F000018051D96EDA6A83C0DEFF87
:1030400084C0DEFF85C0DEFF86C0DEFF8B51D8B4B2
:103050002CEF18F02EEF18F061EF17F03AEF17F0A1
:1030600012002D50800B3A6E2D502D24416E2CAE47
:103070003CEF18F03EEF18F03FEF18F04180415060
:10308000D8B445EF18F047EF18F05CEF18F041287E
:10309000D8A44DEF18F04FEF18F057EF18F0000ECE
:1030A0002A6E000E2B6E000E2C6E000E2D6E2C8ED6
:1030B000000E2D6E64EF18F0000E2A6E000E2B6EBF
:1030C000000E2C6E000E2D6E3150800B3A1A3150CE
:1030D0003124426E30AE6FEF18F071EF18F072EFDE
:1030E00018F042804250D8B478EF18F07AEF18F018
:1030F0008FEF18F04228D8A480EF18F082EF18F074
:103100008AEF18F0000E2E6E000E2F6E000E306E3D
:10311000000E316E308E000E316E97EF18F0000EFB
:103120002E6E000E2F6E000E306E000E316E2E5081
:103130002F1030103110D8A4A0EF18F0A2EF18F023
:10314000BAEF18F0000E2A6E000E2B6E000E2C6ED9
:10315000000E2D6E800E2C127F0E2D123A502D1265
:103160002AC02AF02BC02BF02CC02CF02DC02DF043
:10317000FDEF19F04150D8A4C0EF18F0C2EF18F0DD
:10318000CCEF18F0000E2A6E000E2B6E000E2C6E87
:10319000000E2D6EFDEF19F0425041C032F0336A3F
:1031A000325E000E335A7F0E32243B6E000E332007
:1031B0003C6E2AC036F02BC037F02CC038F02DC042
:1031C00039F0000E2A6E000E2B6E000E2C6E000ED3
:1031D0002D6E000E3D6E000E3E6E000E3F6E000E18
:1031E000406E000E426E2DEF19F04250D8B4FBEF46
:1031F00018F0FDEF18F014EF19F0D8903636373686
:1032000038363936D8902A362B362C362D3640AE05
:103210000CEF19F00EEF19F00FEF19F02A80D8908B
:103220003D363E363F3640362E50365C2F503758AE
:103230003050385831503958D8A021EF19F023EFC9
:1032400019F02CEF19F0408C2E50365E2F50375A63
:103250003050385A3150395A422A190E426433EFED
:1032600019F035EF19F0F5EF18F036503710381027
:103270003910D8B43EEF19F040EF19F058EF19F0BB
:103280003D8058EF19F0D8902A362B362C362D3643
:1032900040AE4DEF19F04FEF19F050EF19F02A80C2
:1032A000D8903D363E363F3640363B06D8A03C06E9
:1032B0002CAE5DEF19F05FEF19F043EF19F0000E3F
:1032C000426E40AE66EF19F068EF19F08CEF19F01E
:1032D000FF0E3D14326EFF0E3E14336EFF0E3F1490
:1032E000346E7F0E4014356E32503310341035106A
:1032F000D8B47DEF19F07FEF19F083EF19F0010ECC
:10330000426E8CEF19F02AA088EF19F08AEF19F0BD
:103310008CEF19F07FEF19F04250D8B492EF19F00A
:1033200094EF19F0B8EF19F0010E2A26000E2B22A7
:103330002C222D222DA09FEF19F0A1EF19F0B8EF4C
:1033400019F02AC032F02BC033F02CC034F02DC05D
:1033500035F03534353234323332323232C02AF03D
:1033600033C02BF034C02CF035C02DF03B4A3C2A42
:103370003CBEC3EF19F03C5008E13B28D8A0C3EF96
:1033800019F0C5EF19F0D0EF19F0000E3C6E3B6854
:10339000000E2A6E000E2B6E000E2C6E000E2D6E8F
:1033A0003CBEDDEF19F03C5006E13B04D8B0DBEF4A
:1033B00019F0DDEF19F0EBEF19F0000E3C6E000E86
:1033C0003B6E000E2A6E000E2B6E000E2C6E000E51
:1033D0002D6E000E3A6E3BC041F041A0F2EF19F0A5
:1033E000F4EF19F0F7EF19F02C8EF8EF19F02C9E8E
:1033F000D89041302D6EAEEF18F012009480928874
:10340000928692840F013897389595949596949862
:103410009598959A959C8C848C868B888C888C8AC0
:103420008C8C31EC26F0000E01019E6F000E9D6F1A
:10343000000E0001DA6F01019E5123EC24F001011E
:103440009E6F82A026EF1AF028EF1AF04BEF1AF0C9
:10345000030E0001FB6F080EFA6F770EE82EFED701
:10346000FA2FFCD7FB2FFAD782A039EF1AF03BEFE7
:103470001AF04BEF1AF082B040EF1AF042EF1AF058
:103480003BEF1AF0020E0001DA6F01019E5123ECAE
:1034900024F001019E6F80A850EF1AF052EF1AF04D
:1034A00075EF1AF0030E0001FB6F080EFA6F770E2E
:1034B000E82EFED7FA2FFCD7FB2FFAD780A863EFB0
:1034C0001AF065EF1AF075EF1AF080B86AEF1AF08B
:1034D0006CEF1AF065EF1AF0010E0001DA6F0101CE
:1034E0009E5123EC24F001019E6F80A67AEF1AF022
:1034F0007CEF1AF00AEF1BF0030E0001FB6F080EC1
:10350000FA6F770EE82EFED7FA2FFCD7FB2FFAD7EB
:1035100080A68DEF1AF08FEF1AF00AEF1BF080B63D
:1035200094EF1AF096EF1AF08FEF1AF0EAEF1AF014
:10353000650E046E0450D8A4100E056E010E65ECE5
:1035400027F0540E046E0450D8A4100E056E020E1F
:1035500065EC27F0D2EC22F0010E01019D6F0AEF1D
:103560001BF0870E046E0450D8A4100E056E010ED9
:1035700065EC27F0540E046E0450D8A4100E056EAE
:10358000020E65EC27F084EC23F0ACEF1AF0760E17
:10359000046E0450D8A4100E056E010E65EC27F0E1
:1035A00069EC1FF0ACEF1AF0980E046E0450D8A42A
:1035B000100E056E010E65EC27F0A90E046E045086
:1035C000D8A4100E056E020E65EC27F023EC1BF05C
:1035D000ACEF1AF001019E51000AD8B498EF1AF02E
:1035E000010AD8B40AEF1BF0030AD8B4B1EF1AF0FD
:1035F000010AD8B4C7EF1AF0070AD8B4D4EF1AF00A
:10360000010AD8B40AEF1BF0030AD8B40AEF1BF082
:103610000AEF1BF0805001019D51D8B412EF1BF04E
:1036200014EF1BF021EF1AF0000E0001DA6F010118
:103630009E5123EC24F001019E6F000E9D6F21EF3F
:103640001AF047EF00F094809288928692840F01DE
:103650003897389593969496949AC650F00B020931
:10366000C66EC698C78CC68A3981C09EC050F80BFA
:103670000609C06EC050C70B3009C06EC280330E41
:10368000AF6EAB8EAC98AC8AAB888A86C250830B87
:103690003009C26E010E0001D06F010ECF6F000E17
:1036A000D16F3EEF1CF07F0ED16159EF1BF05BEF45
:1036B0001BF05EEF1BF0D1510FEC2AF07E0E0001E3
:1036C000D16565EF1BF067EF1BF0FBEF1BF0D151ED
:1036D000FF0A0FEC2AF0FBEF1BF0000E2E6E000E1F
:1036E0002F6E7F0E306E430E316EC30E156EF50ECB
:1036F000166EC80E176E400E186ED151036E046A16
:10370000056A066A010E67EC20F003C011F004C0E0
:1037100012F005C013F006C014F059EC12F011C0FD
:103720002AF012C02BF013C02CF014C02DF031EC95
:1037300018F02AC0C7F02BC0C8F02CC0C9F02DC0AB
:10374000CAF0C7C09CF0C8C09DF0C9C09EF0CAC0F6
:103750009FF074EC0DF09CC0CBF09DC0CCF09EC0EF
:10376000CDF09FC0CEF0000E476E000E486EFE0EEC
:10377000496E420E4A6E000E156E000E166EFE0E5B
:10378000176E420E186ECBC011F0CCC012F0CDC037
:1037900013F0CEC014F059EC12F011C043F012C077
:1037A00044F013C045F014C046F0F9EC0FF043C0EC
:1037B00053F044C054F045C055F046C056F0ACEC50
:1037C00024F053500FEC2AF0FBEF1BF0D151FF0A0D
:1037D0000FEC2AF0FBEF1BF0D051010AD8B453EFE5
:1037E0001BF0030AD8B46DEF1BF0010AD8B4E6EF62
:1037F0001BF0FBEF1BF0C282C2B201EF1CF003EF23
:103800001CF0FCEF1BF0DC0E0001C26FC4CFC3F054
:10381000C46BEDEC2AF082A010EF1CF012EF1CF04C
:1038200015EF1CF0010E0001D06F80A81AEF1CF0FC
:103830001CEF1CF01FEF1CF0020E0001D06F80A6E1
:1038400024EF1CF026EF1CF029EF1CF0030E000102
:10385000D06F80A42EEF1CF030EF1CF033EF1CF083
:10386000000E0001CF6F0001D12B680E0001C66F62
:10387000E40EE82EFED7C62FFCD700000001CF5182
:10388000D8A445EF1CF047EF1CF0ECEF1BF0120042
:1038900053C011F054C012F055C013F056C014F0CC
:1038A00053C015F054C016F055C017F056C018F0AC
:1038B00059EC12F011C078F012C079F013C07AF010
:1038C00014C07BF078C011F079C012F07AC013F008
:1038D0007BC014F078C015F079C016F07AC017F0EC
:1038E0007BC018F059EC12F011C064F012C065F002
:1038F00013C066F014C067F03C0E156E6C0E166EA9
:10390000360E176E360E186E78C011F079C012F0B0
:103910007AC013F07BC014F059EC12F011C043F0E0
:1039200012C044F013C045F014C046F0CF0E476EED
:10393000070E486E500E496EB90E4A6EF9EC0FF044
:1039400043C060F044C061F045C062F046C063F01F
:1039500078C011F079C012F07AC013F07BC014F077
:1039600053C015F054C016F055C017F056C018F0EB
:1039700059EC12F011C074F012C075F013C076F05B
:1039800014C077F0AB0E476EAA0E486E2A0E496E31
:10399000BE0E4A6E840E156E880E166E080E176ED9
:1039A0003C0E186E78C011F079C012F07AC013F096
:1039B0007BC014F059EC12F011C043F012C044F077
:1039C00013C045F014C046F0F9EC0FF043C068F0A6
:1039D00044C069F045C06AF046C06BF064C015F0A1
:1039E00065C016F066C017F067C018F074C011F01B
:1039F00075C012F076C013F077C014F059EC12F0D5
:103A000011C06CF012C06DF013C06EF014C06FF0F6
:103A100053C047F054C048F055C049F056C04AF072
:103A200074C015F075C016F076C017F077C018F0A6
:103A300068C011F069C012F06AC013F06BC014F0D6
:103A400059EC12F011C043F012C044F013C045F01D
:103A500014C046F0F9EC0FF043C070F044C071F0B0
:103A600045C072F046C073F070C043F071C044F0BE
:103A700072C045F073C046F060C015F061C016F02A
:103A800062C017F063C018F06CC011F06DC012F086
:103A90006EC013F06FC014F059EC12F011C047F073
:103AA00012C048F013C049F014C04AF0F9EC0FF00E
:103AB00043C053F044C054F045C055F046C056F0E2
:103AC000120019C153F01AC154F01BC155F01CC1AA
:103AD00056F043C053F044C054F045C055F046C0C2
:103AE00056F0810E476EFF0E486E53C049F054C029
:103AF0004AF055C04BF056C04CF0180E85EF1DF043
:103B0000D8904C324B324A324932E82E80EF1DF0C9
:103B100049504724516E000E4820526E52BE9AEF13
:103B20001DF0525009E1170E515CD8A09AEF1DF01C
:103B30009CEF1DF0A6EF1DF043C043F044C044F0DD
:103B400045C045F046C046F069EF1EF052BEABEFEF
:103B50001DF0ADEF1DF01DEF1EF051C047F0FF0E40
:103B6000486EFF0E496E7F0E4A6E000E4B6E476622
:103B7000BCEF1DF0C4EF1DF04B344B324A324932DA
:103B80004832472EB7EF1DF048C04DF049C04EF007
:103B90004AC04FF04BC050F04D505314476E4E503A
:103BA0005414486E4F505514496E505056144A6E76
:103BB0004750481049104A10D8A4E1EF1DF0E3EF38
:103BC0001DF0E5EF1DF09CEF1DF053C047F054C011
:103BD00048F055C049F056C04AF0200EF5EF1DF0F0
:103BE000D8904A32493248324732E82EF0EF1DF081
:103BF0004750481049104A10D8B401EF1EF003EFA7
:103C00001EF00BEF1EF04D5053264E5054224F50D5
:103C10005522505056224D1C476E4E1C486E4F1C6C
:103C2000496E501C4A6E475053164850541649501E
:103C300055164A50561661EF1EF053C047F054C057
:103C400048F055C049F056C04AF0200E2DEF1EF046
:103C5000D8904A32493248324732E82E28EF1EF0D7
:103C60004750481049104A10D8A439EF1EF03BEFD6
:103C70001EF045EF1EF0000E536E000E546E000E47
:103C8000556E000E566E61EF1EF0D8905334476E9D
:103C90005434486E5534496E56344A6E4750481075
:103CA00049104A10D8B457EF1EF059EF1EF061EFDB
:103CB0001EF0000E536E000E546E800E556EBF0E39
:103CC000566E53C043F054C044F055C045F056C042
:103CD00046F0120053C011F054C012F055C013F05A
:103CE00056C014F053C015F054C016F055C017F06C
:103CF00056C018F059EC12F011C074F012C075F0F3
:103D000013C076F014C077F074C011F075C012F0D3
:103D100076C013F077C014F074C015F075C016F0BB
:103D200076C017F077C018F059EC12F011C070F09F
:103D300012C071F013C072F014C073F0170E156E3C
:103D40009A0E166ECC0E176E370E186E74C011F0E8
:103D500075C012F076C013F077C014F059EC12F071
:103D600011C043F012C044F013C045F014C046F037
:103D70003F0E476E040E486EB60E496EBA0E4A6E7E
:103D8000F9EC0FF043C060F044C061F045C062F050
:103D900046C063F0000E476E000E486E800E496EFE
:103DA0003F0E4A6E000E156E000E166E000E176E58
:103DB000BF0E186E74C011F075C012F076C013F00B
:103DC00077C014F059EC12F011C043F012C044F067
:103DD00013C045F014C046F0F9EC0FF043C064F096
:103DE00044C065F045C066F046C067F074C015F089
:103DF00075C016F076C017F077C018F070C011F0DB
:103E000071C012F072C013F073C014F059EC12F0CC
:103E100011C068F012C069F013C06AF014C06BF0F2
:103E20009F0E156EAA0E166E2A0E176E3D0E186E98
:103E300070C011F071C012F072C013F073C014F0B2
:103E400059EC12F011C047F012C048F013C049F00D
:103E500014C04AF064C043F065C044F066C045F049
:103E600067C046F0F9EC0FF043C06CF044C06DF051
:103E700045C06EF046C06FF06CC043F06DC044F0BA
:103E80006EC045F06FC046F060C015F061C016F01E
:103E900062C017F063C018F068C011F069C012F07A
:103EA0006AC013F06BC014F059EC12F011C047F067
:103EB00012C048F013C049F014C04AF0F9EC0FF0FA
:103EC00043C053F044C054F045C055F046C056F0CE
:103ED00012000F01388B3C81C08EC050F80B0609D0
:103EE000C06EC050C70B3009C06EC28020EEDCF03F
:103EF000100EDE6AE806FDE2010E0001F96F5DEFCB
:103F000020F0C250830B1409C26EC282C2B28BEF82
:103F10001FF08DEF1FF086EF1FF0C350C4CFDAF013
:103F20000001DB6BDAC0DBF0DA6BDA11F56FDB5125
:103F3000F66F000E2E6EC00E2F6E7F0E306E440E8A
:103F4000316EF5C003F0F6C004F0056A066A000E93
:103F500067EC20F003C02AF004C02BF005C02CF061
:103F600006C02DF031EC18F02AC011F02BC012F071
:103F70002CC013F02DC014F0330E156E330E166ED8
:103F8000530E176E400E186E59EC12F011C0EDF082
:103F900012C0EEF013C0EFF014C0F0F0C250830B6B
:103FA0001009C26EC282C2B2D8EF1FF0DAEF1FF062
:103FB000D3EF1FF0C350C4CFDAF00001DB6BDAC0DF
:103FC000DBF0DA6BDA11F76FDB51F86F000E2E6E53
:103FD000C00E2F6E7F0E306E440E316EF7C003F0B0
:103FE000F8C004F0056A066A000E67EC20F003C012
:103FF0002AF004C02BF005C02CF006C02DF031ECE7
:1040000018F02AC011F02BC012F02CC013F02DC0F4
:1040100014F0330E156E330E166E530E176E400EDF
:10402000186E59EC12F011C0F1F012C0F2F013C08A
:10403000F3F014C0F4F0DC0E0001C26FC36B410E4C
:10404000C46FEDC0C5F0EEC0C6F0EFC0C7F0F0C061
:10405000C8F0F1C0C9F0F2C0CAF0F3C0CBF0F4C0B0
:10406000CCF0EEEC29F0DC0E046E056A020E65EC75
:1040700027F080A43EEF20F040EF20F05DEF20F02D
:10408000030E0001DB6F080EDA6F770EE82EFED705
:10409000DA2FFCD7DB2FFAD780A451EF20F053EFB3
:1040A00020F05DEF20F080B458EF20F05AEF20F0C0
:1040B00053EF20F0000E0001F96F0001F951D8A470
:1040C00064EF20F066EF20F081EF1FF012000B6E1E
:1040D0000B50D8B46EEF20F070EF20F092EF20F08C
:1040E00006BE77EF20F075EF20F092EF20F003C0CE
:1040F00007F004C008F005C009F006C00AF0071E6A
:10410000081E091E0A1E072A000E082209220A227A
:1041100007C00DF008C00EF009C00FF00AC010F083
:104120009AEF20F003C00DF004C00EF005C00FF0B0
:1041300006C010F00350041005100610D8A4A3EF19
:1041400020F0A5EF20F0AFEF20F0000E036E000E80
:10415000046E000E056E000E066E40EF21F0960E06
:104160000C6EB9EF20F00C2AD89010320F320E32BC
:104170000D32000E0D14076E000E0E14086E000EA8
:104180000F14096EFE0E10140A6E07500810091065
:104190000A10D8A4CEEF20F0D0EF20F0B3EF20F03B
:1041A000DEEF20F00C2A010E0D26000E0E220F224B
:1041B0001022D89010320F320E320D32000E0D1434
:1041C000076E000E0E14086E000E0F14096EFF0E1F
:1041D00010140A6E0750081009100A10D8A4F3EF43
:1041E00020F0F5EF20F0D2EF20F0FDEF20F00C06EC
:1041F000D8900D360E360F3610360FBE02EF21F076
:1042000004EF21F00CEF21F0020E0C600AEF21F018
:104210000CEF21F0F7EF20F00CB011EF21F013EFCD
:1042200021F014EF21F00F9ED8900C320CC007F053
:10423000086A096A0A6A07C00AF0096A086A076A0E
:1042400007500D1208500E1209500F120A5010128A
:104250000B50D8B42EEF21F030EF21F038EF21F0E1
:1042600006BE37EF21F035EF21F038EF21F0108E48
:104270000DC003F00EC004F00FC005F010C006F032
:1042800012000FC017F010C018F017501810D8A463
:104290004CEF21F04EEF21F054EF21F0BA0E176EE3
:1042A0001750D8A4100E186E000E1A6E000E196E5C
:1042B0005CEF21F0194A1A2A19501724116E1A506E
:1042C0001820126E11C0F6FF12C0F7FF000EF86E34
:1042D0000F0EF76403D00800F55005D0F6CFE1FFCC
:1042E000F7CFE2FFE7500009D8A479EF21F07BEF88
:1042F00021F05AEF21F05CBE80EF21F082EF21F037
:1043000095EF21F019505B5C5C50800A116E1A50D9
:10431000800A1158D8B08FEF21F091EF21F095EF7E
:1043200021F05BC019F05CC01AF019C013F01AC07C
:1043300014F0FCC015F0FDC016F00001FEB1A3EFB3
:1043400021F0A5EF21F0E1EF21F0B3EF21F0000E15
:10435000056E200E046E0DC006F00EC007F09EEC38
:1043600026F0194A1A2A1550195C1A50800A116E43
:104370001650800A1158D8A0C0EF21F0C2EF21F0EA
:10438000A7EF21F0E1EF21F017C0F6FF18C0F7FF0B
:10439000000EF86E0F0EF76403D00800F55005D03C
:1043A000F6CFE1FFF7CFE2FFE750116E1150046E38
:1043B000056A0DC006F00EC007F09EEC26F0174A05
:1043C000182A1306D8A01406132806E11428D8A426
:1043D000ECEF21F0EEEF21F0C4EF21F00001FEA19F
:1043E000F4EF21F0F6EF21F013EF22F004EF22F0CA
:1043F000000E056E200E046E0DC006F00EC007F014
:104400009EEC26F0194A1A2A1550195C1A50800A97
:10441000116E1650800A1158D8A011EF22F013EF38
:1044200022F0F8EF21F0120020BE19EF22F01CEF6D
:1044300022F0010E1DEF22F0000E276E5CBE25EF6C
:1044400022F023EF22F02BEF22F0000E266E010E59
:10445000256E2FEF22F05BC025F05CC026F0FCC07B
:1044600023F0FDC024F02750D8B439EF22F03BEF01
:1044700022F052EF22F02306D8A024062750D8A419
:1044800044EF22F046EF22F04CEF22F0000E226EB5
:104490002B0E216E50EF22F0000E226E2D0E216E9B
:1044A00021C027F0000E296E4F0E286E000E01016C
:1044B000716F8BEF22F02806D8A02906220E28243F
:1044C000D96E010E2920DA6E1FC003F020C004F05F
:1044D000000E066E0A0E056EBEEC27F003C009F052
:1044E00004C00AF09DEC2AF00950300FDF6E25065B
:1044F000D8A026062306D8A024061FC003F020C09B
:1045000004F0000E066E0A0E056E03EC27F003C0E1
:104510001FF004C020F029BE96EF22F0295008E1D8
:104520002804D8A096EF22F098EF22F0AEEF22F008
:104530001F502010D8A49FEF22F0A1EF22F05BEFD4
:1045400022F026BEAEEF22F0265006E12504D8B0B8
:10455000ACEF22F0AEEF22F05BEF22F02750D8B4A0
:10456000B4EF22F0B6EF22F0C1EF22F02806D8A077
:104570002906220E2824D96E010E2920DA6E27C0C2
:10458000DFFF1DC014F01EC015F0220E2824166E89
:10459000010E2920176E23C018F024C019F0BEECBC
:1045A00028F012009594959694989598959A959CD4
:1045B0008C848C868B888C888C8A8C8C92840F015E
:1045C00038953F0ECD16300ECD129D80F28CF28EB6
:1045D000010E0101216F9E809E0ECF6E580ECE6E91
:1045E000CD80010E0001FF6F000E1E6E21EEABF0BC
:1045F00010EE12F00B0EDBCFE3FFE806FCE221EE3B
:104600009FF010EE06F00B0EDBCFE3FFE806FCE2B6
:10461000000E206E0C0E1F6E000E216E6FEF23F049
:10462000000E236E000E226E2250020DF350120F68
:10463000D96EDA6A02D841EF23F00500FA6EDE5037
:10464000FD6EDE50FE6EF850FF6EFA5022500508E7
:10465000046E2150060FD96EDA6ADF50056E042A07
:1046600034EF23F0D8900532042E32EF23F005A06A
:104670003CEF23F03FEF23F0010E40EF23F0000E5C
:104680001200224A232A23BE4FEF23F0235009E1D0
:10469000060E225CD8A04FEF23F051EF23F014EF69
:1046A00023F0110E056E3C0E046ECB0EE82EFED7E5
:1046B000042EFCD7052EFAD70000212A2150046EC3
:1046C000056A1F50041807E120500518D8A46BEFA5
:1046D00023F06DEF23F06FEF23F0000E216E000149
:1046E000FF51D8A476EF23F078EF23F010EF23F0FA
:1046F0008C848C868B888C888C8A8C8CCD909D90B9
:10470000000E0101216F12009484FC0E0F01491765
:10471000C70EBB6E0C0EBD12BD503F0B8009BD6EA7
:10472000000EBE6E9E92BA849EA299EF23F09BEF7C
:1047300023F094EF23F09484928892849594959634
:1047400094989598959A959C8C848C868B888C8867
:104750008C8A8C8C010E0D6E000E0E6E1AEF24F0FA
:104760000E50C70DF3CF03F0F4CF04F0000E066E29
:10477000050E056E03EC27F00350BE6E80A8C3EF54
:1047800023F0C5EF23F0F7EF23F0030E0C6E080EB5
:104790000B6E770EE82EFED70B2EFCD70C2EFAD719
:1047A000000080A8D6EF23F0D8EF23F0F7EF23F036
:1047B00080B8DDEF23F0DFEF23F0D8EF23F0050E14
:1047C0000E18D8A4E6EF23F0E8EF23F0ECEF23F087
:1047D000000E0E6EF7EF23F0050E0E60F2EF23F0E1
:1047E000F4EF23F0F7EF23F00E2AF7EF23F080A485
:1047F000FCEF23F0FEEF23F01AEF24F0030E0C6E13
:10480000080E0B6E770EE82EFED70B2EFCD70C2E63
:10481000FAD7000080A40FEF24F011EF24F01AEF74
:1048200024F080B416EF24F018EF24F011EF24F0F8
:10483000000E0D6E0D50D8A420EF24F022EF24F0CE
:10484000B0EF23F0120001019C6F68EC2AF021EE1A
:10485000B7F011EE94F0070EDBCFE3FFE806FCE2C1
:104860004AEF24F0060E01019C6139EF24F03BEF82
:1048700024F05AEF24F09C2B5AEF24F001019C51B4
:10488000D8B445EF24F047EF24F05AEF24F09C070A
:104890005AEF24F00001DA51000AD8B45AEF24F09C
:1048A000010AD8B432EF24F0030AD8B43EEF24F062
:1048B0005AEF24F0720E0001C26F010EC36FC70ED3
:1048C000C46F000EC66F0F0EC56F940E01019C25BC
:1048D000D96EDA6A010EDA22DF500001DB6FDBC02D
:1048E000C7F0C751D8A4100EC86FEEEC29F0830EA4
:1048F0000001C26F010EC36FC80EC46F000EC66FF9
:10490000100EC56F01019C510001DB6FDC6B010EC5
:10491000DB27000EDC23940EDB25D96E010EDC2193
:10492000DA6EDF50DD6FDDC0C7F0C751D8A4100EBE
:10493000C86FEEEC29F0720E046E010E056E010ECA
:1049400065EC27F0830E046E010E056E020E65EC19
:1049500027F001019C511200553456340001616F5B
:104960006151D8A4B6EF24F0B8EF24F0C2EF24F0E0
:10497000000E536E000E546E000E556E000E566EF5
:104980002FEF25F053C057F054C058F055C059F0E0
:1049900056C05AF0200ED2EF24F0D8905A32593235
:1049A00058325732E82ECDEF24F05750606F558EB5
:1049B000FF0E5316FF0E5416FF0E5516000E561618
:1049C000960E615F61BFE9EF24F0E7EF24F0FFEF9F
:1049D00024F06151800A970FD8B0F1EF24F0F3EF83
:1049E00024F0F5EF24F0B8EF24F0D8905632553289
:1049F00054325332613FF5EF24F017EF25F01F0ECC
:104A0000616505EF25F007EF25F00FEF25F0B8EF12
:104A100024F0D890533654365536563661076151D6
:104A2000D8A415EF25F017EF25F009EF25F0605118
:104A3000D8B41DEF25F01FEF25F027EF25F0561E07
:104A4000551E541E536C000E54225522562253C03C
:104A500053F054C054F055C055F056C056F01200F3
:104A6000000E2A14326E000E2B14336E800E2C149E
:104A7000346E7F0E2D14356E3250331034103510D5
:104A8000D8A445EF25F047EF25F04FEF25F0000EB5
:104A90002A6E000E2B6E000E2C6E000E2D6E000E78
:104AA0002E14326E000E2F14336E800E3014346EBE
:104AB0007F0E3114356E3250331034103510D8A4B7
:104AC00064EF25F066EF25F06EEF25F0000E2E6EF8
:104AD000000E2F6E000E306E000E316E2DAE73EF95
:104AE00025F075EF25F07EEF25F02A6C2B1ED8B04F
:104AF0002B2A2C1ED8B02C2A800E2D5631AE83EFD7
:104B000025F085EF25F08EEF25F02E6C2F1ED8B006
:104B10002F2A301ED8B0302A800E3156000E2A1AA5
:104B2000000E2B1A000E2C1A800E2D1A000E2E1AB3
:104B3000000E2F1A000E301A800E311A2E502A5CE9
:104B40002F502B5830502C5831502D58D8B0ABEF37
:104B500025F0ADEF25F0B0EF25F0D890B1EF25F0BE
:104B6000D88012001DC10DF01EC10EF01FC10FF044
:104B700020C110F003C00DF004C00EF005C00FF00E
:104B800006C010F00DC007F00EC008F00FC009F00D
:104B900010C00AF0180ED2EF25F0D8900A32093270
:104BA00008320732E82ECDEF25F007500B6E0C6A65
:104BB0000B500C10D8A4DFEF25F0E1EF25F001EF4A
:104BC00026F0D8900D34076E0E34086E0F34096E3F
:104BD00010340A6E0750081009100A10D8A4F3EF19
:104BE00025F0F5EF25F0FBEF25F0000E046E020E28
:104BF000036E30EF26F0000E046E030E036E30EFEE
:104C000026F00B280C10D8A408EF26F00AEF26F0A7
:104C10002CEF26F00DC007F00EC008F00FC009F011
:104C200010C00AF0090ED8900736083609360A3641
:104C3000E82E13EF26F00750081009100A10D8B418
:104C400024EF26F027EF26F0010E28EF26F0000EC5
:104C5000036E046A30EF26F0000E046E040E036E3D
:104C600012000F013B913B93958095829290898031
:104C70006C50F00B08096C6E130E6E6E6C8A340E5D
:104C8000046EF20EE82EFED7042EFCD76B806BB0BC
:104C90004CEF26F04EEF26F047EF26F0A49E7C0E58
:104CA000CAEC2AF0800ECAEC2AF0380ECAEC2AF0C0
:104CB000800ECAEC2AF0390ECAEC2AF0800ECAEC3B
:104CC0002AF0170ECAEC2AF0800ECAEC2AF07A0EEF
:104CD000CAEC2AF0800ECAEC2AF05E0ECAEC2AF06A
:104CE000800ECAEC2AF06B0ECAEC2AF0800ECAECD9
:104CF0002AF00C0ECAEC2AF0800ECAEC2AF0010E43
:104D0000CAEC2AF0800ECAEC2AF0060ECAEC2AF091
:104D1000800ECAEC2AF0020ECAEC2AF06B846BB447
:104D200094EF26F096EF26F08FEF26F0340E046E07
:104D3000F20EE82EFED7042EFCD712000650071004
:104D4000D8B4A5EF26F0A7EF26F0B0EF26F0065076
:104D50000710D8A4AEEF26F0B0EF26F0B5EF26F09E
:104D60000450FBEC2AF002EF27F020EE0AF0065088
:104D7000D9260750DA22DE50DE10D8B4C2EF26F072
:104D8000C4EF26F0DFEF26F020EE0AF00650D92619
:104D90000750DA2210EE03F00650E1260750E22217
:104DA000DE50E65CE650800A0C6EDE50800A0C583D
:104DB000D8B0DDEF26F0DFEF26F002EF27F020EE8F
:104DC00003F00650D9260750DA22DECF08F0DDCFF7
:104DD00009F006C0D9FF07C0DAFFDECF0AF0DDCF49
:104DE0000BF008500A24D96E09500B20DA6E04C06B
:104DF000DFFF20EE03F00650D9260750DA22DE2A24
:104E0000000EDD221200000E086E06BE0CEF27F029
:104E10000AEF27F012EF27F0056C061ED8B0062A1D
:104E2000010E086E04BE19EF27F017EF27F01FEFF1
:104E300027F0036C041ED8B0042A010E081A000ED5
:104E40000A6E000E096E05500610D8B42AEF27F03E
:104E50002CEF27F054EF27F0010E076E34EF27F008
:104E6000D89005360636072A06AE39EF27F03BEF15
:104E700027F030EF27F0D89009360A360550035C4A
:104E800006500458D8A047EF27F049EF27F04EEF1F
:104E900027F00550035E0650045A0980D890063268
:104EA0000532072E3BEF27F00850D8B45AEF27F011
:104EB0005CEF27F060EF27F0096C0A1ED8B00A2AD1
:104EC00009C003F00AC004F01200086E6B806BB0DA
:104ED0006CEF27F06EEF27F067EF27F0A49E7C0EB3
:104EE000CAEC2AF0800ECAEC2AF00804D8A47BEFA2
:104EF00027F07DEF27F082EF27F0800ECAEC2AF032
:104F00008EEF27F0020E0818D8A489EF27F08BEF58
:104F100027F08EEF27F0C00ECAEC2AF0400ECAEC44
:104F20002AF0000E096E09500424066E000E0520BA
:104F3000076E06C0F6FF07C0F7FF000EF86E0F0EF3
:104F4000F76403D00800F55005D0F6CFE1FFF7CFA6
:104F5000E2FFE750CAEC2AF0092A0F0E0964B3EF0A
:104F600027F0B5EF27F093EF27F06B846BB4BBEF1E
:104F700027F0BDEF27F0B6EF27F01200000E086E05
:104F800004BEC7EF27F0C5EF27F0CDEF27F0036C85
:104F9000041ED8B0042A010E086E06BED4EF27F016
:104FA000D2EF27F0D8EF27F0056C061ED8B0062AFE
:104FB00005500610D8B4DFEF27F0E1EF27F005EF3A
:104FC00028F0010E076EE9EF27F0D8900536063677
:104FD000072A06AEEEEF27F0F0EF27F0E5EF27F017
:104FE0000550035C06500458D8A0F9EF27F0FBEFFA
:104FF00027F0FFEF27F00550035E0650045AD890C3
:1050000006320532072EF0EF27F00850D8B40BEF28
:1050100028F00DEF28F011EF28F0036C041ED8B033
:10502000042A03C003F004C004F01200000E0314AD
:105030000B6E000E04140C6E800E05140D6E7F0EA8
:1050400006140E6E0B500C100D100E10D8A42BEF82
:1050500028F02DEF28F035EF28F0000E036E000E3B
:10506000046E000E056E000E066E000E07140B6E29
:10507000000E08140C6E800E09140D6E7F0E0A14BB
:105080000E6E0B500C100D100E10D8A44AEF28F025
:105090004CEF28F054EF28F0000E076E000E086E5B
:1050A000000E096E000E0A6E075003180FE108503B
:1050B00004180CE10950051809E10A500618D8B483
:1050C00064EF28F066EF28F069EF28F0D8906AEFD7
:1050D00028F0D8801200000E0D6E000E0C6E0950E4
:1050E000D96EDA6ADFCFF6FF100EF76E0800F550C2
:1050F0002A0AD8A47EEF28F080EF28F0A6EF28F047
:105100000950D96EDA6ADF2A0A50D96EDA6A020EBD
:10511000DF26DF5CD96EDA6ADECF0CF0DECF0DF071
:10512000B9EF28F00CC003F00DC004F0000E066EBD
:105130000A0E056EB7EC2AF00B5003240C6E000E1D
:1051400004200D6E0950D96EDA6ADF2A0950D96E33
:10515000DA6ADFCFF6FF100EF76E0800F550D00FB9
:105160000B6E090E0B64B7EF28F0B9EF28F092EF41
:1051700028F00CC009F00DC00AF012000001FEA1D9
:10518000C4EF28F0C6EF28F0D0EF28F016C00DF0DD
:1051900017C00EF014C00FF015C010F0CCEC29F0C1
:1051A00019BED7EF28F0D5EF28F0DBEF28F0000E7E
:1051B000196E000E186E000E1C6E000E1B6EEDEFC9
:1051C00028F0000E056E200E046E14C006F015C007
:1051D00007F09EEC26F01B4A1C2A18501B5C1C5042
:1051E000800A1A6E1950800A1A58D8A0FAEF28F0CF
:1051F000FCEF28F0E1EF28F00001FEB102EF29F00A
:1052000004EF29F00EEF29F016C00DF017C00EF0D4
:1052100014C00FF015C010F0CCEC29F0120006BE3F
:1052200014EF29F016EF29F020EF29F003C003F066
:1052300004C004F005C005F006C006F039EF29F0FF
:1052400003C007F004C008F005C009F006C00AF06A
:10525000071E081E091E0A1E072A000E0822092220
:105260000A2207C003F008C004F009C005F00AC014
:1052700006F0120005C00CF006C00DF003C00AF0E5
:1052800004C00BF054EF29F00CC0D9FF0DC0DAFFB9
:10529000DF50096E0C4A0D2A0AC0D9FF0BC0DAFF95
:1052A00009C0DFFF0A4A0B2A0706D8A0080607280C
:1052B00006E10828D8A45FEF29F061EF29F044EF58
:1052C00029F01200BA0EF66E550EF76E000EF86E4B
:1052D00001EE9FF010EE20F00900F5CFEEFFE55053
:1052E000E150FAE101EE00F0720EEE6AE806FDE12F
:1052F0000001FF6BFE6BFD6BFC6B5C6A5B6A5D9093
:105300005D92000EF86E0001FEEF19F0BFC0C1F013
:1053100095EF29F0BDC0B1F0BEC0B2F0C10E0001E2
:10532000B36FC0C0B4F06EEC14F0C1C0F6FF100E45
:10533000F76E0800F5500009D8A4A1EF29F0A3EFFB
:1053400029F08AEF29F0000E0001BE6F000EBD6F3C
:105350001200000E571A000E581A000E591A800E2D
:105360005A1A53C043F054C044F055C045F056C0DB
:1053700046F057C047F058C048F059C049F05AC0ED
:105380004AF0F9EC0FF043C053F044C054F045C06C
:1053900055F046C056F01200000E136E000E126E4D
:1053A000DDEF29F011C004F0056A0FC006F010C04F
:1053B00007F09EEC26F0124A132A12500D24D96EE3
:1053C00013500E20DA6EDF50116E1150D8A4EBEF9F
:1053D00029F0EDEF29F0D2EF29F01200C50E0001FF
:1053E000CD6FC2C0CEF0C3C0CFF0000ED26F000EA2
:1053F000D16F000ED96F000ED86FCE0EBD6FBE6B91
:10540000C4C0BFF0CD0EC06F86EC29F00001D151B1
:10541000C225D96ED251C321DA6EDF6A1200056E41
:1054200005380F0B3009036E0538F00B046E8A96B1
:1054300003C0C9FF9EA61FEF2AF021EF2AF01AEF42
:105440002AF09E9604C0C9FF9EA629EF2AF02BEFF2
:105450002AF024EF2AF09E968A86120003C007F0F5
:1054600004C008F0052A0504066E06C0F6FF100EFB
:10547000F76E07C0D9FF08C0DAFF074A082A0800FC
:10548000F5CFDFFFDF50D8A448EF2AF04AEF2AF02B
:1054900032EF2AF012000001785179117A117B1154
:1054A000D8B455EF2AF057EF2AF05FEF2AF0000E3C
:1054B000781B000E791B000E7A1B800E7B1B78C0B8
:1054C00078F079C079F07AC07AF07BC07BF0120076
:1054D0006B806BB06EEF2AF070EF2AF069EF2AF064
:1054E000A49E7C0ECAEC2AF0800ECAEC2AF0010EB3
:1054F000CAEC2AF06B846BB480EF2AF082EF2AF0BA
:105500007BEF2AF0120011C107F012C108F013C19D
:1055100009F014C10AF003C007F004C008F005C088
:1055200009F006C00AF00A9E07C003F008C004F0A4
:1055300009C005F00AC006F012000ABEA2EF2AF068
:10554000A4EF2AF0AAEF2AF009C009F00AC00AF075
:10555000B6EF2AF009C00BF00AC00CF00B1E0C1EAF
:105560000B4A0C2A0BC009F00CC00AF012000350C1
:105570000502F3CF07F0F4CF08F003500602F35012
:10558000082604500502F350082607C003F008C09F
:1055900004F01200036E03C06FFF6DB0D2EF2AF06B
:1055A000D4EF2AF0CDEF2AF0A4AED9EF2AF0DBEF4A
:1055B0002AF0D4EF2AF0A49E12002030180C060323
:1055C0000103060C18304456365628561A560C5607
:1055D0005256D2D7F1EDE9CDC1E0C30E0001C56F3F
:1055E000000EBD6F000EBE6FC2C0BFF0C50EC06F13
:1055F00086EC29F01200036E9EA801EF2BF003EF5A
:105600002BF0FCEF2AF003C0ADFF1200036E03B0D5
:1056100002D08C9A01D08C8A1200036E03B002D0A3
:105620008C9801D08C881200036E03B002D08B9846
:1056300001D08B881200036E03B002D08C9601D08B
:105640008C861200036E03B002D08C9401D08C843F
:105650001200036E03B002D08C9C01D08C8C12001F
:020000040030CA
:04000000FF331F3C6F
:00000001FF
