:0400000018EF0CF0F9
:10100000003C6C3636CF0750B98488083CABAA2A1E
:10101000BEA3858832DA0FC93F83F9223F00000062
:101020003F179ACC373F04B6BA9FAA2A3D0000006A
:10103000BFDB0FC940E4CB9640DB0F4940DB0FC953
:101040003F286E756C6C29004D55534943003E2571
:101050002D2A730047414D45004750494F005541E7
:101060005254002564200D00444143004144430094
:0510700050574D000087
:101076001B50D96EDA6ADFCFF6FF100EF76E080046
:10108600F550250AD8A44AEF08F04CEF08F013EF04
:1010960009F01B50D96EDA6ADF2A000E466E000E82
:1010A600456E45C049F047684868000E1E6E76EFEB
:1010B60008F049801B50D96EDA6ADF2A76EF08F00D
:1010C600010E1E6E76EF08F01B50D96EDA6ADFCF7E
:1010D600F6FF100EF76E0800F5502D0AD8B45CEF37
:1010E60008F063EF08F01E50D8B47CEF08F07EEFEE
:1010F60008F067EF08F01BC007F01CC008F07EEC94
:101106000BF007C045F008C046F046BE8FEF08F06A
:101116008DEF08F094EF08F04980456C461ED8B074
:10112600462A000E1E6E1B50D96EDA6ADFCFF6FF16
:10113600100EF76E0800F550730AD8A4A5EF08F054
:10114600A7EF08F0AFEF08F01B50D96EDA6ADF2A76
:10115600010E1E6EF1EF08F01B50D96EDA6ADFCF72
:10116600F6FF100EF76E0800F5506C0AD8A4BEEF15
:1011760008F0C0EF08F0F1EF08F01B50D96EDA6AFC
:10118600DF501D6E010E1D261DC0F6FF100EF76EF8
:101196000800F5506C0AD8A4D3EF08F0D5EF08F094
:1011A600F1EF08F01B50D96EDA6ADF501D6E020EA1
:1011B6001D261DC0F6FF100EF76E0800F550730AC7
:1011C600D8A4E8EF08F0EAEF08F0F1EF08F01B50BA
:1011D600D96EDA6A030EDF26ABEF08F01E50D8B4DC
:1011E600F7EF08F0F9EF08F00DEF09F019C00BF072
:1011F6001AC00CF01C50D96EDA6A020EDF26DF5CCC
:10120600D96EDA6ADECF0DF0DECF0EF027EC09F0EC
:1012160026EF09F01B50D96EDA6ADF2A26EF09F0AD
:101226001B50D96EDA6ADFCFF6FF100EF76E080094
:10123600F550026E036A19C004F01AC005F021ECDD
:101246000BF00DEF09F012000DC015F00EC016F0F0
:1012560015501610D8A432EF09F034EF09F03AEF22
:1012660009F0410E156E1550D8A4100E166E000E1C
:10127600186E000E176E42EF09F0174A182A17501B
:1012860015240F6E18501620106E0FC0F6FF10C0F2
:10129600F7FF000EF86E0F0EF76403D00800F55046
:1012A60005D0F6CFE9FFF7CFEAFFEF500009D8A443
:1012B6005FEF09F061EF09F040EF09F017C011F098
:1012C60018C012F045C013F046C014F049B06EEFD6
:1012D60009F070EF09F0ACEF09F07EEF09F0000EAF
:1012E600036E200E026E0BC004F00CC005F021EC5C
:1012F6000BF0174A182A1350175C1850800A0F6E05
:101306001450800A0F58D8A08BEF09F08DEF09F022
:1013160072EF09F0ACEF09F015C0F6FF16C0F7FF43
:10132600000EF86E0F0EF76403D00800F55005D0D6
:10133600F6CFE9FFF7CFEAFFEF500F6E0F50026EC0
:10134600036A0BC004F00CC005F021EC0BF0154A43
:10135600162A1106D8A01206112806E11228D8A4CA
:10136600B7EF09F0B9EF09F08FEF09F049A0BEEF2A
:1013760009F0C0EF09F0DDEF09F0CEEF09F0000E3D
:10138600036E200E026E0BC004F00CC005F021ECBB
:101396000BF0174A182A1350175C1850800A0F6E64
:1013A6001450800A0F58D8A0DBEF09F0DDEF09F0E2
:1013B600C2EF09F0120000018A6F20EE4AF010EE2B
:1013C60082F0070EDBCFE3FFE806FCE203EF0AF04C
:1013D600060E00018A61F2EF09F0F4EF09F012EF50
:1013E6000AF08A2B12EF0AF000018A51D8B4FEEFF8
:1013F60009F000EF0AF012EF0AF08A0712EF0AF07E
:101406003750000AD8B412EF0AF0010AD8B4EBEF4D
:1014160009F0030AD8B4F7EF09F012EF0AF0600EEC
:10142600246E4E0E256E000E276E0F0E266E0001E0
:101436008A51820FD96EDA6ADF50386E38C028F0CA
:101446002850D8A4100E296E5AEC0CF0710E246E9A
:101456004F0E256E000E276E100E266E8AC038F0CF
:10146600010E38263850820FD96EDA6ADF50396E8F
:1014760039C028F02850D8A4100E296E5AEC0CF06A
:10148600600E026E010ED1EC0BF0710E026E020EB2
:10149600D1EC0BF000018A5112000F013B913B93F6
:1014A60095809582929089806C50F00B08096C6E3D
:1014B600130E6E6E6C8A340E026EF20EE82EFED796
:1014C600022EFCD76B806BB06BEF0AF06DEF0AF063
:1014D60066EF0AF0A49E7C0E88EC0CF0800E88EC79
:1014E6000CF0380E88EC0CF0800E88EC0CF0390EFF
:1014F60088EC0CF0800E88EC0CF0170E88EC0CF0E3
:10150600800E88EC0CF07A0E88EC0CF0800E88ECDD
:101516000CF05E0E88EC0CF0800E88EC0CF06B0E76
:1015260088EC0CF0800E88EC0CF00C0E88EC0CF0BD
:10153600800E88EC0CF0010E88EC0CF0800E88EC26
:101546000CF0060E88EC0CF0800E88EC0CF0020E07
:1015560088EC0CF06B846BB4B3EF0AF0B5EF0AF0CD
:10156600AEEF0AF0340E026EF20EE82EFED7022E11
:10157600FCD7120094809288928692840F01389745
:10158600389550EC0AF0000E3C6E000E376E000ED9
:10159600DEEC09F082A0D2EF0AF0D4EF0AF0F4EF05
:1015A6000AF0030E3B6E080E3A6E770EE82EFED753
:1015B6003A2EFCD73B2EFAD7000082A0E5EF0AF0C0
:1015C600E7EF0AF0F4EF0AF082B0ECEF0AF0EEEF84
:1015D6000AF0E7EF0AF0020E376E3C50DEEC09F037
:1015E6003C6E80A8F9EF0AF0FBEF0AF01BEF0BF058
:1015F600030E3B6E080E3A6E770EE82EFED73A2E95
:10160600FCD73B2EFAD7000080A80CEF0BF00EEFAC
:101616000BF01BEF0BF080B813EF0BF015EF0BF090
:101626000EEF0BF0010E376E3C50DEEC09F03C6E0F
:1016360080508050CDEF0AF000EF00F00450051006
:10164600D8B428EF0BF02AEF0BF033EF0BF0045071
:101656000510D8A431EF0BF033EF0BF038EF0BF099
:1016660002509BEC0CF07DEF0BF020EE0AF00450DC
:10167600D9260550DA22DE50DE10D8B445EF0BF03D
:1016860047EF0BF062EF0BF020EE0AF00450D9267C
:101696000550DA2210EE03F00450E1260550E2224E
:1016A600DE50E65CE650800A0A6EDE50800A0A5872
:1016B600D8B060EF0BF062EF0BF07DEF0BF020EE91
:1016C60003F00450D9260550DA22DF50066E04C016
:1016D600D9FF05C0DAFFDF500624D96EDA6A02C0E8
:1016E600DFFF20EE03F00450D9260550DA22DE2A69
:1016F600000EDD221200000E0B6E000E0A6E075061
:10170600D96EDA6ADFCFF6FF100EF76E0800F550D5
:101716002A0AD8A491EF0BF093EF0BF0B9EF0BF078
:101726000750D96EDA6ADF2A0850D96EDA6A020ED5
:10173600DF26DF5CD96EDA6ADECF0AF0DECF0BF089
:10174600CCEF0BF00AC001F00BC002F0000E046EE5
:101756000A0E036E75EC0CF0095001240A6E000E99
:1017660002200B6E0750D96EDA6ADF2A0750D96E4F
:10177600DA6ADFCFF6FF100EF76E0800F550D00FCD
:10178600096E090E0964CAEF0BF0CCEF0BF0A5EF5A
:101796000BF00AC007F00BC008F01200036E6B8056
:1017A6006BB0D8EF0BF0DAEF0BF0D3EF0BF0A49E93
:1017B6007C0E88EC0CF0800E88EC0CF00304D8A4A8
:1017C600E7EF0BF0E9EF0BF0EEEF0BF0800E88EC95
:1017D6000CF0FAEF0BF0020E0318D8A4F5EF0BF09D
:1017E600F7EF0BF0FAEF0BF0C00E88EC0CF0400EA2
:1017F60088EC0CF0000E046E02500424D96EDA6AEE
:10180600DF5088EC0CF0042A0F0E04640DEF0CF088
:101816000FEF0CF0FFEF0BF06B846BB415EF0CF0D1
:1018260017EF0CF010EF0CF012004C0EF66E190EBE
:10183600F76E000EF86E00EE4AF010EE08F00900A2
:10184600F5CFEEFFE550E150FAE100EE8BF0200E09
:10185600EE6AE806FDE100EE3DF00D0EEE6AE806E2
:10186600FDE1000EF86E0001BDEF0AF021C023F085
:1018760047EF0CF01FC019F020C01AF0230E1B6EA4
:1018860022C01CF03BEC08F023C0F6FF100EF76EEA
:101896000800F5500009D8A453EF0CF055EF0CF0F2
:1018A6003DEF0CF0000E206E000E1F6E1200260E8D
:1018B6002A6E24C02BF0000E2F6E000E2E6E000E28
:1018C600366E000E356E2B0E1F6E206A25C021F077
:1018D6002A0E226E39EC0CF024502E24D96EDA6AC8
:1018E600DF6A120001500302F3CF05F0F4CF06F0D1
:1018F60001500402F350062602500302F350062656
:1019060005C001F006C002F01200016E01C06FFFB3
:101916006DB090EF0CF092EF0CF08BEF0CF0A4AEE4
:1019260097EF0CF099EF0CF092EF0CF0A49E1200DA
:10193600016E9EA8A1EF0CF0A3EF0CF09CEF0CF04B
:0E19460001C0ADFF1200595E706C6854486716
:020000040030CA
:04000000FF331F3C6F
:00000001FF
