:0400000046EF00F0D7
:100008005D829DA00AEF00F00CEF00F044EF00F0D5
:100018009EA011EF00F013EF00F044EF00F0000194
:10002800F251D8B41AEF00F01CEF00F044EF00F0E2
:1000380080A421EF00F023EF00F03FEF00F0030E63
:10004800026E080E016E770EE82EFED7012EFCD741
:10005800022EFAD7000080A434EF00F036EF00F04B
:100068003FEF00F080B43BEF00F03DEF00F036EFDB
:1000780000F0000E5C6E9E0ECF6E580ECE6E9E90F7
:080088005D921100E0EF1EF093
:10100000003C6C3636CF0750B98488083CABAA2A1E
:10101000BEA3858832DA0FC93F83F9223F00000062
:101020003F179ACC373F04B6BA9FAA2A3D0000006A
:10103000BFDB0FC940E4CB9640DB0F4940DB0FC953
:101040003F567974766F72696C3A202020202020F8
:1010500020004461766964205374726173616B206F
:101060002020005242302D41322C2042523A203969
:1010700036303000313A74722C323A73696E2C3348
:101080003A70696C00286E756C6C29004D55534997
:1010900043003E252D2A730047414D4500475049E6
:1010A0004F0055415254002564200D004441430037
:0910B0004144430050574D00007B
:1010BA009CC0B2F09DC0B3F09EC0B4F09FC0B5F022
:1010CA000001B5BF6BEF08F06EEF08F0010E6FEF8D
:1010DA0008F0000EA96FB59FDB0EB25D0F0EB35973
:1010EA00490EB4593F0EB559D8B07EEF08F080EFDB
:1010FA0008F0A9EF08F0800EB45D390EB559D8B0E2
:10110A0089EF08F08BEF08F095EF08F09CC09CF08F
:10111A009DC09DF09EC09EF09FC09FF0E1EF0AF037
:10112A009CC053F09DC054F09EC055F09FC056F02D
:10113A0055EC15F053C09CF054C09DF055C09EF07C
:10114A0056C09FF0E1EF0AF0D20EB25D530EB359CA
:10115A007B0EB459400EB559D8B0B6EF08F0B8EFC7
:10116A0008F09BEF09F0E40EB25DCB0EB359160EF0
:10117A00B459400EB559D8B0C5EF08F0C7EF08F01A
:10118A0035EF09F0A951D8B4CDEF08F0CFEF08F048
:10119A0007EF09F0DB0E476E0F0E486EC90E496E57
:1011AA003F0E4A6E9CC043F09DC044F09EC045F07D
:1011BA009FC046F0E2EC0AF043C0AAF044C0ABF08C
:1011CA0045C0ACF046C0ADF0AAC053F0ABC054F075
:1011DA00ACC055F0ADC056F07EEC17F053C078F0B5
:1011EA0054C079F055C07AF056C07BF08AEC1FF0F3
:1011FA0078C09CF079C09DF07AC09EF07BC09FF0C9
:10120A00E1EF0AF09CC043F09DC044F09EC045F057
:10121A009FC046F0DB0E476E0F0E486EC90E496E30
:10122A00BF0E4A6EE2EC0AF043C0AAF044C0ABF02B
:10123A0045C0ACF046C0ADF0AAC053F0ABC054F004
:10124A00ACC055F0ADC056F07EEC17F053C09CF020
:10125A0054C09DF055C09EF056C09FF0E1EF0AF0D1
:10126A00A951D8A43BEF09F03DEF09F063EF09F06B
:10127A00DB0E476E0F0E486E490E496EC00E4A6E5F
:10128A009CC043F09DC044F09EC045F09FC046F00C
:10129A00E2EC0AF043C078F044C079F045C07AF035
:1012AA0046C07BF08AEC1FF078C0A0F079C0A1F0AC
:1012BA007AC0A2F07BC0A3F087EF09F0DB0E476E7D
:1012CA000F0E486E490E496E400E4A6E9CC043F09E
:1012DA009DC044F09EC045F09FC046F0E2EC0AF083
:1012EA0043C078F044C079F045C07AF046C07BF03C
:1012FA008AEC1FF078C0A0F079C0A1F07AC0A2F001
:10130A007BC0A3F0A0C053F0A1C054F0A2C055F016
:10131A00A3C056F055EC15F053C09CF054C09DF094
:10132A0055C09EF056C09FF0E1EF0AF0D60EB25DAE
:10133A00310EB359E20EB459400EB559D8B0A8EFE0
:10134A0009F0AAEF09F04BEF0AF0E00EB25DED0EDC
:10135A00B359AF0EB459400EB559D8B0B7EF09F02A
:10136A00B9EF09F0F9EF09F0A951D8B4BFEF09F0C4
:10137A00C1EF09F0DDEF09F09CC043F09DC044F0D5
:10138A009EC045F09FC046F0E40E476ECB0E486EF5
:10139A00960E496E400E4A6EE2EC0AF043C0AAF07D
:1013AA0044C0ABF045C0ACF046C0ADF021EF09F047
:1013BA00E40E476ECB0E486E960E496EC00E4A6E0C
:1013CA009CC043F09DC044F09EC045F09FC046F0CB
:1013DA00E2EC0AF043C0AAF044C0ABF045C0ACF05E
:1013EA0046C0ADF0E9EF08F0A951D8A4FFEF09F023
:1013FA0001EF0AF01DEF0AF09CC043F09DC044F0D3
:10140A009EC045F09FC046F0DB0E476E0F0E486E39
:10141A00C90E496EC00E4A6EE2EC0AF043C0A4F04F
:10142A0044C0A5F045C0A6F046C0A7F037EF0AF0C1
:10143A009CC043F09DC044F09EC045F09FC046F05A
:10144A00DB0E476E0F0E486EC90E496E400E4A6E8D
:10145A00E2EC0AF043C0A4F044C0A5F045C0A6F0EF
:10146A0046C0A7F0A4C053F0A5C054F0A6C055F0DA
:10147A00A7C056F055EC15F053C09CF054C09DF02F
:10148A0055C09EF056C09FF0E1EF0AF0800EB45DA1
:10149A007F0EB559D8A054EF0AF056EF0AF068EF5C
:1014AA000AF0FF0EB213FF0EB313FF0EB413000EB1
:1014BA00B513B2C09CF0B3C09DF0B4C09EF0B5C0E5
:1014CA009FF0E1EF0AF09CC07CF09DC07DF09EC0C9
:1014DA007EF09FC07FF0AE0E806F57EC0FF00001D8
:1014EA007C51030BA86FD2EF0AF0AEC078F0AFC000
:1014FA0079F0B0C07AF0B1C07BF08AEC1FF078C006
:10150A00AEF079C0AFF07AC0B0F07BC0B1F0AEC037
:10151A0053F0AFC054F0B0C055F0B1C056F055EC1E
:10152A0015F053C09CF054C09DF055C09EF056C0B3
:10153A009FF0E1EF0AF0AEC053F0AFC054F0B0C074
:10154A0055F0B1C056F07EEC17F053C09CF054C071
:10155A009DF055C09EF056C09FF0E1EF0AF0AEC074
:10156A0053F0AFC054F0B0C055F0B1C056F07EECA5
:10157A0017F053C078F054C079F055C07AF056C0CD
:10158A007BF08AEC1FF078C09CF079C09DF07AC09D
:10159A009EF07BC09FF0E1EF0AF0A851000AD8B490
:1015AA008CEF0AF0010AD8B4A0EF0AF0030AD8B403
:1015BA007AEF0AF0B4EF0AF012004650800B4F6E31
:1015CA0046504624516E45AEEDEF0AF0EFEF0AF0B1
:1015DA00F0EF0AF051805150D8B4F6EF0AF0F8EF64
:1015EA000AF00DEF0BF05128D8A4FEEF0AF000EF35
:1015FA000BF008EF0BF0000E436E000E446E000E67
:10160A00456E000E466E458E000E466E15EF0BF0C7
:10161A00000E436E000E446E000E456E000E466EBE
:10162A004A50800B506E4F505018D8B41FEF0BF031
:10163A0021EF0BF022EF0BF04F8C4A504A24506EE8
:10164A0049AE2AEF0BF02CEF0BF02DEF0BF0508088
:10165A005050D8B433EF0BF035EF0BF04AEF0BF0E4
:10166A005028D8A43BEF0BF03DEF0BF045EF0BF001
:10167A00000E476E000E486E000E496E000E4A6E4E
:10168A00498E000E4A6E52EF0BF0000E476E000EA6
:10169A00486E000E496E000E4A6E5150505CD8B02A
:1016AA0059EF0BF05BEF0BF082EF0BF04FAC60EFF2
:1016BA000BF062EF0BF064EF0BF0800E4F1A51C083
:1016CA0052F050C051F052C050F043C052F047C0DF
:1016DA0043F052C047F044C052F048C044F052C0F0
:1016EA0048F045C052F049C045F052C049F046C0E2
:1016FA0052F04AC046F052C04AF0000E526E5150A3
:10170A0050C04BF04C6A4B5E000E4C5A4CBE97EFE1
:10171A000BF04C5009E11A0E4B5CD8A097EF0BF076
:10172A0099EF0BF0D0EF0BF04350441045104610E0
:10173A00D8A4A2EF0BF0A5EF0BF0010EA6EF0BF069
:10174A00000E526E000E436E000E446E000E456E81
:10175A00000E466E50C051F0D9EF0BF052A0B8EF10
:10176A000BF0BAEF0BF0C0EF0BF0D8905230010932
:10177A00526EC2EF0BF0D890523243A0C7EF0BF073
:10178A00C9EF0BF0CAEF0BF0528E4634463245329F
:10179A0044324332512A5050515CD8A0D7EF0BF053
:1017AA00D9EF0BF0B3EF0BF04FBCDEEF0BF0E0EF2D
:1017BA000BF020EF0CF05150D8A4E6EF0BF0E8EF55
:1017CA000BF0F2EF0BF0000E436E000E446E000EAB
:1017DA00456E000E466E41EF0DF0475043264850C5
:1017EA004422495045224A50462246A0FFEF0BF0B8
:1017FA0001EF0CF0ADEF0CF052A006EF0CF008EF81
:10180A000CF00EEF0CF0D89052300109526E10EF26
:10181A000CF0D890523243A015EF0CF017EF0CF0F1
:10182A0018EF0CF0528E4634463245324432433277
:10183A00512AADEF0CF04750435C48504458495088
:10184A0045584650800A4B6E4A50800A4B58D8B0C9
:10185A0031EF0CF033EF0CF05EEF0CF04350475CC5
:10186A004B6E445048584C6E455049584D6E465040
:10187A004A584E6EFF0E4B24436EFF0E4C20446EA8
:10188A00FF0E4D20456EFF0E4E20466E800E4F1AFB
:10189A00526C5250D8A454EF0CF056EF0CF066EF8D
:1018AA000CF0010E4326000E44224522462266EF22
:1018BA000CF04750435E4850445A4950455A4A50E2
:1018CA00465A4350441045104610D8A46FEF0CF006
:1018DA0071EF0CF0A6EF0CF05250D8A477EF0CF091
:1018EA0079EF0CF0A6EF0CF0000E436E000E446E7A
:1018FA00000E456E000E466E41EF0DF0D89043364D
:10190A0044364536463652AE8DEF0CF08FEF0CF06A
:10191A0090EF0CF0438052A095EF0CF097EF0CF08B
:10192A009BEF0CF0D88052369DEF0CF0D8905236CF
:10193A005150D8B4A3EF0CF0A5EF0CF0A6EF0CF0C1
:10194A00510645AEABEF0CF0ADEF0CF083EF0CF0A7
:10195A00000E506E52AEB4EF0CF0B6EF0CF0CEEFB4
:10196A000CF052C04BF07F0E4B16D8B4BFEF0CF000
:10197A00C1EF0CF0C5EF0CF0010E506ECEEF0CF07B
:10198A0043A0CAEF0CF0CCEF0CF0CEEF0CF0C1EF95
:10199A000CF05050D8B4D4EF0CF0D6EF0CF001EFA5
:1019AA000DF0010E4326000E44224522462246A08F
:1019BA00E1EF0CF0E3EF0CF001EF0DF043C04BF058
:1019CA0044C04CF045C04DF046C04EF04E344E3245
:1019DA004D324C324B324BC043F04CC044F04DC0F8
:1019EA0045F04EC046F05128D8B4FEEF0CF000EF97
:1019FA000DF001EF0DF0512A5128D8B407EF0DF080
:101A0A0009EF0DF011EF0DF05150D8A40FEF0DF0C2
:101A1A0011EF0DF023EF0DF0000E436E000E446E31
:101A2A00000E456E000E466E5150D8A41FEF0DF001
:101A3A0021EF0DF023EF0DF0000E4F6E51A028EFAD
:101A4A000DF02AEF0DF02DEF0DF0458E2EEF0DF073
:101A5A00459ED8905130466E4FAE36EF0DF038EFB6
:101A6A000DF039EF0DF0468E43C043F044C044F008
:101A7A0045C045F046C046F012001450800B1D6E5A
:101A8A0014501424236E13AE4DEF0DF04FEF0DF0EA
:101A9A0050EF0DF023802350D8B456EF0DF058EFD5
:101AAA000DF06BEF0DF02328D8A45EEF0DF060EF78
:101ABA000DF068EF0DF0000E116E000E126E000EA2
:101ACA00136E000E146E138E73EF0DF0000E116E6E
:101ADA00000E126E000E136E000E146E1850800B5C
:101AEA001D1A18501824226E17AE7EEF0DF080EFE3
:101AFA000DF081EF0DF022802250D8B487EF0DF05F
:101B0A0089EF0DF09CEF0DF02228D8A48FEF0DF08D
:101B1A0091EF0DF099EF0DF0000E156E000E166E96
:101B2A00000E176E000E186E178EA4EF0DF0000E41
:101B3A00156E000E166E000E176E000E186E2250ED
:101B4A00D8B4AAEF0DF0ACEF0DF0B4EF0DF02350BE
:101B5A00D8A4B2EF0DF0B4EF0DF0BEEF0DF0000E09
:101B6A00116E000E126E000E136E000E146E56EFFA
:101B7A000FF017501102F3CF28F0F4CF29F02850B4
:101B8A001E6E1F6A206A216A2950246E256A266AF7
:101B9A00276A16501202F3CF28F0F4CF29F0285002
:101BAA001E26000E1F222022212229502426000E42
:101BBA0025222622272215501302F3CF28F0F4CF2C
:101BCA0029F028501E26000E1F22202221222950E9
:101BDA002426000E25222622272220C021F01FC0FB
:101BEA0020F01EC01FF01E6A15501202F3CF28F013
:101BFA00F4CF29F028501E2629501F22000E202239
:101C0A00000E212216501102F3CF28F0F4CF29F04A
:101C1A0028501E2629501F22000E2022000E2122A3
:101C2A0020C021F01FC020F01EC01FF01E6A1550F0
:101C3A001102F3CF28F0F4CF29F028501E2629509C
:101C4A001F22000E2022000E212217501202F3CF6B
:101C5A0028F0F4CF29F02850242629502522000EF6
:101C6A002622000E272216501302F3CF28F0F4CFB3
:101C7A0029F02850242629502522000E2622000E5B
:101C8A00272217501302F3CF28F0F4CF29F0285057
:101C9A00196E29501A6E1B6A1C6A1BC01CF01AC0E6
:101CAA001BF019C01AF0196A195024261A50252255
:101CBA001B5026221C5027221EC019F01FC01AF0E2
:101CCA0020C01BF021C01CF0190E71EF0EF0D89045
:101CDA001C321B321A321932E82E6CEF0EF01950F0
:101CEA0024261A5025221B5026221C50272220C0A7
:101CFA0021F01FC020F01EC01FF01E6A225023C010
:101D0A0019F01A6A1926000E1A22820E1924286E50
:101D1A00FF0E1A20296EA7EF0EF0D890243625362A
:101D2A002636273621AE9CEF0EF09EEF0EF09FEF7F
:101D3A000EF02480D8901E361F362036213628060B
:101D4A00D8A0290626AEACEF0EF0AEEF0EF092EF59
:101D5A000EF0000E226E21AEB5EF0EF0B7EF0EF0C8
:101D6A00DBEF0EF0FF0E1E14196EFF0E1F141A6E13
:101D7A00FF0E20141B6E7F0E21141C6E19501A10B0
:101D8A001B101C10D8B4CCEF0EF0CEEF0EF0D2EF31
:101D9A000EF0010E226EDBEF0EF024A0D7EF0EF04C
:101DAA00D9EF0EF0DBEF0EF0CEEF0EF02250D8B4E2
:101DBA00E1EF0EF0E3EF0EF007EF0FF0010E24262D
:101DCA00000E25222622272227A0EEEF0EF0F0EFA2
:101DDA000EF007EF0FF024C019F025C01AF026C044
:101DEA001BF027C01CF01C341C321B321A32193269
:101DFA0019C024F01AC025F01BC026F01CC027F019
:101E0A00284A292A29BE12EF0FF0295008E128286A
:101E1A00D8A012EF0FF014EF0FF01EEF0FF0000E24
:101E2A00246E000E256E800E266E7F0E276E4CEFF6
:101E3A000FF029BE2BEF0FF0295006E12804D8B085
:101E4A0029EF0FF02BEF0FF037EF0FF0000E246E93
:101E5A00000E256E000E266E000E276E000E1D6EF9
:101E6A004CEF0FF028C023F0FF0E2416FF0E2516A4
:101E7A007F0E2616000E271623A046EF0FF048EF16
:101E8A000FF049EF0FF0268ED8902330276E1D50A1
:101E9A00271224C011F025C012F026C013F027C063
:101EAA0014F01200EAC08CF0EBC08DF0ECC08EF09A
:101EBA00EDC08FF07CC08CF07DC08DF07EC08EF0BE
:101ECA007FC08FF000018FBF6DEF0FF070EF0FF042
:101EDA00010E71EF0FF0000E8B6F8F9FDB0E8C5D82
:101EEA000F0E8D59C90E8E594D0E8F59D8B080EFED
:101EFA000FF082EF0FF06EEF10F07CC003F07DC0A0
:101F0A0004F07EC005F07FC006F0DDEC1FF003C0D0
:101F1A0094F004C095F005C096F006C097F0000E44
:101F2A00476E000E486E000E496E3F0E4A6E830ED3
:101F3A00156EF90E166E220E176E3F0E186E94C0AD
:101F4A0011F095C012F096C013F097C014F042EC4D
:101F5A000DF011C043F012C044F013C045F014C094
:101F6A0046F0E2EC0AF043C053F044C054F045C0D6
:101F7A0055F046C056F067EC1BF053C098F054C0B9
:101F8A0099F055C09AF056C09BF098C003F099C0DA
:101F9A0004F09AC005F09BC006F0010E7DEC18F023
:101FAA0003C090F004C091F005C092F006C093F00F
:101FBA00DA0E156E0F0E166EC90E176E3F0E186EDC
:101FCA0090C011F091C012F092C013F093C014F0B7
:101FDA0042EC0DF011C057F012C058F013C059F07E
:101FEA0014C05AF094C053F095C054F096C055F0FE
:101FFA0097C056F005EC1FF053C087F054C088F024
:10200A0055C089F056C08AF087C053F088C054F092
:10201A0089C055F08AC056F0A30E156E850E166E4D
:10202A00880E176E320E186E90C011F091C012F021
:10203A0092C013F093C014F042EC0DF011C057F0A7
:10204A0012C058F013C059F014C05AF005EC1FF032
:10205A0000018051D96EDA6A53C0DEFF54C0DEFF38
:10206A0055C0DEFF56C0DEFF8B51D8B43FEF10F0EB
:10207A0041EF10F068EF10F08051D96EDA6ADECFC6
:10208A0078F0DECF79F0DECF7AF0DECF7BF08AEC23
:10209A001FF000018051D96EDA6A78C0DEFF79C07C
:1020AA00DEFF7AC0DEFF7BC0DEFF98C081F099C0F8
:1020BA0082F0811F821F814B822B81C07CF082C0FB
:1020CA007DF037EF11F098C07CF099C07DF037EFC2
:1020DA0011F07CC003F07DC004F07EC005F07FC023
:1020EA0006F0DDEC1FF003C094F004C095F005C0C3
:1020FA0096F006C097F0000E476E000E486E000E6E
:10210A00496E3F0E4A6E830E156EF90E166E220E3A
:10211A00176E3F0E186E94C011F095C012F096C05B
:10212A0013F097C014F042EC0DF011C043F012C046
:10213A0044F013C045F014C046F0E2EC0AF043C084
:10214A0053F044C054F045C055F046C056F067EC11
:10215A001BF053C098F054C099F055C09AF056C07D
:10216A009BF098C003F099C004F09AC005F09BC098
:10217A0006F0010E7DEC18F003C090F004C091F057
:10218A0005C092F006C093F0DA0E156E0F0E166EA9
:10219A00C90E176E3F0E186E90C011F091C012F062
:1021AA0092C013F093C014F042EC0DF011C057F036
:1021BA0012C058F013C059F014C05AF094C053F02A
:1021CA0095C054F096C055F097C056F005EC1FF034
:1021DA0053C087F054C088F055C089F056C08AF0C1
:1021EA0087C053F088C054F089C055F08AC056F0B1
:1021FA00A30E156E850E166E880E176E320E186EA9
:10220A0090C011F091C012F092C013F093C014F074
:10221A0042EC0DF011C057F012C058F013C059F03B
:10222A0014C05AF005EC1FF053C083F054C084F078
:10223A0055C085F056C086F000018051D96EDA6A21
:10224A0083C0DEFF84C0DEFF85C0DEFF86C0DEFFFE
:10225A008B51D8B433EF11F035EF11F068EF10F06D
:10226A0041EF10F012002D50800B3A6E2D502D24A4
:10227A00416E2CAE43EF11F045EF11F046EF11F02D
:10228A0041804150D8B44CEF11F04EEF11F063EF9A
:10229A0011F04128D8A454EF11F056EF11F05EEF77
:1022AA0011F0000E2A6E000E2B6E000E2C6E000E20
:1022BA002D6E2C8E000E2D6E6BEF11F0000E2A6E15
:1022CA00000E2B6E000E2C6E000E2D6E3150800B00
:1022DA003A1A31503124426E30AE76EF11F078EF6F
:1022EA0011F079EF11F042804250D8B47FEF11F02B
:1022FA0081EF11F096EF11F04228D8A487EF11F080
:10230A0089EF11F091EF11F0000E2E6E000E2F6E74
:10231A00000E306E000E316E308E000E316E9EEF62
:10232A0011F0000E2E6E000E2F6E000E306E000E93
:10233A00316E2E502F1030103110D8A4A7EF11F0A3
:10234A00A9EF11F0C1EF11F0000E2A6E000E2B6EEC
:10235A00000E2C6E000E2D6E800E2C127F0E2D128A
:10236A003A502D122AC02AF02BC02BF02CC02CF088
:10237A002DC02DF004EF13F04150D8A4C7EF11F08F
:10238A00C9EF11F0D3EF11F0000E2A6E000E2B6E7A
:10239A00000E2C6E000E2D6E04EF13F0425041C059
:1023AA0032F0336A325E000E335A7F0E32243B6EAD
:1023BA00000E33203C6E2AC036F02BC037F02CC0FA
:1023CA0038F02DC039F0000E2A6E000E2B6E000E6A
:1023DA002C6E000E2D6E000E3D6E000E3E6E000E2F
:1023EA003F6E000E406E000E426E34EF12F0425005
:1023FA00D8B402EF12F004EF12F01BEF12F0D890EB
:10240A003636373638363936D8902A362B362C3681
:10241A002D3640AE13EF12F015EF12F016EF12F050
:10242A002A80D8903D363E363F3640362E50365CAE
:10243A002F5037583050385831503958D8A028EFD3
:10244A0012F02AEF12F033EF12F0408C2E50365E63
:10245A002F50375A3050385A3150395A422A190EA9
:10246A0042643AEF12F03CEF12F0FCEF11F03650F2
:10247A00371038103910D8B445EF12F047EF12F080
:10248A005FEF12F03D805FEF12F0D8902A362B36BC
:10249A002C362D3640AE54EF12F056EF12F057EFAD
:1024AA0012F02A80D8903D363E363F3640363B06FB
:1024BA00D8A03C062CAE64EF12F066EF12F04AEF99
:1024CA0012F0000E426E40AE6DEF12F06FEF12F096
:1024DA0093EF12F0FF0E3D14326EFF0E3E14336E70
:1024EA00FF0E3F14346E7F0E4014356E3250331097
:1024FA0034103510D8B484EF12F086EF12F08AEF58
:10250A0012F0010E426E93EF12F02AA08FEF12F032
:10251A0091EF12F093EF12F086EF12F04250D8B416
:10252A0099EF12F09BEF12F0BFEF12F0010E2A267C
:10253A00000E2B222C222D222DA0A6EF12F0A8EF9E
:10254A0012F0BFEF12F02AC032F02BC033F02CC0C9
:10255A0034F02DC035F0353435323432333232323C
:10256A0032C02AF033C02BF034C02CF035C02DF025
:10257A003B4A3C2A3CBECAEF12F03C5008E13B28D9
:10258A00D8A0CAEF12F0CCEF12F0D7EF12F0000E7B
:10259A003C6E3B68000E2A6E000E2B6E000E2C6EEF
:1025AA00000E2D6E3CBEE4EF12F03C5006E13B04F7
:1025BA00D8B0E2EF12F0E4EF12F0F2EF12F0000EF0
:1025CA003C6E000E3B6E000E2A6E000E2B6E000E45
:1025DA002C6E000E2D6E000E3A6E3BC041F041A0EB
:1025EA00F9EF12F0FBEF12F0FEEF12F02C8EFFEF74
:1025FA0012F02C9ED89041302D6EB5EF11F01200DA
:10260A002B50D96EDA6ADFCFF6FF100EF76E08008C
:10261A00F550250AD8A414EF13F016EF13F01DEFA6
:10262A0014F02B50D96EDA6ADF2A000E0001EF6F20
:10263A00000EEE6FEEC05BF0F069F169000E336ECA
:10264A0041EF13F05B802B50D96EDA6ADF2A41EF33
:10265A0013F0010E336E41EF13F02B50D96EDA6A84
:10266A00DFCFF6FF100EF76E0800F5502D0AD8B42A
:10267A0027EF13F02EEF13F03350D8B447EF13F0CF
:10268A0049EF13F032EF13F02BC009F02CC00AF017
:10269A003EEC1EF009C0EEF00AC0EFF00001EFBFF9
:1026AA005BEF13F059EF13F060EF13F05B80EE6D00
:1026BA00EF1FD8B0EF2B2B50D96EDA6ADF50326E8B
:1026CA0032C0F6FF100EF76E0800F550640AD8B44F
:1026DA0071EF13F073EF13F081EF13F032C0F6FFCE
:1026EA00100EF76E0800F550690AD8A47FEF13F0B0
:1026FA0081EF13F09EEF13F02C50D96EDA6A020EB6
:10270A00DF26DF5CD96EDA6ADECF2EF0DECF2FF05D
:10271A002B50D96EDA6A3228DF6E29C01DF02AC022
:10272A001EF02EC01FF02FC020F0BEEC1AF030EFC2
:10273A0014F0000E336E2B50D96EDA6ADFCFF6FF33
:10274A00100EF76E0800F550730AD8A4AFEF13F015
:10275A00B1EF13F0B9EF13F02B50D96EDA6ADF2A12
:10276A00010E336EFBEF13F02B50D96EDA6ADFCF0E
:10277A00F6FF100EF76E0800F5506C0AD8A4C8EFE1
:10278A0013F0CAEF13F0FBEF13F02B50D96EDA6A8D
:10279A00DF502D6E010E2D262DC0F6FF100EF76E9E
:1027AA000800F5506C0AD8A4DDEF13F0DFEF13F040
:1027BA00FBEF13F02B50D96EDA6ADF502D6E020E42
:1027CA002D262DC0F6FF100EF76E0800F550730A7D
:1027DA00D8A4F2EF13F0F4EF13F0FBEF13F02B5041
:1027EA00D96EDA6A030EDF26B5EF13F03350D8B488
:1027FA0001EF14F003EF14F017EF14F029C00DF0F5
:10280A002AC00EF02C50D96EDA6A020EDF26DF5C7F
:10281A00D96EDA6ADECF0FF0DECF10F057EC19F07E
:10282A0030EF14F02B50D96EDA6ADF2A30EF14F049
:10283A002B50D96EDA6ADFCFF6FF100EF76E08005A
:10284A00F550046E056A29C006F02AC007F030EC7C
:10285A001DF017EF14F012009480928892869284E9
:10286A000F013897389593969496949AC650F00B20
:10287A000209C66EC698C78CC68A3981C09EC050E6
:10288A00F80B0609C06EC050C70B3009C06EC28073
:10289A00330EAF6EAB8EAC98AC8AAB888A86C250C8
:1028AA00830B3009C26E010E0001C06F010EBF6FAB
:1028BA00000EC16F4BEF15F07F0EC16167EF14F088
:1028CA0069EF14F06CEF14F0C1516BEC1FF07E0E3F
:1028DA000001C16573EF14F075EF14F009EF15F0FC
:1028EA00C151FF0A6BEC1FF009EF15F0000E2E6EB6
:1028FA00000E2F6E7F0E306E430E316EC30E156EB4
:10290A00F50E166EC80E176E400E186EC151036E84
:10291A00046A056A066A010E7DEC18F003C011F01C
:10292A0004C012F005C013F006C014F042EC0DF01A
:10293A0011C02AF012C02BF013C02CF014C02DF0D5
:10294A0038EC11F02AC0B7F02BC0B8F02CC0B9F09F
:10295A002DC0BAF0B7C09CF0B8C09DF0B9C09EF0C7
:10296A00BAC09FF05DEC08F09CC0BBF09DC0BCF003
:10297A009EC0BDF09FC0BEF0000E476E000E486EAE
:10298A00FE0E496E420E4A6E000E156E000E166E4F
:10299A00FE0E176E420E186EBBC011F0BCC012F0CC
:1029AA00BDC013F0BEC014F042EC0DF011C043F0EC
:1029BA0012C044F013C045F014C046F0E2EC0AF02D
:1029CA0043C053F044C054F045C055F046C056F0D9
:1029DA0067EC1BF053506BEC1FF009EF15F0C15177
:1029EA00FF0A6BEC1FF009EF15F0C051010AD8B4C9
:1029FA0061EF14F0030AD8B47BEF14F0010AD8B4DB
:102A0A00F4EF14F009EF15F0C282C2B20FEF15F01D
:102A1A0011EF15F00AEF15F0A70E396EC4CF3AF090
:102A2A003B6A47EC20F082A01DEF15F01FEF15F06E
:102A3A0022EF15F0010E0001C06F80A827EF15F0F4
:102A4A0029EF15F02CEF15F0020E0001C06F80A6D9
:102A5A0031EF15F033EF15F036EF15F0030E0001E4
:102A6A00C06F80A43BEF15F03DEF15F040EF15F075
:102A7A00000E0001BF6F0001C12B680E0001B66F86
:102A8A00E40EE82EFED7B62FFCD700000001BF5196
:102A9A00D8A452EF15F054EF15F0FAEF14F0120023
:102AAA0053C011F054C012F055C013F056C014F0C0
:102ABA0053C015F054C016F055C017F056C018F0A0
:102ACA0042EC0DF011C078F012C079F013C07AF020
:102ADA0014C07BF078C011F079C012F07AC013F0FC
:102AEA007BC014F078C015F079C016F07AC017F0E0
:102AFA007BC018F042EC0DF011C064F012C065F012
:102B0A0013C066F014C067F03C0E156E6C0E166E9C
:102B1A00360E176E360E186E78C011F079C012F0A4
:102B2A007AC013F07BC014F042EC0DF011C043F0F0
:102B3A0012C044F013C045F014C046F0CF0E476EE1
:102B4A00070E486E500E496EB90E4A6EE2EC0AF054
:102B5A0043C060F044C061F045C062F046C063F013
:102B6A0078C011F079C012F07AC013F07BC014F06B
:102B7A0053C015F054C016F055C017F056C018F0DF
:102B8A0042EC0DF011C074F012C075F013C076F06B
:102B9A0014C077F0AB0E476EAA0E486E2A0E496E25
:102BAA00BE0E4A6E840E156E880E166E080E176ECD
:102BBA003C0E186E78C011F079C012F07AC013F08A
:102BCA007BC014F042EC0DF011C043F012C044F087
:102BDA0013C045F014C046F0E2EC0AF043C068F0B6
:102BEA0044C069F045C06AF046C06BF064C015F095
:102BFA0065C016F066C017F067C018F074C011F00F
:102C0A0075C012F076C013F077C014F042EC0DF0E4
:102C1A0011C06CF012C06DF013C06EF014C06FF0EA
:102C2A0053C047F054C048F055C049F056C04AF066
:102C3A0074C015F075C016F076C017F077C018F09A
:102C4A0068C011F069C012F06AC013F06BC014F0CA
:102C5A0042EC0DF011C043F012C044F013C045F02D
:102C6A0014C046F0E2EC0AF043C070F044C071F0C0
:102C7A0045C072F046C073F070C043F071C044F0B2
:102C8A0072C045F073C046F060C015F061C016F01E
:102C9A0062C017F063C018F06CC011F06DC012F07A
:102CAA006EC013F06FC014F042EC0DF011C047F083
:102CBA0012C048F013C049F014C04AF0E2EC0AF01E
:102CCA0043C053F044C054F045C055F046C056F0D6
:102CDA00120094809288928692840F0138973895D0
:102CEA009594959694989598959A959C8C848C86AB
:102CFA008B888C888C8A8C8C61EC1CF0000E00010D
:102D0A00C56F000EC46F410E046E0450D8A4100E95
:102D1A00056E010E8DEC1DF0520E046E0450D8A4FF
:102D2A00100E056E020E8DEC1DF0520E0001C36FDF
:102D3A002B0EC26F000EE82EFED7C22FFCD7C32F70
:102D4A00FAD70000000E4C6E0001C551EBEC1BF0E7
:102D5A000001C56F82A0B4EF16F0B6EF16F0D8EFF7
:102D6A0016F0030E0001C36F080EC26F770EE82E2D
:102D7A00FED7C22FFCD7C32FFAD782A0C7EF16F00F
:102D8A00C9EF16F0D8EF16F082B0CEEF16F0D0EFFA
:102D9A0016F0C9EF16F0020E4C6E0001C551EBECAD
:102DAA001BF00001C56F80A8DDEF16F0DFEF16F00B
:102DBA0001EF17F0030E0001C36F080EC26F770E02
:102DCA00E82EFED7C22FFCD7C32FFAD780A8F0EF80
:102DDA0016F0F2EF16F001EF17F080B8F7EF16F0E1
:102DEA00F9EF16F0F2EF16F0010E4C6E0001C55124
:102DFA00EBEC1BF00001C56F80A606EF17F008EF99
:102E0A0017F067EF17F0030E0001C36F080EC26FC9
:102E1A00770EE82EFED7C22FFCD7C32FFAD780A68B
:102E2A0019EF17F01BEF17F067EF17F080B620EFD6
:102E3A0017F022EF17F01BEF17F043EF17F0C2EC71
:102E4A001FF00EEC1AF0010E0001C46F67EF17F0C5
:102E5A00630E046E0450D8A4100E056E010E8DEC9C
:102E6A001DF0740E046E0450D8A4100E056E020EE6
:102E7A008DEC1DF031EC14F028EF17F00001C5516C
:102E8A00000AD8B424EF17F0010AD8B467EF17F094
:102E9A00030AD8B467EF17F0010AD8B467EF17F03E
:102EAA00070AD8B42DEF17F0010AD8B467EF17F064
:102EBA00030AD8B467EF17F0010AD8B467EF17F01E
:102ECA0067EF17F080500001C451D8B46FEF17F0C4
:102EDA0071EF17F0AFEF16F0000E4C6EC551EBEC28
:102EEA001BF00001C56F000EC46FAFEF16F046EF7E
:102EFA0000F053C011F054C012F055C013F056C080
:102F0A0014F053C015F054C016F055C017F056C04F
:102F1A0018F042EC0DF011C074F012C075F013C035
:102F2A0076F014C077F074C011F075C012F076C054
:102F3A0013F077C014F074C015F075C016F076C09F
:102F4A0017F077C018F042EC0DF011C070F012C003
:102F5A0071F013C072F014C073F0170E156E9A0E4A
:102F6A00166ECC0E176E370E186E74C011F075C03F
:102F7A0012F076C013F077C014F042EC0DF011C0D5
:102F8A0043F012C044F013C045F014C046F03F0E9F
:102F9A00476E040E486EB60E496EBA0E4A6EE2ECE1
:102FAA000AF043C060F044C061F045C062F046C018
:102FBA0063F0000E476E000E486E800E496E3F0E9B
:102FCA004A6E000E156E000E166E000E176EBF0EBC
:102FDA00186E74C011F075C012F076C013F077C085
:102FEA0014F042EC0DF011C043F012C044F013C0CB
:102FFA0045F014C046F0E2EC0AF043C064F044C065
:10300A0065F045C066F046C067F074C015F075C03B
:10301A0016F076C017F077C018F070C011F071C0C2
:10302A0012F072C013F073C014F042EC0DF011C02C
:10303A0068F012C069F013C06AF014C06BF09F0EFA
:10304A00156EAA0E166E2A0E176E3D0E186E70C0F9
:10305A0011F071C012F072C013F073C014F042EC98
:10306A000DF011C047F012C048F013C049F014C067
:10307A004AF064C043F065C044F066C045F067C0DA
:10308A0046F0E2EC0AF043C06CF044C06DF045C073
:10309A006EF046C06FF06CC043F06DC044F06EC075
:1030AA0045F06FC046F060C015F061C016F062C00E
:1030BA0017F063C018F068C011F069C012F06AC056
:1030CA0013F06BC014F042EC0DF011C047F012C0BF
:1030DA0048F013C049F014C04AF0E2EC0AF043C0C9
:1030EA0053F044C054F045C055F046C056F01200A3
:1030FA000B6E0B50D8B484EF18F086EF18F0A8EFD7
:10310A0018F006BE8DEF18F08BEF18F0A8EF18F044
:10311A0003C007F004C008F005C009F006C00AF0B1
:10312A00071E081E091E0A1E072A000E0822092267
:10313A000A2207C00DF008C00EF009C00FF00AC03D
:10314A0010F0B0EF18F003C00DF004C00EF005C087
:10315A000FF006C010F00350041005100610D8A492
:10316A00B9EF18F0BBEF18F0C5EF18F0000E036EB8
:10317A00000E046E000E056E000E066E56EF19F074
:10318A00960E0C6ECFEF18F00C2AD89010320F3230
:10319A000E320D32000E0D14076E000E0E14086E5C
:1031AA00000E0F14096EFE0E10140A6E0750081056
:1031BA0009100A10D8A4E4EF18F0E6EF18F0C9EFE6
:1031CA0018F0F4EF18F00C2A010E0D26000E0E224C
:1031DA000F221022D89010320F320E320D32000E0A
:1031EA000D14076E000E0E14086E000E0F14096EF1
:1031FA00FF0E10140A6E0750081009100A10D8A4FE
:10320A0009EF19F00BEF19F0E8EF18F013EF19F0C6
:10321A000C06D8900D360E360F3610360FBE18EF44
:10322A0019F01AEF19F022EF19F0020E0C6020EFD4
:10323A0019F022EF19F00DEF19F00CB027EF19F081
:10324A0029EF19F02AEF19F00F9ED8900C320CC012
:10325A0007F0086A096A0A6A07C00AF0096A086A6E
:10326A00076A07500D1208500E1209500F120A5021
:10327A0010120B50D8B444EF19F046EF19F04EEF84
:10328A0019F006BE4DEF19F04BEF19F04EEF19F099
:10329A00108E0DC003F00EC004F00FC005F010C070
:1032AA0006F012000FC017F010C018F017501810CF
:1032BA00D8A462EF19F064EF19F06AEF19F0850EDD
:1032CA00176E1750D8A4100E186E000E1A6E000E44
:1032DA00196E72EF19F0194A1A2A19501724116E29
:1032EA001A501820126E11C0F6FF12C0F7FF000E16
:1032FA00F86E0F0EF76403D00800F55005D0F6CF2C
:10330A00E1FFF7CFE2FFE7500009D8A48FEF19F0E9
:10331A0091EF19F070EF19F019C013F01AC014F0F8
:10332A00EEC015F0EFC016F05BB09EEF19F0A0EFFB
:10333A0019F0DCEF19F0AEEF19F0000E056E200E51
:10334A00046E0DC006F00EC007F030EC1DF0194AED
:10335A001A2A1550195C1A50800A116E1650800AE2
:10336A001158D8A0BBEF19F0BDEF19F0A2EF19F070
:10337A00DCEF19F017C0F6FF18C0F7FF000EF86E61
:10338A000F0EF76403D00800F55005D0F6CFE1FF21
:10339A00F7CFE2FFE750116E1150046E056A0DC0B7
:1033AA0006F00EC007F030EC1DF0174A182A130673
:1033BA00D8A01406132806E11428D8A4E7EF19F0B8
:1033CA00E9EF19F0BFEF19F05BA0EEEF19F0F0EF9B
:1033DA0019F00DEF1AF0FEEF19F0000E056E200E2F
:1033EA00046E0DC006F00EC007F030EC1DF0194A4D
:1033FA001A2A1550195C1A50800A116E1650800A42
:10340A001158D8A00BEF1AF00DEF1AF0F2EF19F0DD
:10341A0012009594959694989598959A959C8C8473
:10342A008C868B888C888C8A8C8C92840F01389538
:10343A003F0ECD16300ECD129D80F28CF28E010E0B
:10344A000001F26F9E809E0ECF6E580ECE6ECD801A
:10345A00010E5C6E000E1E6E20EED2F010EE12F01F
:10346A000B0EDBCFE3FFE806FCE220EEC6F010EE1F
:10347A0006F00B0EDBCFE3FFE806FCE2000E206E3F
:10348A000C0E1F6E000E216EAAEF1AF0000E236EAC
:10349A00000E226E2250020DF350120FD96EDA6A14
:1034AA0002D87CEF1AF00500FA6EDE50FD6EDE508F
:1034BA00FE6EF850FF6EFA5022500508046E215035
:1034CA00060FD96EDA6ADF50056E042A6FEF1AF01A
:1034DA00D8900532042E6DEF1AF005A077EF1AF096
:1034EA007AEF1AF0010E7BEF1AF0000E1200224A50
:1034FA00232A23BE8AEF1AF0235009E1060E225C22
:10350A00D8A08AEF1AF08CEF1AF04FEF1AF0110ECA
:10351A00056E3C0E046ECB0EE82EFED7042EFCD7A9
:10352A00052EFAD70000212A2150046E056A1F5081
:10353A00041807E120500518D8A4A6EF1AF0A8EF3E
:10354A001AF0AAEF1AF0000E216E5C50D8A4B0EF60
:10355A001AF0B2EF1AF04BEF1AF08C848C868B8833
:10356A008C888C8A8C8CCD909D90000E0001F26F15
:10357A001200010E236E20BEC5EF1AF0C8EF1AF032
:10358A00010EC9EF1AF0000E266EEEC024F0EFC04D
:10359A0025F02650D8B4D4EF1AF0D6EF1AF0EDEF92
:1035AA001AF02406D8A025062650D8A4DFEF1AF070
:1035BA00E1EF1AF0E7EF1AF0000E226E2B0E216EE1
:1035CA00EBEF1AF0000E226E2D0E216E21C026F0AE
:1035DA00000E286E1F0E276E000E01011F6F25EFC9
:1035EA001BF02706D8A02806000E2724D96E010E44
:1035FA002820DA6E1FC003F020C004F0000E066E09
:10360A000A0E056EE6EC1DF003C009F004C00AF0CC
:10361A00F7EC1FF00950300FDF6E000E236E240600
:10362A00D8A025061FC003F020C004F0000E066EC5
:10363A000A0E056ECEEC1CF003C01FF004C020F089
:10364A0028BE30EF1BF0285008E12704D8A030EF3D
:10365A001BF032EF1BF043EF1BF01F502010D8A4D1
:10366A0039EF1BF03BEF1BF0F6EF1AF02350D8A40A
:10367A0041EF1BF043EF1BF0F6EF1AF02650D8B4D7
:10368A0049EF1BF04BEF1BF056EF1BF02706D8A0B3
:10369A002806000E2724D96E010E2820DA6E26C0CD
:1036AA00DFFF1DC014F01EC015F0000E2724166E91
:1036BA00010E2820176E24C018F025C019F091ECCD
:1036CA001EF01200553456340001616F6151D8A4BE
:1036DA0071EF1BF073EF1BF07DEF1BF0000E536EC2
:1036EA00000E546E000E556E000E566EEAEF1BF079
:1036FA0053C057F054C058F055C059F056C05AF04C
:10370A00200E8DEF1BF0D8905A3259325832573268
:10371A00E82E88EF1BF05750606F558EFF0E531638
:10372A00FF0E5416FF0E5516000E5616960E615FC2
:10373A0061BFA4EF1BF0A2EF1BF0BAEF1BF06151BF
:10374A00800A970FD8B0ACEF1BF0AEEF1BF0B0EFCA
:10375A001BF073EF1BF0D890563255325432533265
:10376A00613FB0EF1BF0D2EF1BF01F0E6165C0EF97
:10377A001BF0C2EF1BF0CAEF1BF073EF1BF0D890DF
:10378A00533654365536563661076151D8A4D0EFB0
:10379A001BF0D2EF1BF0C4EF1BF06051D8B4D8EF86
:1037AA001BF0DAEF1BF0E2EF1BF0561E551E541EFB
:1037BA00536C000E54225522562253C053F054C063
:1037CA0054F055C055F056C056F0120000018A6FE9
:1037DA00C2EC1FF020EEDEF010EE82F0070EDBCF17
:1037EA00E3FFE806FCE212EF1CF0060E00018A6114
:1037FA0001EF1CF003EF1CF021EF1CF08A2B21EFE4
:10380A001CF000018A51D8B40DEF1CF00FEF1CF028
:10381A0021EF1CF08A0721EF1CF04C50000AD8B4A3
:10382A0021EF1CF0010AD8B4FAEF1BF0030AD8B44E
:10383A0006EF1CF021EF1CF0600E396E920E3A6E04
:10384A00000E3C6E0F0E3B6E00018A51820FD96E3C
:10385A00DA6ADF504D6E4DC03DF03D50D8A4100ECF
:10386A003E6EA7EC1FF0710E396E930E3A6E000E83
:10387A003C6E100E3B6E8AC04DF0010E4D264D5027
:10388A00820FD96EDA6ADF504E6E4EC03DF03D505F
:10389A00D8A4100E3E6EA7EC1FF0600E046E056AE7
:1038AA00010E8DEC1DF0710E046E056A020E8DEC90
:1038BA001DF000018A5112000F013B913B93958044
:1038CA009582929089806C50F00B08096C6E130EE9
:1038DA006E6E6C8A340E046EF20EE82EFED7042E3B
:1038EA00FCD76B806BB07CEF1CF07EEF1CF077EF9F
:1038FA001CF0A49E7C0E24EC20F0800E24EC20F018
:10390A00380E24EC20F0800E24EC20F0390E24EC42
:10391A0020F0800E24EC20F0170E24EC20F0800E0C
:10392A0024EC20F07A0E24EC20F0800E24EC20F017
:10393A005E0E24EC20F0800E24EC20F06B0E24ECBA
:10394A0020F0800E24EC20F00C0E24EC20F0800EE7
:10395A0024EC20F0010E24EC20F0800E24EC20F060
:10396A00060E24EC20F0800E24EC20F0020E24EC4B
:10397A0020F06B846BB4C4EF1CF0C6EF1CF0BFEFF1
:10398A001CF0340E046EF20EE82EFED7042EFCD77D
:10399A001200000E086E06BED7EF1CF0D5EF1CF021
:1039AA00DDEF1CF0056C061ED8B0062A010E086E63
:1039BA0004BEE4EF1CF0E2EF1CF0EAEF1CF0036C2B
:1039CA00041ED8B0042A010E081A000E0A6E000E50
:1039DA00096E05500610D8B4F5EF1CF0F7EF1CF08D
:1039EA001FEF1DF0010E076EFFEF1CF0D890053691
:1039FA000636072A06AE04EF1DF006EF1DF0FBEFB0
:103A0A001CF0D89009360A360550035C0650045853
:103A1A00D8A012EF1DF014EF1DF019EF1DF005509C
:103A2A00035E0650045A0980D89006320532072EE2
:103A3A0006EF1DF00850D8B425EF1DF027EF1DF052
:103A4A002BEF1DF0096C0A1ED8B00A2A09C003F030
:103A5A000AC004F0120006500710D8B437EF1DF060
:103A6A0039EF1DF042EF1DF006500710D8A440EFC1
:103A7A001DF042EF1DF047EF1DF0045054EC20F00A
:103A8A008CEF1DF020EE0AF00650D9260750DA22F4
:103A9A00DE50DE10D8B454EF1DF056EF1DF071EF72
:103AAA001DF020EE0AF00650D9260750DA2210EE51
:103ABA0003F00650E1260750E222DE50E65CE650AB
:103ACA00800A0C6EDE50800A0C58D8B06FEF1DF0D9
:103ADA0071EF1DF08CEF1DF020EE03F00650D92691
:103AEA000750DA22DF50086E06C0D9FF07C0DAFF96
:103AFA00DF500824D96EDA6A04C0DFFF20EE03F033
:103B0A000650D9260750DA22DE2A000EDD221200DC
:103B1A00086E6B806BB094EF1DF096EF1DF08FEF7F
:103B2A001DF0A49E7C0E24EC20F0800E24EC20F0E4
:103B3A000804D8A4A3EF1DF0A5EF1DF0AAEF1DF00D
:103B4A00800E24EC20F0B6EF1DF0020E0818D8A45F
:103B5A00B1EF1DF0B3EF1DF0B6EF1DF0C00E24EC6F
:103B6A0020F0400E24EC20F0000E096E09500424C7
:103B7A00066E000E0520076E06C0F6FF07C0F7FFA7
:103B8A00000EF86E0F0EF76403D00800F55005D04A
:103B9A00F6CFE1FFF7CFE2FFE75024EC20F0092A45
:103BAA000F0E0964DBEF1DF0DDEF1DF0BBEF1DF01A
:103BBA006B846BB4E3EF1DF0E5EF1DF0DEEF1DF053
:103BCA001200000E086E04BEEFEF1DF0EDEF1DF0BF
:103BDA00F5EF1DF0036C041ED8B0042A010E086E1E
:103BEA0006BEFCEF1DF0FAEF1DF000EF1EF0056CAB
:103BFA00061ED8B0062A05500610D8B407EF1EF0E4
:103C0A0009EF1EF02DEF1EF0010E076E11EF1EF0E8
:103C1A00D89005360636072A06AE16EF1EF018EFBC
:103C2A001EF00DEF1EF00550035C06500458D8A094
:103C3A0021EF1EF023EF1EF027EF1EF00550035E62
:103C4A000650045AD89006320532072E18EF1EF095
:103C5A000850D8B433EF1EF035EF1EF039EF1EF0DE
:103C6A00036C041ED8B0042A03C003F004C004F095
:103C7A001200000E0D6E000E0C6E0950D96EDA6A33
:103C8A00DFCFF6FF100EF76E0800F5502A0AD8A407
:103C9A0051EF1EF053EF1EF079EF1EF00950D96E66
:103CAA00DA6ADF2A0A50D96EDA6A020EDF26DF5C88
:103CBA00D96EDA6ADECF0CF0DECF0DF08CEF1EF093
:103CCA000CC003F00DC004F0000E066E0A0E056E5D
:103CDA0011EC20F00B5003240C6E000E04200D6E24
:103CEA000950D96EDA6ADF2A0950D96EDA6ADFCF4B
:103CFA00F6FF100EF76E0800F550D00F0B6E090E86
:103D0A000B648AEF1EF08CEF1EF065EF1EF00CC0FC
:103D1A0009F00DC00AF012005BA096EF1EF098EFB2
:103D2A001EF0A2EF1EF016C00DF017C00EF014C060
:103D3A000FF015C010F028EC1FF019BEA9EF1EF005
:103D4A00A7EF1EF0ADEF1EF0000E196E000E186EF2
:103D5A00000E1C6E000E1B6EBFEF1EF0000E056EED
:103D6A00200E046E14C006F015C007F030EC1DF0EA
:103D7A001B4A1C2A18501B5C1C50800A1A6E1950C8
:103D8A00800A1A58D8A0CCEF1EF0CEEF1EF0B3EF7F
:103D9A001EF05BB0D3EF1EF0D5EF1EF0DFEF1EF082
:103DAA0016C00DF017C00EF014C00FF015C010F0B9
:103DBA0028EC1FF012006E0EF66E400EF76E000E23
:103DCA00F86E00EEC6F010EE20F00900F5CFEEFF17
:103DDA00E550E150FAE101EE00F0200EEE6AE80645
:103DEA00FDE100EEE6F00D0EEE6AE806FDE15C6A22
:103DFA005B6A5D905D92000EF86E00016EEF16F040
:103E0A00000E571A000E581A000E591A800E5A1A26
:103E1A0053C043F054C044F055C045F056C046F074
:103E2A0057C047F058C048F059C049F05AC04AF044
:103E3A00E2EC0AF043C053F044C054F045C055F0D8
:103E4A0046C056F01200000E136E000E126E39EFC5
:103E5A001FF011C004F0056A0FC006F010C007F089
:103E6A0030EC1DF0124A132A12500D24D96E135049
:103E7A000E20DA6EDF50116E1150D8A447EF1FF0F2
:103E8A0049EF1FF02EEF1FF0120036C038F058EF3E
:103E9A001FF034C029F035C02AF0380E2B6E37C017
:103EAA002CF005EC13F038C0F6FF100EF76E080080
:103EBA00F5500009D8A464EF1FF066EF1FF04EEF2B
:103ECA001FF0000E356E000E346E1200056E0538B6
:103EDA000F0B3009036E0538F00B046E8A9603C087
:103EEA00C9FF9EA67BEF1FF07DEF1FF076EF1FF054
:103EFA009E9604C0C9FF9EA685EF1FF087EF1FF0AC
:103F0A0080EF1FF09E968A8612000001785179117F
:103F1A007A117B11D8B494EF1FF096EF1FF09EEF41
:103F2A001FF0000E781B000E791B000E7A1B800E04
:103F3A007B1B78C078F079C079F07AC07AF07BC0C0
:103F4A007BF012003B0E3F6E39C040F0000E446E0B
:103F5A00000E436E000E4B6E000E4A6E400E346E1B
:103F6A00356A3AC036F03F0E376E4AEC1FF03950C8
:103F7A004324D96EDA6ADF6A12006B806BB0C8EF2D
:103F8A001FF0CAEF1FF0C3EF1FF0A49E7C0E24ECB3
:103F9A0020F0800E24EC20F0010E24EC20F06B843B
:103FAA006BB4DAEF1FF0DCEF1FF0D5EF1FF0120051
:103FBA00E6C007F0E7C008F0E8C009F0E9C00AF077
:103FCA0003C007F004C008F005C009F006C00AF0F3
:103FDA000A9E07C003F008C004F009C005F00AC031
:103FEA0006F012000ABEFCEF1FF0FEEF1FF004EF0E
:103FFA0020F009C009F00AC00AF010EF20F009C049
:10400A000BF00AC00CF00B1E0C1E0B4A0C2A0BC03C
:10401A0009F00CC00AF0120003500502F3CF07F0B2
:10402A00F4CF08F003500602F350082604500502A4
:10403A00F350082607C003F008C004F01200036E0C
:10404A0003C06FFF6DB02CEF20F02EEF20F027EFAA
:10405A0020F0A4AE33EF20F035EF20F02EEF20F061
:10406A00A49E12002030180C06030103060C183017
:10407A00F640E840DA40CC40BE4004419DA2B4B0CC
:10408A00AC988CAB3A0E3C6E000E346E000E356E58
:10409A0039C036F03C0E376E4AEC1FF01200036E40
:1040AA009EA85AEF20F05CEF20F055EF20F003C0F5
:1040BA00ADFF1200036E03B002D08C9A01D08C8A35
:1040CA001200036E03B002D08C9801D08C881200C3
:1040DA00036E03B002D08B9801D08B881200036E56
:1040EA0003B002D08C9601D08C861200036E03B006
:1040FA0002D08C9401D08C841200036E03B002D0DB
:08410A008C9C01D08C8C12008A
:020000040030CA
:04000000FF331F3C6F
:00000001FF
