:04000000A7EF00F076
:100008005A82D9CF03F0DACF04F09DA00EEF00F0AA
:1000180010EF00F049EF00F09EA015EF00F017EF89
:1000280000F049EF00F001012651D8B41EEF00F0AE
:1000380020EF00F049EF00F080A425EF00F027EF53
:1000480000F044EF00F0030E026E080E016E770E0A
:10005800E82EFED7012EFCD7022EFAD7000080A486
:1000680038EF00F03AEF00F044EF00F080B43FEFD3
:1000780000F041EF00F03AEF00F0000E0001FE6FD3
:100088009E0ECF6E580ECE6E9E909DA04EEF00F045
:1000980050EF00F066EF00F09EA055EF00F057EF2C
:1000A80000F066EF00F001012451D8B45EEF00F0D3
:1000B80060EF00F066EF00F0232B0B0ECF6EDC0E26
:1000C800CE6E9E909DAA6BEF00F06DEF00F0A1EF51
:1000D80000F09EAA72EF00F074EF00F0A1EF00F0BC
:1000E80001012551D8B47BEF00F07DEF00F0A1EFBE
:1000F80000F0AECF05F00A0E0518D8B486EF00F070
:1001080088EF00F094EF00F0770E2125D96E010EEC
:100118002221DA6E05C0DFFF214B222BA1EF00F070
:10012800010E966F770E2125D96E010E2221DA6E07
:10013800DF6A000E226F000E216F04C0DAFF03C0D1
:10014800D9FF5A92110091EF27F0000E0001AE6F0F
:1001580086C0AFF087C0B0F088C0B1F089C0B2F0F7
:10016800B2BFBBEF00F0B9EF00F0CFEF00F0010E27
:10017800AE6FAFC080F0B0C081F0B1C082F0B2C045
:1001880083F090EC28F080C0AFF081C0B0F082C05E
:10019800B1F083C0B2F0000E0001B46F000EB36F6F
:1001A80055C09EF056C09FF0AE51D8B4DEEF00F0B7
:1001B800E0EF00F0F4EF00F0AE51D8A4E6EF00F065
:1001C800E8EF00F0EEEF00F0000E946F2B0E936F47
:1001D800F2EF00F0000E946F2D0E936F93C0AEF007
:1001E800AFC006F0B0C007F0B1C008F0B2C009F067
:1001F80089EC22F006040710D8A405EF01F007EFF8
:1002080001F03AEF01F00001AE51D8B40EEF01F061
:1002180010EF01F019EF01F0AEC027F19E07D8A04A
:100228009F07000EB46F010EB36F270EB325066E3D
:10023800010EB421076EEB0E086EFF0E096EADECD1
:1002480028F00001FD0E9E27FF0E9F2384C017F0A3
:1002580085C018F0270E196E010E1A6E9EC01BF08D
:100268009FC01CF011EC26F0A5EF05F0AFC006F01A
:10027800B0C007F0B1C008F0B2C009F089EC22F0B4
:1002880006500710D8A44BEF01F04DEF01F06DEFC9
:1002980001F00001AE51D8B454EF01F056EF01F06F
:1002A8005FEF01F0AEC027F19E07D8A09F07000EB0
:1002B800B46F010EB36F270EB325066E010EB4217D
:1002C800076EEF0E086EFF0E096EADEC28F025EFF5
:1002D80001F0000E0001B56F000EB66F800EB76F0B
:1002E8003F0EB86F000E9D6F000E9C6FAFC006F0FA
:1002F800B0C007F0B1C008F0B2C009F0000E0A6E35
:10030800000E0B6E000E0C6E000E0D6EBCEC25F090
:10031800D8B091EF01F093EF01F072EF02F0A0EF87
:1003280001F0A0C0B5F0A1C0B6F0A2C0B7F0A3C05C
:10033800B8F000019C4B9D2BB5C014F0B6C015F069
:10034800B7C016F0B8C017F0000E186E000E196E80
:10035800200E1A6E410E1B6E3AEC0DF014C0A0F080
:1003680015C0A1F016C0A2F017C0A3F00001A0515B
:10037800AF5D066EA151B059076EA251B159086E12
:10038800A351B259096E66EC27F009BED7EF01F008
:1003980009500810071009E1020E065CD8A0D7EF33
:1003A80001F0D9EF01F095EF01F0A0C02DF0A1C048
:1003B8002EF0A2C02FF0A3C030F0AFC031F0B0C013
:1003C80032F0B1C033F0B2C034F007EC22F0D8A05C
:1003D800F0EF01F0F2EF01F095EF01F00001B551F7
:1003E800AF5D066EB651B059076EB751B159086E78
:1003F800B851B259096E66EC27F009BE11EF02F048
:1004080009500810071007E1020E065CD8B00FEF7C
:1004180002F011EF02F059EF02F0B5C0AFF0B6C02C
:10042800B0F0B7C0B1F0B8C0B2F072EF02F0B5C02A
:100438002DF0B6C02EF0B7C02FF0B8C030F0000EC7
:10044800316E000E326E200E336E410E346E17EC94
:1004580015F02DC0B5F02EC0B6F02FC0B7F030C0E3
:10046800B8F000019C07D8A09D07B551AF5D066E96
:10047800B651B059076EB751B159086EB851B25953
:10048800096E66EC27F009BE57EF02F00950081014
:10049800071007E1020E065CD8B055EF02F057EFDF
:1004A80002F059EF02F011EF02F0AFC02DF0B0C02A
:1004B8002EF0B1C02FF0B2C030F0B5C031F0B6C0E8
:1004C80032F0B7C033F0B8C034F007EC22F0D8A04F
:1004D80070EF02F072EF02F01BEF02F08AC096F0A4
:1004E80096C097F058BE7BEF02F07DEF02F083EFE5
:1004F80002F057C08FF058C090F088EF02F0000E5D
:100508000001906F060E8F6F8FC09AF090C09BF01D
:1005180000019A4B9B2B660E9719D8A496EF02F010
:1005280098EF02F0B8EF02F09DBF9FEF02F09DEF49
:1005380002F0ABEF02F0000EB56F000EB66F800E42
:10054800B76F3F0EB86F000E9D6F000E9C6F670E61
:100558009619D8B4B2EF02F0B4EF02F0B8EF02F097
:100568009C519A279D519B23000EA56F000EA46FE6
:10057800AFC0A6F0B0C0A7F0B1C0A8F0B2C0A9F053
:10058800B5C0A0F0B6C0A1F0B7C0A2F0B8C0A3F043
:1005980049EF03F0A6C02DF0A7C02EF0A8C02FF099
:1005A800A9C030F0B5C031F0B6C032F0B7C033F0F2
:1005B800B8C034F017EC15F02DC046F02EC047F047
:1005C8002FC048F030C049F071EC19F046C0AAF0CD
:1005D80047C0ABF048C0ACF049C0ADF0AAC064F069
:1005E800ABC065F0ACC066F0ADC067F083EC21F03D
:1005F80064C098F065C099F0A6C064F0A7C065F023
:10060800A8C066F0A9C067F0AAC018F0ABC019F07E
:10061800ACC01AF0ADC01BF0B5C014F0B6C015F0F0
:10062800B7C016F0B8C017F03AEC0DF014C068F077
:1006380015C069F016C06AF017C06BF008EC28F016
:1006480064C0A6F065C0A7F066C0A8F067C0A9F0AE
:10065800B5C02DF0B6C02EF0B7C02FF0B8C030F03E
:10066800000E316E000E326E200E336E410E346E67
:1006780017EC15F02DC0B5F02EC0B6F02FC0B7F0AE
:1006880030C0B8F00001A44BA52B9A51A45DA55128
:10069800800A8B6F9B51800A8B59D8A056EF03F0C4
:1006A80058EF03F0CEEF02F0B5C014F0B6C015F065
:1006B800B7C016F0B8C017F0000E186E000E196E0D
:1006C800A00E1A6E400E1B6E3AEC0DF014C0AAF084
:1006D80015C0ABF016C0ACF017C0ADF0A6C02DF039
:1006E800A7C02EF0A8C02FF0A9C030F0AAC031F0E2
:1006F800ABC032F0ACC033F0ADC034F007EC22F040
:10070800D8B089EF03F08BEF03F096EF03F0000EFB
:100718000001AA6F000EAB6F000EAC6F000EAD6F3C
:10072800BFEF03F0A6C006F0A7C007F0A8C008F006
:10073800A9C009F0AAC00AF0ABC00BF0ACC00CF01D
:10074800ADC00DF0BCEC25F0D8A0ADEF03F0AFEFD5
:1007580003F0BFEF03F0000198B1B5EF03F0B7EF76
:1007680003F0BFEF03F0000EAA6F000EAB6F000E90
:10077800AC6F000EAD6FAFC046F0B0C047F0B1C06F
:1007880048F0B2C049F0AAC04AF0ABC04BF0ACC0C8
:100798004CF0ADC04DF0D9EC0AF046C0A6F047C009
:1007A800A7F048C0A8F049C0A9F0A6C02DF0A7C07E
:1007B8002EF0A8C02FF0A9C030F0000E186E000E61
:1007C800196E200E1A6E410E1B6EA0C014F0A1C047
:1007D80015F0A2C016F0A3C017F03AEC0DF014C043
:1007E80031F015C032F016C033F017C034F007EC02
:1007F80022F0D8A002EF04F004EF04F02DEF04F08B
:1008080000019C4B9D2BA0C014F0A1C015F0A2C004
:1008180016F0A3C017F0000E186E000E196E200E09
:100828001A6E410E1B6E3AEC0DF014C0A0F015C004
:10083800A1F016C0A2F017C0A3F0660E0001971928
:10084800D8A429EF04F02BEF04F02DEF04F09A4B15
:100858009B2BA0C0B5F0A1C0B6F0A2C0B7F0A3C052
:10086800B8F09CC08DF09DC08EF0000E0001956F11
:10087800000E926F000E916F000EA56F000EA46F10
:100888002BEF05F0A6C02DF0A7C02EF0A8C02FF0C2
:10089800A9C030F0B5C031F0B6C032F0B7C033F0FF
:1008A800B8C034F017EC15F02DC046F02EC047F054
:1008B8002FC048F030C049F071EC19F046C0AAF0DA
:1008C80047C0ABF048C0ACF049C0ADF0AAC064F076
:1008D800ABC065F0ACC066F0ADC067F083EC21F04A
:1008E800000165BF83EF04F0655107E10A0E645DFE
:1008F800D8B081EF04F083EF04F093EF04F0AAC0BE
:1009080064F0ABC065F0ACC066F0ADC067F083ECD6
:1009180021F064C098F065C099F097EF04F0000EDC
:10092800996F090E986F00019551D8A49EEF04F0B5
:10093800A0EF04F0C8EF04F08EBFA7EF04F0A5EF16
:1009480004F0C8EF04F0270EB325D96E010EB421C8
:10095800DA6E2E0EDF6EB34BB42B9E07D8A09F071E
:10096800010E956FC8EF04F0270EB325D96E010E5E
:10097800B421DA6E300EDF6EB34BB42B9E07D8A0CD
:100988009F079107D8A0920791519211D8A4CFEF51
:1009980004F0D1EF04F0B8EF04F0270EB325D96EB8
:1009A800010EB421DA6E9851300FDF6EB34BB42BC1
:1009B8009E07D8A09F07A6C064F0A7C065F0A8C08E
:1009C80066F0A9C067F0AAC018F0ABC019F0ACC0B7
:1009D8001AF0ADC01BF0B5C014F0B6C015F0B7C022
:1009E80016F0B8C017F03AEC0DF014C068F015C056
:1009F80069F016C06AF017C06BF008EC28F064C004
:100A0800A6F065C0A7F066C0A8F067C0A9F0B5C099
:100A18002DF0B6C02EF0B7C02FF0B8C030F0000EE1
:100A2800316E000E326E200E336E410E346E17ECAE
:100A380015F02DC0B5F02EC0B6F02FC0B7F030C0FD
:100A4800B8F000018D07D8A08E07A44BA52B9A51AA
:100A5800A45DA551800A8B6F9B51800A8B59D8B031
:100A680038EF05F03AEF05F048EF05F0B4BF46EF70
:100A780005F0B45109E14B0EB35DD8A046EF05F07F
:100A880048EF05F046EF04F0000EA56F4F0EA46F77
:100A9800270EA425D96E010EA521DA6EDF6A270E6E
:100AA8008B6F010E8C6FB3518B5FB4518C5BA4516B
:100AB8008B25066EA5518C21076E270E086E010E38
:100AC800096EB3C00AF0B4C00BF0BBEC27F000010C
:100AD800B351A45DB36FB451A559B46FAE51D8A446
:100AE80078EF05F07BEF05F0010E7CEF05F0000EC6
:100AF800A46FA56BAE51D8B484EF05F086EF05F06E
:100B080091EF05F0B307D8A0B407270EB325D96E27
:100B1800010EB421DA6EAEC0DFFFA4519E5FA5516D
:100B28009F5B84C017F085C018F0270EB325196E97
:100B3800010EB4211A6E9EC01BF09FC01CF011EC70
:100B480026F012000001BB51D96EDA6ADECFF6FF3B
:100B5800DDCFF7FF0800F550250AD8A4B6EF05F059
:100B6800B8EF05F040EF08F0BB51D96EDA6ADE2A1B
:100B7800000EDD22000E566E000E556E55C059F05F
:100B880057685868000EBF6FE6EF05F05980BB51F3
:100B9800D96EDA6ADE2A000EDD22E6EF05F0010ED4
:100BA800BF6FE6EF05F0BB51D96EDA6ADECFF6FF0C
:100BB800DDCFF7FF0800F5502D0AD8B4CAEF05F0CD
:100BC800D3EF05F0BF51D8B4ECEF05F0EEEF05F028
:100BD800D7EF05F0BBC00CF0BCC00DF065EC25F0FC
:100BE8000CC055F00DC056F056BEFFEF05F0FDEFF6
:100BF80005F004EF06F05980556C561ED8B0562AF9
:100C08000001BB51D96EDA6ADECFF6FFDDCFF7FF00
:100C18000800F5502E0AD8A414EF06F016EF06F0D7
:100C280026EF06F0BB51D96EDA6ADE2A000EDD2205
:100C3800BBC00CF0BCC00DF065EC25F00CC057F043
:100C48000DC058F00001BB51D96EDA6ADECFC5F08D
:100C5800DDCFC6F0C5C0F6FFC6C0F7FF0800F5CF68
:100C6800C4F043EF06F0C54BC62B56EF06F0690EED
:100C7800C46F56EF06F0000EC46F56EF06F0C4516D
:100C8800640AD8B43BEF06F00C0AD8B437EF06F084
:100C9800010AD8B43BEF06F01C0AD8B43BEF06F0C3
:100CA8003FEF06F0C5C0F6FFC6C0F7FF0800F550D5
:100CB800640AD8B462EF06F064EF06F090EF06F02D
:100CC800C5C0F6FFC6C0F7FF0800F550690AD8A4EA
:100CD80070EF06F072EF06F0B4EF06F090EF06F052
:100CE800BC51D96EDA6A020EDF26DF5CD96EDA6A89
:100CF800DECFC0F0DECFC1F09BEF06F0BC51D96E5D
:100D0800DA6A020EDF26DF5CD96EDA6ADECFC0F05F
:100D1800DECFC1F09BEF06F0C451680AD8B482EF69
:100D280006F0010AD8B474EF06F09BEF06F0010E46
:100D3800C525BD6F000EC621BE6FBB51D96EDA6ADC
:100D4800BDC0DEFFBEC0DDFFB9C020F0BAC021F0D3
:100D5800C0C022F0C1C023F02DEC1EF053EF08F004
:100D6800C5C0F6FFC6C0F7FF0800F550750AD8A43D
:100D7800C0EF06F0C2EF06F012EF07F0E0EF06F062
:100D8800BC51D96EDA6A020EDF26DF5CD96EDA6AE8
:100D9800DECFC0F0DECFC1F0EBEF06F0BC51D96E6C
:100DA800DA6A020EDF26DF5CD96EDA6ADECFC0F0BF
:100DB800DECFC1F0EBEF06F0C451680AD8B4D2EF29
:100DC80006F0010AD8B4C4EF06F0EBEF06F0010E06
:100DD800C525BD6F000EC621BE6FBB51D96EDA6A3C
:100DE800BDC0DEFFBEC0DDFF06EF07F0B9C020F0D2
:100DF800BAC021F0C0C022F0C1C023F008EC23F033
:100E080053EF08F0C5C0F6FFC6C0F7FF0800F5505D
:100E1800750AD8B4FAEF06F012EF07F0000EBF6FAC
:100E2800BB51D96EDA6ADECFF6FFDDCFF7FF0800D7
:100E3800F550730AD8A423EF07F025EF07F02FEF3A
:100E480007F0BB51D96EDA6ADE2A000EDD22010EE8
:100E5800BF6F7BEF07F0BB51D96EDA6ADECFF6FFC2
:100E6800DDCFF7FF0800F5506C0AD8A43EEF07F075
:100E780040EF07F07BEF07F0BB51D96EDA6ADECF9F
:100E8800BDF0DDCFBEF0010EBD27000EBE23BDC0F4
:100E9800F6FFBEC0F7FF0800F5506C0AD8A457EF5C
:100EA80007F059EF07F07BEF07F0BB51D96EDA6A0C
:100EB800DECFBDF0DDCFBEF0020EBD27000EBE2393
:100EC800BDC0F6FFBEC0F7FF0800F550730AD8A4EE
:100ED80070EF07F072EF07F07BEF07F0BB51D96EA8
:100EE800DA6A030EDE26000EDD222BEF07F0BF5173
:100EF800D8B481EF07F083EF07F097EF07F0B9C098
:100F080010F0BAC011F0BC51D96EDA6A020EDF26B1
:100F1800DF5CD96EDA6ADECF12F0DECF13F05EEC5A
:100F28001DF053EF08F0BB51D96EDA6ADECFC5F079
:100F3800DDCFC6F0C5C0F6FFC6C0F7FF0800F5CF85
:100F4800C4F0B3EF07F0C54BC62BC2EF07F06C0E29
:100F5800C46FC2EF07F0000EC46FC2EF07F0C451B0
:100F68004C0AD8B4A7EF07F02A0AD8B4ABEF07F0B9
:100F78000A0AD8B4A7EF07F0AFEF07F0C5C0F6FF2D
:100F8800C6C0F7FF0800F550660AD8A4CEEF07F0F0
:100F9800D0EF07F037EF08F0FAEF07F0BC51D96E41
:100FA800DA6ADFCFBDF0040EDF26BD51D96EDA6AEA
:100FB800DECFC0F0DECFC1F0DECFC2F0DECFC3F0AF
:100FC80005EF08F0BC51D96EDA6ADFCFBDF0040E28
:100FD800DF26BD51D96EDA6ADECFC0F0DECFC1F0B0
:100FE800DECFC2F0DECFC3F005EF08F0C4514C0AE3
:100FF800D8B4E6EF07F0200AD8B4D2EF07F005EF2F
:1010080008F0010EC525BD6F000EC621BE6FBB518D
:10101800D96EDA6ABDC0DEFFBEC0DDFF2BEF08F077
:10102800B9C084F0BAC085F0C0C086F0C1C087F0EE
:10103800C2C088F0C3C089F0C5C0F6FFC6C0F7FFBC
:101048000800F5CF8AF0A9EC00F053EF08F0C5C00E
:10105800F6FFC6C0F7FF0800F550660AD8B414EFCB
:1010680008F037EF08F00001BB51D96EDA6ADE2AC2
:10107800000EDD2253EF08F0BB51D96EDA6ADECFDD
:10108800F6FFDDCFF7FF0800F550076E086AB9C014
:1010980009F0BAC00AF0EDEC23F037EF08F01200BF
:1010A800A4C0BAF0A5C0BBF0A6C0BCF0A7C0BDF0F4
:1010B8000001BDBF62EF08F065EF08F0010E66EFB2
:1010C80008F0000EB16FBD9FDB0EBA5D0F0EBB5965
:1010D800490EBC593F0EBD59D8B075EF08F077EFEF
:1010E80008F0A0EF08F0800EBC5D390EBD59D8B0ED
:1010F80080EF08F082EF08F08CEF08F0A4C0A4F0AD
:10110800A5C0A5F0A6C0A6F0A7C0A7F0D8EF0AF022
:10111800A4C064F0A5C065F0A6C066F0A7C067F0DB
:1011280058EC18F064C0A4F065C0A5F066C0A6F03D
:1011380067C0A7F0D8EF0AF0D20EBA5D530EBB59BC
:101148007B0EBC59400EBD59D8B0ADEF08F0AFEFDB
:1011580008F092EF09F0E40EBA5DCB0EBB59160EFB
:10116800BC59400EBD59D8B0BCEF08F0BEEF08F02E
:101178002CEF09F0B151D8B4C4EF08F0C6EF08F06D
:10118800FEEF08F0DB0E4A6E0F0E4B6EC90E4C6E6A
:101198003F0E4D6EA4C046F0A5C047F0A6C048F06B
:1011A800A7C049F0D9EC0AF046C0B2F047C0B3F086
:1011B80048C0B4F049C0B5F0B2C064F0B3C065F03F
:1011C800B4C066F0B5C067F085EC1BF064C080F071
:1011D80065C081F066C082F067C083F090EC28F0AB
:1011E80080C0A4F081C0A5F082C0A6F083C0A7F09B
:1011F800D8EF0AF0A4C046F0A5C047F0A6C048F052
:10120800A7C049F0DB0E4A6E0F0E4B6EC90E4C6E2E
:10121800BF0E4D6ED9EC0AF046C0B2F047C0B3F02D
:1012280048C0B4F049C0B5F0B2C064F0B3C065F0CE
:10123800B4C066F0B5C067F085EC1BF064C0A4F0DC
:1012480065C0A5F066C0A6F067C0A7F0D8EF0AF0A1
:10125800B151D8A432EF09F034EF09F05AEF09F090
:10126800DB0E4A6E0F0E4B6E490E4C6EC00E4D6E65
:10127800A4C046F0A5C047F0A6C048F0A7C049F0F2
:10128800D9EC0AF046C080F047C081F048C082F02F
:1012980049C083F090EC28F080C0A8F081C0A9F084
:1012A80082C0AAF083C0ABF07EEF09F0DB0E4A6E75
:1012B8000F0E4B6E490E4C6E400E4D6EA4C046F09C
:1012C800A5C047F0A6C048F0A7C049F0D9EC0AF07D
:1012D80046C080F047C081F048C082F049C083F022
:1012E80090EC28F080C0A8F081C0A9F082C0AAF0D4
:1012F80083C0ABF0A8C064F0A9C065F0AAC066F0CE
:10130800ABC067F058EC18F064C0A4F065C0A5F055
:1013180066C0A6F067C0A7F0D8EF0AF0D60EBA5D8F
:10132800310EBB59E20EBC59400EBD59D8B09FEFE3
:1013380009F0A1EF09F042EF0AF0E00EBA5DED0EF8
:10134800BB59AF0EBC59400EBD59D8B0AEEF09F02D
:10135800B0EF09F0F0EF09F0B151D8B4B6EF09F0E9
:10136800B8EF09F0D4EF09F0A4C046F0A5C047F0E3
:10137800A6C048F0A7C049F0E40E4A6ECB0E4B6EEB
:10138800960E4C6E400E4D6ED9EC0AF046C0B2F087
:1013980047C0B3F048C0B4F049C0B5F018EF09F041
:1013A800E40E4A6ECB0E4B6E960E4C6EC00E4D6E12
:1013B800A4C046F0A5C047F0A6C048F0A7C049F0B1
:1013C800D9EC0AF046C0B2F047C0B3F048C0B4F058
:1013D80049C0B5F0E0EF08F0B151D8A4F6EF09F034
:1013E800F8EF09F014EF0AF0A4C046F0A5C047F0E2
:1013F800A6C048F0A7C049F0DB0E4A6E0F0E4B6E30
:10140800C90E4C6EC00E4D6ED9EC0AF046C0ACF059
:1014180047C0ADF048C0AEF049C0AFF02EEF0AF0BB
:10142800A4C046F0A5C047F0A6C048F0A7C049F040
:10143800DB0E4A6E0F0E4B6EC90E4C6E400E4D6E93
:10144800D9EC0AF046C0ACF047C0ADF048C0AEF0E9
:1014580049C0AFF0ACC064F0ADC065F0AEC066F096
:10146800AFC067F058EC18F064C0A4F065C0A5F0F0
:1014780066C0A6F067C0A7F0D8EF0AF0800EBC5D82
:101488007F0EBD59D8A04BEF0AF04DEF0AF05FEF81
:101498000AF0FF0EBA13FF0EBB13FF0EBC13000EAB
:1014A800BD13BAC0A4F0BBC0A5F0BCC0A6F0BDC0B7
:1014B800A7F0D8EF0AF0A4C084F0A5C085F0A6C0B4
:1014C80086F0A7C087F0B60E886F36EC13F00001DF
:1014D8008451030BB06FC9EF0AF0B6C080F0B7C0F3
:1014E80081F0B8C082F0B9C083F090EC28F080C0D9
:1014F800B6F081C0B7F082C0B8F083C0B9F0B6C00A
:1015080064F0B7C065F0B8C066F0B9C067F058ECD1
:1015180018F064C0A4F065C0A5F066C0A6F067C066
:10152800A7F0D8EF0AF0B6C064F0B7C065F0B8C04D
:1015380066F0B9C067F085EC1BF064C0A4F065C024
:10154800A5F066C0A6F067C0A7F0D8EF0AF0B6C04D
:1015580064F0B7C065F0B8C066F0B9C067F085EC54
:101568001BF064C080F065C081F066C082F067C07F
:1015780083F090EC28F080C0A4F081C0A5F082C070
:10158800A6F083C0A7F0D8EF0AF0B051000AD8B48B
:1015980083EF0AF0010AD8B497EF0AF0030AD8B427
:1015A80071EF0AF0ABEF0AF012004950800B00010E
:1015B800606F49504924626F48AEE5EF0AF0E7EFE3
:1015C8000AF0E8EF0AF062816251D8B4EEEF0AF04F
:1015D800F0EF0AF005EF0BF06229D8A4F6EF0AF055
:1015E800F8EF0AF000EF0BF0000E466E000E476EA3
:1015F800000E486E000E496E488E000E496E0DEFC3
:101608000BF0000E466E000E476E000E486E000E80
:10161800496E4D50800B616F60516119D8B417EF56
:101628000BF019EF0BF01AEF0BF0608D4D504D24B5
:10163800616F4CAE22EF0BF024EF0BF025EF0BF0AF
:1016480061816151D8B42BEF0BF02DEF0BF042EF15
:101658000BF06129D8A433EF0BF035EF0BF03DEF19
:101668000BF0000E4A6E000E4B6E000E4C6E000E14
:101678004D6E4C8E000E4D6E4AEF0BF0000E4A6E0A
:10168800000E4B6E000E4C6E000E4D6E6251615D89
:10169800D8B051EF0BF053EF0BF07AEF0BF060ADD1
:1016A80058EF0BF05AEF0BF05CEF0BF0800E601B5D
:1016B80062C063F061C062F063C061F046C063F06D
:1016C8004AC046F063C04AF047C063F04BC047F0D9
:1016D80063C04BF048C063F04CC048F063C04CF0A6
:1016E80049C063F04DC049F063C04DF0000E636F10
:1016F800625161C04EF04F6A4E5E000E4F5A4FBEA7
:101708008FEF0BF04F5009E11A0E4E5CD8A08FEF07
:101718000BF091EF0BF0C8EF0BF046504710481054
:101728004910D8A49AEF0BF09DEF0BF0010E9EEF35
:101738000BF0000E636F000E466E000E476E000E33
:10174800486E000E496E61C062F0D1EF0BF063A1E4
:10175800B0EF0BF0B2EF0BF0B8EF0BF0D8906331AD
:101768000109636FBAEF0BF0D890633346A0BFEF5F
:101778000BF0C1EF0BF0C2EF0BF0638F4934493225
:10178800483247324632622B6151625DD8A0CFEFB2
:101798000BF0D1EF0BF0ABEF0BF060BDD6EF0BF019
:1017A800D8EF0BF018EF0CF06251D8A4DEEF0BF075
:1017B800E0EF0BF0EAEF0BF0000E466E000E476EFE
:1017C800000E486E000E496E39EF0DF04A5046265D
:1017D8004B5047224C5048224D50492249A0F7EF20
:1017E8000BF0F9EF0BF0A5EF0CF063A1FEEF0BF097
:1017F80000EF0CF006EF0CF0D89063310109636F2D
:1018080008EF0CF0D890633346A00DEF0CF00FEF03
:101818000CF010EF0CF0638F4934493248324732EC
:101828004632622BA5EF0CF04A50465C4B504758A5
:101838004C5048584950800A4E6E4D50800A4E58B8
:10184800D8B029EF0CF02BEF0CF056EF0CF0465007
:101858004A5C4E6E47504B584F6E48504C58506E2D
:1018680049504D58516EFF0E4E24466EFF0E4F20C4
:10187800476EFF0E5020486EFF0E5120496E800EB5
:10188800601B636D6351D8A44CEF0CF04EEF0CF065
:101898005EEF0CF0010E4626000E47224822492230
:1018A8005EEF0CF04A50465E4B50475A4C50485A2F
:1018B8004D50495A4650471048104910D8A467EF70
:1018C8000CF069EF0CF09EEF0CF06351D8A46FEFA9
:1018D8000CF071EF0CF09EEF0CF0000E466E000E4F
:1018E800476E000E486E000E496E39EF0DF0D89025
:1018F800463647364836493663AF85EF0CF087EFF2
:101908000CF088EF0CF0468063A18DEF0CF08FEFA0
:101918000CF093EF0CF0D880633795EF0CF0D8906B
:1019280063376251D8B49BEF0CF09DEF0CF09EEF3B
:101938000CF0620748AEA3EF0CF0A5EF0CF07BEFBC
:101948000CF0000E616F63AFACEF0CF0AEEF0CF073
:10195800C6EF0CF063C04EF07F0E4E16D8B4B7EF4A
:101968000CF0B9EF0CF0BDEF0CF0010E616FC6EF93
:101978000CF046A0C2EF0CF0C4EF0CF0C6EF0CF070
:10198800B9EF0CF06151D8B4CCEF0CF0CEEF0CF0FD
:10199800F9EF0CF0010E4626000E47224822492294
:1019A80049A0D9EF0CF0DBEF0CF0F9EF0CF046C0D2
:1019B8004EF047C04FF048C050F049C051F0513484
:1019C800513250324F324E324EC046F04FC047F07F
:1019D80050C048F051C049F06229D8B4F6EF0CF075
:1019E800F8EF0CF0F9EF0CF0622B6229D8B4FFEF96
:1019F8000CF001EF0DF009EF0DF06251D8A407EFDC
:101A08000DF009EF0DF01BEF0DF0000E466E000E05
:101A1800476E000E486E000E496E6251D8A417EF4B
:101A28000DF019EF0DF01BEF0DF0000E606F62A1C5
:101A380020EF0DF022EF0DF025EF0DF0488E26EF88
:101A48000DF0489ED8906231496E60AF2EEF0DF0D0
:101A580030EF0DF031EF0DF0498E46C046F047C02B
:101A680047F048C048F049C049F012001750800BB1
:101A7800206E17501724266E16AE45EF0DF047EF6F
:101A88000DF048EF0DF026802650D8B44EEF0DF03B
:101A980050EF0DF063EF0DF02628D8A456EF0DF0A7
:101AA80058EF0DF060EF0DF0000E146E000E156E7D
:101AB800000E166E000E176E168E6BEF0DF0000EF0
:101AC800146E000E156E000E166E000E176E1B506B
:101AD800800B201A1B501B24216E1AAE76EF0DF0D6
:101AE80078EF0DF079EF0DF021802150D8B47FEF19
:101AF8000DF081EF0DF094EF0DF02128D8A487EFB9
:101B08000DF089EF0DF091EF0DF0000E186E000E3C
:101B1800196E000E1A6E000E1B6E1A8E9CEF0DF0D9
:101B2800000E186E000E196E000E1A6E000E1B6E57
:101B38002150D8B4A2EF0DF0A4EF0DF0ACEF0DF0EA
:101B48002650D8A4AAEF0DF0ACEF0DF0B6EF0DF0CB
:101B5800000E146E000E156E000E166E000E176E37
:101B68004EEF0FF01A501402F3CF2BF0F4CF2CF0F5
:101B78002B50226E236A246A256A2C50276E286A05
:101B8800296A2A6A19501502F3CF2BF0F4CF2CF0EA
:101B98002B502226000E2322242225222C502726D1
:101BA800000E282229222A2218501602F3CF2BF0E1
:101BB800F4CF2CF02B502226000E2322242225229B
:101BC8002C502726000E282229222A2224C025F05C
:101BD80023C024F022C023F0226A18501502F3CF44
:101BE8002BF0F4CF2CF02B5022262C502322000E61
:101BF8002422000E252219501402F3CF2BF0F4CF23
:101C08002CF02B5022262C502322000E2422000ECA
:101C1800252224C025F023C024F022C023F0226A04
:101C280018501402F3CF2BF0F4CF2CF02B502226AF
:101C38002C502322000E2422000E25221A501502B1
:101C4800F3CF2BF0F4CF2CF02B5027262C50282242
:101C5800000E2922000E2A2219501602F3CF2BF06B
:101C6800F4CF2CF02B5027262C502822000E2922A6
:101C7800000E2A221A501602F3CF2BF0F4CF2CF0C4
:101C88002B501C6E2C501D6E1E6A1F6A1EC01FF042
:101C98001DC01EF01CC01DF01C6A1C5027261D50BC
:101CA80028221E5029221F502A2222C01CF023C09D
:101CB8001DF024C01EF025C01FF0190E69EF0EF0AC
:101CC800D8901F321E321D321C32E82E64EF0EF0FF
:101CD8001C5027261D5028221E5029221F502A2218
:101CE80024C025F023C024F022C023F0226A21500A
:101CF80026C01CF01D6A1C26000E1D22820E1C2404
:101D08002B6EFF0E1D202C6E9FEF0EF0D8902736FD
:101D1800283629362A3625AE94EF0EF096EF0EF0C7
:101D280097EF0EF02780D8902236233624362536B2
:101D38002B06D8A02C0629AEA4EF0EF0A6EF0EF0C5
:101D48008AEF0EF0000E216E25AEADEF0EF0AFEF6C
:101D58000EF0D3EF0EF0FF0E22141C6EFF0E2314AC
:101D68001D6EFF0E24141E6E7F0E25141F6E1C5050
:101D78001D101E101F10D8B4C4EF0EF0C6EF0EF0E1
:101D8800CAEF0EF0010E216ED3EF0EF027A0CFEFB1
:101D98000EF0D1EF0EF0D3EF0EF0C6EF0EF021509B
:101DA800D8B4D9EF0EF0DBEF0EF0FFEF0EF0010E16
:101DB8002726000E282229222A222AA0E6EF0EF042
:101DC800E8EF0EF0FFEF0EF027C01CF028C01DF062
:101DD80029C01EF02AC01FF01F341F321E321D32C8
:101DE8001C321CC027F01DC028F01EC029F01FC0DF
:101DF8002AF02B4A2C2A2CBE0AEF0FF02C5008E1AF
:101E08002B28D8A00AEF0FF00CEF0FF016EF0FF009
:101E1800000E276E000E286E800E296E7F0E2A6E29
:101E280044EF0FF02CBE23EF0FF02C5006E12B04EB
:101E3800D8B021EF0FF023EF0FF02FEF0FF0000EC7
:101E4800276E000E286E000E296E000E2A6E000EF8
:101E5800206E44EF0FF02BC026F0FF0E2716FF0E62
:101E680028167F0E2916000E2A1626A03EEF0FF020
:101E780040EF0FF041EF0FF0298ED89026302A6EF0
:101E880020502A1227C014F028C015F029C016F0D7
:101E98002AC017F012009594959694989598959A5B
:101EA800959C0F013B953B973A993B993B9B3B9DF2
:101EB8008C848C868B888C888C8A8C8C92843895C0
:101EC800388BC08EC050F80B0609C06EC050C70BC7
:101ED8003009C06EC28021EE9BF0100EDE6AE80663
:101EE800FDE23F0ECD16300ECD129D80F28CF28EA3
:101EF800010E0101246F9E800B0ECF6EDC0ECE6E9C
:101F0800CD80000E236F010EC76F21EEACF0180EC6
:101F1800DE6AE806FDE29AEC26F012C018F013C05B
:101F280019F0000E1B6E210E1A6E52EC24F0020EF0
:101F380018240101CB6F000E1920CC6FAC0E0001E4
:101F4800CE6F010ECF6F330ED06FFE0ED16FCBC1A7
:101F5800D2F0CCC1D3F02CEC28F0AC0E076E010EF9
:101F6800086E010EB4EC24F0010E0101C56F36EFC6
:101F780011F0C250830B1009C26EC282C2B2C7EF01
:101F88000FF0C9EF0FF0C2EF0FF0C350C4CFE7F066
:101F98000001E86BE7C0E8F0E76BE7110101C96FE2
:101FA8000001E8510101CA6F9B0E0001CE6F010EBE
:101FB800CF6F6B0ED06FFE0ED16FC9C1D2F0CAC100
:101FC800D3F02CEC28F09B0E076E010E086E020E63
:101FD800B4EC24F004EF10F01A0EC86F18EF10F0EC
:101FE800180EC86F18EF10F0120EC86F18EF10F027
:101FF800100EC86F18EF10F00F0EC86F18EF10F022
:102008000101C751010AD8B4F0EF0FF0030AD8B4A0
:10201800F4EF0FF0010AD8B4F8EF0FF0070AD8B4BC
:10202800FCEF0FF000EF10F0C8C106F0235138ECB8
:1020380027F00101C66F80A424EF10F026EF10F0FE
:1020480012EF11F0030E0001E86F080EE76F770E2C
:10205800E82EFED7E72FFCD7E82FFAD780A437EF72
:1020680010F039EF10F012EF11F080B43EEF10F0DD
:1020780040EF10F039EF10F0070E0101C66F12EFB4
:1020880011F08C848C868B888C888C8A8C8C36EFAB
:1020980011F08C948C868B888C888C8A8C8C36EF8B
:1020A80011F08C948C968B888C888C8A8C8C36EF6B
:1020B80011F08C948C968B988C888C8A8C8C36EF4B
:1020C80011F08C948C968B988C988C8A8C8C36EF2B
:1020D80011F08C948C968B988C988C9A8C8C36EF0B
:1020E80011F08C948C968B988C988C9A8C9C36EFEB
:1020F80011F0000E236FFE0ECB250001E76FFF0ED7
:102108000101CC210001E86FE7510101C95D00011F
:10211800E8510101CA59D8A094EF10F096EF10F0D9
:10212800DEEF10F0020ECB250001E76F000E010173
:10213800CC210001E86F0101C9510001E75D0101EF
:10214800CA510001E859D8A0ACEF10F0AEEF10F07A
:10215800DEEF10F00101C72B9AEC26F012C018F040
:1021680013C019F0000E1B6E210E1A6E52EC24F0EB
:10217800020E18240101CB6F000E1920CC6FAC0E93
:102188000001CE6F010ECF6F330ED06FFE0ED16FF0
:10219800CBC1D2F0CCC1D3F02CEC28F0010E010158
:1021A800C56FAC0E076E010E086E010EB4EC24F07C
:1021B80036EF11F0C290AC0E0001CE6F010ECF6F5A
:1021C800590ED06FFE0ED16FFF0E0101C725000119
:1021D800D26FD36BFF0ED3232CEC28F07C0E076E46
:1021E800FE0E086E010EB4EC24F0AC0E076E010E64
:1021F800086E020EB4EC24F0000E0101C56F520EF9
:102208000001E86F2B0EE76F000EE82EFED7E72FD0
:10221800FCD7E82FFAD7000036EF11F00101C651BC
:10222800000AD8B445EF10F0010AD8B44DEF10F009
:10223800030AD8B455EF10F0010AD8B45DEF10F0D6
:10224800070AD8B465EF10F0010AD8B46DEF10F0A2
:10225800030AD8B475EF10F0010AD8B47DEF10F076
:1022680036EF11F00101C551D8A43DEF11F03FEF51
:1022780011F0BDEF0FF08C848C868B888C888C8A4B
:102288008C8CCD909D90000E246F1200050E0001DD
:10229800FB6F0F0EFA6FF10EE82EFED7FA2FFCD760
:1022A800FB2FFAD794809288928692840F013897F0
:1022B80038959594959694989598959A959C8C842C
:1022C8008C868B888C888C8A8C8C80EC23F0000E12
:1022D8000001FD6F000EFC6FC00E076EFE0E086E4B
:1022E800010EB4EC24F0260E076EFF0E086E020EE7
:1022F800B4EC24F0520E0001FB6F2B0EFA6F000EA7
:10230800E82EFED7FA2FFCD7FB2FFAD70000000ED5
:102318000001E76FFD51FAEC20F00001FD6F82A08B
:1023280098EF11F09AEF11F0BCEF11F0030E0001D5
:10233800FB6F080EFA6F770EE82EFED7FA2FFCD740
:10234800FB2FFAD782A0ABEF11F0ADEF11F0BCEF85
:1023580011F0020E0001E76FFD51FAEC20F00001C8
:10236800FD6F82B0BAEF11F0BCEF11F0B5EF11F0CC
:1023780080A8C1EF11F0C3EF11F0E5EF11F0030EE3
:102388000001FB6F080EFA6F770EE82EFED7FA2FC2
:10239800FCD7FB2FFAD780A8D4EF11F0D6EF11F0B5
:1023A800E5EF11F0010E0001E76FFD51FAEC20F0A6
:1023B8000001FD6F80B8E3EF11F0E5EF11F0DEEFFB
:1023C80011F080A6EAEF11F0ECEF11F01FEF13F017
:1023D800030E0001FB6F080EFA6F770EE82EFED78A
:1023E800FA2FFCD7FB2FFAD780A6FDEF11F0FFEFED
:1023F80011F01FEF13F080B604EF12F006EF12F0A1
:10240800FFEF11F0FFEF12F0150E076EFF0E086ECA
:10241800010EB4EC24F0350E076EFE0E086E020EA7
:10242800B4EC24F0A1EC1FF0010E0001FC6F1FEFCB
:1024380013F0AF0E076EFE0E086E010EB4EC24F01A
:102448008C0E076EFF0E086E020EB4EC24F0EBEC57
:102458001EF018EF12F0480E076EFF0E086E010E00
:10246800B4EC24F0350E076EFE0E086E020EB4ECC6
:1024780024F057EC20F018EF12F07B0E076EFF0ED9
:10248800086E010EB4EC24F07CEC1AF018EF12F090
:102498006A0E076EFF0E086E010EB4EC24F09D0E56
:1024A800076EFF0E086E020EB4EC24F0E4EC16F092
:1024B80018EF12F0370E076EFF0E086E010EB4EC1F
:1024C80024F0350E076EFE0E086E020EB4EC24F0F2
:1024D800290E0001FB6F960EFA6F7F0EE82EFED7CD
:1024E800FA2FFCD7FB2FFAD7040E076EFF0E086EE3
:1024F800010EB4EC24F08D0E076EFE0E086E020E6F
:10250800B4EC24F0520E0001FB6F2B0EFA6F000E94
:10251800E82EFED7FA2FFCD7FB2FFAD70000E20EE1
:10252800076EFE0E086E010EB4EC24F0F30E076E73
:10253800FE0E086E020EB4EC24F0520E0001FB6F82
:102548002B0EFA6F000EE82EFED7FA2FFCD7FB2FC2
:10255800FAD70000D10E076EFE0E086E010EB4EC1D
:1025680024F0350E076EFE0E086E020EB4EC24F051
:10257800290E0001FB6F960EFA6F7F0EE82EFED72C
:10258800FA2FFCD7FB2FFAD7AE0E076EFF0E086E98
:10259800020EB4EC24F0520E0001FB6F2B0EFA6F02
:1025A800000EE82EFED7FA2FFCD7FB2FFAD7000033
:1025B8004FEC0FF018EF12F09E0E076EFE0E086E2D
:1025C800010EB4EC24F0590E076EFF0E086E020ED1
:1025D800B4EC24F0520E0001FB6F2B0EFA6F000EC4
:1025E800E82EFED7FA2FFCD7FB2FFAD70000B2EC63
:1025F80029F018EF12F00001FD51000AD8B408EFD5
:1026080012F0010AD8B41DEF12F0030AD8B42FEF64
:1026180012F0010AD8B441EF12F0070AD8B44CEF0F
:1026280012F0010AD8B45EEF12F0030AD8B4E0EF52
:1026380012F01FEF13F080500001FC51D8B427EFBF
:1026480013F029EF13F093EF11F0000EE76FFD512F
:10265800FAEC20F00001FD6F000EFC6F93EF11F013
:10266800A7EF00F015C194F016C195F017C196F0C8
:1026780018C197F084C094F085C095F086C096F094
:1026880087C097F0000197BF4CEF13F04FEF13F09E
:10269800010E50EF13F0000E936F979FDB0E945DC1
:1026A8000F0E9559C90E96594D0E9759D8B05FEF30
:1026B80013F061EF13F04DEF14F084C006F085C0FD
:1026C80007F086C008F087C009F0FFEC28F006C0C4
:1026D8009CF007C09DF008C09EF009C09FF0000E56
:1026E8004A6E000E4B6E000E4C6E3F0E4D6E830E02
:1026F800186EF90E196E220E1A6E3F0E1B6E9CC0D4
:1027080014F09DC015F09EC016F09FC017F03AEC6B
:102718000DF014C046F015C047F016C048F017C0B9
:1027280049F0D9EC0AF046C064F047C065F048C0EB
:1027380066F049C067F083EC21F064C0A0F065C082
:10274800A1F066C0A2F067C0A3F0A0C006F0A1C0C7
:1027580007F0A2C008F0A3C009F0010E84EC1CF039
:1027680006C098F007C099F008C09AF009C09BF01D
:10277800DA0E186E0F0E196EC90E1A6E3F0E1B6E0A
:1027880098C014F099C015F09AC016F09BC017F0C5
:102798003AEC0DF014C068F015C069F016C06AF084
:1027A80017C06BF09CC064F09DC065F09EC066F0D9
:1027B8009FC067F008EC28F064C08FF065C090F007
:1027C80066C091F067C092F08FC064F090C065F069
:1027D80091C066F092C067F0A30E186E850E196E50
:1027E800880E1A6E320E1B6E98C014F099C015F040
:1027F8009AC016F09BC017F03AEC0DF014C068F0C0
:1028080015C069F016C06AF017C06BF008EC28F024
:1028180000018851D96EDA6A64C0DEFF65C0DEFF48
:1028280066C0DEFF67C0DEFF9351D8B41EEF14F018
:1028380020EF14F047EF14F08851D96EDA6ADECF32
:1028480080F0DECF81F0DECF82F0DECF83F090EC37
:1028580028F000018851D96EDA6A80C0DEFF81C095
:10286800DEFF82C0DEFF83C0DEFFA0C089F0A1C00A
:102878008AF0891F8A1F894B8A2B89C084F08AC0F5
:1028880085F016EF15F0A0C084F0A1C085F016EF12
:1028980015F084C006F085C007F086C008F087C030
:1028A80009F0FFEC28F006C09CF007C09DF008C0B6
:1028B8009EF009C09FF0000E4A6E000E4B6E000E8F
:1028C8004C6E3F0E4D6E830E186EF90E196E220E69
:1028D8001A6E3F0E1B6E9CC014F09DC015F09EC072
:1028E80016F09FC017F03AEC0DF014C046F015C072
:1028F80047F016C048F017C049F0D9EC0AF046C0B6
:1029080064F047C065F048C066F049C067F083ECE2
:1029180021F064C0A0F065C0A1F066C0A2F067C055
:10292800A3F0A0C006F0A1C007F0A2C008F0A3C0A1
:1029380009F0010E84EC1CF006C098F007C099F06D
:1029480008C09AF009C09BF0DA0E186E0F0E196EC7
:10295800C90E1A6E3F0E1B6E98C014F099C015F080
:102968009AC016F09BC017F03AEC0DF014C068F04E
:1029780015C069F016C06AF017C06BF09CC064F00F
:102988009DC065F09EC066F09FC067F008EC28F017
:1029980064C08FF065C090F066C091F067C092F097
:1029A8008FC064F090C065F091C066F092C067F087
:1029B800A30E186E850E196E880E1A6E320E1B6ED7
:1029C80098C014F099C015F09AC016F09BC017F083
:1029D8003AEC0DF014C068F015C069F016C06AF042
:1029E80017C06BF008EC28F064C08BF065C08CF061
:1029F80066C08DF067C08EF000018851D96EDA6A22
:102A08008BC0DEFF8CC0DEFF8DC0DEFF8EC0DEFF18
:102A18009351D8B412EF15F014EF15F047EF14F0F6
:102A280020EF14F012003050800B3D6E30503024EF
:102A3800446E2FAE22EF15F024EF15F025EF15F0B8
:102A480044804450D8B42BEF15F02DEF15F042EF29
:102A580015F04428D8A433EF15F035EF15F03DEF05
:102A680015F0000E2D6E000E2E6E000E2F6E000E4D
:102A7800306E2F8E000E306E4AEF15F0000E2D6E60
:102A8800000E2E6E000E2F6E000E306E3450800B2E
:102A98003D1A34503424456E33AE55EF15F057EFD8
:102AA80015F058EF15F045804550D8B45EEF15F095
:102AB80060EF15F075EF15F04528D8A466EF15F00E
:102AC80068EF15F070EF15F0000E316E000E326EE3
:102AD800000E336E000E346E338E000E346E7DEFB2
:102AE80015F0000E316E000E326E000E336E000EC1
:102AF800346E3150321033103410D8A486EF15F0EC
:102B080088EF15F0A0EF15F0000E2D6E000E2E6E5A
:102B1800000E2F6E000E306E800E2F127F0E3012B8
:102B28003D5030122DC02DF02EC02EF02FC02FF0AA
:102B380030C030F0E3EF16F04450D8A4A6EF15F0FB
:102B4800A8EF15F0B2EF15F0000E2D6E000E2E6EE8
:102B5800000E2F6E000E306EE3EF16F0455044C0A5
:102B680035F0366A355E000E365A7F0E35243E6ED5
:102B7800000E36203F6E2DC039F02EC03AF02FC01F
:102B88003BF030C03CF0000E2D6E000E2E6E000E95
:102B98002F6E000E306E000E406E000E416E000E5D
:102BA800426E000E436E000E456E13EF16F0455050
:102BB800D8B4E1EF15F0E3EF15F0FAEF15F0D8907F
:102BC80039363A363B363C36D8902D362E362F36A7
:102BD800303643AEF2EF15F0F4EF15F0F5EF15F0DF
:102BE8002D80D89040364136423643363150395CD4
:102BF80032503A5833503B5834503C58D8A007EF1D
:102C080016F009EF16F012EF16F0438C3150395ECA
:102C180032503A5A33503B5A34503C5A452A190ECE
:102C2800456419EF16F01BEF16F0DBEF15F039507D
:102C38003A103B103C10D8B424EF16F026EF16F0EB
:102C48003EEF16F040803EEF16F0D8902D362E3627
:102C58002F36303643AE33EF16F035EF16F036EF39
:102C680016F02D80D89040364136423643363E061F
:102C7800D8A03F062FAE43EF16F045EF16F029EF28
:102C880016F0000E456E43AE4CEF16F04EEF16F000
:102C980072EF16F0FF0E4014356EFF0E4114366EBB
:102CA800FF0E4214376E7F0E4314386E35503610BF
:102CB80037103810D8B463EF16F065EF16F069EFE7
:102CC80016F0010E456E72EF16F02DA06EEF16F09D
:102CD80070EF16F072EF16F065EF16F04550D8B4A5
:102CE80078EF16F07AEF16F09EEF16F0010E2D260B
:102CF800000E2E222F22302230A085EF16F087EF0B
:102D080016F09EEF16F02DC035F02EC036F02FC00D
:102D180037F030C038F0383438323732363235325E
:102D280035C02DF036C02EF037C02FF038C030F047
:102D38003E4A3F2A3FBEA9EF16F03F5008E13E2821
:102D4800D8A0A9EF16F0ABEF16F0B6EF16F0000E0C
:102D58003F6E3E68000E2D6E000E2E6E000E2F6E1A
:102D6800000E306E3FBEC3EF16F03F5006E13E0442
:102D7800D8B0C1EF16F0C3EF16F0D1EF16F0000E81
:102D88003F6E000E3E6E000E2D6E000E2E6E000E73
:102D98002F6E000E306E000E3D6E3EC044F044A013
:102DA800D8EF16F0DAEF16F0DDEF16F02F8EDEEF23
:102DB80016F02F9ED8904430306E94EF15F0120024
:102DC80094809288928692840F01389738959396CA
:102DD8009496949AC650F00B0209C66EC698C78C92
:102DE800C68A3981C09EC050F80B0609C06EC05013
:102DF800C70B3009C06EC280190EAF6EAB8EAC988F
:102E0800AC8AAB888A86C250830B3009C26E010E29
:102E18000001DC6F010EDB6F000EDD6F4EEF18F066
:102E28007F0EDD611AEF17F01CEF17F044EF17F073
:102E3800330E186E330E196EF30E1A6E3F0E1B6E9C
:102E4800DD51066E076A086A096A010E84EC1CF0F7
:102E580006C014F007C015F008C016F009C017F036
:102E68003AEC0DF014C064F015C065F016C066F0B9
:102E780017C067F083EC21F00001645171EC28F071
:102E88007E0E0001DD654BEF17F04DEF17F009EFEF
:102E980018F0330E186E330E196EF30E1A6E3F0EBD
:102EA8001B6EDD51FF0AD26FD251066E076A086A9F
:102EB800096A010E84EC1CF006C014F007C015F076
:102EC80008C016F009C017F03AEC0DF014C064F011
:102ED80015C065F016C066F017C067F083EC21F0E6
:102EE8000001645171EC28F009EF18F0000E316E02
:102EF800000E326E7F0E336E430E346EC30E186EA4
:102F0800F50E196EC80E1A6E400E1B6EDD51066E58
:102F1800076A086A096A010E84EC1CF006C014F0FE
:102F280007C015F008C016F009C017F03AEC0DF00C
:102F380014C02DF015C02EF016C02FF017C030F0B9
:102F480017EC15F02DC0D3F02EC0D4F02FC0D5F05B
:102F580030C0D6F0D3C0A4F0D4C0A5F0D5C0A6F038
:102F6800D6C0A7F054EC08F0A4C0D7F0A5C0D8F09C
:102F7800A6C0D9F0A7C0DAF0000E4A6E000E4B6E5C
:102F8800FE0E4C6E420E4D6E000E186E000E196E3F
:102F9800FE0E1A6E420E1B6ED7C014F0D8C015F084
:102FA800D9C016F0DAC017F03AEC0DF014C046F0AC
:102FB80015C047F016C048F017C049F0D9EC0AF020
:102FC80046C064F047C065F048C066F049C067F085
:102FD80083EC21F00001645171EC28F009EF18F03E
:102FE800DD51FF0A71EC28F009EF18F0DC51010AF5
:102FF800D8B414EF17F0030AD8B47AEF17F0010A1F
:10300800D8B4F4EF17F009EF18F0C282C2B20FEF8C
:1030180018F011EF18F00AEF18F0E60E0001CE6F65
:10302800FF0ECF6FC4CFD0F0D16B6DEC29F082A02A
:1030380020EF18F022EF18F025EF18F0010E00012C
:10304800DC6F80A82AEF18F02CEF18F02FEF18F09B
:10305800020E0001DC6F80A634EF18F036EF18F08E
:1030680039EF18F0030E0001DC6F80A43EEF18F072
:1030780040EF18F043EF18F0000E0001DB6F00017D
:10308800DD2B680E0001D26FE40EE82EFED7D22F9A
:10309800FCD700000001DB51D8A455EF18F057EF1A
:1030A80018F0FAEF17F0120064C014F065C015F0BC
:1030B80066C016F067C017F064C018F065C019F054
:1030C80066C01AF067C01BF03AEC0DF014C080F02F
:1030D80015C081F016C082F017C083F080C014F0CC
:1030E80081C015F082C016F083C017F080C018F0B8
:1030F80081C019F082C01AF083C01BF03AEC0DF0C1
:1031080014C06CF015C06DF016C06EF017C06FF0EB
:103118003C0E186E6C0E196E360E1A6E360E1B6E3D
:1031280080C014F081C015F082C016F083C017F07B
:103138003AEC0DF014C046F015C047F016C048F040
:1031480017C049F0CF0E4A6E070E4B6E500E4C6EEC
:10315800B90E4D6ED9EC0AF046C068F047C069F068
:1031680048C06AF049C06BF080C014F081C015F007
:1031780082C016F083C017F064C018F065C019F05B
:1031880066C01AF067C01BF03AEC0DF014C07CF072
:1031980015C07DF016C07EF017C07FF0AB0E4A6EEA
:1031A800AA0E4B6E2A0E4C6EBE0E4D6E840E186E15
:1031B800880E196E080E1A6E3C0E1B6E80C014F035
:1031C80081C015F082C016F083C017F03AEC0DF0FC
:1031D80014C046F015C047F016C048F017C049F0B3
:1031E800D9EC0AF046C070F047C071F048C072F0E0
:1031F80049C073F06CC018F06DC019F06EC01AF0B9
:103208006FC01BF07CC014F07DC015F07EC016F0B6
:103218007FC017F03AEC0DF014C074F015C075F0CB
:1032280016C076F017C077F064C04AF065C04BF05E
:1032380066C04CF067C04DF07CC018F07DC019F036
:103248007EC01AF07FC01BF070C014F071C015F07A
:1032580072C016F073C017F03AEC0DF014C046F0C7
:1032680015C047F016C048F017C049F0D9EC0AF06D
:1032780046C078F047C079F048C07AF049C07BF082
:1032880078C046F079C047F07AC048F07BC049F072
:1032980068C018F069C019F06AC01AF06BC01BF05A
:1032A80074C014F075C015F076C016F077C017F02A
:1032B8003AEC0DF014C04AF015C04BF016C04CF0B3
:1032C80017C04DF0D9EC0AF046C064F047C065F06D
:1032D80048C066F049C067F0120019C166F01AC10B
:1032E80067F01BC168F01CC169F046C066F047C0B2
:1032F80067F048C068F049C069F0810E4A6EFF0E59
:103308004B6E66C04CF067C04DF068C04EF069C0A7
:103318004FF0180E95EF19F0D8904F324E324D32CB
:103328004C32E82E90EF19F04C504A240001646F9B
:10333800000E4B20656F65BFABEF19F0655109E1D1
:10334800170E645DD8A0ABEF19F0ADEF19F0B7EF29
:1033580019F046C046F047C047F048C048F049C099
:1033680049F07BEF1AF065BFBCEF19F0BEEF19F01A
:103378002FEF1AF064C04AF0FF0E4B6EFF0E4C6E32
:103388007F0E4D6E000E4E6E4A66CDEF19F0D5EFEA
:1033980019F04E344E324D324C324B324A2EC8EF71
:1033A80019F04BC060F04CC061F04DC062F04EC0E7
:1033B80063F00001605166154A6E615167154B6EE6
:1033C800625168154C6E635169154D6E4A504B1029
:1033D8004C104D10D8A4F3EF19F0F5EF19F0F7EFF2
:1033E80019F0ADEF19F066C04AF067C04BF068C03D
:1033F8004CF069C04DF0200E07EF1AF0D8904D320E
:103408004C324B324A32E82E02EF1AF04A504B1037
:103418004C104D10D8B413EF1AF015EF1AF01DEF39
:103428001AF060516627615167236251682363511E
:103438006923601D4A6E611D4B6E621D4C6E631DD3
:103448004D6E4A5066174B5067174C5068174D50D1
:10345800691773EF1AF066C04AF067C04BF068C08E
:103468004CF069C04DF0200E3FEF1AF0D8904D3265
:103478004C324B324A32E82E3AEF1AF04A504B108F
:103488004C104D10D8A44BEF1AF04DEF1AF057EF2F
:103498001AF0000E666F000E676F000E686F000E60
:1034A800696F73EF1AF0D89066354A6E67354B6EC0
:1034B80068354C6E69354D6E4A504B104C104D10A6
:1034C800D8B469EF1AF06BEF1AF073EF1AF0000E28
:1034D800666F000E676F800E686FBF0E696F66C0FB
:1034E80046F067C047F068C048F069C049F012006C
:1034F8000F01388B3C81C08EC050F80B0609C06E96
:10350800C050C70B3009C06EC28021EE9BF0100E70
:10351800DE6AE806FDE2010E0101B86F7AEF1BF0E2
:10352800C250830B1409C26EC282C2B29EEF1AF057
:10353800A0EF1AF099EF1AF0C350C4CFE7F00001DA
:10354800E86BE7C0E8F0E76BE7110101B46F000131
:10355800E8510101B56F000E316EC00E326E7F0E5C
:10356800336E440E346EB4C106F0B5C107F0086A74
:10357800096A000E84EC1CF006C02DF007C02EF07E
:1035880008C02FF009C030F017EC15F02DC014F06A
:103598002EC015F02FC016F030C017F0330E186E7D
:1035A800330E196E530E1A6E400E1B6E3AEC0DF068
:1035B80014C0ACF115C0ADF116C0AEF117C0AFF133
:1035C800C250830B1009C26EC282C2B2EEEF1AF06B
:1035D800F0EF1AF0E9EF1AF0C350C4CFE7F000019A
:1035E800E86BE7C0E8F0E76BE7110101B66F00018F
:1035F800E8510101B76F000E316EC00E326E7F0EBA
:10360800336E440E346EB6C106F0B7C107F0086ACF
:10361800096A000E84EC1CF006C02DF007C02EF0DD
:1036280008C02FF009C030F017EC15F02DC014F0C9
:103638002EC015F02FC016F030C017F0330E186EDC
:10364800330E196E530E1A6E400E1B6E3AEC0DF0C7
:1036580014C0B0F115C0B1F116C0B2F117C0B3F182
:103668009B0E0001CE6F010ECF6F460ED06FFE0E7F
:10367800D16FACC1D2F0ADC1D3F0AEC1D4F0AFC1FF
:10368800D5F0B0C1D6F0B1C1D7F0B2C1D8F0B3C14E
:10369800D9F02CEC28F09B0E076E010E086E020E76
:1036A800B4EC24F080A45BEF1BF05DEF1BF07AEF25
:1036B8001BF0030E0001E86F080EE76F770EE82E87
:1036C800FED7E72FFCD7E82FFAD780A46EEF1BF0C0
:1036D80070EF1BF07AEF1BF080B475EF1BF077EFFB
:1036E8001BF070EF1BF0000E0101B86F0101B8511B
:1036F800D8A481EF1BF083EF1BF094EF1AF0C2906F
:10370800120064C014F065C015F066C016F067C0FA
:1037180017F064C018F065C019F066C01AF067C0E9
:103728001BF03AEC0DF014C07CF015C07DF016C00B
:103738007EF017C07FF07CC014F07DC015F07EC00D
:1037480016F07FC017F07CC018F07DC019F07EC05D
:103758001AF07FC01BF03AEC0DF014C078F015C0D9
:1037680079F016C07AF017C07BF0170E186E9A0E13
:10377800196ECC0E1A6E370E1B6E7CC014F07DC00D
:1037880015F07EC016F07FC017F03AEC0DF014C0AB
:1037980046F015C047F016C048F017C049F03F0E74
:1037A8004A6E040E4B6EB60E4C6EBA0E4D6ED9ECC8
:1037B8000AF046C068F047C069F048C06AF049C0DE
:1037C8006BF0000E4A6E000E4B6E800E4C6E3F0E74
:1037D8004D6E000E186E000E196E000E1A6EBF0E9A
:1037E8001B6E7CC014F07DC015F07EC016F07FC043
:1037F80017F03AEC0DF014C046F015C047F016C0AB
:1038080048F017C049F0D9EC0AF046C06CF047C040
:103818006DF048C06EF049C06FF07CC018F07DC0F4
:1038280019F07EC01AF07FC01BF078C014F079C080
:1038380015F07AC016F07BC017F03AEC0DF014C002
:1038480070F015C071F016C072F017C073F09F0EBB
:10385800186EAA0E196E2A0E1A6E3D0E1B6E78C0CF
:1038680014F079C015F07AC016F07BC017F03AEC66
:103878000DF014C04AF015C04BF016C04CF017C03C
:103888004DF06CC046F06DC047F06EC048F06FC098
:1038980049F0D9EC0AF046C074F047C075F048C04A
:1038A80076F049C077F074C046F075C047F076C02E
:1038B80048F077C049F068C018F069C019F06AC0CC
:1038C8001AF06BC01BF070C014F071C015F072C014
:1038D80016F073C017F03AEC0DF014C04AF015C09A
:1038E8004BF016C04CF017C04DF0D9EC0AF046C0AA
:1038F80064F047C065F048C066F049C067F0120040
:103908000E6E0E50D8B48BEF1CF08DEF1CF0AFEF9D
:103918001CF009BE94EF1CF092EF1CF0AFEF1CF006
:1039280006C00AF007C00BF008C00CF009C00DF083
:103938000A1E0B1E0C1E0D1E0A2A000E0B220C223C
:103948000D220AC010F00BC011F00CC012F00DC00F
:1039580013F0B7EF1CF006C010F007C011F008C054
:1039680012F009C013F00650071008100910D8A467
:10397800C0EF1CF0C2EF1CF0CCEF1CF0000E066E7E
:10398800000E076E000E086E000E096E5DEF1DF04A
:10399800960E0F6ED6EF1CF00F2AD8901332123203
:1039A80011321032000E10140A6E000E11140B6E34
:1039B800000E12140C6EFE0E13140D6E0A500B102E
:1039C8000C100D10D8A4EBEF1CF0EDEF1CF0D0EFAD
:1039D8001CF0FBEF1CF00F2A010E1026000E11221E
:1039E80012221322D8901332123211321032000EE2
:1039F80010140A6E000E11140B6E000E12140C6EC9
:103A0800FF0E13140D6E0A500B100C100D10D8A4D5
:103A180010EF1DF012EF1DF0EFEF1CF01AEF1DF084
:103A28000F06D890103611361236133612BE1FEF15
:103A38001DF021EF1DF029EF1DF0020E0F6027EF9A
:103A48001DF029EF1DF014EF1DF00FB02EEF1DF043
:103A580030EF1DF031EF1DF0129ED8900F320FC0DD
:103A68000AF00B6A0C6A0D6A0AC00DF00C6A0B6A40
:103A78000A6A0A5010120B5011120C5012120D50F3
:103A880013120E50D8B44BEF1DF04DEF1DF055EF4B
:103A98001DF009BE54EF1DF052EF1DF055EF1DF05B
:103AA800138E10C006F011C007F012C008F013C042
:103AB80009F0120012C01AF013C01BF01A501B10A4
:103AC800D8A469EF1DF06BEF1DF06FEF1DF0BF0E6E
:103AD8001A6EFF0E1B6E000E1D6E000E1C6E77EF29
:103AE8001DF01C4A1D2A1C501A24146E1D501B2040
:103AF800156E14C0F6FF15C0F7FF000EF86E0F0E16
:103B0800F76403D00800F55005D0F6CFE1FFF7CFF2
:103B1800E2FFE7500009D8A494EF1DF096EF1DF0DE
:103B280075EF1DF058BE9BEF1DF09DEF1DF0B0EF37
:103B38001DF01C50575C5850800A146E1D50800AA6
:103B48001458D8B0AAEF1DF0ACEF1DF0B0EF1DF07F
:103B580057C01CF058C01DF01CC016F01DC017F04F
:103B680055C018F056C019F059B0BDEF1DF0BFEFA1
:103B78001DF0FBEF1DF0CDEF1DF0000E086E200EBE
:103B8800076E10C009F011C00AF0EDEC23F01C4AD2
:103B98001D2A18501C5C1D50800A146E1950800A8A
:103BA8001458D8A0DAEF1DF0DCEF1DF0C1EF1DF0BE
:103BB800FBEF1DF01AC0F6FF1BC0F7FF000EF86EF2
:103BC8000F0EF76403D00800F55005D0F6CFE1FFDB
:103BD800F7CFE2FFE750146E1450076E086A10C062
:103BE80009F011C00AF0EDEC23F01A4A1B2A160658
:103BF800D8A01706162806E11728D8A406EF1EF045
:103C080008EF1EF0DEEF1DF059A00DEF1EF00FEFCC
:103C18001EF02CEF1EF01DEF1EF0000E086E200E99
:103C2800076E10C009F011C00AF0EDEC23F01C4A31
:103C38001D2A18501C5C1D50800A146E1950800AE9
:103C48001458D8A02AEF1EF02CEF1EF011EF1EF02A
:103C5800120023BE32EF1EF035EF1EF0010E36EFD4
:103C68001EF0000E2A6E58BE3EEF1EF03CEF1EF00E
:103C780044EF1EF0000E296E010E286E48EF1EF06C
:103C880057C028F058C029F055C026F056C027F074
:103C98002A50D8B452EF1EF054EF1EF06BEF1EF00E
:103CA8002606D8A027062A50D8A45DEF1EF05FEF9D
:103CB8001EF065EF1EF0000E256E2B0E246E69EFC8
:103CC8001EF0000E256E2D0E246E24C02AF0000E64
:103CD8002C6E4F0E2B6E000E0101766FA4EF1EF0B6
:103CE8002B06D8A02C06270E2B24D96E010E2C20CB
:103CF800DA6E22C006F023C007F0000E096E0A0E25
:103D0800086E0DEC25F006C00CF007C00DF019EC9C
:103D180029F00C50300FDF6E2806D8A02906260699
:103D2800D8A0270622C018F023C019F0000E1B6E79
:103D38000A0E1A6E52EC24F018C022F019C023F0B3
:103D48002CBEAFEF1EF02C5008E12B04D8A0AFEF2B
:103D58001EF0B1EF1EF0C7EF1EF022502310D8A4BA
:103D6800B8EF1EF0BAEF1EF074EF1EF029BEC7EFD1
:103D78001EF0295006E12804D8B0C5EF1EF0C7EFA1
:103D88001EF074EF1EF02A50D8B4CDEF1EF0CFEF1E
:103D98001EF0DAEF1EF02B06D8A02C06270E2B24D7
:103DA800D96E010E2C20DA6E2AC0DFFF20C017F072
:103DB80021C018F0270E2B24196E010E2C201A6E24
:103DC80026C01BF027C01CF011EC26F012009284CC
:103DD8000F013A9D3A9F948C948E190EAF6EAC9851
:103DE800AB8EAC8AAB88010E0101256F9D8AF28CDF
:103DF800F28E010E0001F36F8EEF1FF00101965154
:103E0800D8B409EF1FF00BEF1FF06AEF1FF0770E21
:103E1800066E010E076EC9EC28F006C0F4F007C064
:103E2800F5F0000E0001F76F000EF66F32EF1FF08D
:103E3800760ED26F010ED36FF651D25FF751D35B76
:103E4800F451D225D96EF551D321DA6EF651D40F3B
:103E5800E16EE26ADFCFE7FFF64BF72BF451F65D30
:103E6800F551F759D8A03BEF1FF03DEF1FF01CEFBD
:103E78001FF0F451D40FD96EDA6ADF6AD20ECE6F12
:103E8800FF0ECF6FD40ED06FD16B6DEC29F0000E02
:103E98000101966F000E0001F96F000EF86F770EA2
:103EA800F825D96E010EF921DA6EDF6AF84BF92B85
:103EB800F9BF68EF1FF0F95109E11F0EF85DD8A0AE
:103EC80068EF1FF06AEF1FF053EF1FF080A46FEF49
:103ED8001FF071EF1FF08EEF1FF0030E0001D36F7C
:103EE800080ED26F770EE82EFED7D22FFCD7D32F2D
:103EF800FAD780A482EF1FF084EF1FF08EEF1FF037
:103F080080B489EF1FF08BEF1FF084EF1FF0000ED5
:103F18000001F36F0001F351D8A495EF1FF097EF5C
:103F28001FF002EF1FF0AB9EAC9AAB98000E010198
:103F3800256F9D9AF29CF29E1200959495969498FE
:103F48009598959A959C0F013B953B973A993B9983
:103F58003B9B3B9D8C848C868B888C888C8A8C8C34
:103F6800928438953F0ECD16300ECD129D80F28C7E
:103F7800F28E010E0101266F9E809E0ECF6E580EA6
:103F8800CE6ECD80010E0001FE6F21EEEAF010EE3C
:103F980015F00B0EDBCFE3FFE806FCE221EEDEF0C6
:103FA80010EE09F00B0EDBCFE3FFE806FCE2000E93
:103FB800226E0C0E216E000E236E42EF20F0000ED2
:103FC800256E000E246E2450020DF350150FD96E85
:103FD800DA6A02D814EF20F00500FA6EDE50FD6EA2
:103FE800DE50FE6EF850FF6EFA5024500508076E3A
:103FF8002350090FD96EDA6ADF50086E072A07EFD7
:1040080020F0D8900832072E05EF20F008A00FEF17
:1040180020F012EF20F0010E13EF20F0000E120036
:10402800244A252A25BE22EF20F0255009E1060E54
:10403800245CD8A022EF20F024EF20F0E7EF1FF057
:10404800110E086E3C0E076ECB0EE82EFED7072E1B
:10405800FCD7082EFAD70000232A2350076E086AD7
:104068002150071807E122500818D8A43EEF20F085
:1040780040EF20F042EF20F0000E236E0001FE51C9
:10408800D8A449EF20F04BEF20F0E3EF1FF08C8429
:104098008C868B888C888C8A8C8CCD909D90000E19
:1040A8000101266F12009484FC0E0F014917C70EF8
:1040B800BB6E0C0EBD12BD503F0B8009BD6E000ECD
:1040C800BE6E9E92BA849EA26CEF20F06EEF20F036
:1040D80067EF20F0948492889284959495969498AA
:1040E8009598959A959C8C848C868B888C888C8ADC
:1040F8008C8C010E226E000E236EEDEF20F0235003
:10410800C70DF3CF18F0F4CF19F0000E1B6E050E93
:104118001A6E52EC24F01850BE6E80A896EF20F06C
:1041280098EF20F0CAEF20F0030E216E080E206EE3
:10413800770EE82EFED7202EFCD7212EFAD70000C6
:1041480080A8A9EF20F0ABEF20F0CAEF20F080B8EC
:10415800B0EF20F0B2EF20F0ABEF20F0050E2318FF
:10416800D8A4B9EF20F0BBEF20F0BFEF20F0000E8D
:10417800236ECAEF20F0050E2360C5EF20F0C7EFCD
:1041880020F0CAEF20F0232ACAEF20F080A4CFEF56
:1041980020F0D1EF20F0EDEF20F0030E216E080E95
:1041A800206E770EE82EFED7202EFCD7212EFAD7C8
:1041B800000080A4E2EF20F0E4EF20F0EDEF20F023
:1041C80080B4E9EF20F0EBEF20F0E4EF20F0000EF0
:1041D800226E2250D8A4F3EF20F0F5EF20F083EF01
:1041E80020F0F00EBD16BA949D9212000101CD6F19
:1041F800E4EC28F021EECEF011EEBDF00F0EDBCF8F
:10420800E3FFE806FCE221EF21F0060E0101CD6193
:1042180010EF21F012EF21F031EF21F0CD2B31EF2B
:1042280021F00101CD51D8B41CEF21F01EEF21F08F
:1042380031EF21F0CD0731EF21F00001E751000AFD
:10424800D8B431EF21F0010AD8B409EF21F0030AFC
:10425800D8B415EF21F031EF21F09B0E0001CE6F9D
:10426800010ECF6FCC0ED06FFF0ED16F000ED36F43
:104278000F0ED26F0101CD51020DBD0EF324D96E80
:10428800010EF420DA6EDECFD4F0DDCFD5F02CECC1
:1042980028F0AC0E0001CE6F010ECF6FCD0ED06F9F
:1042A800FF0ED16F000ED36F100ED26F0101CD51EA
:1042B8000001E86FE96BD890E837E937020EE82784
:1042C800000EE923BD0EE825D96E010EE921DA6E4C
:1042D800DECFD4F0DDCFD5F02CEC28F09B0E076EA6
:1042E800010E086E010EB4EC24F0AC0E076E010E40
:1042F800086E020EB4EC24F00101CD511200000149
:1043080066356735536E5350D8A48DEF21F08FEF83
:1043180021F099EF21F0000E646F000E656F000E1A
:10432800666F000E676F06EF22F064C068F065C024
:1043380069F066C06AF067C06BF0200EA9EF21F043
:10434800D8906B336A3369336833E82EA4EF21F0D1
:104358006851526E668FFF0E6417FF0E6517FF0EC9
:104368006617000E6717960E535E53BEC0EF21F016
:10437800BEEF21F0D6EF21F05350800A970FD8B046
:10438800C8EF21F0CAEF21F0CCEF21F08FEF21F038
:10439800D8906733663365336433533ECCEF21F0EE
:1043A800EEEF21F01F0E5364DCEF21F0DEEF21F079
:1043B800E6EF21F08FEF21F0D89064376537663744
:1043C800673753065350D8A4ECEF21F0EEEF21F0F5
:1043D800E0EF21F05250D8B4F4EF21F0F6EF21F0DD
:1043E800FEEF21F0671F661F651F646D000E6523D1
:1043F8006623672364C064F065C065F066C066F034
:1044080067C067F01200000E2D14356E000E2E14D2
:10441800366E800E2F14376E7F0E3014386E35507E
:10442800361037103810D8A41CEF22F01EEF22F0F7
:1044380026EF22F0000E2D6E000E2E6E000E2F6E4F
:10444800000E306E000E3114356E000E3214366ECA
:10445800800E3314376E7F0E3414386E3550361094
:1044680037103810D8A43BEF22F03DEF22F045EF8B
:1044780022F0000E316E000E326E000E336E000E0A
:10448800346E30AE4AEF22F04CEF22F055EF22F0B6
:104498002D6C2E1ED8B02E2A2F1ED8B02F2A800E93
:1044A800305634AE5AEF22F05CEF22F065EF22F07E
:1044B800316C321ED8B0322A331ED8B0332A800E5F
:1044C8003456000E2D1A000E2E1A000E2F1A800ECA
:1044D800301A000E311A000E321A000E331A800EEE
:1044E800341A31502D5C32502E5833502F583450D6
:1044F8003058D8B082EF22F084EF22F087EF22F014
:10450800D89088EF22F0D88012001DC110F01EC18B
:1045180011F01FC112F020C113F006C010F007C03F
:1045280011F008C012F009C013F010C00AF011C051
:104538000BF012C00CF013C00DF0180EA9EF22F00A
:10454800D8900D320C320B320A32E82EA4EF22F04A
:104558000A500E6E0F6A0E500F10D8A4B6EF22F054
:10456800B8EF22F0D8EF22F0D89010340A6E113448
:104578000B6E12340C6E13340D6E0A500B100C10A7
:104588000D10D8A4CAEF22F0CCEF22F0D2EF22F01F
:10459800000E076E020E066E07EF23F0000E076E80
:1045A800030E066E07EF23F00E280F10D8A4DFEFD6
:1045B80022F0E1EF22F003EF23F010C00AF011C05F
:1045C8000BF012C00CF013C00DF0090ED8900A368B
:1045D8000B360C360D36E82EEAEF22F00A500B1097
:1045E8000C100D10D8B4FBEF22F0FEEF22F0010EF4
:1045F800FFEF22F0000E066E076A07EF23F0000EA9
:10460800076E040E066E120058BE0FEF23F00DEF72
:1046180023F015EF23F0000E276E010E266E19EF1A
:1046280023F057C026F058C027F055C024F056C0D4
:1046380025F0000E296E4F0E286E000E0101766FD0
:1046480050EF23F02806D8A02906270E2824D96E73
:10465800010E2920DA6E22C006F023C007F0000EF2
:10466800096E0A0E086E06EC27F00650300FDF6E52
:104678002606D8A027062406D8A0250622C006F0BC
:1046880023C007F0000E096E0A0E086E60EC26F0D3
:1046980006C022F007C023F028502910D8B457EFDD
:1046A80023F059EF23F06FEF23F022502310D8A402
:1046B80060EF23F062EF23F026EF23F027BE6FEFC1
:1046C80023F0275006E12604D8B06DEF23F06FEFF2
:1046D80023F026EF23F020C017F021C018F0270E92
:1046E8002824196E010E29201A6E24C01BF025C03B
:1046F8001CF011EC26F012000F013B913B939580C2
:104708009582929089806C50F00B08096C6E130E9C
:104718006E6E6C8A340E076EF20EE82EFED7072EE8
:10472800FCD76B806BB09BEF23F09DEF23F096EFE7
:1047380023F0A49E7C0E5AEC29F0800E5AEC29F046
:10474800380E5AEC29F0800E5AEC29F0390E5AEC42
:1047580029F0800E5AEC29F0170E5AEC29F0800E39
:104768005AEC29F07A0E5AEC29F0800E5AEC29F00E
:104778005E0E5AEC29F0800E5AEC29F06B0E5AECBA
:1047880029F0800E5AEC29F00C0E5AEC29F0800E14
:104798005AEC29F0010E5AEC29F0800E5AEC29F057
:1047A800060E5AEC29F0800E5AEC29F0020E5AEC4B
:1047B80029F06B846BB4E3EF23F0E5EF23F0DEEF31
:1047C80023F0340E076EF20EE82EFED7072EFCD724
:1047D800120009500A10D8B4F4EF23F0F6EF23F0D2
:1047E800FFEF23F009500A10D8A4FDEF23F0FFEFE4
:1047F80023F004EF24F007507DEC29F051EF24F06A
:1048080020EE0AF00950D9260A50DA22DE50DE10CE
:10481800D8B411EF24F013EF24F02EEF24F020EE9B
:104828000AF00950D9260A50DA2210EE03F009508E
:10483800E1260A50E222DE50E65CE650800A0F6E5E
:10484800DE50800A0F58D8B02CEF24F02EEF24F059
:1048580051EF24F020EE03F00950D9260A50DA224D
:10486800DECF0BF0DDCF0CF009C0D9FF0AC0DAFFAC
:10487800DECF0DF0DDCF0EF00B500D24D96E0C50AD
:104888000E20DA6E07C0DFFF20EE03F00950D926AC
:104898000A50DA22DE2A000EDD221200000E1D6EFA
:1048A8001BBE5BEF24F059EF24F061EF24F01A6C83
:1048B8001B1ED8B01B2A010E1D6E19BE68EF24F00E
:1048C80066EF24F06EEF24F0186C191ED8B0192A80
:1048D800010E1D1A000E1F6E000E1E6E1A501B10C0
:1048E800D8B479EF24F07BEF24F0A3EF24F0010E85
:1048F8001C6E83EF24F0D8901A361B361C2A1BAE88
:1049080088EF24F08AEF24F07FEF24F0D8901E3649
:104918001F361A50185C1B501958D8A096EF24F06F
:1049280098EF24F09DEF24F01A50185E1B50195A86
:104938001E80D8901B321A321C2E8AEF24F01D508C
:10494800D8B4A9EF24F0ABEF24F0AFEF24F01E6C3D
:104958001F1ED8B01F2A1EC018F01FC019F0120061
:104968000B6E6B806BB0BBEF24F0BDEF24F0B6EF9D
:1049780024F0A49E7C0E5AEC29F0800E5AEC29F003
:104988000B04D8A4CAEF24F0CCEF24F0D1EF24F024
:10499800800E5AEC29F0DDEF24F0020E0B18D8A493
:1049A800D8EF24F0DAEF24F0DDEF24F0C00E5AEC53
:1049B80029F0400E5AEC29F0000E0C6E0C5007241A
:1049C800096E000E08200A6E09C0F6FF0AC0F7FF3C
:1049D800000EF86E0F0EF76403D00800F55005D0EE
:1049E800F6CFE1FFF7CFE2FFE7505AEC29F00C2AA7
:1049F8000F0E0C6402EF25F004EF25F0E2EF24F02F
:104A08006B846BB40AEF25F00CEF25F005EF25F069
:104A18001200000E0B6E07BE16EF25F014EF25F0FE
:104A28001CEF25F0066C071ED8B0072A010E0B6E86
:104A380009BE23EF25F021EF25F027EF25F0086CBC
:104A4800091ED8B0092A08500910D8B42EEF25F04D
:104A580030EF25F054EF25F0010E0A6E38EF25F0FF
:104A6800D890083609360A2A09AE3DEF25F03FEFFF
:104A780025F034EF25F00850065C09500758D8A0F7
:104A880048EF25F04AEF25F04EEF25F00850065E76
:104A98000950075AD890093208320A2E3FEF25F0FC
:104AA8000B50D8B45AEF25F05CEF25F060EF25F0F5
:104AB800066C071ED8B0072A06C006F007C007F024
:104AC8001200000E106E000E0F6E0C50D96EDA6ACE
:104AD800DECFF6FFDDCFF7FF0800F5502A0AD8A48D
:104AE80078EF25F07AEF25F0A4EF25F00C50D96E79
:104AF800DA6ADE2A000EDD220D50D96EDA6A020E5D
:104B0800DF26DF5CD96EDA6ADECF0FF0DECF10F079
:104B1800B7EF25F00FC006F010C007F0000E096EC1
:104B28000A0E086E47EC29F00E5006240F6E000E90
:104B38000720106E0C50D96EDA6ADE2A000EDD22CC
:104B48000C50D96EDA6ADECFF6FFDDCFF7FF08002A
:104B5800F550D00F0E6E090E0E64B5EF25F0B7EFC5
:104B680025F08EEF25F00FC00CF010C00DF01200EC
:104B7800000E06140E6E000E07140F6E800E081439
:104B8800106E7F0E0914116E0E500F1010101110B8
:104B9800D8A4D1EF25F0D3EF25F0DBEF25F0000EF8
:104BA800066E000E076E000E086E000E096E000EEF
:104BB8000A140E6E000E0B140F6E800E0C14106E7D
:104BC8007F0E0D14116E0E500F1010101110D8A476
:104BD800F0EF25F0F2EF25F0FAEF25F0000E0A6E5F
:104BE800000E0B6E000E0C6E000E0D6E0A500618AD
:104BF8000FE10B5007180CE10C50081809E10D5093
:104C08000918D8B40AEF26F00CEF26F00FEF26F0BB
:104C1800D89010EF26F0D880120059A016EF26F091
:104C280018EF26F022EF26F019C010F01AC011F084
:104C380017C012F018C013F04FEC28F01CBE29EF73
:104C480026F027EF26F02DEF26F0000E1C6E000E42
:104C58001B6E000E1F6E000E1E6E3FEF26F0000E3C
:104C6800086E200E076E17C009F018C00AF0EDECA8
:104C780023F01E4A1F2A1B501E5C1F50800A1D6EFF
:104C88001C50800A1D58D8A04CEF26F04EEF26F095
:104C980033EF26F059B053EF26F055EF26F05FEFCB
:104CA80026F019C010F01AC011F017C012F018C081
:104CB80013F04FEC28F01200000E0C6E000E0B6E75
:104CC80008500910D8B46BEF26F06DEF26F095EF79
:104CD80026F0010E0A6E75EF26F0D89008360936D0
:104CE8000A2A09AE7AEF26F07CEF26F071EF26F05B
:104CF800D8900B360C360850065C09500758D8A0D7
:104D080088EF26F08AEF26F08FEF26F00850065E2F
:104D18000950075A0B80D890093208320A2E7CEFC6
:104D280026F00BC006F00CC007F0120097C106F081
:104D380098C107F099C108F09AC109F02D0E0A6EC2
:104D48007F0E0B6E950E0C6E4C0E0D6ED1EC26F090
:104D5800010E06240101976F000E0720986F000EC0
:104D68000820996F000E09209A6F97C114F098C116
:104D780015F099C116F09AC117F0120EC9EF26F076
:104D8800D8901732163215321432E82EC4EF26F0B6
:104D980014C012F015C013F01200000E0E6E000EB3
:104DA8000F6E000E106E000E116E06A0DEEF26F0DC
:104DB800E0EF26F0E8EF26F00A500E260B500F22FF
:104DC8000C5010220D501122D8900A360B360C3692
:104DD8000D36D890093208320732063206500710CD
:104DE80008100910D8A4FBEF26F0FDEF26F0D9EF44
:104DF80026F00EC006F00FC007F010C008F011C072
:104E080009F0120008500910D8B40DEF27F00FEF81
:104E180027F033EF27F0010E0A6E17EF27F0D8902E
:104E2800083609360A2A09AE1CEF27F01EEF27F0CC
:104E380013EF27F00850065C09500758D8A027EF51
:104E480027F029EF27F02DEF27F00850065E0950CC
:104E5800075AD890093208320A2E1EEF27F006C0EA
:104E680006F007C007F01200076E000E096E065024
:104E7800D8B441EF27F043EF27F064EF27F0010E95
:104E8800086E4AEF27F0D8900636082A06AE4FEF8C
:104E980027F051EF27F047EF27F0D8900936065052
:104EA800075CD8A05AEF27F05CEF27F05FEF27F0F8
:104EB8000650075E0980D8900632082E51EF27F079
:104EC8000950120009BE6BEF27F06DEF27F077EF5E
:104ED80027F006C006F007C007F008C008F009C0B0
:104EE80009F090EF27F006C00AF007C00BF008C0E1
:104EF8000CF009C00DF00A1E0B1E0C1E0D1E0A2A0E
:104F0800000E0B220C220D220AC006F00BC007F07F
:104F18000CC008F00DC009F01200660EF66E520EB5
:104F2800F76E000EF86E01EECEF010EE28F00900D4
:104F3800F5CFEEFFE550E150FAE102EE00F02A0E5F
:104F4800EE6AE806FDE101EE00F09B0EEE6AE80667
:104F5800FDE10001FE6B596A586A576A566A556A3C
:104F68005A905A92000EF86E00014AEF11F008C0EC
:104F78000FF009C010F006C00DF007C00EF0D5EF15
:104F880027F00FC0D9FF10C0DAFFDF500C6E0F4AB0
:104F9800102A0DC0D9FF0EC0DAFF0CC0DFFF0D4A82
:104FA8000E2A0A06D8A00B060A2806E10B28D8A460
:104FB800E0EF27F0E2EF27F0C5EF27F01200C9C0B5
:104FC800CCF0CAC0CDF0F4EF27F0C7C0B9F0C8C024
:104FD800BAF0CC0E0001BB6FCBC0BCF0A6EC05F05C
:104FE800CCC0F6FFCDC0F7FF0800F5500009D8A4E3
:104FF80000EF28F002EF28F0E9EF27F0000E00019B
:10500800C86F000EC76F1200000E0001681B000E6B
:10501800691B000E6A1B800E6B1B64C046F065C0DE
:1050280047F066C048F067C049F068C04AF069C0F8
:105038004BF06AC04CF06BC04DF0D9EC0AF046C09A
:1050480064F047C065F048C066F049C067F01200D8
:10505800D20E0001DA6FCEC0DBF0CFC0DCF0000E5C
:10506800DF6F000EDE6F000EE66F000EE56FDB0EE1
:10507800C76FC86BD0C0C9F0D1C0CAF0DA0ECB6F09
:10508800E3EC27F00001DE51CE25D96EDF51CF21A8
:10509800DA6EDF6A1200000E166E000E156E60EFF3
:1050A80028F014C007F0086A12C009F013C00AF00B
:1050B800EDEC23F0154A162A15501024D96E165017
:1050C8001120DA6EDF50146E1450D8A46EEF28F059
:1050D80070EF28F055EF28F01200086E08380F0B13
:1050E8003009066E0838F00B076E8A9606C0C9FFAD
:1050F8009EA681EF28F083EF28F07CEF28F09E969B
:1051080007C0C9FF9EA68BEF28F08DEF28F086EF29
:1051180028F09E968A861200000180518111821122
:105128008311D8B49AEF28F09CEF28F0A4EF28F068
:10513800000E801B000E811B000E821B800E831B3D
:1051480080C080F081C081F082C082F083C083F08B
:10515800120006C00AF007C00BF008C0F6FF09C02D
:10516800F7FF084A092A0AC0D9FF0BC0DAFF0A4A22
:105178000B2A0800F5CFDFFFDF50D8A4C6EF28F0D0
:10518800C8EF28F0B1EF28F0120006C008F007C0F9
:1051980009F0D1EF28F0064A072A06C0D9FF07C050
:1051A800DAFFDF50D8A4DBEF28F0DDEF28F0CFEFEF
:1051B80028F00850065C066E09500758076E120062
:1051C8006B806BB0EAEF28F0ECEF28F0E5EF28F001
:1051D800A49E7C0E5AEC29F0800E5AEC29F0010EA0
:1051E8005AEC29F06B846BB4FCEF28F0FEEF28F042
:1051F800F7EF28F0120011C10AF012C10BF013C129
:105208000CF014C10DF006C00AF007C00BF008C07E
:105218000CF009C00DF00D9E0AC006F00BC007F097
:105228000CC008F00DC009F012000DBE1EEF29F0E9
:1052380020EF29F026EF29F00CC00CF00DC00DF07E
:1052480032EF29F00CC00EF00DC00FF00E1E0F1E2D
:105258000E4A0F2A0EC00CF00FC00DF01200DCFF32
:10526800E1FFFBFFF7FFF3FFD7FFC6FFD6FF2030B4
:10527800180C06030103060C183048533A532C53F4
:105288001E531053565306500802F3CF0AF0F4CFBA
:105298000BF006500902F3500B2607500802F35092
:1052A8000B260AC006F00BC007F01200066E06C0F7
:1052B8006FFF6DB062EF29F064EF29F05DEF29F020
:1052C800A4AE69EF29F06BEF29F064EF29F0A49EF2
:1052D8001200D00E546E000E0001C76F000EC86F8A
:1052E800CEC0C9F0CFC0CAF0540ECB6FE3EC27F0A4
:1052F8001200066E9EA883EF29F085EF29F07EEF55
:1053080029F006C0ADFF1200066E06B002D08C9AD6
:1053180001D08C8A1200066E06B002D08C9801D09B
:105328008C881200066E06B002D08B9801D08B884C
:105338001200066E06B002D08C9601D08C86120040
:10534800066E06B002D08C9401D08C841200066ED2
:0E53580006B002D08C9C01D08C8C120012008A
:10FDF200003C6C3636CF0750B98488083CABAA2A3F
:10FE0200BEA3858832DA0FC93F83F9223F00000082
:10FE12003F179ACC373F04B6BA9FAA2A3D0000008A
:10FE2200BFDB0FC940E4CB9640DB0F4940DB0FC973
:10FE32003F25752020202020202020202020202047
:10FE420020202000504F54313A252E3166504F5415
:10FE5200323A252E316600536B6F72653A20257552
:10FE6200202020202020202000256875202020200E
:10FE72002020202020202020200047414D45204FD7
:10FE82005645522020202020202000504F5431205F
:10FE92002020202020202020202020004E65627972
:10FEA2006C6F202020202020202020200042523A67
:10FEB2002031393230302020202020202000567975
:10FEC20074766F72696C3A20202020202020005026
:10FED20072697072617669742020202020202000CF
:10FEE2005A727963686C6920746F20202020202068
:10FEF20000706F6D6F63692042544E3420202020C1
:10FF02002000487962656A20706F6D6F63692020F6
:10FF1200202000506F7A6F722120486164212121D4
:10FF220020202000446176696420537472617361F9
:10FF32006B202020004C6164656E6920706F7461D3
:10FF42006B75202020005A6D61636B6E65746520AD
:10FF520042544E32202000496D706C656D656E749E
:10FF62006F76616E6F2020005242302D41322C207C
:10FF720042523A313932303000566F6C7479206E09
:10FF82006120504F546563683A004B6F6E65632081
:10FF92002D206E6577206C696E6500313A74722C83
:10FFA200323A73696E2C333A70696C00202020203B
:10FFB20020202020202020506F7A6F7200286E753A
:10FFC2006C6C29004D55534943003E252D2A730080
:10FFD2002573200A0047414D45004750494F0055BF
:10FFE200415254002564200D00696E66006E616EF8
:0EFFF20000444143004144430050574D00007D
:020000040030CA
:04000000FF331F3C6F
:00000001FF
