:040000008AEF00F093
:100008005A82D9CF03F0DACF04F09DA00EEF00F0AA
:1000180010EF00F049EF00F09EA015EF00F017EF89
:1000280000F049EF00F001012451D8B41EEF00F0B0
:1000380020EF00F049EF00F080A425EF00F027EF53
:1000480000F044EF00F0030E026E080E016E770E0A
:10005800E82EFED7012EFCD7022EFAD7000080A486
:1000680038EF00F03AEF00F044EF00F080B43FEFD3
:1000780000F041EF00F03AEF00F0000E0001EE6FE3
:100088009E0ECF6E580ECE6E9E909DAA4EEF00F03B
:1000980050EF00F084EF00F09EAA55EF00F057EF04
:1000A80000F084EF00F001012351D8B45EEF00F0B6
:1000B80060EF00F084EF00F0AECF05F00A0E0518EF
:1000C800D8B469EF00F06BEF00F077EF00F0250E81
:1000D8002125D96E010E2221DA6E05C0DFFF214BE2
:1000E800222B84EF00F0010E616F250E2125D96EB9
:1000F800010E2221DA6EDF6A000E226F000E216FD8
:1001080004C0DAFF03C0D9FF5A92110068EF22F049
:10011800000E0001AE6F86C0AFF087C0B0F088C097
:10012800B1F089C0B2F0B2BF9EEF00F09CEF00F0D2
:10013800B2EF00F0010EAE6FAFC080F0B0C081F03A
:10014800B1C082F0B2C083F067EC23F080C0AFF09A
:1001580081C0B0F082C0B1F083C0B2F0000E0001DF
:10016800B46F000EB36F55C09EF056C09FF0AE51ED
:10017800D8B4C1EF00F0C3EF00F0D7EF00F0AE51F4
:10018800D8A4C9EF00F0CBEF00F0D1EF00F0000EDB
:10019800946F2B0E936FD5EF00F0000E946F2D0E19
:1001A800936F93C0AEF0AFC006F0B0C007F0B1C017
:1001B80008F0B2C009F0DEEC1EF006040710D8A45F
:1001C800E8EF00F0EAEF00F01DEF01F00001AE519A
:1001D800D8B4F1EF00F0F3EF00F0FCEF00F0AEC0A0
:1001E80000F29E07D8A09F07000EB46F010EB36FF0
:1001F800000EB325066E020EB421076EEA0E086ED5
:10020800FF0E096E84EC23F00001FD0E9E27FF0E01
:100218009F2384C017F085C018F0000E196E020ED7
:100228001A6E9EC01BF09FC01CF0EEEC21F088EF08
:1002380005F0AFC006F0B0C007F0B1C008F0B2C01A
:1002480009F0DEEC1EF006500710D8A42EEF01F0DE
:1002580030EF01F050EF01F00001AE51D8B437EFA4
:1002680001F039EF01F042EF01F0AEC000F29E0755
:10027800D8A09F07000EB46F010EB36F000EB32510
:10028800066E020EB421076EEE0E086EFF0E096EA2
:1002980084EC23F008EF01F0000E0001B56F000EAA
:1002A800B66F800EB76F3F0EB86F000E9D6F000ED1
:1002B8009C6FAFC006F0B0C007F0B1C008F0B2C084
:1002C80009F0000E0A6E000E0B6E000E0C6E000E8A
:1002D8000D6E99EC21F0D8B074EF01F076EF01F0D3
:1002E80055EF02F083EF01F0A0C0B5F0A1C0B6F061
:1002F800A2C0B7F0A3C0B8F000019C4B9D2BB5C0BD
:1003080014F0B6C015F0B7C016F0B8C017F0000E5C
:10031800186E000E196E200E1A6E410E1B6E6FECD1
:100328000AF014C0A0F015C0A1F016C0A2F017C0C2
:10033800A3F00001A051AF5D066EA151B059076E40
:10034800A251B159086EA351B259096E3DEC22F081
:1003580009BEBAEF01F009500810071009E1020EB2
:10036800065CD8A0BAEF01F0BCEF01F078EF01F01D
:10037800A0C02DF0A1C02EF0A2C02FF0A3C030F075
:10038800AFC031F0B0C032F0B1C033F0B2C034F019
:10039800DBEC1DF0D8A0D3EF01F0D5EF01F078EF3A
:1003A80001F00001B551AF5D066EB651B059076E48
:1003B800B751B159086EB851B259096E3DEC22F0E7
:1003C80009BEF4EF01F009500810071007E1020E0A
:1003D800065CD8B0F2EF01F0F4EF01F03CEF02F068
:1003E800B5C0AFF0B6C0B0F0B7C0B1F0B8C0B2F0A9
:1003F80055EF02F0B5C02DF0B6C02EF0B7C02FF003
:10040800B8C030F0000E316E000E326E200E336E22
:10041800410E346E70EC10F02DC0B5F02EC0B6F061
:100428002FC0B7F030C0B8F000019C07D8A09D07D6
:10043800B551AF5D066EB651B059076EB751B15997
:10044800086EB851B259096E3DEC22F009BE3AEF78
:1004580002F009500810071007E1020E065CD8B038
:1004680038EF02F03AEF02F03CEF02F0F4EF01F05F
:10047800AFC02DF0B0C02EF0B1C02FF0B2C030F038
:10048800B5C031F0B6C032F0B7C033F0B8C034F000
:10049800DBEC1DF0D8A053EF02F055EF02F0FEEFB1
:1004A80001F08AC096F096C097F058BE5EEF02F051
:1004B80060EF02F066EF02F057C08FF058C090F07E
:1004C8006BEF02F0000E0001906F060E8F6F8FC069
:1004D8009AF090C09BF000019A4B9B2B660E9719DF
:1004E800D8A479EF02F07BEF02F09BEF02F09DBFFA
:1004F80082EF02F080EF02F08EEF02F0000EB56F8F
:10050800000EB66F800EB76F3F0EB86F000E9D6F6E
:10051800000E9C6F670E9619D8B495EF02F097EF0E
:1005280002F09BEF02F09C519A279D519B23000EED
:10053800A56F000EA46FAFC0A6F0B0C0A7F0B1C001
:10054800A8F0B2C0A9F0B5C0A0F0B6C0A1F0B7C07D
:10055800A2F0B8C0A3F02CEF03F0A6C02DF0A7C0FE
:100568002EF0A8C02FF0A9C030F0B5C031F0B6C049
:1005780032F0B7C033F0B8C034F070EC10F02DC0D2
:1005880046F02EC047F02FC048F030C049F0F9ECD3
:1005980015F046C0AAF047C0ABF048C0ACF049C05F
:1005A800ADF0AAC064F0ABC065F0ACC066F0ADC0F9
:1005B80067F057EC1DF064C098F065C099F0A6C0CC
:1005C80064F0A7C065F0A8C066F0A9C067F0AAC02B
:1005D80018F0ABC019F0ACC01AF0ADC01BF0B5C034
:1005E80014F0B6C015F0B7C016F0B8C017F06FEC2D
:1005F8000AF014C068F015C069F016C06AF017C098
:100608006BF0DFEC22F064C0A6F065C0A7F066C00E
:10061800A8F067C0A9F0B5C02DF0B6C02EF0B7C0DD
:100628002FF0B8C030F0000E316E000E326E200E82
:10063800336E410E346E70EC10F02DC0B5F02EC044
:10064800B6F02FC0B7F030C0B8F00001A44BA52B0E
:100658009A51A45DA551800A8B6F9B51800A8B59D2
:10066800D8A039EF03F03BEF03F0B1EF02F0B5C0CB
:1006780014F0B6C015F0B7C016F0B8C017F0000EE9
:10068800186E000E196EA00E1A6E400E1B6E6FECDF
:100698000AF014C0AAF015C0ABF016C0ACF017C031
:1006A800ADF0A6C02DF0A7C02EF0A8C02FF0A9C0AD
:1006B80030F0AAC031F0ABC032F0ACC033F0ADC0FE
:1006C80034F0DBEC1DF0D8B06CEF03F06EEF03F004
:1006D80079EF03F0000E0001AA6F000EAB6F000E59
:1006E800AC6F000EAD6FA2EF03F0A6C006F0A7C076
:1006F80007F0A8C008F0A9C009F0AAC00AF0ABC06A
:100708000BF0ACC00CF0ADC00DF099EC21F0D8A006
:1007180090EF03F092EF03F0A2EF03F0000198B11D
:1007280098EF03F09AEF03F0A2EF03F0000EAA6F20
:10073800000EAB6F000EAC6F000EAD6FAFC046F091
:10074800B0C047F0B1C048F0B2C049F0AAC04AF002
:10075800ABC04BF0ACC04CF0ADC04DF00EEC08F0A7
:1007680046C0A6F047C0A7F048C0A8F049C0A9F005
:10077800A6C02DF0A7C02EF0A8C02FF0A9C030F059
:10078800000E186E000E196E200E1A6E410E1B6EAA
:10079800A0C014F0A1C015F0A2C016F0A3C017F0B5
:1007A8006FEC0AF014C031F015C032F016C033F007
:1007B80017C034F0DBEC1DF0D8A0E5EF03F0E7EF4D
:1007C80003F010EF04F000019C4B9D2BA0C014F027
:1007D800A1C015F0A2C016F0A3C017F0000E186E45
:1007E800000E196E200E1A6E410E1B6E6FEC0AF089
:1007F80014C0A0F015C0A1F016C0A2F017C0A3F055
:10080800660E00019719D8A40CEF04F00EEF04F05F
:1008180010EF04F09A4B9B2BA0C0B5F0A1C0B6F026
:10082800A2C0B7F0A3C0B8F09CC08DF09DC08EF0F8
:10083800000E0001956F000E926F000E916F000E72
:10084800A56F000EA46F0EEF05F0A6C02DF0A7C08F
:100858002EF0A8C02FF0A9C030F0B5C031F0B6C056
:1008680032F0B7C033F0B8C034F070EC10F02DC0DF
:1008780046F02EC047F02FC048F030C049F0F9ECE0
:1008880015F046C0AAF047C0ABF048C0ACF049C06C
:10089800ADF0AAC064F0ABC065F0ACC066F0ADC006
:1008A80067F057EC1DF0000165BF66EF04F0655175
:1008B80007E10A0E645DD8B064EF04F066EF04F057
:1008C80076EF04F0AAC064F0ABC065F0ACC066F087
:1008D800ADC067F057EC1DF064C098F065C099F0A2
:1008E8007AEF04F0000E996F090E986F0001955188
:1008F800D8A481EF04F083EF04F0ABEF04F08EBFCF
:100908008AEF04F088EF04F0ABEF04F0000EB32593
:10091800D96E020EB421DA6E2E0EDF6EB34BB42BF5
:100928009E07D8A09F07010E956FABEF04F0000E4D
:10093800B325D96E020EB421DA6E300EDF6EB34BDA
:10094800B42B9E07D8A09F079107D8A09207915172
:100958009211D8A4B2EF04F0B4EF04F09BEF04F0C6
:10096800000EB325D96E020EB421DA6E9851300FFD
:10097800DF6EB34BB42B9E07D8A09F07A6C064F0C8
:10098800A7C065F0A8C066F0A9C067F0AAC018F0B3
:10099800ABC019F0ACC01AF0ADC01BF0B5C014F074
:1009A800B6C015F0B7C016F0B8C017F06FEC0AF073
:1009B80014C068F015C069F016C06AF017C06BF073
:1009C800DFEC22F064C0A6F065C0A7F066C0A8F00E
:1009D80067C0A9F0B5C02DF0B6C02EF0B7C02FF093
:1009E800B8C030F0000E316E000E326E200E336E3D
:1009F800410E346E70EC10F02DC0B5F02EC0B6F07C
:100A08002FC0B7F030C0B8F000018D07D8A08E070E
:100A1800A44BA52B9A51A45DA551800A8B6F9B51BD
:100A2800800A8B59D8B01BEF05F01DEF05F02BEFAE
:100A380005F0B4BF29EF05F0B45109E14B0EB35DE1
:100A4800D8A029EF05F02BEF05F029EF04F0000EF0
:100A5800A56F4F0EA46F000EA425D96E020EA52116
:100A6800DA6EDF6A000E8B6F020E8C6FB3518B5FEC
:100A7800B4518C5BA4518B25066EA5518C21076E51
:100A8800000E086E020E096EB3C00AF0B4C00BF077
:100A980092EC22F00001B351A45DB36FB451A55993
:100AA800B46FAE51D8A45BEF05F05EEF05F0010E10
:100AB8005FEF05F0000EA46FA56BAE51D8B467EFD9
:100AC80005F069EF05F074EF05F0B307D8A0B40797
:100AD800000EB325D96E020EB421DA6EAEC0DFFF68
:100AE800A4519E5FA5519F5B84C017F085C018F084
:100AF800000EB325196E020EB4211A6E9EC01BF0AB
:100B08009FC01CF0EEEC21F01200A4C0BAF0A5C002
:100B1800BBF0A6C0BCF0A7C0BDF00001BDBF97EFF9
:100B280005F09AEF05F0010E9BEF05F0000EB16F8E
:100B3800BD9FDB0EBA5D0F0EBB59490EBC593F0E67
:100B4800BD59D8B0AAEF05F0ACEF05F0D5EF05F028
:100B5800800EBC5D390EBD59D8B0B5EF05F0B7EFC2
:100B680005F0C1EF05F0A4C0A4F0A5C0A5F0A6C08B
:100B7800A6F0A7C0A7F00DEF08F0A4C064F0A5C0C8
:100B880065F0A6C066F0A7C067F0E0EC14F064C09A
:100B9800A4F065C0A5F066C0A6F067C0A7F00DEF89
:100BA80008F0D20EBA5D530EBB597B0EBC59400EED
:100BB800BD59D8B0E2EF05F0E4EF05F0C7EF06F055
:100BC800E40EBA5DCB0EBB59160EBC59400EBD598A
:100BD800D8B0F1EF05F0F3EF05F061EF06F0B15191
:100BE800D8B4F9EF05F0FBEF05F033EF06F0DB0EB4
:100BF8004A6E0F0E4B6EC90E4C6E3F0E4D6EA4C062
:100C080046F0A5C047F0A6C048F0A7C049F00EECD2
:100C180008F046C0B2F047C0B3F048C0B4F049C0CD
:100C2800B5F0B2C064F0B3C065F0B4C066F0B5C04A
:100C380067F00DEC18F064C080F065C081F066C004
:100C480082F067C083F067EC23F080C0A4F081C015
:100C5800A5F082C0A6F083C0A7F00DEF08F0A4C0ED
:100C680046F0A5C047F0A6C048F0A7C049F0DB0E83
:100C78004A6E0F0E4B6EC90E4C6EBF0E4D6E0EECCB
:100C880008F046C0B2F047C0B3F048C0B4F049C05D
:100C9800B5F0B2C064F0B3C065F0B4C066F0B5C0DA
:100CA80067F00DEC18F064C0A4F065C0A5F066C04C
:100CB800A6F067C0A7F00DEF08F0B151D8A467EF10
:100CC80006F069EF06F08FEF06F0DB0E4A6E0F0EA6
:100CD8004B6E490E4C6EC00E4D6EA4C046F0A5C0BA
:100CE80047F0A6C048F0A7C049F00EEC08F046C08F
:100CF80080F047C081F048C082F049C083F067ECBB
:100D080023F080C0A8F081C0A9F082C0AAF083C0F7
:100D1800ABF0B3EF06F0DB0E4A6E0F0E4B6E490ECA
:100D28004C6E400E4D6EA4C046F0A5C047F0A6C05C
:100D380048F0A7C049F00EEC08F046C080F047C064
:100D480081F048C082F049C083F067EC23F080C08E
:100D5800A8F081C0A9F082C0AAF083C0ABF0A8C0F7
:100D680064F0A9C065F0AAC066F0ABC067F0E0EC1B
:100D780014F064C0A4F065C0A5F066C0A6F067C012
:100D8800A7F00DEF08F0D60EBA5D310EBB59E20E92
:100D9800BC59400EBD59D8B0D4EF06F0D6EF06F0D6
:100DA80077EF07F0E00EBA5DED0EBB59AF0EBC59F8
:100DB800400EBD59D8B0E3EF06F0E5EF06F025EF99
:100DC80007F0B151D8B4EBEF06F0EDEF06F009EFFC
:100DD80007F0A4C046F0A5C047F0A6C048F0A7C0D9
:100DE80049F0E40E4A6ECB0E4B6E960E4C6E400EDA
:100DF8004D6E0EEC08F046C0B2F047C0B3F048C0E4
:100E0800B4F049C0B5F04DEF06F0E40E4A6ECB0ED3
:100E18004B6E960E4C6EC00E4D6EA4C046F0A5C02B
:100E280047F0A6C048F0A7C049F00EEC08F046C04D
:100E3800B2F047C0B3F048C0B4F049C0B5F015EF00
:100E480006F0B151D8A42BEF07F02DEF07F049EFCA
:100E580007F0A4C046F0A5C047F0A6C048F0A7C058
:100E680049F0DB0E4A6E0F0E4B6EC90E4C6EC00E6B
:100E78004D6E0EEC08F046C0ACF047C0ADF048C06F
:100E8800AEF049C0AFF063EF07F0A4C046F0A5C0CC
:100E980047F0A6C048F0A7C049F0DB0E4A6E0F0E17
:100EA8004B6EC90E4C6E400E4D6E0EEC08F046C0EF
:100EB800ACF047C0ADF048C0AEF049C0AFF0ACC030
:100EC80064F0ADC065F0AEC066F0AFC067F0E0ECAE
:100ED80014F064C0A4F065C0A5F066C0A6F067C0B1
:100EE800A7F00DEF08F0800EBC5D7F0EBD59D8A0AD
:100EF80080EF07F082EF07F094EF07F0FF0EBA13C8
:100F0800FF0EBB13FF0EBC13000EBD13BAC0A4F036
:100F1800BBC0A5F0BCC0A6F0BDC0A7F00DEF08F09F
:100F2800A4C084F0A5C085F0A6C086F0A7C087F04D
:100F3800B60E886F8FEC0EF000018451030BB06F72
:100F4800FEEF07F0B6C080F0B7C081F0B8C082F0FD
:100F5800B9C083F067EC23F080C0B6F081C0B7F069
:100F680082C0B8F083C0B9F0B6C064F0B7C065F00D
:100F7800B8C066F0B9C067F0E0EC14F064C0A4F043
:100F880065C0A5F066C0A6F067C0A7F00DEF08F031
:100F9800B6C064F0B7C065F0B8C066F0B9C067F015
:100FA8000DEC18F064C0A4F065C0A5F066C0A6F00A
:100FB80067C0A7F00DEF08F0B6C064F0B7C065F0E1
:100FC800B8C066F0B9C067F00DEC18F064C080F0E6
:100FD80065C081F066C082F067C083F067EC23F0DB
:100FE80080C0A4F081C0A5F082C0A6F083C0A7F09D
:100FF8000DEF08F0B051000AD8B4B8EF07F0010AB5
:10100800D8B4CCEF07F0030AD8B4A6EF07F0E0EFA6
:1010180007F012004950800B0001606F49504924C5
:10102800626F48AE1AEF08F01CEF08F01DEF08F0E9
:1010380062816251D8B423EF08F025EF08F03AEF47
:1010480008F06229D8A42BEF08F02DEF08F035EF4F
:1010580008F0000E466E000E476E000E486E000E39
:10106800496E488E000E496E42EF08F0000E466E3B
:10107800000E476E000E486E000E496E4D50800BF4
:10108800616F60516119D8B44CEF08F04EEF08F069
:101098004FEF08F0608D4D504D24616F4CAE57EF07
:1010A80008F059EF08F05AEF08F061816151D8B49F
:1010B80060EF08F062EF08F077EF08F06129D8A434
:1010C80068EF08F06AEF08F072EF08F0000E4A6E59
:1010D800000E4B6E000E4C6E000E4D6E4C8E000EC8
:1010E8004D6E7FEF08F0000E4A6E000E4B6E000E3C
:1010F8004C6E000E4D6E6251615DD8B086EF08F0FF
:1011080088EF08F0AFEF08F060AD8DEF08F08FEFD3
:1011180008F091EF08F0800E601B62C063F061C0B8
:1011280062F063C061F046C063F04AC046F063C035
:101138004AF047C063F04BC047F063C04BF048C06B
:1011480063F04CC048F063C04CF049C063F04DC038
:1011580049F063C04DF0000E636F625161C04EF0FC
:101168004F6A4E5E000E4F5A4FBEC4EF08F04F5004
:1011780009E11A0E4E5CD8A0C4EF08F0C6EF08F0DB
:10118800FDEF08F04650471048104910D8A4CFEF9B
:1011980008F0D2EF08F0010ED3EF08F0000E636FED
:1011A800000E466E000E476E000E486E000E496E29
:1011B80061C062F006EF09F063A1E5EF08F0E7EF20
:1011C80008F0EDEF08F0D89063310109636FEFEF95
:1011D80008F0D890633346A0F4EF08F0F6EF08F073
:1011E800F7EF08F0638F49344932483247324632C4
:1011F800622B6151625DD8A004EF09F006EF09F097
:10120800E0EF08F060BD0BEF09F00DEF09F04DEFCE
:1012180009F06251D8A413EF09F015EF09F01FEF98
:1012280009F0000E466E000E476E000E486E000E66
:10123800496E6EEF0AF04A5046264B5047224C50F2
:1012480048224D50492249A02CEF09F02EEF09F011
:10125800DAEF09F063A133EF09F035EF09F03BEF5E
:1012680009F0D89063310109636F3DEF09F0D89018
:10127800633346A042EF09F044EF09F045EF09F067
:10128800638F49344932483247324632622BDAEFAB
:1012980009F04A50465C4B5047584C504858495002
:1012A800800A4E6E4D50800A4E58D8B05EEF09F055
:1012B80060EF09F08BEF09F046504A5C4E6E4750DC
:1012C8004B584F6E48504C58506E49504D58516EBF
:1012D800FF0E4E24466EFF0E4F20476EFF0E502025
:1012E800486EFF0E5120496E800E601B636D63517E
:1012F800D8A481EF09F083EF09F093EF09F0010E0C
:101308004626000E47224822492293EF09F04A5008
:10131800465E4B50475A4C50485A4D50495A4650D1
:10132800471048104910D8A49CEF09F09EEF09F027
:10133800D3EF09F06351D8A4A4EF09F0A6EF09F0A0
:10134800D3EF09F0000E466E000E476E000E486E91
:10135800000E496E6EEF0AF0D8904636473648368A
:10136800493663AFBAEF09F0BCEF09F0BDEF09F0F9
:10137800468063A1C2EF09F0C4EF09F0C8EF09F095
:10138800D8806337CAEF09F0D89063376251D8B470
:10139800D0EF09F0D2EF09F0D3EF09F0620748AEB9
:1013A800D8EF09F0DAEF09F0B0EF09F0000E616F3D
:1013B80063AFE1EF09F0E3EF09F0FBEF09F063C079
:1013C8004EF07F0E4E16D8B4ECEF09F0EEEF09F0B0
:1013D800F2EF09F0010E616FFBEF09F046A0F7EF9D
:1013E80009F0F9EF09F0FBEF09F0EEEF09F06151B0
:1013F800D8B401EF0AF003EF0AF02EEF0AF0010E5D
:101408004626000E47224822492249A00EEF0AF03C
:1014180010EF0AF02EEF0AF046C04EF047C04FF02A
:1014280048C050F049C051F05134513250324F3217
:101438004E324EC046F04FC047F050C048F051C041
:1014480049F06229D8B42BEF0AF02DEF0AF02EEFFD
:101458000AF0622B6229D8B434EF0AF036EF0AF0AA
:101468003EEF0AF06251D8A43CEF0AF03EEF0AF0D2
:1014780050EF0AF0000E466E000E476E000E486EE2
:10148800000E496E6251D8A44CEF0AF04EEF0AF0F4
:1014980050EF0AF0000E606F62A155EF0AF057EFA7
:1014A8000AF05AEF0AF0488E5BEF0AF0489ED8908F
:1014B8006231496E60AF63EF0AF065EF0AF066EFDC
:1014C8000AF0498E46C046F047C047F048C048F089
:1014D80049C049F012001750800B206E175017248E
:1014E800266E16AE7AEF0AF07CEF0AF07DEF0AF06E
:1014F80026802650D8B483EF0AF085EF0AF098EFDB
:101508000AF02628D8A48BEF0AF08DEF0AF095EFA1
:101518000AF0000E146E000E156E000E166E000E08
:10152800176E168EA0EF0AF0000E146E000E156EE0
:10153800000E166E000E176E1B50800B201A1B50E3
:101548001B24216E1AAEABEF0AF0ADEF0AF0AEEF36
:101558000AF021802150D8B4B4EF0AF0B6EF0AF0AF
:10156800C9EF0AF02128D8A4BCEF0AF0BEEF0AF0B0
:10157800C6EF0AF0000E186E000E196E000E1A6EF5
:10158800000E1B6E1A8ED1EF0AF0000E186E000EB8
:10159800196E000E1A6E000E1B6E2150D8B4D7EFCC
:1015A8000AF0D9EF0AF0E1EF0AF02650D8A4DFEFED
:1015B8000AF0E1EF0AF0EBEF0AF0000E146E000EED
:1015C800156E000E166E000E176E83EF0CF01A5093
:1015D8001402F3CF2BF0F4CF2CF02B50226E236A99
:1015E800246A256A2C50276E286A296A2A6A1950A3
:1015F8001502F3CF2BF0F4CF2CF02B502226000E3F
:101608002322242225222C502726000E2822292294
:101618002A2218501602F3CF2BF0F4CF2CF02B50BF
:101628002226000E2322242225222C502726000EB3
:10163800282229222A2224C025F023C024F022C0EF
:1016480023F0226A18501502F3CF2BF0F4CF2CF0B8
:101658002B5022262C502322000E2422000E252255
:1016680019501402F3CF2BF0F4CF2CF02B50222674
:101678002C502322000E2422000E252224C025F0FF
:1016880023C024F022C023F0226A18501402F3CF9A
:101698002BF0F4CF2CF02B5022262C502322000EB6
:1016A8002422000E25221A501502F3CF2BF0F4CF76
:1016B8002CF02B5027262C502822000E2922000E11
:1016C8002A2219501602F3CF2BF0F4CF2CF02B500E
:1016D80027262C502822000E2922000E2A221A50D2
:1016E8001602F3CF2BF0F4CF2CF02B501C6E2C509D
:1016F8001D6E1E6A1F6A1EC01FF01DC01EF01CC092
:101708001DF01C6A1C5027261D5028221E50292215
:101718001F502A2222C01CF023C01DF024C01EF036
:1017280025C01FF0190E9EEF0BF0D8901F321E3205
:101738001D321C32E82E99EF0BF01C5027261D5045
:1017480028221E5029221F502A2224C025F023C0F7
:1017580024F022C023F0226A215026C01CF01D6A02
:101768001C26000E1D22820E1C242B6EFF0E1D202F
:101778002C6ED4EF0BF0D8902736283629362A3627
:1017880025AEC9EF0BF0CBEF0BF0CCEF0BF02780B9
:10179800D89022362336243625362B06D8A02C0698
:1017A80029AED9EF0BF0DBEF0BF0BFEF0BF0000E1B
:1017B800216E25AEE2EF0BF0E4EF0BF008EF0CF032
:1017C800FF0E22141C6EFF0E23141D6EFF0E241430
:1017D8001E6E7F0E25141F6E1C501D101E101F102C
:1017E800D8B4F9EF0BF0FBEF0BF0FFEF0BF0010EA5
:1017F800216E08EF0CF027A004EF0CF006EF0CF0B8
:1018080008EF0CF0FBEF0BF02150D8B40EEF0CF002
:1018180010EF0CF034EF0CF0010E2726000E2822F2
:1018280029222A222AA01BEF0CF01DEF0CF034EF1E
:101838000CF027C01CF028C01DF029C01EF02AC0DB
:101848001FF01F341F321E321D321C321CC027F0FD
:101858001DC028F01EC029F01FC02AF02B4A2C2AD0
:101868002CBE3FEF0CF02C5008E12B28D8A03FEFFE
:101878000CF041EF0CF04BEF0CF0000E276E000E51
:10188800286E800E296E7F0E2A6E79EF0CF02CBE22
:1018980058EF0CF02C5006E12B04D8B056EF0CF0A2
:1018A80058EF0CF064EF0CF0000E276E000E286E57
:1018B800000E296E000E2A6E000E206E79EF0CF0D5
:1018C8002BC026F0FF0E2716FF0E28167F0E2916AE
:1018D800000E2A1626A073EF0CF075EF0CF076EFC9
:1018E8000CF0298ED89026302A6E20502A1227C054
:1018F80014F028C015F029C016F02AC017F01200FD
:101908000001BB51D96EDA6ADECFF6FFDDCFF7FFF3
:101918000800F550250AD8A494EF0CF096EF0CF0C7
:101928007BEF0EF0BB51D96EDA6ADE2A000EDD229B
:10193800000E566E000E556E55C059F0576858681F
:10194800000EC46FC4EF0CF05980BB51D96EDA6A2F
:10195800DE2A000EDD22C4EF0CF0010EC46FC4EFC6
:101968000CF0BB51D96EDA6ADECFF6FFDDCFF7FF98
:101978000800F5502D0AD8B4A8EF0CF0B1EF0CF020
:10198800C451D8B4CAEF0CF0CCEF0CF0B5EF0CF0A2
:10199800BBC00CF0BCC00DF042EC21F00CC055F0FF
:1019A8000DC056F056BEDDEF0CF0DBEF0CF0E2EFA9
:1019B8000CF05980556C561ED8B0562A0001BB5100
:1019C800D96EDA6ADECFF6FFDDCFF7FF0800F550F3
:1019D8002E0AD8A4F2EF0CF0F4EF0CF004EF0DF09F
:1019E800BB51D96EDA6ADE2A000EDD22BBC00CF0CC
:1019F800BCC00DF042EC21F00CC057F00DC058F0FF
:101A08000001BB51D96EDA6ADECFC5F0DDCFC6F072
:101A1800C5C0F6FFC6C0F7FF0800F550640AD8B481
:101A280018EF0DF01AEF0DF028EF0DF0C5C0F6FF16
:101A3800C6C0F7FF0800F550690AD8A426EF0DF0D4
:101A480028EF0DF04DEF0DF0BC51D96EDA6A020E99
:101A5800DF26DF5CD96EDA6ADECFBFF0DECFC0F0FA
:101A6800010EC525BD6F000EC621BE6FBB51D96ED4
:101A7800DA6ABDC0DEFFBEC0DDFFB9C020F0BAC063
:101A880021F0BFC022F0C0C023F0B5EC1AF08EEFF1
:101A98000EF0000EC46FBB51D96EDA6ADECFF6FFC6
:101AA800DDCFF7FF0800F550730AD8A45EEF0DF0FC
:101AB80060EF0DF06AEF0DF0BB51D96EDA6ADE2ADD
:101AC800000EDD22010EC46FB6EF0DF0BB51D96ECA
:101AD800DA6ADECFF6FFDDCFF7FF0800F5506C0AB3
:101AE800D8A479EF0DF07BEF0DF0B6EF0DF0BB51F8
:101AF800D96EDA6ADECFBDF0DDCFBEF0010EBD27AC
:101B0800000EBE23BDC0F6FFBEC0F7FF0800F550AB
:101B18006C0AD8A492EF0DF094EF0DF0B6EF0DF02B
:101B2800BB51D96EDA6ADECFBDF0DDCFBEF0020E52
:101B3800BD27000EBE23BDC0F6FFBEC0F7FF0800DC
:101B4800F550730AD8A4ABEF0DF0ADEF0DF0B6EF7A
:101B58000DF0BB51D96EDA6A030EDE26000EDD22C7
:101B680066EF0DF0C451D8B4BCEF0DF0BEEF0DF028
:101B7800D2EF0DF0B9C010F0BAC011F0BC51D96E57
:101B8800DA6A020EDF26DF5CD96EDA6ADECF12F07F
:101B9800DECF13F0E6EC19F08EEF0EF0BB51D96EE4
:101BA800DA6ADECFC5F0DDCFC6F0C5C0F6FFC6C025
:101BB800F7FF0800F5CFC3F0EEEF0DF0C54BC62BCD
:101BC800FDEF0DF06C0EC36FFDEF0DF0000EC36F4F
:101BD800FDEF0DF0C3514C0AD8B4E2EF0DF02A0A1C
:101BE800D8B4E6EF0DF00A0AD8B4E2EF0DF0EAEF48
:101BF8000DF0C5C0F6FFC6C0F7FF0800F550660A2D
:101C0800D8A409EF0EF00BEF0EF072EF0EF035EFDF
:101C18000EF0BC51D96EDA6ADFCFBDF0040EDF26B4
:101C2800BD51D96EDA6ADECFBFF0DECFC0F0DECFAD
:101C3800C1F0DECFC2F040EF0EF0BC51D96EDA6AC7
:101C4800DFCFBDF0040EDF26BD51D96EDA6ADECFD4
:101C5800BFF0DECFC0F0DECFC1F0DECFC2F040EF84
:101C68000EF0C3514C0AD8B421EF0EF0200AD8B4B4
:101C78000DEF0EF040EF0EF0010EC525BD6F000E02
:101C8800C621BE6FBB51D96EDA6ABDC0DEFFBEC0C9
:101C9800DDFF66EF0EF0B9C084F0BAC085F0BFC0B2
:101CA80086F0C0C087F0C1C088F0C2C089F0C5C046
:101CB800F6FFC6C0F7FF0800F5CF8AF08CEC00F0FD
:101CC8008EEF0EF0C5C0F6FFC6C0F7FF0800F5504E
:101CD800660AD8B44FEF0EF072EF0EF00001BB5158
:101CE800D96EDA6ADE2A000EDD228EEF0EF0BB51C5
:101CF800D96EDA6ADECFF6FFDDCFF7FF0800F550C0
:101D0800076E086AB9C009F0BAC00AF0CAEC1FF039
:101D180072EF0EF0120015C194F016C195F017C1BC
:101D280096F018C197F084C094F085C095F086C0ED
:101D380096F087C097F0000197BFA5EF0EF0A8EFC7
:101D48000EF0010EA9EF0EF0000E936F979FDB0EB9
:101D5800945D0F0E9559C90E96594D0E9759D8B0E6
:101D6800B8EF0EF0BAEF0EF0A6EF0FF084C006F051
:101D780085C007F086C008F087C009F0BBEC23F0E7
:101D880006C09CF007C09DF008C09EF009C09FF0F7
:101D9800000E4A6E000E4B6E000E4C6E3F0E4D6EDE
:101DA800830E186EF90E196E220E1A6E3F0E1B6EF8
:101DB8009CC014F09DC015F09EC016F09FC017F08F
:101DC8006FEC0AF014C046F015C047F016C048F092
:101DD80017C049F00EEC08F046C064F047C065F043
:101DE80048C066F049C067F057EC1DF064C0A0F029
:101DF80065C0A1F066C0A2F067C0A3F0A0C006F05D
:101E0800A1C007F0A2C008F0A3C009F0010E0CECB5
:101E180019F006C098F007C099F008C09AF009C0F8
:101E28009BF0DA0E186E0F0E196EC90E1A6E3F0E61
:101E38001B6E98C014F099C015F09AC016F09BC09C
:101E480017F06FEC0AF014C068F015C069F016C0FE
:101E58006AF017C06BF09CC064F09DC065F09EC02E
:101E680066F09FC067F0DFEC22F064C08FF065C0B9
:101E780090F066C091F067C092F08FC064F090C097
:101E880065F091C066F092C067F0A30E186E850EDB
:101E9800196E880E1A6E320E1B6E98C014F099C017
:101EA80015F09AC016F09BC017F06FEC0AF014C03A
:101EB80068F015C069F016C06AF017C06BF0DFEC67
:101EC80022F000018851D96EDA6A64C0DEFF65C06D
:101ED800DEFF66C0DEFF67C0DEFF9351D8B477EF40
:101EE8000FF079EF0FF0A0EF0FF08851D96EDA6A92
:101EF800DECF80F0DECF81F0DECF82F0DECF83F060
:101F080067EC23F000018851D96EDA6A80C0DEFFE1
:101F180081C0DEFF82C0DEFF83C0DEFFA0C089F083
:101F2800A1C08AF0891F8A1F894B8A2B89C084F037
:101F38008AC085F06FEF10F0A0C084F0A1C085F0D2
:101F48006FEF10F084C006F085C007F086C008F077
:101F580087C009F0BBEC23F006C09CF007C09DF0D9
:101F680008C09EF009C09FF0000E4A6E000E4B6E2E
:101F7800000E4C6E3F0E4D6E830E186EF90E196EE4
:101F8800220E1A6E3F0E1B6E9CC014F09DC015F0F9
:101F98009EC016F09FC017F06FEC0AF014C046F010
:101FA80015C047F016C048F017C049F00EEC08F00D
:101FB80046C064F047C065F048C066F049C067F0A5
:101FC80057EC1DF064C0A0F065C0A1F066C0A2F097
:101FD80067C0A3F0A0C006F0A1C007F0A2C008F037
:101FE800A3C009F0010E0CEC19F006C098F007C068
:101FF80099F008C09AF009C09BF0DA0E186E0F0E1F
:10200800196EC90E1A6E3F0E1B6E98C014F099C057
:1020180015F09AC016F09BC017F06FEC0AF014C0C8
:1020280068F015C069F016C06AF017C06BF09CC064
:1020380064F09DC065F09EC066F09FC067F0DFEC5D
:1020480022F064C08FF065C090F066C091F067C060
:1020580092F08FC064F090C065F091C066F092C0B5
:1020680067F0A30E186E850E196E880E1A6E320E62
:102078001B6E98C014F099C015F09AC016F09BC05A
:1020880017F06FEC0AF014C068F015C069F016C0BC
:102098006AF017C06BF0DFEC22F064C08BF065C00B
:1020A8008CF066C08DF067C08EF000018851D96E43
:1020B800DA6A8BC0DEFF8CC0DEFF8DC0DEFF8EC00B
:1020C800DEFF9351D8B46BEF10F06DEF10F0A0EF76
:1020D8000FF079EF0FF012003050800B3D6E30504A
:1020E8003024446E2FAE7BEF10F07DEF10F07EEFC2
:1020F80010F044804450D8B484EF10F086EF10F00C
:102108009BEF10F04428D8A48CEF10F08EEF10F05D
:1021180096EF10F0000E2D6E000E2E6E000E2F6E34
:10212800000E306E2F8E000E306EA3EF10F0000EF2
:102138002D6E000E2E6E000E2F6E000E306E345077
:10214800800B3D1A34503424456E33AEAEEF10F098
:10215800B0EF10F0B1EF10F045804550D8B4B7EFAC
:1021680010F0B9EF10F0CEEF10F04528D8A4BFEF6B
:1021780010F0C1EF10F0C9EF10F0000E316E000E34
:10218800326E000E336E000E346E338E000E346ED7
:10219800D6EF10F0000E316E000E326E000E336E68
:1021A800000E346E3150321033103410D8A4DFEFE3
:1021B80010F0E1EF10F0F9EF10F0000E2D6E000EA8
:1021C8002E6E000E2F6E000E306E800E2F127F0EB8
:1021D80030123D5030122DC02DF02EC02EF02FC0E1
:1021E8002FF030C030F03CEF12F04450D8A4FFEF8D
:1021F80010F001EF11F00BEF11F0000E2D6E000E34
:102208002E6E000E2F6E000E306E3CEF12F0455011
:1022180044C035F0366A355E000E365A7F0E3524D6
:102228003E6E000E36203F6E2DC039F02EC03AF0BB
:102238002FC03BF030C03CF0000E2D6E000E2E6E0D
:10224800000E2F6E000E306E000E406E000E416EB6
:10225800000E426E000E436E000E456E6CEF11F0DC
:102268004550D8B43AEF11F03CEF11F053EF11F0AC
:10227800D89039363A363B363C36D8902D362E36FD
:102288002F36303643AE4BEF11F04DEF11F04EEFD5
:1022980011F02D80D89040364136423643363150C1
:1022A800395C32503A5833503B5834503C58D8A0D7
:1022B80060EF11F062EF11F06BEF11F0438C3150C9
:1022C800395E32503A5A33503B5A34503C5A452AB8
:1022D800190E456472EF11F074EF11F034EF11F03C
:1022E80039503A103B103C10D8B47DEF11F07FEF15
:1022F80011F097EF11F0408097EF11F0D8902D363C
:102308002E362F36303643AE8CEF11F08EEF11F0AB
:102318008FEF11F02D80D890403641364236433643
:102328003E06D8A03F062FAE9CEF11F09EEF11F0AD
:1023380082EF11F0000E456E43AEA5EF11F0A7EF46
:1023480011F0CBEF11F0FF0E4014356EFF0E411463
:10235800366EFF0E4214376E7F0E4314386E3550BA
:10236800361037103810D8B4BCEF11F0BEEF11F0AA
:10237800C2EF11F0010E456ECBEF11F02DA0C7EFA3
:1023880011F0C9EF11F0CBEF11F0BEEF11F045508D
:10239800D8B4D1EF11F0D3EF11F0F7EF11F0010E2F
:1023A8002D26000E2E222F22302230A0DEEF11F033
:1023B800E0EF11F0F7EF11F02DC035F02EC036F038
:1023C8002FC037F030C038F0383438323732363230
:1023D800353235C02DF036C02EF037C02FF038C05A
:1023E80030F03E4A3F2A3FBE02EF12F03F5008E16C
:1023F8003E28D8A002EF12F004EF12F00FEF12F00F
:10240800000E3F6E3E68000E2D6E000E2E6E000E02
:102418002F6E000E306E3FBE1CEF12F03F5006E1EB
:102428003E04D8B01AEF12F01CEF12F02AEF12F0A7
:10243800000E3F6E000E3E6E000E2D6E000E2E6ECC
:10244800000E2F6E000E306E000E3D6E3EC044F042
:1024580044A031EF12F033EF12F036EF12F02F8E66
:1024680037EF12F02F9ED8904430306EEDEF10F019
:10247800120094809288928692840F01389738953A
:1024880093969496949AC650F00B0209C66EC69815
:10249800C78CC68A3981C09EC050F80B0609C06E29
:1024A800C050C70B3009C06EC280190EAF6EAB8E1C
:1024B800AC98AC8AAB888A86C250830B3009C26E4E
:1024C800010E0001DC6F010EDB6F000EDD6FA7EF60
:1024D80013F07F0EDD6173EF12F075EF12F09DEFD0
:1024E80012F0330E186E330E196EF30E1A6E3F0E7D
:1024F8001B6EDD51066E076A086A096A010E0CEC4C
:1025080019F006C014F007C015F008C016F009C08D
:1025180017F06FEC0AF014C064F015C065F016C02F
:1025280066F017C067F057EC1DF00001645148ECE5
:1025380023F07E0E0001DD65A4EF12F0A6EF12F085
:1025480062EF13F0330E186E330E196EF30E1A6E17
:102558003F0E1B6EDD51FF0AD26FD251066E076A1D
:10256800086A096A010E0CEC19F006C014F007C0DD
:1025780015F008C016F009C017F06FEC0AF014C087
:1025880064F015C065F016C066F017C067F057EC28
:102598001DF00001645148EC23F062EF13F0000EC7
:1025A800316E000E326E7F0E336E430E346EC30EE4
:1025B800186EF50E196EC80E1A6E400E1B6EDD51A0
:1025C800066E076A086A096A010E0CEC19F006C063
:1025D80014F007C015F008C016F009C017F06FEC2A
:1025E8000AF014C02DF015C02EF016C02FF017C039
:1025F80030F070EC10F02DC0D3F02EC0D4F02FC006
:10260800D5F030C0D6F0D3C0A4F0D4C0A5F0D5C062
:10261800A6F0D6C0A7F089EC05F0A4C0D7F0A5C0F5
:10262800D8F0A6C0D9F0A7C0DAF0000E4A6E000EA6
:102638004B6EFE0E4C6E420E4D6E000E186E000E66
:10264800196EFE0E1A6E420E1B6ED7C014F0D8C05B
:1026580015F0D9C016F0DAC017F06FEC0AF014C004
:1026680046F015C047F016C048F017C049F00EEC08
:1026780008F046C064F047C065F048C066F049C03D
:1026880067F057EC1DF00001645148EC23F062EF4D
:1026980013F0DD51FF0A48EC23F062EF13F0DC5130
:1026A800010AD8B46DEF12F0030AD8B4D3EF12F0D0
:1026B800010AD8B44DEF13F062EF13F0C282C2B230
:1026C80068EF13F06AEF13F063EF13F0E50E000103
:1026D800CE6FFF0ECF6FC4CFD0F0D16B29EC24F0B2
:1026E80082A079EF13F07BEF13F07EEF13F0010E69
:1026F8000001DC6F80A883EF13F085EF13F088EFFB
:1027080013F0020E0001DC6F80A68DEF13F08FEF3F
:1027180013F092EF13F0030E0001DC6F80A497EF23
:1027280013F099EF13F09CEF13F0000E0001DB6F2C
:102738000001DD2B680E0001D26FE40EE82EFED7F3
:10274800D22FFCD700000001DB51D8A4AEEF13F064
:10275800B0EF13F053EF13F01200050E0001EB6F0A
:102768000F0EEA6FF10EE82EFED7EA2FFCD7EB2FFB
:10277800FAD794809288928692840F013897389578
:102788009594959694989598959A959C8C848C8612
:102798008B888C888C8A8C8C5DEC1FF0000E000175
:1027A800ED6F000EEC6F000EE76FED51CEEC1CF0F4
:1027B8000001ED6F82A0E3EF13F0E5EF13F007EFF0
:1027C80014F0030E0001EB6F080EEA6F770EE82E87
:1027D800FED7EA2FFCD7EB2FFAD782A0F6EF13F03B
:1027E800F8EF13F007EF14F082B0FDEF13F0FFEFEE
:1027F80013F0F8EF13F0020E0001E76FED51CEEC85
:102808001CF00001ED6F80A80CEF14F00EEF14F02F
:1028180030EF14F0030E0001EB6F080EEA6F770E2D
:10282800E82EFED7EA2FFCD7EB2FFAD780A81FEFA8
:1028380014F021EF14F030EF14F080B826EF14F004
:1028480028EF14F021EF14F0010E0001E76FED51AD
:10285800CEEC1CF00001ED6F80A635EF14F037EFD9
:1028680014F0C9EF14F0030E0001EB6F080EEA6FC5
:10287800770EE82EFED7EA2FFCD7EB2FFAD780A6E3
:1028880048EF14F04AEF14F0C9EF14F080B64FEF98
:1028980014F051EF14F04AEF14F0A9EF14F05D0EA4
:1028A800076EFF0E086E010E91EC20F03B0E076ECE
:1028B800FF0E086E020E91EC20F073EC1BF0010E77
:1028C8000001EC6FC9EF14F04C0E076EFF0E086E96
:1028D800010E91EC20F0A10E076EFF0E086E020E9D
:1028E80091EC20F05DEC1EF063EF14F06E0E076EB5
:1028F800FF0E086E010E91EC20F03B0E076EFF0EE6
:10290800086E020E91EC20F02BEC1CF063EF14F033
:10291800900E076EFF0E086E010E91EC20F004EC8D
:1029280017F063EF14F07F0E076EFF0E086E010EAE
:1029380091EC20F0B20E076EFF0E086E020E91ECBD
:1029480020F03DEC12F063EF14F00001ED51000AA5
:10295800D8B453EF14F0010AD8B468EF14F0030A9E
:10296800D8B47AEF14F0010AD8B48CEF14F0070A3F
:10297800D8B497EF14F0010AD8B4C9EF14F0030AD9
:10298800D8B4C9EF14F0C9EF14F080500001EC512D
:10299800D8B4D1EF14F0D3EF14F0DEEF13F0000E3B
:1029A800E76FED51CEEC1CF00001ED6F000EEC6FFF
:1029B800DEEF13F08AEF00F064C014F065C015F084
:1029C80066C016F067C017F064C018F065C019F04B
:1029D80066C01AF067C01BF06FEC0AF014C080F0F4
:1029E80015C081F016C082F017C083F080C014F0C3
:1029F80081C015F082C016F083C017F080C018F0AF
:102A080081C019F082C01AF083C01BF06FEC0AF085
:102A180014C06CF015C06DF016C06EF017C06FF0E2
:102A28003C0E186E6C0E196E360E1A6E360E1B6E34
:102A380080C014F081C015F082C016F083C017F072
:102A48006FEC0AF014C046F015C047F016C048F005
:102A580017C049F0CF0E4A6E070E4B6E500E4C6EE3
:102A6800B90E4D6E0EEC08F046C068F047C069F02C
:102A780048C06AF049C06BF080C014F081C015F0FE
:102A880082C016F083C017F064C018F065C019F052
:102A980066C01AF067C01BF06FEC0AF014C07CF037
:102AA80015C07DF016C07EF017C07FF0AB0E4A6EE1
:102AB800AA0E4B6E2A0E4C6EBE0E4D6E840E186E0C
:102AC800880E196E080E1A6E3C0E1B6E80C014F02C
:102AD80081C015F082C016F083C017F06FEC0AF0C1
:102AE80014C046F015C047F016C048F017C049F0AA
:102AF8000EEC08F046C070F047C071F048C072F0A4
:102B080049C073F06CC018F06DC019F06EC01AF0AF
:102B18006FC01BF07CC014F07DC015F07EC016F0AD
:102B28007FC017F06FEC0AF014C074F015C075F090
:102B380016C076F017C077F064C04AF065C04BF055
:102B480066C04CF067C04DF07CC018F07DC019F02D
:102B58007EC01AF07FC01BF070C014F071C015F071
:102B680072C016F073C017F06FEC0AF014C046F08C
:102B780015C047F016C048F017C049F00EEC08F031
:102B880046C078F047C079F048C07AF049C07BF079
:102B980078C046F079C047F07AC048F07BC049F069
:102BA80068C018F069C019F06AC01AF06BC01BF051
:102BB80074C014F075C015F076C016F077C017F021
:102BC8006FEC0AF014C04AF015C04BF016C04CF078
:102BD80017C04DF00EEC08F046C064F047C065F031
:102BE80048C066F049C067F0120019C166F01AC102
:102BF80067F01BC168F01CC169F046C066F047C0A9
:102C080067F048C068F049C069F0810E4A6EFF0E4F
:102C18004B6E66C04CF067C04DF068C04EF069C09E
:102C28004FF0180E1DEF16F0D8904F324E324D323D
:102C38004C32E82E18EF16F04C504A240001646F0D
:102C4800000E4B20656F65BF33EF16F0655109E143
:102C5800170E645DD8A033EF16F035EF16F03FEF8E
:102C680016F046C046F047C047F048C048F049C093
:102C780049F003EF17F065BF44EF16F046EF16F082
:102C8800B7EF16F064C04AF0FF0E4B6EFF0E4C6EA5
:102C98007F0E4D6E000E4E6E4A6655EF16F05DEFD4
:102CA80016F04E344E324D324C324B324A2E50EFE3
:102CB80016F04BC060F04CC061F04DC062F04EC0E1
:102CC80063F00001605166154A6E615167154B6EDD
:102CD800625168154C6E635169154D6E4A504B1020
:102CE8004C104D10D8A47BEF16F07DEF16F07FEF57
:102CF80016F035EF16F066C04AF067C04BF068C0B2
:102D08004CF069C04DF0200E8FEF16F0D8904D3280
:102D18004C324B324A32E82E8AEF16F04A504B10AA
:102D28004C104D10D8B49BEF16F09DEF16F0A5EFA0
:102D380016F0605166276151672362516823635119
:102D48006923601D4A6E611D4B6E621D4C6E631DCA
:102D58004D6E4A5066174B5067174C5068174D50C8
:102D68006917FBEF16F066C04AF067C04BF068C001
:102D78004CF069C04DF0200EC7EF16F0D8904D32D8
:102D88004C324B324A32E82EC2EF16F04A504B1002
:102D98004C104D10D8A4D3EF16F0D5EF16F0DFEF96
:102DA80016F0000E666F000E676F000E686F000E5B
:102DB800696FFBEF16F0D89066354A6E67354B6E33
:102DC80068354C6E69354D6E4A504B104C104D109D
:102DD800D8B4F1EF16F0F3EF16F0FBEF16F0000E93
:102DE800666F000E676F800E686FBF0E696F66C0F2
:102DF80046F067C047F068C048F069C049F0120063
:102E08000F01388B3C81C08EC050F80B0609C06E8C
:102E1800C050C70B3009C06EC28021EE62F0100EA0
:102E2800DE6AE806FDE2010E01017F6F02EF18F08D
:102E3800C250830B1409C26EC282C2B226EF17F0C9
:102E480028EF17F021EF17F0C350C4CFE7F00001C7
:102E5800E86BE7C0E8F0E76BE71101017B6F000161
:102E6800E85101017C6F000E316EC00E326E7F0E8C
:102E7800336E440E346E7BC106F07CC107F0086ADD
:102E8800096A000E0CEC19F006C02DF007C02EF0F0
:102E980008C02FF009C030F070EC10F02DC014F00D
:102EA8002EC015F02FC016F030C017F0330E186E74
:102EB800330E196E530E1A6E400E1B6E6FEC0AF02D
:102EC80014C073F115C074F116C075F117C076F10E
:102ED800C250830B1009C26EC282C2B276EF17F0DD
:102EE80078EF17F071EF17F0C350C4CFE7F0000187
:102EF800E86BE7C0E8F0E76BE71101017D6F0001BF
:102F0800E85101017E6F000E316EC00E326E7F0EE9
:102F1800336E440E346E7DC106F07EC107F0086A38
:102F2800096A000E0CEC19F006C02DF007C02EF04F
:102F380008C02FF009C030F070EC10F02DC014F06C
:102F48002EC015F02FC016F030C017F0330E186ED3
:102F5800330E196E530E1A6E400E1B6E6FEC0AF08C
:102F680014C077F115C078F116C079F117C07AF15D
:102F7800620E0001CE6F010ECF6F170ED06FFF0EDD
:102F8800D16F73C1D2F074C1D3F075C1D4F076C1DA
:102F9800D5F077C1D6F078C1D7F079C1D8F07AC129
:102FA800D9F003EC23F0620E076E010E086E020ED4
:102FB80091EC20F080A4E3EF17F0E5EF17F002EFB3
:102FC80018F0030E0001E86F080EE76F770EE82E81
:102FD800FED7E72FFCD7E82FFAD780A4F6EF17F033
:102FE800F8EF17F002EF18F080B4FDEF17F0FFEFDD
:102FF80017F0F8EF17F0000E01017F6F01017F5104
:10300800D8A409EF18F00BEF18F01CEF17F0C290D6
:10301800120064C014F065C015F066C016F067C0F1
:1030280017F064C018F065C019F066C01AF067C0E0
:103038001BF06FEC0AF014C07CF015C07DF016C0D0
:103048007EF017C07FF07CC014F07DC015F07EC004
:1030580016F07FC017F07CC018F07DC019F07EC054
:103068001AF07FC01BF06FEC0AF014C078F015C09E
:1030780079F016C07AF017C07BF0170E186E9A0E0A
:10308800196ECC0E1A6E370E1B6E7CC014F07DC004
:1030980015F07EC016F07FC017F06FEC0AF014C070
:1030A80046F015C047F016C048F017C049F03F0E6B
:1030B8004A6E040E4B6EB60E4C6EBA0E4D6E0EEC8A
:1030C80008F046C068F047C069F048C06AF049C0D7
:1030D8006BF0000E4A6E000E4B6E800E4C6E3F0E6B
:1030E8004D6E000E186E000E196E000E1A6EBF0E91
:1030F8001B6E7CC014F07DC015F07EC016F07FC03A
:1031080017F06FEC0AF014C046F015C047F016C06F
:1031180048F017C049F00EEC08F046C06CF047C004
:103128006DF048C06EF049C06FF07CC018F07DC0EB
:1031380019F07EC01AF07FC01BF078C014F079C077
:1031480015F07AC016F07BC017F06FEC0AF014C0C7
:1031580070F015C071F016C072F017C073F09F0EB2
:10316800186EAA0E196E2A0E1A6E3D0E1B6E78C0C6
:1031780014F079C015F07AC016F07BC017F06FEC28
:103188000AF014C04AF015C04BF016C04CF017C036
:103198004DF06CC046F06DC047F06EC048F06FC08F
:1031A80049F00EEC08F046C074F047C075F048C00E
:1031B80076F049C077F074C046F075C047F076C025
:1031C80048F077C049F068C018F069C019F06AC0C3
:1031D8001AF06BC01BF070C014F071C015F072C00B
:1031E80016F073C017F06FEC0AF014C04AF015C05F
:1031F8004BF016C04CF017C04DF00EEC08F046C06E
:1032080064F047C065F048C066F049C067F0120036
:103218000E6E0E50D8B413EF19F015EF19F037EF02
:1032280019F009BE1CEF19F01AEF19F037EF19F071
:1032380006C00AF007C00BF008C00CF009C00DF07A
:103248000A1E0B1E0C1E0D1E0A2A000E0B220C2233
:103258000D220AC010F00BC011F00CC012F00DC006
:1032680013F03FEF19F006C010F007C011F008C0C6
:1032780012F009C013F00650071008100910D8A45E
:1032880048EF19F04AEF19F054EF19F0000E066EE6
:10329800000E076E000E086E000E096EE5EF19F0BD
:1032A800960E0F6E5EEF19F00F2AD8901332123275
:1032B80011321032000E10140A6E000E11140B6E2B
:1032C800000E12140C6EFE0E13140D6E0A500B1025
:1032D8000C100D10D8A473EF19F075EF19F058EF12
:1032E80019F083EF19F00F2A010E1026000E112293
:1032F80012221322D8901332123211321032000ED9
:1033080010140A6E000E11140B6E000E12140C6EBF
:10331800FF0E13140D6E0A500B100C100D10D8A4CC
:1033280098EF19F09AEF19F077EF19F0A2EF19F06A
:103338000F06D890103611361236133612BEA7EF84
:1033480019F0A9EF19F0B1EF19F0020E0F60AFEF05
:1033580019F0B1EF19F09CEF19F00FB0B6EF19F0B2
:10336800B8EF19F0B9EF19F0129ED8900F320FC0CC
:103378000AF00B6A0C6A0D6A0AC00DF00C6A0B6A37
:103388000A6A0A5010120B5011120C5012120D50EA
:1033980013120E50D8B4D3EF19F0D5EF19F0DDEFB2
:1033A80019F009BEDCEF19F0DAEF19F0DDEF19F0CA
:1033B800138E10C006F011C007F012C008F013C039
:1033C80009F0120012C01AF013C01BF01A501B109B
:1033D800D8A4F1EF19F0F3EF19F0F7EF19F0C30ED5
:1033E8001A6EFF0E1B6E000E1D6E000E1C6EFFEF98
:1033F80019F01C4A1D2A1C501A24146E1D501B203B
:10340800156E14C0F6FF15C0F7FF000EF86E0F0E0C
:10341800F76403D00800F55005D0F6CFE1FFF7CFE9
:10342800E2FFE7500009D8A41CEF1AF01EEF1AF0CB
:10343800FDEF19F058BE23EF1AF025EF1AF038EF18
:103448001AF01C50575C5850800A146E1D50800AA0
:103458001458D8B032EF1AF034EF1AF038EF1AF0E7
:1034680057C01CF058C01DF01CC016F01DC017F046
:1034780055C018F056C019F059B045EF1AF047EF8B
:103488001AF083EF1AF055EF1AF0000E086E200EAE
:10349800076E10C009F011C00AF0CAEC1FF01C4AF0
:1034A8001D2A18501C5C1D50800A146E1950800A81
:1034B8001458D8A062EF1AF064EF1AF049EF1AF026
:1034C80083EF1AF01AC0F6FF1BC0F7FF000EF86E64
:1034D8000F0EF76403D00800F55005D0F6CFE1FFD2
:1034E800F7CFE2FFE750146E1450076E086A10C059
:1034F80009F011C00AF0CAEC1FF01A4A1B2A160676
:10350800D8A01706162806E11728D8A48EEF1AF0B7
:1035180090EF1AF066EF1AF059A095EF1AF097EFAE
:103528001AF0B4EF1AF0A5EF1AF0000E086E200E8C
:10353800076E10C009F011C00AF0CAEC1FF01C4A4F
:103548001D2A18501C5C1D50800A146E1950800AE0
:103558001458D8A0B2EF1AF0B4EF1AF099EF1AF095
:10356800120023BEBAEF1AF0BDEF1AF0010EBEEF3B
:103578001AF0000E2A6E58BEC6EF1AF0C4EF1AF001
:10358800CCEF1AF0000E296E010E286ED0EF1AF05B
:1035980057C028F058C029F055C026F056C027F06B
:1035A8002A50D8B4DAEF1AF0DCEF1AF0F3EF1AF079
:1035B8002606D8A027062A50D8A4E5EF1AF0E7EF88
:1035C8001AF0EDEF1AF0000E256E2B0E246EF1EFB7
:1035D8001AF0000E256E2D0E246E24C02AF0000E5F
:1035E8002C6E4F0E2B6E000E02014F6F2CEF1BF04E
:1035F8002B06D8A02C06000E2B24D96E020E2C20E8
:10360800DA6E22C006F023C007F0000E096E0A0E1B
:10361800086EEAEC20F006C00CF007C00DF0D5ECFF
:1036280023F00C50300FDF6E2806D8A02906260696
:10363800D8A0270622C006F023C007F0000E096EA6
:103648000A0E086E2FEC20F006C022F007C023F007
:103658002CBE37EF1BF02C5008E12B04D8A037EF15
:103668001BF039EF1BF04FEF1BF022502310D8A4AA
:1036780040EF1BF042EF1BF0FCEF1AF029BE4FEFB2
:103688001BF0295006E12804D8B04DEF1BF04FEF8E
:103698001BF0FCEF1AF02A50D8B455EF1BF057EF87
:1036A8001BF062EF1BF02B06D8A02C06000E2B2473
:1036B800D96E020E2C20DA6E2AC0DFFF20C017F068
:1036C80021C018F0000E2B24196E020E2C201A6E41
:1036D80026C01BF027C01CF0EEEC21F012009594D8
:1036E800959694989598959A959C0F013B953B973C
:1036F8003A993B993B9B3B9D8C848C868B888C8824
:103708008C8A8C8C928438953F0ECD16300ECD1253
:103718009D80F28CF28E010E0101246F9E809E0E18
:10372800CF6E580ECE6ECD80010E0001EE6F000EEA
:10373800216E21EEB1F010EE15F00B0EDBCFE3FF9A
:10374800E806FCE221EEA5F010EE09F00B0EDBCF47
:10375800E3FFE806FCE2000E236E0C0E226E000E5C
:10376800246E16EF1CF0000E266E000E256E2550F6
:10377800020DF350150FD96EDA6A02D8E8EF1BF084
:103788000500FA6EDE50FD6EDE50FE6EF850FF6EDC
:10379800FA5025500508076E2450090FD96EDA6AC9
:1037A800DF50086E072ADBEF1BF0D8900832072E8F
:1037B800D9EF1BF008A0E3EF1BF0E6EF1BF0010EBA
:1037C800E7EF1BF0000E1200254A262A26BEF6EF68
:1037D8001BF0265009E1060E255CD8A0F6EF1BF079
:1037E800F8EF1BF0BBEF1BF0110E086E3C0E076ED6
:1037F800CB0EE82EFED7072EFCD7082EFAD70000EE
:10380800242A2450076E086A2250071807E123501B
:103818000818D8A412EF1CF014EF1CF016EF1CF0D7
:10382800000E246E0001EE51D8A41DEF1CF01FEF0E
:103838001CF0B7EF1BF08C848C868B888C888C8A64
:103848008C8CCD909D90000E0101246F1200948401
:10385800FC0E0F014917C70EBB6E0C0EBD12BD50F2
:103868003F0B8009BD6E000EBE6E9E92BA849EA26A
:1038780040EF1CF042EF1CF03BEF1CF09484928860
:1038880092849594959694989598959A959C8C84FD
:103898008C868B888C888C8A8C8C010E106E000E1E
:1038A800116EC1EF1CF01150C70DF3CF06F0F4CF25
:1038B80007F0000E096E050E086E2FEC20F006507A
:1038C800BE6E80A86AEF1CF06CEF1CF09EEF1CF037
:1038D800030E0F6E080E0E6E770EE82EFED70E2E14
:1038E800FCD70F2EFAD7000080A87DEF1CF07FEFE1
:1038F8001CF09EEF1CF080B884EF1CF086EF1CF0E3
:103908007FEF1CF0050E1118D8A48DEF1CF08FEF77
:103918001CF093EF1CF0000E116E9EEF1CF0050ECC
:10392800116099EF1CF09BEF1CF09EEF1CF0112A20
:103938009EEF1CF080A4A3EF1CF0A5EF1CF0C1EFD4
:103948001CF0030E0F6E080E0E6E770EE82EFED7D3
:103958000E2EFCD70F2EFAD7000080A4B6EF1CF06D
:10396800B8EF1CF0C1EF1CF080B4BDEF1CF0BFEF46
:103978001CF0B8EF1CF0000E106E1050D8A4C7EF62
:103988001CF0C9EF1CF057EF1CF0F00EBD16BA94EE
:103998009D9212000101946FA0EC23F021EE95F0A6
:1039A80011EE84F00F0EDBCFE3FFE806FCE2F5EF43
:1039B8001CF0060E01019461E4EF1CF0E6EF1CF028
:1039C80005EF1DF0942B05EF1DF001019451D8B4BB
:1039D800F0EF1CF0F2EF1CF005EF1DF0940705EF77
:1039E8001DF00001E751000AD8B405EF1DF0010AE7
:1039F800D8B4DDEF1CF0030AD8B4E9EF1CF005EFEA
:103A08001DF0620E0001CE6F010ECF6FD00ED06F89
:103A1800FF0ED16F000ED36F0F0ED26F01019451BC
:103A2800020D840EF324D96E010EF420DA6EDECF77
:103A3800D4F0DDCFD5F003EC23F0730E0001CE6F88
:103A4800010ECF6FD10ED06FFF0ED16F000ED36F66
:103A5800100ED26F010194510001E86FE96BD89004
:103A6800E837E937020EE827000EE923840EE82537
:103A7800D96E010EE921DA6EDECFD4F0DDCFD5F0B4
:103A880003EC23F0620E076E010E086E010E91EC36
:103A980020F0730E076E010E086E020E91EC20F0F6
:103AA800010194511200000166356735536E535079
:103AB800D8A461EF1DF063EF1DF06DEF1DF0000E4F
:103AC800646F000E656F000E666F000E676FDAEFA9
:103AD8001DF064C068F065C069F066C06AF067C030
:103AE8006BF0200E7DEF1DF0D8906B336A3369338D
:103AF8006833E82E78EF1DF06851526E668FFF0E1E
:103B08006417FF0E6517FF0E6617000E6717960EEF
:103B1800535E53BE94EF1DF092EF1DF0AAEF1DF017
:103B28005350800A970FD8B09CEF1DF09EEF1DF000
:103B3800A0EF1DF063EF1DF0D8906733663365334F
:103B48006433533EA0EF1DF0C2EF1DF01F0E536407
:103B5800B0EF1DF0B2EF1DF0BAEF1DF063EF1DF0EE
:103B6800D890643765376637673753065350D8A4FB
:103B7800C0EF1DF0C2EF1DF0B4EF1DF05250D8B4E5
:103B8800C8EF1DF0CAEF1DF0D2EF1DF0671F661FCA
:103B9800651F646D000E65236623672364C064F0A7
:103BA80065C065F066C066F067C067F01200000E79
:103BB8002D14356E000E2E14366E800E2F14376EAF
:103BC8007F0E3014386E3550361037103810D8A4A0
:103BD800F0EF1DF0F2EF1DF0FAEF1DF0000E2D6E64
:103BE800000E2E6E000E2F6E000E306E000E311479
:103BF800356E000E3214366E800E3314376E7F0E1B
:103C08003414386E3550361037103810D8A40FEFEA
:103C18001EF011EF1EF019EF1EF0000E316E000EAF
:103C2800326E000E336E000E346E30AE1EEF1EF094
:103C380020EF1EF029EF1EF02D6C2E1ED8B02E2A74
:103C48002F1ED8B02F2A800E305634AE2EEF1EF01D
:103C580030EF1EF039EF1EF0316C321ED8B0322A28
:103C6800331ED8B0332A800E3456000E2D1A000E9B
:103C78002E1A000E2F1A800E301A000E311A000E5E
:103C8800321A000E331A800E341A31502D5C32501D
:103C98002E5833502F5834503058D8B056EF1EF0A5
:103CA80058EF1EF05BEF1EF0D8905CEF1EF0D88046
:103CB800120092840F013A9D3A9F948C948E190EAB
:103CC800AF6EAC98AB8EAC8AAB88010E0101236F46
:103CD8009D8AF28CF28E010E0001D46FCBEF1EF09C
:103CE80001016151D8B47BEF1EF07DEF1EF0A7EF04
:103CF8001EF02A0E0001CE6FFF0ECF6F250ED06F7B
:103D0800010ED16F29EC24F0000E0101616F000E45
:103D18000001D66F000ED56F250ED525D96E010E80
:103D2800D621DA6EDF6AD54BD62BD6BFA5EF1EF0AB
:103D3800D65109E13C0ED55DD8A0A5EF1EF0A7EF3E
:103D48001EF090EF1EF080A4ACEF1EF0AEEF1EF058
:103D5800CBEF1EF0030E0001D36F080ED26F770E63
:103D6800E82EFED7D22FFCD7D32FFAD780A4BFEFE7
:103D78001EF0C1EF1EF0CBEF1EF080B4C6EF1EF0B0
:103D8800C8EF1EF0C1EF1EF0000E0001D46F000155
:103D9800D451D8A4D2EF1EF0D4EF1EF074EF1EF069
:103DA800AB9EAC9AAB98000E0101236F9D9AF29CD2
:103DB800F29E12001DC110F01EC111F01FC112F0B9
:103DC80020C113F006C010F007C011F008C012F0AF
:103DD80009C013F010C00AF011C00BF012C00CF0AB
:103DE80013C00DF0180EFEEF1EF0D8900D320C32F5
:103DF8000B320A32E82EF9EF1EF00A500E6E0F6AE7
:103E08000E500F10D8A40BEF1FF00DEF1FF02DEF81
:103E18001FF0D89010340A6E11340B6E12340C6EE9
:103E280013340D6E0A500B100C100D10D8A41FEF90
:103E38001FF021EF1FF027EF1FF0000E076E020E94
:103E4800066E5CEF1FF0000E076E030E066E5CEF49
:103E58001FF00E280F10D8A434EF1FF036EF1FF014
:103E680058EF1FF010C00AF011C00BF012C00CF090
:103E780013C00DF0090ED8900A360B360C360D36E5
:103E8800E82E3FEF1FF00A500B100C100D10D8B49D
:103E980050EF1FF053EF1FF0010E54EF1FF0000E0C
:103EA800066E076A5CEF1FF0000E076E040E066EC2
:103EB80012000F013B913B939580958292908980E7
:103EC8006C50F00B08096C6E130E6E6E6C8A340E13
:103ED800076EF20EE82EFED7072EFCD76B806BB06C
:103EE80078EF1FF07AEF1FF073EF1FF0A49E7C0E9F
:103EF80016EC24F0800E16EC24F0380E16EC24F0A4
:103F0800800E16EC24F0390E16EC24F0800E16EC18
:103F180024F0170E16EC24F0800E16EC24F07A0E1E
:103F280016EC24F0800E16EC24F05E0E16EC24F04D
:103F3800800E16EC24F06B0E16EC24F0800E16ECB6
:103F480024F00C0E16EC24F0800E16EC24F0010E72
:103F580016EC24F0800E16EC24F0060E16EC24F075
:103F6800800E16EC24F0020E16EC24F06B846BB471
:103F7800C0EF1FF0C2EF1FF0BBEF1FF0340E076E4B
:103F8800F20EE82EFED7072EFCD7120009500A10B1
:103F9800D8B4D1EF1FF0D3EF1FF0DCEF1FF00950BA
:103FA8000A10D8A4DAEF1FF0DCEF1FF0E1EF1FF0E2
:103FB800075039EC24F02EEF20F020EE0AF00950DB
:103FC800D9260A50DA22DE50DE10D8B4EEEF1FF000
:103FD800F0EF1FF00BEF20F020EE0AF00950D92681
:103FE8000A50DA2210EE03F00950E1260A50E222C4
:103FF800DE50E65CE650800A0F6EDE50800A0F58ED
:10400800D8B009EF20F00BEF20F02EEF20F020EED3
:1040180003F00950D9260A50DA22DECF0BF0DDCFA3
:104028000CF009C0D9FF0AC0DAFFDECF0DF0DDCFF2
:104038000EF00B500D24D96E0C500E20DA6E07C00E
:10404800DFFF20EE03F00950D9260A50DA22DE2AD3
:10405800000EDD221200000E0B6E09BE38EF20F0B4
:1040680036EF20F03EEF20F0086C091ED8B0092A80
:10407800010E0B6E07BE45EF20F043EF20F04BEF2B
:1040880020F0066C071ED8B0072A010E0B1A000E86
:104098000D6E000E0C6E08500910D8B456EF20F0C3
:1040A80058EF20F080EF20F0010E0A6E60EF20F04C
:1040B800D890083609360A2A09AE65EF20F067EF6E
:1040C80020F05CEF20F0D8900C360D360850065CD6
:1040D80009500758D8A073EF20F075EF20F07AEF59
:1040E80020F00850065E0950075A0C80D890093213
:1040F80008320A2E67EF20F00B50D8B486EF20F074
:1041080088EF20F08CEF20F00C6C0D1ED8B00D2A33
:104118000CC006F00DC007F012000B6E6B806BB080
:1041280098EF20F09AEF20F093EF20F0A49E7C0EF9
:1041380016EC24F0800E16EC24F00B04D8A4A7EF9C
:1041480020F0A9EF20F0AEEF20F0800E16EC24F05E
:10415800BAEF20F0020E0B18D8A4B5EF20F0B7EF95
:1041680020F0BAEF20F0C00E16EC24F0400E16EC4A
:1041780024F0000E0C6E0C500724096E000E082067
:104188000A6E09C0F6FF0AC0F7FF000EF86E0F0EA0
:10419800F76403D00800F55005D0F6CFE1FFF7CF5C
:1041A800E2FFE75016EC24F00C2A0F0E0C64DFEF48
:1041B80020F0E1EF20F0BFEF20F06B846BB4E7EF65
:1041C80020F0E9EF20F0E2EF20F01200000E0B6E75
:1041D80007BEF3EF20F0F1EF20F0F9EF20F0066CC6
:1041E800071ED8B0072A010E0B6E09BE00EF21F09A
:1041F800FEEF20F004EF21F0086C091ED8B0092A60
:1042080008500910D8B40BEF21F00DEF21F031EF71
:1042180021F0010E0A6E15EF21F0D8900836093604
:104228000A2A09AE1AEF21F01CEF21F011EF21F054
:104238000850065C09500758D8A025EF21F027EF51
:1042480021F02BEF21F00850065E0950075AD8904C
:10425800093208320A2E1CEF21F00B50D8B437EF80
:1042680021F039EF21F03DEF21F0066C071ED8B0A0
:10427800072A06C006F007C007F01200000E106EED
:10428800000E0F6E0C50D96EDA6ADECFF6FFDDCF66
:10429800F7FF0800F5502A0AD8A455EF21F057EF88
:1042A80021F081EF21F00C50D96EDA6ADE2A000E77
:1042B800DD220D50D96EDA6A020EDF26DF5CD96E78
:1042C800DA6ADECF0FF0DECF10F094EF21F00FC0E6
:1042D80006F010C007F0000E096E0A0E086E03EC17
:1042E80024F00E5006240F6E000E0720106E0C509E
:1042F800D96EDA6ADE2A000EDD220C50D96EDA6A2F
:10430800DECFF6FFDDCFF7FF0800F550D00F0E6EB9
:10431800090E0E6492EF21F094EF21F06BEF21F07B
:104328000FC00CF010C00DF01200000E06140E6E37
:10433800000E07140F6E800E0814106E7F0E0914FD
:10434800116E0E500F1010101110D8A4AEEF21F0FE
:10435800B0EF21F0B8EF21F0000E066E000E076EE8
:10436800000E086E000E096E000E0A140E6E000E86
:104378000B140F6E800E0C14106E7F0E0D14116E40
:104388000E500F1010101110D8A4CDEF21F0CFEF60
:1043980021F0D7EF21F0000E0A6E000E0B6E000E12
:1043A8000C6E000E0D6E0A5006180FE10B50071820
:1043B8000CE10C50081809E10D500918D8B4E7EFC2
:1043C80021F0E9EF21F0ECEF21F0D890EDEF21F0AA
:1043D800D880120059A0F3EF21F0F5EF21F0FFEF9C
:1043E80021F019C010F01AC011F017C012F018C04F
:1043F80013F026EC23F01CBE06EF22F004EF22F0A7
:104408000AEF22F0000E1C6E000E1B6E000E1F6ECF
:10441800000E1E6E1CEF22F0000E086E200E076EB6
:1044280017C009F018C00AF0CAEC1FF01E4A1F2A6C
:104438001B501E5C1F50800A1D6E1C50800A1D58A0
:10444800D8A029EF22F02BEF22F010EF22F059B07C
:1044580030EF22F032EF22F03CEF22F019C010F0DA
:104468001AC011F017C012F018C013F026EC23F090
:10447800120009BE42EF22F044EF22F04EEF22F084
:1044880006C006F007C007F008C008F009C009F028
:1044980067EF22F006C00AF007C00BF008C00CF066
:1044A80009C00DF00A1E0B1E0C1E0D1E0A2A000E56
:1044B8000B220C220D220AC006F00BC007F00CC01C
:1044C80008F00DC009F01200DE0EF66E470EF76E0A
:1044D800000EF86E01EE95F010EE28F00900F5CF09
:1044E800EEFFE550E150FAE102EE00F0500EEE6A00
:1044F800E806FDE101EE00F0620EEE6AE806FDE175
:104508000001EE6B596A586A576A566A556A5A909A
:104518005A92000EF86E0001B1EF13F008C00FF0C8
:1045280009C010F006C00DF007C00EF0ACEF22F085
:104538000FC0D9FF10C0DAFFDF500C6E0F4A102AE7
:104548000DC0D9FF0EC0DAFF0CC0DFFF0D4A0E2ADE
:104558000A06D8A00B060A2806E10B28D8A4B7EF4C
:1045680022F0B9EF22F09CEF22F01200C9C0CCF083
:10457800CAC0CDF0CBEF22F0C7C0B9F0C8C0BAF0BE
:10458800CC0E0001BB6FCBC0BCF084EC0CF0CCC0EF
:10459800F6FFCDC0F7FF0800F5500009D8A4D7EF03
:1045A80022F0D9EF22F0C0EF22F0000E0001C86F10
:1045B800000EC76F1200000E0001681B000E691B79
:1045C800000E6A1B800E6B1B64C046F065C047F086
:1045D80066C048F067C049F068C04AF069C04BF04F
:1045E8006AC04CF06BC04DF00EEC08F046C064F0A9
:1045F80047C065F048C066F049C067F01200D20EA7
:104608000001DA6FCEC0DBF0CFC0DCF0000EDF6F48
:10461800000EDE6F000EE66F000EE56FDB0EC76F53
:10462800C86BD0C0C9F0D1C0CAF0DA0ECB6FBAECF3
:1046380022F00001DE51CE25D96EDF51CF21DA6E8E
:10464800DF6A1200000E166E000E156E37EF23F0AB
:1046580014C007F0086A12C009F013C00AF0CAECC7
:104668001FF0154A162A15501024D96E165011201D
:10467800DA6EDF50146E1450D8A445EF23F047EFDC
:1046880023F02CEF23F01200086E08380F0B3009C6
:10469800066E0838F00B076E8A9606C0C9FF9EA6FC
:1046A80058EF23F05AEF23F053EF23F09E9607C0FC
:1046B800C9FF9EA662EF23F064EF23F05DEF23F0BD
:1046C8009E968A8612000001805181118211831101
:1046D800D8B471EF23F073EF23F07BEF23F0000ED3
:1046E800801B000E811B000E821B800E831B80C066
:1046F80080F081C081F082C082F083C083F0120014
:1047080006C00AF007C00BF008C0F6FF09C0F7FFA3
:10471800084A092A0AC0D9FF0BC0DAFF0A4A0B2A3D
:104728000800F5CFDFFFDF50D8A49DEF23F09FEFFF
:1047380023F088EF23F012006B806BB0A6EF23F014
:10474800A8EF23F0A1EF23F0A49E7C0E16EC24F032
:10475800800E16EC24F0010E16EC24F06B846BB47A
:10476800B8EF23F0BAEF23F0B3EF23F0120011C132
:104778000AF012C10BF013C10CF014C10DF006C001
:104788000AF007C00BF008C00CF009C00DF00D9E30
:104798000AC006F00BC007F00CC008F00DC009F005
:1047A80012000DBEDAEF23F0DCEF23F0E2EF23F086
:1047B8000CC00CF00DC00DF0EEEF23F00CC00EF0A5
:1047C8000DC00FF00E1E0F1E0E4A0F2A0EC00CF061
:1047D8000FC00DF01200DBFFE0FFFAFFF6FFF2FF5B
:1047E800D6FFCAFF3AFF2030180C06030103060C57
:1047F8001830C048B248A44896488848CE48065061
:104808000802F3CF0AF0F4CF0BF006500902F35078
:104818000B2607500802F3500B260AC006F00BC0FF
:1048280007F01200066E06C06FFF6DB01EEF24F091
:1048380020EF24F019EF24F0A4AE25EF24F027EFA1
:1048480024F020EF24F0A49E1200D00E546E000E27
:104858000001C76F000EC86FCEC0C9F0CFC0CAF044
:10486800540ECB6FBAEC22F01200066E9EA83FEFF2
:1048780024F041EF24F03AEF24F006C0ADFF120017
:10488800066E06B002D08C9A01D08C8A1200066E91
:1048980006B002D08C9801D08C881200066E06B043
:1048A80002D08B9801D08B881200066E06B002D019
:1048B8008C9601D08C861200066E06B002D08C94BD
:1048C80001D08C841200066E06B002D08C9C01D0F8
:0448D8008C8C1200B2
:10FED600003C6C3636CF0750B98488083CABAA2A5A
:10FEE600BEA3858832DA0FC93F83F9223F0000009E
:10FEF6003F179ACC373F04B6BA9FAA2A3D000000A6
:10FF0600BFDB0FC940E4CB9640DB0F4940DB0FC98E
:10FF16003F504F54313A252E3166504F54323A25D0
:10FF26002E316600446F7374616C206A73656D20B0
:10FF36002573200A00202020202020202020202099
:10FF460020202020200042523A2031393230302001
:10FF560020202020202000506F7A6F7221204861D7
:10FF660064212121202020005A6D61636B6E657427
:10FF7600652042544E322020005242302D41322C10
:10FF86002042523A313932303000566F6C74792043
:10FF96006E6120504F546563683A004B6F6E65631F
:10FFA600202D206E6577206C696E6500313A74727B
:10FFB6002C323A73696E2C333A70696C00286E7570
:10FFC6006C6C29004D55534943003E252D2A73007C
:10FFD60047414D45004750494F0055415254002571
:10FFE60064200D00696E66006E616E004441430038
:09FFF6004144430050574D000046
:020000040030CA
:04000000FF331F3C6F
:00000001FF
