:040000005BEF1AF0A8
:10100000003C6C3636CF0750B98488083CABAA2A1E
:10101000BEA3858832DA0FC93F83F9223F00000062
:101020003F179ACC373F04B6BA9FAA2A3D0000006A
:10103000BFDB0FC940E4CB9640DB0F4940DB0FC953
:071040003F2564200D0000B4
:101048009AC0B0F09BC0B1F09CC0B2F09DC0B3F0A4
:101058000001B3BF32EF08F035EF08F0010E36EFAC
:1010680008F0000EA76FB39FDB0EB05D0F0EB159ED
:10107800490EB2593F0EB359D8B045EF08F047EFC3
:1010880008F070EF08F0800EB25D390EB359D8B091
:1010980050EF08F052EF08F05CEF08F09AC09AF0B1
:1010A8009BC09BF09CC09CF09DC09DF0A8EF0AF0EF
:1010B8009AC051F09BC052F09CC053F09DC054F0B0
:1010C80025EC14F051C09AF052C09BF053C09CF02C
:1010D80054C09DF0A8EF0AF0D20EB05D530EB1597E
:1010E8007B0EB259400EB359D8B07DEF08F07FEFB0
:1010F80008F062EF09F0E40EB05DCB0EB159160EA0
:10110800B259400EB359D8B08CEF08F08EEF08F002
:10111800FCEF08F0A751D8B494EF08F096EF08F068
:10112800CEEF08F0DB0E456E0F0E466EC90E476E09
:101138003F0E486E9AC041F09BC042F09CC043F0FD
:101148009DC044F0A9EC0AF041C0A8F042C0A9F043
:1011580043C0AAF044C0ABF0A8C051F0A9C052F0F7
:10116800AAC053F0ABC054F03EEC15F051C078F073
:1011780052C079F053C07AF054C07BF0FDEC19F0FE
:1011880078C09AF079C09BF07AC09CF07BC09DF043
:10119800A8EF0AF09AC041F09BC042F09CC043F00F
:1011A8009DC044F0DB0E456E0F0E466EC90E476EAD
:1011B800BF0E486EA9EC0AF041C0A8F042C0A9F0E1
:1011C80043C0AAF044C0ABF0A8C051F0A9C052F087
:1011D800AAC053F0ABC054F03EEC15F051C09AF0E1
:1011E80052C09BF053C09CF054C09DF0A8EF0AF089
:1011F800A751D8A402EF09F004EF09F02AEF09F08B
:10120800DB0E456E0F0E466E490E476EC00E486ED9
:101218009AC041F09BC042F09CC043F09DC044F08E
:10122800A9EC0AF041C078F042C079F043C07AF0E6
:1012380044C07BF0FDEC19F078C09EF079C09FF0B7
:101248007AC0A0F07BC0A1F04EEF09F0DB0E456E2E
:101258000F0E466E490E476E400E486E9AC041F01A
:101268009BC042F09CC043F09DC044F0A9EC0AF03A
:1012780041C078F042C079F043C07AF044C07BF0B6
:10128800FDEC19F078C09EF079C09FF07AC0A0F00C
:101298007BC0A1F09EC051F09FC052F0A0C053F097
:1012A800A1C054F025EC14F051C09AF052C09BF044
:1012B80053C09CF054C09DF0A8EF0AF0D60EB05D64
:1012C800310EB159E20EB259400EB359D8B06FEF92
:1012D80009F071EF09F012EF0AF0E00EB05DED0EC3
:1012E800B159AF0EB259400EB359D8B07EEF09F0DC
:1012F80080EF09F0C0EF09F0A751D8B486EF09F0E4
:1013080088EF09F0A4EF09F09AC041F09BC042F0C1
:101318009CC043F09DC044F0E40E456ECB0E466E73
:10132800960E476E400E486EA9EC0AF041C0A8F030
:1013380042C0A9F043C0AAF044C0ABF0E8EF08F0FF
:10134800E40E456ECB0E466E960E476EC00E486E86
:101358009AC041F09BC042F09CC043F09DC044F04D
:10136800A9EC0AF041C0A8F042C0A9F043C0AAF015
:1013780044C0ABF0B0EF08F0A751D8A4C6EF09F00D
:10138800C8EF09F0E4EF09F09AC041F09BC042F0C1
:101398009CC043F09DC044F0DB0E456E0F0E466EB8
:1013A800C90E476EC00E486EA9EC0AF041C0A2F003
:1013B80042C0A3F043C0A4F044C0A5F0FEEF09F07A
:1013C8009AC041F09BC042F09CC043F09DC044F0DD
:1013D800DB0E456E0F0E466EC90E476E400E486E08
:1013E800A9EC0AF041C0A2F042C0A3F043C0A4F0A7
:1013F80044C0A5F0A2C051F0A3C052F0A4C053F05D
:10140800A5C054F025EC14F051C09AF052C09BF0DE
:1014180053C09CF054C09DF0A8EF0AF0800EB25D56
:101428007F0EB359D8A01BEF0AF01DEF0AF02FEF7B
:101438000AF0FF0EB013FF0EB113FF0EB213000E29
:10144800B313B0C09AF0B1C09BF0B2C09CF0B3C067
:101458009DF0A8EF0AF09AC07CF09BC07DF09CC07C
:101468007EF09DC07FF0AC0E806F1EEC0FF0000187
:101478007C51030BA66F99EF0AF0ACC078F0ADC0B1
:1014880079F0AEC07AF0AFC07BF0FDEC19F078C00F
:10149800ACF079C0ADF07AC0AEF07BC0AFF0ACC0B4
:1014A80051F0ADC052F0AEC053F0AFC054F025ECCF
:1014B80014F051C09AF052C09BF053C09CF054C035
:1014C8009DF0A8EF0AF0ACC051F0ADC052F0AEC02C
:1014D80053F0AFC054F03EEC15F051C09AF052C032
:1014E8009BF053C09CF054C09DF0A8EF0AF0ACC02C
:1014F80051F0ADC052F0AEC053F0AFC054F03EEC66
:1015080015F051C078F052C079F053C07AF054C049
:101518007BF0FDEC19F078C09AF079C09BF07AC0A6
:101528009CF07BC09DF0A8EF0AF0A651000AD8B441
:1015380053EF0AF0010AD8B467EF0AF0030AD8B4E7
:1015480041EF0AF07BEF0AF012004450800B4D6E19
:10155800445044244F6E43AEB4EF0AF0B6EF0AF09D
:10156800B7EF0AF04F804F50D8B4BDEF0AF0BFEF85
:101578000AF0D4EF0AF04F28D8A4C5EF0AF0C7EF55
:101588000AF0CFEF0AF0000E416E000E426E000E18
:10159800436E000E446E438E000E446EDCEF0AF07C
:1015A800000E416E000E426E000E436E000E446E39
:1015B8004850800B4E6E4D504E18D8B4E6EF0AF0E6
:1015C800E8EF0AF0E9EF0AF04D8C485048244E6ED7
:1015D80047AEF1EF0AF0F3EF0AF0F4EF0AF04E80AD
:1015E8004E50D8B4FAEF0AF0FCEF0AF011EF0BF006
:1015F8004E28D8A402EF0BF004EF0BF00CEF0BF021
:10160800000E456E000E466E000E476E000E486EC8
:10161800478E000E486E19EF0BF0000E456E000E57
:10162800466E000E476E000E486E4F504E5CD8B0A6
:1016380020EF0BF022EF0BF049EF0BF04DAC27EF4A
:101648000BF029EF0BF02BEF0BF0800E4D1A4FC06B
:1016580050F04EC04FF050C04EF041C050F045C061
:1016680041F050C045F042C050F046C042F050C072
:1016780046F043C050F047C043F050C047F044C064
:1016880050F048C044F050C048F0000E506E4F5023
:101698004EC049F04A6A495E000E4A5A4ABE5EEF99
:1016A8000BF04A5009E11A0E495CD8A05EEF0BF026
:1016B80060EF0BF097EF0BF04150421043104410CD
:1016C800D8A469EF0BF06CEF0BF0010E6DEF0BF087
:1016D800000E506E000E416E000E426E000E436EFC
:1016E800000E446E4EC04FF0A0EF0BF050A07FEFFD
:1016F8000BF081EF0BF087EF0BF0D8905030010919
:10170800506E89EF0BF0D890503241A08EEF0BF05D
:1017180090EF0BF091EF0BF0508E4434443243328B
:10172800423241324F2A4E504F5CD8A09EEF0BF008
:10173800A0EF0BF07AEF0BF04DBCA5EF0BF0A7EF85
:101748000BF0E7EF0BF04F50D8A4ADEF0BF0AFEF75
:101758000BF0B9EF0BF0000E416E000E426E000E5A
:10176800436E000E446E08EF0DF04550412646507A
:101778004222475043224850442244A0C6EF0BF06F
:10178800C8EF0BF074EF0CF050A0CDEF0BF0CFEFDB
:101798000BF0D5EF0BF0D89050300109506ED7EF11
:1017A8000BF0D890503241A0DCEF0BF0DEEF0BF0DD
:1017B800DFEF0BF0508E4434443243324232413230
:1017C8004F2A74EF0CF04550415C46504258475040
:1017D80043584450800A496E4850800A4958D8B046
:1017E800F8EF0BF0FAEF0BF025EF0CF04150455CE9
:1017F800496E425046584A6E435047584B6E4450C3
:1018080048584C6EFF0E4924416EFF0E4A20426E26
:10181800FF0E4B20436EFF0E4C20446E800E4D1A77
:10182800506C5050D8A41BEF0CF01DEF0CF02DEFAE
:101838000CF0010E4126000E4222432244222DEFD5
:101848000CF04550415E4650425A4750435A485062
:10185800445A4150421043104410D8A436EF0CF0BB
:1018680038EF0CF06DEF0CF05050D8A43EEF0CF0B0
:1018780040EF0CF06DEF0CF0000E416E000E426E62
:10188800000E436E000E446E08EF0DF0D8904136FE
:1018980042364336443650AE54EF0CF056EF0CF057
:1018A80057EF0CF0418050A05CEF0CF05EEF0CF0AD
:1018B80062EF0CF0D880503664EF0CF0D8905036B8
:1018C8004F50D8B46AEF0CF06CEF0CF06DEF0CF0E1
:1018D8004F0643AE72EF0CF074EF0CF04AEF0CF0C9
:1018E800000E4E6E50AE7BEF0CF07DEF0CF095EFD6
:1018F8000CF050C049F07F0E4916D8B486EF0CF0B2
:1019080088EF0CF08CEF0CF0010E4E6E95EF0CF09A
:1019180041A091EF0CF093EF0CF095EF0CF088EFED
:101928000CF04E50D8B49BEF0CF09DEF0CF0C8EFC4
:101938000CF0010E4126000E42224322442244A00C
:10194800A8EF0CF0AAEF0CF0C8EF0CF041C049F07A
:1019580042C04AF043C04BF044C04CF04C344C32C7
:101968004B324A32493249C041F04AC042F04BC07A
:1019780043F04CC044F04F28D8B4C5EF0CF0C7EF83
:101988000CF0C8EF0CF04F2A4F28D8B4CEEF0CF06B
:10199800D0EF0CF0D8EF0CF04F50D8A4D6EF0CF0E5
:1019A800D8EF0CF0EAEF0CF0000E416E000E426E1C
:1019B800000E436E000E446E4F50D8A4E6EF0CF0B4
:1019C800E8EF0CF0EAEF0CF0000E4D6E4FA0EFEFD1
:1019D8000CF0F1EF0CF0F4EF0CF0438EF5EF0CF097
:1019E800439ED8904F30446E4DAEFDEF0CF0FFEFA4
:1019F8000CF000EF0DF0448E41C041F042C042F0BF
:101A080043C043F044C044F012001250800B1B6ED8
:101A180012501224216E11AE14EF0DF016EF0DF0D6
:101A280017EF0DF021802150D8B41DEF0DF01FEFF6
:101A38000DF032EF0DF02128D8A425EF0DF027EF97
:101A48000DF02FEF0DF0000E0F6E000E106E000E51
:101A5800116E000E126E118E3AEF0DF0000E0F6E21
:101A6800000E106E000E116E000E126E1650800BD6
:101A78001B1A16501624206E15AE45EF0DF047EFD1
:101A88000DF048EF0DF020802050D8B44EEF0DF047
:101A980050EF0DF063EF0DF02028D8A456EF0DF0AD
:101AA80058EF0DF060EF0DF0000E136E000E146E7F
:101AB800000E156E000E166E158E6BEF0DF0000EF3
:101AC800136E000E146E000E156E000E166E20506A
:101AD800D8B471EF0DF073EF0DF07BEF0DF02150DE
:101AE800D8A479EF0DF07BEF0DF085EF0DF0000E27
:101AF8000F6E000E106E000E116E000E126E1DEFAE
:101B08000FF015500F02F3CF26F0F4CF27F0265030
:101B18001C6E1D6A1E6A1F6A2750226E236A246A79
:101B2800256A14501002F3CF26F0F4CF27F0265080
:101B38001C26000E1D221E221F2227502226000EC0
:101B480023222422252213501102F3CF26F0F4CFAA
:101B580027F026501C26000E1D221E221F22275069
:101B68002226000E2322242225221EC01FF01DC07B
:101B78001EF01CC01DF01C6A13501002F3CF26F093
:101B8800F4CF27F026501C2627501D22000E1E22B7
:101B9800000E1F2214500F02F3CF26F0F4CF27F0C7
:101BA80026501C2627501D22000E1E22000E1F2222
:101BB8001EC01FF01DC01EF01CC01DF01C6A135073
:101BC8000F02F3CF26F0F4CF27F026501C2627501B
:101BD8001D22000E1E22000E1F2215501002F3CFE8
:101BE80026F0F4CF27F02650222627502322000E75
:101BF8002422000E252214501102F3CF26F0F4CF30
:101C080027F02650222627502322000E2422000ED9
:101C1800252215501102F3CF26F0F4CF27F02650D5
:101C2800176E2750186E196A1A6A19C01AF018C068
:101C380019F017C018F0176A1750222618502322D7
:101C4800195024221A5025221CC017F01DC018F064
:101C58001EC019F01FC01AF0190E38EF0EF0D890F8
:101C68001A32193218321732E82E33EF0EF01750A5
:101C7800222618502322195024221A5025221EC029
:101C88001FF01DC01EF01CC01DF01C6A205021C092
:101C980017F0186A1726000E1822820E1724266ECF
:101CA800FF0E1820276E6EEF0EF0D89022362336DE
:101CB800243625361FAE63EF0EF065EF0EF066EFA3
:101CC8000EF02280D8901C361D361E361F3626068A
:101CD800D8A0270624AE73EF0EF075EF0EF059EF7B
:101CE8000EF0000E206E1FAE7CEF0EF07EEF0EF0B1
:101CF800A2EF0EF0FF0E1C14176EFF0E1D14186EC7
:101D0800FF0E1E14196E7F0E1F141A6E175018102E
:101D180019101A10D8B493EF0EF095EF0EF099EF52
:101D28000EF0010E206EA2EF0EF022A09EEF0EF034
:101D3800A0EF0EF0A2EF0EF095EF0EF02050D8B401
:101D4800A8EF0EF0AAEF0EF0CEEF0EF0010E22264D
:101D5800000E23222422252225A0B5EF0EF0B7EF8E
:101D68000EF0CEEF0EF022C017F023C018F024C0FA
:101D780019F025C01AF01A341A32193218321732EB
:101D880017C022F018C023F019C024F01AC025F09B
:101D9800264A272A27BED9EF0EF0275008E1262821
:101DA800D8A0D9EF0EF0DBEF0EF0E5EF0EF0000E45
:101DB800226E000E236E800E246E7F0E256E13EFAA
:101DC8000FF027BEF2EF0EF0275006E12604D8B038
:101DD800F0EF0EF0F2EF0EF0FEEF0EF0000E226EB6
:101DE800000E236E000E246E000E256E000E1B6E74
:101DF80013EF0FF026C021F0FF0E2216FF0E231658
:101E08007F0E2416000E251621A00DEF0FF00FEF00
:101E18000FF010EF0FF0248ED8902130256E1B5054
:101E2800251222C00FF023C010F024C011F025C0E5
:101E380012F01200E2C08AF0E3C08BF0E4C08CF02C
:101E4800E5C08DF07CC08AF07DC08BF07EC08CF040
:101E58007FC08DF000018DBF34EF0FF037EF0FF02A
:101E6800010E38EF0FF0000E896F8D9FDB0E8A5D33
:101E78000F0E8B59C90E8C594D0E8D59D8B047EF9E
:101E88000FF049EF0FF035EF10F07CC001F07DC086
:101E980002F07EC003F07FC004F01AEC1AF001C013
:101EA80092F002C093F003C094F004C095F0000EC5
:101EB800456E000E466E000E476E3F0E486E830E4E
:101EC800136EF90E146E220E156E3F0E166E92C02A
:101ED8000FF093C010F094C011F095C012F009EC07
:101EE8000DF00FC041F010C042F011C043F012C015
:101EF80044F0A9EC0AF041C051F042C052F043C08E
:101F080053F044C054F0F8EC17F051C096F052C0AA
:101F180097F053C098F054C099F096C001F097C05C
:101F280002F098C003F099C004F0010E1EEC17F0FF
:101F380001C08EF002C08FF003C090F004C091F091
:101F4800DA0E136E0F0E146EC90E156E3F0E166E56
:101F58008EC00FF08FC010F090C011F091C012F039
:101F680009EC0DF00FC055F010C056F011C057F035
:101F780012C058F092C051F093C052F094C053F080
:101F880095C054F09AEC19F051C085F052C086F013
:101F980053C087F054C088F085C051F086C052F015
:101FA80087C053F088C054F0A30E136E850E146ECC
:101FB800880E156E320E166E8EC00FF08FC010F0A0
:101FC80090C011F091C012F009EC0DF00FC055F05F
:101FD80010C056F011C057F012C058F09AEC19F022
:101FE80000018051D96EDA6A51C0DEFF52C0DEFFAF
:101FF80053C0DEFF54C0DEFF8951D8B406EF10F09D
:1020080008EF10F02FEF10F08051D96EDA6ADECFAA
:1020180078F0DECF79F0DECF7AF0DECF7BF0FDEC22
:1020280019F000018051D96EDA6A78C0DEFF79C0F4
:10203800DEFF7AC0DEFF7BC0DEFF96C05BF097C094
:102048005CF05B1E5C1E5B4A5C2A5BC07CF05CC07B
:102058007DF0FEEF10F096C07CF097C07DF0FEEFAB
:1020680010F07CC001F07DC002F07EC003F07FC09C
:1020780004F01AEC1AF001C092F002C093F003C009
:1020880094F004C095F0000E456E000E466E000EEA
:10209800476E3F0E486E830E136EF90E146E220EB5
:1020A800156E3F0E166E92C00FF093C010F094C0DC
:1020B80011F095C012F009EC0DF00FC041F010C0FE
:1020C80042F011C043F012C044F0A9EC0AF041C03C
:1020D80051F042C052F043C053F044C054F0F8EC01
:1020E80017F051C096F052C097F053C098F054C002
:1020F80099F096C001F097C002F098C003F099C01B
:1021080004F0010E1EEC17F001C08EF002C08FF033
:1021180003C090F004C091F0DA0E136E0F0E146E27
:10212800C90E156E3F0E166E8EC00FF08FC010F0E0
:1021380090C011F091C012F009EC0DF00FC055F0ED
:1021480010C056F011C057F012C058F092C051F0AC
:1021580093C052F094C053F095C054F09AEC19F023
:1021680051C085F052C086F053C087F054C088F043
:1021780085C051F086C052F087C053F088C054F033
:10218800A30E136E850E146E880E156E320E166E23
:102198008EC00FF08FC010F090C011F091C012F0F7
:1021A80009EC0DF00FC055F010C056F011C057F0F3
:1021B80012C058F09AEC19F051C081F052C082F068
:1021C80053C083F054C084F000018051D96EDA6A9C
:1021D80081C0DEFF82C0DEFF83C0DEFF84C0DEFF79
:1021E8008951D8B4FAEF10F0FCEF10F02FEF10F08F
:1021F80008EF10F012002B50800B386E2B502B2458
:102208003F6E2AAE0AEF11F00CEF11F00DEF11F04E
:102218003F803F50D8B413EF11F015EF11F02AEFBB
:1022280011F03F28D8A41BEF11F01DEF11F025EF96
:1022380011F0000E286E000E296E000E2A6E000E98
:102248002B6E2A8E000E2B6E32EF11F0000E286EC8
:10225800000E296E000E2A6E000E2B6E2F50800B7A
:10226800381A2F502F24406E2EAE3DEF11F03FEF5D
:1022780011F040EF11F040804050D8B446EF11F013
:1022880048EF11F05DEF11F04028D8A44EEF11F09F
:1022980050EF11F058EF11F0000E2C6E000E2D6E5D
:1022A800000E2E6E000E2F6E2E8E000E2F6E65EF16
:1022B80011F0000E2C6E000E2D6E000E2E6E000E0C
:1022C8002F6E2C502D102E102F10D8A46EEF11F059
:1022D80070EF11F088EF11F0000E286E000E296ED5
:1022E800000E2A6E000E2B6E800E2A127F0E2B1205
:1022F80038502B1228C028F029C029F02AC02AF00B
:102308002BC02BF0CBEF12F03F50D8A48EEF11F07A
:1023180090EF11F09AEF11F0000E286E000E296E62
:10232800000E2A6E000E2B6ECBEF12F040503FC00D
:1023380030F0316A305E000E315A7F0E3024396E2B
:10234800000E31203A6E28C034F029C035F02AC07A
:1023580036F02BC037F0000E286E000E296E000EE6
:102368002A6E000E2B6E000E3B6E000E3C6E000EA9
:102378003D6E000E3E6E000E406EFBEF11F04050B9
:10238800D8B4C9EF11F0CBEF11F0E2EF11F0D8900B
:102398003436353636363736D890283629362A3602
:1023A8002B363EAEDAEF11F0DCEF11F0DDEF11F075
:1023B8002880D8903B363C363D363E362C50345C2F
:1023C8002D5035582E5036582F503758D8A0EFEF8B
:1023D80011F0F1EF11F0FAEF11F03E8C2C50345E51
:1023E8002D50355A2E50365A2F50375A402A190E2A
:1023F800406401EF12F003EF12F0C3EF11F0345014
:10240800351036103710D8B40CEF12F00EEF12F06A
:1024180026EF12F03B8026EF12F0D89028362936A6
:102428002A362B363EAE1BEF12F01DEF12F01EEFD0
:1024380012F02880D8903B363C363D363E36390679
:10244800D8A03A062AAE2BEF12F02DEF12F011EFBA
:1024580012F0000E406E3EAE34EF12F036EF12F07E
:102468005AEF12F0FF0E3B14306EFF0E3C14316E23
:10247800FF0E3D14326E7F0E3E14336E3050311015
:1024880032103310D8B44BEF12F04DEF12F051EF79
:1024980012F0010E406E5AEF12F028A056EF12F01B
:1024A80058EF12F05AEF12F04DEF12F04050D8B436
:1024B80060EF12F062EF12F086EF12F0010E28269C
:1024C800000E29222A222B222BA06DEF12F06FEF8B
:1024D80012F086EF12F028C030F029C031F02AC07F
:1024E80032F02BC033F033343332323231323032BF
:1024F80030C028F031C029F032C02AF033C02BF0A8
:10250800394A3A2A3ABE91EF12F03A5008E139288E
:10251800D8A091EF12F093EF12F09EEF12F0000E98
:102528003A6E3968000E286E000E296E000E2A6E6B
:10253800000E2B6E3ABEABEF12F03A5006E13904AA
:10254800D8B0A9EF12F0ABEF12F0B9EF12F0000E0D
:102558003A6E000E396E000E286E000E296E000EBF
:102568002A6E000E2B6E000E386E39C03FF03FA069
:10257800C0EF12F0C2EF12F0C5EF12F02A8EC6EFCC
:1025880012F02A9ED8903F302B6E7CEF11F012008B
:102598009480928892860F01389793969496949A8D
:1025A800C650F00B0209C66EC698C78CC68A398118
:1025B800C09EC050F80B0609C06EC050C70B30094A
:1025C800C06EC280330EAF6EAB8EAC98AC8AAB884F
:1025D8008A86C250830B3009C26E010E0001BC6F9F
:1025E800000EBD6FDBEF13F07F0EBD61FEEF12F042
:1025F80000EF13F027EF13F0330E136E330E146E43
:10260800F30E156E3F0E166EBD51016E026A036A17
:10261800046A010E1EEC17F001C00FF002C010F0A2
:1026280003C011F004C012F009EC0DF00FC051F016
:1026380010C052F011C053F012C054F0F8EC17F06B
:102648005150DEEC19F07E0E0001BD652EEF13F03F
:1026580030EF13F0EAEF13F0330E136E330E146EEF
:10266800F30E156E3F0E166EBD51FF0A5D6E5D507E
:10267800016E026A036A046A010E1EEC17F001C0BB
:102688000FF002C010F003C011F004C012F009EC02
:102698000DF00FC051F010C052F011C053F012C02D
:1026A80054F0F8EC17F05150DEEC19F0EAEF13F0A3
:1026B800000E2C6E000E2D6E7F0E2E6E430E2F6EAA
:1026C800C30E136EF50E146EC80E156E400E166E00
:1026D800BD51016E026A036A046A010E1EEC17F00E
:1026E80001C00FF002C010F003C011F004C012F0D6
:1026F80009EC0DF00FC028F010C029F011C02AF025
:1027080012C02BF0FFEC10F028C0B4F029C0B5F0CF
:102718002AC0B6F02BC0B7F0B4C09AF0B5C09BF091
:10272800B6C09CF0B7C09DF024EC08F09AC0B8F091
:102738009BC0B9F09CC0BAF09DC0BBF0000E456EBE
:10274800000E466EFE0E476E420E486E000E136E69
:10275800000E146EFE0E156E420E166EB8C00FF007
:10276800B9C010F0BAC011F0BBC012F009EC0DF0FE
:102778000FC041F010C042F011C043F012C044F045
:10278800A9EC0AF041C051F042C052F043C053F0E6
:1027980044C054F0F8EC17F05150DEEC19F0EAEFB1
:1027A80013F0BD51FF0ADEEC19F0EAEF13F0BC514B
:1027B800010AD8B4F8EF12F0030AD8B45CEF13F0AA
:1027C800010AD8B4D5EF13F0EAEF13F0C282C2B20F
:1027D800F0EF13F0F2EF13F0EBEF13F0410E1C6E75
:1027E800C4CF1DF01E6A4EEC1AF082A0FEEF13F063
:1027F80000EF14F003EF14F0010E0001BC6F80A885
:1028080008EF14F00AEF14F00DEF14F0020E0001B7
:10281800BC6F80A612EF14F014EF14F017EF14F049
:10282800030E0001BC6F680E5D6EE40EE82EFED745
:102838005D2EFCD700D00001BD2BDBEF13F000EFBD
:1028480000F051C00FF052C010F053C011F054C046
:1028580012F051C013F052C014F053C015F054C018
:1028680016F009EC0DF00FC078F010C079F011C027
:102878007AF012C07BF078C00FF079C010F07AC0FF
:1028880011F07BC012F078C013F079C014F07AC050
:1028980015F07BC016F009EC0DF00FC064F010C005
:1028A80065F011C066F012C067F03C0E136E6C0E36
:1028B800146E360E156E360E166E78C00FF079C08F
:1028C80010F07AC011F07BC012F009EC0DF00FC0C7
:1028D80041F010C042F011C043F012C044F0CF0ED6
:1028E800456E070E466E500E476EB90E486EA9EC3F
:1028F8000AF041C060F042C061F043C062F044C0D9
:1029080063F078C00FF079C010F07AC011F07BC086
:1029180012F051C013F052C014F053C015F054C057
:1029280016F009EC0DF00FC074F010C075F011C06E
:1029380076F012C077F0AB0E456EAA0E466E2A0EE0
:10294800476EBE0E486E840E136E880E146E080E07
:10295800156E3C0E166E78C00FF079C010F07AC074
:1029680011F07BC012F009EC0DF00FC041F010C05F
:1029780042F011C043F012C044F0A9EC0AF041C083
:1029880068F042C069F043C06AF044C06BF064C0AC
:1029980013F065C014F066C015F067C016F074C077
:1029A8000FF075C010F076C011F077C012F009EC86
:1029B8000DF00FC06CF010C06DF011C06EF012C0B9
:1029C8006FF051C045F052C046F053C047F054C0B4
:1029D80048F074C013F075C014F076C015F077C0D5
:1029E80016F068C00FF069C010F06AC011F06BC033
:1029F80012F009EC0DF00FC041F010C042F011C008
:102A080043F012C044F0A9EC0AF041C070F042C093
:102A180071F043C072F044C073F070C041F071C0EF
:102A280042F072C043F073C044F060C013F061C05C
:102A380014F062C015F063C016F06CC00FF06DC0E2
:102A480010F06EC011F06FC012F009EC0DF00FC05D
:102A580045F010C046F011C047F012C048F0A9EC8C
:102A68000AF041C051F042C052F043C053F044C094
:102A780054F0120051C00FF052C010F053C011F0C2
:102A880054C012F051C013F052C014F053C015F0E6
:102A980054C016F009EC0DF00FC074F010C075F0BA
:102AA80011C076F012C077F074C00FF075C010F046
:102AB80076C011F077C012F074C013F075C014F02E
:102AC80076C015F077C016F009EC0DF00FC070F065
:102AD80010C071F011C072F012C073F0170E136EAF
:102AE8009A0E146ECC0E156E370E166E74C00FF05B
:102AF80075C010F076C011F077C012F009EC0DF037
:102B08000FC041F010C042F011C043F012C044F0B1
:102B18003F0E456E040E466EB60E476EBA0E486EF0
:102B2800A9EC0AF041C060F042C061F043C062F015
:102B380044C063F0000E456E000E466E800E476E70
:102B48003F0E486E000E136E000E146E000E156ECA
:102B5800BF0E166E74C00FF075C010F076C011F07D
:102B680077C012F009EC0DF00FC041F010C042F030
:102B780011C043F012C044F0A9EC0AF041C064F05F
:102B880042C065F043C066F044C067F074C013F0FB
:102B980075C014F076C015F077C016F070C00FF04D
:102BA80071C010F072C011F073C012F009EC0DF092
:102BB8000FC068F010C069F011C06AF012C06BF065
:102BC8009F0E136EAA0E146E2A0E156E3D0E166E0B
:102BD80070C00FF071C010F072C011F073C012F025
:102BE80009EC0DF00FC045F010C046F011C047F0D9
:102BF80012C048F064C041F065C042F066C043F0BE
:102C080067C044F0A9EC0AF041C06CF042C06DF016
:102C180043C06EF044C06FF06CC041F06DC042F02C
:102C28006EC043F06FC044F060C013F061C014F090
:102C380062C015F063C016F068C00FF069C010F0EC
:102C48006AC011F06BC012F009EC0DF00FC045F02E
:102C580010C046F011C047F012C048F0A9EC0AF0C5
:102C680041C051F042C052F043C053F044C054F048
:102C780012000D50D96EDA6ADFCFF6FF100EF76E2C
:102C88000800F550250AD8A44CEF16F04EEF16F0C0
:102C98000AEF17F00D50D96EDA6ADF2A000E00012C
:102CA800E76F000EE66FE6C05EF0E869E9690D506F
:102CB800D96EDA6ADF50116E11C0F6FF100EF76E8A
:102CC8000800F550640AD8B46CEF16F06EEF16F0F1
:102CD8007CEF16F011C0F6FF100EF76E0800F550E5
:102CE800690AD8A47AEF16F07CEF16F004EF17F013
:102CF8000E50D96EDA6A020EDF26DF5CD96EDA6A08
:102D0800DECF12F0DECF13F00D50D96EDA6A11283B
:102D1800DF6E200E166E13BE94EF16F097EF16F0C6
:102D2800010E98EF16F0000E106E16061650BE0F24
:102D3800D96EDA6A12C001F013C002F0000E046EF8
:102D48000A0E036E42EC19F001C007F002C008F049
:102D580034EC1AF00750300FDF6E12C001F013C0C8
:102D680002F0000E046E0A0E036EE0EC18F001C0CB
:102D780012F002C013F012501310D8B4C6EF16F0B8
:102D8800C8EF16F0D0EF16F01650D8A4CEEF16F014
:102D9800D0EF16F099EF16F01650D8B4D6EF16F01B
:102DA800D8EF16F0F9EF16F01050D8B4DEEF16F0A1
:102DB800E0EF16F0F9EF16F016061650BE0FD96EB2
:102DC800DA6A2D0EDF6EF9EF16F01650BE0FD96EC7
:102DD800DA6ADF500F6E0F50026E036A0BC004F000
:102DE8000CC005F07BEC18F0162A200E1618D8A493
:102DF80000EF17F002EF17F0E9EF16F01DEF17F0EC
:102E08000D50D96EDA6ADF2A1DEF17F00D50D96E12
:102E1800DA6ADFCFF6FF100EF76E0800F550026E83
:102E2800036A0BC004F00CC005F07BEC18F004EF4B
:102E380017F01200096E0950D8B425EF17F027EFE4
:102E480017F049EF17F004BE2EEF17F02CEF17F02C
:102E580049EF17F001C005F002C006F003C007F003
:102E680004C008F0051E061E071E081E052A000ECF
:102E780006220722082205C00BF006C00CF007C086
:102E88000DF008C00EF051EF17F001C00BF002C0B2
:102E98000CF003C00DF004C00EF001500210031036
:102EA8000410D8A45AEF17F05CEF17F066EF17F08C
:102EB800000E016E000E026E000E036E000E046E10
:102EC800F7EF17F0960E0A6E70EF17F00A2AD890EF
:102ED8000E320D320C320B32000E0B14056E000E42
:102EE8000C14066E000E0D14076EFE0E0E14086EFE
:102EF8000550061007100810D8A485EF17F087EFC3
:102F080017F06AEF17F095EF17F00A2A010E0B2653
:102F1800000E0C220D220E22D8900E320D320C32E9
:102F28000B32000E0B14056E000E0C14066E000E0C
:102F38000D14076EFF0E0E14086E055006100710CC
:102F48000810D8A4AAEF17F0ACEF17F089EF17F024
:102F5800B4EF17F00A06D8900B360C360D360E363D
:102F68000DBEB9EF17F0BBEF17F0C3EF17F0020E65
:102F78000A60C1EF17F0C3EF17F0AEEF17F00AB011
:102F8800C8EF17F0CAEF17F0CBEF17F00D9ED890E7
:102F98000A320AC005F0066A076A086A05C008F01E
:102FA800076A066A056A05500B1206500C1207508C
:102FB8000D1208500E120950D8B4E5EF17F0E7EFDC
:102FC80017F0EFEF17F004BEEEEF17F0ECEF17F085
:102FD800EFEF17F00E8E0BC001F00CC002F00DC021
:102FE80003F00EC004F01200533454345A6E5A5091
:102FF800D8A401EF18F003EF18F00DEF18F0000E49
:10300800516E000E526E000E536E000E546E7AEF23
:1030180018F051C055F052C056F053C057F054C084
:1030280058F0200E1DEF18F0D8905832573256320B
:103038005532E82E18EF18F05550596E538EFF0E82
:103048005116FF0E5216FF0E5316000E5416960E0A
:103058005A5E5ABE34EF18F032EF18F04AEF18F003
:103068005A50800A970FD8B03CEF18F03EEF18F08E
:1030780040EF18F003EF18F0D89054325332523220
:1030880051325A3E40EF18F062EF18F01F0E5A64A2
:1030980050EF18F052EF18F05AEF18F003EF18F04D
:1030A800D89051365236533654365A065A50D8A408
:1030B80060EF18F062EF18F054EF18F05950D8B4D8
:1030C80068EF18F06AEF18F072EF18F0541E531EEC
:1030D800521E516C000E52225322542251C051F0FC
:1030E80052C052F053C053F054C054F01200045070
:1030F8000510D8B482EF18F084EF18F08DEF18F0AF
:1031080004500510D8A48BEF18F08DEF18F092EF4B
:1031180018F0025067EC1AF0DFEF18F020EE0AF012
:103128000450D9260550DA22DE50DE10D8B49FEFBD
:1031380018F0A1EF18F0BCEF18F020EE0AF00450D8
:10314800D9260550DA2210EE03F00450E126055086
:10315800E222DE50E65CE650800A0A6EDE50800A03
:103168000A58D8B0BAEF18F0BCEF18F0DFEF18F033
:1031780020EE03F00450D9260550DA22DECF06F0FF
:10318800DDCF07F004C0D9FF05C0DAFFDECF08F0B5
:10319800DDCF09F006500824D96E07500920DA6EF1
:1031A80002C0DFFF20EE03F00450D9260550DA22D2
:1031B800DE2A000EDD221200000E066E04BEE9EFC4
:1031C80018F0E7EF18F0EFEF18F0036C041ED8B012
:1031D800042A010E066E02BEF6EF18F0F4EF18F09E
:1031E800FCEF18F0016C021ED8B0022A010E061A74
:1031F800000E086E000E076E03500410D8B407EFD7
:1032080019F009EF19F031EF19F0010E056E11EF01
:1032180019F0D89003360436052A04AE16EF19F0D3
:1032280018EF19F00DEF19F0D8900736083603504B
:10323800015C04500258D8A024EF19F026EF19F0C9
:103248002BEF19F00350015E0450025A0780D89002
:1032580004320332052E18EF19F00650D8B437EFB0
:1032680019F039EF19F03DEF19F0076C081ED8B0C6
:10327800082A07C001F008C002F01200000E066E0E
:1032880002BE4BEF19F049EF19F051EF19F0016C3C
:10329800021ED8B0022A010E066E04BE58EF19F0BD
:1032A80056EF19F05CEF19F0036C041ED8B0042A2D
:1032B80003500410D8B463EF19F065EF19F089EFE3
:1032C80019F0010E056E6DEF19F0D890033604362B
:1032D800052A04AE72EF19F074EF19F069EF19F0CE
:1032E8000350015C04500258D8A07DEF19F07FEF1D
:1032F80019F083EF19F00350015E0450025AD89078
:1033080004320332052E74EF19F00650D8B48FEF4B
:1033180019F091EF19F095EF19F0016C021ED8B071
:10332800022A01C001F002C002F01200000E551A74
:10333800000E561A000E571A800E581A51C041F046
:1033480052C042F053C043F054C044F055C045F059
:1033580056C046F057C047F058C048F0A9EC0AF0EC
:1033680041C051F042C052F043C053F044C054F041
:10337800120019C01BF0CBEF19F017C00BF018C0E2
:103388000CF01B0E0D6E1AC00EF03DEC16F01BC0B3
:10339800F6FF100EF76E0800F5500009D8A4D7EF15
:1033A80019F0D9EF19F0C1EF19F0000E186E000EE0
:1033B800176E1200036E03380F0B3009016E0338C5
:1033C800F00B026E8A9601C0C9FF9EA6EEEF19F0B7
:1033D800F0EF19F0E9EF19F09E9602C0C9FF9EA61A
:1033E800F8EF19F0FAEF19F0F3EF19F09E968A86C4
:1033F80012000001785179117A117B11D8B407EFC6
:103408001AF009EF1AF011EF1AF0000E781B000EEF
:10341800791B000E7A1B800E7B1B78C078F079C070
:1034280079F07AC07AF07BC07BF01200DEC005F03C
:10343800DFC006F0E0C007F0E1C008F001C005F009
:1034480002C006F003C007F004C008F0089E05C0DB
:1034580001F006C002F007C003F008C004F0120033
:1034680008BE39EF1AF03BEF1AF041EF1AF007C027
:1034780007F008C008F04DEF1AF007C009F008C0BF
:103488000AF0091E0A1E094A0A2A09C007F00AC0DA
:1034980008F012001D0E1F6E000E176E000E186E3B
:1034A8001CC019F01F0E1A6EBDEC19F0120000EEC8
:1034B800BEF02C0EEE6AE806FDE15E6A000EF86EBC
:1034C8000001CCEF12F0016E9EA86DEF1AF06FEFBD
:0C34D8001AF068EF1AF001C0ADFF1200FE
:020000040030CA
:04000000FF331F3C6F
:00000001FF
