:0400000047EF00F0D6
:100008005D829DA00AEF00F00CEF00F045EF00F0D4
:100018009EA011EF00F013EF00F045EF00F0010192
:100028002151D8B41AEF00F01CEF00F045EF00F0B2
:1000380080A421EF00F023EF00F040EF00F0030E62
:10004800026E080E016E770EE82EFED7012EFCD741
:10005800022EFAD7000080A434EF00F036EF00F04B
:1000680040EF00F080B43BEF00F03DEF00F036EFDA
:1000780000F0000E0001FF6F9E0ECF6E580ECE6E80
:0A0088009E905D921100A5EF28F094
:10100000003C6C3636CF0750B98488083CABAA2A1E
:10101000BEA3858832DA0FC93F83F9223F00000062
:101020003F179ACC373F04B6BA9FAA2A3D0000006A
:10103000BFDB0FC940E4CB9640DB0F4940DB0FC953
:101040003F504F54313A252E3166504F54323A2595
:101050002E3166002020202020202020202020204B
:101060002020202000506F7A6F7221204861642177
:10107000212120202000566F6C7479206E61205051
:101080004F543A202020005242302D41322C204231
:10109000523A203936303000313A74722C323A7379
:1010A000696E2C333A70696C00286E756C6C29007F
:1010B0004D55534943003E252D2A730047414D4568
:1010C000004750494F0055415254002564200D00FF
:1010D000696E66006E616E00444143004144430006
:0510E00050574D000017
:1010E600000E0001A66F7EC0A7F07FC0A8F080C0EA
:1010F600A9F081C0AAF0AABF85EF08F083EF08F037
:1011060099EF08F0010EA66FA7C078F0A8C079F095
:10111600A9C07AF0AAC07BF08EEC29F078C0A7F0BF
:1011260079C0A8F07AC0A9F07BC0AAF0000E000131
:10113600AC6F000EAB6FFCC096F0FDC097F0A651E9
:10114600D8B4A8EF08F0AAEF08F0BEEF08F0A65151
:10115600D8A4B0EF08F0B2EF08F0B8EF08F0000E30
:101166008C6F2B0E8B6FBCEF08F0000E8C6F2D0E64
:101176008B6F8BC0A6F0A7C003F0A8C004F0A9C06F
:1011860005F0AAC006F0F5EC24F003040410D8A478
:10119600CFEF08F0D1EF08F002EF09F00001A651F9
:1011A600D8B4D8EF08F0DAEF08F0E3EF08F0A6C0FD
:1011B60022F19607D8A09707000EAC6F010EAB6F11
:1011C600220EAB25036E010EAC21046ED00E056E09
:1011D60071EC29F00001FD0E9627FF0E97237CC0C7
:1011E60014F07DC015F0220E166E010E176E96C015
:1011F60018F097C019F001EC28F06BEF0DF0A7C0BE
:1012060003F0A8C004F0A9C005F0AAC006F0F5ECEA
:1012160024F003500410D8A413EF09F015EF09F0D9
:1012260033EF09F00001A651D8B41CEF09F01EEF08
:1012360009F027EF09F0A6C022F19607D8A0970774
:10124600000EAC6F010EAB6F220EAB25036E010EC6
:10125600AC21046ED40E056E71EC29F0EDEF08F0AA
:10126600000E0001AD6F000EAE6F800EAF6F3F0E29
:10127600B06F000E956F000E946FA7C003F0A8C064
:1012860004F0A9C005F0AAC006F0000E076E000E15
:10129600086E000E096E000E0A6E59EC27F0D8B0E3
:1012A60057EF09F059EF09F038EF0AF066EF09F049
:1012B60098C0ADF099C0AEF09AC0AFF09BC0B0F048
:1012C6000001944B952BADC011F0AEC012F0AFC02B
:1012D60013F0B0C014F0000E156E000E166E200E40
:1012E600176E410E186E51EC12F011C098F012C034
:1012F60099F013C09AF014C09BF000019851A75DB5
:10130600036E9951A859046E9A51A959056E9B51BD
:10131600AA59066E52EC28F006BE9DEF09F006505B
:101326000510041009E1020E035CD8A09DEF09F038
:101336009FEF09F05BEF09F098C02AF099C02BF0F7
:101346009AC02CF09BC02DF0A7C02EF0A8C02FF09D
:10135600A9C030F0AAC031F073EC24F0D8A0B6EFE3
:1013660009F0B8EF09F05BEF09F00001AD51A75D98
:10137600036EAE51A859046EAF51A959056EB0510E
:10138600AA59066E52EC28F006BED7EF09F00650B1
:101396000510041007E1020E035CD8B0D5EF09F082
:1013A600D7EF09F01FEF0AF0ADC0A7F0AEC0A8F066
:1013B600AFC0A9F0B0C0AAF038EF0AF0ADC02AF06D
:1013C600AEC02BF0AFC02CF0B0C02DF0000E2E6ECC
:1013D600000E2F6E200E306E410E316E29EC18F085
:1013E6002AC0ADF02BC0AEF02CC0AFF02DC0B0F0CF
:1013F60000019407D8A09507AD51A75D036EAE51C5
:10140600A859046EAF51A959056EB051AA59066E76
:1014160052EC28F006BE1DEF0AF006500510041027
:1014260007E1020E035CD8B01BEF0AF01DEF0AF0CD
:101436001FEF0AF0D7EF09F0A7C02AF0A8C02BF0DB
:10144600A9C02CF0AAC02DF0ADC02EF0AEC02FF072
:10145600AFC030F0B0C031F073EC24F0D8A036EF56
:101466000AF038EF0AF0E1EF09F082C08EF08EC084
:101476008FF05CBE41EF0AF043EF0AF049EF0AF045
:101486005BC087F05CC088F04EEF0AF0000E0001EA
:10149600886F060E876F87C092F088C093F00001B0
:1014A600924B932B660E8F19D8A45CEF0AF05EEF71
:1014B6000AF07EEF0AF095BF65EF0AF063EF0AF0D7
:1014C60071EF0AF0000EAD6F000EAE6F800EAF6FBB
:1014D6003F0EB06F000E956F000E946F670E8E195B
:1014E600D8B478EF0AF07AEF0AF07EEF0AF094515A
:1014F600922795519323000E9D6F000E9C6FA7C0F7
:101506009EF0A8C09FF0A9C0A0F0AAC0A1F0ADC0EF
:1015160098F0AEC099F0AFC09AF0B0C09BF00FEF54
:101526000BF09EC02AF09FC02BF0A0C02CF0A1C0EB
:101536002DF0ADC02EF0AEC02FF0AFC030F0B0C071
:1015460031F029EC18F02AC043F02BC044F02CC02F
:1015560045F02DC046F043EC1DF043C0A2F044C058
:10156600A3F045C0A4F046C0A5F0A2C053F0A3C0A6
:1015760054F0A4C055F0A5C056F0EFEC23F053C0CC
:1015860090F054C091F09EC053F09FC054F0A0C09C
:1015960055F0A1C056F0A2C015F0A3C016F0A4C025
:1015A60017F0A5C018F0ADC011F0AEC012F0AFC074
:1015B60013F0B0C014F051EC12F011C057F012C085
:1015C60058F013C059F014C05AF0ECEC28F053C090
:1015D6009EF054C09FF055C0A0F056C0A1F0ADC01B
:1015E6002AF0AEC02BF0AFC02CF0B0C02DF0000E2C
:1015F6002E6E000E2F6E200E306E410E316E29ECCF
:1016060018F02AC0ADF02BC0AEF02CC0AFF02DC044
:10161600B0F000019C4B9D2B92519C5D9D51800A20
:10162600836F9351800A8359D8A01CEF0BF01EEFED
:101636000BF094EF0AF0ADC011F0AEC012F0AFC0DF
:1016460013F0B0C014F0000E156E000E166EA00E4C
:10165600176E400E186E51EC12F011C0A2F012C0B7
:10166600A3F013C0A4F014C0A5F09EC02AF09FC03A
:101676002BF0A0C02CF0A1C02DF0A2C02EF0A3C06C
:101686002FF0A4C030F0A5C031F073EC24F0D8B030
:101696004FEF0BF051EF0BF05CEF0BF0000E00017B
:1016A600A26F000EA36F000EA46F000EA56F85EF4C
:1016B6000BF09EC003F09FC004F0A0C005F0A1C0CF
:1016C60006F0A2C007F0A3C008F0A4C009F0A5C0A8
:1016D6000AF059EC27F0D8A073EF0BF075EF0BF07A
:1016E60085EF0BF0000190B17BEF0BF07DEF0BF077
:1016F60085EF0BF0000EA26F000EA36F000EA46F15
:10170600000EA56FA7C043F0A8C044F0A9C045F0DD
:10171600AAC046F0A2C047F0A3C048F0A4C049F052
:10172600A5C04AF0F1EC0FF043C09EF044C09FF014
:1017360045C0A0F046C0A1F09EC02AF09FC02BF085
:10174600A0C02CF0A1C02DF0000E156E000E166E76
:10175600200E176E410E186E98C011F099C012F047
:101766009AC013F09BC014F051EC12F011C02EF089
:1017760012C02FF013C030F014C031F073EC24F017
:10178600D8A0C8EF0BF0CAEF0BF0F3EF0BF0000197
:10179600944B952B98C011F099C012F09AC013F093
:1017A6009BC014F0000E156E000E166E200E176EFE
:1017B600410E186E51EC12F011C098F012C099F05B
:1017C60013C09AF014C09BF0660E00018F19D8A4BE
:1017D600EFEF0BF0F1EF0BF0F3EF0BF0924B932BD7
:1017E60098C0ADF099C0AEF09AC0AFF09BC0B0F013
:1017F60094C085F095C086F0000E00018D6F000E36
:101806008A6F000E896F000E9D6F000E9C6FF1EFC0
:101816000CF09EC02AF09FC02BF0A0C02CF0A1C0F7
:101826002DF0ADC02EF0AEC02FF0AFC030F0B0C07E
:1018360031F029EC18F02AC043F02BC044F02CC03C
:1018460045F02DC046F043EC1DF043C0A2F044C065
:10185600A3F045C0A4F046C0A5F0A2C053F0A3C0B3
:1018660054F0A4C055F0A5C056F0EFEC23F054BEDA
:1018760048EF0CF0545007E10A0E535CD8B046EF1F
:101886000CF048EF0CF058EF0CF0A2C053F0A3C0D8
:1018960054F0A4C055F0A5C056F0EFEC23F053C0A9
:1018A60090F054C091F05DEF0CF0000E0001916FC6
:1018B600090E906F00018D51D8A464EF0CF066EF0D
:1018C6000CF08EEF0CF086BF6DEF0CF06BEF0CF0AA
:1018D6008EEF0CF0220EAB25D96E010EAC21DA6E1E
:1018E6002E0EDF6EAB4BAC2B9607D8A09707010EDA
:1018F6008D6F8EEF0CF0220EAB25D96E010EAC214A
:10190600DA6E300EDF6EAB4BAC2B9607D8A097077E
:101916008907D8A08A0789518A11D8A495EF0CF0B7
:1019260097EF0CF07EEF0CF0220EAB25D96E010E70
:10193600AC21DA6E9051300FDF6EAB4BAC2B9607B5
:10194600D8A097079EC053F09FC054F0A0C055F092
:10195600A1C056F0A2C015F0A3C016F0A4C017F09F
:10196600A5C018F0ADC011F0AEC012F0AFC013F0B4
:10197600B0C014F051EC12F011C057F012C058F07C
:1019860013C059F014C05AF0ECEC28F053C09EF086
:1019960054C09FF055C0A0F056C0A1F0ADC02AF0CB
:1019A600AEC02BF0AFC02CF0B0C02DF0000E2E6EE6
:1019B600000E2F6E200E306E410E316E29EC18F09F
:1019C6002AC0ADF02BC0AEF02CC0AFF02DC0B0F0E9
:1019D60000018507D8A086079C4B9D2B92519C5DE4
:1019E6009D51800A836F9351800A8359D8B0FEEFC8
:1019F6000CF000EF0DF00EEF0DF0ACBF0CEF0DF09C
:101A0600AC5109E14B0EAB5DD8A00CEF0DF00EEF1B
:101A16000DF00CEF0CF0000E9D6F4F0E9C6F220E1A
:101A26009C25D96E010E9D21DA6EDF6A220E836F28
:101A3600010E846FAB51835FAC51845B9C5183254F
:101A4600036E9D518421046E220E056E010E066EF4
:101A5600ABC007F0ACC008F07DEC28F00001AB513C
:101A66009C5DAB6FAC519D59AC6FA651D8A43EEFAF
:101A76000DF041EF0DF0010E42EF0DF0000E9C6FE0
:101A86009D6BA651D8B44AEF0DF04CEF0DF057EF11
:101A96000DF0AB07D8A0AC07220EAB25D96E010E10
:101AA600AC21DA6EA6C0DFFF9C51965F9D51975B15
:101AB6007CC014F07DC015F0220EAB25166E010E0B
:101AC600AC21176E96C018F097C019F001EC28F0FB
:101AD60012009CC0B2F09DC0B3F09EC0B4F09FC08F
:101AE600B5F00001B5BF7AEF0DF07DEF0DF0010EF8
:101AF6007EEF0DF0000EA96FB59FDB0EB25D0F0EE7
:101B0600B359490EB4593F0EB559D8B08DEF0DF003
:101B16008FEF0DF0B8EF0DF0800EB45D390EB559AC
:101B2600D8B098EF0DF09AEF0DF0A4EF0DF09CC031
:101B36009CF09DC09DF09EC09EF09FC09FF0F0EF70
:101B46000FF09CC053F09DC054F09EC055F09FC04E
:101B560056F01BEC1BF053C09CF054C09DF055C0D2
:101B66009EF056C09FF0F0EF0FF0D20EB25D530E0E
:101B7600B3597B0EB459400EB559D8B0C5EF0DF028
:101B8600C7EF0DF0AAEF0EF0E40EB25DCB0EB3591F
:101B9600160EB459400EB559D8B0D4EF0DF0D6EFA5
:101BA6000DF044EF0EF0A951D8B4DCEF0DF0DEEFE6
:101BB6000DF016EF0EF0DB0E476E0F0E486EC90ED7
:101BC600496E3F0E4A6E9CC043F09DC044F09EC0D5
:101BD60045F09FC046F0F1EC0FF043C0AAF044C0B8
:101BE600ABF045C0ACF046C0ADF0AAC053F0ABC0F8
:101BF60054F0ACC055F0ADC056F04CEC1EF053C0DE
:101C060078F054C079F055C07AF056C07BF08EEC6F
:101C160029F078C09CF079C09DF07AC09EF07BC018
:101C26009FF0F0EF0FF09CC043F09DC044F09EC0C3
:101C360045F09FC046F0DB0E476E0F0E486EC90E8C
:101C4600496EBF0E4A6EF1EC0FF043C0AAF044C0D5
:101C5600ABF045C0ACF046C0ADF0AAC053F0ABC087
:101C660054F0ACC055F0ADC056F04CEC1EF053C06D
:101C76009CF054C09DF055C09EF056C09FF0F0EF0A
:101C86000FF0A951D8A44AEF0EF04CEF0EF072EF08
:101C96000EF0DB0E476E0F0E486E490E496EC00EF3
:101CA6004A6E9CC043F09DC044F09EC045F09FC064
:101CB60046F0F1EC0FF043C078F044C079F045C02F
:101CC6007AF046C07BF08EEC29F078C0A0F079C09F
:101CD600A1F07AC0A2F07BC0A3F096EF0EF0DB0E67
:101CE600476E0F0E486E490E496E400E4A6E9CC0F6
:101CF60043F09DC044F09EC045F09FC046F0F1EC15
:101D06000FF043C078F044C079F045C07AF046C081
:101D16007BF08EEC29F078C0A0F079C0A1F07AC0F3
:101D2600A2F07BC0A3F0A0C053F0A1C054F0A2C0A3
:101D360055F0A3C056F01BEC1BF053C09CF054C0EA
:101D46009DF055C09EF056C09FF0F0EF0FF0D60EF6
:101D5600B25D310EB359E20EB459400EB559D8B042
:101D6600B7EF0EF0B9EF0EF05AEF0FF0E00EB25DDE
:101D7600ED0EB359AF0EB459400EB559D8B0C6EFF3
:101D86000EF0C8EF0EF008EF0FF0A951D8B4CEEF61
:101D96000EF0D0EF0EF0ECEF0EF09CC043F09DC0BD
:101DA60044F09EC045F09FC046F0E40E476ECB0E51
:101DB600486E960E496E400E4A6EF1EC0FF043C027
:101DC600AAF044C0ABF045C0ACF046C0ADF030EF71
:101DD6000EF0E40E476ECB0E486E960E496EC00EA0
:101DE6004A6E9CC043F09DC044F09EC045F09FC023
:101DF60046F0F1EC0FF043C0AAF044C0ABF045C08A
:101E0600ACF046C0ADF0F8EF0DF0A951D8A40EEF36
:101E16000FF010EF0FF02CEF0FF09CC043F09DC0B9
:101E260044F09EC045F09FC046F0DB0E476E0F0E95
:101E3600486EC90E496EC00E4A6EF1EC0FF043C0F3
:101E4600A4F044C0A5F045C0A6F046C0A7F046EFF2
:101E56000FF09CC043F09DC044F09EC045F09FC06B
:101E660046F0DB0E476E0F0E486EC90E496E400EE9
:101E76004A6EF1EC0FF043C0A4F044C0A5F045C093
:101E8600A6F046C0A7F0A4C053F0A5C054F0A6C063
:101E960055F0A7C056F01BEC1BF053C09CF054C085
:101EA6009DF055C09EF056C09FF0F0EF0FF0800EEB
:101EB600B45D7F0EB559D8A063EF0FF065EF0FF054
:101EC60077EF0FF0FF0EB213FF0EB313FF0EB4132E
:101ED600000EB513B2C09CF0B3C09DF0B4C09EF026
:101EE600B5C09FF0F0EF0FF09CC07CF09DC07DF078
:101EF6009EC07EF09FC07FF0AE0E806F48EC16F05D
:101F060000017C51030BA86FE1EF0FF0AEC078F033
:101F1600AFC079F0B0C07AF0B1C07BF08EEC29F09A
:101F260078C0AEF079C0AFF07AC0B0F07BC0B1F047
:101F3600AEC053F0AFC054F0B0C055F0B1C056F0CB
:101F46001BEC1BF053C09CF054C09DF055C09EF096
:101F560056C09FF0F0EF0FF0AEC053F0AFC054F094
:101F6600B0C055F0B1C056F04CEC1EF053C09CF01A
:101F760054C09DF055C09EF056C09FF0F0EF0FF094
:101F8600AEC053F0AFC054F0B0C055F0B1C056F07B
:101F96004CEC1EF053C078F054C079F055C07AF07E
:101FA60056C07BF08EEC29F078C09CF079C09DF08D
:101FB6007AC09EF07BC09FF0F0EF0FF0A851000AA8
:101FC600D8B49BEF0FF0010AD8B4AFEF0FF0030AB5
:101FD600D8B489EF0FF0C3EF0FF012004650800B14
:101FE6004F6E46504624516E45AEFCEF0FF0FEEFA5
:101FF6000FF0FFEF0FF051805150D8B405EF10F0FD
:1020060007EF10F01CEF10F05128D8A40DEF10F0D8
:102016000FEF10F017EF10F0000E436E000E446E37
:10202600000E456E000E466E458E000E466E24EF7F
:1020360010F0000E436E000E446E000E456E000E4C
:10204600466E4A50800B506E4F505018D8B42EEF43
:1020560010F030EF10F031EF10F04F8C4A504A2458
:10206600506E49AE39EF10F03BEF10F03CEF10F038
:1020760050805050D8B442EF10F044EF10F059EFB2
:1020860010F05028D8A44AEF10F04CEF10F054EF9F
:1020960010F0000E476E000E486E000E496E000EE0
:1020A6004A6E498E000E4A6E61EF10F0000E476EC2
:1020B600000E486E000E496E000E4A6E5150505C7E
:1020C600D8B068EF10F06AEF10F091EF10F04FAC57
:1020D6006FEF10F071EF10F073EF10F0800E4F1AE3
:1020E60051C052F050C051F052C050F043C052F0AF
:1020F60047C043F052C047F044C052F048C044F0D5
:1021060052C048F045C052F049C045F052C049F0AF
:1021160046C052F04AC046F052C04AF0000E526E17
:10212600515050C04BF04C6A4B5E000E4C5A4CBEA0
:10213600A6EF10F04C5009E11A0E4B5CD8A0A6EFA2
:1021460010F0A8EF10F0DFEF10F0435044104510E8
:102156004610D8A4B1EF10F0B4EF10F0010EB5EFB1
:1021660010F0000E526E000E436E000E446E000E0E
:10217600456E000E466E50C051F0E8EF10F052A0CA
:10218600C7EF10F0C9EF10F0CFEF10F0D890523033
:102196000109526ED1EF10F0D890523243A0D6EF1B
:1021A60010F0D8EF10F0D9EF10F0528E46344632C8
:1021B600453244324332512A5050515CD8A0E6EFA2
:1021C60010F0E8EF10F0C2EF10F04FBCEDEF10F09A
:1021D600EFEF10F02FEF11F05150D8A4F5EF10F0FB
:1021E600F7EF10F001EF11F0000E436E000E446E93
:1021F600000E456E000E466E50EF12F04750432615
:1022060048504422495045224A50462246A00EEFE5
:1022160011F010EF11F0BCEF11F052A015EF11F014
:1022260017EF11F01DEF11F0D89052300109526EE0
:102236001FEF11F0D890523243A024EF11F026EF91
:1022460011F027EF11F0528E4634463245324432B1
:102256004332512ABCEF11F04750435C4850445872
:10226600495045584650800A4B6E4A50800A4B5892
:10227600D8B040EF11F042EF11F06DEF11F043507E
:10228600475C4B6E445048584C6E455049584D6E0D
:1022960046504A584E6EFF0E4B24436EFF0E4C209E
:1022A600446EFF0E4D20456EFF0E4E20466E800E8C
:1022B6004F1A526C5250D8A463EF11F065EF11F02B
:1022C60075EF11F0010E4326000E442245224622E8
:1022D60075EF11F04750435E4850445A4950455AED
:1022E6004A50465A4350441045104610D8A47EEF33
:1022F60011F080EF11F0B5EF11F05250D8A486EF2F
:1023060011F088EF11F0B5EF11F0000E436E000EDC
:10231600446E000E456E000E466E50EF12F0D890D9
:10232600433644364536463652AE9CEF11F09EEFA4
:1023360011F09FEF11F0438052A0A4EF11F0A6EF29
:1023460011F0AAEF11F0D8805236ACEF11F0D89008
:1023560052365150D8B4B2EF11F0B4EF11F0B5EFD8
:1023660011F0510645AEBAEF11F0BCEF11F092EF45
:1023760011F0000E506E52AEC3EF11F0C5EF11F022
:10238600DDEF11F052C04BF07F0E4B16D8B4CEEFF6
:1023960011F0D0EF11F0D4EF11F0010E506EDDEF19
:1023A60011F043A0D9EF11F0DBEF11F0DDEF11F0E2
:1023B600D0EF11F05050D8B4E3EF11F0E5EF11F083
:1023C60010EF12F0010E4326000E4422452246224B
:1023D60046A0F0EF11F0F2EF11F010EF12F043C04B
:1023E6004BF044C04CF045C04DF046C04EF04E3464
:1023F6004E324D324C324B324BC043F04CC044F05F
:102406004DC045F04EC046F05128D8B40DEF12F03D
:102416000FEF12F010EF12F0512A5128D8B416EF30
:1024260012F018EF12F020EF12F05150D8A41EEF60
:1024360012F020EF12F032EF12F0000E436E000E93
:10244600446E000E456E000E466E5150D8A42EEF17
:1024560012F030EF12F032EF12F0000E4F6E51A074
:1024660037EF12F039EF12F03CEF12F0458E3DEFE8
:1024760012F0459ED8905130466E4FAE45EF12F0A1
:1024860047EF12F048EF12F0468E43C043F044C0C7
:1024960044F045C045F046C046F012001450800B8B
:1024A6001D6E14501424236E13AE5CEF12F05EEF13
:1024B60012F05FEF12F023802350D8B465EF12F0CC
:1024C60067EF12F07AEF12F02328D8A46DEF12F01E
:1024D6006FEF12F077EF12F0000E116E000E126E13
:1024E600000E136E000E146E138E82EF12F0000EA5
:1024F600116E000E126E000E136E000E146E185042
:10250600800B1D1A185018241E6E17AE8DEF12F090
:102516008FEF12F090EF12F01E801E50D8B496EF97
:1025260012F098EF12F0ABEF12F01E28D8A49EEF2F
:1025360012F0A0EF12F0A8EF12F0000E156E000ECA
:10254600166E000E176E000E186E178EB3EF12F091
:10255600000E156E000E166E000E176E000E186E2B
:102566001E50D8B4B9EF12F0BBEF12F0C3EF12F061
:102576002350D8A4C1EF12F0C3EF12F0CDEF12F042
:10258600000E116E000E126E000E136E000E146E0B
:1025960065EF14F017501102F3CF28F0F4CF29F0AD
:1025A60028501F6E206A216A226A2950246E256AE5
:1025B600266A276A16501202F3CF28F0F4CF29F0C4
:1025C60028501F26000E20222122222229502426AE
:1025D600000E25222622272215501302F3CF28F0BB
:1025E600F4CF29F028501F26000E20222122222275
:1025F60029502426000E25222622272221C022F039
:1026060020C021F01FC020F01F6A15501202F3CF20
:1026160028F0F4CF29F028501F2629502022000E3A
:102626002122000E222216501102F3CF28F0F4CFF9
:1026360029F028501F2629502022000E2122000EA4
:10264600222221C022F020C021F01FC020F01F6AE4
:1026560015501102F3CF28F0F4CF29F028501F2689
:1026660029502022000E2122000E2222175012028B
:10267600F3CF28F0F4CF29F028502426295025221C
:10268600000E2622000E272216501302F3CF28F042
:10269600F4CF29F02850242629502522000E262280
:1026A600000E272217501302F3CF28F0F4CF29F09B
:1026B6002850196E29501A6E1B6A1C6A1BC01CF022
:1026C6001AC01BF019C01AF0196A195024261A509C
:1026D60025221B5026221C5027221FC019F020C07D
:1026E6001AF021C01BF022C01CF0190E80EF13F067
:1026F600D8901C321B321A321932E82E7BEF13F0B7
:10270600195024261A5025221B5026221C502722F7
:1027160021C022F020C021F01FC020F01F6A1E50E9
:1027260023C019F01A6A1926000E1A22820E1924DD
:10273600286EFF0E1A20296EB6EF13F0D8902436B5
:1027460025362636273622AEABEF13F0ADEF13F063
:10275600AEEF13F02480D8901F362036213622366D
:102766002806D8A0290626AEBBEF13F0BDEF13F05E
:10277600A1EF13F0000E1E6E22AEC4EF13F0C6EFEB
:1027860013F0EAEF13F0FF0E1F14196EFF0E20145C
:102796001A6EFF0E21141B6E7F0E22141C6E19502A
:1027A6001A101B101C10D8B4DBEF13F0DDEF13F07A
:1027B600E1EF13F0010E1E6EEAEF13F024A0E6EF30
:1027C60013F0E8EF13F0EAEF13F0DDEF13F01E500D
:1027D600D8B4F0EF13F0F2EF13F016EF14F0010E89
:1027E6002426000E25222622272227A0FDEF13F0FD
:1027F600FFEF13F016EF14F024C019F025C01AF0FD
:1028060026C01BF027C01CF01C341C321B321A32A7
:10281600193219C024F01AC025F01BC026F01CC0BE
:1028260027F0284A292A29BE21EF14F0295008E169
:102836002828D8A021EF14F023EF14F02DEF14F080
:10284600000E246E000E256E800E266E7F0E276EFD
:102856005BEF14F029BE3AEF14F0295006E1280484
:10286600D8B038EF14F03AEF14F046EF14F0000E3B
:10287600246E000E256E000E266E000E276E000ECC
:102886001D6E5BEF14F028C023F0FF0E2416FF0E1A
:1028960025167F0E2616000E271623A055EF14F0D8
:1028A60057EF14F058EF14F0268ED8902330276E89
:1028B6001D50271224C011F025C012F026C013F0B7
:1028C60027C014F012000001B351D96EDA6ADFCFC7
:1028D600F6FF100EF76E0800F550250AD8A476EF1D
:1028E60014F078EF14F034EF16F0B351D96EDA6ABB
:1028F600DF2A000EFD6F000EFC6FFCC0FEF05B6869
:102906005C68000EBB6FA2EF14F0FE81B351D96E66
:10291600DA6ADF2AA2EF14F0010EBB6FA2EF14F001
:10292600B351D96EDA6ADFCFF6FF100EF76E0800E4
:10293600F5502D0AD8B488EF14F08FEF14F0BB5180
:10294600D8B4A8EF14F0AAEF14F093EF14F0B3C0C4
:1029560009F0B4C00AF0AEEC27F009C0FCF00AC0DA
:10296600FDF00001FDBFBCEF14F0BAEF14F0C1EFAB
:1029760014F0FE81FC6DFD1FD8B0FD2BB351D96E4E
:10298600DA6ADFCFF6FF100EF76E0800F5502E0A52
:10299600D8A4D0EF14F0D2EF14F0E0EF14F0B35156
:1029A600D96EDA6ADF2AB3C009F0B4C00AF0AEEC19
:1029B60027F009C05BF00AC05CF00001B351D96E84
:1029C600DA6ADF50BC6FBCC0F6FF100EF76E080067
:1029D600F550640AD8B4F2EF14F0F4EF14F002EFF5
:1029E60015F0BCC0F6FF100EF76E0800F550690A28
:1029F600D8A400EF15F002EF15F01FEF15F0B45153
:102A0600D96EDA6A020EDF26DF5CD96EDA6ADECFAD
:102A1600B6F0DECFB7F0B351D96EDA6ABC29DF6EF5
:102A2600B1C01DF0B2C01EF0B6C01FF0B7C020F096
:102A3600F6EC21F047EF16F0000EBB6FB351D96EDE
:102A4600DA6ADFCFF6FF100EF76E0800F550730A4C
:102A5600D8A430EF15F032EF15F03AEF15F0B35178
:102A6600D96EDA6ADF2A010EBB6F7CEF15F0B3511F
:102A7600D96EDA6ADFCFF6FF100EF76E0800F55052
:102A86006C0AD8A449EF15F04BEF15F07CEF15F062
:102A9600B351D96EDA6ADF50B56F010EB527B5C0EE
:102AA600F6FF100EF76E0800F5506C0AD8A45EEF1C
:102AB60015F060EF15F07CEF15F0B351D96EDA6AB8
:102AC600DF50B56F020EB527B5C0F6FF100EF76ED4
:102AD6000800F550730AD8A473EF15F075EF15F0DA
:102AE6007CEF15F0B351D96EDA6A030EDF2636EFA6
:102AF60015F0BB51D8B482EF15F084EF15F098EFBE
:102B060015F0B1C00DF0B2C00EF0B451D96EDA6A4C
:102B1600020EDF26DF5CD96EDA6ADECF0FF0DECF7B
:102B260010F023EC21F047EF16F0B351D96EDA6AB4
:102B3600DF50BC6FBCC0F6FF100EF76E0800F5CF75
:102B4600BAF0B1EF15F0BC2BC0EF15F06C0EBA6FF2
:102B5600C0EF15F0000EBA6FC0EF15F0BA514C0A6F
:102B6600D8B4A6EF15F02A0AD8B4A9EF15F00A0AC8
:102B7600D8B4A6EF15F0ADEF15F0BCC0F6FF100EF9
:102B8600F76E0800F550660AD8A4CCEF15F0CEEF24
:102B960015F02DEF16F0F8EF15F0B451D96EDA6A8C
:102BA600DFCFB5F0040EDF26B551D96EDA6ADECF77
:102BB600B6F0DECFB7F0DECFB8F0DECFB9F003EF78
:102BC60016F0B451D96EDA6ADFCFB5F0040EDF26FF
:102BD600B551D96EDA6ADECFB6F0DECFB7F0DECF0A
:102BE600B8F0DECFB9F003EF16F0BA514C0AD8B4FC
:102BF600E4EF15F0200AD8B4D0EF15F003EF16F085
:102C0600B351D96EDA6ABC29DF6E21EF16F0B1C076
:102C16007CF0B2C07DF0B6C07EF0B7C07FF0B8C021
:102C260080F0B9C081F0BCC0F6FF100EF76E080048
:102C3600F5CF82F073EC08F047EF16F0BCC0F6FF54
:102C4600100EF76E0800F550660AD8B40AEF16F0B3
:102C56002DEF16F00001B351D96EDA6ADF2A47EF7D
:102C660016F0B351D96EDA6ADFCFF6FF100EF76EA3
:102C76000800F550046E056AB1C006F0B2C007F050
:102C8600E1EC25F02DEF16F0120015C18CF016C1FF
:102C96008DF017C18EF018C18FF07CC08CF07DC00E
:102CA6008DF07EC08EF07FC08FF000018FBF5EEF8B
:102CB60016F061EF16F0010E62EF16F0000E8B6F44
:102CC6008F9FDB0E8C5D0F0E8D59C90E8E594D0EE2
:102CD6008F59D8B071EF16F073EF16F05FEF17F05B
:102CE6007CC003F07DC004F07EC005F07FC006F016
:102CF600C6EC29F003C094F004C095F005C096F028
:102D060006C097F0000E476E000E486E000E496E24
:102D16003F0E4A6E830E156EF90E166E220E176E54
:102D26003F0E186E94C011F095C012F096C013F0C5
:102D360097C014F051EC12F011C043F012C044F0E9
:102D460013C045F014C046F0F1EC0FF043C053F049
:102D560044C054F045C055F046C056F0EFEC23F0A1
:102D660053C098F054C099F055C09AF056C09BF0E5
:102D760098C003F099C004F09AC005F09BC006F015
:102D8600010E49EC20F003C090F004C091F005C09C
:102D960092F006C093F0DA0E156E0F0E166EC90E7F
:102DA600176E3F0E186E90C011F091C012F092C0CF
:102DB60013F093C014F051EC12F011C057F012C08A
:102DC60058F013C059F014C05AF094C053F095C08F
:102DD60054F096C055F097C056F0ECEC28F053C06E
:102DE60087F054C088F055C089F056C08AF087C075
:102DF60053F088C054F089C055F08AC056F0A30E2F
:102E0600156E850E166E880E176E320E186E90C0F1
:102E160011F091C012F092C013F093C014F051EC6F
:102E260012F011C057F012C058F013C059F014C078
:102E36005AF0ECEC28F000018051D96EDA6A53C0E2
:102E4600DEFF54C0DEFF55C0DEFF56C0DEFF8B51ED
:102E5600D8B430EF17F032EF17F059EF17F0805172
:102E6600D96EDA6ADECF78F0DECF79F0DECF7AF08F
:102E7600DECF7BF08EEC29F000018051D96EDA6A44
:102E860078C0DEFF79C0DEFF7AC0DEFF7BC0DEFFE2
:102E960098C081F099C082F0811F821F814B822BDE
:102EA60081C07CF082C07DF028EF18F098C07CF0DD
:102EB60099C07DF028EF18F07CC003F07DC004F0C7
:102EC6007EC005F07FC006F0C6EC29F003C094F082
:102ED60004C095F005C096F006C097F0000E476E48
:102EE600000E486E000E496E3F0E4A6E830E156E3A
:102EF600F90E166E220E176E3F0E186E94C011F064
:102F060095C012F096C013F097C014F051EC12F071
:102F160011C043F012C044F013C045F014C046F08F
:102F2600F1EC0FF043C053F044C054F045C055F0E7
:102F360046C056F0EFEC23F053C098F054C099F019
:102F460055C09AF056C09BF098C003F099C004F0A3
:102F56009AC005F09BC006F0010E49EC20F003C0B4
:102F660090F004C091F005C092F006C093F0DA0E1E
:102F7600156E0F0E166EC90E176E3F0E186E90C0A8
:102F860011F091C012F092C013F093C014F051ECFE
:102F960012F011C057F012C058F013C059F014C007
:102FA6005AF094C053F095C054F096C055F097C0AF
:102FB60056F0ECEC28F053C087F054C088F055C0AA
:102FC60089F056C08AF087C053F088C054F089C093
:102FD60055F08AC056F0A30E156E850E166E880E35
:102FE600176E320E186E90C011F091C012F092C09A
:102FF60013F093C014F051EC12F011C057F012C048
:1030060058F013C059F014C05AF0ECEC28F053C035
:1030160083F054C084F055C085F056C086F0000198
:103026008051D96EDA6A83C0DEFF84C0DEFF85C0B8
:10303600DEFF86C0DEFF8B51D8B424EF18F026EFF2
:1030460018F059EF17F032EF17F012002D50800BE1
:103056003A6E2D502D24416E2CAE34EF18F036EF1B
:1030660018F037EF18F041804150D8B43DEF18F012
:103076003FEF18F054EF18F04128D8A445EF18F0A8
:1030860047EF18F04FEF18F0000E2A6E000E2B6E69
:10309600000E2C6E000E2D6E2C8E000E2D6E5CEF2B
:1030A60018F0000E2A6E000E2B6E000E2C6E000E0F
:1030B6002D6E3150800B3A1A31503124426E30AEAB
:1030C60067EF18F069EF18F06AEF18F04280425087
:1030D600D8B470EF18F072EF18F087EF18F04228A6
:1030E600D8A478EF18F07AEF18F082EF18F0000EF7
:1030F6002E6E000E2F6E000E306E000E316E308E6C
:10310600000E316E8FEF18F0000E2E6E000E2F6E31
:10311600000E306E000E316E2E502F103010311012
:10312600D8A498EF18F09AEF18F0B2EF18F0000E46
:103136002A6E000E2B6E000E2C6E000E2D6E800E6B
:103146002C127F0E2D123A502D122AC02AF02BC0B7
:103156002BF02CC02CF02DC02DF0F5EF19F04150BE
:10316600D8A4B8EF18F0BAEF18F0C4EF18F0000EB4
:103176002A6E000E2B6E000E2C6E000E2D6EF5EFD5
:1031860019F0425041C032F0336A325E000E335AB3
:103196007F0E32243B6E000E33203C6E2AC036F082
:1031A6002BC037F02CC038F02DC039F0000E2A6E37
:1031B600000E2B6E000E2C6E000E2D6E000E3D6E58
:1031C600000E3E6E000E3F6E000E406E000E426E0A
:1031D60025EF19F04250D8B4F3EF18F0F5EF18F0D8
:1031E6000CEF19F0D8903636373638363936D8904F
:1031F6002A362B362C362D3640AE04EF19F006EF64
:1032060019F007EF19F02A80D8903D363E363F3642
:1032160040362E50365C2F50375830503858315083
:103226003958D8A019EF19F01BEF19F024EF19F04F
:10323600408C2E50365E2F50375A3050385A315007
:10324600395A422A190E42642BEF19F02DEF19F064
:10325600EDEF18F03650371038103910D8B436EF75
:1032660019F038EF19F050EF19F03D8050EF19F0D2
:10327600D8902A362B362C362D3640AE45EF19F02F
:1032860047EF19F048EF19F02A80D8903D363E36C0
:103296003F3640363B06D8A03C062CAE55EF19F01B
:1032A60057EF19F03BEF19F0000E426E40AE5EEF9D
:1032B60019F060EF19F084EF19F0FF0E3D14326E2D
:1032C600FF0E3E14336EFF0E3F14346E7F0E401415
:1032D600356E3250331034103510D8B475EF19F0FE
:1032E60077EF19F07BEF19F0010E426E84EF19F0BB
:1032F6002AA080EF19F082EF19F084EF19F077EF2A
:1033060019F04250D8B48AEF19F08CEF19F0B0EFEB
:1033160019F0010E2A26000E2B222C222D222DA07A
:1033260097EF19F099EF19F0B0EF19F02AC032F0C3
:103336002BC033F02CC034F02DC035F03534353287
:1033460034323332323232C02AF033C02BF034C03A
:103356002CF035C02DF03B4A3C2A3CBEBBEF19F0A1
:103366003C5008E13B28D8A0BBEF19F0BDEF19F09F
:10337600C8EF19F0000E3C6E3B68000E2A6E000E78
:103386002B6E000E2C6E000E2D6E3CBED5EF19F086
:103396003C5006E13B04D8B0D3EF19F0D5EF19F055
:1033A600E3EF19F0000E3C6E000E3B6E000E2A6E27
:1033B600000E2B6E000E2C6E000E2D6E000E3A6E59
:1033C6003BC041F041A0EAEF19F0ECEF19F0EFEF46
:1033D60019F02C8EF0EF19F02C9ED89041302D6EFE
:1033E600A6EF18F0120094809288928692840F01BC
:1033F6003897389593969496949AC650F00B02098E
:10340600C66EC698C78CC68A3981C09EC050F80B56
:103416000609C06EC050C70B3009C06EC280330E9D
:10342600AF6EAB8EAC98AC8AAB888A86C250830BE3
:103436003009C26E010E0001D06F010ECF6F000E73
:10344600D16F11EF1BF07F0ED1612CEF1AF02EEF2A
:103456001AF031EF1AF0D15152EC29F07E0E00012C
:10346600D16538EF1AF03AEF1AF0CEEF1AF0D151D3
:10347600FF0A52EC29F0CEEF1AF0000E2E6E000E67
:103486002F6E7F0E306E430E316EC30E156EF50E27
:10349600166EC80E176E400E186ED151036E046A72
:1034A600056A066A010E49EC20F003C011F004C05B
:1034B60012F005C013F006C014F051EC12F011C062
:1034C6002AF012C02BF013C02CF014C02DF029ECFA
:1034D60018F02AC0C7F02BC0C8F02CC0C9F02DC008
:1034E600CAF0C7C09CF0C8C09DF0C9C09EF0CAC053
:1034F6009FF06CEC0DF09CC0CBF09DC0CCF09EC054
:10350600CDF09FC0CEF0000E476E000E486EFE0E48
:10351600496E420E4A6E000E156E000E166EFE0EB7
:10352600176E420E186ECBC011F0CCC012F0CDC093
:1035360013F0CEC014F051EC12F011C043F012C0DB
:1035460044F013C045F014C046F0F1EC0FF043C050
:1035560053F044C054F045C055F046C056F0EFEC69
:1035660023F0535052EC29F0CEEF1AF0D151FF0A56
:1035760052EC29F0CEEF1AF0D051010AD8B426EF5A
:103586001AF0030AD8B440EF1AF0010AD8B4B9EF1A
:103596001AF0CEEF1AF0C282C2B2D4EF1AF0D6EF0A
:1035A6001AF0CFEF1AF0CB0E0001C26FC4CFC3F0F2
:1035B600C46B30EC2AF082A0E3EF1AF0E5EF1AF0C4
:1035C600E8EF1AF0010E0001D06F80A8EDEF1AF0B7
:1035D600EFEF1AF0F2EF1AF0020E0001D06F80A69C
:1035E600F7EF1AF0F9EF1AF0FCEF1AF0030E0001EC
:1035F600D06F80A401EF1BF003EF1BF006EF1BF06A
:10360600000E0001CF6F0001D12B680E0001C66FBE
:10361600E40EE82EFED7C62FFCD700000001CF51DE
:10362600D8A418EF1BF01AEF1BF0BFEF1AF0120028
:1036360053C011F054C012F055C013F056C014F028
:1036460053C015F054C016F055C017F056C018F008
:1036560051EC12F011C078F012C079F013C07AF074
:1036660014C07BF078C011F079C012F07AC013F064
:103676007BC014F078C015F079C016F07AC017F048
:103686007BC018F051EC12F011C064F012C065F066
:1036960013C066F014C067F03C0E156E6C0E166E05
:1036A600360E176E360E186E78C011F079C012F00D
:1036B6007AC013F07BC014F051EC12F011C043F045
:1036C60012C044F013C045F014C046F0CF0E476E4A
:1036D600070E486E500E496EB90E4A6EF1EC0FF0A9
:1036E60043C060F044C061F045C062F046C063F07C
:1036F60078C011F079C012F07AC013F07BC014F0D4
:1037060053C015F054C016F055C017F056C018F047
:1037160051EC12F011C074F012C075F013C076F0BF
:1037260014C077F0AB0E476EAA0E486E2A0E496E8D
:10373600BE0E4A6E840E156E880E166E080E176E35
:103746003C0E186E78C011F079C012F07AC013F0F2
:103756007BC014F051EC12F011C043F012C044F0DB
:1037660013C045F014C046F0F1EC0FF043C068F00A
:1037760044C069F045C06AF046C06BF064C015F0FD
:1037860065C016F066C017F067C018F074C011F077
:1037960075C012F076C013F077C014F051EC12F039
:1037A60011C06CF012C06DF013C06EF014C06FF053
:1037B60053C047F054C048F055C049F056C04AF0CF
:1037C60074C015F075C016F076C017F077C018F003
:1037D60068C011F069C012F06AC013F06BC014F033
:1037E60051EC12F011C043F012C044F013C045F082
:1037F60014C046F0F1EC0FF043C070F044C071F015
:1038060045C072F046C073F070C043F071C044F01A
:1038160072C045F073C046F060C015F061C016F086
:1038260062C017F063C018F06CC011F06DC012F0E2
:103836006EC013F06FC014F051EC12F011C047F0D7
:1038460012C048F013C049F014C04AF0F1EC0FF072
:1038560043C053F044C054F045C055F046C056F03E
:10386600120094809288928692840F013897389538
:103876009594959694989598959A959C8C848C8613
:103886008B888C888C8A8C8C74EC25F0000E010158
:103896009E6F000E9D6F000E0001DA6F01019E51B2
:1038A60066EC23F001019E6F82A05CEF1CF05EEFD8
:1038B6001CF081EF1CF0030E0001FB6F080EFA6F7F
:1038C600770EE82EFED7FA2FFCD7FB2FFAD782A069
:1038D6006FEF1CF071EF1CF081EF1CF082B076EFF9
:1038E6001CF078EF1CF071EF1CF0020E0001DA6F8D
:1038F60001019E5166EC23F001019E6F80A886EFC0
:103906001CF088EF1CF0ABEF1CF0030E0001FB6F00
:10391600080EFA6F770EE82EFED7FA2FFCD7FB2F8C
:10392600FAD780A899EF1CF09BEF1CF0ABEF1CF0C8
:1039360080B8A0EF1CF0A2EF1CF09BEF1CF0010E6C
:103946000001DA6F01019E5166EC23F001019E6FC2
:1039560080A6B0EF1CF0B2EF1CF02AEF1DF0030EAC
:103966000001FB6F080EFA6F770EE82EFED7FA2FCE
:10397600FCD7FB2FFAD780A6C3EF1CF0C5EF1CF0CF
:103986002AEF1DF080B6CAEF1CF0CCEF1CF0C5EF95
:103996001CF00AEF1DF0650E046E0450D8A4100E3C
:1039A600056E010EA8EC26F0540E046E0450D8A441
:1039B600100E056E020EA8EC26F0B4EC22F0010EF5
:1039C60001019D6F2AEF1DF0760E046E0450D8A4F7
:1039D600100E056E010EA8EC26F04BEC1FF0E2EF80
:1039E6001CF0870E046E0450D8A4100E056E010E4E
:1039F600A8EC26F0980E046E0450D8A4100E056E9E
:103A0600020EA8EC26F0F6EC19F0E2EF1CF001012C
:103A16009E51000AD8B4CEEF1CF0010AD8B42AEFA2
:103A26001DF0030AD8B42AEF1DF0010AD8B4E7EF57
:103A36001CF0070AD8B4F4EF1CF0010AD8B42AEF38
:103A46001DF0030AD8B42AEF1DF02AEF1DF08050AE
:103A560001019D51D8B432EF1DF034EF1DF057EF40
:103A66001CF0000E0001DA6F01019E5166EC23F096
:103A760001019E6F000E9D6F57EF1CF047EF00F09F
:103A860019C153F01AC154F01BC155F01CC156F0B0
:103A960043C053F044C054F045C055F046C056F0FC
:103AA600810E476EFF0E486E53C049F054C04AF06F
:103AB60055C04BF056C04CF0180E67EF1DF0D8906D
:103AC6004C324B324A324932E82E62EF1DF04950F1
:103AD6004724516E000E4820526E52BE7CEF1DF0F8
:103AE600525009E1170E515CD8A07CEF1DF07EEF15
:103AF6001DF088EF1DF043C043F044C044F045C0BC
:103B060045F046C046F04BEF1EF052BE8DEF1DF05D
:103B16008FEF1DF0FFEF1DF051C047F0FF0E486E0E
:103B2600FF0E496E7F0E4A6E000E4B6E47669EEF85
:103B36001DF0A6EF1DF04B344B324A324932483263
:103B4600472E99EF1DF048C04DF049C04EF04AC0CF
:103B56004FF04BC050F04D505314476E4E50541416
:103B6600486E4F505514496E505056144A6E475081
:103B7600481049104A10D8A4C3EF1DF0C5EF1DF038
:103B8600C7EF1DF07EEF1DF053C047F054C048F05C
:103B960055C049F056C04AF0200ED7EF1DF0D89018
:103BA6004A32493248324732E82ED2EF1DF04750AA
:103BB600481049104A10D8B4E3EF1DF0E5EF1DF0A8
:103BC600EDEF1DF04D5053264E5054224F505522C6
:103BD600505056224D1C476E4E1C486E4F1C496E67
:103BE600501C4A6E475053164850541649505516A5
:103BF6004A50561643EF1EF053C047F054C048F0E3
:103C060055C049F056C04AF0200E0FEF1EF0D8906E
:103C16004A32493248324732E82E0AEF1EF0475000
:103C2600481049104A10D8A41BEF1EF01DEF1EF0D5
:103C360027EF1EF0000E536E000E546E000E556EEA
:103C4600000E566E43EF1EF0D8905334476E543430
:103C5600486E5534496E56344A6E475048104910DE
:103C66004A10D8B439EF1EF03BEF1EF043EF1EF0BA
:103C7600000E536E000E546E800E556EBF0E566EBD
:103C860053C043F054C044F055C045F056C046F00A
:103C9600120053C011F054C012F055C013F056C0B4
:103CA60014F053C015F054C016F055C017F056C0A6
:103CB60018F051EC12F011C074F012C075F013C078
:103CC60076F014C077F074C011F075C012F076C0AB
:103CD60013F077C014F074C015F075C016F076C0F6
:103CE60017F077C018F051EC12F011C070F012C046
:103CF60071F013C072F014C073F0170E156E9A0EA1
:103D0600166ECC0E176E370E186E74C011F075C095
:103D160012F076C013F077C014F051EC12F011C017
:103D260043F012C044F013C045F014C046F03F0EF5
:103D3600476E040E486EB60E496EBA0E4A6EF1EC28
:103D46000FF043C060F044C061F045C062F046C069
:103D560063F0000E476E000E486E800E496E3F0EF1
:103D66004A6E000E156E000E166E000E176EBF0E12
:103D7600186E74C011F075C012F076C013F077C0DB
:103D860014F051EC12F011C043F012C044F013C00D
:103D960045F014C046F0F1EC0FF043C064F044C0A7
:103DA60065F045C066F046C067F074C015F075C092
:103DB60016F076C017F077C018F070C011F071C019
:103DC60012F072C013F073C014F051EC12F011C06F
:103DD60068F012C069F013C06AF014C06BF09F0E51
:103DE600156EAA0E166E2A0E176E3D0E186E70C050
:103DF60011F071C012F072C013F073C014F051ECE0
:103E060012F011C047F012C048F013C049F014C0B8
:103E16004AF064C043F065C044F066C045F067C030
:103E260046F0F1EC0FF043C06CF044C06DF045C0B5
:103E36006EF046C06FF06CC043F06DC044F06EC0CB
:103E460045F06FC046F060C015F061C016F062C064
:103E560017F063C018F068C011F069C012F06AC0AC
:103E660013F06BC014F051EC12F011C047F012C001
:103E760048F013C049F014C04AF0F1EC0FF043C00B
:103E860053F044C054F045C055F046C056F01200F9
:103E96000F01388B3C81C08EC050F80B0609C06EEE
:103EA600C050C70B3009C06EC28020EEDCF0100E89
:103EB600DE6AE806FDE2010E0001F96F3FEF20F031
:103EC600C250830B1409C26EC282C2B26DEF1FF0DC
:103ED6006FEF1FF068EF1FF0C350C4CFDAF0000198
:103EE600DB6BDAC0DBF0DA6BDA11F56FDB51F66FFC
:103EF600000E2E6EC00E2F6E7F0E306E440E316E8B
:103F0600F5C003F0F6C004F0056A066A000E49EC37
:103F160020F003C02AF004C02BF005C02CF006C028
:103F26002DF029EC18F02AC011F02BC012F02CC08D
:103F360013F02DC014F0330E156E330E166E530E9D
:103F4600176E400E186E51EC12F011C0EDF012C053
:103F5600EEF013C0EFF014C0F0F0C250830B10095E
:103F6600C26EC282C2B2BAEF1FF0BCEF1FF0B5EF4D
:103F76001FF0C350C4CFDAF00001DB6BDAC0DBF010
:103F8600DA6BDA11F76FDB51F86F000E2E6EC00E8A
:103F96002F6E7F0E306E440E316EF7C003F0F8C000
:103FA60004F0056A066A000E49EC20F003C02AF008
:103FB60004C02BF005C02CF006C02DF029EC18F03B
:103FC6002AC011F02BC012F02CC013F02DC014F033
:103FD600330E156E330E166E530E176E400E186E98
:103FE60051EC12F011C0F1F012C0F2F013C0F3F070
:103FF60014C0F4F0DC0E0001C26FC36B410EC46F37
:10400600EDC0C5F0EEC0C6F0EFC0C7F0F0C0C8F016
:10401600F1C0C9F0F2C0CAF0F3C0CBF0F4C0CCF0E6
:1040260031EC29F0DC0E046E056A020EA8EC26F0CF
:1040360080A420EF20F022EF20F03FEF20F0030EC7
:104046000001DB6F080EDA6F770EE82EFED7DA2F47
:10405600FCD7DB2FFAD780A433EF20F035EF20F022
:104066003FEF20F080B43AEF20F03CEF20F035EF40
:1040760020F0000E0001F96F0001F951D8A446EFB7
:1040860020F048EF20F063EF1FF012000B6E0B508C
:10409600D8B450EF20F052EF20F074EF20F006BEB7
:1040A60059EF20F057EF20F074EF20F003C007F02F
:1040B60004C008F005C009F006C00AF0071E081E75
:1040C600091E0A1E072A000E082209220A2207C014
:1040D6000DF008C00EF009C00FF00AC010F07CEF1A
:1040E60020F003C00DF004C00EF005C00FF006C0AE
:1040F60010F00350041005100610D8A485EF20F028
:1041060087EF20F091EF20F0000E036E000E046E94
:10411600000E056E000E066E22EF21F0960E0C6E56
:104126009BEF20F00C2AD89010320F320E320D324F
:10413600000E0D14076E000E0E14086E000E0F14FE
:10414600096EFE0E10140A6E0750081009100A10A8
:10415600D8A4B0EF20F0B2EF20F095EF20F0C0EF3A
:1041660020F00C2A010E0D26000E0E220F22102220
:10417600D89010320F320E320D32000E0D14076E2B
:10418600000E0E14086E000E0F14096EFF0E1014AA
:104196000A6E0750081009100A10D8A4D5EF20F0AF
:1041A600D7EF20F0B4EF20F0DFEF20F00C06D89028
:1041B6000D360E360F3610360FBEE4EF20F0E6EF62
:1041C60020F0EEEF20F0020E0C60ECEF20F0EEEFA8
:1041D60020F0D9EF20F00CB0F3EF20F0F5EF20F04F
:1041E600F6EF20F00F9ED8900C320CC007F0086A4C
:1041F600096A0A6A07C00AF0096A086A076A075064
:104206000D1208500E1209500F120A5010120B50C0
:10421600D8B410EF21F012EF21F01AEF21F006BE0C
:1042260019EF21F017EF21F01AEF21F0108E0DC0D3
:1042360003F00EC004F00FC005F010C006F0120027
:104246000FC017F010C018F017501810D8A42EEF92
:1042560021F030EF21F036EF21F0A90E176E17503E
:10426600D8A4100E186E000E1A6E000E196E3EEFD0
:1042760021F0194A1A2A19501724116E1A501820BB
:10428600126E11C0F6FF12C0F7FF000EF86E0F0E89
:10429600F76403D00800F55005D0F6CFE1FFF7CF5D
:1042A600E2FFE7500009D8A45BEF21F05DEF21F0B3
:1042B6003CEF21F05CBE62EF21F064EF21F077EF76
:1042C60021F019505B5C5C50800A116E1A50800A0E
:1042D6001158D8B071EF21F073EF21F077EF21F08C
:1042E6005BC019F05CC01AF019C013F01AC014F0C4
:1042F600FCC015F0FDC016F00001FEB185EF21F0FF
:1043060087EF21F0C3EF21F095EF21F0000E056E47
:10431600200E046E0DC006F00EC007F0E1EC25F08D
:10432600194A1A2A1550195C1A50800A116E16502D
:10433600800A1158D8A0A2EF21F0A4EF21F089EF4E
:1043460021F0C3EF21F017C0F6FF18C0F7FF000EEB
:10435600F86E0F0EF76403D00800F55005D0F6CFBF
:10436600E1FFF7CFE2FFE750116E1150046E056AC8
:104376000DC006F00EC007F0E1EC25F0174A182A2A
:104386001306D8A01406132806E11428D8A4CEEFE5
:1043960021F0D0EF21F0A6EF21F00001FEA1D6EF2B
:1043A60021F0D8EF21F0F5EF21F0E6EF21F0000E35
:1043B600056E200E046E0DC006F00EC007F0E1EC8F
:1043C60025F0194A1A2A1550195C1A50800A116EDE
:1043D6001650800A1158D8A0F3EF21F0F5EF21F01E
:1043E600DAEF21F0120020BEFBEF21F0FEEF21F004
:1043F600010EFFEF21F0000E276E5CBE07EF22F0E4
:1044060005EF22F00DEF22F0000E266E010E256E4E
:1044160011EF22F05BC025F05CC026F0FCC023F053
:10442600FDC024F02750D8B41BEF22F01DEF22F078
:1044360034EF22F02306D8A024062750D8A426EF6E
:1044460022F028EF22F02EEF22F0000E226E2B0E25
:10445600216E32EF22F0000E226E2D0E216E21C04B
:1044660027F0000E296E4F0E286E000E0101716FA7
:104476006DEF22F02806D8A02906220E2824D96E30
:10448600010E2920DA6E1FC003F020C004F0000ED2
:10449600066E0A0E056E01EC27F003C009F004C093
:1044A6000AF0E0EC29F00950300FDF6E2506D8A09F
:1044B60026062306D8A024061FC003F020C004F059
:1044C600000E066E0A0E056E46EC26F003C01FF0BF
:1044D60004C020F029BE78EF22F0295008E1280414
:1044E600D8A078EF22F07AEF22F090EF22F01F505A
:1044F6002010D8A481EF22F083EF22F03DEF22F0C6
:1045060026BE90EF22F0265006E12504D8B08EEFA5
:1045160022F090EF22F03DEF22F02750D8B496EF2C
:1045260022F098EF22F0A3EF22F02806D8A0290661
:10453600220E2824D96E010E2920DA6E27C0DFFF4D
:104546001DC014F01EC015F0220E2824166E010E92
:104556002920176E23C018F024C019F001EC28F0AA
:1045660012009594959694989598959A959C8C8416
:104576008C868B888C888C8A8C8C92840F013895DB
:104586003F0ECD16300ECD129D80F28CF28E010EAE
:104596000101216F9E809E0ECF6E580ECE6ECD808D
:1045A600010E0001FF6F000E1E6E21EEABF010EE45
:1045B60012F00B0EDBCFE3FFE806FCE221EE9FF0E4
:1045C60010EE06F00B0EDBCFE3FFE806FCE2000E72
:1045D600206E0C0E1F6E000E216E51EF23F0000EA2
:1045E600236E000E226E2250020DF350120FD96E6A
:1045F600DA6A02D823EF23F00500FA6EDE50FD6E6C
:10460600DE50FE6EF850FF6EFA5022500508046E1A
:104616002150060FD96EDA6ADF50056E042A16EFAE
:1046260023F0D8900532042E14EF23F005A01EEFD8
:1046360023F021EF23F0010E22EF23F0000E1200EB
:10464600224A232A23BE31EF23F0235009E1060E26
:10465600225CD8A031EF23F033EF23F0F6EF22F0FF
:10466600110E056E3C0E046ECB0EE82EFED7042E00
:10467600FCD7052EFAD70000212A2150046E056AC0
:104686001F50041807E120500518D8A44DEF23F059
:104696004FEF23F051EF23F0000E216E0001FF5182
:1046A600D8A458EF23F05AEF23F0F2EF22F08C84CF
:1046B6008C868B888C888C8A8C8CCD909D90000EF5
:1046C6000101216F120001019C6FABEC29F021EE74
:1046D600B7F011EE94F0070EDBCFE3FFE806FCE23D
:1046E6008DEF23F0060E01019C617CEF23F07EEF37
:1046F60023F09DEF23F09C2B9DEF23F001019C51AD
:10470600D8B488EF23F08AEF23F09DEF23F09C07BF
:104716009DEF23F00001DA51000AD8B49DEF23F093
:10472600010AD8B475EF23F0030AD8B481EF23F059
:104736009DEF23F0720E0001C26F010EC36FB60E1D
:10474600C46F000EC66F0F0EC56F940E01019C2537
:10475600D96EDA6A010EDA22DF500001DB6FDBC0A8
:10476600C7F0C751D8A4100EC86F31EC29F0830EDC
:104776000001C26F010EC36FB70EC46F000EC66F85
:10478600100EC56F01019C510001DB6FDC6B010E41
:10479600DB27000EDC23940EDB25D96E010EDC210F
:1047A600DA6EDF50DD6FDDC0C7F0C751D8A4100E3A
:1047B600C86F31EC29F0720E046E010E056E010E03
:1047C600A8EC26F0830E046E010E056E020EA8EC10
:1047D60026F001019C511200553456340001616FD8
:1047E6006151D8A4F9EF23F0FBEF23F005EF24F095
:1047F600000E536E000E546E000E556E000E566E71
:1048060072EF24F053C057F054C058F055C059F019
:1048160056C05AF0200E15EF24F0D8905A3259326D
:1048260058325732E82E10EF24F05750606F558EED
:10483600FF0E5316FF0E5416FF0E5516000E561693
:10484600960E615F61BF2CEF24F02AEF24F042EF51
:1048560024F06151800A970FD8B034EF24F036EF78
:1048660024F038EF24F0FBEF23F0D890563255327F
:1048760054325332613F38EF24F05AEF24F01F0EC2
:10488600616548EF24F04AEF24F052EF24F0FBEF85
:1048960023F0D89053365436553656366107615153
:1048A600D8A458EF24F05AEF24F04CEF24F06051CE
:1048B600D8B460EF24F062EF24F06AEF24F0561EBD
:1048C600551E541E536C000E54225522562253C0B8
:1048D60053F054C054F055C055F056C056F012006F
:1048E600000E2A14326E000E2B14336E800E2C141A
:1048F600346E7F0E2D14356E325033103410351051
:10490600D8A488EF24F08AEF24F092EF24F0000E6A
:104916002A6E000E2B6E000E2C6E000E2D6E000EF3
:104926002E14326E000E2F14336E800E3014346E39
:104936007F0E3114356E3250331034103510D8A432
:10494600A7EF24F0A9EF24F0B1EF24F0000E2E6EAD
:10495600000E2F6E000E306E000E316E2DAEB6EFCD
:1049660024F0B8EF24F0C1EF24F02A6C2B1ED8B047
:104976002B2A2C1ED8B02C2A800E2D5631AEC6EF0F
:1049860024F0C8EF24F0D1EF24F02E6C2F1ED8B0FF
:104996002F2A301ED8B0302A800E3156000E2A1A21
:1049A600000E2B1A000E2C1A800E2D1A000E2E1A2F
:1049B600000E2F1A000E301A800E311A2E502A5C65
:1049C6002F502B5830502C5831502D58D8B0EEEF70
:1049D60024F0F0EF24F0F3EF24F0D890F4EF24F075
:1049E600D88012001DC10DF01EC10EF01FC10FF0C0
:1049F60020C110F003C00DF004C00EF005C00FF08A
:104A060006C010F00DC007F00EC008F00FC009F088
:104A160010C00AF0180E15EF25F0D8900A320932A8
:104A260008320732E82E10EF25F007500B6E0C6A9D
:104A36000B500C10D8A422EF25F024EF25F044EFFC
:104A460025F0D8900D34076E0E34086E0F34096EBB
:104A560010340A6E0750081009100A10D8A436EF51
:104A660025F038EF25F03EEF25F0000E046E020E1D
:104A7600036E73EF25F0000E046E030E036E73EFE4
:104A860025F00B280C10D8A44BEF25F04DEF25F0A0
:104A96006FEF25F00DC007F00EC008F00FC009F04B
:104AA60010C00AF0090ED8900736083609360A36BD
:104AB600E82E56EF25F00750081009100A10D8B452
:104AC60067EF25F06AEF25F0010E6BEF25F0000E7B
:104AD600036E046A73EF25F0000E046E040E036E77
:104AE60012000F013B913B939580958292908980AD
:104AF6006C50F00B08096C6E130E6E6E6C8A340ED9
:104B0600046EF20EE82EFED7042EFCD76B806BB037
:104B16008FEF25F091EF25F08AEF25F0A49E7C0E0D
:104B26000DEC2AF0800E0DEC2AF0380E0DEC2AF072
:104B3600800E0DEC2AF0390E0DEC2AF0800E0DECED
:104B46002AF0170E0DEC2AF0800E0DEC2AF07A0EE4
:104B56000DEC2AF0800E0DEC2AF05E0E0DEC2AF01C
:104B6600800E0DEC2AF06B0E0DEC2AF0800E0DEC8B
:104B76002AF00C0E0DEC2AF0800E0DEC2AF0010E38
:104B86000DEC2AF0800E0DEC2AF0060E0DEC2AF044
:104B9600800E0DEC2AF0020E0DEC2AF06B846BB43D
:104BA600D7EF25F0D9EF25F0D2EF25F0340E046EBD
:104BB600F20EE82EFED7042EFCD712000650071080
:104BC600D8B4E8EF25F0EAEF25F0F3EF25F006502C
:104BD6000710D8A4F1EF25F0F3EF25F0F8EF25F054
:104BE60004503EEC2AF045EF26F020EE0AF006507F
:104BF600D9260750DA22DE50DE10D8B405EF26F0AB
:104C060007EF26F022EF26F020EE0AF00650D9260E
:104C16000750DA2210EE03F00650E1260750E22292
:104C2600DE50E65CE650800A0C6EDE50800A0C58B8
:104C3600D8B020EF26F022EF26F045EF26F020EE42
:104C460003F00650D9260750DA22DECF08F0DDCF72
:104C560009F006C0D9FF07C0DAFFDECF0AF0DDCFC4
:104C66000BF008500A24D96E09500B20DA6E04C0E6
:104C7600DFFF20EE03F00650D9260750DA22DE2A9F
:104C8600000EDD221200000E086E06BE4FEF26F063
:104C96004DEF26F055EF26F0056C061ED8B0062A15
:104CA600010E086E04BE5CEF26F05AEF26F062EFA6
:104CB60026F0036C041ED8B0042A010E081A000E52
:104CC6000A6E000E096E05500610D8B46DEF26F078
:104CD6006FEF26F097EF26F0010E076E77EF26F0BE
:104CE600D89005360636072A06AE7CEF26F07EEF0C
:104CF60026F073EF26F0D89009360A360550035C85
:104D060006500458D8A08AEF26F08CEF26F091EFD3
:104D160026F00550035E0650045A0980D8900632E4
:104D26000532072E7EEF26F00850D8B49DEF26F008
:104D36009FEF26F0A3EF26F0096C0A1ED8B00A2AC8
:104D460009C003F00AC004F01200086E6B806BB055
:104D5600AFEF26F0B1EF26F0AAEF26F0A49E7C0E68
:104D66000DEC2AF0800E0DEC2AF00804D8A4BEEF54
:104D760026F0C0EF26F0C5EF26F0800E0DEC2AF0E7
:104D8600D1EF26F0020E0818D8A4CCEF26F0CEEF0D
:104D960026F0D1EF26F0C00E0DEC2AF0400E0DECF9
:104DA6002AF0000E096E09500424066E000E052036
:104DB600076E06C0F6FF07C0F7FF000EF86E0F0E6F
:104DC600F76403D00800F55005D0F6CFE1FFF7CF22
:104DD600E2FFE7500DEC2AF0092A0F0E0964F6EF00
:104DE60026F0F8EF26F0D6EF26F06B846BB4FEEFD4
:104DF60026F000EF27F0F9EF26F01200000E086EFD
:104E060004BE0AEF27F008EF27F010EF27F0036C37
:104E1600041ED8B0042A010E086E06BE17EF27F04E
:104E260015EF27F01BEF27F0056C061ED8B0062AF3
:104E360005500610D8B422EF27F024EF27F048EFEC
:104E460027F0010E076E2CEF27F0D89005360636B0
:104E5600072A06AE31EF27F033EF27F028EF27F0C9
:104E66000550035C06500458D8A03CEF27F03EEFEF
:104E760027F042EF27F00550035E0650045AD890FB
:104E860006320532072E33EF27F00850D8B44EEF1E
:104E960027F050EF27F054EF27F0036C041ED8B02C
:104EA600042A03C003F004C004F01200000E031429
:104EB6000B6E000E04140C6E800E05140D6E7F0E24
:104EC60006140E6E0B500C100D100E10D8A46EEFBB
:104ED60027F070EF27F078EF27F0000E036E000E34
:104EE600046E000E056E000E066E000E07140B6EA5
:104EF600000E08140C6E800E09140D6E7F0E0A1437
:104F06000E6E0B500C100D100E10D8A48DEF27F05E
:104F16008FEF27F097EF27F0000E076E000E086E52
:104F2600000E096E000E0A6E075003180FE10850B6
:104F360004180CE10950051809E10A500618D8B4FE
:104F4600A7EF27F0A9EF27F0ACEF27F0D890ADEF49
:104F560027F0D8801200000E0D6E000E0C6E095060
:104F6600D96EDA6ADFCFF6FF100EF76E0800F5503D
:104F76002A0AD8A4C1EF27F0C3EF27F0E9EF27F0FC
:104F86000950D96EDA6ADF2A0A50D96EDA6A020E39
:104F9600DF26DF5CD96EDA6ADECF0CF0DECF0DF0ED
:104FA600FCEF27F00CC003F00DC004F0000E066EF7
:104FB6000A0E056EFAEC29F00B5003240C6E000E57
:104FC60004200D6E0950D96EDA6ADF2A0950D96EAF
:104FD600DA6ADFCFF6FF100EF76E0800F550D00F35
:104FE6000B6E090E0B64FAEF27F0FCEF27F0D5EFF6
:104FF60027F00CC009F00DC00AF012000001FEA156
:1050060007EF28F009EF28F013EF28F016C00DF08F
:1050160017C00EF014C00FF015C010F00FEC29F0F9
:1050260019BE1AEF28F018EF28F01EEF28F0000E30
:10503600196E000E186E000E1C6E000E1B6E30EF01
:1050460028F0000E056E200E046E14C006F015C082
:1050560007F0E1EC25F01B4A1C2A18501B5C1C507B
:10506600800A1A6E1950800A1A58D8A03DEF28F007
:105076003FEF28F024EF28F00001FEB145EF28F0BD
:1050860047EF28F051EF28F016C00DF017C00EF0CC
:1050960014C00FF015C010F00FEC29F0120006BE78
:1050A60057EF28F059EF28F063EF28F003C003F01C
:1050B60004C004F005C005F006C006F07CEF28F039
:1050C60003C007F004C008F005C009F006C00AF0E6
:1050D600071E081E091E0A1E072A000E082209229C
:1050E6000A2207C003F008C004F009C005F00AC090
:1050F60006F0120005C00CF006C00DF003C00AF061
:1051060004C00BF097EF28F00CC0D9FF0DC0DAFFF2
:10511600DF50096E0C4A0D2A0AC0D9FF0BC0DAFF10
:1051260009C0DFFF0A4A0B2A0706D8A00806072887
:1051360006E10828D8A4A2EF28F0A4EF28F087EF0C
:1051460028F01200400EF66E540EF76E000EF86E42
:1051560001EE9FF010EE20F00900F5CFEEFFE550CE
:10516600E150FAE101EE00F0720EEE6AE806FDE1AA
:105176000001FF6BFE6BFD6BFC6B5C6A5B6A5D900E
:105186005D92000EF86E000134EF1CF0BFC0C1F056
:10519600D8EF28F0BDC0B1F0BEC0B2F0C10E00011C
:1051A600B36FC0C0B4F066EC14F0C1C0F6FF100EC9
:1051B600F76E0800F5500009D8A4E4EF28F0E6EFF2
:1051C60028F0CDEF28F0000E0001BE6F000EBD6F77
:1051D6001200000E571A000E581A000E591A800EA9
:1051E6005A1A53C043F054C044F055C045F056C057
:1051F60046F057C047F058C048F059C049F05AC069
:105206004AF0F1EC0FF043C053F044C054F045C0EF
:1052160055F046C056F01200000E136E000E126EC8
:1052260020EF29F011C004F0056A0FC006F010C087
:1052360007F0E1EC25F0124A132A12500D24D96E1C
:1052460013500E20DA6EDF50116E1150D8A42EEFD7
:1052560029F030EF29F015EF29F01200C50E0001F4
:10526600CD6FC2C0CEF0C3C0CFF0000ED26F000E1D
:10527600D16F000ED96F000ED86FCE0EBD6FBE6B0C
:10528600C4C0BFF0CD0EC06FC9EC28F00001D151EB
:10529600C225D96ED251C321DA6EDF6A1200056EBD
:1052A60005380F0B3009036E0538F00B046E8A962D
:1052B60003C0C9FF9EA662EF29F064EF29F05DEFF7
:1052C60029F09E9604C0C9FF9EA66CEF29F06EEFEA
:1052D60029F067EF29F09E968A86120003C007F030
:1052E60004C008F0052A0504066E06C0F6FF100E77
:1052F600F76E07C0D9FF08C0DAFF074A082A080078
:10530600F5CFDFFFDF50D8A48BEF29F08DEF29F022
:1053160075EF29F012000001785179117A117B118D
:10532600D8B498EF29F09AEF29F0A2EF29F0000EF1
:10533600781B000E791B000E7A1B800E7B1B78C033
:1053460078F079C079F07AC07AF07BC07BF01200F1
:105356006B806BB0B1EF29F0B3EF29F0ACEF29F019
:10536600A49E7C0E0DEC2AF0800E0DEC2AF0010EA8
:105376000DEC2AF06B846BB4C3EF29F0C5EF29F06E
:10538600BEEF29F0120011C107F012C108F013C1D7
:1053960009F014C10AF003C007F004C008F005C004
:1053A60009F006C00AF00A9E07C003F008C004F020
:1053B60009C005F00AC006F012000ABEE5EF29F0A2
:1053C600E7EF29F0EDEF29F009C009F00AC00AF06D
:1053D600F9EF29F009C00BF00AC00CF00B1E0C1EE9
:1053E6000B4A0C2A0BC009F00CC00AF0120003503D
:1053F6000502F3CF07F0F4CF08F003500602F3508E
:10540600082604500502F350082607C003F008C01A
:1054160004F01200036E03C06FFF6DB015EF2AF0A3
:1054260017EF2AF010EF2AF0A4AE1CEF2AF01EEFB9
:105436002AF017EF2AF0A49E12002030180C06035B
:105446000103060C1830CA54BC54AE54A0549254EE
:10545600D854C1C6E0DCD8BCB0CFC30E0001C56FBE
:10546600000EBD6F000EBE6FC2C0BFF0C50EC06F8E
:10547600C9EC28F01200036E9EA844EF2AF046EF0E
:105486002AF03FEF2AF003C0ADFF1200036E03B00F
:1054960002D08C9A01D08C8A1200036E03B002D01F
:1054A6008C9801D08C881200036E03B002D08B98C2
:1054B60001D08B881200036E03B002D08C9601D007
:1054C6008C861200036E03B002D08C9401D08C84BB
:1054D6001200036E03B002D08C9C01D08C8C12009B
:020000040030CA
:04000000FF331F3C6F
:00000001FF
