:04000000A7EF00F076
:100008005A82D9CF03F0DACF04F09DA00EEF00F0AA
:1000180010EF00F049EF00F09EA015EF00F017EF89
:1000280000F049EF00F001012651D8B41EEF00F0AE
:1000380020EF00F049EF00F080A425EF00F027EF53
:1000480000F044EF00F0030E026E080E016E770E0A
:10005800E82EFED7012EFCD7022EFAD7000080A486
:1000680038EF00F03AEF00F044EF00F080B43FEFD3
:1000780000F041EF00F03AEF00F0000E0001FE6FD3
:100088009E0ECF6E580ECE6E9E909DA04EEF00F045
:1000980050EF00F066EF00F09EA055EF00F057EF2C
:1000A80000F066EF00F001012451D8B45EEF00F0D3
:1000B80060EF00F066EF00F0232B0B0ECF6EDC0E26
:1000C800CE6E9E909DAA6BEF00F06DEF00F0A1EF51
:1000D80000F09EAA72EF00F074EF00F0A1EF00F0BC
:1000E80001012551D8B47BEF00F07DEF00F0A1EFBE
:1000F80000F0AECF05F00A0E0518D8B486EF00F070
:1001080088EF00F094EF00F0770E2125D96E010EEC
:100118002221DA6E05C0DFFF214B222BA1EF00F070
:10012800010E966F770E2125D96E010E2221DA6E07
:10013800DF6A000E226F000E216F04C0DAFF03C0D1
:10014800D9FF5A92110054EF27F0000E0001AE6F4C
:1001580086C0AFF087C0B0F088C0B1F089C0B2F0F7
:10016800B2BFBBEF00F0B9EF00F0CFEF00F0010E27
:10017800AE6FAFC080F0B0C081F0B1C082F0B2C045
:1001880083F053EC28F080C0AFF081C0B0F082C09B
:10019800B1F083C0B2F0000E0001B46F000EB36F6F
:1001A80055C09EF056C09FF0AE51D8B4DEEF00F0B7
:1001B800E0EF00F0F4EF00F0AE51D8A4E6EF00F065
:1001C800E8EF00F0EEEF00F0000E946F2B0E936F47
:1001D800F2EF00F0000E946F2D0E936F93C0AEF007
:1001E800AFC006F0B0C007F0B1C008F0B2C009F067
:1001F8004CEC22F006040710D8A405EF01F007EF35
:1002080001F03AEF01F00001AE51D8B40EEF01F061
:1002180010EF01F019EF01F0AEC027F19E07D8A04A
:100228009F07000EB46F010EB36F270EB325066E3D
:10023800010EB421076EEB0E086EFF0E096E70EC0E
:1002480028F00001FD0E9E27FF0E9F2384C017F0A3
:1002580085C018F0270E196E010E1A6E9EC01BF08D
:100268009FC01CF0D4EC25F0A5EF05F0AFC006F058
:10027800B0C007F0B1C008F0B2C009F04CEC22F0F1
:1002880006500710D8A44BEF01F04DEF01F06DEFC9
:1002980001F00001AE51D8B454EF01F056EF01F06F
:1002A8005FEF01F0AEC027F19E07D8A09F07000EB0
:1002B800B46F010EB36F270EB325066E010EB4217D
:1002C800076EEF0E086EFF0E096E70EC28F025EF32
:1002D80001F0000E0001B56F000EB66F800EB76F0B
:1002E8003F0EB86F000E9D6F000E9C6FAFC006F0FA
:1002F800B0C007F0B1C008F0B2C009F0000E0A6E35
:10030800000E0B6E000E0C6E000E0D6E7FEC25F0CD
:10031800D8B091EF01F093EF01F072EF02F0A0EF87
:1003280001F0A0C0B5F0A1C0B6F0A2C0B7F0A3C05C
:10033800B8F000019C4B9D2BB5C014F0B6C015F069
:10034800B7C016F0B8C017F0000E186E000E196E80
:10035800200E1A6E410E1B6E3AEC0DF014C0A0F080
:1003680015C0A1F016C0A2F017C0A3F00001A0515B
:10037800AF5D066EA151B059076EA251B159086E12
:10038800A351B259096E29EC27F009BED7EF01F045
:1003980009500810071009E1020E065CD8A0D7EF33
:1003A80001F0D9EF01F095EF01F0A0C02DF0A1C048
:1003B8002EF0A2C02FF0A3C030F0AFC031F0B0C013
:1003C80032F0B1C033F0B2C034F0CAEC21F0D8A09A
:1003D800F0EF01F0F2EF01F095EF01F00001B551F7
:1003E800AF5D066EB651B059076EB751B159086E78
:1003F800B851B259096E29EC27F009BE11EF02F085
:1004080009500810071007E1020E065CD8B00FEF7C
:1004180002F011EF02F059EF02F0B5C0AFF0B6C02C
:10042800B0F0B7C0B1F0B8C0B2F072EF02F0B5C02A
:100438002DF0B6C02EF0B7C02FF0B8C030F0000EC7
:10044800316E000E326E200E336E410E346E2BEC80
:1004580013F02DC0B5F02EC0B6F02FC0B7F030C0E5
:10046800B8F000019C07D8A09D07B551AF5D066E96
:10047800B651B059076EB751B159086EB851B25953
:10048800096E29EC27F009BE57EF02F00950081051
:10049800071007E1020E065CD8B055EF02F057EFDF
:1004A80002F059EF02F011EF02F0AFC02DF0B0C02A
:1004B8002EF0B1C02FF0B2C030F0B5C031F0B6C0E8
:1004C80032F0B7C033F0B8C034F0CAEC21F0D8A08D
:1004D80070EF02F072EF02F01BEF02F08AC096F0A4
:1004E80096C097F058BE7BEF02F07DEF02F083EFE5
:1004F80002F057C08FF058C090F088EF02F0000E5D
:100508000001906F060E8F6F8FC09AF090C09BF01D
:1005180000019A4B9B2B660E9719D8A496EF02F010
:1005280098EF02F0B8EF02F09DBF9FEF02F09DEF49
:1005380002F0ABEF02F0000EB56F000EB66F800E42
:10054800B76F3F0EB86F000E9D6F000E9C6F670E61
:100558009619D8B4B2EF02F0B4EF02F0B8EF02F097
:100568009C519A279D519B23000EA56F000EA46FE6
:10057800AFC0A6F0B0C0A7F0B1C0A8F0B2C0A9F053
:10058800B5C0A0F0B6C0A1F0B7C0A2F0B8C0A3F043
:1005980049EF03F0A6C02DF0A7C02EF0A8C02FF099
:1005A800A9C030F0B5C031F0B6C032F0B7C033F0F2
:1005B800B8C034F02BEC13F02DC046F02EC047F035
:1005C8002FC048F030C049F034EC19F046C0AAF00A
:1005D80047C0ABF048C0ACF049C0ADF0AAC064F069
:1005E800ABC065F0ACC066F0ADC067F046EC21F07A
:1005F80064C098F065C099F0A6C064F0A7C065F023
:10060800A8C066F0A9C067F0AAC018F0ABC019F07E
:10061800ACC01AF0ADC01BF0B5C014F0B6C015F0F0
:10062800B7C016F0B8C017F03AEC0DF014C068F077
:1006380015C069F016C06AF017C06BF0CBEC27F054
:1006480064C0A6F065C0A7F066C0A8F067C0A9F0AE
:10065800B5C02DF0B6C02EF0B7C02FF0B8C030F03E
:10066800000E316E000E326E200E336E410E346E67
:100678002BEC13F02DC0B5F02EC0B6F02FC0B7F09C
:1006880030C0B8F00001A44BA52B9A51A45DA55128
:10069800800A8B6F9B51800A8B59D8A056EF03F0C4
:1006A80058EF03F0CEEF02F0B5C014F0B6C015F065
:1006B800B7C016F0B8C017F0000E186E000E196E0D
:1006C800A00E1A6E400E1B6E3AEC0DF014C0AAF084
:1006D80015C0ABF016C0ACF017C0ADF0A6C02DF039
:1006E800A7C02EF0A8C02FF0A9C030F0AAC031F0E2
:1006F800ABC032F0ACC033F0ADC034F0CAEC21F07E
:10070800D8B089EF03F08BEF03F096EF03F0000EFB
:100718000001AA6F000EAB6F000EAC6F000EAD6F3C
:10072800BFEF03F0A6C006F0A7C007F0A8C008F006
:10073800A9C009F0AAC00AF0ABC00BF0ACC00CF01D
:10074800ADC00DF07FEC25F0D8A0ADEF03F0AFEF12
:1007580003F0BFEF03F0000198B1B5EF03F0B7EF76
:1007680003F0BFEF03F0000EAA6F000EAB6F000E90
:10077800AC6F000EAD6FAFC046F0B0C047F0B1C06F
:1007880048F0B2C049F0AAC04AF0ABC04BF0ACC0C8
:100798004CF0ADC04DF0D9EC0AF046C0A6F047C009
:1007A800A7F048C0A8F049C0A9F0A6C02DF0A7C07E
:1007B8002EF0A8C02FF0A9C030F0000E186E000E61
:1007C800196E200E1A6E410E1B6EA0C014F0A1C047
:1007D80015F0A2C016F0A3C017F03AEC0DF014C043
:1007E80031F015C032F016C033F017C034F0CAEC3F
:1007F80021F0D8A002EF04F004EF04F02DEF04F08C
:1008080000019C4B9D2BA0C014F0A1C015F0A2C004
:1008180016F0A3C017F0000E186E000E196E200E09
:100828001A6E410E1B6E3AEC0DF014C0A0F015C004
:10083800A1F016C0A2F017C0A3F0660E0001971928
:10084800D8A429EF04F02BEF04F02DEF04F09A4B15
:100858009B2BA0C0B5F0A1C0B6F0A2C0B7F0A3C052
:10086800B8F09CC08DF09DC08EF0000E0001956F11
:10087800000E926F000E916F000EA56F000EA46F10
:100888002BEF05F0A6C02DF0A7C02EF0A8C02FF0C2
:10089800A9C030F0B5C031F0B6C032F0B7C033F0FF
:1008A800B8C034F02BEC13F02DC046F02EC047F042
:1008B8002FC048F030C049F034EC19F046C0AAF017
:1008C80047C0ABF048C0ACF049C0ADF0AAC064F076
:1008D800ABC065F0ACC066F0ADC067F046EC21F087
:1008E800000165BF83EF04F0655107E10A0E645DFE
:1008F800D8B081EF04F083EF04F093EF04F0AAC0BE
:1009080064F0ABC065F0ACC066F0ADC067F046EC13
:1009180021F064C098F065C099F097EF04F0000EDC
:10092800996F090E986F00019551D8A49EEF04F0B5
:10093800A0EF04F0C8EF04F08EBFA7EF04F0A5EF16
:1009480004F0C8EF04F0270EB325D96E010EB421C8
:10095800DA6E2E0EDF6EB34BB42B9E07D8A09F071E
:10096800010E956FC8EF04F0270EB325D96E010E5E
:10097800B421DA6E300EDF6EB34BB42B9E07D8A0CD
:100988009F079107D8A0920791519211D8A4CFEF51
:1009980004F0D1EF04F0B8EF04F0270EB325D96EB8
:1009A800010EB421DA6E9851300FDF6EB34BB42BC1
:1009B8009E07D8A09F07A6C064F0A7C065F0A8C08E
:1009C80066F0A9C067F0AAC018F0ABC019F0ACC0B7
:1009D8001AF0ADC01BF0B5C014F0B6C015F0B7C022
:1009E80016F0B8C017F03AEC0DF014C068F015C056
:1009F80069F016C06AF017C06BF0CBEC27F064C042
:100A0800A6F065C0A7F066C0A8F067C0A9F0B5C099
:100A18002DF0B6C02EF0B7C02FF0B8C030F0000EE1
:100A2800316E000E326E200E336E410E346E2BEC9A
:100A380013F02DC0B5F02EC0B6F02FC0B7F030C0FF
:100A4800B8F000018D07D8A08E07A44BA52B9A51AA
:100A5800A45DA551800A8B6F9B51800A8B59D8B031
:100A680038EF05F03AEF05F048EF05F0B4BF46EF70
:100A780005F0B45109E14B0EB35DD8A046EF05F07F
:100A880048EF05F046EF04F0000EA56F4F0EA46F77
:100A9800270EA425D96E010EA521DA6EDF6A270E6E
:100AA8008B6F010E8C6FB3518B5FB4518C5BA4516B
:100AB8008B25066EA5518C21076E270E086E010E38
:100AC800096EB3C00AF0B4C00BF07EEC27F0000149
:100AD800B351A45DB36FB451A559B46FAE51D8A446
:100AE80078EF05F07BEF05F0010E7CEF05F0000EC6
:100AF800A46FA56BAE51D8B484EF05F086EF05F06E
:100B080091EF05F0B307D8A0B407270EB325D96E27
:100B1800010EB421DA6EAEC0DFFFA4519E5FA5516D
:100B28009F5B84C017F085C018F0270EB325196E97
:100B3800010EB4211A6E9EC01BF09FC01CF0D4ECAD
:100B480025F012000001BB51D96EDA6ADECFF6FF3C
:100B5800DDCFF7FF0800F550250AD8A4B6EF05F059
:100B6800B8EF05F040EF08F0BB51D96EDA6ADE2A1B
:100B7800000EDD22000E566E000E556E55C059F05F
:100B880057685868000EBF6FE6EF05F05980BB51F3
:100B9800D96EDA6ADE2A000EDD22E6EF05F0010ED4
:100BA800BF6FE6EF05F0BB51D96EDA6ADECFF6FF0C
:100BB800DDCFF7FF0800F5502D0AD8B4CAEF05F0CD
:100BC800D3EF05F0BF51D8B4ECEF05F0EEEF05F028
:100BD800D7EF05F0BBC00CF0BCC00DF028EC25F039
:100BE8000CC055F00DC056F056BEFFEF05F0FDEFF6
:100BF80005F004EF06F05980556C561ED8B0562AF9
:100C08000001BB51D96EDA6ADECFF6FFDDCFF7FF00
:100C18000800F5502E0AD8A414EF06F016EF06F0D7
:100C280026EF06F0BB51D96EDA6ADE2A000EDD2205
:100C3800BBC00CF0BCC00DF028EC25F00CC057F080
:100C48000DC058F00001BB51D96EDA6ADECFC5F08D
:100C5800DDCFC6F0C5C0F6FFC6C0F7FF0800F5CF68
:100C6800C4F043EF06F0C54BC62B56EF06F0690EED
:100C7800C46F56EF06F0000EC46F56EF06F0C4516D
:100C8800640AD8B43BEF06F00C0AD8B437EF06F084
:100C9800010AD8B43BEF06F01C0AD8B43BEF06F0C3
:100CA8003FEF06F0C5C0F6FFC6C0F7FF0800F550D5
:100CB800640AD8B462EF06F064EF06F090EF06F02D
:100CC800C5C0F6FFC6C0F7FF0800F550690AD8A4EA
:100CD80070EF06F072EF06F0B4EF06F090EF06F052
:100CE800BC51D96EDA6A020EDF26DF5CD96EDA6A89
:100CF800DECFC0F0DECFC1F09BEF06F0BC51D96E5D
:100D0800DA6A020EDF26DF5CD96EDA6ADECFC0F05F
:100D1800DECFC1F09BEF06F0C451680AD8B482EF69
:100D280006F0010AD8B474EF06F09BEF06F0010E46
:100D3800C525BD6F000EC621BE6FBB51D96EDA6ADC
:100D4800BDC0DEFFBEC0DDFFB9C020F0BAC021F0D3
:100D5800C0C022F0C1C023F0F0EC1DF053EF08F042
:100D6800C5C0F6FFC6C0F7FF0800F550750AD8A43D
:100D7800C0EF06F0C2EF06F012EF07F0E0EF06F062
:100D8800BC51D96EDA6A020EDF26DF5CD96EDA6AE8
:100D9800DECFC0F0DECFC1F0EBEF06F0BC51D96E6C
:100DA800DA6A020EDF26DF5CD96EDA6ADECFC0F0BF
:100DB800DECFC1F0EBEF06F0C451680AD8B4D2EF29
:100DC80006F0010AD8B4C4EF06F0EBEF06F0010E06
:100DD800C525BD6F000EC621BE6FBB51D96EDA6A3C
:100DE800BDC0DEFFBEC0DDFF06EF07F0B9C020F0D2
:100DF800BAC021F0C0C022F0C1C023F0CBEC22F071
:100E080053EF08F0C5C0F6FFC6C0F7FF0800F5505D
:100E1800750AD8B4FAEF06F012EF07F0000EBF6FAC
:100E2800BB51D96EDA6ADECFF6FFDDCFF7FF0800D7
:100E3800F550730AD8A423EF07F025EF07F02FEF3A
:100E480007F0BB51D96EDA6ADE2A000EDD22010EE8
:100E5800BF6F7BEF07F0BB51D96EDA6ADECFF6FFC2
:100E6800DDCFF7FF0800F5506C0AD8A43EEF07F075
:100E780040EF07F07BEF07F0BB51D96EDA6ADECF9F
:100E8800BDF0DDCFBEF0010EBD27000EBE23BDC0F4
:100E9800F6FFBEC0F7FF0800F5506C0AD8A457EF5C
:100EA80007F059EF07F07BEF07F0BB51D96EDA6A0C
:100EB800DECFBDF0DDCFBEF0020EBD27000EBE2393
:100EC800BDC0F6FFBEC0F7FF0800F550730AD8A4EE
:100ED80070EF07F072EF07F07BEF07F0BB51D96EA8
:100EE800DA6A030EDE26000EDD222BEF07F0BF5173
:100EF800D8B481EF07F083EF07F097EF07F0B9C098
:100F080010F0BAC011F0BC51D96EDA6A020EDF26B1
:100F1800DF5CD96EDA6ADECF12F0DECF13F021EC97
:100F28001DF053EF08F0BB51D96EDA6ADECFC5F079
:100F3800DDCFC6F0C5C0F6FFC6C0F7FF0800F5CF85
:100F4800C4F0B3EF07F0C54BC62BC2EF07F06C0E29
:100F5800C46FC2EF07F0000EC46FC2EF07F0C451B0
:100F68004C0AD8B4A7EF07F02A0AD8B4ABEF07F0B9
:100F78000A0AD8B4A7EF07F0AFEF07F0C5C0F6FF2D
:100F8800C6C0F7FF0800F550660AD8A4CEEF07F0F0
:100F9800D0EF07F037EF08F0FAEF07F0BC51D96E41
:100FA800DA6ADFCFBDF0040EDF26BD51D96EDA6AEA
:100FB800DECFC0F0DECFC1F0DECFC2F0DECFC3F0AF
:100FC80005EF08F0BC51D96EDA6ADFCFBDF0040E28
:100FD800DF26BD51D96EDA6ADECFC0F0DECFC1F0B0
:100FE800DECFC2F0DECFC3F005EF08F0C4514C0AE3
:100FF800D8B4E6EF07F0200AD8B4D2EF07F005EF2F
:1010080008F0010EC525BD6F000EC621BE6FBB518D
:10101800D96EDA6ABDC0DEFFBEC0DDFF2BEF08F077
:10102800B9C084F0BAC085F0C0C086F0C1C087F0EE
:10103800C2C088F0C3C089F0C5C0F6FFC6C0F7FFBC
:101048000800F5CF8AF0A9EC00F053EF08F0C5C00E
:10105800F6FFC6C0F7FF0800F550660AD8B414EFCB
:1010680008F037EF08F00001BB51D96EDA6ADE2AC2
:10107800000EDD2253EF08F0BB51D96EDA6ADECFDD
:10108800F6FFDDCFF7FF0800F550076E086AB9C014
:1010980009F0BAC00AF0B0EC23F037EF08F01200FC
:1010A800A4C0BAF0A5C0BBF0A6C0BCF0A7C0BDF0F4
:1010B8000001BDBF62EF08F065EF08F0010E66EFB2
:1010C80008F0000EB16FBD9FDB0EBA5D0F0EBB5965
:1010D800490EBC593F0EBD59D8B075EF08F077EFEF
:1010E80008F0A0EF08F0800EBC5D390EBD59D8B0ED
:1010F80080EF08F082EF08F08CEF08F0A4C0A4F0AD
:10110800A5C0A5F0A6C0A6F0A7C0A7F0D8EF0AF022
:10111800A4C064F0A5C065F0A6C066F0A7C067F0DB
:101128001BEC18F064C0A4F065C0A5F066C0A6F07A
:1011380067C0A7F0D8EF0AF0D20EBA5D530EBB59BC
:101148007B0EBC59400EBD59D8B0ADEF08F0AFEFDB
:1011580008F092EF09F0E40EBA5DCB0EBB59160EFB
:10116800BC59400EBD59D8B0BCEF08F0BEEF08F02E
:101178002CEF09F0B151D8B4C4EF08F0C6EF08F06D
:10118800FEEF08F0DB0E4A6E0F0E4B6EC90E4C6E6A
:101198003F0E4D6EA4C046F0A5C047F0A6C048F06B
:1011A800A7C049F0D9EC0AF046C0B2F047C0B3F086
:1011B80048C0B4F049C0B5F0B2C064F0B3C065F03F
:1011C800B4C066F0B5C067F048EC1BF064C080F0AE
:1011D80065C081F066C082F067C083F053EC28F0E8
:1011E80080C0A4F081C0A5F082C0A6F083C0A7F09B
:1011F800D8EF0AF0A4C046F0A5C047F0A6C048F052
:10120800A7C049F0DB0E4A6E0F0E4B6EC90E4C6E2E
:10121800BF0E4D6ED9EC0AF046C0B2F047C0B3F02D
:1012280048C0B4F049C0B5F0B2C064F0B3C065F0CE
:10123800B4C066F0B5C067F048EC1BF064C0A4F019
:1012480065C0A5F066C0A6F067C0A7F0D8EF0AF0A1
:10125800B151D8A432EF09F034EF09F05AEF09F090
:10126800DB0E4A6E0F0E4B6E490E4C6EC00E4D6E65
:10127800A4C046F0A5C047F0A6C048F0A7C049F0F2
:10128800D9EC0AF046C080F047C081F048C082F02F
:1012980049C083F053EC28F080C0A8F081C0A9F0C1
:1012A80082C0AAF083C0ABF07EEF09F0DB0E4A6E75
:1012B8000F0E4B6E490E4C6E400E4D6EA4C046F09C
:1012C800A5C047F0A6C048F0A7C049F0D9EC0AF07D
:1012D80046C080F047C081F048C082F049C083F022
:1012E80053EC28F080C0A8F081C0A9F082C0AAF011
:1012F80083C0ABF0A8C064F0A9C065F0AAC066F0CE
:10130800ABC067F01BEC18F064C0A4F065C0A5F092
:1013180066C0A6F067C0A7F0D8EF0AF0D60EBA5D8F
:10132800310EBB59E20EBC59400EBD59D8B09FEFE3
:1013380009F0A1EF09F042EF0AF0E00EBA5DED0EF8
:10134800BB59AF0EBC59400EBD59D8B0AEEF09F02D
:10135800B0EF09F0F0EF09F0B151D8B4B6EF09F0E9
:10136800B8EF09F0D4EF09F0A4C046F0A5C047F0E3
:10137800A6C048F0A7C049F0E40E4A6ECB0E4B6EEB
:10138800960E4C6E400E4D6ED9EC0AF046C0B2F087
:1013980047C0B3F048C0B4F049C0B5F018EF09F041
:1013A800E40E4A6ECB0E4B6E960E4C6EC00E4D6E12
:1013B800A4C046F0A5C047F0A6C048F0A7C049F0B1
:1013C800D9EC0AF046C0B2F047C0B3F048C0B4F058
:1013D80049C0B5F0E0EF08F0B151D8A4F6EF09F034
:1013E800F8EF09F014EF0AF0A4C046F0A5C047F0E2
:1013F800A6C048F0A7C049F0DB0E4A6E0F0E4B6E30
:10140800C90E4C6EC00E4D6ED9EC0AF046C0ACF059
:1014180047C0ADF048C0AEF049C0AFF02EEF0AF0BB
:10142800A4C046F0A5C047F0A6C048F0A7C049F040
:10143800DB0E4A6E0F0E4B6EC90E4C6E400E4D6E93
:10144800D9EC0AF046C0ACF047C0ADF048C0AEF0E9
:1014580049C0AFF0ACC064F0ADC065F0AEC066F096
:10146800AFC067F01BEC18F064C0A4F065C0A5F02D
:1014780066C0A6F067C0A7F0D8EF0AF0800EBC5D82
:101488007F0EBD59D8A04BEF0AF04DEF0AF05FEF81
:101498000AF0FF0EBA13FF0EBB13FF0EBC13000EAB
:1014A800BD13BAC0A4F0BBC0A5F0BCC0A6F0BDC0B7
:1014B800A7F0D8EF0AF0A4C084F0A5C085F0A6C0B4
:1014C80086F0A7C087F0B60E886F4AEC11F00001CD
:1014D8008451030BB06FC9EF0AF0B6C080F0B7C0F3
:1014E80081F0B8C082F0B9C083F053EC28F080C016
:1014F800B6F081C0B7F082C0B8F083C0B9F0B6C00A
:1015080064F0B7C065F0B8C066F0B9C067F01BEC0E
:1015180018F064C0A4F065C0A5F066C0A6F067C066
:10152800A7F0D8EF0AF0B6C064F0B7C065F0B8C04D
:1015380066F0B9C067F048EC1BF064C0A4F065C061
:10154800A5F066C0A6F067C0A7F0D8EF0AF0B6C04D
:1015580064F0B7C065F0B8C066F0B9C067F048EC91
:101568001BF064C080F065C081F066C082F067C07F
:1015780083F053EC28F080C0A4F081C0A5F082C0AD
:10158800A6F083C0A7F0D8EF0AF0B051000AD8B48B
:1015980083EF0AF0010AD8B497EF0AF0030AD8B427
:1015A80071EF0AF0ABEF0AF012004950800B00010E
:1015B800606F49504924626F48AEE5EF0AF0E7EFE3
:1015C8000AF0E8EF0AF062816251D8B4EEEF0AF04F
:1015D800F0EF0AF005EF0BF06229D8A4F6EF0AF055
:1015E800F8EF0AF000EF0BF0000E466E000E476EA3
:1015F800000E486E000E496E488E000E496E0DEFC3
:101608000BF0000E466E000E476E000E486E000E80
:10161800496E4D50800B616F60516119D8B417EF56
:101628000BF019EF0BF01AEF0BF0608D4D504D24B5
:10163800616F4CAE22EF0BF024EF0BF025EF0BF0AF
:1016480061816151D8B42BEF0BF02DEF0BF042EF15
:101658000BF06129D8A433EF0BF035EF0BF03DEF19
:101668000BF0000E4A6E000E4B6E000E4C6E000E14
:101678004D6E4C8E000E4D6E4AEF0BF0000E4A6E0A
:10168800000E4B6E000E4C6E000E4D6E6251615D89
:10169800D8B051EF0BF053EF0BF07AEF0BF060ADD1
:1016A80058EF0BF05AEF0BF05CEF0BF0800E601B5D
:1016B80062C063F061C062F063C061F046C063F06D
:1016C8004AC046F063C04AF047C063F04BC047F0D9
:1016D80063C04BF048C063F04CC048F063C04CF0A6
:1016E80049C063F04DC049F063C04DF0000E636F10
:1016F800625161C04EF04F6A4E5E000E4F5A4FBEA7
:101708008FEF0BF04F5009E11A0E4E5CD8A08FEF07
:101718000BF091EF0BF0C8EF0BF046504710481054
:101728004910D8A49AEF0BF09DEF0BF0010E9EEF35
:101738000BF0000E636F000E466E000E476E000E33
:10174800486E000E496E61C062F0D1EF0BF063A1E4
:10175800B0EF0BF0B2EF0BF0B8EF0BF0D8906331AD
:101768000109636FBAEF0BF0D890633346A0BFEF5F
:101778000BF0C1EF0BF0C2EF0BF0638F4934493225
:10178800483247324632622B6151625DD8A0CFEFB2
:101798000BF0D1EF0BF0ABEF0BF060BDD6EF0BF019
:1017A800D8EF0BF018EF0CF06251D8A4DEEF0BF075
:1017B800E0EF0BF0EAEF0BF0000E466E000E476EFE
:1017C800000E486E000E496E39EF0DF04A5046265D
:1017D8004B5047224C5048224D50492249A0F7EF20
:1017E8000BF0F9EF0BF0A5EF0CF063A1FEEF0BF097
:1017F80000EF0CF006EF0CF0D89063310109636F2D
:1018080008EF0CF0D890633346A00DEF0CF00FEF03
:101818000CF010EF0CF0638F4934493248324732EC
:101828004632622BA5EF0CF04A50465C4B504758A5
:101838004C5048584950800A4E6E4D50800A4E58B8
:10184800D8B029EF0CF02BEF0CF056EF0CF0465007
:101858004A5C4E6E47504B584F6E48504C58506E2D
:1018680049504D58516EFF0E4E24466EFF0E4F20C4
:10187800476EFF0E5020486EFF0E5120496E800EB5
:10188800601B636D6351D8A44CEF0CF04EEF0CF065
:101898005EEF0CF0010E4626000E47224822492230
:1018A8005EEF0CF04A50465E4B50475A4C50485A2F
:1018B8004D50495A4650471048104910D8A467EF70
:1018C8000CF069EF0CF09EEF0CF06351D8A46FEFA9
:1018D8000CF071EF0CF09EEF0CF0000E466E000E4F
:1018E800476E000E486E000E496E39EF0DF0D89025
:1018F800463647364836493663AF85EF0CF087EFF2
:101908000CF088EF0CF0468063A18DEF0CF08FEFA0
:101918000CF093EF0CF0D880633795EF0CF0D8906B
:1019280063376251D8B49BEF0CF09DEF0CF09EEF3B
:101938000CF0620748AEA3EF0CF0A5EF0CF07BEFBC
:101948000CF0000E616F63AFACEF0CF0AEEF0CF073
:10195800C6EF0CF063C04EF07F0E4E16D8B4B7EF4A
:101968000CF0B9EF0CF0BDEF0CF0010E616FC6EF93
:101978000CF046A0C2EF0CF0C4EF0CF0C6EF0CF070
:10198800B9EF0CF06151D8B4CCEF0CF0CEEF0CF0FD
:10199800F9EF0CF0010E4626000E47224822492294
:1019A80049A0D9EF0CF0DBEF0CF0F9EF0CF046C0D2
:1019B8004EF047C04FF048C050F049C051F0513484
:1019C800513250324F324E324EC046F04FC047F07F
:1019D80050C048F051C049F06229D8B4F6EF0CF075
:1019E800F8EF0CF0F9EF0CF0622B6229D8B4FFEF96
:1019F8000CF001EF0DF009EF0DF06251D8A407EFDC
:101A08000DF009EF0DF01BEF0DF0000E466E000E05
:101A1800476E000E486E000E496E6251D8A417EF4B
:101A28000DF019EF0DF01BEF0DF0000E606F62A1C5
:101A380020EF0DF022EF0DF025EF0DF0488E26EF88
:101A48000DF0489ED8906231496E60AF2EEF0DF0D0
:101A580030EF0DF031EF0DF0498E46C046F047C02B
:101A680047F048C048F049C049F012001750800BB1
:101A7800206E17501724266E16AE45EF0DF047EF6F
:101A88000DF048EF0DF026802650D8B44EEF0DF03B
:101A980050EF0DF063EF0DF02628D8A456EF0DF0A7
:101AA80058EF0DF060EF0DF0000E146E000E156E7D
:101AB800000E166E000E176E168E6BEF0DF0000EF0
:101AC800146E000E156E000E166E000E176E1B506B
:101AD800800B201A1B501B24216E1AAE76EF0DF0D6
:101AE80078EF0DF079EF0DF021802150D8B47FEF19
:101AF8000DF081EF0DF094EF0DF02128D8A487EFB9
:101B08000DF089EF0DF091EF0DF0000E186E000E3C
:101B1800196E000E1A6E000E1B6E1A8E9CEF0DF0D9
:101B2800000E186E000E196E000E1A6E000E1B6E57
:101B38002150D8B4A2EF0DF0A4EF0DF0ACEF0DF0EA
:101B48002650D8A4AAEF0DF0ACEF0DF0B6EF0DF0CB
:101B5800000E146E000E156E000E166E000E176E37
:101B68004EEF0FF01A501402F3CF2BF0F4CF2CF0F5
:101B78002B50226E236A246A256A2C50276E286A05
:101B8800296A2A6A19501502F3CF2BF0F4CF2CF0EA
:101B98002B502226000E2322242225222C502726D1
:101BA800000E282229222A2218501602F3CF2BF0E1
:101BB800F4CF2CF02B502226000E2322242225229B
:101BC8002C502726000E282229222A2224C025F05C
:101BD80023C024F022C023F0226A18501502F3CF44
:101BE8002BF0F4CF2CF02B5022262C502322000E61
:101BF8002422000E252219501402F3CF2BF0F4CF23
:101C08002CF02B5022262C502322000E2422000ECA
:101C1800252224C025F023C024F022C023F0226A04
:101C280018501402F3CF2BF0F4CF2CF02B502226AF
:101C38002C502322000E2422000E25221A501502B1
:101C4800F3CF2BF0F4CF2CF02B5027262C50282242
:101C5800000E2922000E2A2219501602F3CF2BF06B
:101C6800F4CF2CF02B5027262C502822000E2922A6
:101C7800000E2A221A501602F3CF2BF0F4CF2CF0C4
:101C88002B501C6E2C501D6E1E6A1F6A1EC01FF042
:101C98001DC01EF01CC01DF01C6A1C5027261D50BC
:101CA80028221E5029221F502A2222C01CF023C09D
:101CB8001DF024C01EF025C01FF0190E69EF0EF0AC
:101CC800D8901F321E321D321C32E82E64EF0EF0FF
:101CD8001C5027261D5028221E5029221F502A2218
:101CE80024C025F023C024F022C023F0226A21500A
:101CF80026C01CF01D6A1C26000E1D22820E1C2404
:101D08002B6EFF0E1D202C6E9FEF0EF0D8902736FD
:101D1800283629362A3625AE94EF0EF096EF0EF0C7
:101D280097EF0EF02780D8902236233624362536B2
:101D38002B06D8A02C0629AEA4EF0EF0A6EF0EF0C5
:101D48008AEF0EF0000E216E25AEADEF0EF0AFEF6C
:101D58000EF0D3EF0EF0FF0E22141C6EFF0E2314AC
:101D68001D6EFF0E24141E6E7F0E25141F6E1C5050
:101D78001D101E101F10D8B4C4EF0EF0C6EF0EF0E1
:101D8800CAEF0EF0010E216ED3EF0EF027A0CFEFB1
:101D98000EF0D1EF0EF0D3EF0EF0C6EF0EF021509B
:101DA800D8B4D9EF0EF0DBEF0EF0FFEF0EF0010E16
:101DB8002726000E282229222A222AA0E6EF0EF042
:101DC800E8EF0EF0FFEF0EF027C01CF028C01DF062
:101DD80029C01EF02AC01FF01F341F321E321D32C8
:101DE8001C321CC027F01DC028F01EC029F01FC0DF
:101DF8002AF02B4A2C2A2CBE0AEF0FF02C5008E1AF
:101E08002B28D8A00AEF0FF00CEF0FF016EF0FF009
:101E1800000E276E000E286E800E296E7F0E2A6E29
:101E280044EF0FF02CBE23EF0FF02C5006E12B04EB
:101E3800D8B021EF0FF023EF0FF02FEF0FF0000EC7
:101E4800276E000E286E000E296E000E2A6E000EF8
:101E5800206E44EF0FF02BC026F0FF0E2716FF0E62
:101E680028167F0E2916000E2A1626A03EEF0FF020
:101E780040EF0FF041EF0FF0298ED89026302A6EF0
:101E880020502A1227C014F028C015F029C016F0D7
:101E98002AC017F012009594959694989598959A5B
:101EA800959C0F013B953B973A993B993B9B3B9DF2
:101EB8008C848C868B888C888C8A8C8C92843895C0
:101EC800388BC08EC050F80B0609C06EC050C70BC7
:101ED8003009C06EC28021EE9BF0100EDE6AE80663
:101EE800FDE23F0ECD16300ECD129D80F28CF28EA3
:101EF800010E0101246F9E800B0ECF6EDC0ECE6E9C
:101F0800CD80000E236F010EC76F21EEACF0180EC6
:101F1800DE6AE806FDE25DEC26F012C018F013C098
:101F280019F0000E1B6E210E1A6E15EC24F0020E2D
:101F380018240101CB6F000E1920CC6FAC0E0001E4
:101F4800CE6F010ECF6F770ED06FFE0ED16FCBC163
:101F5800D2F0CCC1D3F0EFEC27F0AC0E076E010E37
:101F6800086E010E77EC24F0010E0101C56F36EF03
:101F780011F0C250830B1009C26EC282C2B2C7EF01
:101F88000FF0C9EF0FF0C2EF0FF0C350C4CFE7F066
:101F98000001E86BE7C0E8F0E76BE7110101C96FE2
:101FA8000001E8510101CA6F9B0E0001CE6F010EBE
:101FB800CF6FAF0ED06FFE0ED16FC9C1D2F0CAC1BC
:101FC800D3F0EFEC27F09B0E076E010E086E020EA1
:101FD80077EC24F004EF10F01A0EC86F18EF10F029
:101FE800180EC86F18EF10F0120EC86F18EF10F027
:101FF800100EC86F18EF10F00F0EC86F18EF10F022
:102008000101C751010AD8B4F0EF0FF0030AD8B4A0
:10201800F4EF0FF0010AD8B4F8EF0FF0070AD8B4BC
:10202800FCEF0FF000EF10F0C8C106F02351FBECF5
:1020380026F00101C66F80A424EF10F026EF10F0FF
:1020480012EF11F0030E0001E86F080EE76F770E2C
:10205800E82EFED7E72FFCD7E82FFAD780A437EF72
:1020680010F039EF10F012EF11F080B43EEF10F0DD
:1020780040EF10F039EF10F0070E0101C66F12EFB4
:1020880011F08C848C868B888C888C8A8C8C36EFAB
:1020980011F08C948C868B888C888C8A8C8C36EF8B
:1020A80011F08C948C968B888C888C8A8C8C36EF6B
:1020B80011F08C948C968B988C888C8A8C8C36EF4B
:1020C80011F08C948C968B988C988C8A8C8C36EF2B
:1020D80011F08C948C968B988C988C9A8C8C36EF0B
:1020E80011F08C948C968B988C988C9A8C9C36EFEB
:1020F80011F0000E236FFE0ECB250001E76FFF0ED7
:102108000101CC210001E86FE7510101C95D00011F
:10211800E8510101CA59D8A094EF10F096EF10F0D9
:10212800DEEF10F0020ECB250001E76F000E010173
:10213800CC210001E86F0101C9510001E75D0101EF
:10214800CA510001E859D8A0ACEF10F0AEEF10F07A
:10215800DEEF10F00101C72B5DEC26F012C018F07D
:1021680013C019F0000E1B6E210E1A6E15EC24F028
:10217800020E18240101CB6F000E1920CC6FAC0E93
:102188000001CE6F010ECF6F770ED06FFE0ED16FAC
:10219800CBC1D2F0CCC1D3F0EFEC27F0010E010196
:1021A800C56FAC0E076E010E086E010E77EC24F0B9
:1021B80036EF11F0C290AC0E0001CE6F010ECF6F5A
:1021C8009D0ED06FFE0ED16FFF0E0101C7250001D5
:1021D800D26FD36BFF0ED323EFEC27F0C00E076E40
:1021E800FE0E086E010E77EC24F0AC0E076E010EA1
:1021F800086E020E77EC24F0000E0101C56F520E36
:102208000001E86F2B0EE76F000EE82EFED7E72FD0
:10221800FCD7E82FFAD7000036EF11F00101C651BC
:10222800000AD8B445EF10F0010AD8B44DEF10F009
:10223800030AD8B455EF10F0010AD8B45DEF10F0D6
:10224800070AD8B465EF10F0010AD8B46DEF10F0A2
:10225800030AD8B475EF10F0010AD8B47DEF10F076
:1022680036EF11F00101C551D8A43DEF11F03FEF51
:1022780011F0BDEF0FF08C848C868B888C888C8A4B
:102288008C8CCD909D90000E246F120015C194F097
:1022980016C195F017C196F018C197F084C094F054
:1022A80085C095F086C096F087C097F0000197BF6B
:1022B80060EF11F063EF11F0010E64EF11F0000E02
:1022C800936F979FDB0E945D0F0E9559C90E965923
:1022D8004D0E9759D8B073EF11F075EF11F061EF0B
:1022E80012F084C006F085C007F086C008F087C0E9
:1022F80009F0C2EC28F006C09CF007C09DF008C0A9
:102308009EF009C09FF0000E4A6E000E4B6E000E44
:102318004C6E3F0E4D6E830E186EF90E196E220E1E
:102328001A6E3F0E1B6E9CC014F09DC015F09EC027
:1023380016F09FC017F03AEC0DF014C046F015C027
:1023480047F016C048F017C049F0D9EC0AF046C06B
:1023580064F047C065F048C066F049C067F046ECD5
:1023680021F064C0A0F065C0A1F066C0A2F067C00B
:10237800A3F0A0C006F0A1C007F0A2C008F0A3C057
:1023880009F0010E47EC1CF006C098F007C099F060
:1023980008C09AF009C09BF0DA0E186E0F0E196E7D
:1023A800C90E1A6E3F0E1B6E98C014F099C015F036
:1023B8009AC016F09BC017F03AEC0DF014C068F004
:1023C80015C069F016C06AF017C06BF09CC064F0C5
:1023D8009DC065F09EC066F09FC067F0CBEC27F00B
:1023E80064C08FF065C090F066C091F067C092F04D
:1023F8008FC064F090C065F091C066F092C067F03D
:10240800A30E186E850E196E880E1A6E320E1B6E8C
:1024180098C014F099C015F09AC016F09BC017F038
:102428003AEC0DF014C068F015C069F016C06AF0F7
:1024380017C06BF0CBEC27F000018851D96EDA6A2F
:1024480064C0DEFF65C0DEFF66C0DEFF67C0DEFF7A
:102458009351D8B432EF12F034EF12F05BEF12F070
:102468008851D96EDA6ADECF80F0DECF81F0DECF18
:1024780082F0DECF83F053EC28F000018851D96E4A
:10248800DA6A80C0DEFF81C0DEFF82C0DEFF83C063
:10249800DEFFA0C089F0A1C08AF0891F8A1F894B7E
:1024A8008A2B89C084F08AC085F02AEF13F0A0C077
:1024B80084F0A1C085F02AEF13F084C006F085C02F
:1024C80007F086C008F087C009F0C2EC28F006C003
:1024D8009CF007C09DF008C09EF009C09FF0000E58
:1024E8004A6E000E4B6E000E4C6E3F0E4D6E830E04
:1024F800186EF90E196E220E1A6E3F0E1B6E9CC0D6
:1025080014F09DC015F09EC016F09FC017F03AEC6D
:102518000DF014C046F015C047F016C048F017C0BB
:1025280049F0D9EC0AF046C064F047C065F048C0ED
:1025380066F049C067F046EC21F064C0A0F065C0C1
:10254800A1F066C0A2F067C0A3F0A0C006F0A1C0C9
:1025580007F0A2C008F0A3C009F0010E47EC1CF078
:1025680006C098F007C099F008C09AF009C09BF01F
:10257800DA0E186E0F0E196EC90E1A6E3F0E1B6E0C
:1025880098C014F099C015F09AC016F09BC017F0C7
:102598003AEC0DF014C068F015C069F016C06AF086
:1025A80017C06BF09CC064F09DC065F09EC066F0DB
:1025B8009FC067F0CBEC27F064C08FF065C090F047
:1025C80066C091F067C092F08FC064F090C065F06B
:1025D80091C066F092C067F0A30E186E850E196E52
:1025E800880E1A6E320E1B6E98C014F099C015F042
:1025F8009AC016F09BC017F03AEC0DF014C068F0C2
:1026080015C069F016C06AF017C06BF0CBEC27F064
:1026180064C08BF065C08CF066C08DF067C08EF02A
:1026280000018851D96EDA6A8BC0DEFF8CC0DEFFEC
:102638008DC0DEFF8EC0DEFF9351D8B426EF13F0B5
:1026480028EF13F05BEF12F034EF12F01200305065
:10265800800B3D6E30503024446E2FAE36EF13F0B1
:1026680038EF13F039EF13F044804450D8B43FEFFB
:1026780013F041EF13F056EF13F04428D8A447EFB6
:1026880013F049EF13F051EF13F0000E2D6E000E0A
:102698002E6E000E2F6E000E306E2F8E000E306ED6
:1026A8005EEF13F0000E2D6E000E2E6E000E2F6ED4
:1026B800000E306E3450800B3D1A34503424456E71
:1026C80033AE69EF13F06BEF13F06CEF13F0458046
:1026D8004550D8B472EF13F074EF13F089EF13F08C
:1026E8004528D8A47AEF13F07CEF13F084EF13F0A9
:1026F800000E316E000E326E000E336E000E346E18
:10270800338E000E346E91EF13F0000E316E000E12
:10271800326E000E336E000E346E315032103310AC
:102728003410D8A49AEF13F09CEF13F0B4EF13F021
:10273800000E2D6E000E2E6E000E2F6E000E306EE7
:10274800800E2F127F0E30123D5030122DC02DF00A
:102758002EC02EF02FC02FF030C030F0F7EF14F05D
:102768004450D8A4BAEF13F0BCEF13F0C6EF13F03F
:10277800000E2D6E000E2E6E000E2F6E000E306EA7
:10278800F7EF14F0455044C035F0366A355E000E58
:10279800365A7F0E35243E6E000E36203F6E2DC011
:1027A80039F02EC03AF02FC03BF030C03CF0000E9C
:1027B8002D6E000E2E6E000E2F6E000E306E000E67
:1027C800406E000E416E000E426E000E436E000E0B
:1027D800456E27EF14F04550D8B4F5EF13F0F7EF36
:1027E80013F00EEF14F0D89039363A363B363C36B3
:1027F800D8902D362E362F36303643AE06EF14F0ED
:1028080008EF14F009EF14F02D80D89040364136C7
:10281800423643363150395C32503A5833503B587F
:1028280034503C58D8A01BEF14F01DEF14F026EFDD
:1028380014F0438C3150395E32503A5A33503B5A77
:1028480034503C5A452A190E45642DEF14F02FEFE9
:1028580014F0EFEF13F039503A103B103C10D8B495
:1028680038EF14F03AEF14F052EF14F0408052EFC2
:1028780014F0D8902D362E362F36303643AE47EF2B
:1028880014F049EF14F04AEF14F02D80D890403638
:102898004136423643363E06D8A03F062FAE57EFA4
:1028A80014F059EF14F03DEF14F0000E456E43AEEE
:1028B80060EF14F062EF14F086EF14F0FF0E40148E
:1028C800356EFF0E4114366EFF0E4214376E7F0EC2
:1028D8004314386E3550361037103810D8B477EFA7
:1028E80014F079EF14F07DEF14F0010E456E86EFC9
:1028F80014F02DA082EF14F084EF14F086EF14F09A
:1029080079EF14F04550D8B48CEF14F08EEF14F032
:10291800B2EF14F0010E2D26000E2E222F223022A7
:1029280030A099EF14F09BEF14F0B2EF14F02DC023
:1029380035F02EC036F02FC037F030C038F03834BC
:10294800383237323632353235C02DF036C02EF0B7
:1029580037C02FF038C030F03E4A3F2A3FBEBDEFA7
:1029680014F03F5008E13E28D8A0BDEF14F0BFEFA7
:1029780014F0CAEF14F0000E3F6E3E68000E2D6E84
:10298800000E2E6E000E2F6E000E306E3FBED7EF7B
:1029980014F03F5006E13E04D8B0D5EF14F0D7EF5D
:1029A80014F0E5EF14F0000E3F6E000E3E6E000EC0
:1029B8002D6E000E2E6E000E2F6E000E306E000E65
:1029C8003D6E3EC044F044A0ECEF14F0EEEF14F07E
:1029D800F1EF14F02F8EF2EF14F02F9ED8904430C0
:1029E800306EA8EF13F01200050E0001FB6F0F0EFA
:1029F800FA6FF10EE82EFED7FA2FFCD7FB2FFAD785
:102A080094809288928692840F013897389595948D
:102A1800959694989598959A959C8C848C868B8895
:102A28008C888C8A8C8C43EC23F0000E0001FD6F9F
:102A3800000EFC6FF30E076EFE0E086E010E77ECAB
:102A480024F0260E076EFF0E086E020E77EC24F0B7
:102A5800520E0001FB6F2B0EFA6F000EE82EFED708
:102A6800FA2FFCD7FB2FFAD70000000E0001E76F02
:102A7800FD51BDEC20F00001FD6F82A046EF15F07E
:102A880048EF15F06AEF15F0030E0001FB6F080E12
:102A9800FA6F770EE82EFED7FA2FFCD7FB2FFAD75E
:102AA80082A059EF15F05BEF15F06AEF15F0020EF2
:102AB8000001E76FFD51BDEC20F00001FD6F82B011
:102AC80068EF15F06AEF15F063EF15F080A86FEF67
:102AD80015F071EF15F093EF15F0030E0001FB6F81
:102AE800080EFA6F770EE82EFED7FA2FFCD7FB2FC9
:102AF800FAD780A882EF15F084EF15F093EF15F060
:102B0800010E0001E76FFD51BDEC20F00001FD6FE3
:102B180080B891EF15F093EF15F08CEF15F080A6C3
:102B280098EF15F09AEF15F090EF16F0030E0001EC
:102B3800FB6F080EFA6F770EE82EFED7FA2FFCD738
:102B4800FB2FFAD780A6ABEF15F0ADEF15F090EF9D
:102B580016F080B6B2EF15F0B4EF15F0ADEF15F042
:102B680070EF16F0150E076EFF0E086E010E77EC6B
:102B780024F0790E076EFE0E086E020E77EC24F034
:102B880064EC1FF0010E0001FC6F90EF16F0E20EEE
:102B9800076EFE0E086E010E77EC24F08C0E076EA1
:102BA800FF0E086E020E77EC24F0AEEC1EF0C6EFB6
:102BB80015F0480E076EFF0E086E010E77EC24F034
:102BC800790E076EFE0E086E020E77EC24F01AECF2
:102BD80020F0C6EF15F07B0E076EFF0E086E010E93
:102BE80077EC24F03FEC1AF0C6EF15F06A0E076E8A
:102BF800FF0E086E010E77EC24F09D0E076EFF0E97
:102C0800086E020E77EC24F0A7EC16F0C6EF15F06C
:102C1800370E076EFF0E086E010E77EC24F0790E62
:102C2800076EFE0E086E020E77EC24F0290E0001E6
:102C3800FB6F960EFA6F7F0EE82EFED7FA2FFCD7A1
:102C4800FB2FFAD7040E076EFF0E086E010E77EC05
:102C580024F0290E0001FB6F960EFA6F7F0EE82E06
:102C6800FED7FA2FFCD7FB2FFAD7AE0E076EFF0E52
:102C7800086E020E77EC24F0520E0001FB6F2B0E4B
:102C8800FA6F000EE82EFED7FA2FFCD7FB2FFAD7E3
:102C980000004FEC0FF0C6EF15F0D10E076EFE0ED8
:102CA800086E010E77EC24F0590E076EFF0E086EC1
:102CB800020E77EC24F0520E0001FB6F2B0EFA6F18
:102CC800000EE82EFED7FA2FFCD7FB2FFAD700000C
:102CD80075EC29F0C6EF15F00001FD51000AD8B4D3
:102CE800B6EF15F0010AD8B4CBEF15F0030AD8B443
:102CF800DDEF15F0010AD8B4EFEF15F0070AD8B4E4
:102D0800FAEF15F0010AD8B40CEF16F0030AD8B49C
:102D180051EF16F090EF16F080500001FC51D8B436
:102D280098EF16F09AEF16F041EF15F0000EE76FE6
:102D3800FD51BDEC20F00001FD6F000EFC6F41EF6E
:102D480015F0A7EF00F094809288928692840F0184
:102D58003897389593969496949AC650F00B020932
:102D6800C66EC698C78CC68A3981C09EC050F80BFB
:102D78000609C06EC050C70B3009C06EC280190E5C
:102D8800AF6EAB8EAC98AC8AAB888A86C250830B88
:102D98003009C26E010E0001DC6F010EDB6F000E00
:102DA800DD6F11EF18F07F0EDD61DDEF16F0DFEF5C
:102DB80016F007EF17F0330E186E330E196EF30E78
:102DC8001A6E3F0E1B6EDD51066E076A086A096AA5
:102DD800010E47EC1CF006C014F007C015F008C03F
:102DE80016F009C017F03AEC0DF014C064F015C0E5
:102DF80065F016C066F017C067F046EC21F00001D8
:102E0800645134EC28F07E0E0001DD650EEF17F0FA
:102E180010EF17F0CCEF17F0330E186E330E196E53
:102E2800F30E1A6E3F0E1B6EDD51FF0AD26FD251A0
:102E3800066E076A086A096A010E47EC1CF006C0AC
:102E480014F007C015F008C016F009C017F03AECE6
:102E58000DF014C064F015C065F016C066F017C018
:102E680067F046EC21F00001645134EC28F0CCEF17
:102E780017F0000E316E000E326E7F0E336E430E69
:102E8800346EC30E186EF50E196EC80E1A6E400E0B
:102E98001B6EDD51066E076A086A096A010E47EC67
:102EA8001CF006C014F007C015F008C016F009C0E1
:102EB80017F03AEC0DF014C02DF015C02EF016C026
:102EC8002FF017C030F02BEC13F02DC0D3F02EC02C
:102ED800D4F02FC0D5F030C0D6F0D3C0A4F0D4C001
:102EE800A5F0D5C0A6F0D6C0A7F054EC08F0A4C051
:102EF800D7F0A5C0D8F0A6C0D9F0A7C0DAF0000E68
:102F08004A6E000E4B6EFE0E4C6E420E4D6E000E5B
:102F1800186E000E196EFE0E1A6E420E1B6ED7C08A
:102F280014F0D8C015F0D9C016F0DAC017F03AEC92
:102F38000DF014C046F015C047F016C048F017C091
:102F480049F0D9EC0AF046C064F047C065F048C0C3
:102F580066F049C067F046EC21F00001645134EC9A
:102F680028F0CCEF17F0DD51FF0A34EC28F0CCEF55
:102F780017F0DC51010AD8B4D7EF16F0030AD8B419
:102F88003DEF17F0010AD8B4B7EF17F0CCEF17F000
:102F9800C282C2B2D2EF17F0D4EF17F0CDEF17F01C
:102FA800E60E0001CE6FFF0ECF6FC4CFD0F0D16B0D
:102FB80030EC29F082A0E3EF17F0E5EF17F0E8EF27
:102FC80017F0010E0001DC6F80A8EDEF17F0EFEFAE
:102FD80017F0F2EF17F0020E0001DC6F80A6F7EF92
:102FE80017F0F9EF17F0FCEF17F0030E0001DC6F94
:102FF80080A401EF18F003EF18F006EF18F0000EA8
:103008000001DB6F0001DD2B680E0001D26FE40EBA
:10301800E82EFED7D22FFCD700000001DB51D8A440
:1030280018EF18F01AEF18F0BDEF17F0120064C08F
:1030380014F065C015F066C016F067C017F064C0DC
:1030480018F065C019F066C01AF067C01BF03AECBA
:103058000DF014C080F015C081F016C082F017C0C2
:1030680083F080C014F081C015F082C016F083C0D0
:1030780017F080C018F081C019F082C01AF083C020
:103088001BF03AEC0DF014C06CF015C06DF016C0D2
:103098006EF017C06FF03C0E186E6C0E196E360E7F
:1030A8001A6E360E1B6E80C014F081C015F082C0F7
:1030B80016F083C017F03AEC0DF014C046F015C0B6
:1030C80047F016C048F017C049F0CF0E4A6E070EF9
:1030D8004B6E500E4C6EB90E4D6ED9EC0AF046C0D0
:1030E80068F047C069F048C06AF049C06BF080C01A
:1030F80014F081C015F082C016F083C017F064C0C8
:1031080018F065C019F066C01AF067C01BF03AECF9
:103118000DF014C07CF015C07DF016C07EF017C00D
:103128007FF0AB0E4A6EAA0E4B6E2A0E4C6EBE0E88
:103138004D6E840E186E880E196E080E1A6E3C0EAF
:103148001B6E80C014F081C015F082C016F083C0D9
:1031580017F03AEC0DF014C046F015C047F016C051
:1031680048F017C049F0D9EC0AF046C070F047C0E3
:1031780071F048C072F049C073F06CC018F06DC0AF
:1031880019F06EC01AF06FC01BF07CC014F07DC03F
:1031980015F07EC016F07FC017F03AEC0DF014C0A1
:1031A80074F015C075F016C076F017C077F064C0DB
:1031B8004AF065C04BF066C04CF067C04DF07CC06B
:1031C80018F07DC019F07EC01AF07FC01BF070C0E7
:1031D80014F071C015F072C016F073C017F03AEC15
:1031E8000DF014C046F015C047F016C048F017C0DF
:1031F80049F0D9EC0AF046C078F047C079F048C0E9
:103208007AF049C07BF078C046F079C047F07AC0C0
:1032180048F07BC049F068C018F069C019F06AC06E
:103228001AF06BC01BF074C014F075C015F076C0AE
:1032380016F077C017F03AEC0DF014C04AF015C03C
:103248004BF016C04CF017C04DF0D9EC0AF046C050
:1032580064F047C065F048C066F049C067F01200E6
:1032680019C166F01AC167F01BC168F01CC169F08A
:1032780046C066F047C067F048C068F049C069F0CA
:10328800810E4A6EFF0E4B6E66C04CF067C04DF063
:1032980068C04EF069C04FF0180E58EF19F0D8907A
:1032A8004F324E324D324C32E82E53EF19F04C501B
:1032B8004A240001646F000E4B20656F65BF6EEFF6
:1032C80019F0655109E1170E645DD8A06EEF19F089
:1032D80070EF19F07AEF19F046C046F047C047F092
:1032E80048C048F049C049F03EEF1AF065BF7FEF8B
:1032F80019F081EF19F0F2EF19F064C04AF0FF0EEF
:103308004B6EFF0E4C6E7F0E4D6E000E4E6E4A6673
:1033180090EF19F098EF19F04E344E324D324C328E
:103328004B324A2E8BEF19F04BC060F04CC061F065
:103338004DC062F04EC063F00001605166154A6EE0
:10334800615167154B6E625168154C6E6351691572
:103358004D6E4A504B104C104D10D8A4B6EF19F0D2
:10336800B8EF19F0BAEF19F070EF19F066C04AF02B
:1033780067C04BF068C04CF069C04DF0200ECAEF32
:1033880019F0D8904D324C324B324A32E82EC5EF04
:1033980019F04A504B104C104D10D8B4D6EF19F014
:1033A800D8EF19F0E0EF19F06051662761516723F3
:1033B8006251682363516923601D4A6E611D4B6E1B
:1033C800621D4C6E631D4D6E4A5066174B50671751
:1033D8004C5068174D50691736EF1AF066C04AF01E
:1033E80067C04BF068C04CF069C04DF0200E02EF8A
:1033F8001AF0D8904D324C324B324A32E82EFDEF5B
:1034080019F04A504B104C104D10D8A40EEF1AF07A
:1034180010EF1AF01AEF1AF0000E666F000E676FC1
:10342800000E686F000E696F36EF1AF0D890663597
:103438004A6E67354B6E68354C6E69354D6E4A502D
:103448004B104C104D10D8B42CEF1AF02EEF1AF088
:1034580036EF1AF0000E666F000E676F800E686F09
:10346800BF0E696F66C046F067C047F068C048F095
:1034780069C049F012000F01388B3C81C08EC050E2
:10348800F80B0609C06EC050C70B3009C06EC28069
:1034980021EE9BF0100EDE6AE806FDE2010E010146
:1034A800B86F3DEF1BF0C250830B1409C26EC28285
:1034B800C2B261EF1AF063EF1AF05CEF1AF0C35072
:1034C800C4CFE7F00001E86BE7C0E8F0E76BE7116D
:1034D8000101B46F0001E8510101B56F000E316EB2
:1034E800C00E326E7F0E336E440E346EB4C106F0D9
:1034F800B5C107F0086A096A000E47EC1CF006C05F
:103508002DF007C02EF008C02FF009C030F02BECCA
:1035180013F02DC014F02EC015F02FC016F030C0D7
:1035280017F0330E186E330E196E530E1A6E400EC6
:103538001B6E3AEC0DF014C0ACF115C0ADF116C01D
:10354800AEF117C0AFF1C250830B1009C26EC28230
:10355800C2B2B1EF1AF0B3EF1AF0ACEF1AF0C350E1
:10356800C4CFE7F00001E86BE7C0E8F0E76BE711CC
:103578000101B66F0001E8510101B76F000E316E0D
:10358800C00E326E7F0E336E440E346EB6C106F036
:10359800B7C107F0086A096A000E47EC1CF006C0BC
:1035A8002DF007C02EF008C02FF009C030F02BEC2A
:1035B80013F02DC014F02EC015F02FC016F030C037
:1035C80017F0330E186E330E196E530E1A6E400E26
:1035D8001B6E3AEC0DF014C0B0F115C0B1F116C075
:1035E800B2F117C0B3F19B0E0001CE6F010ECF6F81
:1035F8008A0ED06FFE0ED16FACC1D2F0ADC1D3F040
:10360800AEC1D4F0AFC1D5F0B0C1D6F0B1C1D7F0DA
:10361800B2C1D8F0B3C1D9F0EFEC27F09B0E076E1A
:10362800010E086E020E77EC24F080A41EEF1BF04A
:1036380020EF1BF03DEF1BF0030E0001E86F080EB2
:10364800E76F770EE82EFED7E72FFCD7E82FFAD7DB
:1036580080A431EF1BF033EF1BF03DEF1BF080B47B
:1036680038EF1BF03AEF1BF033EF1BF0000E0101AF
:10367800B86F0101B851D8A444EF1BF046EF1BF016
:1036880057EF1AF0C290120064C014F065C015F02C
:1036980066C016F067C017F064C018F065C019F06E
:1036A80066C01AF067C01BF03AEC0DF014C07CF04D
:1036B80015C07DF016C07EF017C07FF07CC014F0F6
:1036C8007DC015F07EC016F07FC017F07CC018F0E2
:1036D8007DC019F07EC01AF07FC01BF03AEC0DF0E7
:1036E80014C078F015C079F016C07AF017C07BF0D6
:1036F800170E186E9A0E196ECC0E1A6E370E1B6EB8
:103708007CC014F07DC015F07EC016F07FC017F0A5
:103718003AEC0DF014C046F015C047F016C048F05A
:1037280017C049F03F0E4A6E040E4B6EB60E4C6E33
:10373800BA0E4D6ED9EC0AF046C068F047C069F081
:1037480048C06AF049C06BF0000E4A6E000E4B6E1E
:10375800800E4C6E3F0E4D6E000E186E000E196EE8
:10376800000E1A6EBF0E1B6E7CC014F07DC015F0E3
:103778007EC016F07FC017F03AEC0DF014C046F08A
:1037880015C047F016C048F017C049F0D9EC0AF048
:1037980046C06CF047C06DF048C06EF049C06FF08D
:1037A8007CC018F07DC019F07EC01AF07FC01BF0F5
:1037B80078C014F079C015F07AC016F07BC017F005
:1037C8003AEC0DF014C070F015C071F016C072F02C
:1037D80017C073F09F0E186EAA0E196E2A0E1A6E75
:1037E8003D0E1B6E78C014F079C015F07AC016F043
:1037F8007BC017F03AEC0DF014C04AF015C04BF03E
:1038080016C04CF017C04DF06CC046F06DC047F0C4
:103818006EC048F06FC049F0D9EC0AF046C074F0A9
:1038280047C075F048C076F049C077F074C046F0DC
:1038380075C047F076C048F077C049F068C018F006
:1038480069C019F06AC01AF06BC01BF070C014F0A0
:1038580071C015F072C016F073C017F03AEC0DF095
:1038680014C04AF015C04BF016C04CF017C04DF00C
:10387800D9EC0AF046C064F047C065F048C066F06D
:1038880049C067F012000E6E0E50D8B44EEF1CF00F
:1038980050EF1CF072EF1CF009BE57EF1CF055EF0B
:1038A8001CF072EF1CF006C00AF007C00BF008C04D
:1038B8000CF009C00DF00A1E0B1E0C1E0D1E0A2A64
:1038C800000E0B220C220D220AC010F00BC011F0C2
:1038D8000CC012F00DC013F07AEF1CF006C010F007
:1038E80007C011F008C012F009C013F00650071005
:1038F80008100910D8A483EF1CF085EF1CF08FEF97
:103908001CF0000E066E000E076E000E086E000E0C
:10391800096E20EF1DF0960E0F6E99EF1CF00F2A1E
:10392800D8901332123211321032000E10140A6E6F
:10393800000E11140B6E000E12140C6EFE0E1314F2
:103948000D6E0A500B100C100D10D8A4AEEF1CF021
:10395800B0EF1CF093EF1CF0BEEF1CF00F2A010E25
:103968001026000E112212221322D890133212327E
:1039780011321032000E10140A6E000E11140B6E64
:10398800000E12140C6EFF0E13140D6E0A500B105D
:103998000C100D10D8A4D3EF1CF0D5EF1CF0B2EF2B
:1039A8001CF0DDEF1CF00F06D890103611361236D9
:1039B800133612BEE2EF1CF0E4EF1CF0ECEF1CF043
:1039C800020E0F60EAEF1CF0ECEF1CF0D7EF1CF0D2
:1039D8000FB0F1EF1CF0F3EF1CF0F4EF1CF0129EA7
:1039E800D8900F320FC00AF00B6A0C6A0D6A0AC031
:1039F8000DF00C6A0B6A0A6A0A5010120B50111269
:103A08000C5012120D5013120E50D8B40EEF1DF0B8
:103A180010EF1DF018EF1DF009BE17EF1DF015EFA0
:103A28001DF018EF1DF0138E10C006F011C007F03E
:103A380012C008F013C009F0120012C01AF013C027
:103A48001BF01A501B10D8A42CEF1DF02EEF1DF000
:103A580032EF1DF0BF0E1A6EFF0E1B6E000E1D6EAC
:103A6800000E1C6E3AEF1DF01C4A1D2A1C501A2429
:103A7800146E1D501B20156E14C0F6FF15C0F7FFFD
:103A8800000EF86E0F0EF76403D00800F55005D04D
:103A9800F6CFE1FFF7CFE2FFE7500009D8A457EFD0
:103AA8001DF059EF1DF038EF1DF058BE5EEF1DF008
:103AB80060EF1DF073EF1DF01C50575C5850800AE2
:103AC800146E1D50800A1458D8B06DEF1DF06FEFBA
:103AD8001DF073EF1DF057C01CF058C01DF01CC03E
:103AE80016F01DC017F055C018F056C019F059B09F
:103AF80080EF1DF082EF1DF0BEEF1DF090EF1DF07E
:103B0800000E086E200E076E10C009F011C00AF0F2
:103B1800B0EC23F01C4A1D2A18501C5C1D50800A6A
:103B2800146E1950800A1458D8A09DEF1DF09FEF0D
:103B38001DF084EF1DF0BEEF1DF01AC0F6FF1BC08C
:103B4800F7FF000EF86E0F0EF76403D00800F5506B
:103B580005D0F6CFE1FFF7CFE2FFE750146E14501F
:103B6800076E086A10C009F011C00AF0B0EC23F023
:103B78001A4A1B2A1606D8A01706162806E117287F
:103B8800D8A4C9EF1DF0CBEF1DF0A1EF1DF059A08F
:103B9800D0EF1DF0D2EF1DF0EFEF1DF0E0EF1DF0BC
:103BA800000E086E200E076E10C009F011C00AF052
:103BB800B0EC23F01C4A1D2A18501C5C1D50800ACA
:103BC800146E1950800A1458D8A0EDEF1DF0EFEFCD
:103BD8001DF0D4EF1DF0120023BEF5EF1DF0F8EF35
:103BE8001DF0010EF9EF1DF0000E2A6E58BE01EF10
:103BF8001EF0FFEF1DF007EF1EF0000E296E010EFC
:103C0800286E0BEF1EF057C028F058C029F055C099
:103C180026F056C027F02A50D8B415EF1EF017EF3B
:103C28001EF02EEF1EF02606D8A027062A50D8A48C
:103C380020EF1EF022EF1EF028EF1EF0000E256E7A
:103C48002B0E246E2CEF1EF0000E256E2D0E246E0A
:103C580024C02AF0000E2C6E4F0E2B6E000E0101B0
:103C6800766F67EF1EF02B06D8A02C06270E2B24A4
:103C7800D96E010E2C20DA6E22C006F023C007F0A0
:103C8800000E096E0A0E086ED0EC24F006C00CF087
:103C980007C00DF0DCEC28F00C50300FDF6E280662
:103CA800D8A029062606D8A0270622C018F023C0C7
:103CB80019F0000E1B6E0A0E1A6E15EC24F018C0CF
:103CC80022F019C023F02CBE72EF1EF02C5008E130
:103CD8002B04D8A072EF1EF074EF1EF08AEF1EF0CE
:103CE80022502310D8A47BEF1EF07DEF1EF037EF93
:103CF8001EF029BE8AEF1EF0295006E12804D8B02C
:103D080088EF1EF08AEF1EF037EF1EF02A50D8B465
:103D180090EF1EF092EF1EF09DEF1EF02B06D8A03C
:103D28002C06270E2B24D96E010E2C20DA6E2AC001
:103D3800DFFF20C017F021C018F0270E2B24196EC2
:103D4800010E2C201A6E26C01BF027C01CF0D4ECE4
:103D580025F0120092840F013A9D3A9F948C948E1C
:103D6800190EAF6EAC98AB8EAC8AAB88010E010110
:103D7800256F9D8AF28CF28E010E0001F36F51EFD0
:103D88001FF001019651D8B4CCEF1EF0CEEF1EF013
:103D98002DEF1FF0770E066E010E076E8CEC28F0E3
:103DA80006C0F4F007C0F5F0000E0001F76F000E32
:103DB800F66FF5EF1EF0760ED26F010ED36FF65147
:103DC800D25FF751D35BF451D225D96EF551D32187
:103DD800DA6EF651D40FE16EE26ADFCFE7FFF64BF9
:103DE800F72BF451F65DF551F759D8A0FEEF1EF008
:103DF80000EF1FF0DFEF1EF0F451D40FD96EDA6A2E
:103E0800DF6AD20ECE6FFF0ECF6FD40ED06FD16B9C
:103E180030EC29F0000E0101966F000E0001F96FD9
:103E2800000EF86F770EF825D96E010EF921DA6EBB
:103E3800DF6AF84BF92BF9BF2BEF1FF0F95109E1B5
:103E48001F0EF85DD8A02BEF1FF02DEF1FF016EF17
:103E58001FF080A432EF1FF034EF1FF051EF1FF076
:103E6800030E0001D36F080ED26F770EE82EFED72F
:103E7800D22FFCD7D32FFAD780A445EF1FF047EFF6
:103E88001FF051EF1FF080B44CEF1FF04EEF1FF002
:103E980047EF1FF0000E0001F36F0001F351D8A4A3
:103EA80058EF1FF05AEF1FF0C5EF1EF0AB9EAC9A0B
:103EB800AB98000E0101256F9D9AF29CF29E1200AC
:103EC8009594959694989598959A959C0F013B95FD
:103ED8003B973A993B993B9B3B9D8C848C868B887E
:103EE8008C888C8A8C8C928438953F0ECD16300E37
:103EF800CD129D80F28CF28E010E0101266F9E80FC
:103F08009E0ECF6E580ECE6ECD80010E0001FE6F54
:103F180021EEEAF010EE15F00B0EDBCFE3FFE8061A
:103F2800FCE221EEDEF010EE09F00B0EDBCFE3FF32
:103F3800E806FCE2000E226E0C0E216E000E236EC7
:103F480005EF20F0000E256E000E246E2450020DA1
:103F5800F350150FD96EDA6A02D8D7EF1FF00500B3
:103F6800FA6EDE50FD6EDE50FE6EF850FF6EFA50AF
:103F780024500508076E2350090FD96EDA6ADF50FE
:103F8800086E072ACAEF1FF0D8900832072EC8EF2C
:103F98001FF008A0D2EF1FF0D5EF1FF0010ED6EFEB
:103FA8001FF0000E1200244A252A25BEE5EF1FF057
:103FB800255009E1060E245CD8A0E5EF1FF0E7EFD5
:103FC8001FF0AAEF1FF0110E086E3C0E076ECB0E05
:103FD800E82EFED7072EFCD7082EFAD70000232A92
:103FE8002350076E086A2150071807E12250081865
:103FF800D8A401EF20F003EF20F005EF20F0000E29
:10400800236E0001FE51D8A40CEF20F00EEF20F033
:10401800A6EF1FF08C848C868B888C888C8A8C8C7D
:10402800CD909D90000E0101266F12009484FC0E25
:104038000F014917C70EBB6E0C0EBD12BD503F0BCA
:104048008009BD6E000EBE6E9E92BA849EA22FEFAE
:1040580020F031EF20F02AEF20F0948492889284A7
:104068009594959694989598959A959C8C848C8619
:104078008B888C888C8A8C8C010E226E000E236EA5
:10408800B0EF20F02350C70DF3CF18F0F4CF19F09C
:10409800000E1B6E050E1A6E15EC24F01850BE6E3D
:1040A80080A859EF20F05BEF20F08DEF20F0030E91
:1040B800216E080E206E770EE82EFED7202EFCD734
:1040C800212EFAD7000080A86CEF20F06EEF20F0C8
:1040D8008DEF20F080B873EF20F075EF20F06EEFD1
:1040E80020F0050E2318D8A47CEF20F07EEF20F0F6
:1040F80082EF20F0000E236E8DEF20F0050E236076
:1041080088EF20F08AEF20F08DEF20F0232A8DEF42
:1041180020F080A492EF20F094EF20F0B0EF20F090
:10412800030E216E080E206E770EE82EFED7202E85
:10413800FCD7212EFAD7000080A4A5EF20F0A7EF26
:1041480020F0B0EF20F080B4ACEF20F0AEEF20F01C
:10415800A7EF20F0000E226E2250D8A4B6EF20F070
:10416800B8EF20F046EF20F0F00EBD16BA949D92FD
:1041780012000101CD6FA7EC28F021EECEF011EE70
:10418800BDF00F0EDBCFE3FFE806FCE2E4EF20F022
:10419800060E0101CD61D3EF20F0D5EF20F0F4EF4A
:1041A80020F0CD2BF4EF20F00101CD51D8B4DFEF92
:1041B80020F0E1EF20F0F4EF20F0CD07F4EF20F04D
:1041C8000001E751000AD8B4F4EF20F0010AD8B48E
:1041D800CCEF20F0030AD8B4D8EF20F0F4EF20F0A9
:1041E8009B0E0001CE6F010ECF6FCC0ED06FFF0E6D
:1041F800D16F000ED36F0F0ED26F0101CD51020D9A
:10420800BD0EF324D96E010EF420DA6EDECFD4F0A1
:10421800DDCFD5F0EFEC27F0AC0E0001CE6F010E2C
:10422800CF6FCD0ED06FFF0ED16F000ED36F100E73
:10423800D26F0101CD510001E86FE96BD890E837E2
:10424800E937020EE827000EE923BD0EE825D96EEE
:10425800010EE921DA6EDECFD4F0DDCFD5F0EFEC38
:1042680027F09B0E076E010E086E010E77EC24F006
:10427800AC0E076E010E086E020E77EC24F00101F9
:10428800CD511200000166356735536E5350D8A4DE
:1042980050EF21F052EF21F05CEF21F0000E646F37
:1042A800000E656F000E666F000E676FC9EF21F094
:1042B80064C068F065C069F066C06AF067C06BF0FA
:1042C800200E6CEF21F0D8906B336A336933683372
:1042D800E82E67EF21F06851526E668FFF0E641763
:1042E800FF0E6517FF0E6617000E6717960E535ED2
:1042F80053BE83EF21F081EF21F099EF21F0535065
:10430800800A970FD8B08BEF21F08DEF21F08FEF57
:1043180021F052EF21F0D890673366336533643368
:10432800533E8FEF21F0B1EF21F01F0E53649FEF42
:1043380021F0A1EF21F0A9EF21F052EF21F0D89060
:10434800643765376637673753065350D8A4AFEFDD
:1043580021F0B1EF21F0A3EF21F05250D8B4B7EF1C
:1043680021F0B9EF21F0C1EF21F0671F661F651F2B
:10437800646D000E65236623672364C064F065C01E
:1043880065F066C066F067C067F01200000E2D1475
:10439800356E000E2E14366E800E2F14376E7F0E7B
:1043A8003014386E3550361037103810D8A4DFEF77
:1043B80021F0E1EF21F0E9EF21F0000E2D6E000E63
:1043C8002E6E000E2F6E000E306E000E3114356EFC
:1043D800000E3214366E800E3314376E7F0E34148E
:1043E800386E3550361037103810D8A4FEEF21F04B
:1043F80000EF22F008EF22F0000E316E000E326E50
:10440800000E336E000E346E30AE0DEF22F00FEF5B
:1044180022F018EF22F02D6C2E1ED8B02E2A2F1E57
:10442800D8B02F2A800E305634AE1DEF22F01FEF81
:1044380022F028EF22F0316C321ED8B0322A331E17
:10444800D8B0332A800E3456000E2D1A000E2E1ABC
:10445800000E2F1A800E301A000E311A000E321A72
:10446800000E331A800E341A31502D5C32502E58FB
:1044780033502F5834503058D8B045EF22F047EF1A
:1044880022F04AEF22F0D8904BEF22F0D8801200A9
:104498001DC110F01EC111F01FC112F020C113F090
:1044A80006C010F007C011F008C012F009C013F0E0
:1044B80010C00AF011C00BF012C00CF013C00DF0C0
:1044C800180E6CEF22F0D8900D320C320B320A32F3
:1044D800E82E67EF22F00A500E6E0F6A0E500F108A
:1044E800D8A479EF22F07BEF22F09BEF22F0D8904E
:1044F80010340A6E11340B6E12340C6E13340D6EB8
:104508000A500B100C100D10D8A48DEF22F08FEF6D
:1045180022F095EF22F0000E076E020E066ECAEF2B
:1045280022F0000E076E030E066ECAEF22F00E2868
:104538000F10D8A4A2EF22F0A4EF22F0C6EF22F0C9
:1045480010C00AF011C00BF012C00CF013C00DF02F
:10455800090ED8900A360B360C360D36E82EADEF1C
:1045680022F00A500B100C100D10D8B4BEEF22F038
:10457800C1EF22F0010EC2EF22F0000E066E076AAC
:10458800CAEF22F0000E076E040E066E120058BE27
:10459800D2EF22F0D0EF22F0D8EF22F0000E276EF3
:1045A800010E266EDCEF22F057C026F058C027F027
:1045B80055C024F056C025F0000E296E4F0E286E07
:1045C800000E0101766F13EF23F02806D8A0290604
:1045D800270E2824D96E010E2920DA6E22C006F093
:1045E80023C007F0000E096E0A0E086EC9EC26F00B
:1045F8000650300FDF6E2606D8A027062406D8A05E
:10460800250622C006F023C007F0000E096E0A0E28
:10461800086E23EC26F006C022F007C023F02850CD
:104628002910D8B41AEF23F01CEF23F032EF23F04F
:1046380022502310D8A423EF23F025EF23F0E9EF2D
:1046480022F027BE32EF23F0275006E12604D8B027
:1046580030EF23F032EF23F0E9EF22F020C017F01B
:1046680021C018F0270E2824196E010E29201A6E71
:1046780024C01BF025C01CF0D4EC25F012000F015B
:104688003B913B9395809582929089806C50F00B7A
:1046980008096C6E130E6E6E6C8A340E076EF20E7D
:1046A800E82EFED7072EFCD76B806BB05EEF23F0A9
:1046B80060EF23F059EF23F0A49E7C0E1DEC29F047
:1046C800800E1DEC29F0380E1DEC29F0800E1DEC33
:1046D80029F0390E1DEC29F0800E1DEC29F0170E7B
:1046E8001DEC29F0800E1DEC29F07A0E1DEC29F046
:1046F800800E1DEC29F05E0E1DEC29F0800E1DECDD
:1047080029F06B0E1DEC29F0800E1DEC29F00C0E23
:104718001DEC29F0800E1DEC29F0010E1DEC29F08E
:10472800800E1DEC29F0060E1DEC29F0800E1DEC04
:1047380029F0020E1DEC29F06B846BB4A6EF23F070
:10474800A8EF23F0A1EF23F0340E076EF20EE82E47
:10475800FED7072EFCD7120009500A10D8B4B7EFBD
:1047680023F0B9EF23F0C2EF23F009500A10D8A4C0
:10477800C0EF23F0C2EF23F0C7EF23F0075040EC5F
:1047880029F014EF24F020EE0AF00950D9260A5037
:10479800DA22DE50DE10D8B4D4EF23F0D6EF23F0BF
:1047A800F1EF23F020EE0AF00950D9260A50DA2258
:1047B80010EE03F00950E1260A50E222DE50E65CD2
:1047C800E650800A0F6EDE50800A0F58D8B0EFEF1F
:1047D80023F0F1EF23F014EF24F020EE03F009505A
:1047E800D9260A50DA22DECF0BF0DDCF0CF009C053
:1047F800D9FF0AC0DAFFDECF0DF0DDCF0EF00B5087
:104808000D24D96E0C500E20DA6E07C0DFFF20EEA3
:1048180003F00950D9260A50DA22DE2A000EDD22DA
:104828001200000E1D6E1BBE1EEF24F01CEF24F0BC
:1048380024EF24F01A6C1B1ED8B01B2A010E1D6E23
:1048480019BE2BEF24F029EF24F031EF24F0186C77
:10485800191ED8B0192A010E1D1A000E1F6E000E5F
:104868001E6E1A501B10D8B43CEF24F03EEF24F013
:1048780066EF24F0010E1C6E46EF24F0D8901A362D
:104888001B361C2A1BAE4BEF24F04DEF24F042EFF1
:1048980024F0D8901E361F361A50185C1B50195831
:1048A800D8A059EF24F05BEF24F060EF24F01A5001
:1048B800185E1B50195A1E80D8901B321A321C2EB3
:1048C8004DEF24F01D50D8B46CEF24F06EEF24F0B7
:1048D80072EF24F01E6C1F1ED8B01F2A1EC018F0DD
:1048E8001FC019F012000B6E6B806BB07EEF24F0C6
:1048F80080EF24F079EF24F0A49E7C0E1DEC29F0C3
:10490800800E1DEC29F00B04D8A48DEF24F08FEF56
:1049180024F094EF24F0800E1DEC29F0A0EF24F091
:10492800020E0B18D8A49BEF24F09DEF24F0A0EF03
:1049380024F0C00E1DEC29F0400E1DEC29F0000EED
:104948000C6E0C500724096E000E08200A6E09C070
:10495800F6FF0AC0F7FF000EF86E0F0EF76403D0DB
:104968000800F55005D0F6CFE1FFF7CFE2FFE7509A
:104978001DEC29F00C2A0F0E0C64C5EF24F0C7EFCC
:1049880024F0A5EF24F06B846BB4CDEF24F0CFEFC7
:1049980024F0C8EF24F01200000E0B6E07BED9EF0A
:1049A80024F0D7EF24F0DFEF24F0066C071ED8B010
:1049B800072A010E0B6E09BEE6EF24F0E4EF24F09F
:1049C800EAEF24F0086C091ED8B0092A085009102B
:1049D800D8B4F1EF24F0F3EF24F017EF25F0010E2F
:1049E8000A6EFBEF24F0D890083609360A2A09AE79
:1049F80000EF25F002EF25F0F7EF24F00850065CF1
:104A080009500758D8A00BEF25F00DEF25F011EF4E
:104A180025F00850065E0950075AD8900932083226
:104A28000A2E02EF25F00B50D8B41DEF25F01FEF2A
:104A380025F023EF25F0066C071ED8B0072A06C01C
:104A480006F007C007F01200000E106E000E0F6E81
:104A58000C50D96EDA6ADECFF6FFDDCFF7FF08001B
:104A6800F5502A0AD8A43BEF25F03DEF25F067EF73
:104A780025F00C50D96EDA6ADE2A000EDD220D50C0
:104A8800D96EDA6A020EDF26DF5CD96EDA6ADECF0B
:104A98000FF0DECF10F07AEF25F00FC006F010C04F
:104AA80007F0000E096E0A0E086E0AEC29F00E5087
:104AB80006240F6E000E0720106E0C50D96EDA6AAD
:104AC800DE2A000EDD220C50D96EDA6ADECFF6FF40
:104AD800DDCFF7FF0800F550D00F0E6E090E0E64FB
:104AE80078EF25F07AEF25F051EF25F00FC00CF0A4
:104AF80010C00DF01200000E06140E6E000E071402
:104B08000F6E800E0814106E7F0E0914116E0E5071
:104B18000F1010101110D8A494EF25F096EF25F07F
:104B28009EEF25F0000E066E000E076E000E086E52
:104B3800000E096E000E0A140E6E000E0B140F6E96
:104B4800800E0C14106E7F0E0D14116E0E500F1087
:104B580010101110D8A4B3EF25F0B5EF25F0BDEF74
:104B680025F0000E0A6E000E0B6E000E0C6E000E85
:104B78000D6E0A5006180FE10B5007180CE10C5087
:104B8800081809E10D500918D8B4CDEF25F0CFEF7A
:104B980025F0D2EF25F0D890D3EF25F0D880120079
:104BA80059A0D9EF25F0DBEF25F0E5EF25F019C086
:104BB80010F01AC011F017C012F018C013F012EC60
:104BC80028F01CBEECEF25F0EAEF25F0F0EF25F019
:104BD800000E1C6E000E1B6E000E1F6E000E1E6E69
:104BE80002EF26F0000E086E200E076E17C009F0BF
:104BF80018C00AF0B0EC23F01E4A1F2A1B501E5C96
:104C08001F50800A1D6E1C50800A1D58D8A00FEF37
:104C180026F011EF26F0F6EF25F059B016EF26F042
:104C280018EF26F022EF26F019C010F01AC011F084
:104C380017C012F018C013F012EC28F01200000E82
:104C48000C6E000E0B6E08500910D8B42EEF26F02B
:104C580030EF26F058EF26F0010E0A6E38EF26F0F6
:104C6800D890083609360A2A09AE3DEF26F03FEFFC
:104C780026F034EF26F0D8900B360C360850065C38
:104C880009500758D8A04BEF26F04DEF26F052EF09
:104C980026F00850065E0950075A0B80D890093252
:104CA80008320A2E3FEF26F00BC006F00CC007F0C2
:104CB800120097C106F098C107F099C108F09AC18F
:104CC80009F02D0E0A6E7F0E0B6E950E0C6E4C0EB3
:104CD8000D6E94EC26F0010E06240101976F000E6C
:104CE8000720986F000E0820996F000E09209A6F10
:104CF80097C114F098C115F099C116F09AC117F030
:104D0800120E8CEF26F0D890173216321532143264
:104D1800E82E87EF26F014C012F015C013F0120029
:104D2800000E0E6E000E0F6E000E106E000E116E4D
:104D380006A0A1EF26F0A3EF26F0ABEF26F00A506D
:104D48000E260B500F220C5010220D501122D89015
:104D58000A360B360C360D36D8900932083207322F
:104D680006320650071008100910D8A4BEEF26F026
:104D7800C0EF26F09CEF26F00EC006F00FC007F03B
:104D880010C008F011C009F0120008500910D8B47A
:104D9800D0EF26F0D2EF26F0F6EF26F0010E0A6EDD
:104DA800DAEF26F0D890083609360A2A09AEDFEF7E
:104DB80026F0E1EF26F0D6EF26F00850065C095001
:104DC8000758D8A0EAEF26F0ECEF26F0F0EF26F02F
:104DD8000850065E0950075AD890093208320A2E40
:104DE800E1EF26F006C006F007C007F01200076ED4
:104DF800000E096E0650D8B404EF27F006EF27F02E
:104E080027EF27F0010E086E0DEF27F0D890063631
:104E1800082A06AE12EF27F014EF27F00AEF27F062
:104E2800D89009360650075CD8A01DEF27F01FEF71
:104E380027F022EF27F00650075E0980D890063247
:104E4800082E14EF27F00950120009BE2EEF27F0A4
:104E580030EF27F03AEF27F006C006F007C007F05A
:104E680008C008F009C009F053EF27F006C00AF09F
:104E780007C00BF008C00CF009C00DF00A1E0B1E8D
:104E88000C1E0D1E0A2A000E0B220C220D220AC02F
:104E980006F00BC007F00CC008F00DC009F01200B6
:104EA800EC0EF66E510EF76E000EF86E01EECEF0B7
:104EB80010EE28F00900F5CFEEFFE550E150FAE1D9
:104EC80002EE00F02A0EEE6AE806FDE101EE00F0BF
:104ED8009B0EEE6AE806FDE10001FE6B596A586A0E
:104EE800576A566A556A5A905A92000EF86E00012F
:104EF800F8EF14F008C00FF009C010F006C00DF06C
:104F080007C00EF098EF27F00FC0D9FF10C0DAFFE6
:104F1800DF500C6E0F4A102A0DC0D9FF0EC0DAFF01
:104F28000CC0DFFF0D4A0E2A0A06D8A00B060A2875
:104F380006E10B28D8A4A3EF27F0A5EF27F088EF08
:104F480027F01200C9C0CCF0CAC0CDF0B7EF27F0E7
:104F5800C7C0B9F0C8C0BAF0CC0E0001BB6FCBC057
:104F6800BCF0A6EC05F0CCC0F6FFCDC0F7FF0800FA
:104F7800F5500009D8A4C3EF27F0C5EF27F0ACEF30
:104F880027F0000E0001C86F000EC76F1200000E58
:104F98000001681B000E691B000E6A1B800E6B1B4C
:104FA80064C046F065C047F066C048F067C049F085
:104FB80068C04AF069C04BF06AC04CF06BC04DF055
:104FC800D9EC0AF046C064F047C065F048C066F006
:104FD80049C067F01200D20E0001DA6FCEC0DBF0D4
:104FE800CFC0DCF0000EDF6F000EDE6F000EE66F44
:104FF800000EE56FDB0EC76FC86BD0C0C9F0D1C01B
:10500800CAF0DA0ECB6FA6EC27F00001DE51CE25F0
:10501800D96EDF51CF21DA6EDF6A1200000E166EEC
:10502800000E156E23EF28F014C007F0086A12C0AE
:1050380009F013C00AF0B0EC23F0154A162A1550EF
:105048001024D96E16501120DA6EDF50146E1450E9
:10505800D8A431EF28F033EF28F018EF28F0120029
:10506800086E08380F0B3009066E0838F00B076E0B
:105078008A9606C0C9FF9EA644EF28F046EF28F09E
:105088003FEF28F09E9607C0C9FF9EA64EEF28F076
:1050980050EF28F049EF28F09E968A86120000010A
:1050A8008051811182118311D8B45DEF28F05FEF30
:1050B80028F067EF28F0000E801B000E811B000E01
:1050C800821B800E831B80C080F081C081F082C06B
:1050D80082F083C083F0120006C00AF007C00BF00C
:1050E80008C0F6FF09C0F7FF084A092A0AC0D9FF15
:1050F8000BC0DAFF0A4A0B2A0800F5CFDFFFDF50A2
:10510800D8A489EF28F08BEF28F074EF28F012006C
:1051180006C008F007C009F094EF28F0064A072AED
:1051280006C0D9FF07C0DAFFDF50D8A49EEF28F0E9
:10513800A0EF28F092EF28F00850065C066E0950A0
:105148000758076E12006B806BB0ADEF28F0AFEF19
:1051580028F0A8EF28F0A49E7C0E1DEC29F0800E04
:105168001DEC29F0010E1DEC29F06B846BB4BFEF28
:1051780028F0C1EF28F0BAEF28F0120011C10AF0A8
:1051880012C10BF013C10CF014C10DF006C00AF0E7
:1051980007C00BF008C00CF009C00DF00D9E0AC046
:1051A80006F00BC007F00CC008F00DC009F01200A3
:1051B8000DBEE1EF28F0E3EF28F0E9EF28F00CC08E
:1051C8000CF00DC00DF0F5EF28F00CC00EF00DC07E
:1051D8000FF00E1E0F1E0E4A0F2A0EC00CF00FC045
:1051E8000DF01200DCFFE1FFFBFFF7FFF3FFD7FF35
:1051F800C6FFD6FF2030180C06030103060C183032
:10520800CE52C052B252A4529652DC5206500802F4
:10521800F3CF0AF0F4CF0BF006500902F3500B2637
:1052280007500802F3500B260AC006F00BC007F01F
:105238001200066E06C06FFF6DB025EF29F027EF4C
:1052480029F020EF29F0A4AE2CEF29F02EEF29F059
:1052580027EF29F0A49E1200D00E546E000E000114
:10526800C76F000EC86FCEC0C9F0CFC0CAF0540EC9
:10527800CB6FA6EC27F01200066E9EA846EF29F029
:1052880048EF29F041EF29F006C0ADFF1200066E85
:1052980006B002D08C9A01D08C8A1200066E06B035
:1052A80002D08C9801D08C881200066E06B002D00D
:1052B8008B9801D08B881200066E06B002D08C96AF
:1052C80001D08C861200066E06B002D08C9401D0F4
:1052D8008C841200066E06B002D08C9C01D08C8C97
:0452E800120012009E
:10FE3600003C6C3636CF0750B98488083CABAA2AFA
:10FE4600BEA3858832DA0FC93F83F9223F0000003E
:10FE56003F179ACC373F04B6BA9FAA2A3D00000046
:10FE6600BFDB0FC940E4CB9640DB0F4940DB0FC92F
:10FE76003F25752020202020202020202020202003
:10FE860020202000504F54313A252E3166504F54D1
:10FE9600323A252E316600536B6F72653A2025750E
:10FEA60020202020202020200025687520202020CA
:10FEB6002020202020202020200047414D45204F93
:10FEC60056455220202020202020004E6562796C65
:10FED6006F202020202020202020200042523A207F
:10FEE60031393230302020202020202000567974ED
:10FEF600766F72696C3A20202020202020005072F4
:10FF060069707261766974202020202020200050BC
:10FF16006F7A6F7221204861642121212020200000
:10FF26004461766964205374726173616B2020208A
:10FF3600004C6164656E6920706F74616B7520207A
:10FF460020005A6D61636B6E6574652042544E32B3
:10FF5600202000496D706C656D656E746F76616EFC
:10FF66006F2020005242302D41322C2042523A312D
:10FF76003932303000566F6C7479206E6120504FE4
:10FF8600546563683A004B6F6E6563202D206E657D
:10FF960077206C696E6500313A74722C323A736957
:10FFA6006E2C333A70696C002020202020202020FF
:10FFB600202020506F7A6F7200286E756C6C2900B5
:10FFC6004D55534943003E252D2A73002573200ABB
:10FFD6000047414D45004750494F00554152540096
:10FFE6002564200D00696E66006E616E0044414313
:0AFFF600004144430050574D000045
:020000040030CA
:04000000FF331F3C6F
:00000001FF
