:0400000035EF1FF0C9
:10100000003C6C3636CF0750B98488083CABAA2A1E
:10101000BEA3858832DA0FC93F83F9223F00000062
:101020003F179ACC373F04B6BA9FAA2A3D0000006A
:10103000BFDB0FC940E4CB9640DB0F4940DB0FC953
:101040003F567974766F72696C3A202020202020F8
:1010500020004461766964205374726173616B206F
:101060002020005242302D41322C2042523A203969
:1010700036303000313A74722C323A73696E2C3348
:101080003A70696C00286E756C6C29004D55534997
:1010900043003E252D2A730047414D4500475049E6
:1010A0004F0055415254002564200D004441430037
:0910B0004144430050574D00007B
:1010BA009AC0B0F09BC0B1F09CC0B2F09DC0B3F032
:1010CA000001B3BF6BEF08F06EEF08F0010E6FEF8F
:1010DA0008F0000EA76FB39FDB0EB05D0F0EB1597B
:1010EA00490EB2593F0EB359D8B07EEF08F080EFDF
:1010FA0008F0A9EF08F0800EB25D390EB359D8B0E6
:10110A0089EF08F08BEF08F095EF08F09AC09AF093
:10111A009BC09BF09CC09CF09DC09DF0E1EF0AF043
:10112A009AC051F09BC052F09CC053F09DC054F03D
:10113A0055EC15F051C09AF052C09BF053C09CF088
:10114A0054C09DF0E1EF0AF0D20EB05D530EB159D2
:10115A007B0EB259400EB359D8B0B6EF08F0B8EFCB
:10116A0008F09BEF09F0E40EB05DCB0EB159160EF4
:10117A00B259400EB359D8B0C5EF08F0C7EF08F01E
:10118A0035EF09F0A751D8B4CDEF08F0CFEF08F04A
:10119A0007EF09F0DB0E456E0F0E466EC90E476E5D
:1011AA003F0E486E9AC041F09BC042F09CC043F08B
:1011BA009DC044F0E2EC0AF041C0A8F042C0A9F098
:1011CA0043C0AAF044C0ABF0A8C051F0A9C052F085
:1011DA00AAC053F0ABC054F07AEC17F051C078F0C3
:1011EA0052C079F053C07AF054C07BF096EC1FF0ED
:1011FA0078C09AF079C09BF07AC09CF07BC09DF0D1
:10120A00E1EF0AF09AC041F09BC042F09CC043F063
:10121A009DC044F0DB0E456E0F0E466EC90E476E3A
:10122A00BF0E486EE2EC0AF041C0A8F042C0A9F035
:10123A0043C0AAF044C0ABF0A8C051F0A9C052F014
:10124A00AAC053F0ABC054F07AEC17F051C09AF030
:10125A0052C09BF053C09CF054C09DF0E1EF0AF0DD
:10126A00A751D8A43BEF09F03DEF09F063EF09F06D
:10127A00DB0E456E0F0E466E490E476EC00E486E67
:10128A009AC041F09BC042F09CC043F09DC044F01C
:10129A00E2EC0AF041C078F042C079F043C07AF03B
:1012AA0044C07BF096EC1FF078C09EF079C09FF0A6
:1012BA007AC0A0F07BC0A1F087EF09F0DB0E456E83
:1012CA000F0E466E490E476E400E486E9AC041F0A8
:1012DA009BC042F09CC043F09DC044F0E2EC0AF08F
:1012EA0041C078F042C079F043C07AF044C07BF044
:1012FA0096EC1FF078C09EF079C09FF07AC0A0F0FB
:10130A007BC0A1F09EC051F09FC052F0A0C053F024
:10131A00A1C054F055EC15F051C09AF052C09BF0A0
:10132A0053C09CF054C09DF0E1EF0AF0D60EB05DB8
:10133A00310EB159E20EB259400EB359D8B0A8EFE6
:10134A0009F0AAEF09F04BEF0AF0E00EB05DED0EDE
:10135A00B159AF0EB259400EB359D8B0B7EF09F030
:10136A00B9EF09F0F9EF09F0A751D8B4BFEF09F0C6
:10137A00C1EF09F0DDEF09F09AC041F09BC042F0DD
:10138A009CC043F09DC044F0E40E456ECB0E466E01
:10139A00960E476E400E486EE2EC0AF041C0A8F085
:1013AA0042C0A9F043C0AAF044C0ABF021EF09F053
:1013BA00E40E456ECB0E466E960E476EC00E486E14
:1013CA009AC041F09BC042F09CC043F09DC044F0DB
:1013DA00E2EC0AF041C0A8F042C0A9F043C0AAF06A
:1013EA0044C0ABF0E9EF08F0A751D8A4FFEF09F029
:1013FA0001EF0AF01DEF0AF09AC041F09BC042F0DB
:10140A009CC043F09DC044F0DB0E456E0F0E466E45
:10141A00C90E476EC00E486EE2EC0AF041C0A2F057
:10142A0042C0A3F043C0A4F044C0A5F037EF0AF0CD
:10143A009AC041F09BC042F09CC043F09DC044F06A
:10144A00DB0E456E0F0E466EC90E476E400E486E95
:10145A00E2EC0AF041C0A2F042C0A3F043C0A4F0FB
:10146A0044C0A5F0A2C051F0A3C052F0A4C053F0EA
:10147A00A5C054F055EC15F051C09AF052C09BF03B
:10148A0053C09CF054C09DF0E1EF0AF0800EB25DAB
:10149A007F0EB359D8A054EF0AF056EF0AF068EF5E
:1014AA000AF0FF0EB013FF0EB113FF0EB213000EB7
:1014BA00B313B0C09AF0B1C09BF0B2C09CF0B3C0F5
:1014CA009DF0E1EF0AF09AC07CF09BC07DF09CC0D1
:1014DA007EF09DC07FF0AC0E806F57EC0FF00001DC
:1014EA007C51030BA66FD2EF0AF0ACC078F0ADC006
:1014FA0079F0AEC07AF0AFC07BF096EC1FF078C0FE
:10150A00ACF079C0ADF07AC0AEF07BC0AFF0ACC041
:10151A0051F0ADC052F0AEC053F0AFC054F055EC2C
:10152A0015F051C09AF052C09BF053C09CF054C0C1
:10153A009DF0E1EF0AF0ACC051F0ADC052F0AEC080
:10154A0053F0AFC054F07AEC17F051C09AF052C081
:10155A009BF053C09CF054C09DF0E1EF0AF0ACC080
:10156A0051F0ADC052F0AEC053F0AFC054F07AECB7
:10157A0017F051C078F052C079F053C07AF054C0D5
:10158A007BF096EC1FF078C09AF079C09BF07AC095
:10159A009CF07BC09DF0E1EF0AF0A651000AD8B496
:1015AA008CEF0AF0010AD8B4A0EF0AF0030AD8B403
:1015BA007AEF0AF0B4EF0AF012004450800B4D6E35
:1015CA00445044244F6E43AEEDEF0AF0EFEF0AF0B9
:1015DA00F0EF0AF04F804F50D8B4F6EF0AF0F8EF68
:1015EA000AF00DEF0BF04F28D8A4FEEF0AF000EF37
:1015FA000BF008EF0BF0000E416E000E426E000E6B
:10160A00436E000E446E438E000E446E15EF0BF0CF
:10161A00000E416E000E426E000E436E000E446EC6
:10162A004850800B4E6E4D504E18D8B41FEF0BF039
:10163A0021EF0BF022EF0BF04D8C485048244E6EF0
:10164A0047AE2AEF0BF02CEF0BF02DEF0BF04E808C
:10165A004E50D8B433EF0BF035EF0BF04AEF0BF0E6
:10166A004E28D8A43BEF0BF03DEF0BF045EF0BF003
:10167A00000E456E000E466E000E476E000E486E56
:10168A00478E000E486E52EF0BF0000E456E000EAC
:10169A00466E000E476E000E486E4F504E5CD8B034
:1016AA0059EF0BF05BEF0BF082EF0BF04DAC60EFF4
:1016BA000BF062EF0BF064EF0BF0800E4D1A4FC087
:1016CA0050F04EC04FF050C04EF041C050F045C0EF
:1016DA0041F050C045F042C050F046C042F050C000
:1016EA0046F043C050F047C043F050C047F044C0F2
:1016FA0050F048C044F050C048F0000E506E4F50B1
:10170A004EC049F04A6A495E000E4A5A4ABE97EFED
:10171A000BF04A5009E11A0E495CD8A097EF0BF07A
:10172A0099EF0BF0D0EF0BF04150421043104410E8
:10173A00D8A4A2EF0BF0A5EF0BF0010EA6EF0BF069
:10174A00000E506E000E416E000E426E000E436E89
:10175A00000E446E4EC04FF0D9EF0BF050A0B8EF18
:10176A000BF0BAEF0BF0C0EF0BF0D8905030010934
:10177A00506EC2EF0BF0D890503241A0C7EF0BF079
:10178A00C9EF0BF0CAEF0BF0508E443444324332A7
:10179A00423241324F2A4E504F5CD8A0D7EF0BF05D
:1017AA00D9EF0BF0B3EF0BF04DBCDEEF0BF0E0EF2F
:1017BA000BF020EF0CF04F50D8A4E6EF0BF0E8EF57
:1017CA000BF0F2EF0BF0000E416E000E426E000EAF
:1017DA00436E000E446E41EF0DF0455041264650CF
:1017EA004222475043224850442244A0FFEF0BF0C4
:1017FA0001EF0CF0ADEF0CF050A006EF0CF008EF83
:10180A000CF00EEF0CF0D89050300109506E10EF2A
:10181A000CF0D890503241A015EF0CF017EF0CF0F5
:10182A0018EF0CF0508E4434443243324232413283
:10183A004F2AADEF0CF04550415C46504258475094
:10184A0043584450800A496E4850800A4958D8B0D3
:10185A0031EF0CF033EF0CF05EEF0CF04150455CC9
:10186A00496E425046584A6E435047584B6E445050
:10187A0048584C6EFF0E4924416EFF0E4A20426EB4
:10188A00FF0E4B20436EFF0E4C20446E800E4D1A05
:10189A00506C5050D8A454EF0CF056EF0CF066EF91
:1018AA000CF0010E4126000E42224322442266EF2A
:1018BA000CF04550415E4650425A4750435A4850F0
:1018CA00445A4150421043104410D8A46FEF0CF010
:1018DA0071EF0CF0A6EF0CF05050D8A477EF0CF093
:1018EA0079EF0CF0A6EF0CF0000E416E000E426E7E
:1018FA00000E436E000E446E41EF0DF0D890413653
:10190A0042364336443650AE8DEF0CF08FEF0CF072
:10191A0090EF0CF0418050A095EF0CF097EF0CF08F
:10192A009BEF0CF0D88050369DEF0CF0D8905036D3
:10193A004F50D8B4A3EF0CF0A5EF0CF0A6EF0CF0C3
:10194A004F0643AEABEF0CF0ADEF0CF083EF0CF0AB
:10195A00000E4E6E50AEB4EF0CF0B6EF0CF0CEEFB8
:10196A000CF050C049F07F0E4916D8B4BFEF0CF006
:10197A00C1EF0CF0C5EF0CF0010E4E6ECEEF0CF07D
:10198A0041A0CAEF0CF0CCEF0CF0CEEF0CF0C1EF97
:10199A000CF04E50D8B4D4EF0CF0D6EF0CF001EFA7
:1019AA000DF0010E4126000E42224322442244A099
:1019BA00E1EF0CF0E3EF0CF001EF0DF041C049F05C
:1019CA0042C04AF043C04BF044C04CF04C344C3255
:1019DA004B324A32493249C041F04AC042F04BC008
:1019EA0043F04CC044F04F28D8B4FEEF0CF000EF9F
:1019FA000DF001EF0DF04F2A4F28D8B407EF0DF084
:101A0A0009EF0DF011EF0DF04F50D8A40FEF0DF0C4
:101A1A0011EF0DF023EF0DF0000E416E000E426E35
:101A2A00000E436E000E446E4F50D8A41FEF0DF007
:101A3A0021EF0DF023EF0DF0000E4D6E4FA028EFB1
:101A4A000DF02AEF0DF02DEF0DF0438E2EEF0DF075
:101A5A00439ED8904F30446E4DAE36EF0DF038EFBE
:101A6A000DF039EF0DF0448E41C041F042C042F012
:101A7A0043C043F044C044F012001250800B1B6E66
:101A8A0012501224216E11AE4DEF0DF04FEF0DF0F2
:101A9A0050EF0DF021802150D8B456EF0DF058EFD9
:101AAA000DF06BEF0DF02128D8A45EEF0DF060EF7A
:101ABA000DF068EF0DF0000E0F6E000E106E000EA6
:101ACA00116E000E126E118E73EF0DF0000E0F6E76
:101ADA00000E106E000E116E000E126E1650800B64
:101AEA001B1A16501624206E15AE7EEF0DF080EFED
:101AFA000DF081EF0DF020802050D8B487EF0DF063
:101B0A0089EF0DF09CEF0DF02028D8A48FEF0DF08F
:101B1A0091EF0DF099EF0DF0000E136E000E146E9A
:101B2A00000E156E000E166E158EA4EF0DF0000E47
:101B3A00136E000E146E000E156E000E166E2050F7
:101B4A00D8B4AAEF0DF0ACEF0DF0B4EF0DF02150C0
:101B5A00D8A4B2EF0DF0B4EF0DF0BEEF0DF0000E09
:101B6A000F6E000E106E000E116E000E126E56EF02
:101B7A000FF015500F02F3CF26F0F4CF27F02650BE
:101B8A001C6E1D6A1E6A1F6A2750226E236A246A07
:101B9A00256A14501002F3CF26F0F4CF27F026500E
:101BAA001C26000E1D221E221F2227502226000E4E
:101BBA0023222422252213501102F3CF26F0F4CF38
:101BCA0027F026501C26000E1D221E221F222750F7
:101BDA002226000E2322242225221EC01FF01DC009
:101BEA001EF01CC01DF01C6A13501002F3CF26F021
:101BFA00F4CF27F026501C2627501D22000E1E2245
:101C0A00000E1F2214500F02F3CF26F0F4CF27F054
:101C1A0026501C2627501D22000E1E22000E1F22AF
:101C2A001EC01FF01DC01EF01CC01DF01C6A135000
:101C3A000F02F3CF26F0F4CF27F026501C262750A8
:101C4A001D22000E1E22000E1F2215501002F3CF75
:101C5A0026F0F4CF27F02650222627502322000E02
:101C6A002422000E252214501102F3CF26F0F4CFBD
:101C7A0027F02650222627502322000E2422000E67
:101C8A00252215501102F3CF26F0F4CF27F0265063
:101C9A00176E2750186E196A1A6A19C01AF018C0F6
:101CAA0019F017C018F0176A175022261850232265
:101CBA00195024221A5025221CC017F01DC018F0F2
:101CCA001EC019F01FC01AF0190E71EF0EF0D8904D
:101CDA001A32193218321732E82E6CEF0EF01750FA
:101CEA00222618502322195024221A5025221EC0B7
:101CFA001FF01DC01EF01CC01DF01C6A205021C020
:101D0A0017F0186A1726000E1822820E1724266E5C
:101D1A00FF0E1820276EA7EF0EF0D8902236233632
:101D2A00243625361FAE9CEF0EF09EEF0EF09FEF85
:101D3A000EF02280D8901C361D361E361F36260617
:101D4A00D8A0270624AEACEF0EF0AEEF0EF092EF5D
:101D5A000EF0000E206E1FAEB5EF0EF0B7EF0EF0CC
:101D6A00DBEF0EF0FF0E1C14176EFF0E1D14186E1B
:101D7A00FF0E1E14196E7F0E1F141A6E17501810BC
:101D8A0019101A10D8B4CCEF0EF0CEEF0EF0D2EF35
:101D9A000EF0010E206EDBEF0EF022A0D7EF0EF050
:101DAA00D9EF0EF0DBEF0EF0CEEF0EF02050D8B4E4
:101DBA00E1EF0EF0E3EF0EF007EF0FF0010E22262F
:101DCA00000E23222422252225A0EEEF0EF0F0EFAA
:101DDA000EF007EF0FF022C017F023C018F024C04E
:101DEA0019F025C01AF01A341A3219321832173279
:101DFA0017C022F018C023F019C024F01AC025F029
:101E0A00264A272A27BE12EF0FF0275008E1262874
:101E1A00D8A012EF0FF014EF0FF01EEF0FF0000E24
:101E2A00226E000E236E800E246E7F0E256E4CEFFE
:101E3A000FF027BE2BEF0FF0275006E12604D8B08B
:101E4A0029EF0FF02BEF0FF037EF0FF0000E226E95
:101E5A00000E236E000E246E000E256E000E1B6E01
:101E6A004CEF0FF026C021F0FF0E2216FF0E2316AC
:101E7A007F0E2416000E251621A046EF0FF048EF1C
:101E8A000FF049EF0FF0248ED8902130256E1B50A9
:101E9A00251222C00FF023C010F024C011F025C073
:101EAA0012F01200E5C08AF0E6C08BF0E7C08CF0B1
:101EBA00E8C08DF07CC08AF07DC08BF07EC08CF0CB
:101ECA007FC08DF000018DBF6DEF0FF070EF0FF046
:101EDA00010E71EF0FF0000E896F8D9FDB0E8A5D88
:101EEA000F0E8B59C90E8C594D0E8D59D8B080EFF3
:101EFA000FF082EF0FF06EEF10F07CC001F07DC0A2
:101F0A0002F07EC003F07FC004F0E9EC1FF001C0CC
:101F1A0092F002C093F003C094F004C095F0000E52
:101F2A00456E000E466E000E476E3F0E486E830EDB
:101F3A00136EF90E146E220E156E3F0E166E92C0B7
:101F4A000FF093C010F094C011F095C012F042EC5B
:101F5A000DF00FC041F010C042F011C043F012C0A2
:101F6A0044F0E2EC0AF041C051F042C052F043C0E2
:101F7A0053F044C054F076EC1BF051C096F052C0B6
:101F8A0097F053C098F054C099F096C001F097C0EA
:101F9A0002F098C003F099C004F0010E79EC18F031
:101FAA0001C08EF002C08FF003C090F004C091F01F
:101FBA00DA0E136E0F0E146EC90E156E3F0E166EE4
:101FCA008EC00FF08FC010F090C011F091C012F0C7
:101FDA0042EC0DF00FC055F010C056F011C057F08A
:101FEA0012C058F092C051F093C052F094C053F00E
:101FFA0095C054F0F0EC1EF051C085F052C086F046
:10200A0053C087F054C088F085C051F086C052F0A2
:10201A0087C053F088C054F0A30E136E850E146E59
:10202A00880E156E320E166E8EC00FF08FC010F02D
:10203A0090C011F091C012F042EC0DF00FC055F0B3
:10204A0010C056F011C057F012C058F0F0EC1EF054
:10205A0000018051D96EDA6A51C0DEFF52C0DEFF3C
:10206A0053C0DEFF54C0DEFF8951D8B43FEF10F0F1
:10207A0041EF10F068EF10F08051D96EDA6ADECFC6
:10208A0078F0DECF79F0DECF7AF0DECF7BF096EC17
:10209A001FF000018051D96EDA6A78C0DEFF79C07C
:1020AA00DEFF7AC0DEFF7BC0DEFF96C05BF097C022
:1020BA005CF05B1E5C1E5B4A5C2A5BC07CF05CC009
:1020CA007DF037EF11F096C07CF097C07DF037EFC6
:1020DA0011F07CC001F07DC002F07EC003F07FC029
:1020EA0004F0E9EC1FF001C092F002C093F003C0C3
:1020FA0094F004C095F0000E456E000E466E000E78
:10210A00476E3F0E486E830E136EF90E146E220E42
:10211A00156E3F0E166E92C00FF093C010F094C069
:10212A0011F095C012F042EC0DF00FC041F010C052
:10213A0042F011C043F012C044F0E2EC0AF041C090
:10214A0051F042C052F043C053F044C054F076EC10
:10215A001BF051C096F052C097F053C098F054C08B
:10216A0099F096C001F097C002F098C003F099C0A8
:10217A0004F0010E79EC18F001C08EF002C08FF065
:10218A0003C090F004C091F0DA0E136E0F0E146EB5
:10219A00C90E156E3F0E166E8EC00FF08FC010F06E
:1021AA0090C011F091C012F042EC0DF00FC055F042
:1021BA0010C056F011C057F012C058F092C051F03A
:1021CA0093C052F094C053F095C054F0F0EC1EF056
:1021DA0051C085F052C086F053C087F054C088F0D1
:1021EA0085C051F086C052F087C053F088C054F0C1
:1021FA00A30E136E850E146E880E156E320E166EB1
:10220A008EC00FF08FC010F090C011F091C012F084
:10221A0042EC0DF00FC055F010C056F011C057F047
:10222A0012C058F0F0EC1EF051C081F052C082F09A
:10223A0053C083F054C084F000018051D96EDA6A29
:10224A0081C0DEFF82C0DEFF83C0DEFF84C0DEFF06
:10225A008951D8B433EF11F035EF11F068EF10F06F
:10226A0041EF10F012002B50800B386E2B502B24AC
:10227A003F6E2AAE43EF11F045EF11F046EF11F031
:10228A003F803F50D8B44CEF11F04EEF11F063EF9E
:10229A0011F03F28D8A454EF11F056EF11F05EEF79
:1022AA0011F0000E286E000E296E000E2A6E000E26
:1022BA002B6E2A8E000E2B6E6BEF11F0000E286E1D
:1022CA00000E296E000E2A6E000E2B6E2F50800B08
:1022DA00381A2F502F24406E2EAE76EF11F078EF79
:1022EA0011F079EF11F040804050D8B47FEF11F02F
:1022FA0081EF11F096EF11F04028D8A487EF11F082
:10230A0089EF11F091EF11F0000E2C6E000E2D6E78
:10231A00000E2E6E000E2F6E2E8E000E2F6E9EEF6A
:10232A0011F0000E2C6E000E2D6E000E2E6E000E99
:10233A002F6E2C502D102E102F10D8A4A7EF11F0AD
:10234A00A9EF11F0C1EF11F0000E286E000E296EF0
:10235A00000E2A6E000E2B6E800E2A127F0E2B1292
:10236A0038502B1228C028F029C029F02AC02AF098
:10237A002BC02BF004EF13F03F50D8A4C7EF11F095
:10238A00C9EF11F0D3EF11F0000E286E000E296E7E
:10239A00000E2A6E000E2B6E04EF13F040503FC061
:1023AA0030F0316A305E000E315A7F0E3024396EB9
:1023BA00000E31203A6E28C034F029C035F02AC008
:1023CA0036F02BC037F0000E286E000E296E000E74
:1023DA002A6E000E2B6E000E3B6E000E3C6E000E37
:1023EA003D6E000E3E6E000E406E34EF12F040500D
:1023FA00D8B402EF12F004EF12F01BEF12F0D890EB
:10240A003436353636363736D890283629362A368F
:10241A002B363EAE13EF12F015EF12F016EF12F054
:10242A002880D8903B363C363D363E362C50345CBC
:10243A002D5035582E5036582F503758D8A028EFDF
:10244A0012F02AEF12F033EF12F03E8C2C50345E69
:10245A002D50355A2E50365A2F50375A402A190EB7
:10246A0040643AEF12F03CEF12F0FCEF11F03450F6
:10247A00351036103710D8B445EF12F047EF12F086
:10248A005FEF12F03B805FEF12F0D89028362936C2
:10249A002A362B363EAE54EF12F056EF12F057EFB3
:1024AA0012F02880D8903B363C363D363E36390607
:1024BA00D8A03A062AAE64EF12F066EF12F04AEF9D
:1024CA0012F0000E406E3EAE6DEF12F06FEF12F09A
:1024DA0093EF12F0FF0E3B14306EFF0E3C14316E78
:1024EA00FF0E3D14326E7F0E3E14336E30503110A3
:1024FA0032103310D8B484EF12F086EF12F08AEF5C
:10250A0012F0010E406E93EF12F028A08FEF12F036
:10251A0091EF12F093EF12F086EF12F04050D8B418
:10252A0099EF12F09BEF12F0BFEF12F0010E28267E
:10253A00000E29222A222B222BA0A6EF12F0A8EFA6
:10254A0012F0BFEF12F028C030F029C031F02AC0D3
:10255A0032F02BC033F0333433323232313230324C
:10256A0030C028F031C029F032C02AF033C02BF035
:10257A00394A3A2A3ABECAEF12F03A5008E13928E3
:10258A00D8A0CAEF12F0CCEF12F0D7EF12F0000E7B
:10259A003A6E3968000E286E000E296E000E2A6EF9
:1025AA00000E2B6E3ABEE4EF12F03A5006E13904FF
:1025BA00D8B0E2EF12F0E4EF12F0F2EF12F0000EF0
:1025CA003A6E000E396E000E286E000E296E000E4D
:1025DA002A6E000E2B6E000E386E39C03FF03FA0F7
:1025EA00F9EF12F0FBEF12F0FEEF12F02A8EFFEF76
:1025FA0012F02A9ED8903F302B6EB5EF11F01200E0
:10260A002950D96EDA6ADFCFF6FF100EF76E08008E
:10261A00F550250AD8A414EF13F016EF13F01EEFA5
:10262A0014F02950D96EDA6ADF2A000E0001EA6F27
:10263A00000EE96FE9C0EDF0EB69EC69000E316E4E
:10264A0042EF13F00001ED812950D96EDA6ADF2AD0
:10265A0042EF13F0010E316E42EF13F02950D96E9A
:10266A00DA6ADFCFF6FF100EF76E0800F5502D0A72
:10267A00D8B427EF13F02FEF13F03150D8B448EF46
:10268A0013F04AEF13F033EF13F029C007F02AC012
:10269A0008F04CEC1EF007C0E9F008C0EAF00001AF
:1026AA00EABF5CEF13F05AEF13F061EF13F0ED811C
:1026BA00E96DEA1FD8B0EA2B2950D96EDA6ADF50E1
:1026CA00306E30C0F6FF100EF76E0800F550640A3F
:1026DA00D8B472EF13F074EF13F082EF13F030C036
:1026EA00F6FF100EF76E0800F550690AD8A480EFBD
:1026FA0013F082EF13F09FEF13F02A50D96EDA6AC3
:10270A00020EDF26DF5CD96EDA6ADECF2CF0DECF6E
:10271A002DF02950D96EDA6A3028DF6E27C01BF0F7
:10272A0028C01CF02CC01DF02DC01EF0CDEC1AF0F4
:10273A0031EF14F0000E316E2950D96EDA6ADFCF0C
:10274A00F6FF100EF76E0800F550730AD8A4B0EF22
:10275A0013F0B2EF13F0BAEF13F02950D96EDA6A18
:10276A00DF2A010E316EFCEF13F02950D96EDA6AB6
:10277A00DFCFF6FF100EF76E0800F5506C0AD8A4EA
:10278A00C9EF13F0CBEF13F0FCEF13F02950D96E19
:10279A00DA6ADF502B6E010E2B262BC0F6FF100EC5
:1027AA00F76E0800F5506C0AD8A4DEEF13F0E0EFDC
:1027BA0013F0FCEF13F02950D96EDA6ADF502B6E52
:1027CA00020E2B262BC0F6FF100EF76E0800F550EE
:1027DA00730AD8A4F3EF13F0F5EF13F0FCEF13F03C
:1027EA002950D96EDA6A030EDF26B6EF13F031509C
:1027FA00D8B402EF14F004EF14F018EF14F027C065
:10280A000BF028C00CF02A50D96EDA6A020EDF26C5
:10281A00DF5CD96EDA6ADECF0DF0DECF0EF014EC93
:10282A001AF031EF14F02950D96EDA6ADF2A31EF43
:10283A0014F02950D96EDA6ADFCFF6FF100EF76E60
:10284A000800F550026E036A27C004F028C005F09C
:10285A003EEC1DF018EF14F01200948092889286D4
:10286A0092840F013897389593969496949AC65005
:10287A00F00B0209C66EC698C78CC68A3981C09EFB
:10288A00C050F80B0609C06EC050C70B3009C06EA5
:10289A00C280330EAF6EAB8EAC98AC8AAB888A8698
:1028AA00C250830B3009C26E010E0001BD6F010ECA
:1028BA00BC6F000EBE6F4BEF15F07F0EBE6168EF66
:1028CA0014F06AEF14F06DEF14F0BE5177EC1FF0BC
:1028DA007E0E0001BE6574EF14F076EF14F00AEF75
:1028EA0015F0BE51FF0A77EC1FF00AEF15F0000E43
:1028FA002C6E000E2D6E7F0E2E6E430E2F6EC30EA3
:10290A00136EF50E146EC80E156E400E166EBE517D
:10291A00016E026A036A046A010E79EC18F001C0BA
:10292A000FF002C010F003C011F004C012F042EC24
:10293A000DF00FC028F010C029F011C02AF012C003
:10294A002BF038EC11F028C0B4F029C0B5F02AC039
:10295A00B6F02BC0B7F0B4C09AF0B5C09BF0B6C0C1
:10296A009CF0B7C09DF05DEC08F09AC0B8F09BC02F
:10297A00B9F09CC0BAF09DC0BBF0000E456E000EC7
:10298A00466EFE0E476E420E486E000E136E000E25
:10299A00146EFE0E156E420E166EB8C00FF0B9C058
:1029AA0010F0BAC011F0BBC012F042EC0DF00FC02B
:1029BA0041F010C042F011C043F012C044F0E2EC02
:1029CA000AF041C051F042C052F043C053F044C033
:1029DA0054F076EC1BF0515077EC1FF00AEF15F02B
:1029EA00BE51FF0A77EC1FF00AEF15F0BD51010A3C
:1029FA00D8B462EF14F0030AD8B47CEF14F0010AD9
:102A0A00D8B4F5EF14F00AEF15F0C282C2B210EF93
:102A1A0015F012EF15F00BEF15F0A70E376EC4CFB5
:102A2A0038F0396A53EC20F082A01EEF15F020EF3F
:102A3A0015F023EF15F0010E0001BD6F80A828EFF5
:102A4A0015F02AEF15F02DEF15F0020E0001BD6FFB
:102A5A0080A632EF15F034EF15F037EF15F0030EBC
:102A6A000001BD6F80A43CEF15F03EEF15F041EF79
:102A7A0015F0000E0001BC6F0001BE2B680E5D6EE2
:102A8A00E40EE82EFED75D2EFCD700D00001BC5123
:102A9A00D8A452EF15F054EF15F0FBEF14F0120022
:102AAA0051C00FF052C010F053C011F054C012F0D0
:102ABA0051C013F052C014F053C015F054C016F0B0
:102ACA0042EC0DF00FC078F010C079F011C07AF026
:102ADA0012C07BF078C00FF079C010F07AC011F004
:102AEA007BC012F078C013F079C014F07AC015F0E8
:102AFA007BC016F042EC0DF00FC064F010C065F018
:102B0A0011C066F012C067F03C0E136E6C0E146EA4
:102B1A00360E156E360E166E78C00FF079C010F0AC
:102B2A007AC011F07BC012F042EC0DF00FC041F0F8
:102B3A0010C042F011C043F012C044F0CF0E456EEF
:102B4A00070E466E500E476EB90E486EE2EC0AF05A
:102B5A0041C060F042C061F043C062F044C063F01B
:102B6A0078C00FF079C010F07AC011F07BC012F073
:102B7A0051C013F052C014F053C015F054C016F0EF
:102B8A0042EC0DF00FC074F010C075F011C076F071
:102B9A0012C077F0AB0E456EAA0E466E2A0E476E2D
:102BAA00BE0E486E840E136E880E146E080E156ED5
:102BBA003C0E166E78C00FF079C010F07AC011F092
:102BCA007BC012F042EC0DF00FC041F010C042F091
:102BDA0011C043F012C044F0E2EC0AF041C068F0C0
:102BEA0042C069F043C06AF044C06BF064C013F09D
:102BFA0065C014F066C015F067C016F074C00FF017
:102C0A0075C010F076C011F077C012F042EC0DF0EA
:102C1A000FC06CF010C06DF011C06EF012C06FF0F2
:102C2A0051C045F052C046F053C047F054C048F076
:102C3A0074C013F075C014F076C015F077C016F0A2
:102C4A0068C00FF069C010F06AC011F06BC012F0D2
:102C5A0042EC0DF00FC041F010C042F011C043F039
:102C6A0012C044F0E2EC0AF041C070F042C071F0C8
:102C7A0043C072F044C073F070C041F071C042F0BA
:102C8A0072C043F073C044F060C013F061C014F026
:102C9A0062C015F063C016F06CC00FF06DC010F082
:102CAA006EC011F06FC012F042EC0DF00FC045F08B
:102CBA0010C046F011C047F012C048F0E2EC0AF02A
:102CCA0041C051F042C052F043C053F044C054F0E6
:102CDA00120094809288928692840F0138973895D0
:102CEA009594959694989598959A959C8C848C86AB
:102CFA008B888C888C8A8C8C6FEC1CF0000E0001FF
:102D0A00C06F000EBF6F410E026E0250D8A4100EA3
:102D1A00036E010E9BEC1DF0520E026E0250D8A4F7
:102D2A00100E036E020E9BEC1DF07A0E5F6EC10E42
:102D3A005E6E820EE82EFED75E2EFCD75F2EFAD785
:102D4A00000E4A6E0001C051F9EC1BF00001C06F81
:102D5A0082A0B2EF16F0B4EF16F0D6EF16F0030E1B
:102D6A005F6E080E5E6E770EE82EFED75E2EFCD7DB
:102D7A005F2EFAD7000082A0C5EF16F0C7EF16F053
:102D8A00D6EF16F082B0CCEF16F0CEEF16F0C7EF02
:102D9A0016F0020E4A6E0001C051F9EC1BF0000158
:102DAA00C06F80A8DBEF16F0DDEF16F0FFEF16F02C
:102DBA00030E5F6E080E5E6E770EE82EFED75E2E4D
:102DCA00FCD75F2EFAD7000080A8EEEF16F0F0EFDE
:102DDA0016F0FFEF16F080B8F5EF16F0F7EF16F0E1
:102DEA00F0EF16F0010E4A6E0001C051F9EC1BF02B
:102DFA000001C06F80A604EF17F006EF17F063EF2B
:102E0A0017F0030E5F6E080E5E6E770EE82EFED781
:102E1A005E2EFCD75F2EFAD7000080A617EF17F0B8
:102E2A0019EF17F063EF17F080B61EEF17F020EFD7
:102E3A0017F019EF17F03FEF17F053EC19F063EFA3
:102E4A0017F0630E026E0250D8A4100E036E010E24
:102E5A009BEC1DF0740E026E0250D8A4100E036E85
:102E6A00020E9BEC1DF032EC14F0010E0001BF6F54
:102E7A0063EF17F00001C051000AD8B422EF17F02F
:102E8A00010AD8B463EF17F0030AD8B463EF17F056
:102E9A00010AD8B463EF17F0070AD8B426EF17F07F
:102EAA00010AD8B463EF17F0030AD8B463EF17F036
:102EBA00010AD8B463EF17F063EF17F080500001EE
:102ECA00BF51D8B46BEF17F06DEF17F0ADEF16F0F6
:102EDA00000E4A6EC051F9EC1BF00001C06F000EE3
:102EEA00BF6FADEF16F000EF00F051C00FF052C007
:102EFA0010F053C011F054C012F051C013F052C078
:102F0A0014F053C015F054C016F042EC0DF00FC087
:102F1A0074F010C075F011C076F012C077F074C06A
:102F2A000FF075C010F076C011F077C012F074C0BF
:102F3A0013F075C014F076C015F077C016F042ECA5
:102F4A000DF00FC070F010C071F011C072F012C015
:102F5A0073F0170E136E9A0E146ECC0E156E370E92
:102F6A00166E74C00FF075C010F076C011F077C0FD
:102F7A0012F042EC0DF00FC041F010C042F011C047
:102F8A0043F012C044F03F0E456E040E466EB60E74
:102F9A00476EBA0E486EE2EC0AF041C060F042C0D9
:102FAA0061F043C062F044C063F0000E456E000E4B
:102FBA00466E800E476E3F0E486E000E136E000E70
:102FCA00146E000E156EBF0E166E74C00FF075C02B
:102FDA0010F076C011F077C012F042EC0DF00FC07D
:102FEA0041F010C042F011C043F012C044F0E2ECCC
:102FFA000AF041C064F042C065F043C066F044C0C4
:10300A0067F074C013F075C014F076C015F077C07D
:10301A0016F070C00FF071C010F072C011F073C0DA
:10302A0012F042EC0DF00FC068F010C069F011C048
:10303A006AF012C06BF09F0E136EAA0E146E2A0E5F
:10304A00156E3D0E166E70C00FF071C010F072C092
:10305A0011F073C012F042EC0DF00FC045F010C031
:10306A0046F011C047F012C048F064C041F065C094
:10307A0042F066C043F067C044F0E2EC0AF041C097
:10308A006CF042C06DF043C06EF044C06FF06CC08B
:10309A0041F06DC042F06EC043F06FC044F060C0B2
:1030AA0013F061C014F062C015F063C016F068C076
:1030BA000FF069C010F06AC011F06BC012F042EC58
:1030CA000DF00FC045F010C046F011C047F012C015
:1030DA0048F0E2EC0AF041C051F042C052F043C05D
:1030EA0053F044C054F01200096E0950D8B480EF6E
:1030FA0018F082EF18F0A4EF18F004BE89EF18F068
:10310A0087EF18F0A4EF18F001C005F002C006F02E
:10311A0003C007F004C008F0051E061E071E081E9D
:10312A00052A000E06220722082205C00BF006C057
:10313A000CF007C00DF008C00EF0ACEF18F001C09B
:10314A000BF002C00CF003C00DF004C00EF00150E9
:10315A00021003100410D8A4B5EF18F0B7EF18F056
:10316A00C1EF18F0000E016E000E026E000E036E23
:10317A00000E046E52EF19F0960E0A6ECBEF18F09D
:10318A000A2AD8900E320D320C320B32000E0B1472
:10319A00056E000E0C14066E000E0D14076EFE0E60
:1031AA000E14086E0550061007100810D8A4E0EF98
:1031BA0018F0E2EF18F0C5EF18F0F0EF18F00A2A4D
:1031CA00010E0B26000E0C220D220E22D8900E3272
:1031DA000D320C320B32000E0B14056E000E0C145D
:1031EA00066E000E0D14076EFF0E0E14086E0550C3
:1031FA00061007100810D8A405EF19F007EF19F008
:10320A00E4EF18F00FEF19F00A06D8900B360C36D7
:10321A000D360E360DBE14EF19F016EF19F01EEF2B
:10322A0019F0020E0A601CEF19F01EEF19F009EFEF
:10323A0019F00AB023EF19F025EF19F026EF19F06B
:10324A000D9ED8900A320AC005F0066A076A086A13
:10325A0005C008F0076A066A056A05500B1206508F
:10326A000C1207500D1208500E120950D8B440EF34
:10327A0019F042EF19F04AEF19F004BE49EF19F0BC
:10328A0047EF19F04AEF19F00E8E0BC001F00CC08F
:10329A0002F00DC003F00EC004F01200959495964A
:1032AA0094989598959A959C8C848C868B888C8812
:1032BA008C8A8C8C92840F013895010E1F6E000E39
:1032CA001C6E20EECDF010EE10F00B0EDBCFE3FFFC
:1032DA00E806FCE205EF1AF020EEC1F010EE04F069
:1032EA000B0EDBCFE3FFE806FCE2000E1E6E0C0EAF
:1032FA001D6E000E216E000E206ED3EF19F0000E27
:10330A00236E000E226E2250020DF350100FD96E5A
:10331A00DA6A02D8B5EF19F00500FA6EDE50FD6ED2
:10332A00DE50FE6EF850FF6EFA5022500508026E0B
:10333A002050040FD96EDA6ADF50036E022AA8EF12
:10334A0019F0D8900332022EA6EF19F003A0B0EFBD
:10335A0019F0B3EF19F0010EB4EF19F0000E1200D4
:10336A00224A232A23BEC3EF19F0235009E1060E8D
:10337A00225CD8A0C3EF19F0C5EF19F088EF19F055
:10338A00150E036E4B0E026EBE0EE82EFED7022EEF
:10339A00FCD7032EFAD700D0204A212A1D50205CE0
:1033AA002150800A026E1E50800A0258D8A0E0EF0F
:1033BA0019F0E2EF19F084EF19F080A4E7EF19F0A1
:1033CA00E9EF19F005EF1AF0030E036E080E026E0C
:1033DA00770EE82EFED7022EFCD7032EFAD700006E
:1033EA0080A4FAEF19F0FCEF19F005EF1AF080B497
:1033FA0001EF1AF003EF1AF0FCEF19F0000E1F6E3E
:10340A001F50D8A40BEF1AF00DEF1AF071EF19F054
:10341A008C848C868B888C888C8A8C8C12000DC04C
:10342A0015F00EC016F015501610D8A41FEF1AF09A
:10343A0021EF1AF027EF1AF0850E156E1550D8A451
:10344A00100E166E000E186E000E176E2FEF1AF081
:10345A00174A182A175015240F6E18501620106E86
:10346A000FC0F6FF10C0F7FF000EF86E0F0EF764DC
:10347A0003D00800F55005D0F6CFE1FFF7CFE2FF01
:10348A00E7500009D8A44CEF1AF04EEF1AF02DEFCE
:10349A001AF017C011F018C012F0E9C013F0EAC010
:1034AA0014F00001EDB15CEF1AF05EEF1AF09AEF3A
:1034BA001AF06CEF1AF0000E036E200E026E0BC0AB
:1034CA0004F00CC005F03EEC1DF0174A182A135000
:1034DA00175C1850800A0F6E1450800A0F58D8A033
:1034EA0079EF1AF07BEF1AF060EF1AF09AEF1AF000
:1034FA0015C0F6FF16C0F7FF000EF86E0F0EF76440
:10350A0003D00800F55005D0F6CFE1FFF7CFE2FF70
:10351A00E7500F6E0F50026E036A0BC004F00CC026
:10352A0005F03EEC1DF0154A162A1106D8A012061F
:10353A00112806E11228D8A4A5EF1AF0A7EF1AF06D
:10354A007DEF1AF00001EDA1ADEF1AF0AFEF1AF01E
:10355A00CCEF1AF0BDEF1AF0000E036E200E026EC9
:10356A000BC004F00CC005F03EEC1DF0174A182AF7
:10357A001350175C1850800A0F6E1450800A0F58A7
:10358A00D8A0CAEF1AF0CCEF1AF0B1EF1AF0120075
:10359A00010E216E1EBED4EF1AF0D7EF1AF0010EFB
:1035AA00D8EF1AF0000E246EE9C022F0EAC023F028
:1035BA002450D8B4E3EF1AF0E5EF1AF0FCEF1AF052
:1035CA002206D8A023062450D8A4EEEF1AF0F0EF72
:1035DA001AF0F6EF1AF0000E206E2B0E1F6EFAEF9D
:1035EA001AF0000E206E2D0E1F6E1FC024F0000E62
:1035FA00266E1F0E256E000E01011F6F34EF1BF0A1
:10360A002506D8A02606000E2524D96E010E2620EE
:10361A00DA6E1DC001F01EC002F0000E046E0A0E22
:10362A00036EF4EC1DF001C007F002C008F003ECD1
:10363A0020F00750300FDF6E000E216E2206D8A050
:10364A0023061DC001F01EC002F0000E046E0A0E11
:10365A00036EDCEC1CF001C01DF002C01EF026BE99
:10366A003FEF1BF0265008E12504D8A03FEF1BF0DE
:10367A0041EF1BF052EF1BF01D501E10D8A448EF6B
:10368A001BF04AEF1BF005EF1BF02150D8A450EFB6
:10369A001BF052EF1BF005EF1BF02450D8B458EF83
:1036AA001BF05AEF1BF065EF1BF02506D8A0260683
:1036BA00000E2524D96E010E2620DA6E24C0DFFF03
:1036CA001BC012F01CC013F0000E2524146E010E4C
:1036DA002620156E22C016F023C017F09FEC1EF0AC
:1036EA001200533454345A6E5A50D8A47FEF1BF048
:1036FA0081EF1BF08BEF1BF0000E516E000E526E25
:10370A00000E536E000E546EF8EF1BF051C055F0C8
:10371A0052C056F053C057F054C058F0200E9BEFD9
:10372A001BF0D8905832573256325532E82E96EF5F
:10373A001BF05550596E538EFF0E5116FF0E52163E
:10374A00FF0E5316000E5416960E5A5E5ABEB2EF6C
:10375A001BF0B0EF1BF0C8EF1BF05A50800A970F0E
:10376A00D8B0BAEF1BF0BCEF1BF0BEEF1BF081EF35
:10377A001BF0D89054325332523251325A3EBEEF75
:10378A001BF0E0EF1BF01F0E5A64CEEF1BF0D0EFD8
:10379A001BF0D8EF1BF081EF1BF0D8905136523650
:1037AA00533654365A065A50D8A4DEEF1BF0E0EFCF
:1037BA001BF0D2EF1BF05950D8B4E6EF1BF0E8EF3C
:1037CA001BF0F0EF1BF0541E531E521E516C000EDC
:1037DA0052225322542251C051F052C052F053C0C7
:1037EA0053F054C054F0120000018A6FCEEC1FF05F
:1037FA0020EED9F010EE82F0070EDBCFE3FFE806E9
:10380A00FCE220EF1CF0060E00018A610FEF1CF0AB
:10381A0011EF1CF02FEF1CF08A2B2FEF1CF0000188
:10382A008A51D8B41BEF1CF01DEF1CF02FEF1CF0CF
:10383A008A072FEF1CF04A50000AD8B42FEF1CF069
:10384A00010AD8B408EF1CF0030AD8B414EF1CF02C
:10385A002FEF1CF0600E376E920E386E000E3A6E25
:10386A000F0E396E00018A51820FD96EDA6ADF5063
:10387A004B6E4BC03BF03B50D8A4100E3C6EB3ECE1
:10388A001FF0710E376E930E386E000E3A6E100EE0
:10389A00396E8AC04BF0010E4B264B50820FD96EFF
:1038AA00DA6ADF504C6E4CC03BF03B50D8A4100E85
:1038BA003C6EB3EC1FF0600E026E036A010E9BECC5
:1038CA001DF0710E026E036A020E9BEC1DF00001E0
:1038DA008A5112000F013B913B93958095829290F9
:1038EA0089806C50F00B08096C6E130E6E6E6C8A30
:1038FA00340E026EF20EE82EFED7022EFCD76B8033
:10390A006BB08AEF1CF08CEF1CF085EF1CF0A49EC4
:10391A007C0E30EC20F0800E30EC20F0380E30ECCB
:10392A0020F0800E30EC20F0390E30EC20F0800EC2
:10393A0030EC20F0170E30EC20F0800E30EC20F046
:10394A007A0E30EC20F0800E30EC20F05E0E30EC77
:10395A0020F0800E30EC20F06B0E30EC20F0800E60
:10396A0030EC20F00C0E30EC20F0800E30EC20F021
:10397A00010E30EC20F0800E30EC20F0060E30EC18
:10398A0020F0800E30EC20F0020E30EC20F06B8438
:10399A006BB4D2EF1CF0D4EF1CF0CDEF1CF0340E58
:1039AA00026EF20EE82EFED7022EFCD71200000E8F
:1039BA00066E04BEE5EF1CF0E3EF1CF0EBEF1CF023
:1039CA00036C041ED8B0042A010E066E02BEF2EF82
:1039DA001CF0F0EF1CF0F8EF1CF0016C021ED8B0DE
:1039EA00022A010E061A000E086E000E076E035018
:1039FA000410D8B403EF1DF005EF1DF02DEF1DF0F4
:103A0A00010E056E0DEF1DF0D89003360436052A17
:103A1A0004AE12EF1DF014EF1DF009EF1DF0D8905F
:103A2A00073608360350015C04500258D8A020EF2C
:103A3A001DF022EF1DF027EF1DF00350015E045028
:103A4A00025A0780D89004320332052E14EF1DF073
:103A5A000650D8B433EF1DF035EF1DF039EF1DF0E5
:103A6A00076C081ED8B0082A07C001F008C002F087
:103A7A00120004500510D8B445EF1DF047EF1DF0B1
:103A8A0050EF1DF004500510D8A44EEF1DF050EF72
:103A9A001DF055EF1DF0025060EC20F09AEF1DF07A
:103AAA0020EE0AF00450D9260550DA22DE50DE1044
:103ABA00D8B462EF1DF064EF1DF07FEF1DF020EE29
:103ACA000AF00450D9260550DA2210EE03F0045009
:103ADA00E1260550E222DE50E65CE650800A0A6ED4
:103AEA00DE50800A0A58D8B07DEF1DF07FEF1DF036
:103AFA009AEF1DF020EE03F00450D9260550DA2281
:103B0A00DF50066E04C0D9FF05C0DAFFDF50062475
:103B1A00D96EDA6A02C0DFFF20EE03F00450D9261C
:103B2A000550DA22DE2A000EDD221200066E6B80B4
:103B3A006BB0A2EF1DF0A4EF1DF09DEF1DF0A49E47
:103B4A007C0E30EC20F0800E30EC20F00604D8A475
:103B5A00B1EF1DF0B3EF1DF0B8EF1DF0800E30ECA1
:103B6A0020F0C4EF1DF0020E0618D8A4BFEF1DF016
:103B7A00C1EF1DF0C4EF1DF0C00E30EC20F0400E76
:103B8A0030EC20F0000E076E07500224046E000E7F
:103B9A000320056E04C0F6FF05C0F7FF000EF86E9D
:103BAA000F0EF76403D00800F55005D0F6CFE1FFF9
:103BBA00F7CFE2FFE75030EC20F0072A0F0E076438
:103BCA00E9EF1DF0EBEF1DF0C9EF1DF06B846BB44C
:103BDA00F1EF1DF0F3EF1DF0ECEF1DF01200000EF7
:103BEA00066E02BEFDEF1DF0FBEF1DF003EF1EF0A7
:103BFA00016C021ED8B0022A010E066E04BE0AEF3C
:103C0A001EF008EF1EF00EEF1EF0036C041ED8B073
:103C1A00042A03500410D8B415EF1EF017EF1EF053
:103C2A003BEF1EF0010E056E1FEF1EF0D890033613
:103C3A000436052A04AE24EF1EF026EF1EF01BEF11
:103C4A001EF00350015C04500258D8A02FEF1EF05A
:103C5A0031EF1EF035EF1EF00350015E0450025A98
:103C6A00D89004320332052E26EF1EF00650D8B43F
:103C7A0041EF1EF043EF1EF047EF1EF0016C021EEB
:103C8A00D8B0022A01C001F002C002F01200000EF0
:103C9A000B6E000E0A6E0750D96EDA6ADFCFF6FF96
:103CAA00100EF76E0800F5502A0AD8A45FEF1EF02E
:103CBA0061EF1EF087EF1EF00750D96EDA6ADF2A2D
:103CCA000850D96EDA6A020EDF26DF5CD96EDA6A2C
:103CDA00DECF0AF0DECF0BF09AEF1EF00AC001F039
:103CEA000BC002F0000E046E0A0E036E1DEC20F0EB
:103CFA00095001240A6E000E02200B6E0750D96E7D
:103D0A00DA6ADF2A0750D96EDA6ADFCFF6FF100EB9
:103D1A00F76E0800F550D00F096E090E096498EF86
:103D2A001EF09AEF1EF073EF1EF00AC007F00BC0E8
:103D3A0008F012000001EDA1A5EF1EF0A7EF1EF09A
:103D4A00B1EF1EF014C00BF015C00CF012C00DF04C
:103D5A0013C00EF013EC1FF017BEB8EF1EF0B6EF4B
:103D6A001EF0BCEF1EF0000E176E000E166E000E4F
:103D7A001A6E000E196ECEEF1EF0000E036E200EA4
:103D8A00026E12C004F013C005F03EEC1DF0194A91
:103D9A001A2A1650195C1A50800A186E1750800A8F
:103DAA001858D8A0DBEF1EF0DDEF1EF0C2EF1EF0B0
:103DBA000001EDB1E3EF1EF0E5EF1EF0EFEF1EF0AC
:103DCA0014C00BF015C00CF012C00DF013C00EF0A9
:103DDA0013EC1FF01200000E551A000E561A000EB0
:103DEA00571A800E581A51C041F052C042F053C0BF
:103DFA0043F054C044F055C045F056C046F057C091
:103E0A0047F058C048F0E2EC0AF041C051F042C015
:103E1A0052F043C053F044C054F01200000E116E29
:103E2A00000E106E24EF1FF00FC002F0036A0DC0DF
:103E3A0004F00EC005F03EEC1DF0104A112A105095
:103E4A000B24D96E11500C20DA6EDF500F6E0F5012
:103E5A00D8A432EF1FF034EF1FF019EF1FF0120051
:103E6A00860EF66E400EF76E000EF86E00EEC1F08A
:103E7A0010EE20F00900F5CFEEFFE550E150FAE12F
:103E8A0001EE00F0200EEE6AE806FDE100EEE1F038
:103E9A000D0EEE6AE806FDE1000EF86E00016EEF07
:103EAA0016F034C036F064EF1FF032C027F033C08A
:103EBA0028F0360E296E35C02AF005EC13F036C00C
:103ECA00F6FF100EF76E0800F5500009D8A470EF3F
:103EDA001FF072EF1FF05AEF1FF0000E336E000E44
:103EEA00326E1200036E03380F0B3009016E03386D
:103EFA00F00B026E8A9601C0C9FF9EA687EF1FF0DB
:103F0A0089EF1FF082EF1FF09E9602C0C9FF9EA69E
:103F1A0091EF1FF093EF1FF08CEF1FF09E968A86A9
:103F2A0012000001785179117A117B11D8B4A0EFEF
:103F3A001FF0A2EF1FF0AAEF1FF0000E781B000E71
:103F4A00791B000E7A1B800E7B1B78C078F079C033
:103F5A0079F07AC07AF07BC07BF01200390E3D6EA0
:103F6A0037C03EF0000E426E000E416E000E496EE2
:103F7A00000E486E3E0E326E336A38C034F03D0E83
:103F8A00356E56EC1FF037504124D96EDA6ADF6A73
:103F9A0012006B806BB0D4EF1FF0D6EF1FF0CFEF9B
:103FAA001FF0A49E7C0E30EC20F0800E30EC20F046
:103FBA00010E30EC20F06B846BB4E6EF1FF0E8EFF3
:103FCA001FF0E1EF1FF01200E1C005F0E2C006F0B9
:103FDA00E3C007F0E4C008F001C005F002C006F033
:103FEA0003C007F004C008F0089E05C001F006C02F
:103FFA0002F007C003F008C004F0120008BE08EF80
:10400A0020F00AEF20F010EF20F007C007F008C0F8
:10401A0008F01CEF20F007C009F008C00AF0091EDA
:10402A000A1E094A0A2A09C007F00AC008F0120043
:10403A0001500302F3CF05F0F4CF06F00150040259
:10404A00F350062602500302F350062605C001F07B
:10405A0006C002F01200016E01C06FFF6DB038EFAA
:10406A0020F03AEF20F033EF20F0A4AE3FEF20F03B
:10407A0041EF20F03AEF20F0A49E12002030180CF5
:10408A0006030103060C18300E410041F240E440D9
:10409A00D6401C419DA2B4B0AC988CAB380E3A6E97
:1040AA00000E326E000E336E37C034F03A0E356EA3
:1040BA0056EC1FF01200016E9EA866EF20F068EF22
:1040CA0020F061EF20F001C0ADFF1200016E01B0D7
:1040DA0002D08C9A01D08C8A1200016E01B002D0F3
:1040EA008C9801D08C881200016E01B002D08B9896
:1040FA0001D08B881200016E01B002D08C9601D0DB
:10410A008C861200016E01B002D08C9401D08C848E
:10411A001200016E01B002D08C9C01D08C8C12006E
:020000040030CA
:04000000FF331F3C6F
:00000001FF
