:040000008AEF00F093
:100008005A82D9CF03F0DACF04F09DA00EEF00F0AA
:1000180010EF00F049EF00F09EA015EF00F017EF89
:1000280000F049EF00F001012451D8B41EEF00F0B0
:1000380020EF00F049EF00F080A425EF00F027EF53
:1000480000F044EF00F0030E026E080E016E770E0A
:10005800E82EFED7012EFCD7022EFAD7000080A486
:1000680038EF00F03AEF00F044EF00F080B43FEFD3
:1000780000F041EF00F03AEF00F0000E0001FE6FD3
:100088009E0ECF6E580ECE6E9E909DAA4EEF00F03B
:1000980050EF00F084EF00F09EAA55EF00F057EF04
:1000A80000F084EF00F001012351D8B45EEF00F0B6
:1000B80060EF00F084EF00F0AECF05F00A0E0518EF
:1000C800D8B469EF00F06BEF00F077EF00F0750E31
:1000D8002125D96E010E2221DA6E05C0DFFF214BE2
:1000E800222B84EF00F0010E946F750E2125D96E36
:1000F800010E2221DA6EDF6A000E226F000E216FD8
:1001080004C0DAFF03C0D9FF5A9211000EEF23F0A2
:10011800000E0001AE6F86C0AFF087C0B0F088C097
:10012800B1F089C0B2F0B2BF9EEF00F09CEF00F0D2
:10013800B2EF00F0010EAE6FAFC080F0B0C081F03A
:10014800B1C082F0B2C083F0BAEC23F080C0AFF047
:1001580081C0B0F082C0B1F083C0B2F0000E0001DF
:10016800B46F000EB36F55C09EF056C09FF0AE51ED
:10017800D8B4C1EF00F0C3EF00F0D7EF00F0AE51F4
:10018800D8A4C9EF00F0CBEF00F0D1EF00F0000EDB
:10019800946F2B0E936FD5EF00F0000E946F2D0E19
:1001A800936F93C0AEF0AFC006F0B0C007F0B1C017
:1001B80008F0B2C009F037EC1FF006040710D8A405
:1001C800E8EF00F0EAEF00F01DEF01F00001AE519A
:1001D800D8B4F1EF00F0F3EF00F0FCEF00F0AEC0A0
:1001E80025F19E07D8A09F07000EB46F010EB36FCC
:1001F800250EB325066E010EB421076EEA0E086EB1
:10020800FF0E096ED7EC23F00001FD0E9E27FF0EAE
:100218009F2384C017F085C018F0250E196E010EB3
:100228001A6E9EC01BF09FC01CF047EC22F088EFAE
:1002380005F0AFC006F0B0C007F0B1C008F0B2C01A
:1002480009F037EC1FF006500710D8A42EEF01F084
:1002580030EF01F050EF01F00001AE51D8B437EFA4
:1002680001F039EF01F042EF01F0AEC025F19E0731
:10027800D8A09F07000EB46F010EB36F250EB325EB
:10028800066E010EB421076EEE0E086EFF0E096EA3
:10029800D7EC23F008EF01F0000E0001B56F000E57
:1002A800B66F800EB76F3F0EB86F000E9D6F000ED1
:1002B8009C6FAFC006F0B0C007F0B1C008F0B2C084
:1002C80009F0000E0A6E000E0B6E000E0C6E000E8A
:1002D8000D6EF2EC21F0D8B074EF01F076EF01F07A
:1002E80055EF02F083EF01F0A0C0B5F0A1C0B6F061
:1002F800A2C0B7F0A3C0B8F000019C4B9D2BB5C0BD
:1003080014F0B6C015F0B7C016F0B8C017F0000E5C
:10031800186E000E196E200E1A6E410E1B6E6FECD1
:100328000AF014C0A0F015C0A1F016C0A2F017C0C2
:10033800A3F00001A051AF5D066EA151B059076E40
:10034800A251B159086EA351B259096E96EC22F028
:1003580009BEBAEF01F009500810071009E1020EB2
:10036800065CD8A0BAEF01F0BCEF01F078EF01F01D
:10037800A0C02DF0A1C02EF0A2C02FF0A3C030F075
:10038800AFC031F0B0C032F0B1C033F0B2C034F019
:10039800B5EC1EF0D8A0D3EF01F0D5EF01F078EF5F
:1003A80001F00001B551AF5D066EB651B059076E48
:1003B800B751B159086EB851B259096E96EC22F08E
:1003C80009BEF4EF01F009500810071007E1020E0A
:1003D800065CD8B0F2EF01F0F4EF01F03CEF02F068
:1003E800B5C0AFF0B6C0B0F0B7C0B1F0B8C0B2F0A9
:1003F80055EF02F0B5C02DF0B6C02EF0B7C02FF003
:10040800B8C030F0000E316E000E326E200E336E22
:10041800410E346E70EC10F02DC0B5F02EC0B6F061
:100428002FC0B7F030C0B8F000019C07D8A09D07D6
:10043800B551AF5D066EB651B059076EB751B15997
:10044800086EB851B259096E96EC22F009BE3AEF1F
:1004580002F009500810071007E1020E065CD8B038
:1004680038EF02F03AEF02F03CEF02F0F4EF01F05F
:10047800AFC02DF0B0C02EF0B1C02FF0B2C030F038
:10048800B5C031F0B6C032F0B7C033F0B8C034F000
:10049800B5EC1EF0D8A053EF02F055EF02F0FEEFD6
:1004A80001F08AC096F096C097F058BE5EEF02F051
:1004B80060EF02F066EF02F057C08FF058C090F07E
:1004C8006BEF02F0000E0001906F060E8F6F8FC069
:1004D8009AF090C09BF000019A4B9B2B660E9719DF
:1004E800D8A479EF02F07BEF02F09BEF02F09DBFFA
:1004F80082EF02F080EF02F08EEF02F0000EB56F8F
:10050800000EB66F800EB76F3F0EB86F000E9D6F6E
:10051800000E9C6F670E9619D8B495EF02F097EF0E
:1005280002F09BEF02F09C519A279D519B23000EED
:10053800A56F000EA46FAFC0A6F0B0C0A7F0B1C001
:10054800A8F0B2C0A9F0B5C0A0F0B6C0A1F0B7C07D
:10055800A2F0B8C0A3F02CEF03F0A6C02DF0A7C0FE
:100568002EF0A8C02FF0A9C030F0B5C031F0B6C049
:1005780032F0B7C033F0B8C034F070EC10F02DC0D2
:1005880046F02EC047F02FC048F030C049F01DECAF
:1005980016F046C0AAF047C0ABF048C0ACF049C05E
:1005A800ADF0AAC064F0ABC065F0ACC066F0ADC0F9
:1005B80067F031EC1EF064C098F065C099F0A6C0F1
:1005C80064F0A7C065F0A8C066F0A9C067F0AAC02B
:1005D80018F0ABC019F0ACC01AF0ADC01BF0B5C034
:1005E80014F0B6C015F0B7C016F0B8C017F06FEC2D
:1005F8000AF014C068F015C069F016C06AF017C098
:100608006BF032EC23F064C0A6F065C0A7F066C0BA
:10061800A8F067C0A9F0B5C02DF0B6C02EF0B7C0DD
:100628002FF0B8C030F0000E316E000E326E200E82
:10063800336E410E346E70EC10F02DC0B5F02EC044
:10064800B6F02FC0B7F030C0B8F00001A44BA52B0E
:100658009A51A45DA551800A8B6F9B51800A8B59D2
:10066800D8A039EF03F03BEF03F0B1EF02F0B5C0CB
:1006780014F0B6C015F0B7C016F0B8C017F0000EE9
:10068800186E000E196EA00E1A6E400E1B6E6FECDF
:100698000AF014C0AAF015C0ABF016C0ACF017C031
:1006A800ADF0A6C02DF0A7C02EF0A8C02FF0A9C0AD
:1006B80030F0AAC031F0ABC032F0ACC033F0ADC0FE
:1006C80034F0B5EC1EF0D8B06CEF03F06EEF03F029
:1006D80079EF03F0000E0001AA6F000EAB6F000E59
:1006E800AC6F000EAD6FA2EF03F0A6C006F0A7C076
:1006F80007F0A8C008F0A9C009F0AAC00AF0ABC06A
:100708000BF0ACC00CF0ADC00DF0F2EC21F0D8A0AD
:1007180090EF03F092EF03F0A2EF03F0000198B11D
:1007280098EF03F09AEF03F0A2EF03F0000EAA6F20
:10073800000EAB6F000EAC6F000EAD6FAFC046F091
:10074800B0C047F0B1C048F0B2C049F0AAC04AF002
:10075800ABC04BF0ACC04CF0ADC04DF00EEC08F0A7
:1007680046C0A6F047C0A7F048C0A8F049C0A9F005
:10077800A6C02DF0A7C02EF0A8C02FF0A9C030F059
:10078800000E186E000E196E200E1A6E410E1B6EAA
:10079800A0C014F0A1C015F0A2C016F0A3C017F0B5
:1007A8006FEC0AF014C031F015C032F016C033F007
:1007B80017C034F0B5EC1EF0D8A0E5EF03F0E7EF72
:1007C80003F010EF04F000019C4B9D2BA0C014F027
:1007D800A1C015F0A2C016F0A3C017F0000E186E45
:1007E800000E196E200E1A6E410E1B6E6FEC0AF089
:1007F80014C0A0F015C0A1F016C0A2F017C0A3F055
:10080800660E00019719D8A40CEF04F00EEF04F05F
:1008180010EF04F09A4B9B2BA0C0B5F0A1C0B6F026
:10082800A2C0B7F0A3C0B8F09CC08DF09DC08EF0F8
:10083800000E0001956F000E926F000E916F000E72
:10084800A56F000EA46F0EEF05F0A6C02DF0A7C08F
:100858002EF0A8C02FF0A9C030F0B5C031F0B6C056
:1008680032F0B7C033F0B8C034F070EC10F02DC0DF
:1008780046F02EC047F02FC048F030C049F01DECBC
:1008880016F046C0AAF047C0ABF048C0ACF049C06B
:10089800ADF0AAC064F0ABC065F0ACC066F0ADC006
:1008A80067F031EC1EF0000165BF66EF04F065519A
:1008B80007E10A0E645DD8B064EF04F066EF04F057
:1008C80076EF04F0AAC064F0ABC065F0ACC066F087
:1008D800ADC067F031EC1EF064C098F065C099F0C7
:1008E8007AEF04F0000E996F090E986F0001955188
:1008F800D8A481EF04F083EF04F0ABEF04F08EBFCF
:100908008AEF04F088EF04F0ABEF04F0250EB3256E
:10091800D96E010EB421DA6E2E0EDF6EB34BB42BF6
:100928009E07D8A09F07010E956FABEF04F0250E28
:10093800B325D96E010EB421DA6E300EDF6EB34BDB
:10094800B42B9E07D8A09F079107D8A09207915172
:100958009211D8A4B2EF04F0B4EF04F09BEF04F0C6
:10096800250EB325D96E010EB421DA6E9851300FD9
:10097800DF6EB34BB42B9E07D8A09F07A6C064F0C8
:10098800A7C065F0A8C066F0A9C067F0AAC018F0B3
:10099800ABC019F0ACC01AF0ADC01BF0B5C014F074
:1009A800B6C015F0B7C016F0B8C017F06FEC0AF073
:1009B80014C068F015C069F016C06AF017C06BF073
:1009C80032EC23F064C0A6F065C0A7F066C0A8F0BA
:1009D80067C0A9F0B5C02DF0B6C02EF0B7C02FF093
:1009E800B8C030F0000E316E000E326E200E336E3D
:1009F800410E346E70EC10F02DC0B5F02EC0B6F07C
:100A08002FC0B7F030C0B8F000018D07D8A08E070E
:100A1800A44BA52B9A51A45DA551800A8B6F9B51BD
:100A2800800A8B59D8B01BEF05F01DEF05F02BEFAE
:100A380005F0B4BF29EF05F0B45109E14B0EB35DE1
:100A4800D8A029EF05F02BEF05F029EF04F0000EF0
:100A5800A56F4F0EA46F250EA425D96E010EA521F2
:100A6800DA6EDF6A250E8B6F010E8C6FB3518B5FC8
:100A7800B4518C5BA4518B25066EA5518C21076E51
:100A8800250E086E010E096EB3C00AF0B4C00BF053
:100A9800C1EC22F00001B351A45DB36FB451A55964
:100AA800B46FAE51D8A45BEF05F05EEF05F0010E10
:100AB8005FEF05F0000EA46FA56BAE51D8B467EFD9
:100AC80005F069EF05F074EF05F0B307D8A0B40797
:100AD800250EB325D96E010EB421DA6EAEC0DFFF44
:100AE800A4519E5FA5519F5B84C017F085C018F084
:100AF800250EB325196E010EB4211A6E9EC01BF087
:100B08009FC01CF047EC22F01200A4C0BAF0A5C0A8
:100B1800BBF0A6C0BCF0A7C0BDF00001BDBF97EFF9
:100B280005F09AEF05F0010E9BEF05F0000EB16F8E
:100B3800BD9FDB0EBA5D0F0EBB59490EBC593F0E67
:100B4800BD59D8B0AAEF05F0ACEF05F0D5EF05F028
:100B5800800EBC5D390EBD59D8B0B5EF05F0B7EFC2
:100B680005F0C1EF05F0A4C0A4F0A5C0A5F0A6C08B
:100B7800A6F0A7C0A7F00DEF08F0A4C064F0A5C0C8
:100B880065F0A6C066F0A7C067F004EC15F064C075
:100B9800A4F065C0A5F066C0A6F067C0A7F00DEF89
:100BA80008F0D20EBA5D530EBB597B0EBC59400EED
:100BB800BD59D8B0E2EF05F0E4EF05F0C7EF06F055
:100BC800E40EBA5DCB0EBB59160EBC59400EBD598A
:100BD800D8B0F1EF05F0F3EF05F061EF06F0B15191
:100BE800D8B4F9EF05F0FBEF05F033EF06F0DB0EB4
:100BF8004A6E0F0E4B6EC90E4C6E3F0E4D6EA4C062
:100C080046F0A5C047F0A6C048F0A7C049F00EECD2
:100C180008F046C0B2F047C0B3F048C0B4F049C0CD
:100C2800B5F0B2C064F0B3C065F0B4C066F0B5C04A
:100C380067F031EC18F064C080F065C081F066C0E0
:100C480082F067C083F0BAEC23F080C0A4F081C0C2
:100C5800A5F082C0A6F083C0A7F00DEF08F0A4C0ED
:100C680046F0A5C047F0A6C048F0A7C049F0DB0E83
:100C78004A6E0F0E4B6EC90E4C6EBF0E4D6E0EECCB
:100C880008F046C0B2F047C0B3F048C0B4F049C05D
:100C9800B5F0B2C064F0B3C065F0B4C066F0B5C0DA
:100CA80067F031EC18F064C0A4F065C0A5F066C028
:100CB800A6F067C0A7F00DEF08F0B151D8A467EF10
:100CC80006F069EF06F08FEF06F0DB0E4A6E0F0EA6
:100CD8004B6E490E4C6EC00E4D6EA4C046F0A5C0BA
:100CE80047F0A6C048F0A7C049F00EEC08F046C08F
:100CF80080F047C081F048C082F049C083F0BAEC68
:100D080023F080C0A8F081C0A9F082C0AAF083C0F7
:100D1800ABF0B3EF06F0DB0E4A6E0F0E4B6E490ECA
:100D28004C6E400E4D6EA4C046F0A5C047F0A6C05C
:100D380048F0A7C049F00EEC08F046C080F047C064
:100D480081F048C082F049C083F0BAEC23F080C03B
:100D5800A8F081C0A9F082C0AAF083C0ABF0A8C0F7
:100D680064F0A9C065F0AAC066F0ABC067F004ECF7
:100D780015F064C0A4F065C0A5F066C0A6F067C011
:100D8800A7F00DEF08F0D60EBA5D310EBB59E20E92
:100D9800BC59400EBD59D8B0D4EF06F0D6EF06F0D6
:100DA80077EF07F0E00EBA5DED0EBB59AF0EBC59F8
:100DB800400EBD59D8B0E3EF06F0E5EF06F025EF99
:100DC80007F0B151D8B4EBEF06F0EDEF06F009EFFC
:100DD80007F0A4C046F0A5C047F0A6C048F0A7C0D9
:100DE80049F0E40E4A6ECB0E4B6E960E4C6E400EDA
:100DF8004D6E0EEC08F046C0B2F047C0B3F048C0E4
:100E0800B4F049C0B5F04DEF06F0E40E4A6ECB0ED3
:100E18004B6E960E4C6EC00E4D6EA4C046F0A5C02B
:100E280047F0A6C048F0A7C049F00EEC08F046C04D
:100E3800B2F047C0B3F048C0B4F049C0B5F015EF00
:100E480006F0B151D8A42BEF07F02DEF07F049EFCA
:100E580007F0A4C046F0A5C047F0A6C048F0A7C058
:100E680049F0DB0E4A6E0F0E4B6EC90E4C6EC00E6B
:100E78004D6E0EEC08F046C0ACF047C0ADF048C06F
:100E8800AEF049C0AFF063EF07F0A4C046F0A5C0CC
:100E980047F0A6C048F0A7C049F0DB0E4A6E0F0E17
:100EA8004B6EC90E4C6E400E4D6E0EEC08F046C0EF
:100EB800ACF047C0ADF048C0AEF049C0AFF0ACC030
:100EC80064F0ADC065F0AEC066F0AFC067F004EC8A
:100ED80015F064C0A4F065C0A5F066C0A6F067C0B0
:100EE800A7F00DEF08F0800EBC5D7F0EBD59D8A0AD
:100EF80080EF07F082EF07F094EF07F0FF0EBA13C8
:100F0800FF0EBB13FF0EBC13000EBD13BAC0A4F036
:100F1800BBC0A5F0BCC0A6F0BDC0A7F00DEF08F09F
:100F2800A4C084F0A5C085F0A6C086F0A7C087F04D
:100F3800B60E886F8FEC0EF000018451030BB06F72
:100F4800FEEF07F0B6C080F0B7C081F0B8C082F0FD
:100F5800B9C083F0BAEC23F080C0B6F081C0B7F016
:100F680082C0B8F083C0B9F0B6C064F0B7C065F00D
:100F7800B8C066F0B9C067F004EC15F064C0A4F01E
:100F880065C0A5F066C0A6F067C0A7F00DEF08F031
:100F9800B6C064F0B7C065F0B8C066F0B9C067F015
:100FA80031EC18F064C0A4F065C0A5F066C0A6F0E6
:100FB80067C0A7F00DEF08F0B6C064F0B7C065F0E1
:100FC800B8C066F0B9C067F031EC18F064C080F0C2
:100FD80065C081F066C082F067C083F0BAEC23F088
:100FE80080C0A4F081C0A5F082C0A6F083C0A7F09D
:100FF8000DEF08F0B051000AD8B4B8EF07F0010AB5
:10100800D8B4CCEF07F0030AD8B4A6EF07F0E0EFA6
:1010180007F012004950800B0001606F49504924C5
:10102800626F48AE1AEF08F01CEF08F01DEF08F0E9
:1010380062816251D8B423EF08F025EF08F03AEF47
:1010480008F06229D8A42BEF08F02DEF08F035EF4F
:1010580008F0000E466E000E476E000E486E000E39
:10106800496E488E000E496E42EF08F0000E466E3B
:10107800000E476E000E486E000E496E4D50800BF4
:10108800616F60516119D8B44CEF08F04EEF08F069
:101098004FEF08F0608D4D504D24616F4CAE57EF07
:1010A80008F059EF08F05AEF08F061816151D8B49F
:1010B80060EF08F062EF08F077EF08F06129D8A434
:1010C80068EF08F06AEF08F072EF08F0000E4A6E59
:1010D800000E4B6E000E4C6E000E4D6E4C8E000EC8
:1010E8004D6E7FEF08F0000E4A6E000E4B6E000E3C
:1010F8004C6E000E4D6E6251615DD8B086EF08F0FF
:1011080088EF08F0AFEF08F060AD8DEF08F08FEFD3
:1011180008F091EF08F0800E601B62C063F061C0B8
:1011280062F063C061F046C063F04AC046F063C035
:101138004AF047C063F04BC047F063C04BF048C06B
:1011480063F04CC048F063C04CF049C063F04DC038
:1011580049F063C04DF0000E636F625161C04EF0FC
:101168004F6A4E5E000E4F5A4FBEC4EF08F04F5004
:1011780009E11A0E4E5CD8A0C4EF08F0C6EF08F0DB
:10118800FDEF08F04650471048104910D8A4CFEF9B
:1011980008F0D2EF08F0010ED3EF08F0000E636FED
:1011A800000E466E000E476E000E486E000E496E29
:1011B80061C062F006EF09F063A1E5EF08F0E7EF20
:1011C80008F0EDEF08F0D89063310109636FEFEF95
:1011D80008F0D890633346A0F4EF08F0F6EF08F073
:1011E800F7EF08F0638F49344932483247324632C4
:1011F800622B6151625DD8A004EF09F006EF09F097
:10120800E0EF08F060BD0BEF09F00DEF09F04DEFCE
:1012180009F06251D8A413EF09F015EF09F01FEF98
:1012280009F0000E466E000E476E000E486E000E66
:10123800496E6EEF0AF04A5046264B5047224C50F2
:1012480048224D50492249A02CEF09F02EEF09F011
:10125800DAEF09F063A133EF09F035EF09F03BEF5E
:1012680009F0D89063310109636F3DEF09F0D89018
:10127800633346A042EF09F044EF09F045EF09F067
:10128800638F49344932483247324632622BDAEFAB
:1012980009F04A50465C4B5047584C504858495002
:1012A800800A4E6E4D50800A4E58D8B05EEF09F055
:1012B80060EF09F08BEF09F046504A5C4E6E4750DC
:1012C8004B584F6E48504C58506E49504D58516EBF
:1012D800FF0E4E24466EFF0E4F20476EFF0E502025
:1012E800486EFF0E5120496E800E601B636D63517E
:1012F800D8A481EF09F083EF09F093EF09F0010E0C
:101308004626000E47224822492293EF09F04A5008
:10131800465E4B50475A4C50485A4D50495A4650D1
:10132800471048104910D8A49CEF09F09EEF09F027
:10133800D3EF09F06351D8A4A4EF09F0A6EF09F0A0
:10134800D3EF09F0000E466E000E476E000E486E91
:10135800000E496E6EEF0AF0D8904636473648368A
:10136800493663AFBAEF09F0BCEF09F0BDEF09F0F9
:10137800468063A1C2EF09F0C4EF09F0C8EF09F095
:10138800D8806337CAEF09F0D89063376251D8B470
:10139800D0EF09F0D2EF09F0D3EF09F0620748AEB9
:1013A800D8EF09F0DAEF09F0B0EF09F0000E616F3D
:1013B80063AFE1EF09F0E3EF09F0FBEF09F063C079
:1013C8004EF07F0E4E16D8B4ECEF09F0EEEF09F0B0
:1013D800F2EF09F0010E616FFBEF09F046A0F7EF9D
:1013E80009F0F9EF09F0FBEF09F0EEEF09F06151B0
:1013F800D8B401EF0AF003EF0AF02EEF0AF0010E5D
:101408004626000E47224822492249A00EEF0AF03C
:1014180010EF0AF02EEF0AF046C04EF047C04FF02A
:1014280048C050F049C051F05134513250324F3217
:101438004E324EC046F04FC047F050C048F051C041
:1014480049F06229D8B42BEF0AF02DEF0AF02EEFFD
:101458000AF0622B6229D8B434EF0AF036EF0AF0AA
:101468003EEF0AF06251D8A43CEF0AF03EEF0AF0D2
:1014780050EF0AF0000E466E000E476E000E486EE2
:10148800000E496E6251D8A44CEF0AF04EEF0AF0F4
:1014980050EF0AF0000E606F62A155EF0AF057EFA7
:1014A8000AF05AEF0AF0488E5BEF0AF0489ED8908F
:1014B8006231496E60AF63EF0AF065EF0AF066EFDC
:1014C8000AF0498E46C046F047C047F048C048F089
:1014D80049C049F012001750800B206E175017248E
:1014E800266E16AE7AEF0AF07CEF0AF07DEF0AF06E
:1014F80026802650D8B483EF0AF085EF0AF098EFDB
:101508000AF02628D8A48BEF0AF08DEF0AF095EFA1
:101518000AF0000E146E000E156E000E166E000E08
:10152800176E168EA0EF0AF0000E146E000E156EE0
:10153800000E166E000E176E1B50800B201A1B50E3
:101548001B24216E1AAEABEF0AF0ADEF0AF0AEEF36
:101558000AF021802150D8B4B4EF0AF0B6EF0AF0AF
:10156800C9EF0AF02128D8A4BCEF0AF0BEEF0AF0B0
:10157800C6EF0AF0000E186E000E196E000E1A6EF5
:10158800000E1B6E1A8ED1EF0AF0000E186E000EB8
:10159800196E000E1A6E000E1B6E2150D8B4D7EFCC
:1015A8000AF0D9EF0AF0E1EF0AF02650D8A4DFEFED
:1015B8000AF0E1EF0AF0EBEF0AF0000E146E000EED
:1015C800156E000E166E000E176E83EF0CF01A5093
:1015D8001402F3CF2BF0F4CF2CF02B50226E236A99
:1015E800246A256A2C50276E286A296A2A6A1950A3
:1015F8001502F3CF2BF0F4CF2CF02B502226000E3F
:101608002322242225222C502726000E2822292294
:101618002A2218501602F3CF2BF0F4CF2CF02B50BF
:101628002226000E2322242225222C502726000EB3
:10163800282229222A2224C025F023C024F022C0EF
:1016480023F0226A18501502F3CF2BF0F4CF2CF0B8
:101658002B5022262C502322000E2422000E252255
:1016680019501402F3CF2BF0F4CF2CF02B50222674
:101678002C502322000E2422000E252224C025F0FF
:1016880023C024F022C023F0226A18501402F3CF9A
:101698002BF0F4CF2CF02B5022262C502322000EB6
:1016A8002422000E25221A501502F3CF2BF0F4CF76
:1016B8002CF02B5027262C502822000E2922000E11
:1016C8002A2219501602F3CF2BF0F4CF2CF02B500E
:1016D80027262C502822000E2922000E2A221A50D2
:1016E8001602F3CF2BF0F4CF2CF02B501C6E2C509D
:1016F8001D6E1E6A1F6A1EC01FF01DC01EF01CC092
:101708001DF01C6A1C5027261D5028221E50292215
:101718001F502A2222C01CF023C01DF024C01EF036
:1017280025C01FF0190E9EEF0BF0D8901F321E3205
:101738001D321C32E82E99EF0BF01C5027261D5045
:1017480028221E5029221F502A2224C025F023C0F7
:1017580024F022C023F0226A215026C01CF01D6A02
:101768001C26000E1D22820E1C242B6EFF0E1D202F
:101778002C6ED4EF0BF0D8902736283629362A3627
:1017880025AEC9EF0BF0CBEF0BF0CCEF0BF02780B9
:10179800D89022362336243625362B06D8A02C0698
:1017A80029AED9EF0BF0DBEF0BF0BFEF0BF0000E1B
:1017B800216E25AEE2EF0BF0E4EF0BF008EF0CF032
:1017C800FF0E22141C6EFF0E23141D6EFF0E241430
:1017D8001E6E7F0E25141F6E1C501D101E101F102C
:1017E800D8B4F9EF0BF0FBEF0BF0FFEF0BF0010EA5
:1017F800216E08EF0CF027A004EF0CF006EF0CF0B8
:1018080008EF0CF0FBEF0BF02150D8B40EEF0CF002
:1018180010EF0CF034EF0CF0010E2726000E2822F2
:1018280029222A222AA01BEF0CF01DEF0CF034EF1E
:101838000CF027C01CF028C01DF029C01EF02AC0DB
:101848001FF01F341F321E321D321C321CC027F0FD
:101858001DC028F01EC029F01FC02AF02B4A2C2AD0
:101868002CBE3FEF0CF02C5008E12B28D8A03FEFFE
:101878000CF041EF0CF04BEF0CF0000E276E000E51
:10188800286E800E296E7F0E2A6E79EF0CF02CBE22
:1018980058EF0CF02C5006E12B04D8B056EF0CF0A2
:1018A80058EF0CF064EF0CF0000E276E000E286E57
:1018B800000E296E000E2A6E000E206E79EF0CF0D5
:1018C8002BC026F0FF0E2716FF0E28167F0E2916AE
:1018D800000E2A1626A073EF0CF075EF0CF076EFC9
:1018E8000CF0298ED89026302A6E20502A1227C054
:1018F80014F028C015F029C016F02AC017F01200FD
:101908000001BB51D96EDA6ADECFF6FFDDCFF7FFF3
:101918000800F550250AD8A494EF0CF096EF0CF0C7
:101928007BEF0EF0BB51D96EDA6ADE2A000EDD229B
:10193800000E566E000E556E55C059F0576858681F
:10194800000EC46FC4EF0CF05980BB51D96EDA6A2F
:10195800DE2A000EDD22C4EF0CF0010EC46FC4EFC6
:101968000CF0BB51D96EDA6ADECFF6FFDDCFF7FF98
:101978000800F5502D0AD8B4A8EF0CF0B1EF0CF020
:10198800C451D8B4CAEF0CF0CCEF0CF0B5EF0CF0A2
:10199800BBC00CF0BCC00DF09BEC21F00CC055F0A6
:1019A8000DC056F056BEDDEF0CF0DBEF0CF0E2EFA9
:1019B8000CF05980556C561ED8B0562A0001BB5100
:1019C800D96EDA6ADECFF6FFDDCFF7FF0800F550F3
:1019D8002E0AD8A4F2EF0CF0F4EF0CF004EF0DF09F
:1019E800BB51D96EDA6ADE2A000EDD22BBC00CF0CC
:1019F800BCC00DF09BEC21F00CC057F00DC058F0A6
:101A08000001BB51D96EDA6ADECFC5F0DDCFC6F072
:101A1800C5C0F6FFC6C0F7FF0800F550640AD8B481
:101A280018EF0DF01AEF0DF028EF0DF0C5C0F6FF16
:101A3800C6C0F7FF0800F550690AD8A426EF0DF0D4
:101A480028EF0DF04DEF0DF0BC51D96EDA6A020E99
:101A5800DF26DF5CD96EDA6ADECFBFF0DECFC0F0FA
:101A6800010EC525BD6F000EC621BE6FBB51D96ED4
:101A7800DA6ABDC0DEFFBEC0DDFFB9C020F0BAC063
:101A880021F0BFC022F0C0C023F0D9EC1AF08EEFCD
:101A98000EF0000EC46FBB51D96EDA6ADECFF6FFC6
:101AA800DDCFF7FF0800F550730AD8A45EEF0DF0FC
:101AB80060EF0DF06AEF0DF0BB51D96EDA6ADE2ADD
:101AC800000EDD22010EC46FB6EF0DF0BB51D96ECA
:101AD800DA6ADECFF6FFDDCFF7FF0800F5506C0AB3
:101AE800D8A479EF0DF07BEF0DF0B6EF0DF0BB51F8
:101AF800D96EDA6ADECFBDF0DDCFBEF0010EBD27AC
:101B0800000EBE23BDC0F6FFBEC0F7FF0800F550AB
:101B18006C0AD8A492EF0DF094EF0DF0B6EF0DF02B
:101B2800BB51D96EDA6ADECFBDF0DDCFBEF0020E52
:101B3800BD27000EBE23BDC0F6FFBEC0F7FF0800DC
:101B4800F550730AD8A4ABEF0DF0ADEF0DF0B6EF7A
:101B58000DF0BB51D96EDA6A030EDE26000EDD22C7
:101B680066EF0DF0C451D8B4BCEF0DF0BEEF0DF028
:101B7800D2EF0DF0B9C010F0BAC011F0BC51D96E57
:101B8800DA6A020EDF26DF5CD96EDA6ADECF12F07F
:101B9800DECF13F00AEC1AF08EEF0EF0BB51D96EBF
:101BA800DA6ADECFC5F0DDCFC6F0C5C0F6FFC6C025
:101BB800F7FF0800F5CFC3F0EEEF0DF0C54BC62BCD
:101BC800FDEF0DF06C0EC36FFDEF0DF0000EC36F4F
:101BD800FDEF0DF0C3514C0AD8B4E2EF0DF02A0A1C
:101BE800D8B4E6EF0DF00A0AD8B4E2EF0DF0EAEF48
:101BF8000DF0C5C0F6FFC6C0F7FF0800F550660A2D
:101C0800D8A409EF0EF00BEF0EF072EF0EF035EFDF
:101C18000EF0BC51D96EDA6ADFCFBDF0040EDF26B4
:101C2800BD51D96EDA6ADECFBFF0DECFC0F0DECFAD
:101C3800C1F0DECFC2F040EF0EF0BC51D96EDA6AC7
:101C4800DFCFBDF0040EDF26BD51D96EDA6ADECFD4
:101C5800BFF0DECFC0F0DECFC1F0DECFC2F040EF84
:101C68000EF0C3514C0AD8B421EF0EF0200AD8B4B4
:101C78000DEF0EF040EF0EF0010EC525BD6F000E02
:101C8800C621BE6FBB51D96EDA6ABDC0DEFFBEC0C9
:101C9800DDFF66EF0EF0B9C084F0BAC085F0BFC0B2
:101CA80086F0C0C087F0C1C088F0C2C089F0C5C046
:101CB800F6FFC6C0F7FF0800F5CF8AF08CEC00F0FD
:101CC8008EEF0EF0C5C0F6FFC6C0F7FF0800F5504E
:101CD800660AD8B44FEF0EF072EF0EF00001BB5158
:101CE800D96EDA6ADE2A000EDD228EEF0EF0BB51C5
:101CF800D96EDA6ADECFF6FFDDCFF7FF0800F550C0
:101D0800076E086AB9C009F0BAC00AF023EC20F0DF
:101D180072EF0EF0120015C194F016C195F017C1BC
:101D280096F018C197F084C094F085C095F086C0ED
:101D380096F087C097F0000197BFA5EF0EF0A8EFC7
:101D48000EF0010EA9EF0EF0000E936F979FDB0EB9
:101D5800945D0F0E9559C90E96594D0E9759D8B0E6
:101D6800B8EF0EF0BAEF0EF0A6EF0FF084C006F051
:101D780085C007F086C008F087C009F029EC24F078
:101D880006C09CF007C09DF008C09EF009C09FF0F7
:101D9800000E4A6E000E4B6E000E4C6E3F0E4D6EDE
:101DA800830E186EF90E196E220E1A6E3F0E1B6EF8
:101DB8009CC014F09DC015F09EC016F09FC017F08F
:101DC8006FEC0AF014C046F015C047F016C048F092
:101DD80017C049F00EEC08F046C064F047C065F043
:101DE80048C066F049C067F031EC1EF064C0A0F04E
:101DF80065C0A1F066C0A2F067C0A3F0A0C006F05D
:101E0800A1C007F0A2C008F0A3C009F0010E30EC91
:101E180019F006C098F007C099F008C09AF009C0F8
:101E28009BF0DA0E186E0F0E196EC90E1A6E3F0E61
:101E38001B6E98C014F099C015F09AC016F09BC09C
:101E480017F06FEC0AF014C068F015C069F016C0FE
:101E58006AF017C06BF09CC064F09DC065F09EC02E
:101E680066F09FC067F032EC23F064C08FF065C065
:101E780090F066C091F067C092F08FC064F090C097
:101E880065F091C066F092C067F0A30E186E850EDB
:101E9800196E880E1A6E320E1B6E98C014F099C017
:101EA80015F09AC016F09BC017F06FEC0AF014C03A
:101EB80068F015C069F016C06AF017C06BF032EC14
:101EC80023F000018851D96EDA6A64C0DEFF65C06C
:101ED800DEFF66C0DEFF67C0DEFF9351D8B477EF40
:101EE8000FF079EF0FF0A0EF0FF08851D96EDA6A92
:101EF800DECF80F0DECF81F0DECF82F0DECF83F060
:101F0800BAEC23F000018851D96EDA6A80C0DEFF8E
:101F180081C0DEFF82C0DEFF83C0DEFFA0C089F083
:101F2800A1C08AF0891F8A1F894B8A2B89C084F037
:101F38008AC085F06FEF10F0A0C084F0A1C085F0D2
:101F48006FEF10F084C006F085C007F086C008F077
:101F580087C009F029EC24F006C09CF007C09DF06A
:101F680008C09EF009C09FF0000E4A6E000E4B6E2E
:101F7800000E4C6E3F0E4D6E830E186EF90E196EE4
:101F8800220E1A6E3F0E1B6E9CC014F09DC015F0F9
:101F98009EC016F09FC017F06FEC0AF014C046F010
:101FA80015C047F016C048F017C049F00EEC08F00D
:101FB80046C064F047C065F048C066F049C067F0A5
:101FC80031EC1EF064C0A0F065C0A1F066C0A2F0BC
:101FD80067C0A3F0A0C006F0A1C007F0A2C008F037
:101FE800A3C009F0010E30EC19F006C098F007C044
:101FF80099F008C09AF009C09BF0DA0E186E0F0E1F
:10200800196EC90E1A6E3F0E1B6E98C014F099C057
:1020180015F09AC016F09BC017F06FEC0AF014C0C8
:1020280068F015C069F016C06AF017C06BF09CC064
:1020380064F09DC065F09EC066F09FC067F032EC0A
:1020480023F064C08FF065C090F066C091F067C05F
:1020580092F08FC064F090C065F091C066F092C0B5
:1020680067F0A30E186E850E196E880E1A6E320E62
:102078001B6E98C014F099C015F09AC016F09BC05A
:1020880017F06FEC0AF014C068F015C069F016C0BC
:102098006AF017C06BF032EC23F064C08BF065C0B7
:1020A8008CF066C08DF067C08EF000018851D96E43
:1020B800DA6A8BC0DEFF8CC0DEFF8DC0DEFF8EC00B
:1020C800DEFF9351D8B46BEF10F06DEF10F0A0EF76
:1020D8000FF079EF0FF012003050800B3D6E30504A
:1020E8003024446E2FAE7BEF10F07DEF10F07EEFC2
:1020F80010F044804450D8B484EF10F086EF10F00C
:102108009BEF10F04428D8A48CEF10F08EEF10F05D
:1021180096EF10F0000E2D6E000E2E6E000E2F6E34
:10212800000E306E2F8E000E306EA3EF10F0000EF2
:102138002D6E000E2E6E000E2F6E000E306E345077
:10214800800B3D1A34503424456E33AEAEEF10F098
:10215800B0EF10F0B1EF10F045804550D8B4B7EFAC
:1021680010F0B9EF10F0CEEF10F04528D8A4BFEF6B
:1021780010F0C1EF10F0C9EF10F0000E316E000E34
:10218800326E000E336E000E346E338E000E346ED7
:10219800D6EF10F0000E316E000E326E000E336E68
:1021A800000E346E3150321033103410D8A4DFEFE3
:1021B80010F0E1EF10F0F9EF10F0000E2D6E000EA8
:1021C8002E6E000E2F6E000E306E800E2F127F0EB8
:1021D80030123D5030122DC02DF02EC02EF02FC0E1
:1021E8002FF030C030F03CEF12F04450D8A4FFEF8D
:1021F80010F001EF11F00BEF11F0000E2D6E000E34
:102208002E6E000E2F6E000E306E3CEF12F0455011
:1022180044C035F0366A355E000E365A7F0E3524D6
:102228003E6E000E36203F6E2DC039F02EC03AF0BB
:102238002FC03BF030C03CF0000E2D6E000E2E6E0D
:10224800000E2F6E000E306E000E406E000E416EB6
:10225800000E426E000E436E000E456E6CEF11F0DC
:102268004550D8B43AEF11F03CEF11F053EF11F0AC
:10227800D89039363A363B363C36D8902D362E36FD
:102288002F36303643AE4BEF11F04DEF11F04EEFD5
:1022980011F02D80D89040364136423643363150C1
:1022A800395C32503A5833503B5834503C58D8A0D7
:1022B80060EF11F062EF11F06BEF11F0438C3150C9
:1022C800395E32503A5A33503B5A34503C5A452AB8
:1022D800190E456472EF11F074EF11F034EF11F03C
:1022E80039503A103B103C10D8B47DEF11F07FEF15
:1022F80011F097EF11F0408097EF11F0D8902D363C
:102308002E362F36303643AE8CEF11F08EEF11F0AB
:102318008FEF11F02D80D890403641364236433643
:102328003E06D8A03F062FAE9CEF11F09EEF11F0AD
:1023380082EF11F0000E456E43AEA5EF11F0A7EF46
:1023480011F0CBEF11F0FF0E4014356EFF0E411463
:10235800366EFF0E4214376E7F0E4314386E3550BA
:10236800361037103810D8B4BCEF11F0BEEF11F0AA
:10237800C2EF11F0010E456ECBEF11F02DA0C7EFA3
:1023880011F0C9EF11F0CBEF11F0BEEF11F045508D
:10239800D8B4D1EF11F0D3EF11F0F7EF11F0010E2F
:1023A8002D26000E2E222F22302230A0DEEF11F033
:1023B800E0EF11F0F7EF11F02DC035F02EC036F038
:1023C8002FC037F030C038F0383438323732363230
:1023D800353235C02DF036C02EF037C02FF038C05A
:1023E80030F03E4A3F2A3FBE02EF12F03F5008E16C
:1023F8003E28D8A002EF12F004EF12F00FEF12F00F
:10240800000E3F6E3E68000E2D6E000E2E6E000E02
:102418002F6E000E306E3FBE1CEF12F03F5006E1EB
:102428003E04D8B01AEF12F01CEF12F02AEF12F0A7
:10243800000E3F6E000E3E6E000E2D6E000E2E6ECC
:10244800000E2F6E000E306E000E3D6E3EC044F042
:1024580044A031EF12F033EF12F036EF12F02F8E66
:1024680037EF12F02F9ED8904430306EEDEF10F019
:10247800120094809288928692840F01389738953A
:1024880093969496949AC650F00B0209C66EC69815
:10249800C78CC68A3981C09EC050F80B0609C06E29
:1024A800C050C70B3009C06EC280190EAF6EAB8E1C
:1024B800AC98AC8AAB888A86C250830B3009C26E4E
:1024C800010E0001DC6F010EDB6F000EDD6FA7EF60
:1024D80013F07F0EDD6173EF12F075EF12F09DEFD0
:1024E80012F0330E186E330E196EF30E1A6E3F0E7D
:1024F8001B6EDD51066E076A086A096A010E30EC28
:1025080019F006C014F007C015F008C016F009C08D
:1025180017F06FEC0AF014C064F015C065F016C02F
:1025280066F017C067F031EC1EF0000164519BECB7
:1025380023F07E0E0001DD65A4EF12F0A6EF12F085
:1025480062EF13F0330E186E330E196EF30E1A6E17
:102558003F0E1B6EDD51FF0AD26FD251066E076A1D
:10256800086A096A010E30EC19F006C014F007C0B9
:1025780015F008C016F009C017F06FEC0AF014C087
:1025880064F015C065F016C066F017C067F031EC4E
:102598001EF0000164519BEC23F062EF13F0000E73
:1025A800316E000E326E7F0E336E430E346EC30EE4
:1025B800186EF50E196EC80E1A6E400E1B6EDD51A0
:1025C800066E076A086A096A010E30EC19F006C03F
:1025D80014F007C015F008C016F009C017F06FEC2A
:1025E8000AF014C02DF015C02EF016C02FF017C039
:1025F80030F070EC10F02DC0D3F02EC0D4F02FC006
:10260800D5F030C0D6F0D3C0A4F0D4C0A5F0D5C062
:10261800A6F0D6C0A7F089EC05F0A4C0D7F0A5C0F5
:10262800D8F0A6C0D9F0A7C0DAF0000E4A6E000EA6
:102638004B6EFE0E4C6E420E4D6E000E186E000E66
:10264800196EFE0E1A6E420E1B6ED7C014F0D8C05B
:1026580015F0D9C016F0DAC017F06FEC0AF014C004
:1026680046F015C047F016C048F017C049F00EEC08
:1026780008F046C064F047C065F048C066F049C03D
:1026880067F031EC1EF0000164519BEC23F062EF1F
:1026980013F0DD51FF0A9BEC23F062EF13F0DC51DD
:1026A800010AD8B46DEF12F0030AD8B4D3EF12F0D0
:1026B800010AD8B44DEF13F062EF13F0C282C2B230
:1026C80068EF13F06AEF13F063EF13F0E50E000103
:1026D800CE6FFF0ECF6FC4CFD0F0D16B97EC24F044
:1026E80082A079EF13F07BEF13F07EEF13F0010E69
:1026F8000001DC6F80A883EF13F085EF13F088EFFB
:1027080013F0020E0001DC6F80A68DEF13F08FEF3F
:1027180013F092EF13F0030E0001DC6F80A497EF23
:1027280013F099EF13F09CEF13F0000E0001DB6F2C
:102738000001DD2B680E0001D26FE40EE82EFED7F3
:10274800D22FFCD700000001DB51D8A4AEEF13F064
:10275800B0EF13F053EF13F01200050E0001FB6FFA
:102768000F0EFA6FF10EE82EFED7FA2FFCD7FB2FCB
:10277800FAD794809288928692840F013897389578
:102788009594959694989598959A959C8C848C8612
:102798008B888C888C8A8C8CB6EC1FF0000E00011C
:1027A800FD6F000EFC6F000EE76FFD51A8EC1DF0E9
:1027B8000001FD6F82A0E3EF13F0E5EF13F007EFE0
:1027C80014F0030E0001FB6F080EFA6F770EE82E67
:1027D800FED7FA2FFCD7FB2FFAD782A0F6EF13F01B
:1027E800F8EF13F007EF14F0020E0001E76FFD5148
:1027F800A8EC1DF00001FD6F82B005EF14F007EFA3
:1028080014F000EF14F080A80CEF14F00EEF14F0A1
:1028180030EF14F0030E0001FB6F080EFA6F770E0D
:10282800E82EFED7FA2FFCD7FB2FFAD780A81FEF88
:1028380014F021EF14F030EF14F0010E0001E76FEF
:10284800FD51A8EC1DF00001FD6F80B82EEF14F0CB
:1028580030EF14F029EF14F080A635EF14F037EFBD
:1028680014F0EDEF14F0030E0001FB6F080EFA6F81
:10287800770EE82EFED7FA2FFCD7FB2FFAD780A6C3
:1028880048EF14F04AEF14F0EDEF14F080B64FEF74
:1028980014F051EF14F04AEF14F0CDEF14F0580E85
:1028A800076EFF0E086E010EEAEC20F0360E076E7A
:1028B800FF0E086E020EEAEC20F097EC1BF0010EFA
:1028C8000001FC6FEDEF14F0470E076EFF0E086E67
:1028D800010EEAEC20F09C0E076EFF0E086E020E49
:1028E800EAEC20F04FEC1CF063EF14F0690E076E71
:1028F800FF0E086E010EEAEC20F0360E076EFF0E92
:10290800086E020EEAEC20F005EC1DF063EF14F0FF
:102918008B0E076EFF0E086E010EEAEC20F028EC15
:1029280017F063EF14F07A0E076EFF0E086E010EB3
:10293800EAEC20F0AD0E076EFF0E086E020EEAEC10
:1029480020F03DEC12F063EF14F0360E076EFF0E28
:10295800086E010EEAEC20F0360E076EFF0E086EC8
:10296800020EEAEC20F0DDEC24F063EF14F0360EF2
:10297800076EFF0E086E010EEAEC20F0360E076EA9
:10298800FF0E086E020EEAEC20F0DCEC24F063EF98
:1029980014F00001FD51000AD8B453EF14F0010AF5
:1029A800D8B468EF14F0030AD8B47AEF14F0010A27
:1029B800D8B48CEF14F0070AD8B497EF14F0010AD2
:1029C800D8B4A9EF14F0030AD8B4BBEF14F0EDEFB4
:1029D80014F080500001FC51D8B4F5EF14F0F7EF73
:1029E80014F0DEEF13F0000EE76FFD51A8EC1DF0B8
:1029F8000001FD6F000EFC6FDEEF13F08AEF00F0B0
:102A080064C014F065C015F066C016F067C017F012
:102A180064C018F065C019F066C01AF067C01BF0F2
:102A28006FEC0AF014C080F015C081F016C082F077
:102A380017C083F080C014F081C015F082C016F072
:102A480083C017F080C018F081C019F082C01AF056
:102A580083C01BF06FEC0AF014C06CF015C06DF069
:102A680016C06EF017C06FF03C0E186E6C0E196E23
:102A7800360E1A6E360E1B6E80C014F081C015F02B
:102A880082C016F083C017F06FEC0AF014C046F04D
:102A980015C047F016C048F017C049F0CF0E4A6E6F
:102AA800070E4B6E500E4C6EB90E4D6E0EEC08F0C4
:102AB80046C068F047C069F048C06AF049C06BF08A
:102AC80080C014F081C015F082C016F083C017F0E2
:102AD80064C018F065C019F066C01AF067C01BF032
:102AE8006FEC0AF014C07CF015C07DF016C07EF0C3
:102AF80017C07FF0AB0E4A6EAA0E4B6E2A0E4C6EB4
:102B0800BE0E4D6E840E186E880E196E080E1A6E63
:102B18003C0E1B6E80C014F081C015F082C016F008
:102B280083C017F06FEC0AF014C046F015C047F0E8
:102B380016C048F017C049F00EEC08F046C070F017
:102B480047C071F048C072F049C073F06CC018F00B
:102B58006DC019F06EC01AF06FC01BF07CC014F085
:102B68007DC015F07EC016F07FC017F06FEC0AF03C
:102B780014C074F015C075F016C076F017C077F061
:102B880064C04AF065C04BF066C04CF067C04DF0B9
:102B98007CC018F07DC019F07EC01AF07FC01BF011
:102BA80070C014F071C015F072C016F073C017F041
:102BB8006FEC0AF014C046F015C047F016C048F094
:102BC80017C049F00EEC08F046C078F047C079F01D
:102BD80048C07AF049C07BF078C046F079C047F029
:102BE8007AC048F07BC049F068C018F069C019F095
:102BF8006AC01AF06BC01BF074C014F075C015F0F1
:102C080076C016F077C017F06FEC0AF014C04AF0DF
:102C180015C04BF016C04CF017C04DF00EEC08F084
:102C280046C064F047C065F048C066F049C067F028
:102C3800120019C166F01AC167F01BC168F01CC107
:102C480069F046C066F047C067F048C068F049C000
:102C580069F0810E4A6EFF0E4B6E66C04CF067C07D
:102C68004DF068C04EF069C04FF0180E41EF16F0F5
:102C7800D8904F324E324D324C32E82E3CEF16F09F
:102C88004C504A240001646F000E4B20656F65BFED
:102C980057EF16F0655109E1170E645DD8A057EF9C
:102CA80016F059EF16F063EF16F046C046F047C02D
:102CB80047F048C048F049C049F027EF17F065BF12
:102CC80068EF16F06AEF16F0DBEF16F064C04AF012
:102CD800FF0E4B6EFF0E4C6E7F0E4D6E000E4E6E4D
:102CE8004A6679EF16F081EF16F04E344E324D32C7
:102CF8004C324B324A2E74EF16F04BC060F04CC089
:102D080061F04DC062F04EC063F00001605166157D
:102D18004A6E615167154B6E625168154C6E63516E
:102D280069154D6E4A504B104C104D10D8A49FEFAA
:102D380016F0A1EF16F0A3EF16F059EF16F066C0E3
:102D48004AF067C04BF068C04CF069C04DF0200EE7
:102D5800B3EF16F0D8904D324C324B324A32E82E4F
:102D6800AEEF16F04A504B104C104D10D8B4BFEFD0
:102D780016F0C1EF16F0C9EF16F0605166276151E1
:102D880067236251682363516923601D4A6E611D80
:102D98004B6E621D4C6E631D4D6E4A5066174B504C
:102DA80067174C5068174D5069171FEF17F066C02A
:102DB8004AF067C04BF068C04CF069C04DF0200E77
:102DC800EBEF16F0D8904D324C324B324A32E82EA7
:102DD800E6EF16F04A504B104C104D10D8A4F7EF00
:102DE80016F0F9EF16F003EF17F0000E666F000EFD
:102DF800676F000E686F000E696F1FEF17F0D890AD
:102E080066354A6E67354B6E68354C6E69354D6E62
:102E18004A504B104C104D10D8B415EF17F017EF5F
:102E280017F01FEF17F0000E666F000E676F800E29
:102E3800686FBF0E696F66C046F067C047F068C02C
:102E480048F069C049F012000F01388B3C81C08EF0
:102E5800C050F80B0609C06EC050C70B3009C06ED1
:102E6800C28021EE95F0100EDE6AE806FDE2010E42
:102E78000101B26F26EF18F0C250830B1409C26E1D
:102E8800C282C2B24AEF17F04CEF17F045EF17F0C5
:102E9800C350C4CFE7F00001E86BE7C0E8F0E76B88
:102EA800E7110101AE6F0001E8510101AF6F000E9B
:102EB800316EC00E326E7F0E336E440E346EAEC16C
:102EC80006F0AFC107F0086A096A000E30EC19F085
:102ED80006C02DF007C02EF008C02FF009C030F052
:102EE80070EC10F02DC014F02EC015F02FC016F0A5
:102EF80030C017F0330E186E330E196E530E1A6E5B
:102F0800400E1B6E6FEC0AF014C0A6F115C0A7F1B5
:102F180016C0A8F117C0A9F1C250830B1009C26EE0
:102F2800C282C2B29AEF17F09CEF17F095EF17F034
:102F3800C350C4CFE7F00001E86BE7C0E8F0E76BE7
:102F4800E7110101B06F0001E8510101B16F000EF6
:102F5800316EC00E326E7F0E336E440E346EB0C1C9
:102F680006F0B1C107F0086A096A000E30EC19F0E2
:102F780006C02DF007C02EF008C02FF009C030F0B1
:102F880070EC10F02DC014F02EC015F02FC016F004
:102F980030C017F0330E186E330E196E530E1A6EBA
:102FA800400E1B6E6FEC0AF014C0AAF115C0ABF10D
:102FB80016C0ACF117C0ADF1950E0001CE6F010E31
:102FC800CF6F230ED06FFF0ED16FA6C1D2F0A7C16D
:102FD800D3F0A8C1D4F0A9C1D5F0AAC1D6F0ABC12D
:102FE800D7F0ACC1D8F0ADC1D9F056EC23F0950EAE
:102FF800076E010E086E020EEAEC20F080A407EFBF
:1030080018F009EF18F026EF18F0030E0001E86F2A
:10301800080EE76F770EE82EFED7E72FFCD7E82FCC
:10302800FAD780A41AEF18F01CEF18F026EF18F062
:1030380080B421EF18F023EF18F01CEF18F0000E01
:103048000101B26F0101B251D8A42DEF18F02FEF92
:1030580018F040EF17F0C290120064C014F065C079
:1030680015F066C016F067C017F064C018F065C0A8
:1030780019F066C01AF067C01BF06FEC0AF014C0B4
:103088007CF015C07DF016C07EF017C07FF07CC0C4
:1030980014F07DC015F07EC016F07FC017F07CC01C
:1030A80018F07DC019F07EC01AF07FC01BF06FECDD
:1030B8000AF014C078F015C079F016C07AF017C07D
:1030C8007BF0170E186E9A0E196ECC0E1A6E370E0C
:1030D8001B6E7CC014F07DC015F07EC016F07FC05A
:1030E80017F06FEC0AF014C046F015C047F016C090
:1030F80048F017C049F03F0E4A6E040E4B6EB60EEC
:103108004C6EBA0E4D6E0EEC08F046C068F047C023
:1031180069F048C06AF049C06BF0000E4A6E000EB4
:103128004B6E800E4C6E3F0E4D6E000E186E000EEC
:10313800196E000E1A6EBF0E1B6E7CC014F07DC097
:1031480015F07EC016F07FC017F06FEC0AF014C0BF
:1031580046F015C047F016C048F017C049F00EEC0D
:1031680008F046C06CF047C06DF048C06EF049C02A
:103178006FF07CC018F07DC019F07EC01AF07FC0D7
:103188001BF078C014F079C015F07AC016F07BC037
:1031980017F06FEC0AF014C070F015C071F016C08B
:1031A80072F017C073F09F0E186EAA0E196E2A0ED1
:1031B8001A6E3D0E1B6E78C014F079C015F07AC0F7
:1031C80016F07BC017F06FEC0AF014C04AF015C077
:1031D8004BF016C04CF017C04DF06CC046F06DC0F7
:1031E80047F06EC048F06FC049F00EEC08F046C0DA
:1031F80074F047C075F048C076F049C077F074C0E5
:1032080046F075C047F076C048F077C049F068C00E
:1032180018F069C019F06AC01AF06BC01BF070C0D2
:1032280014F071C015F072C016F073C017F06FEC8F
:103238000AF014C04AF015C04BF016C04CF017C085
:103248004DF00EEC08F046C064F047C065F048C089
:1032580066F049C067F012000E6E0E50D8B437EF12
:1032680019F039EF19F05BEF19F009BE40EF19F0CA
:103278003EEF19F05BEF19F006C00AF007C00BF03B
:1032880008C00CF009C00DF00A1E0B1E0C1E0D1E06
:103298000A2A000E0B220C220D220AC010F00BC0C5
:1032A80011F00CC012F00DC013F063EF19F006C056
:1032B80010F007C011F008C012F009C013F0065052
:1032C800071008100910D8A46CEF19F06EEF19F068
:1032D80078EF19F0000E066E000E076E000E086EED
:1032E800000E096E09EF1AF0960E0F6E82EF19F0B4
:1032F8000F2AD8901332123211321032000E1014E5
:103308000A6E000E11140B6E000E12140C6EFE0ED7
:1033180013140D6E0A500B100C100D10D8A497EF53
:1033280019F099EF19F07CEF19F0A7EF19F00F2AAF
:10333800010E1026000E112212221322D8901332E9
:10334800123211321032000E10140A6E000E1114CF
:103358000B6E000E12140C6EFF0E13140D6E0A5035
:103368000B100C100D10D8A4BCEF19F0BEEF19F01B
:103378009BEF19F0C6EF19F00F06D89010361136EA
:103388001236133612BECBEF19F0CDEF19F0D5EF88
:1033980019F0020E0F60D3EF19F0D5EF19F0C0EF56
:1033A80019F00FB0DAEF19F0DCEF19F0DDEF19F0D2
:1033B800129ED8900F320FC00AF00B6A0C6A0D6A81
:1033C8000AC00DF00C6A0B6A0A6A0A5010120B50F8
:1033D80011120C5012120D5013120E50D8B4F7EFF0
:1033E80019F0F9EF19F001EF1AF009BE00EF1AF021
:1033F800FEEF19F001EF1AF0138E10C006F011C09D
:1034080007F012C008F013C009F0120012C01AF039
:1034180013C01BF01A501B10D8A415EF1AF017EFA1
:103428001AF01BEF1AF0BE0E1A6EFF0E1B6E000E7E
:103438001D6E000E1C6E23EF1AF01C4A1D2A1C502C
:103448001A24146E1D501B20156E14C0F6FF15C0EB
:10345800F7FF000EF86E0F0EF76403D00800F55062
:1034680005D0F6CFE1FFF7CFE2FFE7500009D8A477
:1034780040EF1AF042EF1AF021EF1AF058BE47EF6A
:103488001AF049EF1AF05CEF1AF01C50575C5850CC
:10349800800A146E1D50800A1458D8B056EF1AF0DE
:1034A80058EF1AF05CEF1AF057C01CF058C01DF026
:1034B8001CC016F01DC017F055C018F056C019F002
:1034C80059B069EF1AF06BEF1AF0A7EF1AF079EF1D
:1034D8001AF0000E086E200E076E10C009F011C019
:1034E8000AF023EC20F01C4A1D2A18501C5C1D50C1
:1034F800800A146E1950800A1458D8A086EF1AF062
:1035080088EF1AF06DEF1AF0A7EF1AF01AC0F6FF5D
:103518001BC0F7FF000EF86E0F0EF76403D008000B
:10352800F55005D0F6CFE1FFF7CFE2FFE750146E74
:103538001450076E086A10C009F011C00AF023EC95
:1035480020F01A4A1B2A1606D8A01706162806E1E4
:103558001728D8A4B2EF1AF0B4EF1AF08AEF1AF0CD
:1035680059A0B9EF1AF0BBEF1AF0D8EF1AF0C9EF6B
:103578001AF0000E086E200E076E10C009F011C078
:103588000AF023EC20F01C4A1D2A18501C5C1D5020
:10359800800A146E1950800A1458D8A0D6EF1AF071
:1035A800D8EF1AF0BDEF1AF0120023BEDEEF1AF0C2
:1035B800E1EF1AF0010EE2EF1AF0000E2A6E58BE83
:1035C800EAEF1AF0E8EF1AF0F0EF1AF0000E296EA1
:1035D800010E286EF4EF1AF057C028F058C029F0F1
:1035E80055C026F056C027F02A50D8B4FEEF1AF07E
:1035F80000EF1BF017EF1BF02606D8A027062A506D
:10360800D8A409EF1BF00BEF1BF011EF1BF0000E15
:10361800256E2B0E246E15EF1BF0000E256E2D0E59
:10362800246E24C02AF0000E2C6E4F0E2B6E000E56
:103638000101746F50EF1BF02B06D8A02C06250E45
:103648002B24D96E010E2C20DA6E22C006F023C07E
:1036580007F0000E096E0A0E086E43EC21F006C052
:103668000CF007C00DF043EC24F00C50300FDF6E67
:103678002806D8A029062606D8A0270622C006F0C4
:1036880023C007F0000E096E0A0E086E88EC20F0C1
:1036980006C022F007C023F02CBE5BEF1BF02C50B5
:1036A80008E12B04D8A05BEF1BF05DEF1BF073EF74
:1036B8001BF022502310D8A464EF1BF066EF1BF018
:1036C80020EF1BF029BE73EF1BF0295006E12804F8
:1036D800D8B071EF1BF073EF1BF020EF1BF02A50EE
:1036E800D8B479EF1BF07BEF1BF086EF1BF02B06AD
:1036F800D8A02C06250E2B24D96E010E2C20DA6EAC
:103708002AC0DFFF20C017F021C018F0250E2B2497
:10371800196E010E2C201A6E26C01BF027C01CF053
:1037280047EC22F012009594959694989598959A5E
:10373800959C0F013B953B973A993B993B9B3B9D49
:103748008C848C868B888C888C8A8C8C9284389517
:103758003F0ECD16300ECD129D80F28CF28E010EEA
:103768000101246F9E809E0ECF6E580ECE6ECD80C6
:10377800010E0001FE6F000E216E21EEE4F010EE46
:1037880015F00B0EDBCFE3FFE806FCE221EED8F0E4
:1037980010EE09F00B0EDBCFE3FFE806FCE2000EAB
:1037A800236E0C0E226E000E246E3AEF1CF0000EF3
:1037B800266E000E256E2550020DF350150FD96E9A
:1037C800DA6A02D80CEF1CF00500FA6EDE50FD6EC6
:1037D800DE50FE6EF850FF6EFA5025500508076E51
:1037E8002450090FD96EDA6ADF50086E072AFFEFF6
:1037F8001BF0D8900832072EFDEF1BF008A007EF4A
:103808001CF00AEF1CF0010E0BEF1CF0000E12006A
:10381800254A262A26BE1AEF1CF0265009E1060E74
:10382800255CD8A01AEF1CF01CEF1CF0DFEF1BF092
:10383800110E086E3C0E076ECB0EE82EFED7072E33
:10384800FCD7082EFAD70000242A2450076E086AED
:103858002250071807E123500818D8A436EF1CF0A7
:1038680038EF1CF03AEF1CF0000E246E0001FE51F8
:10387800D8A441EF1CF043EF1CF0DBEF1BF08C8465
:103888008C868B888C888C8A8C8CCD909D90000E31
:103898000101246F120092840F013A9D3A9F948C83
:1038A800948E190EAF6EAC98AB8EAC8AAB88010EB5
:1038B8000101236F9D8AF28CF28E010E0001F36FD5
:1038C800F2EF1CF001019451D8B46DEF1CF06FEFCA
:1038D8001CF0CEEF1CF0750E066E010E076EF3ECB1
:1038E80023F006C0F4F007C0F5F0000E0001F76FF2
:1038F800000EF66F96EF1CF0740ED26F010ED36FA8
:10390800F651D25FF751D35BF451D225D96EF551F8
:10391800D321DA6EF651D40FE16EE26ADFCFE7FF0A
:10392800F64BF72BF451F65DF551F759D8A09FEFF8
:103938001CF0A1EF1CF080EF1CF0F451D40FD96EED
:10394800DA6ADF6AD10ECE6FFF0ECF6FD40ED06F5A
:10395800D16B97EC24F0000E0101946F000E00016A
:10396800F96F000EF86F750EF825D96E010EF92162
:10397800DA6EDF6AF84BF92BF9BFCCEF1CF0F9517E
:1039880009E11F0EF85DD8A0CCEF1CF0CEEF1CF0BB
:10399800B7EF1CF080A4D3EF1CF0D5EF1CF0F2EFCA
:1039A8001CF0030E0001D36F080ED26F770EE82EBD
:1039B800FED7D22FFCD7D32FFAD780A4E6EF1CF07E
:1039C800E8EF1CF0F2EF1CF080B4EDEF1CF0EFEF25
:1039D8001CF0E8EF1CF0000E0001F36F0001F3513A
:1039E800D8A4F9EF1CF0FBEF1CF066EF1CF0AB9EBF
:1039F800AC9AAB98000E0101236F9D9AF29CF29E3F
:103A080012009484FC0E0F014917C70EBB6E0C0EF2
:103A1800BD12BD503F0B8009BD6E000EBE6E9E925A
:103A2800BA849EA21AEF1DF01CEF1DF015EF1DF0D1
:103A38009484928892849594959694989598959A5A
:103A4800959C8C848C868B888C888C8A8C8C010EB7
:103A5800106E000E116E9BEF1DF01150C70DF3CFC5
:103A680006F0F4CF07F0000E096E050E086E88EC1C
:103A780020F00650BE6E80A844EF1DF046EF1DF002
:103A880078EF1DF0030E0F6E080E0E6E770EE82EFF
:103A9800FED70E2EFCD70F2EFAD7000080A857EFBE
:103AA8001DF059EF1DF078EF1DF080B85EEF1DF0A6
:103AB80060EF1DF059EF1DF0050E1118D8A467EF3F
:103AC8001DF069EF1DF06DEF1DF0000E116E78EF1F
:103AD8001DF0050E116073EF1DF075EF1DF078EF06
:103AE8001DF0112A78EF1DF080A47DEF1DF07FEF07
:103AF8001DF09BEF1DF0030E0F6E080E0E6E770E75
:103B0800E82EFED70E2EFCD70F2EFAD7000080A481
:103B180090EF1DF092EF1DF09BEF1DF080B497EF32
:103B28001DF099EF1DF092EF1DF0000E106E105071
:103B3800D8A4A1EF1DF0A3EF1DF031EF1DF0F00E9A
:103B4800BD16BA949D9212000101C76F0EEC24F0C5
:103B580021EEC8F011EEB7F00F0EDBCFE3FFE80659
:103B6800FCE2CFEF1DF0060E0101C761BEEF1DF0AC
:103B7800C0EF1DF0DFEF1DF0C72BDFEF1DF00101D7
:103B8800C751D8B4CAEF1DF0CCEF1DF0DFEF1DF020
:103B9800C707DFEF1DF00001E751000AD8B4DFEFD7
:103BA8001DF0010AD8B4B7EF1DF0030AD8B4C3EF6B
:103BB8001DF0DFEF1DF0950E0001CE6F010ECF6FE7
:103BC800CB0ED06FFF0ED16F000ED36F0F0ED26FDA
:103BD8000101C751020DB70EF324D96E010EF4206E
:103BE800DA6EDECFD4F0DDCFD5F056EC23F0A60E9A
:103BF8000001CE6F010ECF6FCC0ED06FFF0ED16FCC
:103C0800000ED36F100ED26F0101C7510001E86F8B
:103C1800E96BD890E837E937020EE827000EE92368
:103C2800B70EE825D96E010EE921DA6EDECFD4F0A1
:103C3800DDCFD5F056EC23F0950E076E010E086E19
:103C4800010EEAEC20F0A60E076E010E086E020EB9
:103C5800EAEC20F00101C751120000016635673512
:103C6800536E5350D8A43BEF1EF03DEF1EF047EFC4
:103C78001EF0000E646F000E656F000E666F000E7A
:103C8800676FB4EF1EF064C068F065C069F066C085
:103C98006AF067C06BF0200E57EF1EF0D8906B33B8
:103CA8006A3369336833E82E52EF1EF06851526E5A
:103CB800668FFF0E6417FF0E6517FF0E6617000E5E
:103CC8006717960E535E53BE6EEF1EF06CEF1EF034
:103CD80084EF1EF05350800A970FD8B076EF1EF08D
:103CE80078EF1EF07AEF1EF03DEF1EF0D8906733A4
:103CF800663365336433533E7AEF1EF09CEF1EF053
:103D08001F0E53648AEF1EF08CEF1EF094EF1EF026
:103D18003DEF1EF0D890643765376637673753062E
:103D28005350D8A49AEF1EF09CEF1EF08EEF1EF0B1
:103D38005250D8B4A2EF1EF0A4EF1EF0ACEF1EF064
:103D4800671F661F651F646D000E65236623672362
:103D580064C064F065C065F066C066F067C067F06F
:103D68001200000E2D14356E000E2E14366E800EC5
:103D78002F14376E7F0E3014386E355036103710CA
:103D88003810D8A4CAEF1EF0CCEF1EF0D4EF1EF006
:103D9800000E2D6E000E2E6E000E2F6E000E306E71
:103DA800000E3114356E000E3214366E800E331448
:103DB800376E7F0E3414386E355036103710381081
:103DC800D8A4E9EF1EF0EBEF1EF0F3EF1EF0000EA3
:103DD800316E000E326E000E336E000E346E30AE51
:103DE800F8EF1EF0FAEF1EF003EF1FF02D6C2E1EF9
:103DF800D8B02E2A2F1ED8B02F2A800E305634AEB7
:103E080008EF1FF00AEF1FF013EF1FF0316C321E9E
:103E1800D8B0322A331ED8B0332A800E3456000E5A
:103E28002D1A000E2E1A000E2F1A800E301A000EB0
:103E3800311A000E321A000E331A800E341A31501D
:103E48002D5C32502E5833502F5834503058D8B03B
:103E580030EF1FF032EF1FF035EF1FF0D89036EF3C
:103E68001FF0D88012001DC110F01EC111F01FC133
:103E780012F020C113F006C010F007C011F008C0FE
:103E880012F009C013F010C00AF011C00BF012C0F4
:103E98000CF013C00DF0180E57EF1FF0D8900D322C
:103EA8000C320B320A32E82E52EF1FF00A500E6E17
:103EB8000F6A0E500F10D8A464EF1FF066EF1FF0C2
:103EC80086EF1FF0D89010340A6E11340B6E12343E
:103ED8000C6E13340D6E0A500B100C100D10D8A474
:103EE80078EF1FF07AEF1FF080EF1FF0000E076EDB
:103EF800020E066EB5EF1FF0000E076E030E066E7B
:103F0800B5EF1FF00E280F10D8A48DEF1FF08FEF1C
:103F18001FF0B1EF1FF010C00AF011C00BF012C073
:103F28000CF013C00DF0090ED8900A360B360C367B
:103F38000D36E82E98EF1FF00A500B100C100D10DC
:103F4800D8B4A9EF1FF0ACEF1FF0010EADEF1FF0D2
:103F5800000E066E076AB5EF1FF0000E076E040E1E
:103F6800066E12000F013B913B93958095829290CB
:103F780089806C50F00B08096C6E130E6E6E6C8A9B
:103F8800340E076EF20EE82EFED7072EFCD76B8094
:103F98006BB0D1EF1FF0D3EF1FF0CCEF1FF0A49E52
:103FA8007C0E84EC24F0800E84EC24F0380E84EC33
:103FB80024F0800E84EC24F0390E84EC24F0800E7A
:103FC80084EC24F0170E84EC24F0800E84EC24F0AA
:103FD8007A0E84EC24F0800E84EC24F05E0E84ECDF
:103FE80024F0800E84EC24F06B0E84EC24F0800E18
:103FF80084EC24F00C0E84EC24F0800E84EC24F085
:10400800010E84EC24F0800E84EC24F0060E84EC7F
:1040180024F0800E84EC24F0020E84EC24F06B84EF
:104028006BB419EF20F01BEF20F014EF20F0340EE2
:10403800076EF20EE82EFED7072EFCD712000950A5
:104048000A10D8B42AEF20F02CEF20F035EF20F03A
:1040580009500A10D8A433EF20F035EF20F03AEFDA
:1040680020F00750A7EC24F087EF20F020EE0AF0AC
:104078000950D9260A50DA22DE50DE10D8B447EFAC
:1040880020F049EF20F064EF20F020EE0AF009500C
:10409800D9260A50DA2210EE03F00950E1260A5018
:1040A800E222DE50E65CE650800A0F6EDE50800A9F
:1040B8000F58D8B062EF20F064EF20F087EF20F0BF
:1040C80020EE03F00950D9260A50DA22DECF0BF091
:1040D800DDCF0CF009C0D9FF0AC0DAFFDECF0DF042
:1040E800DDCF0EF00B500D24D96E0C500E20DA6E79
:1040F80007C0DFFF20EE03F00950D9260A50DA2264
:10410800DE2A000EDD221200000E0B6E09BE91EFB2
:1041180020F08FEF20F097EF20F0086C091ED8B040
:10412800092A010E0B6E07BE9EEF20F09CEF20F0CF
:10413800A4EF20F0066C071ED8B0072A010E0B1A50
:10414800000E0D6E000E0C6E08500910D8B4AFEFBB
:1041580020F0B1EF20F0D9EF20F0010E0A6EB9EF90
:1041680020F0D890083609360A2A09AEBEEF20F0AA
:10417800C0EF20F0B5EF20F0D8900C360D3608507F
:10418800065C09500758D8A0CCEF20F0CEEF20F0FD
:10419800D3EF20F00850065E0950075A0C80D890DB
:1041A800093208320A2EC0EF20F00B50D8B4DFEFE6
:1041B80020F0E1EF20F0E5EF20F00C6C0D1ED8B0F8
:1041C8000D2A0CC006F00DC007F012000B6E6B80B4
:1041D8006BB0F1EF20F0F3EF20F0ECEF20F0A49EAD
:1041E8007C0E84EC24F0800E84EC24F00B04D8A41C
:1041F80000EF21F002EF21F007EF21F0800E84ECB0
:1042080024F013EF21F0020E0B18D8A40EEF21F0C2
:1042180010EF21F013EF21F0C00E84EC24F0400ED3
:1042280084EC24F0000E0C6E0C500724096E000E6E
:1042380008200A6E09C0F6FF0AC0F7FF000EF86EE4
:104248000F0EF76403D00800F55005D0F6CFE1FF54
:10425800F7CFE2FFE75084EC24F00C2A0F0E0C6431
:1042680038EF21F03AEF21F018EF21F06B846BB4AE
:1042780040EF21F042EF21F03BEF21F01200000E59
:104288000B6E07BE4CEF21F04AEF21F052EF21F000
:10429800066C071ED8B0072A010E0B6E09BE59EF2F
:1042A80021F057EF21F05DEF21F0086C091ED8B01E
:1042B800092A08500910D8B464EF21F066EF21F0FC
:1042C8008AEF21F0010E0A6E6EEF21F0D8900836C1
:1042D80009360A2A09AE73EF21F075EF21F06AEF6B
:1042E80021F00850065C09500758D8A07EEF21F04D
:1042F80080EF21F084EF21F00850065E0950075A3C
:10430800D890093208320A2E75EF21F00B50D8B434
:1043180090EF21F092EF21F096EF21F0066C071E46
:10432800D8B0072A06C006F007C007F01200000E32
:10433800106E000E0F6E0C50D96EDA6ADECFF6FFE3
:10434800DDCFF7FF0800F5502A0AD8A4AEEF21F018
:10435800B0EF21F0DAEF21F00C50D96EDA6ADE2ADC
:10436800000EDD220D50D96EDA6A020EDF26DF5C00
:10437800D96EDA6ADECF0FF0DECF10F0EDEF21F064
:104388000FC006F010C007F0000E096E0A0E086E86
:1043980071EC24F00E5006240F6E000E0720106EEC
:1043A8000C50D96EDA6ADE2A000EDD220C50D96E66
:1043B800DA6ADECFF6FFDDCFF7FF0800F550D00F41
:1043C8000E6E090E0E64EBEF21F0EDEF21F0C4EF55
:1043D80021F00FC00CF010C00DF01200000E0614F2
:1043E8000E6E000E07140F6E800E0814106E7F0EEE
:1043F8000914116E0E500F1010101110D8A407EFE9
:1044080022F009EF22F011EF22F0000E066E000EE6
:10441800076E000E086E000E096E000E0A140E6E6E
:10442800000E0B140F6E800E0C14106E7F0E0D1400
:10443800116E0E500F1010101110D8A426EF22F094
:1044480028EF22F030EF22F0000E0A6E000E0B6EFD
:10445800000E0C6E000E0D6E0A5006180FE10B5080
:1044680007180CE10C50081809E10D500918D8B4C8
:1044780040EF22F042EF22F045EF22F0D89046EFCD
:1044880022F0D880120059A04CEF22F04EEF22F013
:1044980058EF22F019C010F01AC011F017C012F02E
:1044A80018C013F079EC23F01CBE5FEF22F05DEF2B
:1044B80022F063EF22F0000E1C6E000E1B6E000E41
:1044C8001F6E000E1E6E75EF22F0000E086E200E95
:1044D800076E17C009F018C00AF023EC20F01E4A36
:1044E8001F2A1B501E5C1F50800A1D6E1C50800A1C
:1044F8001D58D8A082EF22F084EF22F069EF22F055
:1045080059B089EF22F08BEF22F095EF22F019C015
:1045180010F01AC011F017C012F018C013F079EC9F
:1045280023F0120009BE9BEF22F09DEF22F0A7EFC7
:1045380022F006C006F007C007F008C008F009C05E
:1045480009F0C0EF22F006C00AF007C00BF008C05F
:104558000CF009C00DF00A1E0B1E0C1E0D1E0A2AB7
:10456800000E0B220C220D220AC006F00BC007F029
:104578000CC008F00DC009F0120008C00FF009C007
:1045880010F006C00DF007C00EF0DBEF22F00FC0F0
:10459800D9FF10C0DAFFDF500C6E0F4A102A0DC089
:1045A800D9FF0EC0DAFF0CC0DFFF0D4A0E2A0A063B
:1045B800D8A00B060A2806E10B28D8A4E6EF22F0BB
:1045C800E8EF22F0CBEF22F01200C9C0CCF0CAC04D
:1045D800CDF0FAEF22F0C7C0B9F0C8C0BAF0CC0EDF
:1045E8000001BB6FCBC0BCF084EC0CF0CCC0F6FF74
:1045F800CDC0F7FF0800F5500009D8A406EF23F056
:1046080008EF23F0EFEF22F0000E0001C86F000E54
:10461800C76F1200BA0EF66E480EF76E000EF86EEF
:1046280001EEC8F010EE28F00900F5CFEEFFE550D6
:10463800E150FAE101EE00F0950EEE6AE806FDE1C0
:104648000001FE6B596A586A576A566A556A5A9049
:104658005A92000EF86E0001B1EF13F0000E00013F
:10466800681B000E691B000E6A1B800E6B1B64C062
:1046780046F065C047F066C048F067C049F068C0BA
:104688004AF069C04BF06AC04CF06BC04DF00EECBC
:1046980008F046C064F047C065F048C066F049C0FD
:1046A80067F01200D20E0001DA6FCEC0DBF0CFC087
:1046B800DCF0000EDF6F000EDE6F000EE66F000EFE
:1046C800E56FDB0EC76FC86BD0C0C9F0D1C0CAF0A8
:1046D800DA0ECB6FE9EC22F00001DE51CE25D96E5F
:1046E800DF51CF21DA6EDF6A1200000E166E000E5F
:1046F800156E8AEF23F014C007F0086A12C009F09B
:1047080013C00AF023EC20F0154A162A155010247D
:10471800D96E16501120DA6EDF50146E1450D8A4DA
:1047280098EF23F09AEF23F07FEF23F01200086E42
:1047380008380F0B3009066E0838F00B076E8A969A
:1047480006C0C9FF9EA6ABEF23F0ADEF23F0A6EF9E
:1047580023F09E9607C0C9FF9EA6B5EF23F0B7EFDA
:1047680023F0B0EF23F09E968A8612000001805154
:10477800811182118311D8B4C4EF23F0C6EF23F05E
:10478800CEEF23F0000E801B000E811B000E821B53
:10479800800E831B80C080F081C081F082C082F0CF
:1047A80083C083F0120006C00AF007C00BF008C0EF
:1047B800F6FF09C0F7FF084A092A0AC0D9FF0BC04B
:1047C800DAFF0A4A0B2A0800F5CFDFFFDF50D8A42A
:1047D800F0EF23F0F2EF23F0DBEF23F0120006C036
:1047E80008F007C009F0FBEF23F0064A072A06C0C5
:1047F800D9FF07C0DAFFDF50D8A405EF24F007EF90
:1048080024F0F9EF23F00850065C066E09500758AB
:10481800076E12006B806BB014EF24F016EF24F0D3
:104828000FEF24F0A49E7C0E84EC24F0800E84EC20
:1048380024F0010E84EC24F06B846BB426EF24F092
:1048480028EF24F021EF24F0120011C10AF012C160
:104858000BF013C10CF014C10DF006C00AF007C02C
:104868000BF008C00CF009C00DF00D9E0AC006F050
:104878000BC007F00CC008F00DC009F012000DBE07
:1048880048EF24F04AEF24F050EF24F00CC00CF06D
:104898000DC00DF05CEF24F00CC00EF00DC00FF051
:1048A8000E1E0F1E0E4A0F2A0EC00CF00FC00DF080
:1048B8001200DBFFE0FFFAFFF6FFF2FFD6FFC5FFAD
:1048C800D5FF2030180C06030103060C18309C494C
:1048D8008E49804972496449AA4906500802F3CFB3
:1048E8000AF0F4CF0BF006500902F3500B260750DC
:1048F8000802F3500B260AC006F00BC007F012009E
:10490800066E06C06FFF6DB08CEF24F08EEF24F0BA
:1049180087EF24F0A4AE93EF24F095EF24F08EEF08
:1049280024F0A49E1200D00E546E000E0001C76F32
:10493800000EC86FCEC0C9F0CFC0CAF0540ECB6FFE
:10494800E9EC22F01200066E9EA8ADEF24F0AFEF5E
:1049580024F0A8EF24F006C0ADFF1200066E06B0E2
:1049680002D08C9A01D08C8A1200066E06B002D052
:104978008C9801D08C881200066E06B002D08B98F5
:1049880001D08B881200066E06B002D08C9601D03A
:104998008C861200066E06B002D08C9401D08C84EE
:1049A8001200066E06B002D08C9C01D08C8C1200CE
:0449B80012001200D7
:10FEE200003C6C3636CF0750B98488083CABAA2A4E
:10FEF200BEA3858832DA0FC93F83F9223F00000092
:10FF02003F179ACC373F04B6BA9FAA2A3D00000099
:10FF1200BFDB0FC940E4CB9640DB0F4940DB0FC982
:10FF22003F504F54313A252E3166504F54323A25C4
:10FF32002E3166002020202020202020202020207A
:10FF4200202020200042523A203139323030202005
:10FF5200202020202000506F7A6F72212048616497
:10FF6200212121202020005A6D61636B6E6574652A
:10FF72002042544E322020005242302D41322C2059
:10FF820042523A313932303000566F6C7479206EF9
:10FF92006120504F546563683A004B6F6E65632071
:10FFA2002D206E6577206C696E6500313A74722C73
:10FFB200323A73696E2C333A70696C00286E756C34
:10FFC2006C29004D55534943003E252D2A730025C7
:10FFD20073200A0047414D45004750494F005541A3
:10FFE2005254002564200D00696E66006E616E0039
:0DFFF200444143004144430050574D00007E
:020000040030CA
:04000000FF331F3C6F
:00000001FF
