:0400000006EF1FF0F8
:10100000003C6C3636CF0750B98488083CABAA2A1E
:10101000BEA3858832DA0FC93F83F9223F00000062
:101020003F179ACC373F04B6BA9FAA2A3D0000006A
:10103000BFDB0FC940E4CB9640DB0F4940DB0FC953
:101040003F5242302D41322C2042523A2039363024
:101050003000313A74722C323A73696E2C333A7024
:10106000696C00286E756C6C29004D55534943001E
:101070003E252D2A730047414D45004750494F00FA
:1010800055415254002564200D0044414300414421
:07109000430050574D000022
:101098009AC0B0F09BC0B1F09CC0B2F09DC0B3F054
:1010A8000001B3BF5AEF08F05DEF08F0010E5EEFE4
:1010B80008F0000EA76FB39FDB0EB05D0F0EB1599D
:1010C800490EB2593F0EB359D8B06DEF08F06FEF23
:1010D80008F098EF08F0800EB25D390EB359D8B019
:1010E80078EF08F07AEF08F084EF08F09AC09AF0E9
:1010F8009BC09BF09CC09CF09DC09DF0D0EF0AF077
:101108009AC051F09BC052F09CC053F09DC054F05F
:1011180044EC15F051C09AF052C09BF053C09CF0BB
:1011280054C09DF0D0EF0AF0D20EB05D530EB15905
:101138007B0EB259400EB359D8B0A5EF08F0A7EF0F
:1011480008F08AEF09F0E40EB05DCB0EB159160E27
:10115800B259400EB359D8B0B4EF08F0B6EF08F062
:1011680024EF09F0A751D8B4BCEF08F0BEEF08F09F
:10117800F6EF08F0DB0E456E0F0E466EC90E476E91
:101188003F0E486E9AC041F09BC042F09CC043F0AD
:101198009DC044F0D1EC0AF041C0A8F042C0A9F0CB
:1011A80043C0AAF044C0ABF0A8C051F0A9C052F0A7
:1011B800AAC053F0ABC054F05DEC16F051C078F003
:1011C80052C079F053C07AF054C07BF067EC1FF03E
:1011D80078C09AF079C09BF07AC09CF07BC09DF0F3
:1011E800D0EF0AF09AC041F09BC042F09CC043F097
:1011F8009DC044F0DB0E456E0F0E466EC90E476E5D
:10120800BF0E486ED1EC0AF041C0A8F042C0A9F068
:1012180043C0AAF044C0ABF0A8C051F0A9C052F036
:10122800AAC053F0ABC054F05DEC16F051C09AF070
:1012380052C09BF053C09CF054C09DF0D0EF0AF010
:10124800A751D8A42AEF09F02CEF09F052EF09F0C2
:10125800DB0E456E0F0E466E490E476EC00E486E89
:101268009AC041F09BC042F09CC043F09DC044F03E
:10127800D1EC0AF041C078F042C079F043C07AF06E
:1012880044C07BF067EC1FF078C09EF079C09FF0F7
:101298007AC0A0F07BC0A1F076EF09F0DB0E456EB6
:1012A8000F0E466E490E476E400E486E9AC041F0CA
:1012B8009BC042F09CC043F09DC044F0D1EC0AF0C2
:1012C80041C078F042C079F043C07AF044C07BF066
:1012D80067EC1FF078C09EF079C09FF07AC0A0F04C
:1012E8007BC0A1F09EC051F09FC052F0A0C053F047
:1012F800A1C054F044EC15F051C09AF052C09BF0D4
:1013080053C09CF054C09DF0D0EF0AF0D60EB05DEB
:10131800310EB159E20EB259400EB359D8B097EF19
:1013280009F099EF09F03AEF0AF0E00EB05DED0E22
:10133800B159AF0EB259400EB359D8B0A6EF09F063
:10134800A8EF09F0E8EF09F0A751D8B4AEEF09F01B
:10135800B0EF09F0CCEF09F09AC041F09BC042F021
:101368009CC043F09DC044F0E40E456ECB0E466E23
:10137800960E476E400E486ED1EC0AF041C0A8F0B8
:1013880042C0A9F043C0AAF044C0ABF010EF09F086
:10139800E40E456ECB0E466E960E476EC00E486E36
:1013A8009AC041F09BC042F09CC043F09DC044F0FD
:1013B800D1EC0AF041C0A8F042C0A9F043C0AAF09D
:1013C80044C0ABF0D8EF08F0A751D8A4EEEF09F06D
:1013D800F0EF09F00CEF0AF09AC041F09BC042F020
:1013E8009CC043F09DC044F0DB0E456E0F0E466E68
:1013F800C90E476EC00E486ED1EC0AF041C0A2F08B
:1014080042C0A3F043C0A4F044C0A5F026EF0AF000
:101418009AC041F09BC042F09CC043F09DC044F08C
:10142800DB0E456E0F0E466EC90E476E400E486EB7
:10143800D1EC0AF041C0A2F042C0A3F043C0A4F02E
:1014480044C0A5F0A2C051F0A3C052F0A4C053F00C
:10145800A5C054F044EC15F051C09AF052C09BF06E
:1014680053C09CF054C09DF0D0EF0AF0800EB25DDE
:101478007F0EB359D8A043EF0AF045EF0AF057EFB3
:101488000AF0FF0EB013FF0EB113FF0EB213000ED9
:10149800B313B0C09AF0B1C09BF0B2C09CF0B3C017
:1014A8009DF0D0EF0AF09AC07CF09BC07DF09CC004
:1014B8007EF09DC07FF0AC0E806F46EC0FF000010F
:1014C8007C51030BA66FC1EF0AF0ACC078F0ADC039
:1014D80079F0AEC07AF0AFC07BF067EC1FF078C04F
:1014E800ACF079C0ADF07AC0AEF07BC0AFF0ACC064
:1014F80051F0ADC052F0AEC053F0AFC054F044EC60
:1015080015F051C09AF052C09BF053C09CF054C0E3
:101518009DF0D0EF0AF0ACC051F0ADC052F0AEC0B3
:1015280053F0AFC054F05DEC16F051C09AF052C0C1
:101538009BF053C09CF054C09DF0D0EF0AF0ACC0B3
:1015480051F0ADC052F0AEC053F0AFC054F05DECF6
:1015580016F051C078F052C079F053C07AF054C0F8
:101568007BF067EC1FF078C09AF079C09BF07AC0E6
:101578009CF07BC09DF0D0EF0AF0A651000AD8B4C9
:101588007BEF0AF0010AD8B48FEF0AF0030AD8B447
:1015980069EF0AF0A3EF0AF012004450800B4D6E79
:1015A800445044244F6E43AEDCEF0AF0DEEF0AF0FD
:1015B800DFEF0AF04F804F50D8B4E5EF0AF0E7EFBD
:1015C8000AF0FCEF0AF04F28D8A4EDEF0AF0EFEF8D
:1015D8000AF0F7EF0AF0000E416E000E426E000EA0
:1015E800436E000E446E438E000E446E04EF0BF003
:1015F800000E416E000E426E000E436E000E446EE9
:101608004850800B4E6E4D504E18D8B40EEF0BF06C
:1016180010EF0BF011EF0BF04D8C485048244E6E34
:1016280047AE19EF0BF01BEF0BF01CEF0BF04E80E1
:101638004E50D8B422EF0BF024EF0BF039EF0BF03B
:101648004E28D8A42AEF0BF02CEF0BF034EF0BF058
:10165800000E456E000E466E000E476E000E486E78
:10166800478E000E486E41EF0BF0000E456E000EDF
:10167800466E000E476E000E486E4F504E5CD8B056
:1016880048EF0BF04AEF0BF071EF0BF04DAC4FEF5A
:101698000BF051EF0BF053EF0BF0800E4D1A4FC0CB
:1016A80050F04EC04FF050C04EF041C050F045C011
:1016B80041F050C045F042C050F046C042F050C022
:1016C80046F043C050F047C043F050C047F044C014
:1016D80050F048C044F050C048F0000E506E4F50D3
:1016E8004EC049F04A6A495E000E4A5A4ABE86EF21
:1016F8000BF04A5009E11A0E495CD8A086EF0BF0AE
:1017080088EF0BF0BFEF0BF041504210431044102C
:10171800D8A491EF0BF094EF0BF0010E95EF0BF0BE
:10172800000E506E000E416E000E426E000E436EAB
:10173800000E446E4EC04FF0C8EF0BF050A0A7EF5C
:101748000BF0A9EF0BF0AFEF0BF0D8905030010978
:10175800506EB1EF0BF0D890503241A0B6EF0BF0BD
:10176800B8EF0BF0B9EF0BF0508E443444324332EB
:10177800423241324F2A4E504F5CD8A0C6EF0BF090
:10178800C8EF0BF0A2EF0BF04DBCCDEF0BF0CFEF95
:101798000BF00FEF0CF04F50D8A4D5EF0BF0D7EFAC
:1017A8000BF0E1EF0BF0000E416E000E426E000EE2
:1017B800436E000E446E30EF0DF045504126465002
:1017C8004222475043224850442244A0EEEF0BF0F7
:1017D800F0EF0BF09CEF0CF050A0F5EF0BF0F7EFEB
:1017E8000BF0FDEF0BF0D89050300109506EFFEF71
:1017F8000BF0D890503241A004EF0CF006EF0CF03B
:1018080007EF0CF0508E44344432433242324132B6
:101818004F2A9CEF0CF04550415C465042584750C7
:1018280043584450800A496E4850800A4958D8B0F5
:1018380020EF0CF022EF0CF04DEF0CF04150455C1E
:10184800496E425046584A6E435047584B6E445072
:1018580048584C6EFF0E4924416EFF0E4A20426ED6
:10186800FF0E4B20436EFF0E4C20446E800E4D1A27
:10187800506C5050D8A443EF0CF045EF0CF055EFE6
:101888000CF0010E4126000E42224322442255EF5D
:101898000CF04550415E4650425A4750435A485012
:1018A800445A4150421043104410D8A45EEF0CF043
:1018B80060EF0CF095EF0CF05050D8A466EF0CF0E8
:1018C80068EF0CF095EF0CF0000E416E000E426EC2
:1018D800000E436E000E446E30EF0DF0D890413686
:1018E80042364336443650AE7CEF0CF07EEF0CF0B7
:1018F8007FEF0CF0418050A084EF0CF086EF0CF0E5
:101908008AEF0CF0D88050368CEF0CF0D890503617
:101918004F50D8B492EF0CF094EF0CF095EF0CF018
:101928004F0643AE9AEF0CF09CEF0CF072EF0CF000
:10193800000E4E6E50AEA3EF0CF0A5EF0CF0BDEF0D
:101948000CF050C049F07F0E4916D8B4AEEF0CF039
:10195800B0EF0CF0B4EF0CF0010E4E6EBDEF0CF0D2
:1019680041A0B9EF0CF0BBEF0CF0BDEF0CF0B0EFFD
:101978000CF04E50D8B4C3EF0CF0C5EF0CF0F0EFFC
:101988000CF0010E4126000E42224322442244A0BC
:10199800D0EF0CF0D2EF0CF0F0EF0CF041C049F0B2
:1019A80042C04AF043C04BF044C04CF04C344C3277
:1019B8004B324A32493249C041F04AC042F04BC02A
:1019C80043F04CC044F04F28D8B4EDEF0CF0EFEFE3
:1019D8000CF0F0EF0CF04F2A4F28D8B4F6EF0CF0CB
:1019E800F8EF0CF000EF0DF04F50D8A4FEEF0CF01C
:1019F80000EF0DF012EF0DF0000E416E000E426E7A
:101A0800000E436E000E446E4F50D8A40EEF0DF03A
:101A180010EF0DF012EF0DF0000E4D6E4FA017EF06
:101A28000DF019EF0DF01CEF0DF0438E1DEF0DF0CA
:101A3800439ED8904F30446E4DAE25EF0DF027EF02
:101A48000DF028EF0DF0448E41C041F042C042F045
:101A580043C043F044C044F012001250800B1B6E88
:101A680012501224216E11AE3CEF0DF03EEF0DF036
:101A78003FEF0DF021802150D8B445EF0DF047EF2E
:101A88000DF05AEF0DF02128D8A44DEF0DF04FEFCF
:101A98000DF057EF0DF0000E0F6E000E106E000ED9
:101AA800116E000E126E118E62EF0DF0000E0F6EA9
:101AB800000E106E000E116E000E126E1650800B86
:101AC8001B1A16501624206E15AE6DEF0DF06FEF31
:101AD8000DF070EF0DF020802050D8B476EF0DF0A7
:101AE80078EF0DF08BEF0DF02028D8A47EEF0DF0E5
:101AF80080EF0DF088EF0DF0000E136E000E146EDF
:101B0800000E156E000E166E158E93EF0DF0000E7A
:101B1800136E000E146E000E156E000E166E205019
:101B2800D8B499EF0DF09BEF0DF0A3EF0DF0215015
:101B3800D8A4A1EF0DF0A3EF0DF0ADEF0DF0000E5E
:101B48000F6E000E106E000E116E000E126E45EF35
:101B58000FF015500F02F3CF26F0F4CF27F02650E0
:101B68001C6E1D6A1E6A1F6A2750226E236A246A29
:101B7800256A14501002F3CF26F0F4CF27F0265030
:101B88001C26000E1D221E221F2227502226000E70
:101B980023222422252213501102F3CF26F0F4CF5A
:101BA80027F026501C26000E1D221E221F22275019
:101BB8002226000E2322242225221EC01FF01DC02B
:101BC8001EF01CC01DF01C6A13501002F3CF26F043
:101BD800F4CF27F026501C2627501D22000E1E2267
:101BE800000E1F2214500F02F3CF26F0F4CF27F077
:101BF80026501C2627501D22000E1E22000E1F22D2
:101C08001EC01FF01DC01EF01CC01DF01C6A135022
:101C18000F02F3CF26F0F4CF27F026501C262750CA
:101C28001D22000E1E22000E1F2215501002F3CF97
:101C380026F0F4CF27F02650222627502322000E24
:101C48002422000E252214501102F3CF26F0F4CFDF
:101C580027F02650222627502322000E2422000E89
:101C6800252215501102F3CF26F0F4CF27F0265085
:101C7800176E2750186E196A1A6A19C01AF018C018
:101C880019F017C018F0176A175022261850232287
:101C9800195024221A5025221CC017F01DC018F014
:101CA8001EC019F01FC01AF0190E60EF0EF0D89080
:101CB8001A32193218321732E82E5BEF0EF017502D
:101CC800222618502322195024221A5025221EC0D9
:101CD8001FF01DC01EF01CC01DF01C6A205021C042
:101CE80017F0186A1726000E1822820E1724266E7F
:101CF800FF0E1820276E96EF0EF0D8902236233666
:101D0800243625361FAE8BEF0EF08DEF0EF08EEFDA
:101D18000EF02280D8901C361D361E361F36260639
:101D2800D8A0270624AE9BEF0EF09DEF0EF081EFB2
:101D38000EF0000E206E1FAEA4EF0EF0A6EF0EF010
:101D4800CAEF0EF0FF0E1C14176EFF0E1D14186E4E
:101D5800FF0E1E14196E7F0E1F141A6E17501810DE
:101D680019101A10D8B4BBEF0EF0BDEF0EF0C1EF8A
:101D78000EF0010E206ECAEF0EF022A0C6EF0EF094
:101D8800C8EF0EF0CAEF0EF0BDEF0EF02050D8B439
:101D9800D0EF0EF0D2EF0EF0F6EF0EF0010E222685
:101DA800000E23222422252225A0DDEF0EF0DFEFEE
:101DB8000EF0F6EF0EF022C017F023C018F024C082
:101DC80019F025C01AF01A341A321932183217329B
:101DD80017C022F018C023F019C024F01AC025F04B
:101DE800264A272A27BE01EF0FF0275008E12628A8
:101DF800D8A001EF0FF003EF0FF00DEF0FF0000E7A
:101E0800226E000E236E800E246E7F0E256E3BEF31
:101E18000FF027BE1AEF0FF0275006E12604D8B0BE
:101E280018EF0FF01AEF0FF026EF0FF0000E226EEA
:101E3800000E236E000E246E000E256E000E1B6E23
:101E48003BEF0FF026C021F0FF0E2216FF0E2316DF
:101E58007F0E2416000E251621A035EF0FF037EF60
:101E68000FF038EF0FF0248ED8902130256E1B50DC
:101E7800251222C00FF023C010F024C011F025C095
:101E880012F01200E5C08AF0E6C08BF0E7C08CF0D3
:101E9800E8C08DF07CC08AF07DC08BF07EC08CF0ED
:101EA8007FC08DF000018DBF5CEF0FF05FEF0FF08A
:101EB800010E60EF0FF0000E896F8D9FDB0E8A5DBB
:101EC8000F0E8B59C90E8C594D0E8D59D8B06FEF26
:101ED8000FF071EF0FF05DEF10F07CC001F07DC0E6
:101EE80002F07EC003F07FC004F0BAEC1FF001C01E
:101EF80092F002C093F003C094F004C095F0000E75
:101F0800456E000E466E000E476E3F0E486E830EFD
:101F1800136EF90E146E220E156E3F0E166E92C0D9
:101F28000FF093C010F094C011F095C012F031EC8E
:101F38000DF00FC041F010C042F011C043F012C0C4
:101F480044F0D1EC0AF041C051F042C052F043C015
:101F580053F044C054F047EC1BF051C096F052C007
:101F680097F053C098F054C099F096C001F097C00C
:101F780002F098C003F099C004F0010E4AEC18F082
:101F880001C08EF002C08FF003C090F004C091F041
:101F9800DA0E136E0F0E146EC90E156E3F0E166E06
:101FA8008EC00FF08FC010F090C011F091C012F0E9
:101FB80031EC0DF00FC055F010C056F011C057F0BD
:101FC80012C058F092C051F093C052F094C053F030
:101FD80095C054F0C1EC1EF051C085F052C086F097
:101FE80053C087F054C088F085C051F086C052F0C5
:101FF80087C053F088C054F0A30E136E850E146E7C
:10200800880E156E320E166E8EC00FF08FC010F04F
:1020180090C011F091C012F031EC0DF00FC055F0E6
:1020280010C056F011C057F012C058F0C1EC1EF0A5
:1020380000018051D96EDA6A51C0DEFF52C0DEFF5E
:1020480053C0DEFF54C0DEFF8951D8B42EEF10F024
:1020580030EF10F057EF10F08051D96EDA6ADECF0A
:1020680078F0DECF79F0DECF7AF0DECF7BF067EC68
:102078001FF000018051D96EDA6A78C0DEFF79C09E
:10208800DEFF7AC0DEFF7BC0DEFF96C05BF097C044
:102098005CF05B1E5C1E5B4A5C2A5BC07CF05CC02B
:1020A8007DF026EF11F096C07CF097C07DF026EF0A
:1020B80011F07CC001F07DC002F07EC003F07FC04B
:1020C80004F0BAEC1FF001C092F002C093F003C014
:1020D80094F004C095F0000E456E000E466E000E9A
:1020E800476E3F0E486E830E136EF90E146E220E65
:1020F800156E3F0E166E92C00FF093C010F094C08C
:1021080011F095C012F031EC0DF00FC041F010C085
:1021180042F011C043F012C044F0D1EC0AF041C0C3
:1021280051F042C052F043C053F044C054F047EC61
:102138001BF051C096F052C097F053C098F054C0AD
:1021480099F096C001F097C002F098C003F099C0CA
:1021580004F0010E4AEC18F001C08EF002C08FF0B6
:1021680003C090F004C091F0DA0E136E0F0E146ED7
:10217800C90E156E3F0E166E8EC00FF08FC010F090
:1021880090C011F091C012F031EC0DF00FC055F075
:1021980010C056F011C057F012C058F092C051F05C
:1021A80093C052F094C053F095C054F0C1EC1EF0A7
:1021B80051C085F052C086F053C087F054C088F0F3
:1021C80085C051F086C052F087C053F088C054F0E3
:1021D800A30E136E850E146E880E156E320E166ED3
:1021E8008EC00FF08FC010F090C011F091C012F0A7
:1021F80031EC0DF00FC055F010C056F011C057F07B
:1022080012C058F0C1EC1EF051C081F052C082F0EB
:1022180053C083F054C084F000018051D96EDA6A4B
:1022280081C0DEFF82C0DEFF83C0DEFF84C0DEFF28
:102238008951D8B422EF11F024EF11F057EF10F0C4
:1022480030EF10F012002B50800B386E2B502B24DF
:102258003F6E2AAE32EF11F034EF11F035EF11F086
:102268003F803F50D8B43BEF11F03DEF11F052EFF3
:1022780011F03F28D8A443EF11F045EF11F04DEFCE
:1022880011F0000E286E000E296E000E2A6E000E48
:102298002B6E2A8E000E2B6E5AEF11F0000E286E50
:1022A800000E296E000E2A6E000E2B6E2F50800B2A
:1022B800381A2F502F24406E2EAE65EF11F067EFBD
:1022C80011F068EF11F040804050D8B46EEF11F073
:1022D80070EF11F085EF11F04028D8A476EF11F0D7
:1022E80078EF11F080EF11F0000E2C6E000E2D6EBD
:1022F800000E2E6E000E2F6E2E8E000E2F6E8DEF9E
:1023080011F0000E2C6E000E2D6E000E2E6E000EBB
:102318002F6E2C502D102E102F10D8A496EF11F0E0
:1023280098EF11F0B0EF11F0000E286E000E296E34
:10233800000E2A6E000E2B6E800E2A127F0E2B12B4
:1023480038502B1228C028F029C029F02AC02AF0BA
:102358002BC02BF0F3EF12F03F50D8A4B6EF11F0DA
:10236800B8EF11F0C2EF11F0000E286E000E296EC2
:10237800000E2A6E000E2B6EF3EF12F040503FC095
:1023880030F0316A305E000E315A7F0E3024396EDB
:10239800000E31203A6E28C034F029C035F02AC02A
:1023A80036F02BC037F0000E286E000E296E000E96
:1023B8002A6E000E2B6E000E3B6E000E3C6E000E59
:1023C8003D6E000E3E6E000E406E23EF12F0405040
:1023D800D8B4F1EF11F0F3EF11F00AEF12F0D89042
:1023E8003436353636363736D890283629362A36B2
:1023F8002B363EAE02EF12F004EF12F005EF12F0AA
:102408002880D8903B363C363D363E362C50345CDE
:102418002D5035582E5036582F503758D8A017EF12
:1024280012F019EF12F022EF12F03E8C2C50345EAD
:102438002D50355A2E50365A2F50375A402A190ED9
:10244800406429EF12F02BEF12F0EBEF11F034504B
:10245800351036103710D8B434EF12F036EF12F0CA
:102468004EEF12F03B804EEF12F0D8902836293606
:102478002A362B363EAE43EF12F045EF12F046EF08
:1024880012F02880D8903B363C363D363E36390629
:10249800D8A03A062AAE53EF12F055EF12F039EFF2
:1024A80012F0000E406E3EAE5CEF12F05EEF12F0DE
:1024B80082EF12F0FF0E3B14306EFF0E3C14316EAB
:1024C800FF0E3D14326E7F0E3E14336E30503110C5
:1024D80032103310D8B473EF12F075EF12F079EFB1
:1024E80012F0010E406E82EF12F028A07EEF12F07B
:1024F80080EF12F082EF12F075EF12F04050D8B46E
:1025080088EF12F08AEF12F0AEEF12F0010E2826D3
:10251800000E29222A222B222BA095EF12F097EFEA
:1025280012F0AEEF12F028C030F029C031F02AC006
:1025380032F02BC033F0333433323232313230326E
:1025480030C028F031C029F032C02AF033C02BF057
:10255800394A3A2A3ABEB9EF12F03A5008E1392816
:10256800D8A0B9EF12F0BBEF12F0C6EF12F0000ED0
:102578003A6E3968000E286E000E296E000E2A6E1B
:10258800000E2B6E3ABED3EF12F03A5006E1390432
:10259800D8B0D1EF12F0D3EF12F0E1EF12F0000E45
:1025A8003A6E000E396E000E286E000E296E000E6F
:1025B8002A6E000E2B6E000E386E39C03FF03FA019
:1025C800E8EF12F0EAEF12F0EDEF12F02A8EEEEFDC
:1025D80012F02A9ED8903F302B6EA4EF11F0120013
:1025E8002950D96EDA6ADFCFF6FF100EF76E0800B1
:1025F800F550250AD8A403EF13F005EF13F00DEFFB
:1026080014F02950D96EDA6ADF2A000E0001EA6F49
:10261800000EE96FE9C0EDF0EB69EC69000E316E70
:1026280031EF13F00001ED812950D96EDA6ADF2A03
:1026380031EF13F0010E316E31EF13F02950D96EDE
:10264800DA6ADFCFF6FF100EF76E0800F5502D0A94
:10265800D8B416EF13F01EEF13F03150D8B437EF9B
:1026680013F039EF13F022EF13F029C007F02AC056
:1026780008F01DEC1EF007C0E9F008C0EAF0000100
:10268800EABF4BEF13F049EF13F050EF13F0ED8171
:10269800E96DEA1FD8B0EA2B2950D96EDA6ADF5003
:1026A800306E30C0F6FF100EF76E0800F550640A61
:1026B800D8B461EF13F063EF13F071EF13F030C08B
:1026C800F6FF100EF76E0800F550690AD8A46FEFF0
:1026D80013F071EF13F08EEF13F02A50D96EDA6A07
:1026E800020EDF26DF5CD96EDA6ADECF2CF0DECF91
:1026F8002DF02950D96EDA6A3028DF6E27C01BF01A
:1027080028C01CF02CC01DF02DC01EF09EEC1AF045
:1027180020EF14F0000E316E2950D96EDA6ADFCF3F
:10272800F6FF100EF76E0800F550730AD8A49FEF55
:1027380013F0A1EF13F0A9EF13F02950D96EDA6A5C
:10274800DF2A010E316EEBEF13F02950D96EDA6AE9
:10275800DFCFF6FF100EF76E0800F5506C0AD8A40C
:10276800B8EF13F0BAEF13F0EBEF13F02950D96E6E
:10277800DA6ADF502B6E010E2B262BC0F6FF100EE7
:10278800F76E0800F5506C0AD8A4CDEF13F0CFEF20
:1027980013F0EBEF13F02950D96EDA6ADF502B6E85
:1027A800020E2B262BC0F6FF100EF76E0800F55010
:1027B800730AD8A4E2EF13F0E4EF13F0EBEF13F091
:1027C8002950D96EDA6A030EDF26A5EF13F03150CF
:1027D800D8B4F1EF13F0F3EF13F007EF14F027C0BC
:1027E8000BF028C00CF02A50D96EDA6A020EDF26E8
:1027F800DF5CD96EDA6ADECF0DF0DECF0EF0E5ECE5
:1028080019F020EF14F02950D96EDA6ADF2A20EF88
:1028180014F02950D96EDA6ADFCFF6FF100EF76E82
:102828000800F550026E036A27C004F028C005F0BE
:102838000FEC1DF007EF14F0120094809288928636
:1028480092840F013897389593969496949AC65027
:10285800F00B0209C66EC698C78CC68A3981C09E1D
:10286800C050F80B0609C06EC050C70B3009C06EC7
:10287800C280330EAF6EAB8EAC98AC8AAB888A86BA
:10288800C250830B3009C26E010E0001BD6F010EEC
:10289800BC6F000EBE6F3AEF15F07F0EBE6157EFAA
:1028A80014F059EF14F05CEF14F0BE5148EC1FF02F
:1028B8007E0E0001BE6563EF14F065EF14F0F9EFCA
:1028C80014F0BE51FF0A48EC1FF0F9EF14F0000EA7
:1028D8002C6E000E2D6E7F0E2E6E430E2F6EC30EC5
:1028E800136EF50E146EC80E156E400E166EBE51A0
:1028F800016E026A036A046A010E4AEC18F001C00C
:102908000FF002C010F003C011F004C012F031EC57
:102918000DF00FC028F010C029F011C02AF012C025
:102928002BF027EC11F028C0B4F029C0B5F02AC06C
:10293800B6F02BC0B7F0B4C09AF0B5C09BF0B6C0E3
:102948009CF0B7C09DF04CEC08F09AC0B8F09BC062
:10295800B9F09CC0BAF09DC0BBF0000E456E000EE9
:10296800466EFE0E476E420E486E000E136E000E47
:10297800146EFE0E156E420E166EB8C00FF0B9C07A
:1029880010F0BAC011F0BBC012F031EC0DF00FC05E
:1029980041F010C042F011C043F012C044F0D1EC35
:1029A8000AF041C051F042C052F043C053F044C055
:1029B80054F047EC1BF0515048EC1FF0F9EF14F0BD
:1029C800BE51FF0A48EC1FF0F9EF14F0BD51010A9F
:1029D800D8B451EF14F0030AD8B46BEF14F0010A1D
:1029E800D8B4E4EF14F0F9EF14F0C282C2B2FFEFEA
:1029F80014F001EF15F0FAEF14F0850E376EC4CF1E
:102A080038F0396A24EC20F082A00DEF15F00FEFB2
:102A180015F012EF15F0010E0001BD6F80A817EF39
:102A280015F019EF15F01CEF15F0020E0001BD6F3F
:102A380080A621EF15F023EF15F026EF15F0030E11
:102A48000001BD6F80A42BEF15F02DEF15F030EFCE
:102A580015F0000E0001BC6F0001BE2B680E5D6E04
:102A6800E40EE82EFED75D2EFCD700D00001BC5145
:102A7800D8A441EF15F043EF15F0EAEF14F0120077
:102A880051C00FF052C010F053C011F054C012F0F2
:102A980051C013F052C014F053C015F054C016F0D2
:102AA80031EC0DF00FC078F010C079F011C07AF059
:102AB80012C07BF078C00FF079C010F07AC011F026
:102AC8007BC012F078C013F079C014F07AC015F00A
:102AD8007BC016F031EC0DF00FC064F010C065F04B
:102AE80011C066F012C067F03C0E136E6C0E146EC7
:102AF800360E156E360E166E78C00FF079C010F0CF
:102B08007AC011F07BC012F031EC0DF00FC041F02B
:102B180010C042F011C043F012C044F0CF0E456E11
:102B2800070E466E500E476EB90E486ED1EC0AF08D
:102B380041C060F042C061F043C062F044C063F03D
:102B480078C00FF079C010F07AC011F07BC012F095
:102B580051C013F052C014F053C015F054C016F011
:102B680031EC0DF00FC074F010C075F011C076F0A4
:102B780012C077F0AB0E456EAA0E466E2A0E476E4F
:102B8800BE0E486E840E136E880E146E080E156EF7
:102B98003C0E166E78C00FF079C010F07AC011F0B4
:102BA8007BC012F031EC0DF00FC041F010C042F0C4
:102BB80011C043F012C044F0D1EC0AF041C068F0F3
:102BC80042C069F043C06AF044C06BF064C013F0BF
:102BD80065C014F066C015F067C016F074C00FF039
:102BE80075C010F076C011F077C012F031EC0DF01E
:102BF8000FC06CF010C06DF011C06EF012C06FF015
:102C080051C045F052C046F053C047F054C048F098
:102C180074C013F075C014F076C015F077C016F0C4
:102C280068C00FF069C010F06AC011F06BC012F0F4
:102C380031EC0DF00FC041F010C042F011C043F06C
:102C480012C044F0D1EC0AF041C070F042C071F0FB
:102C580043C072F044C073F070C041F071C042F0DC
:102C680072C043F073C044F060C013F061C014F048
:102C780062C015F063C016F06CC00FF06DC010F0A4
:102C88006EC011F06FC012F031EC0DF00FC045F0BE
:102C980010C046F011C047F012C048F0D1EC0AF05D
:102CA80041C051F042C052F043C053F044C054F008
:102CB800120051C00FF052C010F053C011F054C0B0
:102CC80012F051C013F052C014F053C015F054C0A4
:102CD80016F031EC0DF00FC074F010C075F011C093
:102CE80076F012C077F074C00FF075C010F076C09F
:102CF80011F077C012F074C013F075C014F076C0EC
:102D080015F077C016F031EC0DF00FC070F010C060
:102D180071F011C072F012C073F0170E136E9A0E94
:102D2800146ECC0E156E370E166E74C00FF075C08B
:102D380010F076C011F077C012F031EC0DF00FC032
:102D480041F010C042F011C043F012C044F03F0EF1
:102D5800456E040E466EB60E476EBA0E486ED1EC3E
:102D68000AF041C060F042C061F043C062F044C064
:102D780063F0000E456E000E466E800E476E3F0EE5
:102D8800486E000E136E000E146E000E156EBF0E08
:102D9800166E74C00FF075C010F076C011F077C0D1
:102DA80012F031EC0DF00FC041F010C042F011C02C
:102DB80043F012C044F0D1EC0AF041C064F042C0C4
:102DC80065F043C066F044C067F074C013F075C086
:102DD80014F076C015F077C016F070C00FF071C00F
:102DE80010F072C011F073C012F031EC0DF00FC08A
:102DF80068F010C069F011C06AF012C06BF09F0E45
:102E0800136EAA0E146E2A0E156E3D0E166E70C045
:102E18000FF071C010F072C011F073C012F031ECF5
:102E28000DF00FC045F010C046F011C047F012C0B9
:102E380048F064C041F065C042F066C043F067C026
:102E480044F0D1EC0AF041C06CF042C06DF043C0D0
:102E58006EF044C06FF06CC041F06DC042F06EC0BF
:102E680043F06FC044F060C013F061C014F062C05A
:102E780015F063C016F068C00FF069C010F06AC0A2
:102E880011F06BC012F031EC0DF00FC045F010C01E
:102E980046F011C047F012C048F0D1EC0AF041C02A
:102EA80051F042C052F043C053F044C054F01200F5
:102EB80094809288928692840F01389738959594D9
:102EC800959694989598959A959C8C848C868B88E1
:102ED8008C888C8A8C8C40EC1CF0000E0001C06F32
:102EE800000EBF6F000E4A6EC051CAEC1BF0000105
:102EF800C06F82A082EF17F084EF17F0A6EF17F0EB
:102F0800030E5F6E080E5E6E770EE82EFED75E2EFD
:102F1800FCD75F2EFAD7000082A095EF17F097EF45
:102F280017F0A6EF17F082B09CEF17F09EEF17F09E
:102F380097EF17F0020E4A6E0001C051CAEC1BF061
:102F48000001C06F80A8ABEF17F0ADEF17F0CFEF1F
:102F580017F0030E5F6E080E5E6E770EE82EFED732
:102F68005E2EFCD75F2EFAD7000080A8BEEF17F0C0
:102F7800C0EF17F0CFEF17F080B8C5EF17F0C7EF25
:102F880017F0C0EF17F0010E4A6E0001C051CAECED
:102F98001BF00001C06F80A6D4EF17F0D6EF17F032
:102FA80033EF18F0030E5F6E080E5E6E770EE82E94
:102FB800FED75E2EFCD75F2EFAD7000080A6E7EF7B
:102FC80017F0E9EF17F033EF18F080B6EEEF17F0CF
:102FD800F0EF17F0E9EF17F00FEF18F024EC19F005
:102FE80033EF18F0410E026E0250D8A4100E036E93
:102FF800010E6CEC1DF0520E026E0250D8A4100E99
:10300800036E020E6CEC1DF021EC14F0010E0001B1
:10301800BF6F33EF18F00001C051000AD8B4F2EFC7
:1030280017F0010AD8B433EF18F0030AD8B433EF15
:1030380018F0010AD8B433EF18F0070AD8B4F6EF3D
:1030480017F0010AD8B433EF18F0030AD8B433EFF5
:1030580018F0010AD8B433EF18F033EF18F08050A5
:103068000001BF51D8B43BEF18F03DEF18F07DEFE9
:1030780017F0000E4A6EC051CAEC1BF00001C06F79
:10308800000EBF6F7DEF17F000EF00F0096E0950DA
:10309800D8B451EF18F053EF18F075EF18F004BEDC
:1030A8005AEF18F058EF18F075EF18F001C005F056
:1030B80002C006F003C007F004C008F0051E061E93
:1030C800071E081E052A000E06220722082205C030
:1030D8000BF006C00CF007C00DF008C00EF07DEF35
:1030E80018F001C00BF002C00CF003C00DF004C0D2
:1030F8000EF00150021003100410D8A486EF18F047
:1031080088EF18F092EF18F0000E016E000E026EB4
:10311800000E036E000E046E23EF19F0960E0A6E71
:103128009CEF18F00A2AD8900E320D320C320B326E
:10313800000E0B14056E000E0C14066E000E0D1416
:10314800076EFE0E0E14086E0550061007100810C4
:10315800D8A4B1EF18F0B3EF18F096EF18F0C1EF5C
:1031680018F00A2A010E0B26000E0C220D220E2240
:10317800D8900E320D320C320B32000E0B14056E45
:10318800000E0C14066E000E0D14076EFF0E0E14C2
:10319800086E0550061007100810D8A4D6EF18F0CE
:1031A800D8EF18F0B5EF18F0E0EF18F00A06D8904D
:1031B8000B360C360D360E360DBEE5EF18F0E7EF80
:1031C80018F0EFEF18F0020E0A60EDEF18F0EFEFCD
:1031D80018F0DAEF18F00AB0F4EF18F0F6EF18F07C
:1031E800F7EF18F00D9ED8900A320AC005F0066A6B
:1031F800076A086A05C008F0076A066A056A055082
:103208000B1206500C1207500D1208500E120950DE
:10321800D8B411EF19F013EF19F01BEF19F004BE31
:103228001AEF19F018EF19F01BEF19F00E8E0BC0FA
:1032380001F00CC002F00DC003F00EC004F0120043
:103248009594959694989598959A959C8C848C8647
:103258008B888C888C8A8C8C92840F013895010E0F
:103268001F6E000E1C6E20EECDF010EE10F00B0E4F
:10327800DBCFE3FFE806FCE2D6EF19F020EEC1F061
:1032880010EE04F00B0EDBCFE3FFE806FCE2000EC5
:103298001E6E0C0E1D6E000E216E000E206EA4EF29
:1032A80019F0000E236E000E226E2250020DF3500C
:1032B800100FD96EDA6A02D886EF19F00500FA6E97
:1032C800DE50FD6EDE50FE6EF850FF6EFA50225052
:1032D8000508026E2050040FD96EDA6ADF50036EBB
:1032E800022A79EF19F0D8900332022E77EF19F0FD
:1032F80003A081EF19F084EF19F0010E85EF19F0A2
:10330800000E1200224A232A23BE94EF19F02350FC
:1033180009E1060E225CD8A094EF19F096EF19F097
:1033280059EF19F0150E036E4B0E026EBE0EE82E05
:10333800FED7022EFCD7032EFAD700D0204A212A26
:103348001D50205C2150800A026E1E50800A0258CF
:10335800D8A0B1EF19F0B3EF19F055EF19F080A428
:10336800B8EF19F0BAEF19F0D6EF19F0030E036EA3
:10337800080E026E770EE82EFED7022EFCD7032E1B
:10338800FAD7000080A4CBEF19F0CDEF19F0D6EFF3
:1033980019F080B4D2EF19F0D4EF19F0CDEF19F08D
:1033A800000E1F6E1F50D8A4DCEF19F0DEEF19F0E5
:1033B80042EF19F08C848C868B888C888C8A8C8C54
:1033C80012000DC015F00EC016F015501610D8A436
:1033D800F0EF19F0F2EF19F0F8EF19F0630E156E2F
:1033E8001550D8A4100E166E000E186E000E176E2B
:1033F80000EF1AF0174A182A175015240F6E1850A4
:103408001620106E0FC0F6FF10C0F7FF000EF86E02
:103418000F0EF76403D00800F55005D0F6CFE1FF92
:10342800F7CFE2FFE7500009D8A41DEF1AF01FEF0D
:103438001AF0FEEF19F017C011F018C012F0E9C029
:1034480013F0EAC014F00001EDB12DEF1AF02FEFE0
:103458001AF06BEF1AF03DEF1AF0000E036E200E13
:10346800026E0BC004F00CC005F00FEC1DF0174AFB
:10347800182A1350175C1850800A0F6E1450800ACF
:103488000F58D8A04AEF1AF04CEF1AF031EF1AF0A3
:103498006BEF1AF015C0F6FF16C0F7FF000EF86EB6
:1034A8000F0EF76403D00800F55005D0F6CFE1FF02
:1034B800F7CFE2FFE7500F6E0F50026E036A0BC0A2
:1034C80004F00CC005F00FEC1DF0154A162A110681
:1034D800D8A01206112806E11228D8A476EF1AF00F
:1034E80078EF1AF04EEF1AF00001EDA17EEF1AF016
:1034F80080EF1AF09DEF1AF08EEF1AF0000E036EAF
:10350800200E026E0BC004F00CC005F00FEC1DF08D
:10351800174A182A1350175C1850800A0F6E145057
:10352800800A0F58D8A09BEF1AF09DEF1AF082EF8F
:103538001AF01200010E216E1EBEA5EF1AF0A8EFB8
:103548001AF0010EA9EF1AF0000E246EE9C022F05D
:10355800EAC023F02450D8B4B4EF1AF0B6EF1AF04A
:10356800CDEF1AF02206D8A023062450D8A4BFEF26
:103578001AF0C1EF1AF0C7EF1AF0000E206E2B0EEA
:103588001F6ECBEF1AF0000E206E2D0E1F6E1FC09F
:1035980024F0000E266E1F0E256E000E01011F6F0F
:1035A80005EF1BF02506D8A02606000E2524D96EA7
:1035B800010E2620DA6E1DC001F01EC002F0000EBA
:1035C800046E0A0E036EC5EC1DF001C007F002C0C0
:1035D80008F0D4EC1FF00750300FDF6E000E216E9C
:1035E8002206D8A023061DC001F01EC002F0000E5E
:1035F800046E0A0E036EADEC1CF001C01DF002C093
:103608001EF026BE10EF1BF0265008E12504D8A0B6
:1036180010EF1BF012EF1BF023EF1BF01D501E10D4
:10362800D8A419EF1BF01BEF1BF0D6EF1AF02150AE
:10363800D8A421EF1BF023EF1BF0D6EF1AF024508B
:10364800D8B429EF1BF02BEF1BF036EF1BF0250643
:10365800D8A02606000E2524D96E010E2620DA6E83
:1036680024C0DFFF1BC012F01CC013F0000E25247D
:10367800146E010E2620156E22C016F023C017F016
:1036880070EC1EF01200533454345A6E5A50D8A4B9
:1036980050EF1BF052EF1BF05CEF1BF0000E516E69
:1036A800000E526E000E536E000E546EC9EF1BF0E2
:1036B80051C055F052C056F053C057F054C058F09E
:1036C800200E6CEF1BF0D8905832573256325532D4
:1036D800E82E67EF1BF05550596E538EFF0E5116AA
:1036E800FF0E5216FF0E5316000E5416960E5A5E13
:1036F8005ABE83EF1BF081EF1BF099EF1BF05A5075
:10370800800A970FD8B08BEF1BF08DEF1BF08FEF6F
:103718001BF052EF1BF0D8905432533252325132D0
:103728005A3E8FEF1BF0B1EF1BF01F0E5A649FEF4C
:103738001BF0A1EF1BF0A9EF1BF052EF1BF0D89084
:1037480051365236533654365A065A50D8A4AFEF2B
:103758001BF0B1EF1BF0A3EF1BF05950D8B4B7EF33
:103768001BF0B9EF1BF0C1EF1BF0541E531E521E85
:10377800516C000E52225322542251C051F052C0B3
:1037880052F053C053F054C054F0120000018A6F35
:103798009FEC1FF020EED9F010EE82F0070EDBCF81
:1037A800E3FFE806FCE2F1EF1BF0060E00018A6178
:1037B800E0EF1BF0E2EF1BF000EF1CF08A2B00EFAC
:1037C8001CF000018A51D8B4ECEF1BF0EEEF1BF0AF
:1037D80000EF1CF08A0700EF1CF04A50000AD8B42A
:1037E80000EF1CF0010AD8B4D9EF1BF0030AD8B4D3
:1037F800E5EF1BF000EF1CF0600E376E700E386EB0
:10380800000E3A6E0F0E396E00018A51820FD96E82
:10381800DA6ADF504B6E4BC03BF03B50D8A4100E19
:103828003C6E84EC1FF0710E376E710E386E000E10
:103838003A6E100E396E8AC04BF0010E4B264B5073
:10384800820FD96EDA6ADF504C6E4CC03BF03B50A9
:10385800D8A4100E3C6E84EC1FF0600E026E036A52
:10386800010E6CEC1DF0710E026E036A020E6CEC18
:103878001DF000018A5112000F013B913B93958086
:103888009582929089806C50F00B08096C6E130E2B
:103898006E6E6C8A340E026EF20EE82EFED7022E81
:1038A800FCD76B806BB05BEF1CF05DEF1CF056EF44
:1038B8001CF0A49E7C0E01EC20F0800E01EC20F0A0
:1038C800380E01EC20F0800E01EC20F0390E01ECEE
:1038D80020F0800E01EC20F0170E01EC20F0800E95
:1038E80001EC20F07A0E01EC20F0800E01EC20F0C3
:1038F8005E0E01EC20F0800E01EC20F06B0E01EC66
:1039080020F0800E01EC20F00C0E01EC20F0800E6F
:1039180001EC20F0010E01EC20F0800E01EC20F00B
:10392800060E01EC20F0800E01EC20F0020E01ECF6
:1039380020F06B846BB4A3EF1CF0A5EF1CF09EEF96
:103948001CF0340E026EF20EE82EFED7022EFCD7C3
:103958001200000E066E04BEB6EF1CF0B4EF1CF0A9
:10396800BCEF1CF0036C041ED8B0042A010E066ECE
:1039780002BEC3EF1CF0C1EF1CF0C9EF1CF0016CD4
:10398800021ED8B0022A010E061A000E086E000E9A
:10399800076E03500410D8B4D4EF1CF0D6EF1CF017
:1039A800FEEF1CF0010E056EDEEF1CF0D89003361A
:1039B8000436052A04AEE3EF1CF0E5EF1CF0DAEF5D
:1039C8001CF0D890073608360350015C04500258A2
:1039D800D8A0F1EF1CF0F3EF1CF0F8EF1CF0035047
:1039E800015E0450025A0780D89004320332052E33
:1039F800E5EF1CF00650D8B404EF1DF006EF1DF0FB
:103A08000AEF1DF0076C081ED8B0082A07C001F09D
:103A180008C002F0120004500510D8B416EF1DF0CB
:103A280018EF1DF021EF1DF004500510D8A41FEF6A
:103A38001DF021EF1DF026EF1DF0025031EC20F0B3
:103A48006BEF1DF020EE0AF00450D9260550DA225B
:103A5800DE50DE10D8B433EF1DF035EF1DF050EF17
:103A68001DF020EE0AF00450D9260550DA2210EE97
:103A780003F00450E1260550E222DE50E65CE650F1
:103A8800800A0A6EDE50800A0A58D8B04EEF1DF040
:103A980050EF1DF06BEF1DF020EE03F00450D92617
:103AA8000550DA22DF50066E04C0D9FF05C0DAFFE0
:103AB800DF500624D96EDA6A02C0DFFF20EE03F079
:103AC8000450D9260550DA22DE2A000EDD22120023
:103AD800066E6B806BB073EF1DF075EF1DF06EEF27
:103AE8001DF0A49E7C0E01EC20F0800E01EC20F06D
:103AF8000604D8A482EF1DF084EF1DF089EF1DF0B5
:103B0800800E01EC20F095EF1DF0020E0618D8A4E7
:103B180090EF1DF092EF1DF095EF1DF0C00E01EC37
:103B280020F0400E01EC20F0000E076E0750022432
:103B3800046E000E0320056E04C0F6FF05C0F7FFF3
:103B4800000EF86E0F0EF76403D00800F55005D08C
:103B5800F6CFE1FFF7CFE2FFE75001EC20F0072AAC
:103B68000F0E0764BAEF1DF0BCEF1DF09AEF1DF0C1
:103B78006B846BB4C2EF1DF0C4EF1DF0BDEF1DF0F8
:103B88001200000E066E02BECEEF1DF0CCEF1DF047
:103B9800D4EF1DF0016C021ED8B0022A010E066E89
:103BA80004BEDBEF1DF0D9EF1DF0DFEF1DF0036C55
:103BB800041ED8B0042A03500410D8B4E6EF1DF050
:103BC800E8EF1DF00CEF1EF0010E056EF0EF1DF092
:103BD800D89003360436052A04AEF5EF1DF0F7EF4A
:103BE8001DF0ECEF1DF00350015C04500258D8A002
:103BF80000EF1EF002EF1EF006EF1EF00350015E0C
:103C08000450025AD89004320332052EF7EF1DF003
:103C18000650D8B412EF1EF014EF1EF018EF1EF085
:103C2800016C021ED8B0022A01C001F002C002F0E5
:103C38001200000E0B6E000E0A6E0750D96EDA6A7B
:103C4800DFCFF6FF100EF76E0800F5502A0AD8A449
:103C580030EF1EF032EF1EF058EF1EF00750D96E0D
:103C6800DA6ADF2A0850D96EDA6A020EDF26DF5CCC
:103C7800D96EDA6ADECF0AF0DECF0BF06BEF1EF0FA
:103C88000AC001F00BC002F0000E046E0A0E036EAB
:103C9800EEEC1FF0095001240A6E000E02200B6E94
:103CA8000750D96EDA6ADF2A0750D96EDA6ADFCF91
:103CB800F6FF100EF76E0800F550D00F096E090ECA
:103CC800096469EF1EF06BEF1EF044EF1EF00AC0A6
:103CD80007F00BC008F012000001EDA176EF1EF00E
:103CE80078EF1EF082EF1EF014C00BF015C00CF038
:103CF80012C00DF013C00EF0E4EC1EF017BE89EFF1
:103D08001EF087EF1EF08DEF1EF0000E176E000EEE
:103D1800166E000E1A6E000E196E9FEF1EF0000E42
:103D2800036E200E026E12C004F013C005F00FECF3
:103D38001DF0194A1A2A1650195C1A50800A186E72
:103D48001750800A1858D8A0ACEF1EF0AEEF1EF03E
:103D580093EF1EF00001EDB1B4EF1EF0B6EF1EF0C8
:103D6800C0EF1EF014C00BF015C00CF012C00DF01F
:103D780013C00EF0E4EC1EF01200000E551A000EEF
:103D8800561A000E571A800E581A51C041F052C0E8
:103D980042F053C043F054C044F055C045F056C0FB
:103DA80046F057C047F058C048F0D1EC0AF041C07F
:103DB80051F042C052F043C053F044C054F01200D6
:103DC800000E116E000E106EF5EF1EF00FC002F01F
:103DD800036A0DC004F00EC005F00FEC1DF0104A88
:103DE800112A10500B24D96E11500C20DA6EDF50B6
:103DF8000F6E0F50D8A403EF1FF005EF1FF0EAEF86
:103E08001EF01200280EF66E400EF76E000EF86EC9
:103E180000EEC1F010EE20F00900F5CFEEFFE550FE
:103E2800E150FAE101EE00F0200EEE6AE806FDE14D
:103E380000EEE1F00D0EEE6AE806FDE1000EF86E08
:103E480000015CEF17F034C036F035EF1FF032C0D8
:103E580027F033C028F0360E296E35C02AF0F4EC6E
:103E680012F036C0F6FF100EF76E0800F550000984
:103E7800D8A441EF1FF043EF1FF02BEF1FF0000E07
:103E8800336E000E326E1200036E03380F0B3009CA
:103E9800016E0338F00B026E8A9601C0C9FF9EA618
:103EA80058EF1FF05AEF1FF053EF1FF09E9602C015
:103EB800C9FF9EA662EF1FF064EF1FF05DEF1FF0D1
:103EC8009E968A8612000001785179117A117B1129
:103ED800D8B471EF1FF073EF1FF07BEF1FF0000EE7
:103EE800781B000E791B000E7A1B800E7B1B78C096
:103EF80078F079C079F07AC07AF07BC07BF0120054
:103F0800390E3D6E37C03EF0000E426E000E416E17
:103F1800000E496E000E486E3E0E326E336A38C08F
:103F280034F03D0E356E27EC1FF037504124D96E22
:103F3800DA6ADF6A12006B806BB0A5EF1FF0A7EF9B
:103F48001FF0A0EF1FF0A49E7C0E01EC20F0800E65
:103F580001EC20F0010E01EC20F06B846BB4B7EF9C
:103F68001FF0B9EF1FF0B2EF1FF01200E1C005F02B
:103F7800E2C006F0E3C007F0E4C008F001C005F0B5
:103F880002C006F003C007F004C008F0089E05C090
:103F980001F006C002F007C003F008C004F01200E8
:103FA80008BED9EF1FF0DBEF1FF0E1EF1FF007C0ED
:103FB80007F008C008F0EDEF1FF007C009F008C0CF
:103FC8000AF0091E0A1E094A0A2A09C007F00AC08F
:103FD80008F0120001500302F3CF05F0F4CF06F009
:103FE80001500402F350062602500302F35006263D
:103FF80005C001F006C002F01200016E01C06FFF9B
:104008006DB009EF20F00BEF20F004EF20F0A4AE24
:1040180010EF20F012EF20F00BEF20F0A49E12001A
:104028002030180C06030103060C1830B040A240DB
:10403800944086407840BE407B80928E8A766A891A
:10404800380E3A6E000E326E000E336E37C034F002
:104058003A0E356E27EC1FF01200016E9EA837EF5E
:1040680020F039EF20F032EF20F001C0ADFF120050
:10407800016E01B002D08C9A01D08C8A1200016EB8
:1040880001B002D08C9801D08C881200016E01B06A
:1040980002D08B9801D08B881200016E01B002D03B
:1040A8008C9601D08C861200016E01B002D08C94DF
:1040B80001D08C841200016E01B002D08C9C01D01A
:0440C8008C8C1200CA
:020000040030CA
:04000000FF331F3C6F
:00000001FF
