:04000000A7EF00F076
:100008005A82D9CF03F0DACF04F09DA00EEF00F0AA
:1000180010EF00F049EF00F09EA015EF00F017EF89
:1000280000F049EF00F001012651D8B41EEF00F0AE
:1000380020EF00F049EF00F080A425EF00F027EF53
:1000480000F044EF00F0030E026E080E016E770E0A
:10005800E82EFED7012EFCD7022EFAD7000080A486
:1000680038EF00F03AEF00F044EF00F080B43FEFD3
:1000780000F041EF00F03AEF00F0000E0001FE6FD3
:100088009E0ECF6E580ECE6E9E909DA04EEF00F045
:1000980050EF00F066EF00F09EA055EF00F057EF2C
:1000A80000F066EF00F001012451D8B45EEF00F0D3
:1000B80060EF00F066EF00F0232B0B0ECF6EDC0E26
:1000C800CE6E9E909DAA6BEF00F06DEF00F0A1EF51
:1000D80000F09EAA72EF00F074EF00F0A1EF00F0BC
:1000E80001012551D8B47BEF00F07DEF00F0A1EFBE
:1000F80000F0AECF05F00A0E0518D8B486EF00F070
:1001080088EF00F094EF00F0770E2125D96E010EEC
:100118002221DA6E05C0DFFF214B222BA1EF00F070
:10012800010E966F770E2125D96E010E2221DA6E07
:10013800DF6A000E226F000E216F04C0DAFF03C0D1
:10014800D9FF5A92110046EF27F0000E0001AE6F5A
:1001580086C0AFF087C0B0F088C0B1F089C0B2F0F7
:10016800B2BFBBEF00F0B9EF00F0CFEF00F0010E27
:10017800AE6FAFC080F0B0C081F0B1C082F0B2C045
:1001880083F045EC28F080C0AFF081C0B0F082C0A9
:10019800B1F083C0B2F0000E0001B46F000EB36F6F
:1001A80055C09EF056C09FF0AE51D8B4DEEF00F0B7
:1001B800E0EF00F0F4EF00F0AE51D8A4E6EF00F065
:1001C800E8EF00F0EEEF00F0000E946F2B0E936F47
:1001D800F2EF00F0000E946F2D0E936F93C0AEF007
:1001E800AFC006F0B0C007F0B1C008F0B2C009F067
:1001F8003EEC22F006040710D8A405EF01F007EF43
:1002080001F03AEF01F00001AE51D8B40EEF01F061
:1002180010EF01F019EF01F0AEC027F19E07D8A04A
:100228009F07000EB46F010EB36F270EB325066E3D
:10023800010EB421076EEB0E086EFF0E096E62EC1C
:1002480028F00001FD0E9E27FF0E9F2384C017F0A3
:1002580085C018F0270E196E010E1A6E9EC01BF08D
:100268009FC01CF0C6EC25F0A5EF05F0AFC006F066
:10027800B0C007F0B1C008F0B2C009F03EEC22F0FF
:1002880006500710D8A44BEF01F04DEF01F06DEFC9
:1002980001F00001AE51D8B454EF01F056EF01F06F
:1002A8005FEF01F0AEC027F19E07D8A09F07000EB0
:1002B800B46F010EB36F270EB325066E010EB4217D
:1002C800076EEF0E086EFF0E096E62EC28F025EF40
:1002D80001F0000E0001B56F000EB66F800EB76F0B
:1002E8003F0EB86F000E9D6F000E9C6FAFC006F0FA
:1002F800B0C007F0B1C008F0B2C009F0000E0A6E35
:10030800000E0B6E000E0C6E000E0D6E71EC25F0DB
:10031800D8B091EF01F093EF01F072EF02F0A0EF87
:1003280001F0A0C0B5F0A1C0B6F0A2C0B7F0A3C05C
:10033800B8F000019C4B9D2BB5C014F0B6C015F069
:10034800B7C016F0B8C017F0000E186E000E196E80
:10035800200E1A6E410E1B6E3AEC0DF014C0A0F080
:1003680015C0A1F016C0A2F017C0A3F00001A0515B
:10037800AF5D066EA151B059076EA251B159086E12
:10038800A351B259096E1BEC27F009BED7EF01F053
:1003980009500810071009E1020E065CD8A0D7EF33
:1003A80001F0D9EF01F095EF01F0A0C02DF0A1C048
:1003B8002EF0A2C02FF0A3C030F0AFC031F0B0C013
:1003C80032F0B1C033F0B2C034F0BCEC21F0D8A0A8
:1003D800F0EF01F0F2EF01F095EF01F00001B551F7
:1003E800AF5D066EB651B059076EB751B159086E78
:1003F800B851B259096E1BEC27F009BE11EF02F093
:1004080009500810071007E1020E065CD8B00FEF7C
:1004180002F011EF02F059EF02F0B5C0AFF0B6C02C
:10042800B0F0B7C0B1F0B8C0B2F072EF02F0B5C02A
:100438002DF0B6C02EF0B7C02FF0B8C030F0000EC7
:10044800316E000E326E200E336E410E346E2AEC81
:1004580013F02DC0B5F02EC0B6F02FC0B7F030C0E5
:10046800B8F000019C07D8A09D07B551AF5D066E96
:10047800B651B059076EB751B159086EB851B25953
:10048800096E1BEC27F009BE57EF02F0095008105F
:10049800071007E1020E065CD8B055EF02F057EFDF
:1004A80002F059EF02F011EF02F0AFC02DF0B0C02A
:1004B8002EF0B1C02FF0B2C030F0B5C031F0B6C0E8
:1004C80032F0B7C033F0B8C034F0BCEC21F0D8A09B
:1004D80070EF02F072EF02F01BEF02F08AC096F0A4
:1004E80096C097F058BE7BEF02F07DEF02F083EFE5
:1004F80002F057C08FF058C090F088EF02F0000E5D
:100508000001906F060E8F6F8FC09AF090C09BF01D
:1005180000019A4B9B2B660E9719D8A496EF02F010
:1005280098EF02F0B8EF02F09DBF9FEF02F09DEF49
:1005380002F0ABEF02F0000EB56F000EB66F800E42
:10054800B76F3F0EB86F000E9D6F000E9C6F670E61
:100558009619D8B4B2EF02F0B4EF02F0B8EF02F097
:100568009C519A279D519B23000EA56F000EA46FE6
:10057800AFC0A6F0B0C0A7F0B1C0A8F0B2C0A9F053
:10058800B5C0A0F0B6C0A1F0B7C0A2F0B8C0A3F043
:1005980049EF03F0A6C02DF0A7C02EF0A8C02FF099
:1005A800A9C030F0B5C031F0B6C032F0B7C033F0F2
:1005B800B8C034F02AEC13F02DC046F02EC047F036
:1005C8002FC048F030C049F026EC19F046C0AAF018
:1005D80047C0ABF048C0ACF049C0ADF0AAC064F069
:1005E800ABC065F0ACC066F0ADC067F038EC21F088
:1005F80064C098F065C099F0A6C064F0A7C065F023
:10060800A8C066F0A9C067F0AAC018F0ABC019F07E
:10061800ACC01AF0ADC01BF0B5C014F0B6C015F0F0
:10062800B7C016F0B8C017F03AEC0DF014C068F077
:1006380015C069F016C06AF017C06BF0BDEC27F062
:1006480064C0A6F065C0A7F066C0A8F067C0A9F0AE
:10065800B5C02DF0B6C02EF0B7C02FF0B8C030F03E
:10066800000E316E000E326E200E336E410E346E67
:100678002AEC13F02DC0B5F02EC0B6F02FC0B7F09D
:1006880030C0B8F00001A44BA52B9A51A45DA55128
:10069800800A8B6F9B51800A8B59D8A056EF03F0C4
:1006A80058EF03F0CEEF02F0B5C014F0B6C015F065
:1006B800B7C016F0B8C017F0000E186E000E196E0D
:1006C800A00E1A6E400E1B6E3AEC0DF014C0AAF084
:1006D80015C0ABF016C0ACF017C0ADF0A6C02DF039
:1006E800A7C02EF0A8C02FF0A9C030F0AAC031F0E2
:1006F800ABC032F0ACC033F0ADC034F0BCEC21F08C
:10070800D8B089EF03F08BEF03F096EF03F0000EFB
:100718000001AA6F000EAB6F000EAC6F000EAD6F3C
:10072800BFEF03F0A6C006F0A7C007F0A8C008F006
:10073800A9C009F0AAC00AF0ABC00BF0ACC00CF01D
:10074800ADC00DF071EC25F0D8A0ADEF03F0AFEF20
:1007580003F0BFEF03F0000198B1B5EF03F0B7EF76
:1007680003F0BFEF03F0000EAA6F000EAB6F000E90
:10077800AC6F000EAD6FAFC046F0B0C047F0B1C06F
:1007880048F0B2C049F0AAC04AF0ABC04BF0ACC0C8
:100798004CF0ADC04DF0D9EC0AF046C0A6F047C009
:1007A800A7F048C0A8F049C0A9F0A6C02DF0A7C07E
:1007B8002EF0A8C02FF0A9C030F0000E186E000E61
:1007C800196E200E1A6E410E1B6EA0C014F0A1C047
:1007D80015F0A2C016F0A3C017F03AEC0DF014C043
:1007E80031F015C032F016C033F017C034F0BCEC4D
:1007F80021F0D8A002EF04F004EF04F02DEF04F08C
:1008080000019C4B9D2BA0C014F0A1C015F0A2C004
:1008180016F0A3C017F0000E186E000E196E200E09
:100828001A6E410E1B6E3AEC0DF014C0A0F015C004
:10083800A1F016C0A2F017C0A3F0660E0001971928
:10084800D8A429EF04F02BEF04F02DEF04F09A4B15
:100858009B2BA0C0B5F0A1C0B6F0A2C0B7F0A3C052
:10086800B8F09CC08DF09DC08EF0000E0001956F11
:10087800000E926F000E916F000EA56F000EA46F10
:100888002BEF05F0A6C02DF0A7C02EF0A8C02FF0C2
:10089800A9C030F0B5C031F0B6C032F0B7C033F0FF
:1008A800B8C034F02AEC13F02DC046F02EC047F043
:1008B8002FC048F030C049F026EC19F046C0AAF025
:1008C80047C0ABF048C0ACF049C0ADF0AAC064F076
:1008D800ABC065F0ACC066F0ADC067F038EC21F095
:1008E800000165BF83EF04F0655107E10A0E645DFE
:1008F800D8B081EF04F083EF04F093EF04F0AAC0BE
:1009080064F0ABC065F0ACC066F0ADC067F038EC21
:1009180021F064C098F065C099F097EF04F0000EDC
:10092800996F090E986F00019551D8A49EEF04F0B5
:10093800A0EF04F0C8EF04F08EBFA7EF04F0A5EF16
:1009480004F0C8EF04F0270EB325D96E010EB421C8
:10095800DA6E2E0EDF6EB34BB42B9E07D8A09F071E
:10096800010E956FC8EF04F0270EB325D96E010E5E
:10097800B421DA6E300EDF6EB34BB42B9E07D8A0CD
:100988009F079107D8A0920791519211D8A4CFEF51
:1009980004F0D1EF04F0B8EF04F0270EB325D96EB8
:1009A800010EB421DA6E9851300FDF6EB34BB42BC1
:1009B8009E07D8A09F07A6C064F0A7C065F0A8C08E
:1009C80066F0A9C067F0AAC018F0ABC019F0ACC0B7
:1009D8001AF0ADC01BF0B5C014F0B6C015F0B7C022
:1009E80016F0B8C017F03AEC0DF014C068F015C056
:1009F80069F016C06AF017C06BF0BDEC27F064C050
:100A0800A6F065C0A7F066C0A8F067C0A9F0B5C099
:100A18002DF0B6C02EF0B7C02FF0B8C030F0000EE1
:100A2800316E000E326E200E336E410E346E2AEC9B
:100A380013F02DC0B5F02EC0B6F02FC0B7F030C0FF
:100A4800B8F000018D07D8A08E07A44BA52B9A51AA
:100A5800A45DA551800A8B6F9B51800A8B59D8B031
:100A680038EF05F03AEF05F048EF05F0B4BF46EF70
:100A780005F0B45109E14B0EB35DD8A046EF05F07F
:100A880048EF05F046EF04F0000EA56F4F0EA46F77
:100A9800270EA425D96E010EA521DA6EDF6A270E6E
:100AA8008B6F010E8C6FB3518B5FB4518C5BA4516B
:100AB8008B25066EA5518C21076E270E086E010E38
:100AC800096EB3C00AF0B4C00BF070EC27F0000157
:100AD800B351A45DB36FB451A559B46FAE51D8A446
:100AE80078EF05F07BEF05F0010E7CEF05F0000EC6
:100AF800A46FA56BAE51D8B484EF05F086EF05F06E
:100B080091EF05F0B307D8A0B407270EB325D96E27
:100B1800010EB421DA6EAEC0DFFFA4519E5FA5516D
:100B28009F5B84C017F085C018F0270EB325196E97
:100B3800010EB4211A6E9EC01BF09FC01CF0C6ECBB
:100B480025F012000001BB51D96EDA6ADECFF6FF3C
:100B5800DDCFF7FF0800F550250AD8A4B6EF05F059
:100B6800B8EF05F040EF08F0BB51D96EDA6ADE2A1B
:100B7800000EDD22000E566E000E556E55C059F05F
:100B880057685868000EBF6FE6EF05F05980BB51F3
:100B9800D96EDA6ADE2A000EDD22E6EF05F0010ED4
:100BA800BF6FE6EF05F0BB51D96EDA6ADECFF6FF0C
:100BB800DDCFF7FF0800F5502D0AD8B4CAEF05F0CD
:100BC800D3EF05F0BF51D8B4ECEF05F0EEEF05F028
:100BD800D7EF05F0BBC00CF0BCC00DF01AEC25F047
:100BE8000CC055F00DC056F056BEFFEF05F0FDEFF6
:100BF80005F004EF06F05980556C561ED8B0562AF9
:100C08000001BB51D96EDA6ADECFF6FFDDCFF7FF00
:100C18000800F5502E0AD8A414EF06F016EF06F0D7
:100C280026EF06F0BB51D96EDA6ADE2A000EDD2205
:100C3800BBC00CF0BCC00DF01AEC25F00CC057F08E
:100C48000DC058F00001BB51D96EDA6ADECFC5F08D
:100C5800DDCFC6F0C5C0F6FFC6C0F7FF0800F5CF68
:100C6800C4F043EF06F0C54BC62B56EF06F0690EED
:100C7800C46F56EF06F0000EC46F56EF06F0C4516D
:100C8800640AD8B43BEF06F00C0AD8B437EF06F084
:100C9800010AD8B43BEF06F01C0AD8B43BEF06F0C3
:100CA8003FEF06F0C5C0F6FFC6C0F7FF0800F550D5
:100CB800640AD8B462EF06F064EF06F090EF06F02D
:100CC800C5C0F6FFC6C0F7FF0800F550690AD8A4EA
:100CD80070EF06F072EF06F0B4EF06F090EF06F052
:100CE800BC51D96EDA6A020EDF26DF5CD96EDA6A89
:100CF800DECFC0F0DECFC1F09BEF06F0BC51D96E5D
:100D0800DA6A020EDF26DF5CD96EDA6ADECFC0F05F
:100D1800DECFC1F09BEF06F0C451680AD8B482EF69
:100D280006F0010AD8B474EF06F09BEF06F0010E46
:100D3800C525BD6F000EC621BE6FBB51D96EDA6ADC
:100D4800BDC0DEFFBEC0DDFFB9C020F0BAC021F0D3
:100D5800C0C022F0C1C023F0E2EC1DF053EF08F050
:100D6800C5C0F6FFC6C0F7FF0800F550750AD8A43D
:100D7800C0EF06F0C2EF06F012EF07F0E0EF06F062
:100D8800BC51D96EDA6A020EDF26DF5CD96EDA6AE8
:100D9800DECFC0F0DECFC1F0EBEF06F0BC51D96E6C
:100DA800DA6A020EDF26DF5CD96EDA6ADECFC0F0BF
:100DB800DECFC1F0EBEF06F0C451680AD8B4D2EF29
:100DC80006F0010AD8B4C4EF06F0EBEF06F0010E06
:100DD800C525BD6F000EC621BE6FBB51D96EDA6A3C
:100DE800BDC0DEFFBEC0DDFF06EF07F0B9C020F0D2
:100DF800BAC021F0C0C022F0C1C023F0BDEC22F07F
:100E080053EF08F0C5C0F6FFC6C0F7FF0800F5505D
:100E1800750AD8B4FAEF06F012EF07F0000EBF6FAC
:100E2800BB51D96EDA6ADECFF6FFDDCFF7FF0800D7
:100E3800F550730AD8A423EF07F025EF07F02FEF3A
:100E480007F0BB51D96EDA6ADE2A000EDD22010EE8
:100E5800BF6F7BEF07F0BB51D96EDA6ADECFF6FFC2
:100E6800DDCFF7FF0800F5506C0AD8A43EEF07F075
:100E780040EF07F07BEF07F0BB51D96EDA6ADECF9F
:100E8800BDF0DDCFBEF0010EBD27000EBE23BDC0F4
:100E9800F6FFBEC0F7FF0800F5506C0AD8A457EF5C
:100EA80007F059EF07F07BEF07F0BB51D96EDA6A0C
:100EB800DECFBDF0DDCFBEF0020EBD27000EBE2393
:100EC800BDC0F6FFBEC0F7FF0800F550730AD8A4EE
:100ED80070EF07F072EF07F07BEF07F0BB51D96EA8
:100EE800DA6A030EDE26000EDD222BEF07F0BF5173
:100EF800D8B481EF07F083EF07F097EF07F0B9C098
:100F080010F0BAC011F0BC51D96EDA6A020EDF26B1
:100F1800DF5CD96EDA6ADECF12F0DECF13F013ECA5
:100F28001DF053EF08F0BB51D96EDA6ADECFC5F079
:100F3800DDCFC6F0C5C0F6FFC6C0F7FF0800F5CF85
:100F4800C4F0B3EF07F0C54BC62BC2EF07F06C0E29
:100F5800C46FC2EF07F0000EC46FC2EF07F0C451B0
:100F68004C0AD8B4A7EF07F02A0AD8B4ABEF07F0B9
:100F78000A0AD8B4A7EF07F0AFEF07F0C5C0F6FF2D
:100F8800C6C0F7FF0800F550660AD8A4CEEF07F0F0
:100F9800D0EF07F037EF08F0FAEF07F0BC51D96E41
:100FA800DA6ADFCFBDF0040EDF26BD51D96EDA6AEA
:100FB800DECFC0F0DECFC1F0DECFC2F0DECFC3F0AF
:100FC80005EF08F0BC51D96EDA6ADFCFBDF0040E28
:100FD800DF26BD51D96EDA6ADECFC0F0DECFC1F0B0
:100FE800DECFC2F0DECFC3F005EF08F0C4514C0AE3
:100FF800D8B4E6EF07F0200AD8B4D2EF07F005EF2F
:1010080008F0010EC525BD6F000EC621BE6FBB518D
:10101800D96EDA6ABDC0DEFFBEC0DDFF2BEF08F077
:10102800B9C084F0BAC085F0C0C086F0C1C087F0EE
:10103800C2C088F0C3C089F0C5C0F6FFC6C0F7FFBC
:101048000800F5CF8AF0A9EC00F053EF08F0C5C00E
:10105800F6FFC6C0F7FF0800F550660AD8B414EFCB
:1010680008F037EF08F00001BB51D96EDA6ADE2AC2
:10107800000EDD2253EF08F0BB51D96EDA6ADECFDD
:10108800F6FFDDCFF7FF0800F550076E086AB9C014
:1010980009F0BAC00AF0A2EC23F037EF08F012000A
:1010A800A4C0BAF0A5C0BBF0A6C0BCF0A7C0BDF0F4
:1010B8000001BDBF62EF08F065EF08F0010E66EFB2
:1010C80008F0000EB16FBD9FDB0EBA5D0F0EBB5965
:1010D800490EBC593F0EBD59D8B075EF08F077EFEF
:1010E80008F0A0EF08F0800EBC5D390EBD59D8B0ED
:1010F80080EF08F082EF08F08CEF08F0A4C0A4F0AD
:10110800A5C0A5F0A6C0A6F0A7C0A7F0D8EF0AF022
:10111800A4C064F0A5C065F0A6C066F0A7C067F0DB
:101128000DEC18F064C0A4F065C0A5F066C0A6F088
:1011380067C0A7F0D8EF0AF0D20EBA5D530EBB59BC
:101148007B0EBC59400EBD59D8B0ADEF08F0AFEFDB
:1011580008F092EF09F0E40EBA5DCB0EBB59160EFB
:10116800BC59400EBD59D8B0BCEF08F0BEEF08F02E
:101178002CEF09F0B151D8B4C4EF08F0C6EF08F06D
:10118800FEEF08F0DB0E4A6E0F0E4B6EC90E4C6E6A
:101198003F0E4D6EA4C046F0A5C047F0A6C048F06B
:1011A800A7C049F0D9EC0AF046C0B2F047C0B3F086
:1011B80048C0B4F049C0B5F0B2C064F0B3C065F03F
:1011C800B4C066F0B5C067F03AEC1BF064C080F0BC
:1011D80065C081F066C082F067C083F045EC28F0F6
:1011E80080C0A4F081C0A5F082C0A6F083C0A7F09B
:1011F800D8EF0AF0A4C046F0A5C047F0A6C048F052
:10120800A7C049F0DB0E4A6E0F0E4B6EC90E4C6E2E
:10121800BF0E4D6ED9EC0AF046C0B2F047C0B3F02D
:1012280048C0B4F049C0B5F0B2C064F0B3C065F0CE
:10123800B4C066F0B5C067F03AEC1BF064C0A4F027
:1012480065C0A5F066C0A6F067C0A7F0D8EF0AF0A1
:10125800B151D8A432EF09F034EF09F05AEF09F090
:10126800DB0E4A6E0F0E4B6E490E4C6EC00E4D6E65
:10127800A4C046F0A5C047F0A6C048F0A7C049F0F2
:10128800D9EC0AF046C080F047C081F048C082F02F
:1012980049C083F045EC28F080C0A8F081C0A9F0CF
:1012A80082C0AAF083C0ABF07EEF09F0DB0E4A6E75
:1012B8000F0E4B6E490E4C6E400E4D6EA4C046F09C
:1012C800A5C047F0A6C048F0A7C049F0D9EC0AF07D
:1012D80046C080F047C081F048C082F049C083F022
:1012E80045EC28F080C0A8F081C0A9F082C0AAF01F
:1012F80083C0ABF0A8C064F0A9C065F0AAC066F0CE
:10130800ABC067F00DEC18F064C0A4F065C0A5F0A0
:1013180066C0A6F067C0A7F0D8EF0AF0D60EBA5D8F
:10132800310EBB59E20EBC59400EBD59D8B09FEFE3
:1013380009F0A1EF09F042EF0AF0E00EBA5DED0EF8
:10134800BB59AF0EBC59400EBD59D8B0AEEF09F02D
:10135800B0EF09F0F0EF09F0B151D8B4B6EF09F0E9
:10136800B8EF09F0D4EF09F0A4C046F0A5C047F0E3
:10137800A6C048F0A7C049F0E40E4A6ECB0E4B6EEB
:10138800960E4C6E400E4D6ED9EC0AF046C0B2F087
:1013980047C0B3F048C0B4F049C0B5F018EF09F041
:1013A800E40E4A6ECB0E4B6E960E4C6EC00E4D6E12
:1013B800A4C046F0A5C047F0A6C048F0A7C049F0B1
:1013C800D9EC0AF046C0B2F047C0B3F048C0B4F058
:1013D80049C0B5F0E0EF08F0B151D8A4F6EF09F034
:1013E800F8EF09F014EF0AF0A4C046F0A5C047F0E2
:1013F800A6C048F0A7C049F0DB0E4A6E0F0E4B6E30
:10140800C90E4C6EC00E4D6ED9EC0AF046C0ACF059
:1014180047C0ADF048C0AEF049C0AFF02EEF0AF0BB
:10142800A4C046F0A5C047F0A6C048F0A7C049F040
:10143800DB0E4A6E0F0E4B6EC90E4C6E400E4D6E93
:10144800D9EC0AF046C0ACF047C0ADF048C0AEF0E9
:1014580049C0AFF0ACC064F0ADC065F0AEC066F096
:10146800AFC067F00DEC18F064C0A4F065C0A5F03B
:1014780066C0A6F067C0A7F0D8EF0AF0800EBC5D82
:101488007F0EBD59D8A04BEF0AF04DEF0AF05FEF81
:101498000AF0FF0EBA13FF0EBB13FF0EBC13000EAB
:1014A800BD13BAC0A4F0BBC0A5F0BCC0A6F0BDC0B7
:1014B800A7F0D8EF0AF0A4C084F0A5C085F0A6C0B4
:1014C80086F0A7C087F0B60E886F49EC11F00001CE
:1014D8008451030BB06FC9EF0AF0B6C080F0B7C0F3
:1014E80081F0B8C082F0B9C083F045EC28F080C024
:1014F800B6F081C0B7F082C0B8F083C0B9F0B6C00A
:1015080064F0B7C065F0B8C066F0B9C067F00DEC1C
:1015180018F064C0A4F065C0A5F066C0A6F067C066
:10152800A7F0D8EF0AF0B6C064F0B7C065F0B8C04D
:1015380066F0B9C067F03AEC1BF064C0A4F065C06F
:10154800A5F066C0A6F067C0A7F0D8EF0AF0B6C04D
:1015580064F0B7C065F0B8C066F0B9C067F03AEC9F
:101568001BF064C080F065C081F066C082F067C07F
:1015780083F045EC28F080C0A4F081C0A5F082C0BB
:10158800A6F083C0A7F0D8EF0AF0B051000AD8B48B
:1015980083EF0AF0010AD8B497EF0AF0030AD8B427
:1015A80071EF0AF0ABEF0AF012004950800B00010E
:1015B800606F49504924626F48AEE5EF0AF0E7EFE3
:1015C8000AF0E8EF0AF062816251D8B4EEEF0AF04F
:1015D800F0EF0AF005EF0BF06229D8A4F6EF0AF055
:1015E800F8EF0AF000EF0BF0000E466E000E476EA3
:1015F800000E486E000E496E488E000E496E0DEFC3
:101608000BF0000E466E000E476E000E486E000E80
:10161800496E4D50800B616F60516119D8B417EF56
:101628000BF019EF0BF01AEF0BF0608D4D504D24B5
:10163800616F4CAE22EF0BF024EF0BF025EF0BF0AF
:1016480061816151D8B42BEF0BF02DEF0BF042EF15
:101658000BF06129D8A433EF0BF035EF0BF03DEF19
:101668000BF0000E4A6E000E4B6E000E4C6E000E14
:101678004D6E4C8E000E4D6E4AEF0BF0000E4A6E0A
:10168800000E4B6E000E4C6E000E4D6E6251615D89
:10169800D8B051EF0BF053EF0BF07AEF0BF060ADD1
:1016A80058EF0BF05AEF0BF05CEF0BF0800E601B5D
:1016B80062C063F061C062F063C061F046C063F06D
:1016C8004AC046F063C04AF047C063F04BC047F0D9
:1016D80063C04BF048C063F04CC048F063C04CF0A6
:1016E80049C063F04DC049F063C04DF0000E636F10
:1016F800625161C04EF04F6A4E5E000E4F5A4FBEA7
:101708008FEF0BF04F5009E11A0E4E5CD8A08FEF07
:101718000BF091EF0BF0C8EF0BF046504710481054
:101728004910D8A49AEF0BF09DEF0BF0010E9EEF35
:101738000BF0000E636F000E466E000E476E000E33
:10174800486E000E496E61C062F0D1EF0BF063A1E4
:10175800B0EF0BF0B2EF0BF0B8EF0BF0D8906331AD
:101768000109636FBAEF0BF0D890633346A0BFEF5F
:101778000BF0C1EF0BF0C2EF0BF0638F4934493225
:10178800483247324632622B6151625DD8A0CFEFB2
:101798000BF0D1EF0BF0ABEF0BF060BDD6EF0BF019
:1017A800D8EF0BF018EF0CF06251D8A4DEEF0BF075
:1017B800E0EF0BF0EAEF0BF0000E466E000E476EFE
:1017C800000E486E000E496E39EF0DF04A5046265D
:1017D8004B5047224C5048224D50492249A0F7EF20
:1017E8000BF0F9EF0BF0A5EF0CF063A1FEEF0BF097
:1017F80000EF0CF006EF0CF0D89063310109636F2D
:1018080008EF0CF0D890633346A00DEF0CF00FEF03
:101818000CF010EF0CF0638F4934493248324732EC
:101828004632622BA5EF0CF04A50465C4B504758A5
:101838004C5048584950800A4E6E4D50800A4E58B8
:10184800D8B029EF0CF02BEF0CF056EF0CF0465007
:101858004A5C4E6E47504B584F6E48504C58506E2D
:1018680049504D58516EFF0E4E24466EFF0E4F20C4
:10187800476EFF0E5020486EFF0E5120496E800EB5
:10188800601B636D6351D8A44CEF0CF04EEF0CF065
:101898005EEF0CF0010E4626000E47224822492230
:1018A8005EEF0CF04A50465E4B50475A4C50485A2F
:1018B8004D50495A4650471048104910D8A467EF70
:1018C8000CF069EF0CF09EEF0CF06351D8A46FEFA9
:1018D8000CF071EF0CF09EEF0CF0000E466E000E4F
:1018E800476E000E486E000E496E39EF0DF0D89025
:1018F800463647364836493663AF85EF0CF087EFF2
:101908000CF088EF0CF0468063A18DEF0CF08FEFA0
:101918000CF093EF0CF0D880633795EF0CF0D8906B
:1019280063376251D8B49BEF0CF09DEF0CF09EEF3B
:101938000CF0620748AEA3EF0CF0A5EF0CF07BEFBC
:101948000CF0000E616F63AFACEF0CF0AEEF0CF073
:10195800C6EF0CF063C04EF07F0E4E16D8B4B7EF4A
:101968000CF0B9EF0CF0BDEF0CF0010E616FC6EF93
:101978000CF046A0C2EF0CF0C4EF0CF0C6EF0CF070
:10198800B9EF0CF06151D8B4CCEF0CF0CEEF0CF0FD
:10199800F9EF0CF0010E4626000E47224822492294
:1019A80049A0D9EF0CF0DBEF0CF0F9EF0CF046C0D2
:1019B8004EF047C04FF048C050F049C051F0513484
:1019C800513250324F324E324EC046F04FC047F07F
:1019D80050C048F051C049F06229D8B4F6EF0CF075
:1019E800F8EF0CF0F9EF0CF0622B6229D8B4FFEF96
:1019F8000CF001EF0DF009EF0DF06251D8A407EFDC
:101A08000DF009EF0DF01BEF0DF0000E466E000E05
:101A1800476E000E486E000E496E6251D8A417EF4B
:101A28000DF019EF0DF01BEF0DF0000E606F62A1C5
:101A380020EF0DF022EF0DF025EF0DF0488E26EF88
:101A48000DF0489ED8906231496E60AF2EEF0DF0D0
:101A580030EF0DF031EF0DF0498E46C046F047C02B
:101A680047F048C048F049C049F012001750800BB1
:101A7800206E17501724266E16AE45EF0DF047EF6F
:101A88000DF048EF0DF026802650D8B44EEF0DF03B
:101A980050EF0DF063EF0DF02628D8A456EF0DF0A7
:101AA80058EF0DF060EF0DF0000E146E000E156E7D
:101AB800000E166E000E176E168E6BEF0DF0000EF0
:101AC800146E000E156E000E166E000E176E1B506B
:101AD800800B201A1B501B24216E1AAE76EF0DF0D6
:101AE80078EF0DF079EF0DF021802150D8B47FEF19
:101AF8000DF081EF0DF094EF0DF02128D8A487EFB9
:101B08000DF089EF0DF091EF0DF0000E186E000E3C
:101B1800196E000E1A6E000E1B6E1A8E9CEF0DF0D9
:101B2800000E186E000E196E000E1A6E000E1B6E57
:101B38002150D8B4A2EF0DF0A4EF0DF0ACEF0DF0EA
:101B48002650D8A4AAEF0DF0ACEF0DF0B6EF0DF0CB
:101B5800000E146E000E156E000E166E000E176E37
:101B68004EEF0FF01A501402F3CF2BF0F4CF2CF0F5
:101B78002B50226E236A246A256A2C50276E286A05
:101B8800296A2A6A19501502F3CF2BF0F4CF2CF0EA
:101B98002B502226000E2322242225222C502726D1
:101BA800000E282229222A2218501602F3CF2BF0E1
:101BB800F4CF2CF02B502226000E2322242225229B
:101BC8002C502726000E282229222A2224C025F05C
:101BD80023C024F022C023F0226A18501502F3CF44
:101BE8002BF0F4CF2CF02B5022262C502322000E61
:101BF8002422000E252219501402F3CF2BF0F4CF23
:101C08002CF02B5022262C502322000E2422000ECA
:101C1800252224C025F023C024F022C023F0226A04
:101C280018501402F3CF2BF0F4CF2CF02B502226AF
:101C38002C502322000E2422000E25221A501502B1
:101C4800F3CF2BF0F4CF2CF02B5027262C50282242
:101C5800000E2922000E2A2219501602F3CF2BF06B
:101C6800F4CF2CF02B5027262C502822000E2922A6
:101C7800000E2A221A501602F3CF2BF0F4CF2CF0C4
:101C88002B501C6E2C501D6E1E6A1F6A1EC01FF042
:101C98001DC01EF01CC01DF01C6A1C5027261D50BC
:101CA80028221E5029221F502A2222C01CF023C09D
:101CB8001DF024C01EF025C01FF0190E69EF0EF0AC
:101CC800D8901F321E321D321C32E82E64EF0EF0FF
:101CD8001C5027261D5028221E5029221F502A2218
:101CE80024C025F023C024F022C023F0226A21500A
:101CF80026C01CF01D6A1C26000E1D22820E1C2404
:101D08002B6EFF0E1D202C6E9FEF0EF0D8902736FD
:101D1800283629362A3625AE94EF0EF096EF0EF0C7
:101D280097EF0EF02780D8902236233624362536B2
:101D38002B06D8A02C0629AEA4EF0EF0A6EF0EF0C5
:101D48008AEF0EF0000E216E25AEADEF0EF0AFEF6C
:101D58000EF0D3EF0EF0FF0E22141C6EFF0E2314AC
:101D68001D6EFF0E24141E6E7F0E25141F6E1C5050
:101D78001D101E101F10D8B4C4EF0EF0C6EF0EF0E1
:101D8800CAEF0EF0010E216ED3EF0EF027A0CFEFB1
:101D98000EF0D1EF0EF0D3EF0EF0C6EF0EF021509B
:101DA800D8B4D9EF0EF0DBEF0EF0FFEF0EF0010E16
:101DB8002726000E282229222A222AA0E6EF0EF042
:101DC800E8EF0EF0FFEF0EF027C01CF028C01DF062
:101DD80029C01EF02AC01FF01F341F321E321D32C8
:101DE8001C321CC027F01DC028F01EC029F01FC0DF
:101DF8002AF02B4A2C2A2CBE0AEF0FF02C5008E1AF
:101E08002B28D8A00AEF0FF00CEF0FF016EF0FF009
:101E1800000E276E000E286E800E296E7F0E2A6E29
:101E280044EF0FF02CBE23EF0FF02C5006E12B04EB
:101E3800D8B021EF0FF023EF0FF02FEF0FF0000EC7
:101E4800276E000E286E000E296E000E2A6E000EF8
:101E5800206E44EF0FF02BC026F0FF0E2716FF0E62
:101E680028167F0E2916000E2A1626A03EEF0FF020
:101E780040EF0FF041EF0FF0298ED89026302A6EF0
:101E880020502A1227C014F028C015F029C016F0D7
:101E98002AC017F012009594959694989598959A5B
:101EA800959C0F013B953B973A993B993B9B3B9DF2
:101EB8008C848C868B888C888C8A8C8C92843895C0
:101EC800388BC08EC050F80B0609C06EC050C70BC7
:101ED8003009C06EC28021EE9BF0100EDE6AE80663
:101EE800FDE23F0ECD16300ECD129D80F28CF28EA3
:101EF800010E0101246F9E800B0ECF6EDC0ECE6E9C
:101F0800CD80000E236F010EC76F21EEACF0180EC6
:101F1800DE6AE806FDE24FEC26F012C018F013C0A6
:101F280019F0000E1B6E210E1A6E07EC24F0020E3B
:101F380018240101CB6F000E1920CC6FAC0E0001E4
:101F4800CE6F010ECF6F770ED06FFE0ED16FCBC163
:101F5800D2F0CCC1D3F0E1EC27F0AC0E076E010E45
:101F6800086E010E69EC24F0010E0101C66F35EF11
:101F780011F0C250830B1009C26EC282C2B2C7EF01
:101F88000FF0C9EF0FF0C2EF0FF0C350C4CFE7F066
:101F98000001E86BE7C0E8F0E76BE7110101C96FE2
:101FA8000001E8510101CA6F9B0E0001CE6F010EBE
:101FB800CF6FAF0ED06FFE0ED16FC9C1D2F0CAC1BC
:101FC800D3F0E1EC27F09B0E076E010E086E020EAF
:101FD80069EC24F004EF10F01A0EC86F18EF10F037
:101FE800180EC86F18EF10F0120EC86F18EF10F027
:101FF800100EC86F18EF10F00F0EC86F18EF10F022
:102008000101C751010AD8B4F0EF0FF0030AD8B4A0
:10201800F4EF0FF0010AD8B4F8EF0FF0070AD8B4BC
:10202800FCEF0FF000EF10F0C8C106F02351EDEC03
:1020380026F00101C56FEEEF10F08C848C868B883A
:102048008C888C8A8C8C11EF11F08C948C868B8800
:102058008C888C8A8C8C11EF11F08C948C968B88E0
:102068008C888C8A8C8C11EF11F08C948C968B98C0
:102078008C888C8A8C8C11EF11F08C948C968B98B0
:102088008C988C8A8C8C11EF11F08C948C968B9890
:102098008C988C9A8C8C11EF11F08C948C968B9870
:1020A8008C988C9A8C9C11EF11F0000E236FFE0E09
:1020B800CB250001E76FFF0E0101CC210001E86F7D
:1020C800E7510101C95D0001E8510101CA59D8A0D1
:1020D80070EF10F072EF10F0BAEF10F0020ECB258F
:1020E8000001E76F000E0101CC210001E86F01013A
:1020F800C9510001E75D0101CA510001E859D8A0A2
:1021080088EF10F08AEF10F0BAEF10F00101C72B3A
:102118004FEC26F012C018F013C019F0000E1B6E19
:10212800210E1A6E07EC24F0020E18240101CB6F61
:10213800000E1920CC6FAC0E0001CE6F010ECF6FD0
:10214800770ED06FFE0ED16FCBC1D2F0CCC1D3F0D9
:10215800E1EC27F0010E0101C66FAC0E076E010E0F
:10216800086E010E69EC24F011EF11F0C290AC0E6C
:102178000001CE6F010ECF6F9D0ED06FFE0ED16F96
:10218800FF0E0101C7250001D26FD36BFF0ED323C9
:10219800E1EC27F0C00E076EFE0E086E010E69EC2A
:1021A80024F0AC0E076E010E086E020E69EC24F0E6
:1021B800000E0101C66F520E0001E86F2B0EE76F8B
:1021C800000EE82EFED7E72FFCD7E82FFAD700003D
:1021D80011EF11F0C551000AD8B421EF10F0010A2F
:1021E800D8B429EF10F0030AD8B431EF10F0010A7F
:1021F800D8B439EF10F0070AD8B441EF10F0010A4B
:10220800D8B449EF10F0030AD8B451EF10F0010A1E
:10221800D8B459EF10F011EF11F080A416EF11F0B7
:1022280018EF11F035EF11F0030E0001E86F080EFA
:10223800E76F770EE82EFED7E72FFCD7E82FFAD7FF
:1022480080A429EF11F02BEF11F035EF11F080B4D5
:1022580030EF11F032EF11F02BEF11F0000E010109
:10226800C66F0101C651D8A43CEF11F03EEF11F042
:10227800BDEF0FF08C848C868B888C888C8A8C8C34
:10228800CD909D90000E246F120015C194F016C1D8
:1022980095F017C196F018C197F084C094F085C0E6
:1022A80095F086C096F087C097F0000197BF5FEF62
:1022B80011F062EF11F0010E63EF11F0000E936F51
:1022C800979FDB0E945D0F0E9559C90E96594D0ECA
:1022D8009759D8B072EF11F074EF11F060EF12F067
:1022E80084C006F085C007F086C008F087C009F0F2
:1022F800B4EC28F006C09CF007C09DF008C09EF022
:1023080009C09FF0000E4A6E000E4B6E000E4C6E18
:102318003F0E4D6E830E186EF90E196E220E1A6E50
:102328003F0E1B6E9CC014F09DC015F09EC016F0A9
:102338009FC017F03AEC0DF014C046F015C047F0F6
:1023480016C048F017C049F0D9EC0AF046C064F04E
:1023580047C065F048C066F049C067F038EC21F026
:1023680064C0A0F065C0A1F066C0A2F067C0A3F089
:10237800A0C006F0A1C007F0A2C008F0A3C009F0F1
:10238800010E39EC1CF006C098F007C099F008C09F
:102398009AF009C09BF0DA0E186E0F0E196EC90E6E
:1023A8001A6E3F0E1B6E98C014F099C015F09AC0B3
:1023B80016F09BC017F03AEC0DF014C068F015C089
:1023C80069F016C06AF017C06BF09CC064F09DC03D
:1023D80065F09EC066F09FC067F0BDEC27F064C052
:1023E8008FF065C090F066C091F067C092F08FC022
:1023F80064F090C065F091C066F092C067F0A30EDB
:10240800186E850E196E880E1A6E320E1B6E98C0E5
:1024180014F099C015F09AC016F09BC017F03AEC6A
:102428000DF014C068F015C069F016C06AF017C046
:102438006BF0BDEC27F000018851D96EDA6A64C0F0
:10244800DEFF65C0DEFF66C0DEFF67C0DEFF9351BA
:10245800D8B431EF12F033EF12F05AEF12F088517E
:10246800D96EDA6ADECF80F0DECF81F0DECF82F07F
:10247800DECF83F045EC28F000018851D96EDA6A86
:1024880080C0DEFF81C0DEFF82C0DEFF83C0DEFFCA
:10249800A0C089F0A1C08AF0891F8A1F894B8A2BA6
:1024A80089C084F08AC085F029EF13F0A0C084F0B9
:1024B800A1C085F029EF13F084C006F085C007F0AD
:1024C80086C008F087C009F0B4EC28F006C09CF07C
:1024D80007C09DF008C09EF009C09FF0000E4A6E2C
:1024E800000E4B6E000E4C6E3F0E4D6E830E186E36
:1024F800F90E196E220E1A6E3F0E1B6E9CC014F058
:102508009DC015F09EC016F09FC017F03AEC0DF074
:1025180014C046F015C047F016C048F017C049F07F
:10252800D9EC0AF046C064F047C065F048C066F0D0
:1025380049C067F038EC21F064C0A0F065C0A1F094
:1025480066C0A2F067C0A3F0A0C006F0A1C007F063
:10255800A2C008F0A3C009F0010E39EC1CF006C0B7
:1025680098F007C099F008C09AF009C09BF0DA0EFD
:10257800186E0F0E196EC90E1A6E3F0E1B6E98C09C
:1025880014F099C015F09AC016F09BC017F03AECF9
:102598000DF014C068F015C069F016C06AF017C0D5
:1025A8006BF09CC064F09DC065F09EC066F09FC053
:1025B80067F0BDEC27F064C08FF065C090F066C08E
:1025C80091F067C092F08FC064F090C065F091C040
:1025D80066F092C067F0A30E186E850E196E880E0D
:1025E8001A6E320E1B6E98C014F099C015F09AC07E
:1025F80016F09BC017F03AEC0DF014C068F015C047
:1026080069F016C06AF017C06BF0BDEC27F064C023
:102618008BF065C08CF066C08DF067C08EF000014D
:102628008851D96EDA6A8BC0DEFF8CC0DEFF8DC0A0
:10263800DEFF8EC0DEFF9351D8B425EF13F027EFED
:1026480013F05AEF12F033EF12F012003050800BF3
:102658003D6E30503024446E2FAE35EF13F037EF17
:1026680013F038EF13F044804450D8B43EEF13F021
:1026780040EF13F055EF13F04428D8A446EF13F0B9
:1026880048EF13F050EF13F0000E2D6E000E2E6E73
:10269800000E2F6E000E306E2F8E000E306E5DEF26
:1026A80013F0000E2D6E000E2E6E000E2F6E000E13
:1026B800306E3450800B3D1A34503424456E33AE9E
:1026C80068EF13F06AEF13F06BEF13F04580455095
:1026D800D8B471EF13F073EF13F088EF13F04528B7
:1026E800D8A479EF13F07BEF13F083EF13F0000E0B
:1026F800316E000E326E000E336E000E346E338E65
:10270800000E346E90EF13F0000E316E000E326E34
:10271800000E336E000E346E315032103310341008
:10272800D8A499EF13F09BEF13F0B3EF13F0000E5A
:102738002D6E000E2E6E000E2F6E000E306E800E67
:102748002F127F0E30123D5030122DC02DF02EC0AA
:102758002EF02FC02FF030C030F0F6EF14F04450B8
:10276800D8A4B9EF13F0BBEF13F0C5EF13F0000EC8
:102778002D6E000E2E6E000E2F6E000E306EF6EFD0
:1027880014F0455044C035F0366A355E000E365AAE
:102798007F0E35243E6E000E36203F6E2DC039F078
:1027A8002EC03AF02FC03BF030C03CF0000E2D6E2A
:1027B800000E2E6E000E2F6E000E306E000E406E54
:1027C800000E416E000E426E000E436E000E456E06
:1027D80026EF14F04550D8B4F4EF13F0F6EF13F0E9
:1027E8000DEF14F0D89039363A363B363C36D8904F
:1027F8002D362E362F36303643AE05EF14F007EF60
:1028080014F008EF14F02D80D89040364136423647
:1028180043363150395C32503A5833503B58345073
:102828003C58D8A01AEF14F01CEF14F025EF14F060
:10283800438C3150395E32503A5A33503B5A3450F7
:102848003C5A452A190E45642CEF14F02EEF14F06B
:10285800EEEF13F039503A103B103C10D8B437EF74
:1028680014F039EF14F051EF14F0408051EF14F0E8
:10287800D8902D362E362F36303643AE46EF14F02C
:1028880048EF14F049EF14F02D80D89040364136C7
:10289800423643363E06D8A03F062FAE56EF14F018
:1028A80058EF14F03CEF14F0000E456E43AE5FEFA6
:1028B80014F061EF14F085EF14F0FF0E4014356E3C
:1028C800FF0E4114366EFF0E4214376E7F0E43140E
:1028D800386E3550361037103810D8B476EF14F0FB
:1028E80078EF14F07CEF14F0010E456E85EF14F0CC
:1028F8002DA081EF14F083EF14F085EF14F078EF3A
:1029080014F04550D8B48BEF14F08DEF14F0B1EFFC
:1029180014F0010E2D26000E2E222F22302230A078
:1029280098EF14F09AEF14F0B1EF14F02DC035F0D1
:102938002EC036F02FC037F030C038F03834383277
:1029480037323632353235C02DF036C02EF037C02A
:102958002FF038C030F03E4A3F2A3FBEBCEF14F09B
:102968003F5008E13E28D8A0BCEF14F0BEEF14F0A9
:10297800C9EF14F0000E3F6E3E68000E2D6E000E7B
:102988002E6E000E2F6E000E306E3FBED6EF14F086
:102998003F5006E13E04D8B0D4EF14F0D6EF14F05F
:1029A800E4EF14F0000E3F6E000E3E6E000E2D6E2A
:1029B800000E2E6E000E2F6E000E306E000E3D6E55
:1029C8003EC044F044A0EBEF14F0EDEF14F0F0EF4C
:1029D80014F02F8EF1EF14F02F9ED8904430306E03
:1029E800A7EF13F01200050E0001FB6F0F0EFA6F30
:1029F800F10EE82EFED7FA2FFCD7FB2FFAD79480DA
:102A08009288928692840F01389738959594959676
:102A180094989598959A959C8C848C868B888C88AC
:102A28008C8A8C8C35EC23F0000E0001FD6F000EB3
:102A3800FC6FF30E076EFE0E086E010E69EC24F0B3
:102A4800260E076EFF0E086E020E69EC24F0520E79
:102A58000001FB6F2B0EFA6F000EE82EFED7FA2F3F
:102A6800FCD7FB2FFAD70000000E0001E76FFD51DD
:102A7800AFEC20F00001FD6F82A045EF15F047EFA5
:102A880015F069EF15F0030E0001FB6F080EFA6FE1
:102A9800770EE82EFED7FA2FFCD7FB2FFAD782A0A5
:102AA80058EF15F05AEF15F069EF15F0020E000116
:102AB800E76FFD51AFEC20F00001FD6F82B067EFCA
:102AC80015F069EF15F062EF15F080A86EEF15F0BC
:102AD80070EF15F092EF15F0030E0001FB6F080E72
:102AE800FA6F770EE82EFED7FA2FFCD7FB2FFAD70E
:102AF80080A881EF15F083EF15F092EF15F0010E25
:102B08000001E76FFD51AFEC20F00001FD6F80B8C8
:102B180090EF15F092EF15F08BEF15F080A697EF78
:102B280015F099EF15F082EF16F0030E0001FB6F18
:102B3800080EFA6F770EE82EFED7FA2FFCD7FB2F78
:102B4800FAD780A6AAEF15F0ACEF15F082EF16F0D1
:102B580080B6B1EF15F0B3EF15F0ACEF15F062EFFA
:102B680016F0150E076EFF0E086E010E69EC24F0C4
:102B7800790E076EFE0E086E020E69EC24F056EC14
:102B88001FF0010E0001FC6F82EF16F0E20E076ED7
:102B9800FE0E086E010E69EC24F08C0E076EFF0E17
:102BA800086E020E69EC24F0A0EC1EF0C5EF15F0DB
:102BB800480E076EFF0E086E010E69EC24F0790EC0
:102BC800076EFE0E086E020E69EC24F00CEC20F085
:102BD800C5EF15F07B0E076EFF0E086E010E69EC4F
:102BE80024F031EC1AF0C5EF15F06A0E076EFF0EEF
:102BF800086E010E69EC24F09D0E076EFF0E086E3C
:102C0800020E69EC24F099EC16F0C5EF15F0370EBA
:102C1800076EFF0E086E010E69EC24F0790E076E40
:102C2800FE0E086E020E69EC24F0290E0001FB6FFF
:102C3800960EFA6F7F0EE82EFED7FA2FFCD7FB2FE1
:102C4800FAD7040E076EFF0E086E010E69EC24F029
:102C5800290E0001FB6F960EFA6F7F0EE82EFED745
:102C6800FA2FFCD7FB2FFAD7AE0E076EFF0E086EB1
:102C7800020E69EC24F0520E0001FB6F2B0EFA6F66
:102C8800000EE82EFED7FA2FFCD7FB2FFAD700004C
:102C98004FEC0FF0C5EF15F0D10E076EFE0E086E63
:102CA800010E69EC24F0590E076EFF0E086E020E35
:102CB80069EC24F067EC29F0C5EF15F00001FD512F
:102CC800000AD8B4B5EF15F0010AD8B4CAEF15F068
:102CD800030AD8B4DCEF15F0010AD8B4EEEF15F00A
:102CE800070AD8B4F9EF15F0010AD8B40BEF16F0BB
:102CF800030AD8B450EF16F082EF16F080500001A6
:102D0800FC51D8B48AEF16F08CEF16F040EF15F0AE
:102D1800000EE76FFD51AFEC20F00001FD6F000ED3
:102D2800FC6F40EF15F0A7EF00F094809288928630
:102D380092840F013897389593969496949AC65032
:102D4800F00B0209C66EC698C78CC68A3981C09E28
:102D5800C050F80B0609C06EC050C70B3009C06ED2
:102D6800C280190EAF6EAB8EAC98AC8AAB888A86DF
:102D7800C250830B3009C26E010E0001DC6F010ED8
:102D8800DB6F000EDD6F03EF18F07F0EDD61CFEF14
:102D980016F0D1EF16F0F9EF16F0330E186E330E69
:102DA800196EF30E1A6E3F0E1B6EDD51066E076A22
:102DB800086A096A010E39EC1CF006C014F007C055
:102DC80015F008C016F009C017F03AEC0DF014C061
:102DD80064F015C065F016C066F017C067F038ECEF
:102DE80021F00001645126EC28F07E0E0001DD651B
:102DF80000EF17F002EF17F0BEEF17F0330E186E62
:102E0800330E196EF30E1A6E3F0E1B6EDD51FF0A5C
:102E1800D26FD251066E076A086A096A010E39EC48
:102E28001CF006C014F007C015F008C016F009C061
:102E380017F03AEC0DF014C064F015C065F016C038
:102E480066F017C067F038EC21F00001645126ECF9
:102E580028F0BEEF17F0000E316E000E326E7F0EB6
:102E6800336E430E346EC30E186EF50E196EC80E0F
:102E78001A6E400E1B6EDD51066E076A086A096AF3
:102E8800010E39EC1CF006C014F007C015F008C09C
:102E980016F009C017F03AEC0DF014C02DF015C06B
:102EA8002EF016C02FF017C030F02AEC13F02DC00A
:102EB800D3F02EC0D4F02FC0D5F030C0D6F0D3C098
:102EC800A4F0D4C0A5F0D5C0A6F0D6C0A7F054ECA5
:102ED80008F0A4C0D7F0A5C0D8F0A6C0D9F0A7C004
:102EE800DAF0000E4A6E000E4B6EFE0E4C6E420E6D
:102EF8004D6E000E186E000E196EFE0E1A6E420E02
:102F08001B6ED7C014F0D8C015F0D9C016F0DAC0BF
:102F180017F03AEC0DF014C046F015C047F016C093
:102F280048F017C049F0D9EC0AF046C064F047C031
:102F380065F048C066F049C067F038EC21F0000140
:102F4800645126EC28F0BEEF17F0DD51FF0A26EC9D
:102F580028F0BEEF17F0DC51010AD8B4C9EF16F01B
:102F6800030AD8B42FEF17F0010AD8B4A9EF17F065
:102F7800BEEF17F0C282C2B2C4EF17F0C6EF17F067
:102F8800BFEF17F0E60E0001CE6FFF0ECF6FC4CF74
:102F9800D0F0D16B22EC29F082A0D5EF17F0D7EF53
:102FA80017F0DAEF17F0010E0001DC6F80A8DFEFF1
:102FB80017F0E1EF17F0E4EF17F0020E0001DC6FF5
:102FC80080A6E9EF17F0EBEF17F0EEEF17F0030E1E
:102FD8000001DC6F80A4F3EF17F0F5EF17F0F8EFBE
:102FE80017F0000E0001DB6F0001DD2B680E0001F9
:102FF800D26FE40EE82EFED7D22FFCD700000001D6
:10300800DB51D8A40AEF18F00CEF18F0AFEF17F067
:10301800120064C014F065C015F066C016F067C0F1
:1030280017F064C018F065C019F066C01AF067C0E0
:103038001BF03AEC0DF014C080F015C081F016C0FA
:1030480082F017C083F080C014F081C015F082C0F0
:1030580016F083C017F080C018F081C019F082C044
:103068001AF083C01BF03AEC0DF014C06CF015C0D8
:103078006DF016C06EF017C06FF03C0E186E6C0E37
:10308800196E360E1A6E360E1B6E80C014F081C093
:1030980015F082C016F083C017F03AEC0DF014C09A
:1030A80046F015C047F016C048F017C049F0CF0EDB
:1030B8004A6E070E4B6E500E4C6EB90E4D6ED9EC23
:1030C8000AF046C068F047C069F048C06AF049C0D5
:1030D8006BF080C014F081C015F082C016F083C078
:1030E80017F064C018F065C019F066C01AF067C020
:1030F8001BF03AEC0DF014C07CF015C07DF016C042
:103108007EF017C07FF0AB0E4A6EAA0E4B6E2A0EE9
:103118004C6EBE0E4D6E840E186E880E196E080E1B
:103128001A6E3C0E1B6E80C014F081C015F082C070
:1031380016F083C017F03AEC0DF014C046F015C035
:1031480047F016C048F017C049F0D9EC0AF046C05D
:1031580070F047C071F048C072F049C073F06CC09D
:1031680018F06DC019F06EC01AF06FC01BF07CC06B
:1031780014F07DC015F07EC016F07FC017F03AEC51
:103188000DF014C074F015C075F016C076F017C0B5
:1031980077F064C04AF065C04BF066C04CF067C079
:1031A8004DF07CC018F07DC019F07EC01AF07FC0C9
:1031B8001BF070C014F071C015F072C016F073C027
:1031C80017F03AEC0DF014C046F015C047F016C0E1
:1031D80048F017C049F0D9EC0AF046C078F047C06B
:1031E80079F048C07AF049C07BF078C046F079C0E1
:1031F80047F07AC048F07BC049F068C018F069C051
:1032080019F06AC01AF06BC01BF074C014F075C0D6
:1032180015F076C016F077C017F03AEC0DF014C030
:103228004AF015C04BF016C04CF017C04DF0D9EC61
:103238000AF046C064F047C065F048C066F049C06F
:1032480067F0120019C166F01AC167F01BC168F077
:103258001CC169F046C066F047C067F048C068F016
:1032680049C069F0810E4A6EFF0E4B6E66C04CF085
:1032780067C04DF068C04EF069C04FF0180E4AEFB5
:1032880019F0D8904F324E324D324C32E82E45EF7D
:1032980019F04C504A240001646F000E4B20656FF2
:1032A80065BF60EF19F0655109E1170E645DD8A09C
:1032B80060EF19F062EF19F06CEF19F046C046F0B4
:1032C80047C047F048C048F049C049F030EF1AF00D
:1032D80065BF71EF19F073EF19F0E4EF19F064C0EE
:1032E8004AF0FF0E4B6EFF0E4C6E7F0E4D6E000EB9
:1032F8004E6E4A6682EF19F08AEF19F04E344E325C
:103308004D324C324B324A2E7DEF19F04BC060F0F3
:103318004CC061F04DC062F04EC063F000016051D6
:1033280066154A6E615167154B6E625168154C6E91
:10333800635169154D6E4A504B104C104D10D8A46E
:10334800A8EF19F0AAEF19F0ACEF19F062EF19F035
:1033580066C04AF067C04BF068C04CF069C04DF0D9
:10336800200EBCEF19F0D8904D324C324B324A3215
:10337800E82EB7EF19F04A504B104C104D10D8B446
:10338800C8EF19F0CAEF19F0D2EF19F060516627AB
:10339800615167236251682363516923601D4A6E36
:1033A800611D4B6E621D4C6E631D4D6E4A50661753
:1033B8004B5067174C5068174D50691728EF1AF093
:1033C80066C04AF067C04BF068C04CF069C04DF069
:1033D800200EF4EF19F0D8904D324C324B324A326D
:1033E800E82EEFEF19F04A504B104C104D10D8A4AE
:1033F80000EF1AF002EF1AF00CEF1AF0000E666FE9
:10340800000E676F000E686F000E696F28EF1AF0E4
:10341800D89066354A6E67354B6E68354C6E69359F
:103428004D6E4A504B104C104D10D8B41EEF1AF088
:1034380020EF1AF028EF1AF0000E666F000E676F83
:10344800800E686FBF0E696F66C046F067C047F0B0
:1034580068C048F069C049F012000F01388B3C8100
:10346800C08EC050F80B0609C06EC050C70B30099B
:10347800C06EC28021EE9BF0100EDE6AE806FDE207
:10348800010E0101B86F2FEF1BF0C250830B140916
:10349800C26EC282C2B253EF1AF055EF1AF04EEF65
:1034A8001AF0C350C4CFE7F00001E86BE7C0E8F0BA
:1034B800E76BE7110101B46F0001E8510101B56F35
:1034C800000E316EC00E326E7F0E336E440E346EB7
:1034D800B4C106F0B5C107F0086A096A000E39ECF4
:1034E8001CF006C02DF007C02EF008C02FF009C050
:1034F80030F02AEC13F02DC014F02EC015F02FC0B8
:1035080016F030C017F0330E186E330E196E530EC6
:103518001A6E400E1B6E3AEC0DF014C0ACF115C0DB
:10352800ADF116C0AEF117C0AFF1C250830B100950
:10353800C26EC282C2B2A3EF1AF0A5EF1AF09EEFD4
:103548001AF0C350C4CFE7F00001E86BE7C0E8F019
:10355800E76BE7110101B66F0001E8510101B76F90
:10356800000E316EC00E326E7F0E336E440E346E16
:10357800B6C106F0B7C107F0086A096A000E39EC4F
:103588001CF006C02DF007C02EF008C02FF009C0AF
:1035980030F02AEC13F02DC014F02EC015F02FC017
:1035A80016F030C017F0330E186E330E196E530E26
:1035B8001A6E400E1B6E3AEC0DF014C0B0F115C037
:1035C800B1F116C0B2F117C0B3F19B0E0001CE6F76
:1035D800010ECF6F8A0ED06FFE0ED16FACC1D2F044
:1035E800ADC1D3F0AEC1D4F0AFC1D5F0B0C1D6F003
:1035F800B1C1D7F0B2C1D8F0B3C1D9F0E1EC27F02E
:103608009B0E076E010E086E020E69EC24F080A472
:1036180010EF1BF012EF1BF02FEF1BF0030E000151
:10362800E86F080EE76F770EE82EFED7E72FFCD776
:10363800E82FFAD780A423EF1BF025EF1BF02FEF1C
:103648001BF080B42AEF1BF02CEF1BF025EF1BF0CA
:10365800000E0101B86F0101B851D8A436EF1BF074
:1036680038EF1BF049EF1AF0C290120064C014F052
:1036780065C015F066C016F067C017F064C018F092
:1036880065C019F066C01AF067C01BF03AEC0DF07F
:1036980014C07CF015C07DF016C07EF017C07FF016
:1036A8007CC014F07DC015F07EC016F07FC017F006
:1036B8007CC018F07DC019F07EC01AF07FC01BF0E6
:1036C8003AEC0DF014C078F015C079F016C07AF015
:1036D80017C07BF0170E186E9A0E196ECC0E1A6E64
:1036E800370E1B6E7CC014F07DC015F07EC016F03E
:1036F8007FC017F03AEC0DF014C046F015C047F043
:1037080016C048F017C049F03F0E4A6E040E4B6EC3
:10371800B60E4C6EBA0E4D6ED9EC0AF046C068F083
:1037280047C069F048C06AF049C06BF0000E4A6EA5
:10373800000E4B6E800E4C6E3F0E4D6E000E186ED6
:10374800000E196E000E1A6EBF0E1B6E7CC014F0B0
:103758007DC015F07EC016F07FC017F03AEC0DF072
:1037680014C046F015C047F016C048F017C049F01D
:10377800D9EC0AF046C06CF047C06DF048C06EF056
:1037880049C06FF07CC018F07DC019F07EC01AF0F7
:103798007FC01BF078C014F079C015F07AC016F01D
:1037A8007BC017F03AEC0DF014C070F015C071F042
:1037B80016C072F017C073F09F0E186EAA0E196E1D
:1037C8002A0E1A6E3D0E1B6E78C014F079C015F0E3
:1037D8007AC016F07BC017F03AEC0DF014C04AF02E
:1037E80015C04BF016C04CF017C04DF06CC046F039
:1037F8006DC047F06EC048F06FC049F0D9EC0AF0D0
:1038080046C074F047C075F048C076F049C077F0FC
:1038180074C046F075C047F076C048F077C049F0EC
:1038280068C018F069C019F06AC01AF06BC01BF0C4
:1038380070C014F071C015F072C016F073C017F0A4
:103848003AEC0DF014C04AF015C04BF016C04CF01D
:1038580017C04DF0D9EC0AF046C064F047C065F0D7
:1038680048C066F049C067F012000E6E0E50D8B41A
:1038780040EF1CF042EF1CF064EF1CF009BE49EF6A
:103888001CF047EF1CF064EF1CF006C00AF007C0FC
:103898000BF008C00CF009C00DF00A1E0B1E0C1E20
:1038A8000D1E0A2A000E0B220C220D220AC010F04F
:1038B8000BC011F00CC012F00DC013F06CEF1CF02F
:1038C80006C010F007C011F008C012F009C013F0CC
:1038D8000650071008100910D8A475EF1CF077EFF0
:1038E8001CF081EF1CF0000E066E000E076E000E35
:1038F800086E000E096E12EF1DF0960E0F6E8BEF1C
:103908001CF00F2AD8901332123211321032000EE6
:1039180010140A6E000E11140B6E000E12140C6EA9
:10392800FE0E13140D6E0A500B100C100D10D8A4B7
:10393800A0EF1CF0A2EF1CF085EF1CF0B0EF1CF01C
:103948000F2A010E1026000E112212221322D890DF
:103958001332123211321032000E10140A6E000E99
:1039680011140B6E000E12140C6EFF0E13140D6E54
:103978000A500B100C100D10D8A4C5EF1CF0C7EF9F
:103988001CF0A4EF1CF0CFEF1CF00F06D8901036F7
:1039980011361236133612BED4EF1CF0D6EF1CF0D7
:1039A800DEEF1CF0020E0F60DCEF1CF0DEEF1CF007
:1039B800C9EF1CF00FB0E3EF1CF0E5EF1CF0E6EFE9
:1039C8001CF0129ED8900F320FC00AF00B6A0C6AD6
:1039D8000D6A0AC00DF00C6A0B6A0A6A0A501012C6
:1039E8000B5011120C5012120D5013120E50D8B465
:1039F80000EF1DF002EF1DF00AEF1DF009BE09EF00
:103A08001DF007EF1DF00AEF1DF0138E10C006F031
:103A180011C007F012C008F013C009F0120012C05C
:103A28001AF013C01BF01A501B10D8A41EEF1DF07B
:103A380020EF1DF024EF1DF0BF0E1A6EFF0E1B6E57
:103A4800000E1D6E000E1C6E2CEF1DF01C4A1D2A68
:103A58001C501A24146E1D501B20156E14C0F6FF3E
:103A680015C0F7FF000EF86E0F0EF76403D00800BC
:103A7800F55005D0F6CFE1FFF7CFE2FFE750000998
:103A8800D8A449EF1DF04BEF1DF02AEF1DF058BEEA
:103A980050EF1DF052EF1DF065EF1DF01C50575C04
:103AA8005850800A146E1D50800A1458D8B05FEF21
:103AB8001DF061EF1DF065EF1DF057C01CF058C0F8
:103AC8001DF01CC016F01DC017F055C018F056C0E8
:103AD80019F059B072EF1DF074EF1DF0B0EF1DF042
:103AE80082EF1DF0000E086E200E076E10C009F060
:103AF80011C00AF0A2EC23F01C4A1D2A18501C5CC5
:103B08001D50800A146E1950800A1458D8A08FEFDF
:103B18001DF091EF1DF076EF1DF0B0EF1DF01AC00B
:103B2800F6FF1BC0F7FF000EF86E0F0EF76403D008
:103B38000800F55005D0F6CFE1FFF7CFE2FFE750D8
:103B4800146E1450076E086A10C009F011C00AF00C
:103B5800A2EC23F01A4A1B2A1606D8A01706162824
:103B680006E11728D8A4BBEF1DF0BDEF1DF093EFB9
:103B78001DF059A0C2EF1DF0C4EF1DF0E1EF1DF0DC
:103B8800D2EF1DF0000E086E200E076E10C009F06F
:103B980011C00AF0A2EC23F01C4A1D2A18501C5C24
:103BA8001D50800A146E1950800A1458D8A0DFEFEF
:103BB8001DF0E1EF1DF0C6EF1DF0120023BEE7EF88
:103BC8001DF0EAEF1DF0010EEBEF1DF0000E2A6E5E
:103BD80058BEF3EF1DF0F1EF1DF0F9EF1DF0000EE8
:103BE800296E010E286EFDEF1DF057C028F058C051
:103BF80029F055C026F056C027F02A50D8B407EF50
:103C08001EF009EF1EF020EF1EF02606D8A02706AA
:103C18002A50D8A412EF1EF014EF1EF01AEF1EF06F
:103C2800000E256E2B0E246E1EEF1EF0000E256E64
:103C38002D0E246E24C02AF0000E2C6E4F0E2B6E13
:103C4800000E0101766F59EF1EF02B06D8A02C0646
:103C5800270E2B24D96E010E2C20DA6E22C006F016
:103C680023C007F0000E096E0A0E086EC2EC24F09D
:103C780006C00CF007C00DF0CEEC28F00C50300F49
:103C8800DF6E2806D8A029062606D8A0270622C057
:103C980018F023C019F0000E1B6E0A0E1A6E07ECFE
:103CA80024F018C022F019C023F02CBE64EF1EF0D7
:103CB8002C5008E12B04D8A064EF1EF066EF1EF02C
:103CC8007CEF1EF022502310D8A46DEF1EF06FEF8A
:103CD8001EF029EF1EF029BE7CEF1EF0295006E1E8
:103CE8002804D8B07AEF1EF07CEF1EF029EF1EF002
:103CF8002A50D8B482EF1EF084EF1EF08FEF1EF02A
:103D08002B06D8A02C06270E2B24D96E010E2C20AA
:103D1800DA6E2AC0DFFF20C017F021C018F0270E86
:103D28002B24196E010E2C201A6E26C01BF027C0FA
:103D38001CF0C6EC25F0120092840F013A9D3A9FC0
:103D4800948C948E190EAF6EAC98AB8EAC8AAB88FF
:103D5800010E0101256F9D8AF28CF28E010E000181
:103D6800F36F43EF1FF001019651D8B4BEEF1EF078
:103D7800C0EF1EF01FEF1FF0770E066E010E076EE4
:103D88007EEC28F006C0F4F007C0F5F0000E000144
:103D9800F76F000EF66FE7EF1EF0760ED26F010E8A
:103DA800D36FF651D25FF751D35BF451D225D96E58
:103DB800F551D321DA6EF651D40FE16EE26ADFCF06
:103DC800E7FFF64BF72BF451F65DF551F759D8A0FC
:103DD800F0EF1EF0F2EF1EF0D1EF1EF0F451D40F09
:103DE800D96EDA6ADF6AD20ECE6FFF0ECF6FD40EAD
:103DF800D06FD16B22EC29F0000E0101966F000EF6
:103E08000001F96F000EF86F770EF825D96E010ED4
:103E1800F921DA6EDF6AF84BF92BF9BF1DEF1FF0B5
:103E2800F95109E11F0EF85DD8A01DEF1FF01FEF33
:103E38001FF008EF1FF080A424EF1FF026EF1FF0FB
:103E480043EF1FF0030E0001D36F080ED26F770EF9
:103E5800E82EFED7D22FFCD7D32FFAD780A437EF7E
:103E68001FF039EF1FF043EF1FF080B43EEF1FF053
:103E780040EF1FF039EF1FF0000E0001F36F000153
:103E8800F351D8A44AEF1FF04CEF1FF0B7EF1EF024
:103E9800AB9EAC9AAB98000E0101256F9D9AF29CDF
:103EA800F29E12009594959694989598959A959C5B
:103EB8000F013B953B973A993B993B9B3B9D8C84E3
:103EC8008C868B888C888C8A8C8C928438953F0E53
:103ED800CD16300ECD129D80F28CF28E010E0101AE
:103EE800266F9E809E0ECF6E580ECE6ECD80010E30
:103EF8000001FE6F21EEEAF010EE15F00B0EDBCF9D
:103F0800E3FFE806FCE221EEDEF010EE09F00B0E0E
:103F1800DBCFE3FFE806FCE2000E226E0C0E216EFA
:103F2800000E236EF7EF1FF0000E256E000E246EB4
:103F38002450020DF350150FD96EDA6A02D8C9EF72
:103F48001FF00500FA6EDE50FD6EDE50FE6EF85072
:103F5800FF6EFA5024500508076E2350090FD96EDA
:103F6800DA6ADF50086E072ABCEF1FF0D8900832D3
:103F7800072EBAEF1FF008A0C4EF1FF0C7EF1FF01D
:103F8800010EC8EF1FF0000E1200244A252A25BE94
:103F9800D7EF1FF0255009E1060E245CD8A0D7EF13
:103FA8001FF0D9EF1FF09CEF1FF0110E086E3C0EAA
:103FB800076ECB0EE82EFED7072EFCD7082EFAD7B1
:103FC8000000232A2350076E086A2150071807E1CA
:103FD80022500818D8A4F3EF1FF0F5EF1FF0F7EF01
:103FE8001FF0000E236E0001FE51D8A4FEEF1FF053
:103FF80000EF20F098EF1FF08C848C868B888C88DB
:104008008C8A8C8CCD909D90000E0101266F120039
:104018009484FC0E0F014917C70EBB6E0C0EBD121F
:10402800BD503F0B8009BD6E000EBE6E9E92BA84D5
:104038009EA221EF20F023EF20F01CEF20F09484C3
:10404800928892849594959694989598959A959C2B
:104058008C848C868B888C888C8A8C8C010E226E42
:10406800000E236EA2EF20F02350C70DF3CF18F0F7
:10407800F4CF19F0000E1B6E050E1A6E07EC24F033
:104088001850BE6E80A84BEF20F04DEF20F07FEF68
:1040980020F0030E216E080E206E770EE82EFED754
:1040A800202EFCD7212EFAD7000080A85EEF20F042
:1040B80060EF20F07FEF20F080B865EF20F067EF29
:1040C80020F060EF20F0050E2318D8A46EEF20F042
:1040D80070EF20F074EF20F0000E236E7FEF20F0D9
:1040E800050E23607AEF20F07CEF20F07FEF20F0C0
:1040F800232A7FEF20F080A484EF20F086EF20F0C1
:10410800A2EF20F0030E216E080E206E770EE82E27
:10411800FED7202EFCD7212EFAD7000080A497EFD7
:1041280020F099EF20F0A2EF20F080B49EEF20F06D
:10413800A0EF20F099EF20F0000E226E2250D8A4B4
:10414800A8EF20F0AAEF20F038EF20F0F00EBD160F
:10415800BA949D9212000101CD6F99EC28F021EEDE
:10416800CEF011EEBDF00F0EDBCFE3FFE806FCE268
:10417800D6EF20F0060E0101CD61C5EF20F0C7EFA4
:1041880020F0E6EF20F0CD2BE6EF20F00101CD5135
:10419800D8B4D1EF20F0D3EF20F0E6EF20F0CD0730
:1041A800E6EF20F00001E751000AD8B4E6EF20F06E
:1041B800010AD8B4BEEF20F0030AD8B4CAEF20F041
:1041C800E6EF20F09B0E0001CE6F010ECF6FCC0EF4
:1041D800D06FFF0ED16F000ED36F0F0ED26F01019B
:1041E800CD51020DBD0EF324D96E010EF420DA6E06
:1041F800DECFD4F0DDCFD5F0E1EC27F0AC0E000136
:10420800CE6F010ECF6FCD0ED06FFF0ED16F000EA7
:10421800D36F100ED26F0101CD510001E86FE96B29
:10422800D890E837E937020EE827000EE923BD0EDB
:10423800E825D96E010EE921DA6EDECFD4F0DDCFA4
:10424800D5F0E1EC27F09B0E076E010E086E010E0B
:1042580069EC24F0AC0E076E010E086E020E69ECD4
:1042680024F00101CD511200000166356735536E07
:104278005350D8A442EF21F044EF21F04EEF21F043
:10428800000E646F000E656F000E666F000E676F9C
:10429800BBEF21F064C068F065C069F066C06AF0E1
:1042A80067C06BF0200E5EEF21F0D8906B336A3355
:1042B80069336833E82E59EF21F06851526E668FE2
:1042C800FF0E6417FF0E6517FF0E6617000E6717BF
:1042D800960E535E53BE75EF21F073EF21F08BEF0E
:1042E80021F05350800A970FD8B07DEF21F07FEF6F
:1042F80021F081EF21F044EF21F0D8906733663345
:1043080065336433533E81EF21F0A3EF21F01F0E94
:10431800536491EF21F093EF21F09BEF21F044EFEC
:1043280021F0D8906437653766376737530653509E
:10433800D8A4A1EF21F0A3EF21F095EF21F052507E
:10434800D8B4A9EF21F0ABEF21F0B3EF21F0671F4C
:10435800661F651F646D000E65236623672364C0AE
:1043680064F065C065F066C066F067C067F012006B
:10437800000E2D14356E000E2E14366E800E2F147E
:10438800376E7F0E3014386E3550361037103810AF
:10439800D8A4D1EF21F0D3EF21F0DBEF21F0000E0C
:1043A8002D6E000E2E6E000E2F6E000E306E000E5B
:1043B8003114356E000E3214366E800E3314376E9B
:1043C8007F0E3414386E3550361037103810D8A494
:1043D800F0EF21F0F2EF21F0FAEF21F0000E316E4C
:1043E800000E326E000E336E000E346E30AEFFEFEC
:1043F80021F001EF22F00AEF22F02D6C2E1ED8B02A
:104408002E2A2F1ED8B02F2A800E305634AE0FEF2A
:1044180022F011EF22F01AEF22F0316C321ED8B0E0
:10442800322A331ED8B0332A800E3456000E2D1A85
:10443800000E2E1A000E2F1A800E301A000E311A96
:10444800000E321A000E331A800E341A31502D5CC9
:1044580032502E5833502F5834503058D8B037EF88
:1044680022F039EF22F03CEF22F0D8903DEF22F015
:10447800D88012001DC110F01EC111F01FC112F02A
:1044880020C113F006C010F007C011F008C012F0E8
:1044980009C013F010C00AF011C00BF012C00CF0E4
:1044A80013C00DF0180E5EEF22F0D8900D320C32CA
:1044B8000B320A32E82E59EF22F00A500E6E0F6ABC
:1044C8000E500F10D8A46BEF22F06DEF22F08DEF95
:1044D80022F0D89010340A6E11340B6E12340C6E20
:1044E80013340D6E0A500B100C100D10D8A47FEF6A
:1044F80022F081EF22F087EF22F0000E076E020E05
:10450800066EBCEF22F0000E076E030E066EBCEFBF
:1045180022F00E280F10D8A494EF22F096EF22F084
:10452800B8EF22F010C00AF011C00BF012C00CF066
:1045380013C00DF0090ED8900A360B360C360D361E
:10454800E82E9FEF22F00A500B100C100D10D8B473
:10455800B0EF22F0B3EF22F0010EB4EF22F0000E1C
:10456800066E076ABCEF22F0000E076E040E066E98
:10457800120058BEC4EF22F0C2EF22F0CAEF22F0B8
:10458800000E276E010E266ECEEF22F057C026F0E1
:1045980058C027F055C024F056C025F0000E296EEB
:1045A8004F0E286E000E0101766F05EF23F02806E6
:1045B800D8A02906270E2824D96E010E2920DA6EE4
:1045C80022C006F023C007F0000E096E0A0E086E1E
:1045D800BBEC26F00650300FDF6E2606D8A0270663
:1045E8002406D8A0250622C006F023C007F0000E36
:1045F800096E0A0E086E15EC26F006C022F007C0F8
:1046080023F028502910D8B40CEF23F00EEF23F034
:1046180024EF23F022502310D8A415EF23F017EF2E
:1046280023F0DBEF22F027BE24EF23F0275006E12A
:104638002604D8B022EF23F024EF23F0DBEF22F09A
:1046480020C017F021C018F0270E2824196E010E7B
:1046580029201A6E24C01BF025C01CF0C6EC25F0DA
:1046680012000F013B913B9395809582929089802F
:104678006C50F00B08096C6E130E6E6E6C8A340E5B
:10468800076EF20EE82EFED7072EFCD76B806BB0B4
:1046980050EF23F052EF23F04BEF23F0A49E7C0E53
:1046A8000FEC29F0800E0FEC29F0380E0FEC29F0F2
:1046B800800E0FEC29F0390E0FEC29F0800E0FEC6C
:1046C80029F0170E0FEC29F0800E0FEC29F07A0E66
:1046D8000FEC29F0800E0FEC29F05E0E0FEC29F09C
:1046E800800E0FEC29F06B0E0FEC29F0800E0FEC0A
:1046F80029F00C0E0FEC29F0800E0FEC29F0010EBA
:104708000FEC29F0800E0FEC29F0060E0FEC29F0C3
:10471800800E0FEC29F0020E0FEC29F06B846BB4BD
:1047280098EF23F09AEF23F093EF23F0340E076EFF
:10473800F20EE82EFED7072EFCD7120009500A10F9
:10474800D8B4A9EF23F0ABEF23F0B4EF23F009506E
:104758000A10D8A4B2EF23F0B4EF23F0B9EF23F096
:10476800075032EC29F006EF24F020EE0AF0095049
:10477800D9260A50DA22DE50DE10D8B4C6EF23F06C
:10478800C8EF23F0E3EF23F020EE0AF00950D92612
:104798000A50DA2210EE03F00950E1260A50E2220C
:1047A800DE50E65CE650800A0F6EDE50800A0F5835
:1047B800D8B0E1EF23F0E3EF23F006EF24F020EE8A
:1047C80003F00950D9260A50DA22DECF0BF0DDCFEC
:1047D8000CF009C0D9FF0AC0DAFFDECF0DF0DDCF3B
:1047E8000EF00B500D24D96E0C500E20DA6E07C057
:1047F800DFFF20EE03F00950D9260A50DA22DE2A1C
:10480800000EDD221200000E1D6E1BBE10EF24F0FC
:104818000EEF24F016EF24F01A6C1B1ED8B01B2ADA
:10482800010E1D6E19BE1DEF24F01BEF24F023EFBF
:1048380024F0186C191ED8B0192A010E1D1A000E82
:104848001F6E000E1E6E1A501B10D8B42EEF24F0E7
:1048580030EF24F058EF24F0010E1C6E38EF24F0EE
:10486800D8901A361B361C2A1BAE3DEF24F03FEFBA
:1048780024F034EF24F0D8901E361F361A50185CF6
:104888001B501958D8A04BEF24F04DEF24F052EFED
:1048980024F01A50185E1B50195A1E80D8901B32EB
:1048A8001A321C2E3FEF24F01D50D8B45EEF24F0CE
:1048B80060EF24F064EF24F01E6C1F1ED8B01F2A8E
:1048C8001EC018F01FC019F012000B6E6B806BB081
:1048D80070EF24F072EF24F06BEF24F0A49E7C0EAE
:1048E8000FEC29F0800E0FEC29F00B04D8A47FEF11
:1048F80024F081EF24F086EF24F0800E0FEC29F0ED
:1049080092EF24F0020E0B18D8A48DEF24F08FEF4D
:1049180024F092EF24F0C00E0FEC29F0400E0FECBB
:1049280029F0000E0C6E0C500724096E000E0820AA
:104938000A6E09C0F6FF0AC0F7FF000EF86E0F0EE8
:10494800F76403D00800F55005D0F6CFE1FFF7CFA4
:10495800E2FFE7500FEC29F00C2A0F0E0C64B7EFBA
:1049680024F0B9EF24F097EF24F06B846BB4BFEF19
:1049780024F0C1EF24F0BAEF24F01200000E0B6E01
:1049880007BECBEF24F0C9EF24F0D1EF24F0066C7A
:10499800071ED8B0072A010E0B6E09BED8EF24F007
:1049A800D6EF24F0DCEF24F0086C091ED8B0092AF1
:1049B80008500910D8B4E3EF24F0E5EF24F009EF2C
:1049C80025F0010E0A6EEDEF24F0D890083609366E
:1049D8000A2A09AEF2EF24F0F4EF24F0E9EF24F00C
:1049E8000850065C09500758D8A0FDEF24F0FFEFE7
:1049F80024F003EF25F00850065E0950075AD890B6
:104A0800093208320A2EF4EF24F00B50D8B40FEF15
:104A180025F011EF25F015EF25F0066C071ED8B02C
:104A2800072A06C006F007C007F01200000E106E35
:104A3800000E0F6E0C50D96EDA6ADECFF6FFDDCFAE
:104A4800F7FF0800F5502A0AD8A42DEF25F02FEF1C
:104A580025F059EF25F00C50D96EDA6ADE2A000EDF
:104A6800DD220D50D96EDA6A020EDF26DF5CD96EC0
:104A7800DA6ADECF0FF0DECF10F06CEF25F00FC052
:104A880006F010C007F0000E096E0A0E086EFCEC66
:104A980028F00E5006240F6E000E0720106E0C50E2
:104AA800D96EDA6ADE2A000EDD220C50D96EDA6A77
:104AB800DECFF6FFDDCFF7FF0800F550D00F0E6E02
:104AC800090E0E646AEF25F06CEF25F043EF25F030
:104AD8000FC00CF010C00DF01200000E06140E6E80
:104AE800000E07140F6E800E0814106E7F0E091446
:104AF800116E0E500F1010101110D8A486EF25F06B
:104B080088EF25F090EF25F0000E066E000E076E78
:104B1800000E086E000E096E000E0A140E6E000ECE
:104B28000B140F6E800E0C14106E7F0E0D14116E88
:104B38000E500F1010101110D8A4A5EF25F0A7EFF4
:104B480025F0AFEF25F0000E0A6E000E0B6E000E7A
:104B58000C6E000E0D6E0A5006180FE10B50071868
:104B68000CE10C50081809E10D500918D8B4BFEF32
:104B780025F0C1EF25F0C4EF25F0D890C5EF25F05A
:104B8800D880120059A0CBEF25F0CDEF25F0D7EF54
:104B980025F019C010F01AC011F017C012F018C093
:104BA80013F004EC28F01CBEDEEF25F0DCEF25F056
:104BB800E2EF25F0000E1C6E000E1B6E000E1F6E3D
:104BC800000E1E6EF4EF25F0000E086E200E076E24
:104BD80017C009F018C00AF0A2EC23F01E4A1F2AD9
:104BE8001B501E5C1F50800A1D6E1C50800A1D58E9
:104BF800D8A001EF26F003EF26F0E8EF25F059B032
:104C080008EF26F00AEF26F014EF26F019C010F08E
:104C18001AC011F017C012F018C013F004EC28F0F5
:104C28001200000E0C6E000E0B6E08500910D8B45E
:104C380020EF26F022EF26F04AEF26F0010E0A6E4A
:104C48002AEF26F0D890083609360A2A09AE2FEF3F
:104C580026F031EF26F026EF26F0D8900B360C36EA
:104C68000850065C09500758D8A03DEF26F03FEFE2
:104C780026F044EF26F00850065E0950075A0B80CC
:104C8800D890093208320A2E31EF26F00BC006F010
:104C98000CC007F0120097C106F098C107F099C13F
:104CA80008F09AC109F02D0E0A6E7F0E0B6E950E54
:104CB8000C6E4C0E0D6E86EC26F0010E06240101DA
:104CC800976F000E0720986F000E0820996F000E4E
:104CD80009209A6F97C114F098C115F099C116F080
:104CE8009AC117F0120E7EEF26F0D89017321632BE
:104CF80015321432E82E79EF26F014C012F015C0E0
:104D080013F01200000E0E6E000E0F6E000E106EE5
:104D1800000E116E06A093EF26F095EF26F09DEF9A
:104D280026F00A500E260B500F220C5010220D5060
:104D38001122D8900A360B360C360D36D890093227
:104D48000832073206320650071008100910D8A496
:104D5800B0EF26F0B2EF26F08EEF26F00EC006F088
:104D68000FC007F010C008F011C009F01200085079
:104D78000910D8B4C2EF26F0C4EF26F0E8EF26F009
:104D8800010E0A6ECCEF26F0D890083609360A2AAA
:104D980009AED1EF26F0D3EF26F0C8EF26F0085081
:104DA800065C09500758D8A0DCEF26F0DEEF26F0A5
:104DB800E2EF26F00850065E0950075AD8900932EB
:104DC80008320A2ED3EF26F006C006F007C007F017
:104DD8001200076E000E096E0650D8B4F6EF26F0E2
:104DE800F8EF26F019EF27F0010E086EFFEF26F016
:104DF800D8900636082A06AE04EF27F006EF27F00B
:104E0800FCEF26F0D89009360650075CD8A00FEFC3
:104E180027F011EF27F014EF27F00650075E0980FE
:104E2800D8900632082E06EF27F00950120009BE66
:104E380020EF27F022EF27F02CEF27F006C006F02E
:104E480007C007F008C008F009C009F045EF27F0CF
:104E580006C00AF007C00BF008C00CF009C00DF03E
:104E68000A1E0B1E0C1E0D1E0A2A000E0B220C22F7
:104E78000D220AC006F00BC007F00CC008F00DC0E8
:104E880009F01200D00EF66E510EF76E000EF86E95
:104E980001EECEF010EE28F00900F5CFEEFFE55058
:104EA800E150FAE102EE00F02A0EEE6AE806FDE1B2
:104EB80001EE00F09B0EEE6AE806FDE10001FE6BD4
:104EC800596A586A576A566A556A5A905A92000E31
:104ED800F86E0001F7EF14F008C00FF009C010F0E9
:104EE80006C00DF007C00EF08AEF27F00FC0D9FFFB
:104EF80010C0DAFFDF500C6E0F4A102A0DC0D9FF20
:104F08000EC0DAFF0CC0DFFF0D4A0E2A0A06D8A031
:104F18000B060A2806E10B28D8A495EF27F097EF8F
:104F280027F07AEF27F01200C9C0CCF0CAC0CDF044
:104F3800A9EF27F0C7C0B9F0C8C0BAF0CC0E00017D
:104F4800BB6FCBC0BCF0A6EC05F0CCC0F6FFCDC063
:104F5800F7FF0800F5500009D8A4B5EF27F0B7EF20
:104F680027F09EEF27F0000E0001C86F000EC76FF4
:104F78001200000E0001681B000E691B000E6A1B60
:104F8800800E6B1B64C046F065C047F066C048F0F1
:104F980067C049F068C04AF069C04BF06AC04CF07D
:104FA8006BC04DF0D9EC0AF046C064F047C065F01C
:104FB80048C066F049C067F01200D20E0001DA6FEF
:104FC800CEC0DBF0CFC0DCF0000EDF6F000EDE6F6E
:104FD800000EE66F000EE56FDB0EC76FC86BD0C022
:104FE800C9F0D1C0CAF0DA0ECB6F98EC27F00001F7
:104FF800DE51CE25D96EDF51CF21DA6EDF6A12007D
:10500800000E166E000E156E15EF28F014C007F08E
:10501800086A12C009F013C00AF0A2EC23F0154A7E
:10502800162A15501024D96E16501120DA6EDF504A
:10503800146E1450D8A423EF28F025EF28F00AEFB7
:1050480028F01200086E08380F0B3009066E083871
:10505800F00B076E8A9606C0C9FF9EA636EF28F0A9
:1050680038EF28F031EF28F09E9607C0C9FF9EA6BA
:1050780040EF28F042EF28F03BEF28F09E968A8612
:10508800120000018051811182118311D8B44FEFB1
:1050980028F051EF28F059EF28F0000E801B000E81
:1050A800811B000E821B800E831B80C080F081C094
:1050B80081F082C082F083C083F0120006C00AF03B
:1050C80007C00BF008C0F6FF09C0F7FF084A092A15
:1050D8000AC0D9FF0BC0DAFF0A4A0B2A0800F5CF2D
:1050E800DFFFDF50D8A47BEF28F07DEF28F066EFD4
:1050F80028F0120006C008F007C009F086EF28F073
:10510800064A072A06C0D9FF07C0DAFFDF50D8A42D
:1051180090EF28F092EF28F084EF28F00850065C12
:10512800066E09500758076E12006B806BB09FEF30
:1051380028F0A1EF28F09AEF28F0A49E7C0E0FEC3F
:1051480029F0800E0FEC29F0010E0FEC29F06B848A
:105158006BB4B1EF28F0B3EF28F0ACEF28F01200F1
:1051680011C10AF012C10BF013C10CF014C10DF0FB
:1051780006C00AF007C00BF008C00CF009C00DF01B
:105188000D9E0AC006F00BC007F00CC008F00DC059
:1051980009F012000DBED3EF28F0D5EF28F0DBEFB1
:1051A80028F00CC00CF00DC00DF0E7EF28F00CC093
:1051B8000EF00DC00FF00E1E0F1E0E4A0F2A0EC065
:1051C8000CF00FC00DF01200DCFFE1FFFBFFF7FF52
:1051D800F3FFD7FFC6FFD6FF2030180C06030103E4
:1051E800060C1830B252A452965288527A52C052C3
:1051F80006500802F3CF0AF0F4CF0BF0065009026C
:10520800F3500B2607500802F3500B260AC006F08D
:105218000BC007F01200066E06C06FFF6DB017EFE7
:1052280029F019EF29F012EF29F0A4AE1EEF29F0AA
:1052380020EF29F019EF29F0A49E1200D00E546E29
:10524800000E0001C76F000EC86FCEC0C9F0CFC0F6
:10525800CAF0540ECB6F98EC27F01200066E9EA889
:1052680038EF29F03AEF29F033EF29F006C0ADFF07
:105278001200066E06B002D08C9A01D08C8A1200F9
:10528800066E06B002D08C9801D08C881200066E8B
:1052980006B002D08B9801D08B881200066E06B03B
:1052A80002D08C9601D08C861200066E06B002D011
:1052B8008C9401D08C841200066E06B002D08C9CAF
:0852C80001D08C8C12001200D1
:10FE3600003C6C3636CF0750B98488083CABAA2AFA
:10FE4600BEA3858832DA0FC93F83F9223F0000003E
:10FE56003F179ACC373F04B6BA9FAA2A3D00000046
:10FE6600BFDB0FC940E4CB9640DB0F4940DB0FC92F
:10FE76003F25752020202020202020202020202003
:10FE860020202000504F54313A252E3166504F54D1
:10FE9600323A252E316600536B6F72653A2025750E
:10FEA60020202020202020200025687520202020CA
:10FEB6002020202020202020200047414D45204F93
:10FEC60056455220202020202020004E6562796C65
:10FED6006F202020202020202020200042523A207F
:10FEE60031393230302020202020202000567974ED
:10FEF600766F72696C3A20202020202020005072F4
:10FF060069707261766974202020202020200050BC
:10FF16006F7A6F7221204861642121212020200000
:10FF26004461766964205374726173616B2020208A
:10FF3600004C6164656E6920706F74616B7520207A
:10FF460020005A6D61636B6E6574652042544E32B3
:10FF5600202000496D706C656D656E746F76616EFC
:10FF66006F2020005242302D41322C2042523A312D
:10FF76003932303000566F6C7479206E6120504FE4
:10FF8600546563683A004B6F6E6563202D206E657D
:10FF960077206C696E6500313A74722C323A736957
:10FFA6006E2C333A70696C002020202020202020FF
:10FFB600202020506F7A6F7200286E756C6C2900B5
:10FFC6004D55534943003E252D2A73002573200ABB
:10FFD6000047414D45004750494F00554152540096
:10FFE6002564200D00696E66006E616E0044414313
:0AFFF600004144430050574D000045
:020000040030CA
:04000000FF331F3C6F
:00000001FF
