:0400000083EF1EF07C
:10100000003C6C3636CF0750B98488083CABAA2A1E
:10101000BEA3858832DA0FC93F83F9223F00000062
:101020003F179ACC373F04B6BA9FAA2A3D0000006A
:10103000BFDB0FC940E4CB9640DB0F4940DB0FC953
:101040003F5242302D41322C2042523A2039363024
:101050003000313A74722C323A73696E2C333A7024
:10106000696C00286E756C6C29004D55534943001E
:101070003E252D2A730047414D45004750494F00FA
:1010800055415254002564200D0044414300414421
:07109000430050574D000022
:101098009AC0B0F09BC0B1F09CC0B2F09DC0B3F054
:1010A8000001B3BF5AEF08F05DEF08F0010E5EEFE4
:1010B80008F0000EA76FB39FDB0EB05D0F0EB1599D
:1010C800490EB2593F0EB359D8B06DEF08F06FEF23
:1010D80008F098EF08F0800EB25D390EB359D8B019
:1010E80078EF08F07AEF08F084EF08F09AC09AF0E9
:1010F8009BC09BF09CC09CF09DC09DF0D0EF0AF077
:101108009AC051F09BC052F09CC053F09DC054F05F
:1011180044EC15F051C09AF052C09BF053C09CF0BB
:1011280054C09DF0D0EF0AF0D20EB05D530EB15905
:101138007B0EB259400EB359D8B0A5EF08F0A7EF0F
:1011480008F08AEF09F0E40EB05DCB0EB159160E27
:10115800B259400EB359D8B0B4EF08F0B6EF08F062
:1011680024EF09F0A751D8B4BCEF08F0BEEF08F09F
:10117800F6EF08F0DB0E456E0F0E466EC90E476E91
:101188003F0E486E9AC041F09BC042F09CC043F0AD
:101198009DC044F0D1EC0AF041C0A8F042C0A9F0CB
:1011A80043C0AAF044C0ABF0A8C051F0A9C052F0A7
:1011B800AAC053F0ABC054F05DEC16F051C078F003
:1011C80052C079F053C07AF054C07BF066EC1EF040
:1011D80078C09AF079C09BF07AC09CF07BC09DF0F3
:1011E800D0EF0AF09AC041F09BC042F09CC043F097
:1011F8009DC044F0DB0E456E0F0E466EC90E476E5D
:10120800BF0E486ED1EC0AF041C0A8F042C0A9F068
:1012180043C0AAF044C0ABF0A8C051F0A9C052F036
:10122800AAC053F0ABC054F05DEC16F051C09AF070
:1012380052C09BF053C09CF054C09DF0D0EF0AF010
:10124800A751D8A42AEF09F02CEF09F052EF09F0C2
:10125800DB0E456E0F0E466E490E476EC00E486E89
:101268009AC041F09BC042F09CC043F09DC044F03E
:10127800D1EC0AF041C078F042C079F043C07AF06E
:1012880044C07BF066EC1EF078C09EF079C09FF0F9
:101298007AC0A0F07BC0A1F076EF09F0DB0E456EB6
:1012A8000F0E466E490E476E400E486E9AC041F0CA
:1012B8009BC042F09CC043F09DC044F0D1EC0AF0C2
:1012C80041C078F042C079F043C07AF044C07BF066
:1012D80066EC1EF078C09EF079C09FF07AC0A0F04E
:1012E8007BC0A1F09EC051F09FC052F0A0C053F047
:1012F800A1C054F044EC15F051C09AF052C09BF0D4
:1013080053C09CF054C09DF0D0EF0AF0D60EB05DEB
:10131800310EB159E20EB259400EB359D8B097EF19
:1013280009F099EF09F03AEF0AF0E00EB05DED0E22
:10133800B159AF0EB259400EB359D8B0A6EF09F063
:10134800A8EF09F0E8EF09F0A751D8B4AEEF09F01B
:10135800B0EF09F0CCEF09F09AC041F09BC042F021
:101368009CC043F09DC044F0E40E456ECB0E466E23
:10137800960E476E400E486ED1EC0AF041C0A8F0B8
:1013880042C0A9F043C0AAF044C0ABF010EF09F086
:10139800E40E456ECB0E466E960E476EC00E486E36
:1013A8009AC041F09BC042F09CC043F09DC044F0FD
:1013B800D1EC0AF041C0A8F042C0A9F043C0AAF09D
:1013C80044C0ABF0D8EF08F0A751D8A4EEEF09F06D
:1013D800F0EF09F00CEF0AF09AC041F09BC042F020
:1013E8009CC043F09DC044F0DB0E456E0F0E466E68
:1013F800C90E476EC00E486ED1EC0AF041C0A2F08B
:1014080042C0A3F043C0A4F044C0A5F026EF0AF000
:101418009AC041F09BC042F09CC043F09DC044F08C
:10142800DB0E456E0F0E466EC90E476E400E486EB7
:10143800D1EC0AF041C0A2F042C0A3F043C0A4F02E
:1014480044C0A5F0A2C051F0A3C052F0A4C053F00C
:10145800A5C054F044EC15F051C09AF052C09BF06E
:1014680053C09CF054C09DF0D0EF0AF0800EB25DDE
:101478007F0EB359D8A043EF0AF045EF0AF057EFB3
:101488000AF0FF0EB013FF0EB113FF0EB213000ED9
:10149800B313B0C09AF0B1C09BF0B2C09CF0B3C017
:1014A8009DF0D0EF0AF09AC07CF09BC07DF09CC004
:1014B8007EF09DC07FF0AC0E806F46EC0FF000010F
:1014C8007C51030BA66FC1EF0AF0ACC078F0ADC039
:1014D80079F0AEC07AF0AFC07BF066EC1EF078C051
:1014E800ACF079C0ADF07AC0AEF07BC0AFF0ACC064
:1014F80051F0ADC052F0AEC053F0AFC054F044EC60
:1015080015F051C09AF052C09BF053C09CF054C0E3
:101518009DF0D0EF0AF0ACC051F0ADC052F0AEC0B3
:1015280053F0AFC054F05DEC16F051C09AF052C0C1
:101538009BF053C09CF054C09DF0D0EF0AF0ACC0B3
:1015480051F0ADC052F0AEC053F0AFC054F05DECF6
:1015580016F051C078F052C079F053C07AF054C0F8
:101568007BF066EC1EF078C09AF079C09BF07AC0E8
:101578009CF07BC09DF0D0EF0AF0A651000AD8B4C9
:101588007BEF0AF0010AD8B48FEF0AF0030AD8B447
:1015980069EF0AF0A3EF0AF012004450800B4D6E79
:1015A800445044244F6E43AEDCEF0AF0DEEF0AF0FD
:1015B800DFEF0AF04F804F50D8B4E5EF0AF0E7EFBD
:1015C8000AF0FCEF0AF04F28D8A4EDEF0AF0EFEF8D
:1015D8000AF0F7EF0AF0000E416E000E426E000EA0
:1015E800436E000E446E438E000E446E04EF0BF003
:1015F800000E416E000E426E000E436E000E446EE9
:101608004850800B4E6E4D504E18D8B40EEF0BF06C
:1016180010EF0BF011EF0BF04D8C485048244E6E34
:1016280047AE19EF0BF01BEF0BF01CEF0BF04E80E1
:101638004E50D8B422EF0BF024EF0BF039EF0BF03B
:101648004E28D8A42AEF0BF02CEF0BF034EF0BF058
:10165800000E456E000E466E000E476E000E486E78
:10166800478E000E486E41EF0BF0000E456E000EDF
:10167800466E000E476E000E486E4F504E5CD8B056
:1016880048EF0BF04AEF0BF071EF0BF04DAC4FEF5A
:101698000BF051EF0BF053EF0BF0800E4D1A4FC0CB
:1016A80050F04EC04FF050C04EF041C050F045C011
:1016B80041F050C045F042C050F046C042F050C022
:1016C80046F043C050F047C043F050C047F044C014
:1016D80050F048C044F050C048F0000E506E4F50D3
:1016E8004EC049F04A6A495E000E4A5A4ABE86EF21
:1016F8000BF04A5009E11A0E495CD8A086EF0BF0AE
:1017080088EF0BF0BFEF0BF041504210431044102C
:10171800D8A491EF0BF094EF0BF0010E95EF0BF0BE
:10172800000E506E000E416E000E426E000E436EAB
:10173800000E446E4EC04FF0C8EF0BF050A0A7EF5C
:101748000BF0A9EF0BF0AFEF0BF0D8905030010978
:10175800506EB1EF0BF0D890503241A0B6EF0BF0BD
:10176800B8EF0BF0B9EF0BF0508E443444324332EB
:10177800423241324F2A4E504F5CD8A0C6EF0BF090
:10178800C8EF0BF0A2EF0BF04DBCCDEF0BF0CFEF95
:101798000BF00FEF0CF04F50D8A4D5EF0BF0D7EFAC
:1017A8000BF0E1EF0BF0000E416E000E426E000EE2
:1017B800436E000E446E30EF0DF045504126465002
:1017C8004222475043224850442244A0EEEF0BF0F7
:1017D800F0EF0BF09CEF0CF050A0F5EF0BF0F7EFEB
:1017E8000BF0FDEF0BF0D89050300109506EFFEF71
:1017F8000BF0D890503241A004EF0CF006EF0CF03B
:1018080007EF0CF0508E44344432433242324132B6
:101818004F2A9CEF0CF04550415C465042584750C7
:1018280043584450800A496E4850800A4958D8B0F5
:1018380020EF0CF022EF0CF04DEF0CF04150455C1E
:10184800496E425046584A6E435047584B6E445072
:1018580048584C6EFF0E4924416EFF0E4A20426ED6
:10186800FF0E4B20436EFF0E4C20446E800E4D1A27
:10187800506C5050D8A443EF0CF045EF0CF055EFE6
:101888000CF0010E4126000E42224322442255EF5D
:101898000CF04550415E4650425A4750435A485012
:1018A800445A4150421043104410D8A45EEF0CF043
:1018B80060EF0CF095EF0CF05050D8A466EF0CF0E8
:1018C80068EF0CF095EF0CF0000E416E000E426EC2
:1018D800000E436E000E446E30EF0DF0D890413686
:1018E80042364336443650AE7CEF0CF07EEF0CF0B7
:1018F8007FEF0CF0418050A084EF0CF086EF0CF0E5
:101908008AEF0CF0D88050368CEF0CF0D890503617
:101918004F50D8B492EF0CF094EF0CF095EF0CF018
:101928004F0643AE9AEF0CF09CEF0CF072EF0CF000
:10193800000E4E6E50AEA3EF0CF0A5EF0CF0BDEF0D
:101948000CF050C049F07F0E4916D8B4AEEF0CF039
:10195800B0EF0CF0B4EF0CF0010E4E6EBDEF0CF0D2
:1019680041A0B9EF0CF0BBEF0CF0BDEF0CF0B0EFFD
:101978000CF04E50D8B4C3EF0CF0C5EF0CF0F0EFFC
:101988000CF0010E4126000E42224322442244A0BC
:10199800D0EF0CF0D2EF0CF0F0EF0CF041C049F0B2
:1019A80042C04AF043C04BF044C04CF04C344C3277
:1019B8004B324A32493249C041F04AC042F04BC02A
:1019C80043F04CC044F04F28D8B4EDEF0CF0EFEFE3
:1019D8000CF0F0EF0CF04F2A4F28D8B4F6EF0CF0CB
:1019E800F8EF0CF000EF0DF04F50D8A4FEEF0CF01C
:1019F80000EF0DF012EF0DF0000E416E000E426E7A
:101A0800000E436E000E446E4F50D8A40EEF0DF03A
:101A180010EF0DF012EF0DF0000E4D6E4FA017EF06
:101A28000DF019EF0DF01CEF0DF0438E1DEF0DF0CA
:101A3800439ED8904F30446E4DAE25EF0DF027EF02
:101A48000DF028EF0DF0448E41C041F042C042F045
:101A580043C043F044C044F012001250800B1B6E88
:101A680012501224216E11AE3CEF0DF03EEF0DF036
:101A78003FEF0DF021802150D8B445EF0DF047EF2E
:101A88000DF05AEF0DF02128D8A44DEF0DF04FEFCF
:101A98000DF057EF0DF0000E0F6E000E106E000ED9
:101AA800116E000E126E118E62EF0DF0000E0F6EA9
:101AB800000E106E000E116E000E126E1650800B86
:101AC8001B1A16501624206E15AE6DEF0DF06FEF31
:101AD8000DF070EF0DF020802050D8B476EF0DF0A7
:101AE80078EF0DF08BEF0DF02028D8A47EEF0DF0E5
:101AF80080EF0DF088EF0DF0000E136E000E146EDF
:101B0800000E156E000E166E158E93EF0DF0000E7A
:101B1800136E000E146E000E156E000E166E205019
:101B2800D8B499EF0DF09BEF0DF0A3EF0DF0215015
:101B3800D8A4A1EF0DF0A3EF0DF0ADEF0DF0000E5E
:101B48000F6E000E106E000E116E000E126E45EF35
:101B58000FF015500F02F3CF26F0F4CF27F02650E0
:101B68001C6E1D6A1E6A1F6A2750226E236A246A29
:101B7800256A14501002F3CF26F0F4CF27F0265030
:101B88001C26000E1D221E221F2227502226000E70
:101B980023222422252213501102F3CF26F0F4CF5A
:101BA80027F026501C26000E1D221E221F22275019
:101BB8002226000E2322242225221EC01FF01DC02B
:101BC8001EF01CC01DF01C6A13501002F3CF26F043
:101BD800F4CF27F026501C2627501D22000E1E2267
:101BE800000E1F2214500F02F3CF26F0F4CF27F077
:101BF80026501C2627501D22000E1E22000E1F22D2
:101C08001EC01FF01DC01EF01CC01DF01C6A135022
:101C18000F02F3CF26F0F4CF27F026501C262750CA
:101C28001D22000E1E22000E1F2215501002F3CF97
:101C380026F0F4CF27F02650222627502322000E24
:101C48002422000E252214501102F3CF26F0F4CFDF
:101C580027F02650222627502322000E2422000E89
:101C6800252215501102F3CF26F0F4CF27F0265085
:101C7800176E2750186E196A1A6A19C01AF018C018
:101C880019F017C018F0176A175022261850232287
:101C9800195024221A5025221CC017F01DC018F014
:101CA8001EC019F01FC01AF0190E60EF0EF0D89080
:101CB8001A32193218321732E82E5BEF0EF017502D
:101CC800222618502322195024221A5025221EC0D9
:101CD8001FF01DC01EF01CC01DF01C6A205021C042
:101CE80017F0186A1726000E1822820E1724266E7F
:101CF800FF0E1820276E96EF0EF0D8902236233666
:101D0800243625361FAE8BEF0EF08DEF0EF08EEFDA
:101D18000EF02280D8901C361D361E361F36260639
:101D2800D8A0270624AE9BEF0EF09DEF0EF081EFB2
:101D38000EF0000E206E1FAEA4EF0EF0A6EF0EF010
:101D4800CAEF0EF0FF0E1C14176EFF0E1D14186E4E
:101D5800FF0E1E14196E7F0E1F141A6E17501810DE
:101D680019101A10D8B4BBEF0EF0BDEF0EF0C1EF8A
:101D78000EF0010E206ECAEF0EF022A0C6EF0EF094
:101D8800C8EF0EF0CAEF0EF0BDEF0EF02050D8B439
:101D9800D0EF0EF0D2EF0EF0F6EF0EF0010E222685
:101DA800000E23222422252225A0DDEF0EF0DFEFEE
:101DB8000EF0F6EF0EF022C017F023C018F024C082
:101DC80019F025C01AF01A341A321932183217329B
:101DD80017C022F018C023F019C024F01AC025F04B
:101DE800264A272A27BE01EF0FF0275008E12628A8
:101DF800D8A001EF0FF003EF0FF00DEF0FF0000E7A
:101E0800226E000E236E800E246E7F0E256E3BEF31
:101E18000FF027BE1AEF0FF0275006E12604D8B0BE
:101E280018EF0FF01AEF0FF026EF0FF0000E226EEA
:101E3800000E236E000E246E000E256E000E1B6E23
:101E48003BEF0FF026C021F0FF0E2216FF0E2316DF
:101E58007F0E2416000E251621A035EF0FF037EF60
:101E68000FF038EF0FF0248ED8902130256E1B50DC
:101E7800251222C00FF023C010F024C011F025C095
:101E880012F01200C5C08AF0C6C08BF0C7C08CF033
:101E9800C8C08DF07CC08AF07DC08BF07EC08CF00D
:101EA8007FC08DF000018DBF5CEF0FF05FEF0FF08A
:101EB800010E60EF0FF0000E896F8D9FDB0E8A5DBB
:101EC8000F0E8B59C90E8C594D0E8D59D8B06FEF26
:101ED8000FF071EF0FF05DEF10F07CC001F07DC0E6
:101EE80002F07EC003F07FC004F0D4EC1EF001C005
:101EF80092F002C093F003C094F004C095F0000E75
:101F0800456E000E466E000E476E3F0E486E830EFD
:101F1800136EF90E146E220E156E3F0E166E92C0D9
:101F28000FF093C010F094C011F095C012F031EC8E
:101F38000DF00FC041F010C042F011C043F012C0C4
:101F480044F0D1EC0AF041C051F042C052F043C015
:101F580053F044C054F06DEC1AF051C096F052C0E2
:101F680097F053C098F054C099F096C001F097C00C
:101F780002F098C003F099C004F0010E38EC18F094
:101F880001C08EF002C08FF003C090F004C091F041
:101F9800DA0E136E0F0E146EC90E156E3F0E166E06
:101FA8008EC00FF08FC010F090C011F091C012F0E9
:101FB80031EC0DF00FC055F010C056F011C057F0BD
:101FC80012C058F092C051F093C052F094C053F030
:101FD80095C054F0E3EC1DF051C085F052C086F076
:101FE80053C087F054C088F085C051F086C052F0C5
:101FF80087C053F088C054F0A30E136E850E146E7C
:10200800880E156E320E166E8EC00FF08FC010F04F
:1020180090C011F091C012F031EC0DF00FC055F0E6
:1020280010C056F011C057F012C058F0E3EC1DF084
:1020380000018051D96EDA6A51C0DEFF52C0DEFF5E
:1020480053C0DEFF54C0DEFF8951D8B42EEF10F024
:1020580030EF10F057EF10F08051D96EDA6ADECF0A
:1020680078F0DECF79F0DECF7AF0DECF7BF066EC69
:102078001EF000018051D96EDA6A78C0DEFF79C09F
:10208800DEFF7AC0DEFF7BC0DEFF96C05BF097C044
:102098005CF05B1E5C1E5B4A5C2A5BC07CF05CC02B
:1020A8007DF026EF11F096C07CF097C07DF026EF0A
:1020B80011F07CC001F07DC002F07EC003F07FC04B
:1020C80004F0D4EC1EF001C092F002C093F003C0FB
:1020D80094F004C095F0000E456E000E466E000E9A
:1020E800476E3F0E486E830E136EF90E146E220E65
:1020F800156E3F0E166E92C00FF093C010F094C08C
:1021080011F095C012F031EC0DF00FC041F010C085
:1021180042F011C043F012C044F0D1EC0AF041C0C3
:1021280051F042C052F043C053F044C054F06DEC3B
:102138001AF051C096F052C097F053C098F054C0AE
:1021480099F096C001F097C002F098C003F099C0CA
:1021580004F0010E38EC18F001C08EF002C08FF0C8
:1021680003C090F004C091F0DA0E136E0F0E146ED7
:10217800C90E156E3F0E166E8EC00FF08FC010F090
:1021880090C011F091C012F031EC0DF00FC055F075
:1021980010C056F011C057F012C058F092C051F05C
:1021A80093C052F094C053F095C054F0E3EC1DF086
:1021B80051C085F052C086F053C087F054C088F0F3
:1021C80085C051F086C052F087C053F088C054F0E3
:1021D800A30E136E850E146E880E156E320E166ED3
:1021E8008EC00FF08FC010F090C011F091C012F0A7
:1021F80031EC0DF00FC055F010C056F011C057F07B
:1022080012C058F0E3EC1DF051C081F052C082F0CA
:1022180053C083F054C084F000018051D96EDA6A4B
:1022280081C0DEFF82C0DEFF83C0DEFF84C0DEFF28
:102238008951D8B422EF11F024EF11F057EF10F0C4
:1022480030EF10F012002B50800B386E2B502B24DF
:102258003F6E2AAE32EF11F034EF11F035EF11F086
:102268003F803F50D8B43BEF11F03DEF11F052EFF3
:1022780011F03F28D8A443EF11F045EF11F04DEFCE
:1022880011F0000E286E000E296E000E2A6E000E48
:102298002B6E2A8E000E2B6E5AEF11F0000E286E50
:1022A800000E296E000E2A6E000E2B6E2F50800B2A
:1022B800381A2F502F24406E2EAE65EF11F067EFBD
:1022C80011F068EF11F040804050D8B46EEF11F073
:1022D80070EF11F085EF11F04028D8A476EF11F0D7
:1022E80078EF11F080EF11F0000E2C6E000E2D6EBD
:1022F800000E2E6E000E2F6E2E8E000E2F6E8DEF9E
:1023080011F0000E2C6E000E2D6E000E2E6E000EBB
:102318002F6E2C502D102E102F10D8A496EF11F0E0
:1023280098EF11F0B0EF11F0000E286E000E296E34
:10233800000E2A6E000E2B6E800E2A127F0E2B12B4
:1023480038502B1228C028F029C029F02AC02AF0BA
:102358002BC02BF0F3EF12F03F50D8A4B6EF11F0DA
:10236800B8EF11F0C2EF11F0000E286E000E296EC2
:10237800000E2A6E000E2B6EF3EF12F040503FC095
:1023880030F0316A305E000E315A7F0E3024396EDB
:10239800000E31203A6E28C034F029C035F02AC02A
:1023A80036F02BC037F0000E286E000E296E000E96
:1023B8002A6E000E2B6E000E3B6E000E3C6E000E59
:1023C8003D6E000E3E6E000E406E23EF12F0405040
:1023D800D8B4F1EF11F0F3EF11F00AEF12F0D89042
:1023E8003436353636363736D890283629362A36B2
:1023F8002B363EAE02EF12F004EF12F005EF12F0AA
:102408002880D8903B363C363D363E362C50345CDE
:102418002D5035582E5036582F503758D8A017EF12
:1024280012F019EF12F022EF12F03E8C2C50345EAD
:102438002D50355A2E50365A2F50375A402A190ED9
:10244800406429EF12F02BEF12F0EBEF11F034504B
:10245800351036103710D8B434EF12F036EF12F0CA
:102468004EEF12F03B804EEF12F0D8902836293606
:102478002A362B363EAE43EF12F045EF12F046EF08
:1024880012F02880D8903B363C363D363E36390629
:10249800D8A03A062AAE53EF12F055EF12F039EFF2
:1024A80012F0000E406E3EAE5CEF12F05EEF12F0DE
:1024B80082EF12F0FF0E3B14306EFF0E3C14316EAB
:1024C800FF0E3D14326E7F0E3E14336E30503110C5
:1024D80032103310D8B473EF12F075EF12F079EFB1
:1024E80012F0010E406E82EF12F028A07EEF12F07B
:1024F80080EF12F082EF12F075EF12F04050D8B46E
:1025080088EF12F08AEF12F0AEEF12F0010E2826D3
:10251800000E29222A222B222BA095EF12F097EFEA
:1025280012F0AEEF12F028C030F029C031F02AC006
:1025380032F02BC033F0333433323232313230326E
:1025480030C028F031C029F032C02AF033C02BF057
:10255800394A3A2A3ABEB9EF12F03A5008E1392816
:10256800D8A0B9EF12F0BBEF12F0C6EF12F0000ED0
:102578003A6E3968000E286E000E296E000E2A6E1B
:10258800000E2B6E3ABED3EF12F03A5006E1390432
:10259800D8B0D1EF12F0D3EF12F0E1EF12F0000E45
:1025A8003A6E000E396E000E286E000E296E000E6F
:1025B8002A6E000E2B6E000E386E39C03FF03FA019
:1025C800E8EF12F0EAEF12F0EDEF12F02A8EEEEFDC
:1025D80012F02A9ED8903F302B6EA4EF11F0120013
:1025E8002750D96EDA6ADFCFF6FF100EF76E0800B3
:1025F800F550250AD8A403EF13F005EF13F00DEFFB
:1026080014F02750D96EDA6ADF2A000E0001CA6F6B
:10261800000EC96FC9C0CDF0CB69CC69000E2F6E12
:1026280031EF13F00001CD812750D96EDA6ADF2A25
:1026380031EF13F0010E2F6E31EF13F02750D96EE2
:10264800DA6ADFCFF6FF100EF76E0800F5502D0A94
:10265800D8B416EF13F01EEF13F02F50D8B437EF9D
:1026680013F039EF13F022EF13F027C007F028C05A
:1026780008F043EC1DF007C0C9F008C0CAF000011B
:10268800CABF4BEF13F049EF13F050EF13F0CD81B1
:10269800C96DCA1FD8B0CA2B2750D96EDA6ADF5065
:1026A8002E6E2EC0F6FF100EF76E0800F550640A65
:1026B800D8B461EF13F063EF13F071EF13F02EC08D
:1026C800F6FF100EF76E0800F550690AD8A46FEFF0
:1026D80013F071EF13F08EEF13F02850D96EDA6A09
:1026E800020EDF26DF5CD96EDA6ADECF2AF0DECF93
:1026F8002BF02750D96EDA6A2E28DF6E25C019F024
:1027080026C01AF02AC01BF02BC01CF0CBEC19F025
:1027180020EF14F0000E2F6E2750D96EDA6ADFCF43
:10272800F6FF100EF76E0800F550730AD8A49FEF55
:1027380013F0A1EF13F0A9EF13F02750D96EDA6A5E
:10274800DF2A010E2F6EEBEF13F02750D96EDA6AED
:10275800DFCFF6FF100EF76E0800F5506C0AD8A40C
:10276800B8EF13F0BAEF13F0EBEF13F02750D96E70
:10277800DA6ADF50296E010E292629C0F6FF100EED
:10278800F76E0800F5506C0AD8A4CDEF13F0CFEF20
:1027980013F0EBEF13F02750D96EDA6ADF50296E89
:1027A800020E292629C0F6FF100EF76E0800F55014
:1027B800730AD8A4E2EF13F0E4EF13F0EBEF13F091
:1027C8002750D96EDA6A030EDF26A5EF13F02F50D3
:1027D800D8B4F1EF13F0F3EF13F007EF14F025C0BE
:1027E8000BF026C00CF02850D96EDA6A020EDF26EC
:1027F800DF5CD96EDA6ADECF0DF0DECF0EF012ECB8
:1028080019F020EF14F02750D96EDA6ADF2A20EF8A
:1028180014F02750D96EDA6ADFCFF6FF100EF76E84
:102828000800F550026E036A25C004F026C005F0C2
:1028380035EC1CF007EF14F0120094809288928611
:1028480092840F013897389593969496949AC65027
:10285800F00B0209C66EC698C78CC68A3981C09E1D
:10286800C050F80B0609C06EC050C70B3009C06EC7
:10287800C280330EAF6EAB8EAC98AC8AAB888A86BA
:10288800C250830B3009C26E010E0001BD6F010EEC
:10289800BC6F000EBE6F3AEF15F07F0EBE6157EFAA
:1028A80014F059EF14F05CEF14F0BE5147EC1EF031
:1028B8007E0E0001BE6563EF14F065EF14F0F9EFCA
:1028C80014F0BE51FF0A47EC1EF0F9EF14F0000EA9
:1028D8002C6E000E2D6E7F0E2E6E430E2F6EC30EC5
:1028E800136EF50E146EC80E156E400E166EBE51A0
:1028F800016E026A036A046A010E38EC18F001C01E
:102908000FF002C010F003C011F004C012F031EC57
:102918000DF00FC028F010C029F011C02AF012C025
:102928002BF027EC11F028C0B4F029C0B5F02AC06C
:10293800B6F02BC0B7F0B4C09AF0B5C09BF0B6C0E3
:102948009CF0B7C09DF04CEC08F09AC0B8F09BC062
:10295800B9F09CC0BAF09DC0BBF0000E456E000EE9
:10296800466EFE0E476E420E486E000E136E000E47
:10297800146EFE0E156E420E166EB8C00FF0B9C07A
:1029880010F0BAC011F0BBC012F031EC0DF00FC05E
:1029980041F010C042F011C043F012C044F0D1EC35
:1029A8000AF041C051F042C052F043C053F044C055
:1029B80054F06DEC1AF0515047EC1EF0F9EF14F09A
:1029C800BE51FF0A47EC1EF0F9EF14F0BD51010AA1
:1029D800D8B451EF14F0030AD8B46BEF14F0010A1D
:1029E800D8B4E4EF14F0F9EF14F0C282C2B2FFEFEA
:1029F80014F001EF15F0FAEF14F0850E356EC4CF20
:102A080036F0376A2EEC1FF082A00DEF15F00FEFAD
:102A180015F012EF15F0010E0001BD6F80A817EF39
:102A280015F019EF15F01CEF15F0020E0001BD6F3F
:102A380080A621EF15F023EF15F026EF15F0030E11
:102A48000001BD6F80A42BEF15F02DEF15F030EFCE
:102A580015F0000E0001BC6F0001BE2B680E5D6E04
:102A6800E40EE82EFED75D2EFCD700D00001BC5145
:102A7800D8A441EF15F043EF15F0EAEF14F0120077
:102A880051C00FF052C010F053C011F054C012F0F2
:102A980051C013F052C014F053C015F054C016F0D2
:102AA80031EC0DF00FC078F010C079F011C07AF059
:102AB80012C07BF078C00FF079C010F07AC011F026
:102AC8007BC012F078C013F079C014F07AC015F00A
:102AD8007BC016F031EC0DF00FC064F010C065F04B
:102AE80011C066F012C067F03C0E136E6C0E146EC7
:102AF800360E156E360E166E78C00FF079C010F0CF
:102B08007AC011F07BC012F031EC0DF00FC041F02B
:102B180010C042F011C043F012C044F0CF0E456E11
:102B2800070E466E500E476EB90E486ED1EC0AF08D
:102B380041C060F042C061F043C062F044C063F03D
:102B480078C00FF079C010F07AC011F07BC012F095
:102B580051C013F052C014F053C015F054C016F011
:102B680031EC0DF00FC074F010C075F011C076F0A4
:102B780012C077F0AB0E456EAA0E466E2A0E476E4F
:102B8800BE0E486E840E136E880E146E080E156EF7
:102B98003C0E166E78C00FF079C010F07AC011F0B4
:102BA8007BC012F031EC0DF00FC041F010C042F0C4
:102BB80011C043F012C044F0D1EC0AF041C068F0F3
:102BC80042C069F043C06AF044C06BF064C013F0BF
:102BD80065C014F066C015F067C016F074C00FF039
:102BE80075C010F076C011F077C012F031EC0DF01E
:102BF8000FC06CF010C06DF011C06EF012C06FF015
:102C080051C045F052C046F053C047F054C048F098
:102C180074C013F075C014F076C015F077C016F0C4
:102C280068C00FF069C010F06AC011F06BC012F0F4
:102C380031EC0DF00FC041F010C042F011C043F06C
:102C480012C044F0D1EC0AF041C070F042C071F0FB
:102C580043C072F044C073F070C041F071C042F0DC
:102C680072C043F073C044F060C013F061C014F048
:102C780062C015F063C016F06CC00FF06DC010F0A4
:102C88006EC011F06FC012F031EC0DF00FC045F0BE
:102C980010C046F011C047F012C048F0D1EC0AF05D
:102CA80041C051F042C052F043C053F044C054F008
:102CB800120051C00FF052C010F053C011F054C0B0
:102CC80012F051C013F052C014F053C015F054C0A4
:102CD80016F031EC0DF00FC074F010C075F011C093
:102CE80076F012C077F074C00FF075C010F076C09F
:102CF80011F077C012F074C013F075C014F076C0EC
:102D080015F077C016F031EC0DF00FC070F010C060
:102D180071F011C072F012C073F0170E136E9A0E94
:102D2800146ECC0E156E370E166E74C00FF075C08B
:102D380010F076C011F077C012F031EC0DF00FC032
:102D480041F010C042F011C043F012C044F03F0EF1
:102D5800456E040E466EB60E476EBA0E486ED1EC3E
:102D68000AF041C060F042C061F043C062F044C064
:102D780063F0000E456E000E466E800E476E3F0EE5
:102D8800486E000E136E000E146E000E156EBF0E08
:102D9800166E74C00FF075C010F076C011F077C0D1
:102DA80012F031EC0DF00FC041F010C042F011C02C
:102DB80043F012C044F0D1EC0AF041C064F042C0C4
:102DC80065F043C066F044C067F074C013F075C086
:102DD80014F076C015F077C016F070C00FF071C00F
:102DE80010F072C011F073C012F031EC0DF00FC08A
:102DF80068F010C069F011C06AF012C06BF09F0E45
:102E0800136EAA0E146E2A0E156E3D0E166E70C045
:102E18000FF071C010F072C011F073C012F031ECF5
:102E28000DF00FC045F010C046F011C047F012C0B9
:102E380048F064C041F065C042F066C043F067C026
:102E480044F0D1EC0AF041C06CF042C06DF043C0D0
:102E58006EF044C06FF06CC041F06DC042F06EC0BF
:102E680043F06FC044F060C013F061C014F062C05A
:102E780015F063C016F068C00FF069C010F06AC0A2
:102E880011F06BC012F031EC0DF00FC045F010C01E
:102E980046F011C047F012C048F0D1EC0AF041C02A
:102EA80051F042C052F043C053F044C054F01200F5
:102EB80094809288928692840F013897389566ECB0
:102EC8001BF0000E0001C06F000EBF6F000E486EB1
:102ED800000EF0EC1AF082A074EF17F076EF17F0FE
:102EE80098EF17F0030E5F6E080E5E6E770EE82EF1
:102EF800FED75E2EFCD75F2EFAD7000082A087EFA0
:102F080017F089EF17F098EF17F082B08EEF17F0EF
:102F180090EF17F089EF17F0020E486E0001C051CC
:102F2800F0EC1AF00001C06F80A89DEF17F09FEF3A
:102F380017F0C1EF17F0030E5F6E080E5E6E770E86
:102F4800E82EFED75E2EFCD75F2EFAD7000080A8A9
:102F5800B0EF17F0B2EF17F0C1EF17F080B8B7EF86
:102F680017F0B9EF17F0B2EF17F0010E486E000135
:102F7800C051F0EC1AF00001C06F80A6C6EF17F040
:102F8800C8EF17F021EF18F0030E5F6E080E5E6EA3
:102F9800770EE82EFED75E2EFCD75F2EFAD70000FC
:102FA80080A6D9EF17F0DBEF17F021EF18F080B605
:102FB800E0EF17F0E2EF17F0DBEF17F0FDEF17F097
:102FC800410E026E0250D8A4100E036E010E92EC50
:102FD8001CF0520E026E0250D8A4100E036E020EA0
:102FE80092EC1CF021EC14F0010E0001BF6F21EFF0
:102FF80018F00001C051000AD8B421EF18F0010AF6
:10300800D8B421EF18F0030AD8B421EF18F0010A58
:10301800D8B421EF18F0070AD8B4E4EF17F0010A82
:10302800D8B421EF18F0030AD8B421EF18F0010A38
:10303800D8B421EF18F021EF18F080500001BF51EB
:10304800D8B429EF18F02BEF18F06FEF17F0000E37
:10305800486EC051F0EC1AF00001C06F000EBF6F4F
:103068006FEF17F000EF00F0096E0950D8B43FEF8A
:1030780018F041EF18F063EF18F004BE48EF18F0AD
:1030880046EF18F063EF18F001C005F002C006F033
:1030980003C007F004C008F0051E061E071E081E20
:1030A800052A000E06220722082205C00BF006C0DA
:1030B8000CF007C00DF008C00EF06BEF18F001C05F
:1030C8000BF002C00CF003C00DF004C00EF001506C
:1030D800021003100410D8A474EF18F076EF18F05B
:1030E80080EF18F0000E016E000E026E000E036EE7
:1030F800000E046E11EF19F0960E0A6E8AEF18F0A2
:103108000A2AD8900E320D320C320B32000E0B14F4
:10311800056E000E0C14066E000E0D14076EFE0EE2
:103128000E14086E0550061007100810D8A49FEF5B
:1031380018F0A1EF18F084EF18F0AFEF18F00A2A92
:10314800010E0B26000E0C220D220E22D8900E32F4
:103158000D320C320B32000E0B14056E000E0C14DF
:10316800066E000E0D14076EFF0E0E14086E055045
:10317800061007100810D8A4C4EF18F0C6EF18F00E
:10318800A3EF18F0CEEF18F00A06D8900B360C36DD
:103198000D360E360DBED3EF18F0D5EF18F0DDEF73
:1031A80018F0020E0A60DBEF18F0DDEF18F0C8EF38
:1031B80018F00AB0E2EF18F0E4EF18F0E5EF18F0B5
:1031C8000D9ED8900A320AC005F0066A076A086A96
:1031D80005C008F0076A066A056A05500B12065012
:1031E8000C1207500D1208500E120950D8B4FFEFF8
:1031F80018F001EF19F009EF19F004BE08EF19F003
:1032080006EF19F009EF19F00E8E0BC001F00CC093
:1032180002F00DC003F00EC004F012000DC015F04E
:103228000EC016F015501610D8A41DEF19F01FEF98
:1032380019F025EF19F0630E156E1550D8A4100E6D
:10324800166E000E186E000E176E2DEF19F0174A45
:10325800182A175015240F6E18501620106E0FC01C
:10326800F6FF10C0F7FF000EF86E0F0EF76403D0DC
:103278000800F55005D0F6CFE1FFF7CFE2FFE750A1
:103288000009D8A44AEF19F04CEF19F02BEF19F008
:1032980017C011F018C012F0C9C013F0CAC014F05A
:1032A8000001CDB15AEF19F05CEF19F098EF19F061
:1032B8006AEF19F0000E036E200E026E0BC004F0C8
:1032C8000CC005F035EC1CF0174A182A1350175C8F
:1032D8001850800A0F6E1450800A0F58D8A077EF44
:1032E80019F079EF19F05EEF19F098EF19F015C0A1
:1032F800F6FF16C0F7FF000EF86E0F0EF76403D046
:103308000800F55005D0F6CFE1FFF7CFE2FFE75010
:103318000F6E0F50026E036A0BC004F00CC005F06C
:1033280035EC1CF0154A162A1106D8A012061128E9
:1033380006E11228D8A4A3EF19F0A5EF19F07BEF46
:1033480019F00001CDA1ABEF19F0ADEF19F0CAEFFC
:1033580019F0BBEF19F0000E036E200E026E0BC0C1
:1033680004F00CC005F035EC1CF0174A182A13506D
:10337800175C1850800A0F6E1450800A0F58D8A096
:10338800C8EF19F0CAEF19F0AFEF19F01200010EEB
:10339800216E1CBED2EF19F0D5EF19F0010ED6EF51
:1033A80019F0000E226EC9C01FF0CAC020F02250CA
:1033B800D8B4E1EF19F0E3EF19F0FAEF19F01F06AE
:1033C800D8A020062250D8A4ECEF19F0EEEF19F09F
:1033D800F4EF19F0000E1E6E2B0E1D6EF8EF19F0AB
:1033E800000E1E6E2D0E1D6E1DC022F0000E246EE6
:1033F8001F0E236E000E0001ED6F30EF1AF023064A
:10340800D8A024062350CE0FD96EDA6A1BC001F06B
:103418001CC002F0000E046E0A0E036EEBEC1CF0EA
:1034280001C007F002C008F0EEEC1EF00750300FA4
:10343800DF6E000E216E1F06D8A020061BC001F00B
:103448001CC002F0000E046E0A0E036ED3EC1BF0D3
:1034580001C01BF002C01CF024BE3BEF1AF0245040
:1034680008E12304D8A03BEF1AF03DEF1AF04EEF25
:103478001AF01B501C10D8A444EF1AF046EF1AF0AB
:1034880003EF1AF02150D8A44CEF1AF04EEF1AF0BF
:1034980003EF1AF02250D8B454EF1AF056EF1AF08E
:1034A8005FEF1AF02306D8A024062350CE0FD96E5A
:1034B800DA6A22C0DFFF19C011F01AC012F02350D7
:1034C800CE0F136E1FC014F020C015F096EC1DF03F
:1034D8001200533454345A6E5A50D8A476EF1AF066
:1034E80078EF1AF082EF1AF0000E516E000E526E4D
:1034F800000E536E000E546EEFEF1AF051C055F0E7
:1035080052C056F053C057F054C058F0200E92EFF6
:103518001AF0D8905832573256325532E82E8DEF7D
:103528001AF05550596E538EFF0E5116FF0E521653
:10353800FF0E5316000E5416960E5A5E5ABEA9EF89
:103548001AF0A7EF1AF0BFEF1AF05A50800A970F37
:10355800D8B0B1EF1AF0B3EF1AF0B5EF1AF078EF70
:103568001AF0D89054325332523251325A3EB5EF93
:103578001AF0D7EF1AF01F0E5A64C5EF1AF0C7EF0A
:103588001AF0CFEF1AF078EF1AF0D8905136523679
:10359800533654365A065A50D8A4D5EF1AF0D7EFF6
:1035A8001AF0C9EF1AF05950D8B4DDEF1AF0DFEF6E
:1035B8001AF0E7EF1AF0541E531E521E516C000EFB
:1035C80052225322542251C051F052C052F053C0DB
:1035D80053F054C054F0120000018A6FB9EC1EF089
:1035E80020EEEEF010EE82F0070EDBCFE3FFE806E8
:1035F800FCE217EF1BF0060E00018A6106EF1BF0D4
:1036080008EF1BF026EF1BF08A2B26EF1BF00001BA
:103618008A51D8B412EF1BF014EF1BF026EF1BF001
:103628008A0726EF1BF04850000AD8B426EF1BF093
:10363800010AD8B4FFEF1AF0030AD8B40BEF1BF055
:1036480026EF1BF0600E356E700E366E000E386E6B
:103658000F0E376E00018A51820FD96EDA6ADF5079
:10366800496E49C039F03950D8A4100E3A6E9EEC14
:103678001EF0710E356E710E366E000E386E100E1D
:10368800376E8AC049F0010E49264950820FD96E1B
:10369800DA6ADF504A6E4AC039F03950D8A4100EA1
:1036A8003A6E9EEC1EF0600E026E036A010E92ECFA
:1036B8001CF0710E026E036A020E92EC1CF00001FF
:1036C8008A5112000F013B913B939580958292900D
:1036D80089806C50F00B08096C6E130E6E6E6C8A44
:1036E800340E026EF20EE82EFED7022EFCD76B8047
:1036F8006BB081EF1BF083EF1BF07CEF1BF0A49EF7
:103708007C0E1BEC1FF0800E1BEC1FF0380E1BEC20
:103718001FF0800E1BEC1FF0390E1BEC1FF0800E03
:103728001BEC1FF0170E1BEC1FF0800E1BEC1FF09C
:103738007A0E1BEC1FF0800E1BEC1FF05E0E1BECCC
:103748001FF0800E1BEC1FF06B0E1BEC1FF0800EA1
:103758001BEC1FF00C0E1BEC1FF0800E1BEC1FF077
:10376800010E1BEC1FF0800E1BEC1FF0060E1BEC6D
:103778001FF0800E1BEC1FF0020E1BEC1FF06B8479
:103788006BB4C9EF1BF0CBEF1BF0C4EF1BF0340E8A
:10379800026EF20EE82EFED7022EFCD71200000EA3
:1037A800066E04BEDCEF1BF0DAEF1BF0E2EF1BF055
:1037B800036C041ED8B0042A010E066E02BEE9EF9F
:1037C8001BF0E7EF1BF0EFEF1BF0016C021ED8B007
:1037D800022A010E061A000E086E000E076E03502C
:1037E8000410D8B4FAEF1BF0FCEF1BF024EF1CF028
:1037F800010E056E04EF1CF0D89003360436052A36
:1038080004AE09EF1CF00BEF1CF000EF1CF0D89091
:10381800073608360350015C04500258D8A017EF49
:103828001CF019EF1CF01EEF1CF00350015E045051
:10383800025A0780D89004320332052E0BEF1CF091
:103848000650D8B42AEF1CF02CEF1CF030EF1CF017
:10385800076C081ED8B0082A07C001F008C002F09B
:10386800120004500510D8B43CEF1CF03EEF1CF0D9
:1038780047EF1CF004500510D8A445EF1CF047EFA3
:103888001CF04CEF1CF002503BEC1FF091EF1CF0C9
:1038980020EE0AF00450D9260550DA22DE50DE1058
:1038A800D8B459EF1CF05BEF1CF076EF1CF020EE5B
:1038B8000AF00450D9260550DA2210EE03F004501D
:1038C800E1260550E222DE50E65CE650800A0A6EE8
:1038D800DE50800A0A58D8B074EF1CF076EF1CF05E
:1038E80091EF1CF020EE03F00450D9260550DA229F
:1038F800DF50066E04C0D9FF05C0DAFFDF5006248A
:10390800D96EDA6A02C0DFFF20EE03F00450D92630
:103918000550DA22DE2A000EDD221200066E6B80C8
:103928006BB099EF1CF09BEF1CF094EF1CF0A49E79
:103938007C0E1BEC1FF0800E1BEC1FF00604D8A4B5
:10394800A8EF1CF0AAEF1CF0AFEF1CF0800E1BECE8
:103958001FF0BBEF1CF0020E0618D8A4B6EF1CF03F
:10396800B8EF1CF0BBEF1CF0C00E1BEC1FF0400EB4
:103978001BEC1FF0000E076E07500224046E000EA9
:103988000320056E04C0F6FF05C0F7FF000EF86EB1
:103998000F0EF76403D00800F55005D0F6CFE1FF0D
:1039A800F7CFE2FFE7501BEC1FF0072A0F0E076462
:1039B800E0EF1CF0E2EF1CF0C0EF1CF06B846BB47E
:1039C800E8EF1CF0EAEF1CF0E3EF1CF01200000E29
:1039D800066E02BEF4EF1CF0F2EF1CF0FAEF1CF0DA
:1039E800016C021ED8B0022A010E066E04BE01EF59
:1039F8001DF0FFEF1CF005EF1DF0036C041ED8B09E
:103A0800042A03500410D8B40CEF1DF00EEF1DF07B
:103A180032EF1DF0010E056E16EF1DF0D89003363B
:103A28000436052A04AE1BEF1DF01DEF1DF012EF42
:103A38001DF00350015C04500258D8A026EF1DF079
:103A480028EF1DF02CEF1DF00350015E0450025AC0
:103A5800D89004320332052E1DEF1DF00650D8B45D
:103A680038EF1DF03AEF1DF03EEF1DF0016C021E1D
:103A7800D8B0022A01C001F002C002F01200000E04
:103A88000B6E000E0A6E0750D96EDA6ADFCFF6FFAA
:103A9800100EF76E0800F5502A0AD8A456EF1DF04C
:103AA80058EF1DF07EEF1DF00750D96EDA6ADF2A55
:103AB8000850D96EDA6A020EDF26DF5CD96EDA6A40
:103AC800DECF0AF0DECF0BF091EF1DF00AC001F057
:103AD8000BC002F0000E046E0A0E036E08EC1FF015
:103AE800095001240A6E000E02200B6E0750D96E91
:103AF800DA6ADF2A0750D96EDA6ADFCFF6FF100ECE
:103B0800F76E0800F550D00F096E090E09648FEFA3
:103B18001DF091EF1DF06AEF1DF00AC007F00BC011
:103B280008F012000001CDA19CEF1DF09EEF1DF0E2
:103B3800A6EF1DF013C00BF011C00CF012C00DF071
:103B480027EC1EF015BEADEF1DF0ABEF1DF0B1EF89
:103B58001DF0000E156E000E146E000E186E000E8D
:103B6800176EC3EF1DF0000E036E200E026E11C01B
:103B780004F012C005F035EC1CF0174A182A14504E
:103B8800175C1850800A166E1550800A1658D8A06F
:103B9800D0EF1DF0D2EF1DF0B7EF1DF00001CDB151
:103BA800D8EF1DF0DAEF1DF0E2EF1DF013C00BF0B7
:103BB80011C00CF012C00DF027EC1EF01200000E20
:103BC800551A000E561A000E571A800E581A51C070
:103BD80041F052C042F053C043F054C044F055C0C5
:103BE80045F056C046F057C047F058C048F0D1ECF1
:103BF8000AF041C051F042C052F043C053F044C0F3
:103C080054F0120032C034F014EF1EF030C025F02A
:103C180031C026F0340E276E33C028F0F4EC12F0D1
:103C280034C0F6FF100EF76E0800F5500009D8A44E
:103C380020EF1EF022EF1EF00AEF1EF0000E316E8C
:103C4800000E306E1200000E106E000E0F6E38EF70
:103C58001EF00EC002F0036A0CC004F00DC005F09F
:103C680035EC1CF00F4A102A0B500F24D96EDA6A73
:103C7800DF500E6E0E50D8A444EF1EF046EF1EF033
:103C88002DEF1EF01200036E03380F0B3009016E82
:103C98000338F00B026E8A9601C0C9FF9EA657EF43
:103CA8001EF059EF1EF052EF1EF09E9602C0C9FF9B
:103CB8009EA661EF1EF063EF1EF05CEF1EF09E966D
:103CC8008A8612000001785179117A117B11D8B4D3
:103CD80070EF1EF072EF1EF07AEF1EF0000E781BE8
:103CE800000E791B000E7A1B800E7B1B78C078F0C3
:103CF80079C079F07AC07AF07BC07BF012008C0E24
:103D0800F66E3E0EF76E000EF86E00EEEEF010EE58
:103D180008F00900F5CFEEFFE550E150FAE100EEBA
:103D2800C1F02D0EEE6AE806FDE1000EF86E000106
:103D38005CEF17F0370E3B6E35C03CF0000E406E5E
:103D4800000E3F6E000E476E000E466E3C0E306E43
:103D5800316A36C032F03B0E336E06EC1EF0355039
:103D68003F24D96EDA6ADF6A12006B806BB0BFEF4E
:103D78001EF0C1EF1EF0BAEF1EF0A49E7C0E1BECE5
:103D88001FF0800E1BEC1FF0010E1BEC1FF06B8464
:103D98006BB4D1EF1EF0D3EF1EF0CCEF1EF0120083
:103DA800C1C005F0C2C006F0C3C007F0C4C008F027
:103DB80001C005F002C006F003C007F004C008F017
:103DC800089E05C001F006C002F007C003F008C055
:103DD80004F0120008BEF3EF1EF0F5EF1EF0FBEF43
:103DE8001EF007C007F008C008F007EF1FF007C073
:103DF80009F008C00AF0091E0A1E094A0A2A09C061
:103E080007F00AC008F0120001500302F3CF05F0D2
:103E1800F4CF06F001500402F350062602500302C4
:103E2800F350062605C001F006C002F01200016E2C
:103E380001C06FFF6DB023EF1FF025EF1FF01EEFDD
:103E48001FF0A4AE2AEF1FF02CEF1FF025EF1FF094
:103E5800A49E1200360E386E000E306E000E316EC3
:103E680035C032F0380E336E06EC1EF01200016ECB
:103E78009EA841EF1FF043EF1FF03CEF1FF001C079
:0C3E8800ADFF12007B80928E8A766A8962
:020000040030CA
:04000000FF331F3C6F
:00000001FF
