:04000000A7EF00F076
:100008005A82D9CF03F0DACF04F09DA00EEF00F0AA
:1000180010EF00F049EF00F09EA015EF00F017EF89
:1000280000F049EF00F001012651D8B41EEF00F0AE
:1000380020EF00F049EF00F080A425EF00F027EF53
:1000480000F044EF00F0030E026E080E016E770E0A
:10005800E82EFED7012EFCD7022EFAD7000080A486
:1000680038EF00F03AEF00F044EF00F080B43FEFD3
:1000780000F041EF00F03AEF00F0000E0001FE6FD3
:100088009E0ECF6E580ECE6E9E909DA04EEF00F045
:1000980050EF00F066EF00F09EA055EF00F057EF2C
:1000A80000F066EF00F001012451D8B45EEF00F0D3
:1000B80060EF00F066EF00F0232B0B0ECF6EDC0E26
:1000C800CE6E9E909DAA6BEF00F06DEF00F0A1EF51
:1000D80000F09EAA72EF00F074EF00F0A1EF00F0BC
:1000E80001012551D8B47BEF00F07DEF00F0A1EFBE
:1000F80000F0AECF05F00A0E0518D8B486EF00F070
:1001080088EF00F094EF00F0770E2125D96E010EEC
:100118002221DA6E05C0DFFF214B222BA1EF00F070
:10012800010E966F770E2125D96E010E2221DA6E07
:10013800DF6A000E226F000E216F04C0DAFF03C0D1
:10014800D9FF5A92110076EF26F0000E0001AE6F2B
:1001580086C0AFF087C0B0F088C0B1F089C0B2F0F7
:10016800B2BFBBEF00F0B9EF00F0CFEF00F0010E27
:10017800AE6FAFC080F0B0C081F0B1C082F0B2C045
:1001880083F075EC27F080C0AFF081C0B0F082C07A
:10019800B1F083C0B2F0000E0001B46F000EB36F6F
:1001A80055C09EF056C09FF0AE51D8B4DEEF00F0B7
:1001B800E0EF00F0F4EF00F0AE51D8A4E6EF00F065
:1001C800E8EF00F0EEEF00F0000E946F2B0E936F47
:1001D800F2EF00F0000E946F2D0E936F93C0AEF007
:1001E800AFC006F0B0C007F0B1C008F0B2C009F067
:1001F8006EEC21F006040710D8A405EF01F007EF14
:1002080001F03AEF01F00001AE51D8B40EEF01F061
:1002180010EF01F019EF01F0AEC027F19E07D8A04A
:100228009F07000EB46F010EB36F270EB325066E3D
:10023800010EB421076EEB0E086EFF0E096E92ECEC
:1002480027F00001FD0E9E27FF0E9F2384C017F0A4
:1002580085C018F0270E196E010E1A6E9EC01BF08D
:100268009FC01CF0F6EC24F0A5EF05F0AFC006F037
:10027800B0C007F0B1C008F0B2C009F06EEC21F0D0
:1002880006500710D8A44BEF01F04DEF01F06DEFC9
:1002980001F00001AE51D8B454EF01F056EF01F06F
:1002A8005FEF01F0AEC027F19E07D8A09F07000EB0
:1002B800B46F010EB36F270EB325066E010EB4217D
:1002C800076EEF0E086EFF0E096E92EC27F025EF11
:1002D80001F0000E0001B56F000EB66F800EB76F0B
:1002E8003F0EB86F000E9D6F000E9C6FAFC006F0FA
:1002F800B0C007F0B1C008F0B2C009F0000E0A6E35
:10030800000E0B6E000E0C6E000E0D6EA1EC24F0AC
:10031800D8B091EF01F093EF01F072EF02F0A0EF87
:1003280001F0A0C0B5F0A1C0B6F0A2C0B7F0A3C05C
:10033800B8F000019C4B9D2BB5C014F0B6C015F069
:10034800B7C016F0B8C017F0000E186E000E196E80
:10035800200E1A6E410E1B6E3AEC0DF014C0A0F080
:1003680015C0A1F016C0A2F017C0A3F00001A0515B
:10037800AF5D066EA151B059076EA251B159086E12
:10038800A351B259096E4BEC26F009BED7EF01F024
:1003980009500810071009E1020E065CD8A0D7EF33
:1003A80001F0D9EF01F095EF01F0A0C02DF0A1C048
:1003B8002EF0A2C02FF0A3C030F0AFC031F0B0C013
:1003C80032F0B1C033F0B2C034F0ECEC20F0D8A079
:1003D800F0EF01F0F2EF01F095EF01F00001B551F7
:1003E800AF5D066EB651B059076EB751B159086E78
:1003F800B851B259096E4BEC26F009BE11EF02F064
:1004080009500810071007E1020E065CD8B00FEF7C
:1004180002F011EF02F059EF02F0B5C0AFF0B6C02C
:10042800B0F0B7C0B1F0B8C0B2F072EF02F0B5C02A
:100438002DF0B6C02EF0B7C02FF0B8C030F0000EC7
:10044800316E000E326E200E336E410E346E30EC7B
:1004580011F02DC0B5F02EC0B6F02FC0B7F030C0E7
:10046800B8F000019C07D8A09D07B551AF5D066E96
:10047800B651B059076EB751B159086EB851B25953
:10048800096E4BEC26F009BE57EF02F00950081030
:10049800071007E1020E065CD8B055EF02F057EFDF
:1004A80002F059EF02F011EF02F0AFC02DF0B0C02A
:1004B8002EF0B1C02FF0B2C030F0B5C031F0B6C0E8
:1004C80032F0B7C033F0B8C034F0ECEC20F0D8A06C
:1004D80070EF02F072EF02F01BEF02F08AC096F0A4
:1004E80096C097F058BE7BEF02F07DEF02F083EFE5
:1004F80002F057C08FF058C090F088EF02F0000E5D
:100508000001906F060E8F6F8FC09AF090C09BF01D
:1005180000019A4B9B2B660E9719D8A496EF02F010
:1005280098EF02F0B8EF02F09DBF9FEF02F09DEF49
:1005380002F0ABEF02F0000EB56F000EB66F800E42
:10054800B76F3F0EB86F000E9D6F000E9C6F670E61
:100558009619D8B4B2EF02F0B4EF02F0B8EF02F097
:100568009C519A279D519B23000EA56F000EA46FE6
:10057800AFC0A6F0B0C0A7F0B1C0A8F0B2C0A9F053
:10058800B5C0A0F0B6C0A1F0B7C0A2F0B8C0A3F043
:1005980049EF03F0A6C02DF0A7C02EF0A8C02FF099
:1005A800A9C030F0B5C031F0B6C032F0B7C033F0F2
:1005B800B8C034F030EC11F02DC046F02EC047F032
:1005C8002FC048F030C049F056EC18F046C0AAF0E9
:1005D80047C0ABF048C0ACF049C0ADF0AAC064F069
:1005E800ABC065F0ACC066F0ADC067F068EC20F059
:1005F80064C098F065C099F0A6C064F0A7C065F023
:10060800A8C066F0A9C067F0AAC018F0ABC019F07E
:10061800ACC01AF0ADC01BF0B5C014F0B6C015F0F0
:10062800B7C016F0B8C017F03AEC0DF014C068F077
:1006380015C069F016C06AF017C06BF0EDEC26F033
:1006480064C0A6F065C0A7F066C0A8F067C0A9F0AE
:10065800B5C02DF0B6C02EF0B7C02FF0B8C030F03E
:10066800000E316E000E326E200E336E410E346E67
:1006780030EC11F02DC0B5F02EC0B6F02FC0B7F099
:1006880030C0B8F00001A44BA52B9A51A45DA55128
:10069800800A8B6F9B51800A8B59D8A056EF03F0C4
:1006A80058EF03F0CEEF02F0B5C014F0B6C015F065
:1006B800B7C016F0B8C017F0000E186E000E196E0D
:1006C800A00E1A6E400E1B6E3AEC0DF014C0AAF084
:1006D80015C0ABF016C0ACF017C0ADF0A6C02DF039
:1006E800A7C02EF0A8C02FF0A9C030F0AAC031F0E2
:1006F800ABC032F0ACC033F0ADC034F0ECEC20F05D
:10070800D8B089EF03F08BEF03F096EF03F0000EFB
:100718000001AA6F000EAB6F000EAC6F000EAD6F3C
:10072800BFEF03F0A6C006F0A7C007F0A8C008F006
:10073800A9C009F0AAC00AF0ABC00BF0ACC00CF01D
:10074800ADC00DF0A1EC24F0D8A0ADEF03F0AFEFF1
:1007580003F0BFEF03F0000198B1B5EF03F0B7EF76
:1007680003F0BFEF03F0000EAA6F000EAB6F000E90
:10077800AC6F000EAD6FAFC046F0B0C047F0B1C06F
:1007880048F0B2C049F0AAC04AF0ABC04BF0ACC0C8
:100798004CF0ADC04DF0D9EC0AF046C0A6F047C009
:1007A800A7F048C0A8F049C0A9F0A6C02DF0A7C07E
:1007B8002EF0A8C02FF0A9C030F0000E186E000E61
:1007C800196E200E1A6E410E1B6EA0C014F0A1C047
:1007D80015F0A2C016F0A3C017F03AEC0DF014C043
:1007E80031F015C032F016C033F017C034F0ECEC1D
:1007F80020F0D8A002EF04F004EF04F02DEF04F08D
:1008080000019C4B9D2BA0C014F0A1C015F0A2C004
:1008180016F0A3C017F0000E186E000E196E200E09
:100828001A6E410E1B6E3AEC0DF014C0A0F015C004
:10083800A1F016C0A2F017C0A3F0660E0001971928
:10084800D8A429EF04F02BEF04F02DEF04F09A4B15
:100858009B2BA0C0B5F0A1C0B6F0A2C0B7F0A3C052
:10086800B8F09CC08DF09DC08EF0000E0001956F11
:10087800000E926F000E916F000EA56F000EA46F10
:100888002BEF05F0A6C02DF0A7C02EF0A8C02FF0C2
:10089800A9C030F0B5C031F0B6C032F0B7C033F0FF
:1008A800B8C034F030EC11F02DC046F02EC047F03F
:1008B8002FC048F030C049F056EC18F046C0AAF0F6
:1008C80047C0ABF048C0ACF049C0ADF0AAC064F076
:1008D800ABC065F0ACC066F0ADC067F068EC20F066
:1008E800000165BF83EF04F0655107E10A0E645DFE
:1008F800D8B081EF04F083EF04F093EF04F0AAC0BE
:1009080064F0ABC065F0ACC066F0ADC067F068ECF1
:1009180020F064C098F065C099F097EF04F0000EDD
:10092800996F090E986F00019551D8A49EEF04F0B5
:10093800A0EF04F0C8EF04F08EBFA7EF04F0A5EF16
:1009480004F0C8EF04F0270EB325D96E010EB421C8
:10095800DA6E2E0EDF6EB34BB42B9E07D8A09F071E
:10096800010E956FC8EF04F0270EB325D96E010E5E
:10097800B421DA6E300EDF6EB34BB42B9E07D8A0CD
:100988009F079107D8A0920791519211D8A4CFEF51
:1009980004F0D1EF04F0B8EF04F0270EB325D96EB8
:1009A800010EB421DA6E9851300FDF6EB34BB42BC1
:1009B8009E07D8A09F07A6C064F0A7C065F0A8C08E
:1009C80066F0A9C067F0AAC018F0ABC019F0ACC0B7
:1009D8001AF0ADC01BF0B5C014F0B6C015F0B7C022
:1009E80016F0B8C017F03AEC0DF014C068F015C056
:1009F80069F016C06AF017C06BF0EDEC26F064C021
:100A0800A6F065C0A7F066C0A8F067C0A9F0B5C099
:100A18002DF0B6C02EF0B7C02FF0B8C030F0000EE1
:100A2800316E000E326E200E336E410E346E30EC95
:100A380011F02DC0B5F02EC0B6F02FC0B7F030C001
:100A4800B8F000018D07D8A08E07A44BA52B9A51AA
:100A5800A45DA551800A8B6F9B51800A8B59D8B031
:100A680038EF05F03AEF05F048EF05F0B4BF46EF70
:100A780005F0B45109E14B0EB35DD8A046EF05F07F
:100A880048EF05F046EF04F0000EA56F4F0EA46F77
:100A9800270EA425D96E010EA521DA6EDF6A270E6E
:100AA8008B6F010E8C6FB3518B5FB4518C5BA4516B
:100AB8008B25066EA5518C21076E270E086E010E38
:100AC800096EB3C00AF0B4C00BF0A0EC26F0000128
:100AD800B351A45DB36FB451A559B46FAE51D8A446
:100AE80078EF05F07BEF05F0010E7CEF05F0000EC6
:100AF800A46FA56BAE51D8B484EF05F086EF05F06E
:100B080091EF05F0B307D8A0B407270EB325D96E27
:100B1800010EB421DA6EAEC0DFFFA4519E5FA5516D
:100B28009F5B84C017F085C018F0270EB325196E97
:100B3800010EB4211A6E9EC01BF09FC01CF0F6EC8B
:100B480024F012000001BB51D96EDA6ADECFF6FF3D
:100B5800DDCFF7FF0800F550250AD8A4B6EF05F059
:100B6800B8EF05F040EF08F0BB51D96EDA6ADE2A1B
:100B7800000EDD22000E566E000E556E55C059F05F
:100B880057685868000EBF6FE6EF05F05980BB51F3
:100B9800D96EDA6ADE2A000EDD22E6EF05F0010ED4
:100BA800BF6FE6EF05F0BB51D96EDA6ADECFF6FF0C
:100BB800DDCFF7FF0800F5502D0AD8B4CAEF05F0CD
:100BC800D3EF05F0BF51D8B4ECEF05F0EEEF05F028
:100BD800D7EF05F0BBC00CF0BCC00DF04AEC24F018
:100BE8000CC055F00DC056F056BEFFEF05F0FDEFF6
:100BF80005F004EF06F05980556C561ED8B0562AF9
:100C08000001BB51D96EDA6ADECFF6FFDDCFF7FF00
:100C18000800F5502E0AD8A414EF06F016EF06F0D7
:100C280026EF06F0BB51D96EDA6ADE2A000EDD2205
:100C3800BBC00CF0BCC00DF04AEC24F00CC057F05F
:100C48000DC058F00001BB51D96EDA6ADECFC5F08D
:100C5800DDCFC6F0C5C0F6FFC6C0F7FF0800F5CF68
:100C6800C4F043EF06F0C54BC62B56EF06F0690EED
:100C7800C46F56EF06F0000EC46F56EF06F0C4516D
:100C8800640AD8B43BEF06F00C0AD8B437EF06F084
:100C9800010AD8B43BEF06F01C0AD8B43BEF06F0C3
:100CA8003FEF06F0C5C0F6FFC6C0F7FF0800F550D5
:100CB800640AD8B462EF06F064EF06F090EF06F02D
:100CC800C5C0F6FFC6C0F7FF0800F550690AD8A4EA
:100CD80070EF06F072EF06F0B4EF06F090EF06F052
:100CE800BC51D96EDA6A020EDF26DF5CD96EDA6A89
:100CF800DECFC0F0DECFC1F09BEF06F0BC51D96E5D
:100D0800DA6A020EDF26DF5CD96EDA6ADECFC0F05F
:100D1800DECFC1F09BEF06F0C451680AD8B482EF69
:100D280006F0010AD8B474EF06F09BEF06F0010E46
:100D3800C525BD6F000EC621BE6FBB51D96EDA6ADC
:100D4800BDC0DEFFBEC0DDFFB9C020F0BAC021F0D3
:100D5800C0C022F0C1C023F012EC1DF053EF08F020
:100D6800C5C0F6FFC6C0F7FF0800F550750AD8A43D
:100D7800C0EF06F0C2EF06F012EF07F0E0EF06F062
:100D8800BC51D96EDA6A020EDF26DF5CD96EDA6AE8
:100D9800DECFC0F0DECFC1F0EBEF06F0BC51D96E6C
:100DA800DA6A020EDF26DF5CD96EDA6ADECFC0F0BF
:100DB800DECFC1F0EBEF06F0C451680AD8B4D2EF29
:100DC80006F0010AD8B4C4EF06F0EBEF06F0010E06
:100DD800C525BD6F000EC621BE6FBB51D96EDA6A3C
:100DE800BDC0DEFFBEC0DDFF06EF07F0B9C020F0D2
:100DF800BAC021F0C0C022F0C1C023F0EDEC21F050
:100E080053EF08F0C5C0F6FFC6C0F7FF0800F5505D
:100E1800750AD8B4FAEF06F012EF07F0000EBF6FAC
:100E2800BB51D96EDA6ADECFF6FFDDCFF7FF0800D7
:100E3800F550730AD8A423EF07F025EF07F02FEF3A
:100E480007F0BB51D96EDA6ADE2A000EDD22010EE8
:100E5800BF6F7BEF07F0BB51D96EDA6ADECFF6FFC2
:100E6800DDCFF7FF0800F5506C0AD8A43EEF07F075
:100E780040EF07F07BEF07F0BB51D96EDA6ADECF9F
:100E8800BDF0DDCFBEF0010EBD27000EBE23BDC0F4
:100E9800F6FFBEC0F7FF0800F5506C0AD8A457EF5C
:100EA80007F059EF07F07BEF07F0BB51D96EDA6A0C
:100EB800DECFBDF0DDCFBEF0020EBD27000EBE2393
:100EC800BDC0F6FFBEC0F7FF0800F550730AD8A4EE
:100ED80070EF07F072EF07F07BEF07F0BB51D96EA8
:100EE800DA6A030EDE26000EDD222BEF07F0BF5173
:100EF800D8B481EF07F083EF07F097EF07F0B9C098
:100F080010F0BAC011F0BC51D96EDA6A020EDF26B1
:100F1800DF5CD96EDA6ADECF12F0DECF13F043EC75
:100F28001CF053EF08F0BB51D96EDA6ADECFC5F07A
:100F3800DDCFC6F0C5C0F6FFC6C0F7FF0800F5CF85
:100F4800C4F0B3EF07F0C54BC62BC2EF07F06C0E29
:100F5800C46FC2EF07F0000EC46FC2EF07F0C451B0
:100F68004C0AD8B4A7EF07F02A0AD8B4ABEF07F0B9
:100F78000A0AD8B4A7EF07F0AFEF07F0C5C0F6FF2D
:100F8800C6C0F7FF0800F550660AD8A4CEEF07F0F0
:100F9800D0EF07F037EF08F0FAEF07F0BC51D96E41
:100FA800DA6ADFCFBDF0040EDF26BD51D96EDA6AEA
:100FB800DECFC0F0DECFC1F0DECFC2F0DECFC3F0AF
:100FC80005EF08F0BC51D96EDA6ADFCFBDF0040E28
:100FD800DF26BD51D96EDA6ADECFC0F0DECFC1F0B0
:100FE800DECFC2F0DECFC3F005EF08F0C4514C0AE3
:100FF800D8B4E6EF07F0200AD8B4D2EF07F005EF2F
:1010080008F0010EC525BD6F000EC621BE6FBB518D
:10101800D96EDA6ABDC0DEFFBEC0DDFF2BEF08F077
:10102800B9C084F0BAC085F0C0C086F0C1C087F0EE
:10103800C2C088F0C3C089F0C5C0F6FFC6C0F7FFBC
:101048000800F5CF8AF0A9EC00F053EF08F0C5C00E
:10105800F6FFC6C0F7FF0800F550660AD8B414EFCB
:1010680008F037EF08F00001BB51D96EDA6ADE2AC2
:10107800000EDD2253EF08F0BB51D96EDA6ADECFDD
:10108800F6FFDDCFF7FF0800F550076E086AB9C014
:1010980009F0BAC00AF0D2EC22F037EF08F01200DB
:1010A800A4C0BAF0A5C0BBF0A6C0BCF0A7C0BDF0F4
:1010B8000001BDBF62EF08F065EF08F0010E66EFB2
:1010C80008F0000EB16FBD9FDB0EBA5D0F0EBB5965
:1010D800490EBC593F0EBD59D8B075EF08F077EFEF
:1010E80008F0A0EF08F0800EBC5D390EBD59D8B0ED
:1010F80080EF08F082EF08F08CEF08F0A4C0A4F0AD
:10110800A5C0A5F0A6C0A6F0A7C0A7F0D8EF0AF022
:10111800A4C064F0A5C065F0A6C066F0A7C067F0DB
:101128003DEC17F064C0A4F065C0A5F066C0A6F059
:1011380067C0A7F0D8EF0AF0D20EBA5D530EBB59BC
:101148007B0EBC59400EBD59D8B0ADEF08F0AFEFDB
:1011580008F092EF09F0E40EBA5DCB0EBB59160EFB
:10116800BC59400EBD59D8B0BCEF08F0BEEF08F02E
:101178002CEF09F0B151D8B4C4EF08F0C6EF08F06D
:10118800FEEF08F0DB0E4A6E0F0E4B6EC90E4C6E6A
:101198003F0E4D6EA4C046F0A5C047F0A6C048F06B
:1011A800A7C049F0D9EC0AF046C0B2F047C0B3F086
:1011B80048C0B4F049C0B5F0B2C064F0B3C065F03F
:1011C800B4C066F0B5C067F06AEC1AF064C080F08D
:1011D80065C081F066C082F067C083F075EC27F0C7
:1011E80080C0A4F081C0A5F082C0A6F083C0A7F09B
:1011F800D8EF0AF0A4C046F0A5C047F0A6C048F052
:10120800A7C049F0DB0E4A6E0F0E4B6EC90E4C6E2E
:10121800BF0E4D6ED9EC0AF046C0B2F047C0B3F02D
:1012280048C0B4F049C0B5F0B2C064F0B3C065F0CE
:10123800B4C066F0B5C067F06AEC1AF064C0A4F0F8
:1012480065C0A5F066C0A6F067C0A7F0D8EF0AF0A1
:10125800B151D8A432EF09F034EF09F05AEF09F090
:10126800DB0E4A6E0F0E4B6E490E4C6EC00E4D6E65
:10127800A4C046F0A5C047F0A6C048F0A7C049F0F2
:10128800D9EC0AF046C080F047C081F048C082F02F
:1012980049C083F075EC27F080C0A8F081C0A9F0A0
:1012A80082C0AAF083C0ABF07EEF09F0DB0E4A6E75
:1012B8000F0E4B6E490E4C6E400E4D6EA4C046F09C
:1012C800A5C047F0A6C048F0A7C049F0D9EC0AF07D
:1012D80046C080F047C081F048C082F049C083F022
:1012E80075EC27F080C0A8F081C0A9F082C0AAF0F0
:1012F80083C0ABF0A8C064F0A9C065F0AAC066F0CE
:10130800ABC067F03DEC17F064C0A4F065C0A5F071
:1013180066C0A6F067C0A7F0D8EF0AF0D60EBA5D8F
:10132800310EBB59E20EBC59400EBD59D8B09FEFE3
:1013380009F0A1EF09F042EF0AF0E00EBA5DED0EF8
:10134800BB59AF0EBC59400EBD59D8B0AEEF09F02D
:10135800B0EF09F0F0EF09F0B151D8B4B6EF09F0E9
:10136800B8EF09F0D4EF09F0A4C046F0A5C047F0E3
:10137800A6C048F0A7C049F0E40E4A6ECB0E4B6EEB
:10138800960E4C6E400E4D6ED9EC0AF046C0B2F087
:1013980047C0B3F048C0B4F049C0B5F018EF09F041
:1013A800E40E4A6ECB0E4B6E960E4C6EC00E4D6E12
:1013B800A4C046F0A5C047F0A6C048F0A7C049F0B1
:1013C800D9EC0AF046C0B2F047C0B3F048C0B4F058
:1013D80049C0B5F0E0EF08F0B151D8A4F6EF09F034
:1013E800F8EF09F014EF0AF0A4C046F0A5C047F0E2
:1013F800A6C048F0A7C049F0DB0E4A6E0F0E4B6E30
:10140800C90E4C6EC00E4D6ED9EC0AF046C0ACF059
:1014180047C0ADF048C0AEF049C0AFF02EEF0AF0BB
:10142800A4C046F0A5C047F0A6C048F0A7C049F040
:10143800DB0E4A6E0F0E4B6EC90E4C6E400E4D6E93
:10144800D9EC0AF046C0ACF047C0ADF048C0AEF0E9
:1014580049C0AFF0ACC064F0ADC065F0AEC066F096
:10146800AFC067F03DEC17F064C0A4F065C0A5F00C
:1014780066C0A6F067C0A7F0D8EF0AF0800EBC5D82
:101488007F0EBD59D8A04BEF0AF04DEF0AF05FEF81
:101498000AF0FF0EBA13FF0EBB13FF0EBC13000EAB
:1014A800BD13BAC0A4F0BBC0A5F0BCC0A6F0BDC0B7
:1014B800A7F0D8EF0AF0A4C084F0A5C085F0A6C0B4
:1014C80086F0A7C087F0B60E886F4FEC0FF00001CA
:1014D8008451030BB06FC9EF0AF0B6C080F0B7C0F3
:1014E80081F0B8C082F0B9C083F075EC27F080C0F5
:1014F800B6F081C0B7F082C0B8F083C0B9F0B6C00A
:1015080064F0B7C065F0B8C066F0B9C067F03DECEC
:1015180017F064C0A4F065C0A5F066C0A6F067C067
:10152800A7F0D8EF0AF0B6C064F0B7C065F0B8C04D
:1015380066F0B9C067F06AEC1AF064C0A4F065C040
:10154800A5F066C0A6F067C0A7F0D8EF0AF0B6C04D
:1015580064F0B7C065F0B8C066F0B9C067F06AEC6F
:101568001AF064C080F065C081F066C082F067C080
:1015780083F075EC27F080C0A4F081C0A5F082C08C
:10158800A6F083C0A7F0D8EF0AF0B051000AD8B48B
:1015980083EF0AF0010AD8B497EF0AF0030AD8B427
:1015A80071EF0AF0ABEF0AF012004950800B00010E
:1015B800606F49504924626F48AEE5EF0AF0E7EFE3
:1015C8000AF0E8EF0AF062816251D8B4EEEF0AF04F
:1015D800F0EF0AF005EF0BF06229D8A4F6EF0AF055
:1015E800F8EF0AF000EF0BF0000E466E000E476EA3
:1015F800000E486E000E496E488E000E496E0DEFC3
:101608000BF0000E466E000E476E000E486E000E80
:10161800496E4D50800B616F60516119D8B417EF56
:101628000BF019EF0BF01AEF0BF0608D4D504D24B5
:10163800616F4CAE22EF0BF024EF0BF025EF0BF0AF
:1016480061816151D8B42BEF0BF02DEF0BF042EF15
:101658000BF06129D8A433EF0BF035EF0BF03DEF19
:101668000BF0000E4A6E000E4B6E000E4C6E000E14
:101678004D6E4C8E000E4D6E4AEF0BF0000E4A6E0A
:10168800000E4B6E000E4C6E000E4D6E6251615D89
:10169800D8B051EF0BF053EF0BF07AEF0BF060ADD1
:1016A80058EF0BF05AEF0BF05CEF0BF0800E601B5D
:1016B80062C063F061C062F063C061F046C063F06D
:1016C8004AC046F063C04AF047C063F04BC047F0D9
:1016D80063C04BF048C063F04CC048F063C04CF0A6
:1016E80049C063F04DC049F063C04DF0000E636F10
:1016F800625161C04EF04F6A4E5E000E4F5A4FBEA7
:101708008FEF0BF04F5009E11A0E4E5CD8A08FEF07
:101718000BF091EF0BF0C8EF0BF046504710481054
:101728004910D8A49AEF0BF09DEF0BF0010E9EEF35
:101738000BF0000E636F000E466E000E476E000E33
:10174800486E000E496E61C062F0D1EF0BF063A1E4
:10175800B0EF0BF0B2EF0BF0B8EF0BF0D8906331AD
:101768000109636FBAEF0BF0D890633346A0BFEF5F
:101778000BF0C1EF0BF0C2EF0BF0638F4934493225
:10178800483247324632622B6151625DD8A0CFEFB2
:101798000BF0D1EF0BF0ABEF0BF060BDD6EF0BF019
:1017A800D8EF0BF018EF0CF06251D8A4DEEF0BF075
:1017B800E0EF0BF0EAEF0BF0000E466E000E476EFE
:1017C800000E486E000E496E39EF0DF04A5046265D
:1017D8004B5047224C5048224D50492249A0F7EF20
:1017E8000BF0F9EF0BF0A5EF0CF063A1FEEF0BF097
:1017F80000EF0CF006EF0CF0D89063310109636F2D
:1018080008EF0CF0D890633346A00DEF0CF00FEF03
:101818000CF010EF0CF0638F4934493248324732EC
:101828004632622BA5EF0CF04A50465C4B504758A5
:101838004C5048584950800A4E6E4D50800A4E58B8
:10184800D8B029EF0CF02BEF0CF056EF0CF0465007
:101858004A5C4E6E47504B584F6E48504C58506E2D
:1018680049504D58516EFF0E4E24466EFF0E4F20C4
:10187800476EFF0E5020486EFF0E5120496E800EB5
:10188800601B636D6351D8A44CEF0CF04EEF0CF065
:101898005EEF0CF0010E4626000E47224822492230
:1018A8005EEF0CF04A50465E4B50475A4C50485A2F
:1018B8004D50495A4650471048104910D8A467EF70
:1018C8000CF069EF0CF09EEF0CF06351D8A46FEFA9
:1018D8000CF071EF0CF09EEF0CF0000E466E000E4F
:1018E800476E000E486E000E496E39EF0DF0D89025
:1018F800463647364836493663AF85EF0CF087EFF2
:101908000CF088EF0CF0468063A18DEF0CF08FEFA0
:101918000CF093EF0CF0D880633795EF0CF0D8906B
:1019280063376251D8B49BEF0CF09DEF0CF09EEF3B
:101938000CF0620748AEA3EF0CF0A5EF0CF07BEFBC
:101948000CF0000E616F63AFACEF0CF0AEEF0CF073
:10195800C6EF0CF063C04EF07F0E4E16D8B4B7EF4A
:101968000CF0B9EF0CF0BDEF0CF0010E616FC6EF93
:101978000CF046A0C2EF0CF0C4EF0CF0C6EF0CF070
:10198800B9EF0CF06151D8B4CCEF0CF0CEEF0CF0FD
:10199800F9EF0CF0010E4626000E47224822492294
:1019A80049A0D9EF0CF0DBEF0CF0F9EF0CF046C0D2
:1019B8004EF047C04FF048C050F049C051F0513484
:1019C800513250324F324E324EC046F04FC047F07F
:1019D80050C048F051C049F06229D8B4F6EF0CF075
:1019E800F8EF0CF0F9EF0CF0622B6229D8B4FFEF96
:1019F8000CF001EF0DF009EF0DF06251D8A407EFDC
:101A08000DF009EF0DF01BEF0DF0000E466E000E05
:101A1800476E000E486E000E496E6251D8A417EF4B
:101A28000DF019EF0DF01BEF0DF0000E606F62A1C5
:101A380020EF0DF022EF0DF025EF0DF0488E26EF88
:101A48000DF0489ED8906231496E60AF2EEF0DF0D0
:101A580030EF0DF031EF0DF0498E46C046F047C02B
:101A680047F048C048F049C049F012001750800BB1
:101A7800206E17501724266E16AE45EF0DF047EF6F
:101A88000DF048EF0DF026802650D8B44EEF0DF03B
:101A980050EF0DF063EF0DF02628D8A456EF0DF0A7
:101AA80058EF0DF060EF0DF0000E146E000E156E7D
:101AB800000E166E000E176E168E6BEF0DF0000EF0
:101AC800146E000E156E000E166E000E176E1B506B
:101AD800800B201A1B501B24216E1AAE76EF0DF0D6
:101AE80078EF0DF079EF0DF021802150D8B47FEF19
:101AF8000DF081EF0DF094EF0DF02128D8A487EFB9
:101B08000DF089EF0DF091EF0DF0000E186E000E3C
:101B1800196E000E1A6E000E1B6E1A8E9CEF0DF0D9
:101B2800000E186E000E196E000E1A6E000E1B6E57
:101B38002150D8B4A2EF0DF0A4EF0DF0ACEF0DF0EA
:101B48002650D8A4AAEF0DF0ACEF0DF0B6EF0DF0CB
:101B5800000E146E000E156E000E166E000E176E37
:101B68004EEF0FF01A501402F3CF2BF0F4CF2CF0F5
:101B78002B50226E236A246A256A2C50276E286A05
:101B8800296A2A6A19501502F3CF2BF0F4CF2CF0EA
:101B98002B502226000E2322242225222C502726D1
:101BA800000E282229222A2218501602F3CF2BF0E1
:101BB800F4CF2CF02B502226000E2322242225229B
:101BC8002C502726000E282229222A2224C025F05C
:101BD80023C024F022C023F0226A18501502F3CF44
:101BE8002BF0F4CF2CF02B5022262C502322000E61
:101BF8002422000E252219501402F3CF2BF0F4CF23
:101C08002CF02B5022262C502322000E2422000ECA
:101C1800252224C025F023C024F022C023F0226A04
:101C280018501402F3CF2BF0F4CF2CF02B502226AF
:101C38002C502322000E2422000E25221A501502B1
:101C4800F3CF2BF0F4CF2CF02B5027262C50282242
:101C5800000E2922000E2A2219501602F3CF2BF06B
:101C6800F4CF2CF02B5027262C502822000E2922A6
:101C7800000E2A221A501602F3CF2BF0F4CF2CF0C4
:101C88002B501C6E2C501D6E1E6A1F6A1EC01FF042
:101C98001DC01EF01CC01DF01C6A1C5027261D50BC
:101CA80028221E5029221F502A2222C01CF023C09D
:101CB8001DF024C01EF025C01FF0190E69EF0EF0AC
:101CC800D8901F321E321D321C32E82E64EF0EF0FF
:101CD8001C5027261D5028221E5029221F502A2218
:101CE80024C025F023C024F022C023F0226A21500A
:101CF80026C01CF01D6A1C26000E1D22820E1C2404
:101D08002B6EFF0E1D202C6E9FEF0EF0D8902736FD
:101D1800283629362A3625AE94EF0EF096EF0EF0C7
:101D280097EF0EF02780D8902236233624362536B2
:101D38002B06D8A02C0629AEA4EF0EF0A6EF0EF0C5
:101D48008AEF0EF0000E216E25AEADEF0EF0AFEF6C
:101D58000EF0D3EF0EF0FF0E22141C6EFF0E2314AC
:101D68001D6EFF0E24141E6E7F0E25141F6E1C5050
:101D78001D101E101F10D8B4C4EF0EF0C6EF0EF0E1
:101D8800CAEF0EF0010E216ED3EF0EF027A0CFEFB1
:101D98000EF0D1EF0EF0D3EF0EF0C6EF0EF021509B
:101DA800D8B4D9EF0EF0DBEF0EF0FFEF0EF0010E16
:101DB8002726000E282229222A222AA0E6EF0EF042
:101DC800E8EF0EF0FFEF0EF027C01CF028C01DF062
:101DD80029C01EF02AC01FF01F341F321E321D32C8
:101DE8001C321CC027F01DC028F01EC029F01FC0DF
:101DF8002AF02B4A2C2A2CBE0AEF0FF02C5008E1AF
:101E08002B28D8A00AEF0FF00CEF0FF016EF0FF009
:101E1800000E276E000E286E800E296E7F0E2A6E29
:101E280044EF0FF02CBE23EF0FF02C5006E12B04EB
:101E3800D8B021EF0FF023EF0FF02FEF0FF0000EC7
:101E4800276E000E286E000E296E000E2A6E000EF8
:101E5800206E44EF0FF02BC026F0FF0E2716FF0E62
:101E680028167F0E2916000E2A1626A03EEF0FF020
:101E780040EF0FF041EF0FF0298ED89026302A6EF0
:101E880020502A1227C014F028C015F029C016F0D7
:101E98002AC017F0120015C194F016C195F017C1A9
:101EA80096F018C197F084C094F085C095F086C06C
:101EB80096F087C097F0000197BF65EF0FF068EFC5
:101EC8000FF0010E69EF0FF0000E936F979FDB0E76
:101ED800945D0F0E9559C90E96594D0E9759D8B065
:101EE80078EF0FF07AEF0FF066EF10F084C006F08D
:101EF80085C007F086C008F087C009F0E4EC27F039
:101F080006C09CF007C09DF008C09EF009C09FF075
:101F1800000E4A6E000E4B6E000E4C6E3F0E4D6E5C
:101F2800830E186EF90E196E220E1A6E3F0E1B6E76
:101F38009CC014F09DC015F09EC016F09FC017F00D
:101F48003AEC0DF014C046F015C047F016C048F042
:101F580017C049F0D9EC0AF046C064F047C065F0F4
:101F680048C066F049C067F068EC20F064C0A0F093
:101F780065C0A1F066C0A2F067C0A3F0A0C006F0DB
:101F8800A1C007F0A2C008F0A3C009F0010E69ECD7
:101F98001BF006C098F007C099F008C09AF009C075
:101FA8009BF0DA0E186E0F0E196EC90E1A6E3F0EE0
:101FB8001B6E98C014F099C015F09AC016F09BC01B
:101FC80017F03AEC0DF014C068F015C069F016C0AF
:101FD8006AF017C06BF09CC064F09DC065F09EC0AD
:101FE80066F09FC067F0EDEC26F064C08FF065C026
:101FF80090F066C091F067C092F08FC064F090C016
:1020080065F091C066F092C067F0A30E186E850E59
:10201800196E880E1A6E320E1B6E98C014F099C095
:1020280015F09AC016F09BC017F03AEC0DF014C0EA
:1020380068F015C069F016C06AF017C06BF0EDECD7
:1020480026F000018851D96EDA6A64C0DEFF65C0E7
:10205800DEFF66C0DEFF67C0DEFF9351D8B437EFFE
:1020680010F039EF10F060EF10F08851D96EDA6A8D
:10207800DECF80F0DECF81F0DECF82F0DECF83F0DE
:1020880075EC27F000018851D96EDA6A80C0DEFF4E
:1020980081C0DEFF82C0DEFF83C0DEFFA0C089F002
:1020A800A1C08AF0891F8A1F894B8A2B89C084F0B6
:1020B8008AC085F02FEF11F0A0C084F0A1C085F090
:1020C8002FEF11F084C006F085C007F086C008F035
:1020D80087C009F0E4EC27F006C09CF007C09DF02B
:1020E80008C09EF009C09FF0000E4A6E000E4B6EAD
:1020F800000E4C6E3F0E4D6E830E186EF90E196E63
:10210800220E1A6E3F0E1B6E9CC014F09DC015F077
:102118009EC016F09FC017F03AEC0DF014C046F0C0
:1021280015C047F016C048F017C049F0D9EC0AF0BE
:1021380046C064F047C065F048C066F049C067F023
:1021480068EC20F064C0A0F065C0A1F066C0A2F001
:1021580067C0A3F0A0C006F0A1C007F0A2C008F0B5
:10216800A3C009F0010E69EC1BF006C098F007C087
:1021780099F008C09AF009C09BF0DA0E186E0F0E9D
:10218800196EC90E1A6E3F0E1B6E98C014F099C0D6
:1021980015F09AC016F09BC017F03AEC0DF014C079
:1021A80068F015C069F016C06AF017C06BF09CC0E3
:1021B80064F09DC065F09EC066F09FC067F0EDECCE
:1021C80026F064C08FF065C090F066C091F067C0DB
:1021D80092F08FC064F090C065F091C066F092C034
:1021E80067F0A30E186E850E196E880E1A6E320EE1
:1021F8001B6E98C014F099C015F09AC016F09BC0D9
:1022080017F03AEC0DF014C068F015C069F016C06C
:102218006AF017C06BF0EDEC26F064C08BF065C077
:102228008CF066C08DF067C08EF000018851D96EC1
:10223800DA6A8BC0DEFF8CC0DEFF8DC0DEFF8EC089
:10224800DEFF9351D8B42BEF11F02DEF11F060EFB2
:1022580010F039EF10F012003050800B3D6E305006
:102268003024446E2FAE3BEF11F03DEF11F03EEFFE
:1022780011F044804450D8B444EF11F046EF11F007
:102288005BEF11F04428D8A44CEF11F04EEF11F099
:1022980056EF11F0000E2D6E000E2E6E000E2F6EF2
:1022A800000E306E2F8E000E306E63EF11F0000EB0
:1022B8002D6E000E2E6E000E2F6E000E306E3450F6
:1022C800800B3D1A34503424456E33AE6EEF11F056
:1022D80070EF11F071EF11F045804550D8B477EFE9
:1022E80011F079EF11F08EEF11F04528D8A47FEFA7
:1022F80011F081EF11F089EF11F0000E316E000E30
:10230800326E000E336E000E346E338E000E346E55
:1023180096EF11F0000E316E000E326E000E336E25
:10232800000E346E3150321033103410D8A49FEFA1
:1023380011F0A1EF11F0B9EF11F0000E2D6E000EA3
:102348002E6E000E2F6E000E306E800E2F127F0E36
:1023580030123D5030122DC02DF02EC02EF02FC05F
:102368002FF030C030F0FCEF12F04450D8A4BFEF8B
:1023780011F0C1EF11F0CBEF11F0000E2D6E000E31
:102388002E6E000E2F6E000E306EFCEF12F04550D0
:1023980044C035F0366A355E000E365A7F0E352455
:1023A8003E6E000E36203F6E2DC039F02EC03AF03A
:1023B8002FC03BF030C03CF0000E2D6E000E2E6E8C
:1023C800000E2F6E000E306E000E406E000E416E35
:1023D800000E426E000E436E000E456E2CEF12F09A
:1023E8004550D8B4FAEF11F0FCEF11F013EF12F0EA
:1023F800D89039363A363B363C36D8902D362E367C
:102408002F36303643AE0BEF12F00DEF12F00EEF11
:1024180012F02D80D890403641364236433631503E
:10242800395C32503A5833503B5834503C58D8A055
:1024380020EF12F022EF12F02BEF12F0438C315004
:10244800395E32503A5A33503B5A34503C5A452A36
:10245800190E456432EF12F034EF12F0F4EF11F078
:1024680039503A103B103C10D8B43DEF12F03FEF12
:1024780012F057EF12F0408057EF12F0D8902D3637
:102488002E362F36303643AE4CEF12F04EEF12F0A8
:102498004FEF12F02D80D890403641364236433601
:1024A8003E06D8A03F062FAE5CEF12F05EEF12F0AA
:1024B80042EF12F0000E456E43AE65EF12F067EF83
:1024C80012F08BEF12F0FF0E4014356EFF0E411420
:1024D800366EFF0E4214376E7F0E4314386E355039
:1024E800361037103810D8B47CEF12F07EEF12F0A7
:1024F80082EF12F0010E456E8BEF12F02DA087EFE0
:1025080012F089EF12F08BEF12F07EEF12F04550C7
:10251800D8B491EF12F093EF12F0B7EF12F0010E6A
:102528002D26000E2E222F22302230A09EEF12F0F0
:10253800A0EF12F0B7EF12F02DC035F02EC036F034
:102548002FC037F030C038F03834383237323632AE
:10255800353235C02DF036C02EF037C02FF038C0D8
:1025680030F03E4A3F2A3FBEC2EF12F03F5008E12A
:102578003E28D8A0C2EF12F0C4EF12F0CFEF12F04D
:10258800000E3F6E3E68000E2D6E000E2E6E000E81
:102598002F6E000E306E3FBEDCEF12F03F5006E1AA
:1025A8003E04D8B0DAEF12F0DCEF12F0EAEF12F0E6
:1025B800000E3F6E000E3E6E000E2D6E000E2E6E4B
:1025C800000E2F6E000E306E000E3D6E3EC044F0C1
:1025D80044A0F1EF12F0F3EF12F0F6EF12F02F8EA5
:1025E800F7EF12F02F9ED8904430306EADEF11F017
:1025F80012009594959694989598959A959C0F01A4
:102608003B953B973A993B993B9B3B9D8C848C86A9
:102618008B888C888C8A8C8C92843895388BC08E69
:10262800C050F80B0609C06EC050C70B3009C06E09
:10263800C28021EE9BF0100EDE6AE806FDE23F0E36
:10264800CD16300ECD129D80F28CF28E010E010156
:10265800246F9E800B0ECF6EDC0ECE6ECD80010EE9
:10266800C16F000E236F010EBF6F21EEACF0100E8C
:10267800DE6AE806FDE27FEC25F012C018F013C010
:1026880019F0000E1B6E210E1A6E37EC23F0020EA5
:1026980018240101C36F000E1920C46FAC0E00018D
:1026A800CE6F010ECF6F110ED06FFF0ED16FC3C169
:1026B800D2F0C4C1D3F011EC27F0AC0E076E010EB6
:1026C800086E010E99EC23F06BEF14F0C250830BE7
:1026D8001409C26EC282C2B274EF13F076EF13F01F
:1026E8006FEF13F0C350C4CFE7F00001E86BE7C009
:1026F800E8F0E76BE7110101BD6F0001E851010146
:10270800BE6F9B0E0001CE6F010ECF6F370ED06FDC
:10271800FF0ED16FBDC1D2F0BEC1D3F011EC27F0CE
:102728009B0E076E010E086E020E99EC23F0A9EFBE
:1027380013F0210EC26FB5EF13F0180EC26FB5EF8C
:1027480013F0120EC26FB5EF13F00101BF51010A69
:10275800D8B49DEF13F0030AD8B4A1EF13F0A5EF96
:1027680013F0C2C106F023511DEC26F00101C06F21
:1027780024EF14F08C848C868B888C888C8A8C8CC3
:1027880047EF14F08C948C868B888C888C8A8C8C80
:1027980047EF14F08C948C968B888C888C8A8C8C60
:1027A80047EF14F08C948C968B988C888C8A8C8C40
:1027B80047EF14F08C948C968B988C988C8A8C8C20
:1027C80047EF14F08C948C968B988C988C9A8C8C00
:1027D80047EF14F08C948C968B988C988C9A8C9CE0
:1027E80047EF14F0000E236FBF2B7FEC25F012C0CB
:1027F80018F013C019F0000E1B6E210E1A6E37EC7C
:1028080023F0020E18240101C36F000E1920C46FB3
:10281800AC0E0001CE6F010ECF6F110ED06FFF0E00
:10282800D16FC3C1D2F0C4C1D3F011EC27F0AC0E04
:10283800076E010E086E010E99EC23F047EF14F0B5
:10284800C051000AD8B4BEEF13F0010AD8B4C6EFDD
:1028580013F0030AD8B4CEEF13F0010AD8B4D6EFB8
:1028680013F0070AD8B4DEEF13F0010AD8B4E6EF84
:1028780013F0030AD8B4EEEF13F0010AD8B4F6EF58
:1028880013F047EF14F080A44CEF14F04EEF14F05F
:102898006BEF14F0030E0001E86F080EE76F770E78
:1028A800E82EFED7E72FFCD7E82FFAD780A45FEFF2
:1028B80014F061EF14F06BEF14F080B466EF14F0CD
:1028C80068EF14F061EF14F0000E0101C16F01010F
:1028D800C151D8A472EF14F074EF14F06AEF13F03A
:1028E800C290120094809288928692840F01389741
:1028F800389593969496949AC650F00B0209C66E32
:10290800C698C78CC68A3981C09EC050F80B060984
:10291800C06EC050C70B3009C06EC280190EAF6EB2
:10292800AB8EAC98AC8AAB888A86C250830B3009D0
:10293800C26E010E0001DC6F010EDB6F000EDD6F51
:10294800E0EF15F07F0EDD61ACEF14F0AEEF14F0A0
:10295800D6EF14F0330E186E330E196EF30E1A6E8E
:102968003F0E1B6EDD51066E076A086A096A010E82
:1029780069EC1BF006C014F007C015F008C016F08B
:1029880009C017F03AEC0DF014C064F015C065F0FA
:1029980016C066F017C067F068EC20F000016451BB
:1029A80056EC27F07E0E0001DD65DDEF14F0DFEF59
:1029B80014F09BEF15F0330E186E330E196EF30EEC
:1029C8001A6E3F0E1B6EDD51FF0AD26FD251066E92
:1029D800076A086A096A010E69EC1BF006C014F060
:1029E80007C015F008C016F009C017F03AEC0DF052
:1029F80014C064F015C065F016C066F017C067F023
:102A080068EC20F00001645156EC27F09BEF15F0BC
:102A1800000E316E000E326E7F0E336E430E346E32
:102A2800C30E186EF50E196EC80E1A6E400E1B6E88
:102A3800DD51066E076A086A096A010E69EC1BF027
:102A480006C014F007C015F008C016F009C017F04A
:102A58003AEC0DF014C02DF015C02EF016C02FF072
:102A680017C030F030EC11F02DC0D3F02EC0D4F0E8
:102A78002FC0D5F030C0D6F0D3C0A4F0D4C0A5F094
:102A8800D5C0A6F0D6C0A7F054EC08F0A4C0D7F083
:102A9800A5C0D8F0A6C0D9F0A7C0DAF0000E4A6EDB
:102AA800000E4B6EFE0E4C6E420E4D6E000E186EF2
:102AB800000E196EFE0E1A6E420E1B6ED7C014F071
:102AC800D8C015F0D9C016F0DAC017F03AEC0DF0FE
:102AD80014C046F015C047F016C048F017C049F0BA
:102AE800D9EC0AF046C064F047C065F048C066F00B
:102AF80049C067F068EC20F00001645156EC27F0FB
:102B08009BEF15F0DD51FF0A56EC27F09BEF15F00F
:102B1800DC51010AD8B4A6EF14F0030AD8B40CEFBC
:102B280015F0010AD8B486EF15F09BEF15F0C282B4
:102B3800C2B2A1EF15F0A3EF15F09CEF15F0E60E69
:102B48000001CE6FFF0ECF6FC4CFD0F0D16B52EC27
:102B580028F082A0B2EF15F0B4EF15F0B7EF15F03A
:102B6800010E0001DC6F80A8BCEF15F0BEEF15F078
:102B7800C1EF15F0020E0001DC6F80A6C6EF15F05C
:102B8800C8EF15F0CBEF15F0030E0001DC6F80A441
:102B9800D0EF15F0D2EF15F0D5EF15F0000E0001CB
:102BA800DB6F0001DD2B680E0001D26FE40EE82E0A
:102BB800FED7D22FFCD700000001DB51D8A4E7EFE5
:102BC80015F0E9EF15F08CEF15F01200050E000175
:102BD800FB6F0F0EFA6FF10EE82EFED7FA2FFCD717
:102BE800FB2FFAD794809288928692840F013897A7
:102BF80038959594959694989598959A959C8C84E3
:102C08008C868B888C888C8A8C8C65EC22F0000EE4
:102C18000001FD6F000EFC6F000EE76FFD51DFEC49
:102C28001FF00001FD6F82A01CEF16F01EEF16F0DA
:102C380040EF16F0030E0001FB6F080EFA6F770ED7
:102C4800E82EFED7FA2FFCD7FB2FFAD782A02FEF5A
:102C580016F031EF16F040EF16F0020E0001E76FA4
:102C6800FD51DFEC1FF00001FD6F82B03EEF16F062
:102C780040EF16F039EF16F080A845EF16F047EF51
:102C880016F069EF16F0030E0001FB6F080EFA6FDD
:102C9800770EE82EFED7FA2FFCD7FB2FFAD780A89D
:102CA80058EF16F05AEF16F069EF16F0010E000112
:102CB800E76FFD51DFEC1FF00001FD6F80B867EF93
:102CC80016F069EF16F062EF16F080A66EEF16F0B8
:102CD80070EF16F026EF17F0030E0001FB6F080ED9
:102CE800FA6F770EE82EFED7FA2FFCD7FB2FFAD70C
:102CF80080A681EF16F083EF16F026EF17F080B666
:102D080088EF16F08AEF16F083EF16F006EF17F04B
:102D1800590E076EFF0E086E010E99EC23F0130E84
:102D2800076EFF0E086E020E99EC23F086EC1EF07B
:102D3800010E0001FC6F26EF17F0480E076EFF0E1C
:102D4800086E010E99EC23F09D0E076EFF0E086EBB
:102D5800020E99EC23F0D0EC1DF09CEF16F06A0EF1
:102D6800076EFF0E086E010E99EC23F0130E076E26
:102D7800FF0E086E020E99EC23F03CEC1FF09CEF5E
:102D880016F08C0E076EFF0E086E010E99EC23F0FC
:102D980061EC19F09CEF16F07B0E076EFF0E086EC3
:102DA800010E99EC23F0AE0E076EFF0E086E020EB0
:102DB80099EC23F076EC14F09CEF16F0130E076EE6
:102DC800FF0E086E010E99EC23F0130E076EFF0E2E
:102DD800086E020E99EC23F0FDEC12F09CEF16F051
:102DE800130E076EFF0E086E010E99EC23F0130EFA
:102DF800076EFF0E086E020E99EC23F097EC28F090
:102E08009CEF16F00001FD51000AD8B48CEF16F0C3
:102E1800010AD8B4A1EF16F0030AD8B4B3EF16F03C
:102E2800010AD8B4C5EF16F0070AD8B4D0EF16F0E7
:102E3800010AD8B4E2EF16F0030AD8B4F4EF16F09A
:102E480026EF17F080500001FC51D8B42EEF17F090
:102E580030EF17F017EF16F0000EE76FFD51DFECBB
:102E68001FF00001FD6F000EFC6F17EF16F0A7EFC3
:102E780000F064C014F065C015F066C016F067C0B5
:102E880017F064C018F065C019F066C01AF067C082
:102E98001BF03AEC0DF014C080F015C081F016C09C
:102EA80082F017C083F080C014F081C015F082C092
:102EB80016F083C017F080C018F081C019F082C0E6
:102EC8001AF083C01BF03AEC0DF014C06CF015C07A
:102ED8006DF016C06EF017C06FF03C0E186E6C0ED9
:102EE800196E360E1A6E360E1B6E80C014F081C035
:102EF80015F082C016F083C017F03AEC0DF014C03C
:102F080046F015C047F016C048F017C049F0CF0E7C
:102F18004A6E070E4B6E500E4C6EB90E4D6ED9ECC4
:102F28000AF046C068F047C069F048C06AF049C076
:102F38006BF080C014F081C015F082C016F083C019
:102F480017F064C018F065C019F066C01AF067C0C1
:102F58001BF03AEC0DF014C07CF015C07DF016C0E3
:102F68007EF017C07FF0AB0E4A6EAA0E4B6E2A0E8B
:102F78004C6EBE0E4D6E840E186E880E196E080EBD
:102F88001A6E3C0E1B6E80C014F081C015F082C012
:102F980016F083C017F03AEC0DF014C046F015C0D7
:102FA80047F016C048F017C049F0D9EC0AF046C0FF
:102FB80070F047C071F048C072F049C073F06CC03F
:102FC80018F06DC019F06EC01AF06FC01BF07CC00D
:102FD80014F07DC015F07EC016F07FC017F03AECF3
:102FE8000DF014C074F015C075F016C076F017C057
:102FF80077F064C04AF065C04BF066C04CF067C01B
:103008004DF07CC018F07DC019F07EC01AF07FC06A
:103018001BF070C014F071C015F072C016F073C0C8
:1030280017F03AEC0DF014C046F015C047F016C082
:1030380048F017C049F0D9EC0AF046C078F047C00C
:1030480079F048C07AF049C07BF078C046F079C082
:1030580047F07AC048F07BC049F068C018F069C0F2
:1030680019F06AC01AF06BC01BF074C014F075C078
:1030780015F076C016F077C017F03AEC0DF014C0D2
:103088004AF015C04BF016C04CF017C04DF0D9EC03
:103098000AF046C064F047C065F048C066F049C011
:1030A80067F0120019C166F01AC167F01BC168F019
:1030B8001CC169F046C066F047C067F048C068F0B8
:1030C80049C069F0810E4A6EFF0E4B6E66C04CF027
:1030D80067C04DF068C04EF069C04FF0180E7AEF27
:1030E80018F0D8904F324E324D324C32E82E75EFF0
:1030F80018F04C504A240001646F000E4B20656F95
:1031080065BF90EF18F0655109E1170E645DD8A00E
:1031180090EF18F092EF18F09CEF18F046C046F0C8
:1031280047C047F048C048F049C049F060EF19F07F
:1031380065BFA1EF18F0A3EF18F014EF19F064C001
:103148004AF0FF0E4B6EFF0E4C6E7F0E4D6E000E5A
:103158004E6E4A66B2EF18F0BAEF18F04E344E329F
:103168004D324C324B324A2EADEF18F04BC060F066
:103178004CC061F04DC062F04EC063F00001605178
:1031880066154A6E615167154B6E625168154C6E33
:10319800635169154D6E4A504B104C104D10D8A410
:1031A800D8EF18F0DAEF18F0DCEF18F092EF18F01B
:1031B80066C04AF067C04BF068C04CF069C04DF07B
:1031C800200EECEF18F0D8904D324C324B324A3288
:1031D800E82EE7EF18F04A504B104C104D10D8B4B9
:1031E800F8EF18F0FAEF18F002EF19F060516627BF
:1031F800615167236251682363516923601D4A6ED8
:10320800611D4B6E621D4C6E631D4D6E4A506617F4
:103218004B5067174C5068174D50691758EF19F005
:1032280066C04AF067C04BF068C04CF069C04DF00A
:10323800200E24EF19F0D8904D324C324B324A32DE
:10324800E82E1FEF19F04A504B104C104D10D8A41F
:1032580030EF19F032EF19F03CEF19F0000E666FFD
:10326800000E676F000E686F000E696F58EF19F057
:10327800D89066354A6E67354B6E68354C6E693541
:103288004D6E4A504B104C104D10D8B44EEF19F0FB
:1032980050EF19F058EF19F0000E666F000E676FC7
:1032A800800E686FBF0E696F66C046F067C047F052
:1032B80068C048F069C049F012000F01388B3C81A2
:1032C800C08EC050F80B0609C06EC050C70B30093D
:1032D800C06EC28021EE9BF0100EDE6AE806FDE2A9
:1032E800010E0101B86F5FEF1AF0C250830B140989
:1032F800C26EC282C2B283EF19F085EF19F07EEF79
:1033080019F0C350C4CFE7F00001E86BE7C0E8F05C
:10331800E76BE7110101B46F0001E8510101B56FD6
:10332800000E316EC00E326E7F0E336E440E346E58
:10333800B4C106F0B5C107F0086A096A000E69EC65
:103348001BF006C02DF007C02EF008C02FF009C0F2
:1033580030F030EC11F02DC014F02EC015F02FC055
:1033680016F030C017F0330E186E330E196E530E68
:103378001A6E400E1B6E3AEC0DF014C0ACF115C07D
:10338800ADF116C0AEF117C0AFF1C250830B1009F2
:10339800C26EC282C2B2D3EF19F0D5EF19F0CEEFE8
:1033A80019F0C350C4CFE7F00001E86BE7C0E8F0BC
:1033B800E76BE7110101B66F0001E8510101B76F32
:1033C800000E316EC00E326E7F0E336E440E346EB8
:1033D800B6C106F0B7C107F0086A096A000E69ECC1
:1033E8001BF006C02DF007C02EF008C02FF009C052
:1033F80030F030EC11F02DC014F02EC015F02FC0B5
:1034080016F030C017F0330E186E330E196E530EC7
:103418001A6E400E1B6E3AEC0DF014C0B0F115C0D8
:10342800B1F116C0B2F117C0B3F19B0E0001CE6F17
:10343800010ECF6F240ED06FFF0ED16FACC1D2F04A
:10344800ADC1D3F0AEC1D4F0AFC1D5F0B0C1D6F0A4
:10345800B1C1D7F0B2C1D8F0B3C1D9F011EC27F09F
:103468009B0E076E010E086E020E99EC23F080A4E5
:1034780040EF1AF042EF1AF05FEF1AF0030E000166
:10348800E86F080EE76F770EE82EFED7E72FFCD718
:10349800E82FFAD780A453EF1AF055EF1AF05FEF30
:1034A8001AF080B45AEF1AF05CEF1AF055EF1AF0E0
:1034B800000E0101B86F0101B851D8A466EF1AF0E7
:1034C80068EF1AF079EF19F0C290120064C014F096
:1034D80065C015F066C016F067C017F064C018F034
:1034E80065C019F066C01AF067C01BF03AEC0DF021
:1034F80014C07CF015C07DF016C07EF017C07FF0B8
:103508007CC014F07DC015F07EC016F07FC017F0A7
:103518007CC018F07DC019F07EC01AF07FC01BF087
:103528003AEC0DF014C078F015C079F016C07AF0B6
:1035380017C07BF0170E186E9A0E196ECC0E1A6E05
:10354800370E1B6E7CC014F07DC015F07EC016F0DF
:103558007FC017F03AEC0DF014C046F015C047F0E4
:1035680016C048F017C049F03F0E4A6E040E4B6E65
:10357800B60E4C6EBA0E4D6ED9EC0AF046C068F025
:1035880047C069F048C06AF049C06BF0000E4A6E47
:10359800000E4B6E800E4C6E3F0E4D6E000E186E78
:1035A800000E196E000E1A6EBF0E1B6E7CC014F052
:1035B8007DC015F07EC016F07FC017F03AEC0DF014
:1035C80014C046F015C047F016C048F017C049F0BF
:1035D800D9EC0AF046C06CF047C06DF048C06EF0F8
:1035E80049C06FF07CC018F07DC019F07EC01AF099
:1035F8007FC01BF078C014F079C015F07AC016F0BF
:103608007BC017F03AEC0DF014C070F015C071F0E3
:1036180016C072F017C073F09F0E186EAA0E196EBE
:103628002A0E1A6E3D0E1B6E78C014F079C015F084
:103638007AC016F07BC017F03AEC0DF014C04AF0CF
:1036480015C04BF016C04CF017C04DF06CC046F0DA
:103658006DC047F06EC048F06FC049F0D9EC0AF071
:1036680046C074F047C075F048C076F049C077F09E
:1036780074C046F075C047F076C048F077C049F08E
:1036880068C018F069C019F06AC01AF06BC01BF066
:1036980070C014F071C015F072C016F073C017F046
:1036A8003AEC0DF014C04AF015C04BF016C04CF0BF
:1036B80017C04DF0D9EC0AF046C064F047C065F079
:1036C80048C066F049C067F012000E6E0E50D8B4BC
:1036D80070EF1BF072EF1BF094EF1BF009BE79EF4F
:1036E8001BF077EF1BF094EF1BF006C00AF007C041
:1036F8000BF008C00CF009C00DF00A1E0B1E0C1EC2
:103708000D1E0A2A000E0B220C220D220AC010F0F0
:103718000BC011F00CC012F00DC013F09CEF1BF0A1
:1037280006C010F007C011F008C012F009C013F06D
:103738000650071008100910D8A4A5EF1BF0A7EF32
:103748001BF0B1EF1BF0000E066E000E076E000EA8
:10375800086E000E096E42EF1CF0960E0F6EBBEF5E
:103768001BF00F2AD8901332123211321032000E89
:1037780010140A6E000E11140B6E000E12140C6E4B
:10378800FE0E13140D6E0A500B100C100D10D8A459
:10379800D0EF1BF0D2EF1BF0B5EF1BF0E0EF1BF002
:1037A8000F2A010E1026000E112212221322D89081
:1037B8001332123211321032000E10140A6E000E3B
:1037C80011140B6E000E12140C6EFF0E13140D6EF6
:1037D8000A500B100C100D10D8A4F5EF1BF0F7EFE2
:1037E8001BF0D4EF1BF0FFEF1BF00F06D89010363C
:1037F80011361236133612BE04EF1CF006EF1CF019
:103808000EEF1CF0020E0F600CEF1CF00EEF1CF018
:10381800F9EF1BF00FB013EF1CF015EF1CF016EFCB
:103828001CF0129ED8900F320FC00AF00B6A0C6A77
:103838000D6A0AC00DF00C6A0B6A0A6A0A50101267
:103848000B5011120C5012120D5013120E50D8B406
:1038580030EF1CF032EF1CF03AEF1CF009BE39EFE4
:103868001CF037EF1CF03AEF1CF0138E10C006F076
:1038780011C007F012C008F013C009F0120012C0FE
:103888001AF013C01BF01A501B10D8A44EEF1CF0EE
:1038980050EF1CF054EF1CF0BF0E1A6EFF0E1B6E9B
:1038A800000E1D6E000E1C6E5CEF1CF01C4A1D2ADB
:1038B8001C501A24146E1D501B20156E14C0F6FFE0
:1038C80015C0F7FF000EF86E0F0EF76403D008005E
:1038D800F55005D0F6CFE1FFF7CFE2FFE75000093A
:1038E800D8A479EF1CF07BEF1CF05AEF1CF058BEFF
:1038F80080EF1CF082EF1CF095EF1CF01C50575C19
:103908005850800A146E1D50800A1458D8B08FEF92
:103918001CF091EF1CF095EF1CF057C01CF058C03C
:103928001DF01CC016F01DC017F055C018F056C089
:1039380019F059B0A2EF1CF0A4EF1CF0E0EF1CF056
:10394800B2EF1CF0000E086E200E076E10C009F0D2
:1039580011C00AF0D2EC22F01C4A1D2A18501C5C37
:103968001D50800A146E1950800A1458D8A0BFEF51
:103978001CF0C1EF1CF0A6EF1CF0E0EF1CF01AC021
:10398800F6FF1BC0F7FF000EF86E0F0EF76403D0AA
:103998000800F55005D0F6CFE1FFF7CFE2FFE7507A
:1039A800146E1450076E086A10C009F011C00AF0AE
:1039B800D2EC22F01A4A1B2A1606D8A01706162897
:1039C80006E11728D8A4EBEF1CF0EDEF1CF0C3EFCD
:1039D8001CF059A0F2EF1CF0F4EF1CF011EF1DF0F1
:1039E80002EF1DF0000E086E200E076E10C009F0E1
:1039F80011C00AF0D2EC22F01C4A1D2A18501C5C97
:103A08001D50800A146E1950800A1458D8A00FEF60
:103A18001DF011EF1DF0F6EF1CF0120023BE17EF9A
:103A28001DF01AEF1DF0010E1BEF1DF0000E2A6E9F
:103A380058BE23EF1DF021EF1DF029EF1DF0000EF9
:103A4800296E010E286E2DEF1DF057C028F058C0C2
:103A580029F055C026F056C027F02A50D8B437EFC1
:103A68001DF039EF1DF050EF1DF02606D8A02706EF
:103A78002A50D8A442EF1DF044EF1DF04AEF1DF084
:103A8800000E256E2B0E246E4EEF1DF0000E256ED7
:103A98002D0E246E24C02AF0000E2C6E4F0E2B6EB5
:103AA800000E0101766F89EF1DF02B06D8A02C06B9
:103AB800270E2B24D96E010E2C20DA6E22C006F0B8
:103AC80023C007F0000E096E0A0E086EF2EC23F010
:103AD80006C00CF007C00DF0FEEC27F00C50300FBC
:103AE800DF6E2806D8A029062606D8A0270622C0F9
:103AF80018F023C019F0000E1B6E0A0E1A6E37EC70
:103B080023F018C022F019C023F02CBE94EF1DF04A
:103B18002C5008E12B04D8A094EF1DF096EF1DF06F
:103B2800ACEF1DF022502310D8A49DEF1DF09FEF9D
:103B38001DF059EF1DF029BEACEF1DF0295006E12C
:103B48002804D8B0AAEF1DF0ACEF1DF059EF1DF016
:103B58002A50D8B4B2EF1DF0B4EF1DF0BFEF1DF03E
:103B68002B06D8A02C06270E2B24D96E010E2C204C
:103B7800DA6E2AC0DFFF20C017F021C018F0270E28
:103B88002B24196E010E2C201A6E26C01BF027C09C
:103B98001CF0F6EC24F0120092840F013A9D3A9F33
:103BA800948C948E190EAF6EAC98AB8EAC8AAB88A1
:103BB800010E0101256F9D8AF28CF28E010E000123
:103BC800F36F73EF1EF001019651D8B4EEEF1DF0BC
:103BD800F0EF1DF04FEF1EF0770E066E010E076E28
:103BE800AEEC27F006C0F4F007C0F5F0000E0001B7
:103BF800F76F000EF66F17EF1EF0760ED26F010EFC
:103C0800D36FF651D25FF751D35BF451D225D96EF9
:103C1800F551D321DA6EF651D40FE16EE26ADFCFA7
:103C2800E7FFF64BF72BF451F65DF551F759D8A09D
:103C380020EF1EF022EF1EF001EF1EF0F451D40F1A
:103C4800D96EDA6ADF6AD20ECE6FFF0ECF6FD40E4E
:103C5800D06FD16B52EC28F0000E0101966F000E68
:103C68000001F96F000EF86F770EF825D96E010E76
:103C7800F921DA6EDF6AF84BF92BF9BF4DEF1EF028
:103C8800F95109E11F0EF85DD8A04DEF1EF04FEF76
:103C98001EF038EF1EF080A454EF1EF056EF1EF011
:103CA80073EF1EF0030E0001D36F080ED26F770E6C
:103CB800E82EFED7D22FFCD7D32FFAD780A467EFF0
:103CC8001EF069EF1EF073EF1EF080B46EEF1EF069
:103CD80070EF1EF069EF1EF0000E0001F36F000197
:103CE800F351D8A47AEF1EF07CEF1EF0E7EF1DF039
:103CF800AB9EAC9AAB98000E0101256F9D9AF29C81
:103D0800F29E12009594959694989598959A959CFC
:103D18000F013B953B973A993B993B9B3B9D8C8484
:103D28008C868B888C888C8A8C8C928438953F0EF4
:103D3800CD16300ECD129D80F28CF28E010E01014F
:103D4800266F9E809E0ECF6E580ECE6ECD80010ED1
:103D58000001FE6F21EEEAF010EE15F00B0EDBCF3E
:103D6800E3FFE806FCE221EEDEF010EE09F00B0EB0
:103D7800DBCFE3FFE806FCE2000E226E0C0E216E9C
:103D8800000E236E27EF1FF0000E256E000E246E26
:103D98002450020DF350150FD96EDA6A02D8F9EFE4
:103DA8001EF00500FA6EDE50FD6EDE50FE6EF85015
:103DB800FF6EFA5024500508076E2350090FD96E7C
:103DC800DA6ADF50086E072AECEF1EF0D890083246
:103DD800072EEAEF1EF008A0F4EF1EF0F7EF1EF032
:103DE800010EF8EF1EF0000E1200244A252A25BE07
:103DF80007EF1FF0255009E1060E245CD8A007EF55
:103E08001FF009EF1FF0CCEF1EF0110E086E3C0EEC
:103E1800076ECB0EE82EFED7072EFCD7082EFAD752
:103E28000000232A2350076E086A2150071807E16B
:103E380022500818D8A423EF1FF025EF1FF027EF12
:103E48001FF0000E236E0001FE51D8A42EEF1FF0C4
:103E580030EF1FF0C8EF1EF08C848C868B888C881E
:103E68008C8A8C8CCD909D90000E0101266F1200DB
:103E78009484FC0E0F014917C70EBB6E0C0EBD12C1
:103E8800BD503F0B8009BD6E000EBE6E9E92BA8477
:103E98009EA251EF1FF053EF1FF04CEF1FF09484D8
:103EA800928892849594959694989598959A959CCD
:103EB8008C848C868B888C888C8A8C8C010E226EE4
:103EC800000E236ED2EF1FF02350C70DF3CF18F06A
:103ED800F4CF19F0000E1B6E050E1A6E37EC23F0A6
:103EE8001850BE6E80A87BEF1FF07DEF1FF0AFEF7C
:103EF8001FF0030E216E080E206E770EE82EFED7F7
:103F0800202EFCD7212EFAD7000080A88EEF1FF0B4
:103F180090EF1FF0AFEF1FF080B895EF1FF097EF0D
:103F28001FF090EF1FF0050E2318D8A49EEF1FF086
:103F3800A0EF1FF0A4EF1FF0000E236EAFEF1FF0ED
:103F4800050E2360AAEF1FF0ACEF1FF0AFEF1FF0D4
:103F5800232AAFEF1FF080A4B4EF1FF0B6EF1FF0D5
:103F6800D2EF1FF0030E216E080E206E770EE82E9A
:103F7800FED7202EFCD7212EFAD7000080A4C7EF49
:103F88001FF0C9EF1FF0D2EF1FF080B4CEEF1FF083
:103F9800D0EF1FF0C9EF1FF0000E226E2250D8A4F8
:103FA800D8EF1FF0DAEF1FF068EF1FF0F00EBD1624
:103FB800BA949D9212000101CD6FC9EC27F021EE51
:103FC800CEF011EEBDF00F0EDBCFE3FFE806FCE20A
:103FD80006EF20F0060E0101CD61F5EF1FF0F7EFB7
:103FE8001FF016EF20F0CD2B16EF20F00101CD5178
:103FF800D8B401EF20F003EF20F016EF20F0CD0742
:1040080016EF20F00001E751000AD8B416EF20F0AF
:10401800010AD8B4EEEF1FF0030AD8B4FAEF1FF084
:1040280016EF20F09B0E0001CE6F010ECF6FCC0E65
:10403800D06FFF0ED16F000ED36F0F0ED26F01013C
:10404800CD51020DBD0EF324D96E010EF420DA6EA7
:10405800DECFD4F0DDCFD5F011EC27F0AC0E0001A7
:10406800CE6F010ECF6FCD0ED06FFF0ED16F000E49
:10407800D36F100ED26F0101CD510001E86FE96BCB
:10408800D890E837E937020EE827000EE923BD0E7D
:10409800E825D96E010EE921DA6EDECFD4F0DDCF46
:1040A800D5F011EC27F09B0E076E010E086E010E7D
:1040B80099EC23F0AC0E076E010E086E020E99EC17
:1040C80023F00101CD511200000166356735536EAA
:1040D8005350D8A472EF20F074EF20F07EEF20F058
:1040E800000E646F000E656F000E666F000E676F3E
:1040F800EBEF20F064C068F065C069F066C06AF054
:1041080067C06BF0200E8EEF20F0D8906B336A33C7
:1041180069336833E82E89EF20F06851526E668F54
:10412800FF0E6417FF0E6517FF0E6617000E671760
:10413800960E535E53BEA5EF20F0A3EF20F0BBEF21
:1041480020F05350800A970FD8B0ADEF20F0AFEFB2
:1041580020F0B1EF20F074EF20F0D8906733663389
:1041680065336433533EB1EF20F0D3EF20F01F0ED8
:104178005364C1EF20F0C3EF20F0CBEF20F074EFD1
:1041880020F0D89064376537663767375306535041
:10419800D8A4D1EF20F0D3EF20F0C5EF20F0525093
:1041A800D8B4D9EF20F0DBEF20F0E3EF20F0671F61
:1041B800661F651F646D000E65236623672364C050
:1041C80064F065C065F066C066F067C067F012000D
:1041D800000E2D14356E000E2E14366E800E2F1420
:1041E800376E7F0E3014386E355036103710381051
:1041F800D8A401EF21F003EF21F00BEF21F0000E1E
:104208002D6E000E2E6E000E2F6E000E306E000EFC
:104218003114356E000E3214366E800E3314376E3C
:104228007F0E3414386E3550361037103810D8A435
:1042380020EF21F022EF21F02AEF21F0000E316E5D
:10424800000E326E000E336E000E346E30AE2FEF5D
:1042580021F031EF21F03AEF21F02D6C2E1ED8B06D
:104268002E2A2F1ED8B02F2A800E305634AE3FEF9C
:1042780021F041EF21F04AEF21F0316C321ED8B025
:10428800322A331ED8B0332A800E3456000E2D1A27
:10429800000E2E1A000E2F1A800E301A000E311A38
:1042A800000E321A000E331A800E341A31502D5C6B
:1042B80032502E5833502F5834503058D8B067EFFA
:1042C80021F069EF21F06CEF21F0D8906DEF21F02B
:1042D800D88012001DC110F01EC111F01FC112F0CC
:1042E80020C113F006C010F007C011F008C012F08A
:1042F80009C013F010C00AF011C00BF012C00CF086
:1043080013C00DF0180E8EEF21F0D8900D320C323C
:104318000B320A32E82E89EF21F00A500E6E0F6A2E
:104328000E500F10D8A49BEF21F09DEF21F0BDEFA8
:1043380021F0D89010340A6E11340B6E12340C6EC2
:1043480013340D6E0A500B100C100D10D8A4AFEFDB
:1043580021F0B1EF21F0B7EF21F0000E076E020E49
:10436800066EECEF21F0000E076E030E066EECEF02
:1043780021F00E280F10D8A4C4EF21F0C6EF21F0C9
:10438800E8EF21F010C00AF011C00BF012C00CF0D9
:1043980013C00DF0090ED8900A360B360C360D36C0
:1043A800E82ECFEF21F00A500B100C100D10D8B4E6
:1043B800E0EF21F0E3EF21F0010EE4EF21F0000E31
:1043C800066E076AECEF21F0000E076E040E066E0B
:1043D800120058BEF4EF21F0F2EF21F0FAEF21F0CD
:1043E800000E276E010E266EFEEF21F057C026F054
:1043F80058C027F055C024F056C025F0000E296E8D
:104408004F0E286E000E0101766F35EF22F0280658
:10441800D8A02906270E2824D96E010E2920DA6E85
:1044280022C006F023C007F0000E096E0A0E086EBF
:10443800EBEC25F00650300FDF6E2606D8A02706D5
:104448002406D8A0250622C006F023C007F0000ED7
:10445800096E0A0E086E45EC25F006C022F007C06A
:1044680023F028502910D8B43CEF22F03EEF22F078
:1044780054EF22F022502310D8A445EF22F047EF42
:1044880022F00BEF22F027BE54EF22F0275006E16E
:104498002604D8B052EF22F054EF22F00BEF22F0AE
:1044A80020C017F021C018F0270E2824196E010E1D
:1044B80029201A6E24C01BF025C01CF0F6EC24F04D
:1044C80012000F013B913B939580958292908980D1
:1044D8006C50F00B08096C6E130E6E6E6C8A340EFD
:1044E800076EF20EE82EFED7072EFCD76B806BB056
:1044F80080EF22F082EF22F07BEF22F0A49E7C0E68
:104508003FEC28F0800E3FEC28F0380E3FEC28F006
:10451800800E3FEC28F0390E3FEC28F0800E3FEC7F
:1045280028F0170E3FEC28F0800E3FEC28F07A0EAA
:104538003FEC28F0800E3FEC28F05E0E3FEC28F0B0
:10454800800E3FEC28F06B0E3FEC28F0800E3FEC1D
:1045580028F00C0E3FEC28F0800E3FEC28F0010EFE
:104568003FEC28F0800E3FEC28F0060E3FEC28F0D8
:10457800800E3FEC28F0020E3FEC28F06B846BB401
:10458800C8EF22F0CAEF22F0C3EF22F0340E076E14
:10459800F20EE82EFED7072EFCD7120009500A109B
:1045A800D8B4D9EF22F0DBEF22F0E4EF22F0095083
:1045B8000A10D8A4E2EF22F0E4EF22F0E9EF22F0AB
:1045C800075062EC28F036EF23F020EE0AF009508D
:1045D800D9260A50DA22DE50DE10D8B4F6EF22F0DF
:1045E800F8EF22F013EF23F020EE0AF00950D92655
:1045F8000A50DA2210EE03F00950E1260A50E222AE
:10460800DE50E65CE650800A0F6EDE50800A0F58D6
:10461800D8B011EF23F013EF23F036EF23F020EE9C
:1046280003F00950D9260A50DA22DECF0BF0DDCF8D
:104638000CF009C0D9FF0AC0DAFFDECF0DF0DDCFDC
:104648000EF00B500D24D96E0C500E20DA6E07C0F8
:10465800DFFF20EE03F00950D9260A50DA22DE2ABD
:10466800000EDD221200000E1D6E1BBE40EF23F06F
:104678003EEF23F046EF23F01A6C1B1ED8B01B2A1E
:10468800010E1D6E19BE4DEF23F04BEF23F053EFD3
:1046980023F0186C191ED8B0192A010E1D1A000E25
:1046A8001F6E000E1E6E1A501B10D8B45EEF23F05A
:1046B80060EF23F088EF23F0010E1C6E68EF23F003
:1046C800D8901A361B361C2A1BAE6DEF23F06FEFFD
:1046D80023F064EF23F0D8901E361F361A50185C6A
:1046E8001B501958D8A07BEF23F07DEF23F082EF01
:1046F80023F01A50185E1B50195A1E80D8901B328E
:104708001A321C2E6FEF23F01D50D8B48EEF23F011
:1047180090EF23F094EF23F01E6C1F1ED8B01F2AD1
:104728001EC018F01FC019F012000B6E6B806BB022
:10473800A0EF23F0A2EF23F09BEF23F0A49E7C0EC2
:104748003FEC28F0800E3FEC28F00B04D8A4AFEF24
:1047580023F0B1EF23F0B6EF23F0800E3FEC28F002
:10476800C2EF23F0020E0B18D8A4BDEF23F0BFEF61
:1047780023F0C2EF23F0C00E3FEC28F0400E3FECD0
:1047880028F0000E0C6E0C500724096E000E08204D
:104798000A6E09C0F6FF0AC0F7FF000EF86E0F0E8A
:1047A800F76403D00800F55005D0F6CFE1FFF7CF46
:1047B800E2FFE7503FEC28F00C2A0F0E0C64E7EFFD
:1047C80023F0E9EF23F0C7EF23F06B846BB4EFEF2E
:1047D80023F0F1EF23F0EAEF23F01200000E0B6E46
:1047E80007BEFBEF23F0F9EF23F001EF24F0066C8E
:1047F800071ED8B0072A010E0B6E09BE08EF24F079
:1048080006EF24F00CEF24F0086C091ED8B0092A32
:1048180008500910D8B413EF24F015EF24F039EF3D
:1048280024F0010E0A6E1DEF24F0D89008360936E0
:104838000A2A09AE22EF24F024EF24F019EF24F01D
:104848000850065C09500758D8A02DEF24F02FEF28
:1048580024F033EF24F00850065E0950075AD89028
:10486800093208320A2E24EF24F00B50D8B43FEF57
:1048780024F041EF24F045EF24F0066C071ED8B071
:10488800072A06C006F007C007F01200000E106ED7
:10489800000E0F6E0C50D96EDA6ADECFF6FFDDCF50
:1048A800F7FF0800F5502A0AD8A45DEF24F05FEF5F
:1048B80024F089EF24F00C50D96EDA6ADE2A000E53
:1048C800DD220D50D96EDA6A020EDF26DF5CD96E62
:1048D800DA6ADECF0FF0DECF10F09CEF24F00FC0C5
:1048E80006F010C007F0000E096E0A0E086E2CECD8
:1048F80028F00E5006240F6E000E0720106E0C5084
:10490800D96EDA6ADE2A000EDD220C50D96EDA6A18
:10491800DECFF6FFDDCFF7FF0800F550D00F0E6EA3
:10492800090E0E649AEF24F09CEF24F073EF24F044
:104938000FC00CF010C00DF01200000E06140E6E21
:10494800000E07140F6E800E0814106E7F0E0914E7
:10495800116E0E500F1010101110D8A4B6EF24F0DD
:10496800B8EF24F0C0EF24F0000E066E000E076EBC
:10497800000E086E000E096E000E0A140E6E000E70
:104988000B140F6E800E0C14106E7F0E0D14116E2A
:104998000E500F1010101110D8A4D5EF24F0D7EF37
:1049A80024F0DFEF24F0000E0A6E000E0B6E000EEE
:1049B8000C6E000E0D6E0A5006180FE10B5007180A
:1049C8000CE10C50081809E10D500918D8B4EFEFA4
:1049D80024F0F1EF24F0F4EF24F0D890F5EF24F070
:1049E800D880120059A0FBEF24F0FDEF24F007EF68
:1049F80025F019C010F01AC011F017C012F018C035
:104A080013F034EC27F01CBE0EEF25F00CEF25F068
:104A180012EF25F0000E1C6E000E1B6E000E1F6EAE
:104A2800000E1E6E24EF25F0000E086E200E076E95
:104A380017C009F018C00AF0D2EC22F01E4A1F2A4B
:104A48001B501E5C1F50800A1D6E1C50800A1D588A
:104A5800D8A031EF25F033EF25F018EF25F059B045
:104A680038EF25F03AEF25F044EF25F019C010F0A3
:104A78001AC011F017C012F018C013F034EC27F068
:104A88001200000E0C6E000E0B6E08500910D8B400
:104A980050EF25F052EF25F07AEF25F0010E0A6E5F
:104AA8005AEF25F0D890083609360A2A09AE5FEF82
:104AB80025F061EF25F056EF25F0D8900B360C362F
:104AC8000850065C09500758D8A06DEF25F06FEF25
:104AD80025F074EF25F00850065E0950075A0B8040
:104AE800D890093208320A2E61EF25F00BC006F083
:104AF8000CC007F0120097C106F098C107F099C1E1
:104B080008F09AC109F02D0E0A6E7F0E0B6E950EF5
:104B18000C6E4C0E0D6EB6EC25F0010E062401014C
:104B2800976F000E0720986F000E0820996F000EEF
:104B380009209A6F97C114F098C115F099C116F021
:104B48009AC117F0120EAEEF25F0D8901732163230
:104B580015321432E82EA9EF25F014C012F015C052
:104B680013F01200000E0E6E000E0F6E000E106E87
:104B7800000E116E06A0C3EF25F0C5EF25F0CDEFAE
:104B880025F00A500E260B500F220C5010220D5003
:104B98001122D8900A360B360C360D36D8900932C9
:104BA8000832073206320650071008100910D8A438
:104BB800E0EF25F0E2EF25F0BEEF25F00EC006F09D
:104BC8000FC007F010C008F011C009F0120008501B
:104BD8000910D8B4F2EF25F0F4EF25F018EF26F01D
:104BE800010E0A6EFCEF25F0D890083609360A2A1D
:104BF80009AE01EF26F003EF26F0F8EF25F0085094
:104C0800065C09500758D8A00CEF26F00EEF26F0E6
:104C180012EF26F00850065E0950075AD89009325C
:104C280008320A2E03EF26F006C006F007C007F088
:104C38001200076E000E096E0650D8B426EF26F053
:104C480028EF26F049EF26F0010E086E2FEF26F028
:104C5800D8900636082A06AE34EF26F036EF26F04E
:104C68002CEF26F0D89009360650075CD8A03FEF05
:104C780026F041EF26F044EF26F00650075E098043
:104C8800D8900632082E36EF26F00950120009BED9
:104C980050EF26F052EF26F05CEF26F006C006F043
:104CA80007C007F008C008F009C009F075EF26F042
:104CB80006C00AF007C00BF008C00CF009C00DF0E0
:104CC8000A1E0B1E0C1E0D1E0A2A000E0B220C2299
:104CD8000D220AC006F00BC007F00CC008F00DC08A
:104CE80009F01200300EF66E500EF76E000EF86ED8
:104CF80001EECEF010EE28F00900F5CFEEFFE550FA
:104D0800E150FAE102EE00F0220EEE6AE806FDE15B
:104D180001EE00F09B0EEE6AE806FDE10001FE6B75
:104D2800596A586A576A566A556A5A905A92000ED2
:104D3800F86E0001EAEF15F008C00FF009C010F096
:104D480006C00DF007C00EF0BAEF26F00FC0D9FF6D
:104D580010C0DAFFDF500C6E0F4A102A0DC0D9FFC1
:104D68000EC0DAFF0CC0DFFF0D4A0E2A0A06D8A0D3
:104D78000B060A2806E10B28D8A4C5EF26F0C7EFD2
:104D880026F0AAEF26F01200C9C0CCF0CAC0CDF0B8
:104D9800D9EF26F0C7C0B9F0C8C0BAF0CC0E0001F0
:104DA800BB6FCBC0BCF0A6EC05F0CCC0F6FFCDC005
:104DB800F7FF0800F5500009D8A4E5EF26F0E7EF63
:104DC80026F0CEEF26F0000E0001C86F000EC76F68
:104DD8001200000E0001681B000E691B000E6A1B02
:104DE800800E6B1B64C046F065C047F066C048F093
:104DF80067C049F068C04AF069C04BF06AC04CF01F
:104E08006BC04DF0D9EC0AF046C064F047C065F0BD
:104E180048C066F049C067F01200D20E0001DA6F90
:104E2800CEC0DBF0CFC0DCF0000EDF6F000EDE6F0F
:104E3800000EE66F000EE56FDB0EC76FC86BD0C0C3
:104E4800C9F0D1C0CAF0DA0ECB6FC8EC26F0000169
:104E5800DE51CE25D96EDF51CF21DA6EDF6A12001E
:104E6800000E166E000E156E45EF27F014C007F001
:104E7800086A12C009F013C00AF0D2EC22F0154AF1
:104E8800162A15501024D96E16501120DA6EDF50EC
:104E9800146E1450D8A453EF27F055EF27F03AEFCB
:104EA80027F01200086E08380F0B3009066E083814
:104EB800F00B076E8A9606C0C9FF9EA666EF27F01C
:104EC80068EF27F061EF27F09E9607C0C9FF9EA6FE
:104ED80070EF27F072EF27F06BEF27F09E968A8627
:104EE800120000018051811182118311D8B47FEF23
:104EF80027F081EF27F089EF27F0000E801B000EC6
:104F0800811B000E821B800E831B80C080F081C035
:104F180081F082C082F083C083F0120006C00AF0DC
:104F280007C00BF008C0F6FF09C0F7FF084A092AB6
:104F38000AC0D9FF0BC0DAFF0A4A0B2A0800F5CFCE
:104F4800DFFFDF50D8A4ABEF27F0ADEF27F096EFE7
:104F580027F0120006C008F007C009F0B6EF27F0E6
:104F6800064A072A06C0D9FF07C0DAFFDF50D8A4CF
:104F7800C0EF27F0C2EF27F0B4EF27F00850065C27
:104F8800066E09500758076E12006B806BB0CFEFA2
:104F980027F0D1EF27F0CAEF27F0A49E7C0E3FEC54
:104FA80028F0800E3FEC28F0010E3FEC28F06B84CF
:104FB8006BB4E1EF27F0E3EF27F0DCEF27F0120006
:104FC80011C10AF012C10BF013C10CF014C10DF09D
:104FD80006C00AF007C00BF008C00CF009C00DF0BD
:104FE8000D9E0AC006F00BC007F00CC008F00DC0FB
:104FF80009F012000DBE03EF28F005EF28F00BEFC3
:1050080028F00CC00CF00DC00DF017EF28F00CC004
:105018000EF00DC00FF00E1E0F1E0E4A0F2A0EC006
:105028000CF00FC00DF01200DCFFE1FFFBFFF7FFF3
:10503800F3FFD7FFC6FFD6FF2030180C0603010385
:10504800060C183012510451F650E850DA5020512D
:1050580006500802F3CF0AF0F4CF0BF0065009020D
:10506800F3500B2607500802F3500B260AC006F02F
:105078000BC007F01200066E06C06FFF6DB047EF59
:1050880028F049EF28F042EF28F0A4AE4EEF28F0C0
:1050980050EF28F049EF28F0A49E1200D00E546E6D
:1050A800000E0001C76F000EC86FCEC0C9F0CFC098
:1050B800CAF0540ECB6FC8EC26F01200066E9EA8FC
:1050C80068EF28F06AEF28F063EF28F006C0ADFF1C
:1050D8001200066E06B002D08C9A01D08C8A12009B
:1050E800066E06B002D08C9801D08C881200066E2D
:1050F80006B002D08B9801D08B881200066E06B0DD
:1051080002D08C9601D08C861200066E06B002D0B2
:105118008C9401D08C841200066E06B002D08C9C50
:0851280001D08C8C1200120072
:10FED000003C6C3636CF0750B98488083CABAA2A60
:10FEE000BEA3858832DA0FC93F83F9223F000000A4
:10FEF0003F179ACC373F04B6BA9FAA2A3D000000AC
:10FF0000BFDB0FC940E4CB9640DB0F4940DB0FC994
:10FF10003F25752020202020202020202020202068
:10FF200020202000504F54313A252E3166504F5436
:10FF3000323A252E316600256875202020202020A9
:10FF4000202020202020200042523A203139323017
:10FF5000302020202020202000506F7A6F72212036
:10FF6000486164212121202020005A6D61636B6E5D
:10FF70006574652042544E322020005242302D419B
:10FF8000322C2042523A313932303000566F6C7484
:10FF900079206E6120504F546563683A004B6F6E54
:10FFA0006563202D206E6577206C696E6500313A9F
:10FFB00074722C323A73696E2C333A70696C002873
:10FFC0006E756C6C29004D55534943003E252D2A12
:10FFD00073002573200A0047414D45004750494FA3
:10FFE0000055415254002564200D00696E66006E74
:10FFF000616E00444143004144430050574D0000AE
:020000040030CA
:04000000FF331F3C6F
:00000001FF
