:0400000086EF00F097
:100008005A82D9CF03F0DACF04F09DA00EEF00F0AA
:1000180010EF00F049EF00F09EA015EF00F017EF89
:1000280000F049EF00F00001FE51D8B41EEF00F0D7
:1000380020EF00F049EF00F080A425EF00F027EF53
:1000480000F044EF00F0030E026E080E016E770E0A
:10005800E82EFED7012EFCD7022EFAD700F080A496
:1000680038EF00F03AEF00F044EF00F080B43FEFD3
:1000780000F041EF00F03AEF00F0000E0001FF6FD2
:100088009E0ECF6E580ECE6E9E909DAA4EEF00F03B
:1000980050EF00F080EF00F09EAA55EF00F057EF08
:1000A80000F080EF00F00001FD51D8B45EEF00F0E1
:1000B80060EF00F080EF00F0AECF05F00A0E0518F3
:1000C800D8B469EF00F06BEF00F077EF00F0650E41
:1000D800FB25D96E010EFC21DA6E05C0DFFFFB4B54
:1000E800FC2B7FEF00F0010E01016F6F000E000185
:1000F800FC6F000EFB6F9E9A04C0DAFF03C0D9FFA5
:100108005A92110019EF24F0000E0001AE6F86C05C
:10011800AFF087C0B0F088C0B1F089C0B2F0B2BF0C
:100128009AEF00F098EF00F0AEEF00F0010EAE6F1E
:10013800AFC080F0B0C081F0B1C082F0B2C083F02F
:100148005EEC25F080C0AFF081C0B0F082C0B1F0A5
:1001580083C0B2F0000E0001B46F000EB36F55C03B
:100168009EF056C09FF0AE51D8B4BDEF00F0BFEF7F
:1001780000F0D3EF00F0AE51D8A4C5EF00F0C7EF00
:1001880000F0CDEF00F0000E946F2B0E936FD1EFBF
:1001980000F0000E946F2D0E936F93C0AEF0AFC0B9
:1001A80006F0B0C007F0B1C008F0B2C009F07BECAF
:1001B8001FF006040710D8A4E4EF00F0E6EF00F003
:1001C80019EF01F00001AE51D8B4EDEF00F0EFEFF8
:1001D80000F0F8EF00F0AEC015F19E07D8A09F0719
:1001E800000EB46F010EB36F150EB325066E010E27
:1001F800B421076EE70E086EFF0E096EFFEC24F0BF
:100208000001FD0E9E27FF0E9F2384C017F085C0B6
:1002180018F0150E196E010E1A6E9EC01BF09FC0C5
:100228001CF068EC23F084EF05F0AFC006F0B0C016
:1002380007F0B1C008F0B2C009F07BEC1FF006501F
:100248000710D8A42AEF01F02CEF01F04CEF01F0D1
:100258000001AE51D8B433EF01F035EF01F03EEFB5
:1002680001F0AEC015F19E07D8A09F07000EB46F2D
:10027800010EB36F150EB325066E010EB421076E7D
:10028800EB0E086EFF0E096EFFEC24F004EF01F090
:10029800000E0001B56F000EB66F800EB76F3F0EEF
:1002A800B86F000E9D6F000E9C6FAFC006F0B0C017
:1002B80007F0B1C008F0B2C009F0000E0A6E000ED7
:1002C8000B6E000E0C6E000E0D6E13EC23F0D8B002
:1002D80070EF01F072EF01F051EF02F07FEF01F0E3
:1002E800A0C0B5F0A1C0B6F0A2C0B7F0A3C0B8F0E6
:1002F80000019C4B9D2BB5C014F0B6C015F0B7C0DB
:1003080016F0B8C017F0000E186E000E196E200E09
:100318001A6E410E1B6E54EC0FF014C0A0F015C0FD
:10032800A1F016C0A2F017C0A3F00001A051AF5D64
:10033800066EA151B059076EA251B159086EA3516A
:10034800B259096EBDEC23F009BEB6EF01F00950B1
:100358000810071009E1020E065CD8A0B6EF01F0FC
:10036800B8EF01F074EF01F0A0C02DF0A1C02EF09D
:10037800A2C02FF0A3C030F0AFC031F0B0C032F04F
:10038800B1C033F0B2C034F0F9EC1EF0D8A0CFEF12
:1003980001F0D1EF01F074EF01F00001B551AF5D4C
:1003A800066EB651B059076EB751B159086EB851BB
:1003B800B259096EBDEC23F009BEF0EF01F0095007
:1003C8000810071007E1020E065CD8B0EEEF01F046
:1003D800F0EF01F038EF02F0B5C0AFF0B6C0B0F002
:1003E800B7C0B1F0B8C0B2F051EF02F0B5C02DF00F
:1003F800B6C02EF0B7C02FF0B8C030F0000E316E86
:10040800000E326E200E336E410E346E69EC11F020
:100418002DC0B5F02EC0B6F02FC0B7F030C0B8F080
:1004280000019C07D8A09D07B551AF5D066EB65177
:10043800B059076EB751B159086EB851B259096E23
:10044800BDEC23F009BE36EF02F009500810071082
:1004580007E1020E065CD8B034EF02F036EF02F086
:1004680038EF02F0F0EF01F0AFC02DF0B0C02EF081
:10047800B1C02FF0B2C030F0B5C031F0B6C032F024
:10048800B7C033F0B8C034F0F9EC1EF0D8A04FEF85
:1004980002F051EF02F0FAEF01F08AC096F096C030
:1004A80097F058BE5AEF02F05CEF02F062EF02F0EC
:1004B80057C08FF058C090F067EF02F0000E0001AF
:1004C800906F060E8F6F8FC09AF090C09BF000015E
:1004D8009A4B9B2B660E9719D8A475EF02F077EF0D
:1004E80002F097EF02F09DBF7EEF02F07CEF02F082
:1004F8008AEF02F0000EB56F000EB66F800EB76F70
:100508003F0EB86F000E9D6F000E9C6F670E961918
:10051800D8B491EF02F093EF02F097EF02F09C51FC
:100528009A279D519B23000EA56F000EA46FAFC0A4
:10053800A6F0B0C0A7F0B1C0A8F0B2C0A9F0B5C08D
:10054800A0F0B6C0A1F0B7C0A2F0B8C0A3F028EFE1
:1005580003F0A6C02DF0A7C02EF0A8C02FF0A9C0A8
:1005680030F0B5C031F0B6C032F0B7C033F0B8C023
:1005780034F069EC11F02DC046F02EC047F02FC0C2
:1005880048F030C049F00CEC17F046C0AAF047C05C
:10059800ABF048C0ACF049C0ADF0AAC064F0ABC045
:1005A80065F0ACC066F0ADC067F075EC1EF064C0D5
:1005B80098F065C099F0A6C064F0A7C065F0A8C01F
:1005C80066F0A9C067F0AAC018F0ABC019F0ACC0BB
:1005D8001AF0ADC01BF0B5C014F0B6C015F0B7C026
:1005E80016F0B8C017F054EC0FF014C068F015C03E
:1005F80069F016C06AF017C06BF0B9EC24F064C05B
:10060800A6F065C0A7F066C0A8F067C0A9F0B5C09D
:100618002DF0B6C02EF0B7C02FF0B8C030F0000EE5
:10062800316E000E326E200E336E410E346E69EC60
:1006380011F02DC0B5F02EC0B6F02FC0B7F030C005
:10064800B8F00001A44BA52B9A51A45DA551800ACE
:100658008B6F9B51800A8B59D8A035EF03F037EF89
:1006680003F0ADEF02F0B5C014F0B6C015F0B7C096
:1006780016F0B8C017F0000E186E000E196EA00E16
:100688001A6E400E1B6E54EC0FF014C0AAF015C081
:10069800ABF016C0ACF017C0ADF0A6C02DF0A7C0E7
:1006A8002EF0A8C02FF0A9C030F0AAC031F0ABC01E
:1006B80032F0ACC033F0ADC034F0F9EC1EF0D8B075
:1006C80068EF03F06AEF03F075EF03F0000E000126
:1006D800AA6F000EAB6F000EAC6F000EAD6F9EEFF1
:1006E80003F0A6C006F0A7C007F0A8C008F0A9C08C
:1006F80009F0AAC00AF0ABC00BF0ACC00CF0ADC05A
:100708000DF013EC23F0D8A08CEF03F08EEF03F07C
:100718009EEF03F0000198B194EF03F096EF03F019
:100728009EEF03F0000EAA6F000EAB6F000EAC6FC9
:10073800000EAD6FAFC046F0B0C047F0B1C048F092
:10074800B2C049F0AAC04AF0ABC04BF0ACC04CF004
:10075800ADC04DF062EC08F046C0A6F047C0A7F067
:1007680048C0A8F049C0A9F0A6C02DF0A7C02EF037
:10077800A8C02FF0A9C030F0000E186E000E196E38
:10078800200E1A6E410E1B6EA0C014F0A1C015F009
:10079800A2C016F0A3C017F054EC0FF014C031F04B
:1007A80015C032F016C033F017C034F0F9EC1EF063
:1007B800D8A0E1EF03F0E3EF03F00CEF04F0000141
:1007C8009C4B9D2BA0C014F0A1C015F0A2C016F040
:1007D800A3C017F0000E186E000E196E200E1A6EC8
:1007E800410E1B6E54EC0FF014C0A0F015C0A1F020
:1007F80016C0A2F017C0A3F0660E00019719D8A47E
:1008080008EF04F00AEF04F00CEF04F09A4B9B2B6E
:10081800A0C0B5F0A1C0B6F0A2C0B7F0A3C0B8F0B0
:100828009CC08DF09DC08EF0000E0001956F000EEB
:10083800926F000E916F000EA56F000EA46F0AEF65
:1008480005F0A6C02DF0A7C02EF0A8C02FF0A9C0B3
:1008580030F0B5C031F0B6C032F0B7C033F0B8C030
:1008680034F069EC11F02DC046F02EC047F02FC0CF
:1008780048F030C049F00CEC17F046C0AAF047C069
:10088800ABF048C0ACF049C0ADF0AAC064F0ABC052
:1008980065F0ACC066F0ADC067F075EC1EF0000105
:1008A80065BF62EF04F0655107E10A0E645DD8B0D8
:1008B80060EF04F062EF04F072EF04F0AAC064F095
:1008C800ABC065F0ACC066F0ADC067F075EC1EF06B
:1008D80064C098F065C099F076EF04F0000E996F47
:1008E800090E986F00019551D8A47DEF04F07FEFB1
:1008F80004F0A7EF04F08EBF86EF04F084EF04F055
:10090800A7EF04F0150EB325D96E010EB421DA6EE7
:100918002E0EDF6EB34BB42B9E07D8A09F07010E97
:10092800956FA7EF04F0150EB325D96E010EB4210B
:10093800DA6E300EDF6EB34BB42B9E07D8A09F073C
:100948009107D8A0920791519211D8A4AEEF04F064
:10095800B0EF04F097EF04F0150EB325D96E010E31
:10096800B421DA6E9851300FDF6EB34BB42B9E076B
:10097800D8A09F07A6C064F0A7C065F0A8C066F01D
:10098800A9C067F0AAC018F0ABC019F0ACC01AF043
:10099800ADC01BF0B5C014F0B6C015F0B7C016F066
:1009A800B8C017F054EC0FF014C068F015C069F027
:1009B80016C06AF017C06BF0B9EC24F064C0A6F05A
:1009C80065C0A7F066C0A8F067C0A9F0B5C02DF053
:1009D800B6C02EF0B7C02FF0B8C030F0000E316EA0
:1009E800000E326E200E336E410E346E69EC11F03B
:1009F8002DC0B5F02EC0B6F02FC0B7F030C0B8F09B
:100A080000018D07D8A08E07A44BA52B9A51A45D91
:100A1800A551800A8B6F9B51800A8B59D8B017EF6C
:100A280005F019EF05F027EF05F0B4BF25EF05F045
:100A3800B45109E14B0EB35DD8A025EF05F027EFBF
:100A480005F025EF04F0000EA56F4F0EA46F150EEC
:100A5800A425D96E010EA521DA6EDF6A150E8B6FFB
:100A6800010E8C6FB3518B5FB4518C5BA4518B25F5
:100A7800066EA5518C21076E150E086E010E096EC3
:100A8800B3C00AF0B4C00BF091EC24F00001B351EC
:100A9800A45DB36FB451A559B46FAE51D8A457EF44
:100AA80005F05AEF05F0010E5BEF05F0000EA46F9C
:100AB800A56BAE51D8B463EF05F065EF05F070EFA4
:100AC80005F0B307D8A0B407150EB325D96E010EEB
:100AD800B421DA6EAEC0DFFFA4519E5FA5519F5BC3
:100AE80084C017F085C018F0150EB325196E010ED5
:100AF800B4211A6E9EC01BF09FC01CF068EC23F056
:100B08001200ACC0B8F0ADC0B9F0AEC0BAF0AFC01A
:100B1800BBF0B8C0CEF0B9C0CFF0BAC0D0F0BBC0FF
:100B2800D1F0CEC0B0F0CFC0B1F0D0C0B2F0D1C0DB
:100B3800B3F0200EA6EF05F00001D890B333B2331E
:100B4800B133B033E82EA0EF05F0B0C0C4F0B1C0A7
:100B5800C5F0D19FDB0ECE5D0F0ECF59490ED0598F
:100B68003F0ED159D8B0BBEF05F0BDEF05F0E6EF69
:100B780005F0800ED05D390ED159D8B0C6EF05F01A
:100B8800C8EF05F0D2EF05F0ACC0ACF0ADC0ADF0E9
:100B9800AEC0AEF0AFC0AFF061EF08F0ACC084F00B
:100BA800ADC085F0AEC086F0AFC087F0F3EC15F0AD
:100BB80084C0ACF085C0ADF086C0AEF087C0AFF0A1
:100BC80061EF08F0D20ECE5D530ECF597B0ED0598F
:100BD800400ED159D8B0F3EF05F0F5EF05F0DAEF94
:100BE80006F0E40ECE5DCB0ECF59160ED059400E4E
:100BF800D159D8B002EF06F004EF06F073EF06F013
:100C0800C451C511D8B40BEF06F00DEF06F045EF4F
:100C180006F0DB0E4A6E0F0E4B6EC90E4C6E3F0E81
:100C28004D6EACC046F0ADC047F0AEC048F0AFC0A6
:100C380049F062EC08F046C0C6F047C0C7F048C0AB
:100C4800C8F049C0C9F0C6C064F0C7C065F0C8C0E4
:100C580066F0C9C067F01AEC19F064C080F065C08E
:100C680081F066C082F067C083F05EEC25F080C03A
:100C7800ACF081C0ADF082C0AEF083C0AFF061EFE0
:100C880008F0ACC046F0ADC047F0AEC048F0AFC009
:100C980049F0DB0E4A6E0F0E4B6EC90E4C6EBF0E3E
:100CA8004D6E62EC08F046C0C6F047C0C7F048C0B9
:100CB800C8F049C0C9F0C6C064F0C7C065F0C8C074
:100CC80066F0C9C067F01AEC19F064C0ACF065C0F2
:100CD800ADF066C0AEF067C0AFF061EF08F0C45188
:100CE800C511D8A47AEF06F07CEF06F0A2EF06F063
:100CF800DB0E4A6E0F0E4B6E490E4C6EC00E4D6EDB
:100D0800ACC046F0ADC047F0AEC048F0AFC049F047
:100D180062EC08F046C080F047C081F048C082F01D
:100D280049C083F05EEC25F080C0BCF081C0BDF006
:100D380082C0BEF083C0BFF0C6EF06F0DB0E4A6E7D
:100D48000F0E4B6E490E4C6E400E4D6EACC046F009
:100D5800ADC047F0AEC048F0AFC049F062EC08F053
:100D680046C080F047C081F048C082F049C083F097
:100D78005EEC25F080C0BCF081C0BDF082C0BEF042
:100D880083C0BFF0BCC084F0BDC085F0BEC086F093
:100D9800BFC087F0F3EC15F084C0ACF085C0ADF0AF
:100DA80086C0AEF087C0AFF061EF08F0D60ECE5D1A
:100DB800310ECF59E20ED059400ED159D8B0E7EFD5
:100DC80006F0E9EF06F08CEF07F0E00ECE5DED0ED1
:100DD800CF59AF0ED059400ED159D8B0F6EF06F022
:100DE800F8EF06F039EF07F0C451C511D8B4FFEF9A
:100DF80006F001EF07F01DEF07F0ACC046F0ADC0FC
:100E080047F0AEC048F0AFC049F0E40E4A6ECB0ED2
:100E18004B6E960E4C6E400E4D6E62EC08F046C05E
:100E2800C6F047C0C7F048C0C8F049C0C9F05FEF76
:100E380006F0E40E4A6ECB0E4B6E960E4C6EC00E4C
:100E48004D6EACC046F0ADC047F0AEC048F0AFC084
:100E580049F062EC08F046C0C6F047C0C7F048C089
:100E6800C8F049C0C9F027EF06F0C451C511D8A48D
:100E780040EF07F042EF07F05EEF07F0ACC046F036
:100E8800ADC047F0AEC048F0AFC049F0DB0E4A6EC7
:100E98000F0E4B6EC90E4C6EC00E4D6E62EC08F014
:100EA80046C0C0F047C0C1F048C0C2F049C0C3F056
:100EB80078EF07F0ACC046F0ADC047F0AEC048F0E0
:100EC800AFC049F0DB0E4A6E0F0E4B6EC90E4C6E6A
:100ED800400E4D6E62EC08F046C0C0F047C0C1F04D
:100EE80048C0C2F049C0C3F0C0C084F0C1C085F09A
:100EF800C2C086F0C3C087F0F3EC15F084C0ACF034
:100F080085C0ADF086C0AEF087C0AFF061EF08F0E5
:100F1800800ED05D7F0ED159D8A095EF07F097EFDE
:100F280007F0B3EF07F0ACC064F0ADC065F0AEC039
:100F380066F0AFC067F0ACC068F0ADC069F0AEC095
:100F48006AF0AFC06BF0B9EC24F064C0ACF065C0D7
:100F5800ADF066C0AEF067C0AFF061EF08F0ACC0AE
:100F680084F0ADC085F0AEC086F0AFC087F0CA0E81
:100F7800886F000E896F0CEC0DF0000184C0B4F08E
:100F880085C0B5F0000EB5BFFF0EB66FB76F31EF75
:100F980008F0CAC084F0CBC085F0CCC086F0CDC0C4
:100FA80087F0F3EC15F084C0ACF085C0ADF086C0D6
:100FB800AEF087C0AFF061EF08F0CAC064F0CBC0F4
:100FC80065F0CCC066F0CDC067F01AEC19F064C0CB
:100FD800ACF065C0ADF066C0AEF067C0AFF061EFD1
:100FE80008F0CAC080F0CBC081F0CCC082F0CDC080
:100FF80083F05EEC25F080C084F081C085F082C06B
:1010080086F083C087F0F3EC15F084C0ACF085C09F
:10101800ADF086C0AEF087C0AFF061EF08F0CAC08F
:1010280064F0CBC065F0CCC066F0CDC067F01AECB8
:1010380019F064C080F065C081F066C082F067C0B6
:1010480083F05EEC25F080C0ACF081C0ADF082C0CA
:10105800AEF083C0AFF061EF08F0030EB415B06FC7
:10106800000EB515B16F000EB615B26F000EB715AC
:10107800B36FB351000AD8B45AEF08F013EF08F071
:10108800B151000AD8B44BEF08F013EF08F0B05193
:10109800000AD8B4CDEF07F0010AD8B4E1EF07F0A1
:1010A800030AD8B4F5EF07F013EF08F0B251000ABD
:1010B800D8B444EF08F013EF08F012004950800B41
:1010C8000001606F49504924626F48AE6EEF08F026
:1010D80070EF08F071EF08F062816251D8B477EFD1
:1010E80008F079EF08F08EEF08F06229D8A47FEFB6
:1010F80008F081EF08F089EF08F0000E466E000E48
:10110800476E000E486E000E496E488E000E496EFE
:1011180096EF08F0000E466E000E476E000E486E01
:10112800000E496E4D50800B616F60516119D8B443
:10113800A0EF08F0A2EF08F0A3EF08F0608D4D5083
:101148004D24616F4CAEABEF08F0ADEF08F0AEEF99
:1011580008F061816151D8B4B4EF08F0B6EF08F037
:10116800CBEF08F06129D8A4BCEF08F0BEEF08F077
:10117800C6EF08F0000E4A6E000E4B6E000E4C6E65
:10118800000E4D6E4C8E000E4D6ED3EF08F0000E23
:101198004A6E000E4B6E000E4C6E000E4D6E625184
:1011A800615DD8B0DAEF08F0DCEF08F003EF09F082
:1011B80060ADE1EF08F0E3EF08F0E5EF08F0800E2E
:1011C800601B62C063F061C062F063C061F046C03A
:1011D80063F04AC046F063C04AF047C063F04BC0B2
:1011E80047F063C04BF048C063F04CC048F063C0A0
:1011F8004CF049C063F04DC049F063C04DF0000E9B
:10120800636F625161C04EF04F6A4E5E000E4F5AD6
:101218004FBE18EF09F04F5009E11A0E4E5CD8A0E6
:1012280018EF09F01AEF09F051EF09F0465047108E
:1012380048104910D8A423EF09F026EF09F0010E51
:1012480027EF09F0000E636F000E466E000E476E22
:10125800000E486E000E496E61C062F05AEF09F048
:1012680063A139EF09F03BEF09F041EF09F0D8909D
:1012780063310109636F43EF09F0D890633346A0E7
:1012880048EF09F04AEF09F04BEF09F0638F493452
:101298004932483247324632622B6151625DD8A0EA
:1012A80058EF09F05AEF09F034EF09F060BD5FEF2D
:1012B80009F061EF09F0A1EF09F06251D8A467EFD6
:1012C80009F069EF09F073EF09F0000E466E000EA1
:1012D800476E000E486E000E496EC2EF0AF04A5083
:1012E80046264B5047224C5048224D50492249A08F
:1012F80080EF09F082EF09F02EEF0AF063A187EF83
:1013080009F089EF09F08FEF09F0D89063310109EE
:10131800636F91EF09F0D890633346A096EF09F018
:1013280098EF09F099EF09F0638F49344932483250
:1013380047324632622B2EEF0AF04A50465C4B5039
:1013480047584C5048584950800A4E6E4D50800AB4
:101358004E58D8B0B2EF09F0B4EF09F0DFEF09F05A
:1013680046504A5C4E6E47504B584F6E48504C584A
:10137800506E49504D58516EFF0E4E24466EFF0E6A
:101388004F20476EFF0E5020486EFF0E5120496EC9
:10139800800E601B636D6351D8A4D5EF09F0D7EFB9
:1013A80009F0E7EF09F0010E4626000E4722482211
:1013B8004922E7EF09F04A50465E4B50475A4C50D5
:1013C800485A4D50495A4650471048104910D8A419
:1013D800F0EF09F0F2EF09F027EF0AF06351D8A413
:1013E800F8EF09F0FAEF09F027EF0AF0000E466E61
:1013F800000E476E000E486E000E496EC2EF0AF0EE
:10140800D890463647364836493663AF0EEF0AF06D
:1014180010EF0AF011EF0AF0468063A116EF0AF008
:1014280018EF0AF01CEF0AF0D88063371EEF0AF0B5
:10143800D89063376251D8B424EF0AF026EF0AF047
:1014480027EF0AF0620748AE2CEF0AF02EEF0AF0F9
:1014580004EF0AF0000E616F63AF35EF0AF037EF63
:101468000AF04FEF0AF063C04EF07F0E4E16D8B464
:1014780040EF0AF042EF0AF046EF0AF0010E616F02
:101488004FEF0AF046A04BEF0AF04DEF0AF04FEF8E
:101498000AF042EF0AF06151D8B455EF0AF057EF5D
:1014A8000AF082EF0AF0010E4626000E4722482273
:1014B800492249A062EF0AF064EF0AF082EF0AF0CD
:1014C80046C04EF047C04FF048C050F049C051F0F8
:1014D8005134513250324F324E324EC046F04FC026
:1014E80047F050C048F051C049F06229D8B47FEFA6
:1014F8000AF081EF0AF082EF0AF0622B6229D8B471
:1015080088EF0AF08AEF0AF092EF0AF06251D8A445
:1015180090EF0AF092EF0AF0A4EF0AF0000E466E80
:10152800000E476E000E486E000E496E6251D8A438
:10153800A0EF0AF0A2EF0AF0A4EF0AF0000E606F25
:1015480062A1A9EF0AF0ABEF0AF0AEEF0AF0488EFD
:10155800AFEF0AF0489ED8906231496E60AFB7EF9E
:101568000AF0B9EF0AF0BAEF0AF0498E46C046F021
:1015780047C047F048C048F049C049F01200BBC016
:10158800D9FFBCC0DAFFDECFF6FFDDCFF7FF0800DA
:10159800F550250AD8A4D3EF0AF0D5EF0AF0F7EFF3
:1015A8000CF0BBC0D9FFBCC0DAFFDE2A000EDD227A
:1015B800000E566E000E556E55C059F057685868A3
:1015C800000E0001C26F000EC16F15EF0BF05980BD
:1015D800BBC0D9FFBCC0DAFFDE2A000EDD2215EF42
:1015E8000BF0000EC26F010EC16F15EF0BF0BBC000
:1015F800D9FFBCC0DAFFDECFF6FFDDCFF7FF08006A
:10160800F550BF6FC06BC051000AD8B40EEF0BF095
:10161800F5EF0AF0BF512D0AD8B4EBEF0AF0F5EF59
:101628000AF0C151C211D8B41CEF0BF01EEF0BF039
:10163800FBEF0AF0BBC00CF0BCC00DF0BDC00EF053
:10164800BEC00FF03BEC21F00CC055F00DC056F0B9
:1016580056BE33EF0BF031EF0BF038EF0BF059803B
:10166800556C561ED8B0562ABBC0D9FFBCC0DAFF8D
:10167800DECFF6FFDDCFF7FF0800F5502E0AD8A41D
:1016880048EF0BF04AEF0BF05FEF0BF0BBC0D9FF50
:10169800BCC0DAFFDE2A000EDD22BBC00CF0BCC0E5
:1016A8000DF0BDC00EF0BEC00FF03BEC21F00CC039
:1016B80057F00DC058F0BBC0D9FFBCC0DAFFDECF71
:1016C800CAF0DDCFCBF0CAC0F6FFCBC0F7FF0800E9
:1016D800F550640AD8B473EF0BF075EF0BF083EF95
:1016E8000BF0CAC0F6FFCBC0F7FF0800F550690A37
:1016F800D8A481EF0BF083EF0BF0B2EF0BF0BDC075
:10170800D9FFBEC0DAFFDFCFBFF0020EDE26DFCF83
:10171800C0F0000EDD22BFC0D9FFC0C0DAFFDECFA7
:10172800C5F0DDCFC6F0010E0001CA25BF6F000E5F
:10173800CB21C06FBBC0D9FFBCC0DAFFBFC0DEFF82
:10174800C0C0DDFFB9C022F0BAC023F0C5C024F084
:10175800C6C025F0F3EC1AF00BEF0DF0BBC0D9FFB3
:10176800BCC0DAFFDECFF6FFDDCFF7FF0800F5508B
:10177800730AD8B4C2EF0BF0C4EF0BF0DFEF0BF035
:10178800BBC0D9FFBCC0DAFFDECF06F0DDCF07F063
:10179800EF0E086EFF0E096E000E0B6E030E0A6E3A
:1017A800FAEC1FF006500710D8A4DDEF0BF0DFEFBE
:1017B8000BF021EF0CF0BBC0D9FFBCC0DAFFDECFC5
:1017C800F6FFDDCFF7FF0800F550730AD8B4EFEF46
:1017D8000BF0F1EF0BF0F8EF0BF0000E0001C46F07
:1017E800030EC36FFDEF0BF0000E0001C46F010E76
:1017F800C36FBBC0D9FFBCC0DAFFC351DE26C451DA
:10180800DD22B9C010F0BAC011F0BDC0D9FFBEC00A
:10181800DAFFDFCFBFF0020EDE26DFCFC0F0000E0A
:10182800DD22BFC0D9FFC0C0DAFFDECF12F0DDCFA6
:1018380013F0BDEC1BF00BEF0DF0BBC0D9FFBCC023
:10184800DAFFDECFCAF0DDCFCBF0CAC0F6FFCBC0DF
:10185800F7FF0800F5CFC9F03EEF0CF0CA4BCB2BD1
:1018680058EF0CF06C0EC96F58EF0CF0000EC96FF2
:1018780058EF0CF00001C951BF6FC06BC051000A8E
:10188800D8B449EF0CF03AEF0CF0BF514C0AD8B479
:1018980032EF0CF02A0AD8B436EF0CF00A0AD8B4A2
:1018A80032EF0CF03AEF0CF0CAC0F6FFCBC0F7FFEE
:1018B8000800F550660AD8A464EF0CF066EF0CF047
:1018C800EEEF0CF09CEF0CF0BDC0D9FFBEC0DAFF04
:1018D800DFCFBFF0040EDE26DFCFC0F0000EDD2222
:1018E800BFC0D9FFC0C0DAFFDECFC5F0DECFC6F07B
:1018F800DECFC7F0DECFC8F0B1EF0CF0BDC0D9FF26
:10190800BEC0DAFFDFCFBFF0040EDE26DFCFC0F0A7
:10191800000EDD22BFC0D9FFC0C0DAFFDECFC5F0A0
:10192800DECFC6F0DECFC7F0DECFC8F0B1EF0CF0E7
:10193800C951BF6FC06BC051000AD8B4A6EF0CF0F4
:10194800B1EF0CF0BF514C0AD8B482EF0CF0200A6A
:10195800D8B468EF0CF0B1EF0CF0010ECA25BF6FD8
:10196800000ECB21C06FBBC0D9FFBCC0DAFFBFC01F
:10197800DEFFC0C0DDFFD8EF0CF0B9C084F0BAC0FC
:1019880085F0C5C086F0C6C087F0C7C088F0C8C05B
:1019980089F0CAC0F6FFCBC0F7FF0800F5CF8AF080
:1019A80088EC00F00BEF0DF0CAC0F6FFCBC0F7FFD4
:1019B8000800F550BF6FC06BC051000AD8B4E7EFFC
:1019C8000CF0EEEF0CF0BF51660AD8B4C1EF0CF082
:1019D800EEEF0CF0BBC0D9FFBCC0DAFFDE2A000E68
:1019E800DD220BEF0DF0BBC0D9FFBCC0DAFFDECFA4
:1019F800F6FFDDCFF7FF0800F550076E086AB9C09B
:101A080009F0BAC00AF0D6EC20F0EEEF0CF01200A4
:101A1800EFC098F0F0C099F0F1C09AF0F2C09BF0D6
:101A280084C098F085C099F086C09AF087C09BF072
:101A380098C08AF099C08BF09AC08CF09BC08DF04A
:101A4800200E2DEF0DF00001D8908D338C338B33A1
:101A58008A33E82E27EF0DF08AC096F08BC097F0F6
:101A6800FF0E9815926FFF0E9915936FFF0E9A153A
:101A7800946F7F0E9B15956F800E945D7F0E955920
:101A8800D8A049EF0DF04BEF0DF070EF0DF084C0CA
:101A980064F085C065F086C066F087C067F084C0D2
:101AA80068F085C069F086C06AF087C06BF0B9EC51
:101AB80024F088C0D9FF89C0DAFF000164C0DEFFC6
:101AC80065C0DEFF66C0DEFF67C0DEFF000E856F03
:101AD800000E846F53EF0FF0DB0E925D0F0E9359DB
:101AE800C90E94594D0E9559D8B07DEF0DF07FEF82
:101AF8000DF06FEF0EF084C006F085C007F086C0C9
:101B080008F087C009F096EC25F006C0A4F007C0DD
:101B1800A5F008C0A6F009C0A7F0000E4A6E000E96
:101B28004B6E000E4C6E3F0E4D6E830E186EF90E06
:101B3800196E220E1A6E3F0E1B6EA4C014F0A5C0BB
:101B480015F0A6C016F0A7C017F054EC0FF014C09B
:101B580046F015C047F016C048F017C049F062ECCF
:101B680008F046C064F047C065F048C066F049C058
:101B780067F075EC1EF064C0A8F065C0A9F066C0F7
:101B8800AAF067C0ABF0A8C006F0A9C007F0AAC0C9
:101B980008F0ABC009F0010E19EC1AF006C0A0F06D
:101BA80007C0A1F008C0A2F009C0A3F0DA0E186EB1
:101BB8000F0E196EC90E1A6E3F0E1B6EA0C014F0E0
:101BC800A1C015F0A2C016F0A3C017F054EC0FF096
:101BD80014C068F015C069F016C06AF017C06BF041
:101BE800A4C064F0A5C065F0A6C066F0A7C067F001
:101BF800B9EC24F064C09CF065C09DF066C09EF00E
:101C080067C09FF09CC064F09DC065F09EC066F000
:101C18009FC067F0A30E186E850E196E880E1A6E97
:101C2800320E1B6EA0C014F0A1C015F0A2C016F0B1
:101C3800A3C017F054EC0FF014C068F015C069F099
:101C480016C06AF017C06BF0B9EC24F088C0D9FF51
:101C580089C0DAFF000164C0DEFF65C0DEFF66C030
:101C6800DEFF67C0DEFF96519711D8B43EEF0EF045
:101C780040EF0EF069EF0EF088C0D9FF89C0DAFF97
:101C8800DECF80F0DECF81F0DECF82F0DECF83F0D2
:101C98005EEC25F088C0D9FF89C0DAFF000180C05A
:101CA800DEFF81C0DEFF82C0DEFF83C0DEFFA8C08A
:101CB8008AF0A9C08BF08A1F8B1F8A4B8B2B8AC096
:101CC80084F08BC085F053EF0FF0A8C084F0A9C052
:101CD80085F053EF0FF084C006F085C007F086C08A
:101CE80008F087C009F096EC25F006C0A4F007C0FC
:101CF800A5F008C0A6F009C0A7F0000E4A6E000EB5
:101D08004B6E000E4C6E3F0E4D6E830E186EF90E24
:101D1800196E220E1A6E3F0E1B6EA4C014F0A5C0D9
:101D280015F0A6C016F0A7C017F054EC0FF014C0B9
:101D380046F015C047F016C048F017C049F062ECED
:101D480008F046C064F047C065F048C066F049C076
:101D580067F075EC1EF064C0A8F065C0A9F066C015
:101D6800AAF067C0ABF0A8C006F0A9C007F0AAC0E7
:101D780008F0ABC009F0010E19EC1AF006C0A0F08B
:101D880007C0A1F008C0A2F009C0A3F0DA0E186ECF
:101D98000F0E196EC90E1A6E3F0E1B6EA0C014F0FE
:101DA800A1C015F0A2C016F0A3C017F054EC0FF0B4
:101DB80014C068F015C069F016C06AF017C06BF05F
:101DC800A4C064F0A5C065F0A6C066F0A7C067F01F
:101DD800B9EC24F064C09CF065C09DF066C09EF02C
:101DE80067C09FF09CC064F09DC065F09EC066F01F
:101DF8009FC067F0A30E186E850E196E880E1A6EB6
:101E0800320E1B6EA0C014F0A1C015F0A2C016F0CF
:101E1800A3C017F054EC0FF014C068F015C069F0B7
:101E280016C06AF017C06BF0B9EC24F064C08EF0ED
:101E380065C08FF066C090F067C091F000019651C0
:101E48009711D8B42AEF0FF02CEF0FF045EF0FF0F1
:101E58008EC080F08FC081F090C082F091C083F076
:101E68005EEC25F088C0D9FF89C0DAFF000180C088
:101E7800DEFF81C0DEFF82C0DEFF83C0DEFF5BEFD6
:101E88000EF088C0D9FF89C0DAFF8EC0DEFF8FC090
:101E9800DEFF90C0DEFF91C0DEFF69EF0EF012009A
:101EA8001750800B206E17501724266E16AE5FEF62
:101EB8000FF061EF0FF062EF0FF026802650D8B4D4
:101EC80068EF0FF06AEF0FF07DEF0FF02628D8A427
:101ED80070EF0FF072EF0FF07AEF0FF0000E146E44
:101EE800000E156E000E166E000E176E168E85EF1C
:101EF8000FF0000E146E000E156E000E166E000E1A
:101F0800176E1B50800B201A1B501B24216E1AAE13
:101F180090EF0FF092EF0FF093EF0FF02180215028
:101F2800D8B499EF0FF09BEF0FF0AEEF0FF0212828
:101F3800D8A4A1EF0FF0A3EF0FF0ABEF0FF0000E56
:101F4800186E000E196E000E1A6E000E1B6E1A8E99
:101F5800B6EF0FF0000E186E000E196E000E1A6E16
:101F6800000E1B6E2150D8B4BCEF0FF0BEEF0FF07F
:101F7800C6EF0FF02650D8A4C4EF0FF0C6EF0FF04D
:101F8800D0EF0FF0000E146E000E156E000E166ED8
:101F9800000E176E68EF11F01A501402F3CF2BF0F1
:101FA800F4CF2CF02B50226E236A246A256A2C5019
:101FB800276E286A296A2A6A19501502F3CF2BF06E
:101FC800F4CF2CF02B502226000E23222422252287
:101FD8002C502726000E282229222A2218501602C1
:101FE800F3CF2BF0F4CF2CF02B502226000E232217
:101FF800242225222C502726000E282229222A2294
:1020080024C025F023C024F022C023F0226A1850EF
:102018001502F3CF2BF0F4CF2CF02B5022262C50A6
:102028002322000E2422000E252219501402F3CF79
:102038002BF0F4CF2CF02B5022262C502322000E0C
:102048002422000E252224C025F023C024F022C01B
:1020580023F0226A18501402F3CF2BF0F4CF2CF09F
:102068002B5022262C502322000E2422000E25223B
:102078001A501502F3CF2BF0F4CF2CF02B50272653
:102088002C502822000E2922000E2A22195016024E
:10209800F3CF2BF0F4CF2CF02B5027262C502822EE
:1020A800000E2922000E2A221A501602F3CF2BF016
:1020B800F4CF2CF02B501C6E2C501D6E1E6A1F6A1C
:1020C8001EC01FF01DC01EF01CC01DF01C6A1C5055
:1020D80027261D5028221E5029221F502A2222C09E
:1020E8001CF023C01DF024C01EF025C01FF0190EDF
:1020F80083EF10F0D8901F321E321D321C32E82EAA
:102108007EEF10F01C5027261D5028221E50292231
:102118001F502A2224C025F023C024F022C023F017
:10212800226A215026C01CF01D6A1C26000E1D22A2
:10213800820E1C242B6EFF0E1D202C6EB9EF10F0A2
:10214800D8902736283629362A3625AEAEEF10F035
:10215800B0EF10F0B1EF10F02780D8902236233678
:10216800243625362B06D8A02C0629AEBEEF10F053
:10217800C0EF10F0A4EF10F0000E216E25AEC7EFEF
:1021880010F0C9EF10F0EDEF10F0FF0E22141C6EE6
:10219800FF0E23141D6EFF0E24141E6E7F0E2514D1
:1021A8001F6E1C501D101E101F10D8B4DEEF10F04B
:1021B800E0EF10F0E4EF10F0010E216EEDEF10F0FB
:1021C80027A0E9EF10F0EBEF10F0EDEF10F0E0EFE3
:1021D80010F02150D8B4F3EF10F0F5EF10F019EF2C
:1021E80011F0010E2726000E282229222A222AA0D1
:1021F80000EF11F002EF11F019EF11F027C01CF0F9
:1022080028C01DF029C01EF02AC01FF01F341F323D
:102218001E321D321C321CC027F01DC028F01EC003
:1022280029F01FC02AF02B4A2C2A2CBE24EF11F0CB
:102238002C5008E12B28D8A024EF11F026EF11F03C
:1022480030EF11F0000E276E000E286E800E296EFA
:102258007F0E2A6E5EEF11F02CBE3DEF11F02C5070
:1022680006E12B04D8B03BEF11F03DEF11F049EF38
:1022780011F0000E276E000E286E000E296E000E5B
:102288002A6E000E206E5EEF11F02BC026F0FF0EB6
:102298002716FF0E28167F0E2916000E2A1626A0CE
:1022A80058EF11F05AEF11F05BEF11F0298ED8902A
:1022B80026302A6E20502A1227C014F028C015F0A4
:1022C80029C016F02AC017F012003050800B3D6E5E
:1022D80030503024446E2FAE74EF11F076EF11F0C9
:1022E80077EF11F044804450D8B47DEF11F07FEFC0
:1022F80011F094EF11F04428D8A485EF11F087EF7E
:1023080011F08FEF11F0000E2D6E000E2E6E000EE4
:102318002F6E000E306E2F8E000E306E9CEF11F077
:10232800000E2D6E000E2E6E000E2F6E000E306EFB
:102338003450800B3D1A34503424456E33AEA7EF29
:1023480011F0A9EF11F0AAEF11F045804550D8B46B
:10235800B0EF11F0B2EF11F0C7EF11F04528D8A493
:10236800B8EF11F0BAEF11F0C2EF11F0000E316EB4
:10237800000E326E000E336E000E346E338E000E79
:10238800346ECFEF11F0000E316E000E326E000E7B
:10239800336E000E346E3150321033103410D8A41E
:1023A800D8EF11F0DAEF11F0F2EF11F0000E2D6E08
:1023B800000E2E6E000E2F6E000E306E800E2F1245
:1023C8007F0E30123D5030122DC02DF02EC02EF051
:1023D8002FC02FF030C030F035EF13F04450D8A4A0
:1023E800F8EF11F0FAEF11F004EF12F0000E2D6E75
:1023F800000E2E6E000E2F6E000E306E35EF13F0AD
:10240800455044C035F0366A355E000E365A7F0EA8
:1024180035243E6E000E36203F6E2DC039F02EC09A
:102428003AF02FC03BF030C03CF0000E2D6E000E8D
:102438002E6E000E2F6E000E306E000E406E000ED7
:10244800416E000E426E000E436E000E456E65EF43
:1024580012F04550D8B433EF12F035EF12F04CEFCC
:1024680012F0D89039363A363B363C36D8902D366D
:102478002E362F36303643AE44EF12F046EF12F0C8
:1024880047EF12F02D80D890403641364236433619
:102498003150395C32503A5833503B5834503C58DC
:1024A800D8A059EF12F05BEF12F064EF12F0438CF2
:1024B8003150395E32503A5A33503B5A34503C5AB4
:1024C800452A190E45646BEF12F06DEF12F02DEFEF
:1024D80012F039503A103B103C10D8B476EF12F095
:1024E80078EF12F090EF12F0408090EF12F0D89051
:1024F8002D362E362F36303643AE85EF12F087EF65
:1025080012F088EF12F02D80D890403641364236CE
:1025180043363E06D8A03F062FAE95EF12F097EF50
:1025280012F07BEF12F0000E456E43AE9EEF12F0F4
:10253800A0EF12F0C4EF12F0FF0E4014356EFF0E3C
:102548004114366EFF0E4214376E7F0E4314386EF8
:102558003550361037103810D8B4B5EF12F0B7EF41
:1025680012F0BBEF12F0010E456EC4EF12F02DA071
:10257800C0EF12F0C2EF12F0C4EF12F0B7EF12F092
:102588004550D8B4CAEF12F0CCEF12F0F0EF12F0C9
:10259800010E2D26000E2E222F22302230A0D7EF3A
:1025A80012F0D9EF12F0F0EF12F02DC035F02EC076
:1025B80036F02FC037F030C038F038343832373280
:1025C8003632353235C02DF036C02EF037C02FF0F8
:1025D80038C030F03E4A3F2A3FBEFBEF12F03F5072
:1025E80008E13E28D8A0FBEF12F0FDEF12F008EF4B
:1025F80013F0000E3F6E3E68000E2D6E000E2E6E1C
:10260800000E2F6E000E306E3FBE15EF13F03F50D8
:1026180006E13E04D8B013EF13F015EF13F023EFE3
:1026280013F0000E3F6E000E3E6E000E2D6E000E73
:102638002E6E000E2F6E000E306E000E3D6E3EC0E8
:1026480044F044A02AEF13F02CEF13F02FEF13F00F
:102658002F8E30EF13F02F9ED8904430306EE6EF77
:1026680011F0120094809288928692840F01389714
:10267800389593969496949AC650F00B0209C66EB4
:10268800C698C78CC68A3981C09EC050F80B060907
:10269800C06EC050C70B3009C06EC280190EAF6E35
:1026A800AB8EAC98AC8AAB888A86C250830B300953
:1026B800C26E010E0001E56F010EE46F000EE66FB9
:1026C800AAEF14F07F0EE6616CEF13F06EEF13F0D3
:1026D80096EF13F0330E186E330E196EF30E1A6E52
:1026E8003F0E1B6EE651066E076A086A096A010EFC
:1026F80019EC1AF006C014F007C015F008C016F05F
:1027080009C017F054EC0FF014C064F015C065F060
:1027180016C066F017C067F075EC1EF00001645132
:102728003FEC25F07E0E0001E6659DEF13F09FEF6C
:1027380013F065EF14F0330E186E330E196EF30EA6
:102748001A6E3F0E1B6EE651FF0ADA6FDA51066EFB
:10275800076A086A096A010E19EC1AF006C014F033
:1027680007C015F008C016F009C017F054EC0FF0B8
:1027780014C064F015C065F016C066F017C067F0A5
:1027880075EC1EF0000164513FEC25F065EF14F084
:10279800000E316E000E326E7F0E336E430E346EB5
:1027A800C30E186EF50E196EC80E1A6E400E1B6E0B
:1027B800E651066E076A086A096A010E19EC1AF0F2
:1027C80006C014F007C015F008C016F009C017F0CD
:1027D80054EC0FF014C02DF015C02EF016C02FF0D9
:1027E80017C030F069EC11F02DC0DCF02EC0DDF020
:1027F8002FC0DEF030C0DFF0DCC0ACF0DDC0ADF0E3
:10280800DEC0AEF0DFC0AFF085EC05F0ACC0E0F0A4
:10281800ADC0E1F0AEC0E2F0AFC0E3F0000E4A6E2A
:10282800000E4B6EFE0E4C6E420E4D6E000E186E74
:10283800000E196EFE0E1A6E420E1B6EE0C014F0EA
:10284800E1C015F0E2C016F0E3C017F054EC0FF049
:1028580014C046F015C047F016C048F017C049F03C
:1028680062EC08F046C064F047C065F048C066F006
:1028780049C067F075EC1EF0000164513FEC25F08B
:1028880065EF14F0E651FF0A3FEC25F065EF14F010
:10289800E551DA6FDB6BDB51000AD8B456EF14F060
:1028A80065EF14F0DA51010AD8B466EF13F0030AA1
:1028B800D8B4CCEF13F0010AD8B446EF14F065EFA2
:1028C80014F0C282C2B26BEF14F06DEF14F066EF31
:1028D80014F0E20E0001D46FFF0ED56FC4CFD6F00E
:1028E800D76BC8EC25F082A07CEF14F07EEF14F0D3
:1028F80081EF14F0010E0001E56F80A886EF14F057
:1029080088EF14F08BEF14F0020E0001E56F80A63B
:1029180090EF14F092EF14F095EF14F0030E00010D
:10292800E56F80A49AEF14F09CEF14F09FEF14F079
:10293800000E0001E46F0001E62B680E0001DA6F5B
:10294800E40EE82EFED7DA2FFCD700F00001E451A0
:10295800D8A4B1EF14F0B3EF14F04CEF14F0120058
:10296800050E0101A66F0F0EA56FF10EE82EFED71A
:10297800A52FFCD7A62FFAD79480928892869284A6
:102988000F01389738959594959694989598959AB7
:10299800959C8C848C868B888C888C8A8C8C69EC32
:1029A80020F0000E0101A86F000EA76F000E0001B5
:1029B800EE6F0101A851E4EC1DF00101A86F82A09F
:1029C800E8EF14F0EAEF14F00DEF15F0030E010133
:1029D800A66F080EA56F770EE82EFED7A52FFCD799
:1029E800A62FFAD782A0FBEF14F0FDEF14F00DEF3D
:1029F80015F082B002EF15F004EF15F0FDEF14F0BA
:102A0800020E0001EE6F0101A851E4EC1DF0010176
:102A1800A86F80A812EF15F014EF15F037EF15F036
:102A2800030E0101A66F080EA56F770EE82EFED7DC
:102A3800A52FFCD7A62FFAD780A825EF15F027EFEA
:102A480015F037EF15F080B82CEF15F02EEF15F0D4
:102A580027EF15F0010E0001EE6F0101A851E4EC1B
:102A68001DF00101A86F80A63CEF15F03EEF15F0B0
:102A7800DAEF15F0030E0101A66F080EA56F770EA9
:102A8800E82EFED7A52FFCD7A62FFAD780A64FEFA2
:102A980015F051EF15F0DAEF15F080B656EF15F096
:102AA80058EF15F051EF15F0B0EF15F0610E076E05
:102AB800FF0E086E010E62EC22F03F0E076EFF0E4D
:102AC800086E020E62EC22F086EC1CF0010E010189
:102AD800A76FDAEF15F0500E076EFF0E086E010EA5
:102AE80062EC22F0A50E076EFF0E086E020E62EC75
:102AF80022F09EEC21F06AEF15F0720E076EFF0EC1
:102B0800086E010E62EC22F03F0E076EFF0E086E93
:102B1800020E62EC22F041EC1DF06AEF15F0940E03
:102B2800076EFF0E086E010E62EC22F017EC18F02B
:102B38006AEF15F0830E076EFF0E086E010E62EC49
:102B480022F0B60E076EFF0E086E020E62EC22F03F
:102B580036EC13F06AEF15F00101A851A56FA66BCA
:102B6800A651000AD8B4BBEF15F0DAEF15F0A5515D
:102B7800000AD8B45AEF15F0010AD8B46FEF15F06F
:102B8800030AD8B481EF15F0010AD8B493EF15F011
:102B9800070AD8B49EEF15F0010AD8B4DAEF15F099
:102BA800030AD8B4DAEF15F0DAEF15F08050010116
:102BB800A751D8B4E2EF15F0E4EF15F0E3EF14F005
:102BC800000E0001EE6F0101A851E4EC1DF00101B7
:102BD800A86F000EA76FE3EF14F086EF00F084C033
:102BE80014F085C015F086C016F087C017F084C0B1
:102BF80018F085C019F086C01AF087C01BF054EC95
:102C08000FF014C0A0F015C0A1F016C0A2F017C0B4
:102C1800A3F0A0C014F0A1C015F0A2C016F0A3C084
:102C280017F0A0C018F0A1C019F0A2C01AF0A3C0F4
:102C38001BF054EC0FF014C08CF015C08DF016C0CA
:102C48008EF017C08FF03C0E186E6C0E196E360E93
:102C58001A6E360E1B6EA0C014F0A1C015F0A2C0EB
:102C680016F0A3C017F054EC0FF014C046F015C0CE
:102C780047F016C048F017C049F0CF0E4A6E070E4D
:102C88004B6E500E4C6EB90E4D6E62EC08F046C09D
:102C980088F047C089F048C08AF049C08BF0A0C0CE
:102CA80014F0A1C015F0A2C016F0A3C017F084C09C
:102CB80018F085C019F086C01AF087C01BF054ECD4
:102CC8000FF014C09CF015C09DF016C09EF017C000
:102CD8009FF0AB0E4A6EAA0E4B6E2A0E4C6EBE0EBD
:102CE8004D6E840E186E880E196E080E1A6E3C0E04
:102CF8001B6EA0C014F0A1C015F0A2C016F0A3C0AE
:102D080017F054EC0FF014C046F015C047F016C089
:102D180048F017C049F062EC08F046C090F047C090
:102D280091F048C092F049C093F08CC018F08DC063
:102D380019F08EC01AF08FC01BF09CC014F09DC013
:102D480015F09EC016F09FC017F054EC0FF014C099
:102D580094F015C095F016C096F017C097F084C08F
:102D68004AF085C04BF086C04CF087C04DF09CC03F
:102D780018F09DC019F09EC01AF09FC01BF090C0BB
:102D880014F091C015F092C016F093C017F054ECEF
:102D98000FF014C046F015C047F016C048F017C031
:102DA80049F062EC08F046C098F047C099F048C076
:102DB8009AF049C09BF098C046F099C047F09AC075
:102DC80048F09BC049F088C018F089C019F08AC043
:102DD8001AF08BC01BF094C014F095C015F096C083
:102DE80016F097C017F054EC0FF014C04AF015C055
:102DF8004BF016C04CF017C04DF062EC08F046C01E
:102E080084F047C085F048C086F049C087F01200BA
:102E1800F3C066F0F4C067F0F5C068F0F6C069F07A
:102E280046C066F047C067F048C068F049C069F01E
:102E3800810E4A6EFF0E4B6E66C04CF067C04DF0B7
:102E480068C04EF069C04FF0180E30EF17F0D890F8
:102E58004F324E324D324C32E82E2BEF17F04C5099
:102E68004A240001646F000E4B20656F65BF46EF72
:102E780017F0655109E1170E645DD8A046EF17F009
:102E880048EF17F052EF17F046C046F047C047F03A
:102E980048C048F049C049F016EF18F065BF57EF31
:102EA80017F059EF17F0CAEF17F064C04AF0FF0E99
:102EB8004B6EFF0E4C6E7F0E4D6E000E4E6E4A66C8
:102EC80068EF17F070EF17F04E344E324D324C3237
:102ED8004B324A2E63EF17F04BC060F04CC061F0E4
:102EE8004DC062F04EC063F00001605166154A6E35
:102EF800615167154B6E625168154C6E63516915C7
:102F08004D6E4A504B104C104D10D8A48EEF17F050
:102F180090EF17F092EF17F048EF17F066C04AF0FD
:102F280067C04BF068C04CF069C04DF0200EA2EFAE
:102F380017F0D8904D324C324B324A32E82E9DEF82
:102F480017F04A504B104C104D10D8B4AEEF17F094
:102F5800B0EF17F0B8EF17F060516627615167239B
:102F68006251682363516923601D4A6E611D4B6E6F
:102F7800621D4C6E631D4D6E4A5066174B506717A5
:102F88004C5068174D5069170EEF18F066C04AF09C
:102F980067C04BF068C04CF069C04DF0200EDAEF06
:102FA80017F0D8904D324C324B324A32E82ED5EFDA
:102FB80017F04A504B104C104D10D8A4E6EF17F0FC
:102FC800E8EF17F0F2EF17F0000E666F000E676F6C
:102FD800000E686F000E696F0EEF18F0D890663516
:102FE8004A6E67354B6E68354C6E69354D6E4A5082
:102FF8004B104C104D10D8B404EF18F006EF18F031
:103008000EEF18F0000E666F000E676F800E686F87
:10301800BF0E696F66C046F067C047F068C048F0E9
:1030280069C049F012000F01388B3C81C08EC05036
:10303800F80B0609C06EC050C70B3009C06EC280BD
:1030480021EE72F0100EDE6AE806FDE2010E0101C3
:103058008F6F0FEF19F0C250830B1409C26EC28232
:10306800C2B239EF18F03BEF18F034EF18F0C35044
:10307800C4CF70F10101716B70C171F1706B701187
:103088008B6F71518C6F000E316EC00E326E7F0ED9
:10309800336E440E346E8BC106F08CC107F0086A9B
:1030A800096A000E19EC1AF006C02DF007C02EF0C0
:1030B80008C02FF009C030F069EC11F02DC014F0F1
:1030C8002EC015F02FC016F030C017F0330E186E52
:1030D800330E196E530E1A6E400E1B6E54EC0FF021
:1030E80014C083F115C084F116C085F117C086F1AC
:1030F800C250830B1009C26EC282C2B286EF18F0AA
:1031080088EF18F081EF18F0C350C4CF70F10101B7
:10311800716B70C171F1706B70118D6F71518E6F21
:10312800000E316EC00E326E7F0E336E440E346E5A
:103138008DC106F08EC107F0086A096A000E19EC05
:103148001AF006C02DF007C02EF008C02FF009C0F5
:1031580030F069EC11F02DC014F02EC015F02FC01E
:1031680016F030C017F0330E186E330E196E530E6A
:103178001A6E400E1B6E54EC0FF014C087F115C088
:1031880088F116C089F117C08AF1720E0001D46F58
:10319800010ED56F1B0ED66FFF0ED76F83C1D8F007
:1031A80084C1D9F085C1DAF086C1DBF087C1DCF0D3
:1031B80088C1DDF089C1DEF08AC1DFF041EC24F07E
:1031C800720E076E010E086E020E62EC22F080A4E9
:1031D800F0EF18F0F2EF18F00FEF19F0030E0101FD
:1031E800716F080E706F770EE82EFED7702FFCD720
:1031F800712FFAD780A403EF19F005EF19F00FEF3C
:1032080019F080B40AEF19F00CEF19F005EF19F076
:10321800000E01018F6F01018F51D8A416EF19F02C
:1032280018EF19F02FEF18F0C290120064C014F0D4
:1032380065C015F066C016F067C017F064C018F0D6
:1032480065C019F066C01AF067C01BF054EC0FF0A7
:1032580014C07CF015C07DF016C07EF017C07FF05A
:103268007CC014F07DC015F07EC016F07FC017F04A
:103278007CC018F07DC019F07EC01AF07FC01BF02A
:1032880054EC0FF014C078F015C079F016C07AF03D
:1032980017C07BF0170E186E9A0E196ECC0E1A6EA8
:1032A800370E1B6E7CC014F07DC015F07EC016F082
:1032B8007FC017F054EC0FF014C046F015C047F06B
:1032C80016C048F017C049F03F0E4A6E040E4B6E08
:1032D800B60E4C6EBA0E4D6E62EC08F046C068F041
:1032E80047C069F048C06AF049C06BF0000E4A6EEA
:1032F800000E4B6E800E4C6E3F0E4D6E000E186E1B
:10330800000E196E000E1A6EBF0E1B6E7CC014F0F4
:103318007DC015F07EC016F07FC017F054EC0FF09A
:1033280014C046F015C047F016C048F017C049F061
:1033380062EC08F046C06CF047C06DF048C06EF013
:1033480049C06FF07CC018F07DC019F07EC01AF03B
:103358007FC01BF078C014F079C015F07AC016F061
:103368007BC017F054EC0FF014C070F015C071F06A
:1033780016C072F017C073F09F0E186EAA0E196E61
:103388002A0E1A6E3D0E1B6E78C014F079C015F027
:103398007AC016F07BC017F054EC0FF014C04AF056
:1033A80015C04BF016C04CF017C04DF06CC046F07D
:1033B8006DC047F06EC048F06FC049F062EC08F08D
:1033C80046C074F047C075F048C076F049C077F041
:1033D80074C046F075C047F076C048F077C049F031
:1033E80068C018F069C019F06AC01AF06BC01BF009
:1033F80070C014F071C015F072C016F073C017F0E9
:1034080054EC0FF014C04AF015C04BF016C04CF045
:1034180017C04DF062EC08F046C064F047C065F094
:1034280048C066F049C067F012000E6E0E50D8B45E
:1034380020EF1AF022EF1AF044EF1AF009BE29EF34
:103448001AF027EF1AF044EF1AF006C00AF007C086
:103458000BF008C00CF009C00DF00A1E0B1E0C1E64
:103468000D1E0A2A000E0B220C220D220AC010F093
:103478000BC011F00CC012F00DC013F04CEF1AF095
:1034880006C010F007C011F008C012F009C013F010
:103498000650071008100910D8A455EF1AF057EF76
:1034A8001AF061EF1AF0000E066E000E076E000E9D
:1034B800086E000E096EF2EF1AF0960E0F6E6BEFA3
:1034C8001AF00F2AD8901332123211321032000E2D
:1034D80010140A6E000E11140B6E000E12140C6EEE
:1034E800FE0E13140D6E0A500B100C100D10D8A4FC
:1034F80080EF1AF082EF1AF065EF1AF090EF1AF0E9
:103508000F2A010E1026000E112212221322D89023
:103518001332123211321032000E10140A6E000EDD
:1035280011140B6E000E12140C6EFF0E13140D6E98
:103538000A500B100C100D10D8A4A5EF1AF0A7EF25
:103548001AF084EF1AF0AFEF1AF00F06D890103681
:1035580011361236133612BEB4EF1AF0B6EF1AF05F
:10356800BEEF1AF0020E0F60BCEF1AF0BEEF1AF0B1
:10357800A9EF1AF00FB0C3EF1AF0C5EF1AF0C6EFB3
:103588001AF0129ED8900F320FC00AF00B6A0C6A1C
:103598000D6A0AC00DF00C6A0B6A0A6A0A5010120A
:1035A8000B5011120C5012120D5013120E50D8B4A9
:1035B800E0EF1AF0E2EF1AF0EAEF1AF009BEE9EFCD
:1035C8001AF0E7EF1AF0EAEF1AF0138E10C006F0BF
:1035D80011C007F012C008F013C009F0120025BE90
:1035E800F8EF1AF0FBEF1AF0010EFCEF1AF0000EDC
:1035F8002C6E2C50D8B403EF1BF005EF1BF009EF2D
:103608001BF0246C251ED8B0252A58BE10EF1BF0DD
:103618000EEF1BF016EF1BF0000E296E010E286E40
:103628001AEF1BF057C028F058C029F055C02AF0EF
:1036380056C02BF02C50D8B424EF1BF026EF1BF00B
:103648003DEF1BF02A06D8A02B062C50D8A42FEF4C
:103658001BF031EF1BF037EF1BF0000E276E2B0E1F
:10366800266E3BEF1BF0000E276E2D0E266E26C031
:103678002CF0000E2E6E4F0E2D6E000E0101646FA1
:1036880076EF1BF02D06D8A02E06150E2D24D96E28
:10369800010E2E20DA6E24C006F025C007F0000EB9
:1036A800096E0A0E086EBBEC22F006C00CF007C0CB
:1036B8000DF01FEC25F00C50300FDF6E2806D8A057
:1036C80029062A06D8A02B0624C006F025C007F034
:1036D800000E096E0A0E086E00EC22F006C024F0F7
:1036E80007C025F02EBE81EF1BF02E5008E12D04F7
:1036F800D8A081EF1BF083EF1BF099EF1BF024504B
:103708002510D8A48AEF1BF08CEF1BF046EF1BF0B6
:1037180029BE99EF1BF0295006E12804D8B097EF8D
:103728001BF099EF1BF046EF1BF02C50D8B49FEF1D
:103738001BF0A1EF1BF0ACEF1BF02D06D8A02E0656
:10374800150E2D24D96E010E2E20DA6E2CC0DFFF47
:1037580022C017F023C018F0150E2D24196E010E83
:103768002E201A6E2AC01BF02BC01CF068EC23F028
:10377800120021EED1F010EE15F0060EDBCFE3FFBC
:10378800E806FCE212C020F013C021F020502110FE
:10379800D8A4D1EF1BF0D3EF1BF0D7EF1BF0150E19
:1037A800206E000E216E20C006F021C007F069ECE3
:1037B80024F006C024F007C025F057C022F058C0F6
:1037C80023F023BEEAEF1BF0ECEF1BF001EF1CF037
:1037D8002450225C2350800A146E2550800A145805
:1037E800D8A0F9EF1BF0FBEF1BF0FDEF1BF001EF8A
:1037F8001CF022C024F023C025F024C022F025C0EC
:1038080023F055C01EF056C01FF059B00EEF1CF043
:1038180010EF1CF02DEF1CF01EEF1CF0000E086ED0
:10382800200E076E10C009F011C00AF0D6EC20F087
:10383800244A252A1E50245C2550800A146E1F50E5
:10384800800A1458D8A02BEF1CF02DEF1CF012EFB3
:103858001CF0000E1D6E000E1C6E52EF1CF020C0F6
:10386800F6FF21C0F7FF000EF86E0F0EF76403D0C5
:103878000800F55005D0F6CFE1FFF7CFE2FFE7509B
:10388800146E1450076E086A10C009F011C00AF0CF
:10389800D6EC20F0204A212A1C4A1D2A22501C5C02
:1038A8001D50800A146E2350800A1458D8A05FEF68
:1038B8001CF061EF1CF033EF1CF059A066EF1CF010
:1038C80068EF1CF085EF1CF076EF1CF0000E086E18
:1038D800200E076E10C009F011C00AF0D6EC20F0D7
:1038E800244A252A1E50245C2550800A146E1F5035
:1038F800800A1458D8A083EF1CF085EF1CF06AEFFB
:103908001CF012009594959694989598959A959C84
:103918000F013B953B973A993B993B9B3B9D8C8488
:103928008C868B888C888C8A8C8C928438953F0EF8
:10393800CD16300ECD129D80F28CF28E010E000154
:10394800FE6F9E809E0ECF6E580ECE6ECD80010EFD
:10395800FF6F000E216E21EEC5F010EE15F00B0E74
:10396800DBCFE3FFE806FCE221EEB9F010EE09F048
:103978000B0EDBCFE3FFE806FCE2000E236E0C0E15
:10398800226E000E246E2DEF1DF0000E266E000E26
:10399800256ED8902534D96E2634DA6E150ED926C0
:1039A800000EDA2202D8FFEF1CF00500FA6EDE5096
:1039B800FD6EDE50FE6EF850FF6EFA502550050879
:1039C800076E090E2424D96EDA6A000EDA22DF5057
:1039D800086E072AF2EF1CF0D8900832072EF0EF95
:1039E8001CF008A0FAEF1CF0FDEF1CF0010EFEEF32
:1039F8001CF0000E1200254A262A26BE0DEF1DF0E7
:103A0800265009E1060E255CD8A00DEF1DF00FEF3A
:103A18001DF0CDEF1CF0110E086E3C0E076ECB0E9C
:103A2800E82EFED7072EFCD7082EFAD700F0242A56
:103A38002450076E086A2250071807E12350081817
:103A4800D8A429EF1DF02BEF1DF02DEF1DF0000E6F
:103A5800246E0001FF51D8A434EF1DF036EF1DF09D
:103A6800C9EF1CF08C848C868B888C888C8A8C8C13
:103A7800CD909D90000EFE6F12009484FC0E0F01F5
:103A88004917C70EBB6E0C0EBD12BD503F0B800907
:103A9800BD6E000EBE6E9E92BA849EA256EF1DF0B9
:103AA80058EF1DF051EF1DF09484928892849594FC
:103AB800959694989598959A959C8C848C868B88E5
:103AC8008C888C8A8C8C010E106E000E116ED7EFCC
:103AD8001DF01150C70DF3CF06F0F4CF07F0000E1C
:103AE800096E050E086E00EC22F00650BE6E80A826
:103AF80080EF1DF082EF1DF0B4EF1DF0030E0F6E86
:103B0800080E0E6E770EE82EFED70E2EFCD70F2E5F
:103B1800FAD700F080A893EF1DF095EF1DF0B4EFF1
:103B28001DF080B89AEF1DF09CEF1DF095EF1DF089
:103B3800050E1118D8A4A3EF1DF0A5EF1DF0A9EFED
:103B48001DF0000E116EB4EF1DF0050E1160AFEF01
:103B58001DF0B1EF1DF0B4EF1DF0112AB4EF1DF008
:103B680080A4B9EF1DF0BBEF1DF0D7EF1DF0030ED9
:103B78000F6E080E0E6E770EE82EFED70E2EFCD7AF
:103B88000F2EFAD700F080A4CCEF1DF0CEEF1DF079
:103B9800D7EF1DF080B4D3EF1DF0D5EF1DF0CEEFB9
:103BA8001DF0000E106E1050D8A4DDEF1DF0DFEFF1
:103BB8001DF06DEF1DF0F00EBD16BA949D92120027
:103BC8000101A46F7BEC25F021EEA9F011EE94F031
:103BD8000F0EDBCFE3FFE806FCE209EF1EF0060E4E
:103BE800A461F9EF1DF0FBEF1DF024EF1EF0A42BEC
:103BF80024EF1EF0A451D8B404EF1EF006EF1EF017
:103C080024EF1EF0A40724EF1EF00001EE5101017D
:103C1800706F716B7151000AD8B415EF1EF024EF64
:103C28001EF07051000AD8B424EF1EF0010AD8B46F
:103C3800F3EF1DF0030AD8B4FEEF1DF024EF1EF0D9
:103C4800720E0001D46F010ED56FCD0ED66FFF0E28
:103C5800D76F000ED96F0F0ED86F0101A451020D56
:103C6800940EF324D96E010EF420DA6EDECFDAF06A
:103C7800DDCFDBF041EC24F0830E0001D46F010EA0
:103C8800D56FCE0ED66FFF0ED76F000ED96F100E00
:103C9800D86F0101A451706F716BD890703771376C
:103CA800020E7027000E7123940E7025D96E010E36
:103CB8007121DA6EDECFDAF0DDCFDBF041EC24F0F3
:103CC800720E076E010E086E010E62EC22F0830E72
:103CD800076E010E086E020E62EC22F00101A4517B
:103CE8001200000166356735536E5350D8A47FEF34
:103CF8001EF081EF1EF08BEF1EF0000E646F000EB9
:103D0800656F000E666F000E676FF8EF1EF064C0F7
:103D180068F065C069F066C06AF067C06BF0200E95
:103D28009BEF1EF0D8906B336A3369336833E82E03
:103D380096EF1EF06851526E668FFF0E6417FF0EE5
:103D48006517FF0E6617000E6717960E535E53BE73
:103D5800B2EF1EF0B0EF1EF0C8EF1EF05350800A0D
:103D6800970FD8B0BAEF1EF0BCEF1EF0BEEF1EF0F2
:103D780081EF1EF0D8906733663365336433533E62
:103D8800BEEF1EF0E0EF1EF01F0E5364CEEF1EF0E4
:103D9800D0EF1EF0D8EF1EF081EF1EF0D8906437F8
:103DA80065376637673753065350D8A4DEEF1EF0E1
:103DB800E0EF1EF0D2EF1EF05250D8B4E6EF1EF03E
:103DC800E8EF1EF0F0EF1EF0671F661F651F646DB9
:103DD800000E65236623672364C064F065C065F040
:103DE80066C066F067C067F01200000E2D14356ECD
:103DF800000E2E14366E800E2F14376E7F0E301480
:103E0800386E3550361037103810D8A40EEF1FF022
:103E180010EF1FF018EF1FF0000E2D6E000E2E6E23
:103E2800000E2F6E000E306E000E3114356E000E2F
:103E38003214366E800E3314376E7F0E3414386E9B
:103E48003550361037103810D8A42DEF1FF02FEF4B
:103E58001FF037EF1FF0000E316E000E326E000EAD
:103E6800336E000E346E30AE3CEF1FF03EEF1FF0A5
:103E780047EF1FF02D6C2E1ED8B02E2A2F1ED8B05B
:103E88002F2A800E305634AE4CEF1FF04EEF1FF045
:103E980057EF1FF0316C321ED8B0322A331ED8B01B
:103EA800332A800E3456000E2D1A000E2E1A000EDC
:103EB8002F1A800E301A000E311A000E321A000E18
:103EC800331A800E341A31502D5C32502E5833502C
:103ED8002F5834503058D8B074EF1FF076EF1FF0D9
:103EE80079EF1FF0D8907AEF1FF0D8801200F7C052
:103EF80010F0F8C011F0F9C012F0FAC013F006C0C3
:103F080010F007C011F008C012F009C013F010C07B
:103F18000AF011C00BF012C00CF013C00DF0180E0F
:103F28009BEF1FF0D8900D320C320B320A32E82E7C
:103F380096EF1FF00A500E6E0F6A0E500F10D8A49D
:103F4800A8EF1FF0AAEF1FF0CAEF1FF0D8901034A7
:103F58000A6E11340B6E12340C6E13340D6E0A5047
:103F68000B100C100D10D8A4BCEF1FF0BEEF1FF003
:103F7800C4EF1FF0000E076E020E066EF9EF1FF079
:103F8800000E076E030E066EF9EF1FF00E280F10D5
:103F9800D8A4D1EF1FF0D3EF1FF0F5EF1FF010C03A
:103FA8000AF011C00BF012C00CF013C00DF0090E8E
:103FB800D8900A360B360C360D36E82EDCEF1FF09B
:103FC8000A500B100C100D10D8B4EDEF1FF0F0EFE5
:103FD8001FF0010EF1EF1FF0000E066E076AF9EFF1
:103FE8001FF0000E076E040E066E120006C00DF0DC
:103FF80007C00EF008C00FF009C010F00A06D8A0DC
:104008000B060A2806E10B28D8A40DEF20F00FEFC5
:1040180020F01CEF20F0000E076E000E066E68EF11
:1040280020F00D4A0E2A0F4A102A0A06D8A00B06BD
:104038000DC0F6FF0EC0F7FF0800F5500009D8B410
:1040480028EF20F02AEF20F056EF20F00FC0F6FFFF
:1040580010C0F7FF0800F5500009D8B436EF20F07B
:1040680038EF20F056EF20F00A500B10D8B43FEF8D
:1040780020F041EF20F056EF20F00DC0F6FF0EC003
:10408800F7FF0800F5CF0CF00FC0F6FF10C0F7FFE0
:104098000800F5500C18D8B454EF20F056EF20F073
:1040A80015EF20F00DC0F6FF0EC0F7FF0800F5CFA2
:1040B8000CF00FC0F6FF10C0F7FF0800F5500C5CBD
:1040C800066E076AD8A0070612000F013B913B93C2
:1040D80095809582929089806C50F00B08096C6EDF
:1040E800130E6E6E6C8A340E076EF20EE82EFED733
:1040F800072EFCD76B806BB084EF20F086EF20F0A2
:104108007FEF20F0A49E7C0EEFEC25F0800EEFEC04
:1041180025F0380EEFEC25F0800EEFEC25F0390E87
:10412800EFEC25F0800EEFEC25F0170EEFEC25F004
:10413800800EEFEC25F07A0EEFEC25F0800EEFEC18
:1041480025F05E0EEFEC25F0800EEFEC25F06B0EFF
:10415800EFEC25F0800EEFEC25F00C0EEFEC25F0DF
:10416800800EEFEC25F0010EEFEC25F0800EEFEC61
:1041780025F0060EEFEC25F0800EEFEC25F0020E90
:10418800EFEC25F06B846BB4CCEF20F0CEEF20F091
:10419800C7EF20F0340E076EF20EE82EFED7072E7A
:1041A800FCD7120009500A10D8B4DDEF20F0DFEF79
:1041B80020F0E8EF20F009500A10D8A4E6EF20F02C
:1041C800E8EF20F0EDEF20F0075002EC26F03AEF90
:1041D80021F020EE0AF00950D9260A50DA22DE50E2
:1041E800DE10D8B4FAEF20F0FCEF20F017EF21F042
:1041F80020EE0AF00950D9260A50DA2210EE03F010
:104208000950E1260A50E222DE50E65CE650800AB8
:104218000F6EDE50800A0F58D8B015EF21F017EF57
:1042280021F03AEF21F020EE03F00950D9260A5088
:10423800DA22DECF0BF0DDCF0CF009C0D9FF0AC0BF
:10424800DAFFDECF0DF0DDCF0EF00B500D24D96E66
:104258000C500E20DA6E07C0DFFF20EE03F0095085
:10426800D9260A50DA22DE2A000EDD221200000EBC
:10427800146E000E136E0CC0D9FF0DC0DAFFDECF2E
:10428800F6FFDDCFF7FF0800F5502A0AD8A44FEF54
:1042980021F051EF21F085EF21F00CC0D9FF0DC0BE
:1042A800DAFFDE2A000EDD220EC0D9FF0FC0DAFFCA
:1042B800DFCF10F0020EDE26DFCF11F0000EDD2278
:1042C80010C0D9FF11C0DAFFDECF13F0DDCF14F034
:1042D80099EF21F013C006F014C007F0000E096E24
:1042E8000A0E086EDCEC25F012500624136E000E40
:1042F8000720146E0CC0D9FF0DC0DAFFDE2A000EAD
:10430800DD220CC0D9FF0DC0DAFFDECFF6FFDDCF0E
:10431800F7FF0800F550D00F126E090E126497EFE0
:1043280021F099EF21F06EEF21F013C00CF014C0CA
:104338000DF012009284000E0F013A6F000E956E78
:10434800948C948E190EAF6EAC98AB8EAC8AAB88F9
:104358009D8AF28CF28E010E546EEEEF21F001016F
:104368006F51D8B4BAEF21F0BCEF21F0CBEF21F0B8
:104378008C742E0E0001D46FFF0ED56F650ED66FAC
:10438800010ED76FC8EC25F0000E01016F6F80A4F5
:10439800D0EF21F0D2EF21F0EEEF21F0030E000173
:1043A800DB6F080EDA6F770EE82EFED7DA2FFCD710
:1043B800DB2FFAD780A4E3EF21F0E5EF21F0EEEF51
:1043C80021F080B4EAEF21F0ECEF21F0E5EF21F0E5
:1043D800000E546E5450D8A4F4EF21F0F6EF21F0FB
:1043E800B3EF21F0AB9EAC9AAB98000E0001FD6FC5
:1043F8009D9AF29CF29E1200000E0B6E09BE09EF08
:1044080022F007EF22F00FEF22F0086C091ED8B057
:10441800092A010E0B6E07BE16EF22F014EF22F0E8
:104428001CEF22F0066C071ED8B0072A010E0B1AE3
:10443800000E0D6E000E0C6E08500910D8B427EF50
:1044480022F029EF22F051EF22F0010E0A6E31EF2F
:1044580022F0D890083609360A2A09AE36EF22F03B
:1044680038EF22F02DEF22F0D8900C360D36085098
:10447800065C09500758D8A044EF22F046EF22F016
:104488004BEF22F00850065E0950075A0C80D8906E
:10449800093208320A2E38EF22F00B50D8B457EF01
:1044A80022F059EF22F05DEF22F00C6C0D1ED8B00F
:1044B8000D2A0CC006F00DC007F012000B6E6B80C1
:1044C8006BB069EF22F06BEF22F064EF22F0A49E4C
:1044D8007C0EEFEC25F0800EEFEC25F00B04D8A451
:1044E80078EF22F07AEF22F07FEF22F0800EEFECE7
:1044F80025F08BEF22F0020E0B18D8A486EF22F0DD
:1045080088EF22F08BEF22F0C00EEFEC25F0400E82
:10451800EFEC25F0000E0C6E0C500724096E000E0F
:1045280008200A6E09C0F6FF0AC0F7FF000EF86EF1
:104538000F0EF76403D00800F55005D0F6CFE1FF61
:10454800F7CFE2FFE750EFEC25F00C2A0F0E0C64D2
:10455800B0EF22F0B2EF22F090EF22F06B846BB450
:10456800B8EF22F0BAEF22F0B3EF22F01200000EFB
:104578000B6E07BEC4EF22F0C2EF22F0CAEF22F0A2
:10458800066C071ED8B0072A010E0B6E09BED1EFC4
:1045980022F0CFEF22F0D5EF22F0086C091ED8B038
:1045A800092A08500910D8B4DCEF22F0DEEF22F017
:1045B80002EF23F0010E0A6EE6EF22F0D8900836DB
:1045C80009360A2A09AEEBEF22F0EDEF22F0E2EF0E
:1045D80022F00850065C09500758D8A0F6EF22F0E0
:1045E800F8EF22F0FCEF22F00850065E0950075A57
:1045F800D890093208320A2EEDEF22F00B50D8B4C9
:1046080008EF23F00AEF23F00EEF23F0066C071EE5
:10461800D8B0072A06C006F007C007F01200000E3F
:1046280006140E6E000E07140F6E800E0814106E1E
:104638007F0E0914116E0E500F1010101110D8A40F
:1046480028EF23F02AEF23F032EF23F0000E066E56
:10465800000E076E000E086E000E096E000E0A149A
:104668000E6E000E0B140F6E800E0C14106E7F0E63
:104678000D14116E0E500F1010101110D8A447EF22
:1046880023F049EF23F051EF23F0000E0A6E000EDD
:104698000B6E000E0C6E000E0D6E0A5006180FE120
:1046A8000B5007180CE10C50081809E10D500918B7
:1046B800D8B461EF23F063EF23F066EF23F0D890CE
:1046C80067EF23F0D880120059A06DEF23F06FEF49
:1046D80023F079EF23F019C010F01AC011F017C0B9
:1046E80012F018C013F0DDEC24F01CBE7EEF23F0AE
:1046F80080EF23F086EF23F01BC020F01CC021F0D0
:104708008AEF23F0000E216E000E206E000E1F6E41
:10471800000E1E6E9CEF23F0000E086E200E076E32
:1047280017C009F018C00AF0D6EC20F01E4A1F2A5C
:1047380020501E5C1F50800A1D6E2150800A1D5893
:10474800D8A0A9EF23F0ABEF23F090EF23F059B0F6
:10475800B0EF23F0B2EF23F0BCEF23F019C010F054
:104768001AC011F017C012F018C013F0DDEC24F0D5
:10477800120009BECCEF23F009500810071006E11B
:104788000604D8B0CAEF23F0CCEF23F0E7EF23F00C
:1047980006C00AF007C00BF008C00CF009C00DF005
:1047A8000A1E0B1E0C1E0D1E0A2A000E0B220C22BE
:1047B8000D220AC006F00BC007F00CC008F00DC0AF
:1047C80009F0EFEF23F006C006F007C007F008C0B5
:1047D80008F009C009F01200CEC0D2F0CFC0D3F063
:1047E80005EF24F0CCC0B9F0CDC0BAF0D20E00016C
:1047F800BB6F000EBC6FD0C0BDF0D1C0BEF0C3EC23
:104808000AF0D2C0F6FFD3C0F7FF0800F550000940
:10481800D8A411EF24F013EF24F0F6EF23F0000EE4
:104828000001CD6F000ECC6F1200600EF66E4B0EBD
:10483800F76E000EF86E01EEA9F010EE2FF00900E9
:10484800F5CFEEFFE550E150FAE101EE00F0700E11
:10485800EE6AE806FDE100EEEFF0110EEE6AE806FA
:10486800FDE1596A586A576A566A556A5A905A92C7
:10487800000EF86E0001B4EF14F0D80E0001E06FDE
:10488800000EE16FD4C0E2F0D5C0E3F0000EE66F91
:10489800000EE56F000EED6F000EEC6FE20ECC6FB0
:1048A800000ECD6FD6C0CEF0D7C0CFF0E00ED06FDF
:1048B800000ED16FF0EC23F00001E551D425D96E3C
:1048C800E651D521DA6EDF6A120006C008F007C08B
:1048D80009F071EF24F0064A072A06C0F6FF07C060
:1048E800F7FF000EF86E0F0EF76403D00800F550BE
:1048F80005D0F6CFE1FFF7CFE2FFE7500009D8A4D3
:1049080088EF24F08AEF24F06FEF24F00850065C5B
:10491800066E09500758076E120008C00FF009C04C
:1049280010F006C00DF007C00EF0ABEF24F00FC07A
:10493800D9FF10C0DAFFDF500C6E0F4A102A0DC0E5
:10494800D9FF0EC0DAFF0CC0DFFF0D4A0E2A0A0697
:10495800D8A00B060A2806E10B28D8A4B6EF24F045
:10496800B8EF24F09BEF24F01200000E0001681B42
:10497800000E691B000E6A1B800E6B1B64C046F09C
:1049880065C047F066C048F067C049F068C04AF0A3
:1049980069C04BF06AC04CF06BC04DF062EC08F097
:1049A80046C064F047C065F048C066F049C067F08B
:1049B8001200000E166E000E156EEEEF24F014C0F5
:1049C80007F0086A12C009F013C00AF0D6EC20F00C
:1049D800154A162A15501024D96E16501120DA6E71
:1049E800DF50146E1450D8A4FCEF24F0FEEF24F02E
:1049F800E3EF24F0120008C00AF009C00BF006C06B
:104A08000CF007C00DF00AC0F6FF0BC0F7FF0A4A0A
:104A18000B2A0CC0D9FF0DC0DAFF0C4A0D2A08007A
:104A2800F5CFDFFFDF50D8A41CEF25F01EEF25F0EF
:104A380007EF25F012000DBE2CEF25F00D5006E112
:104A48000C04D8B02AEF25F02CEF25F03AEF25F02A
:104A58000CC00EF00DC00FF00E1E0F1E0E4A0F2ACE
:104A68000EC00CF00FC00DF03EEF25F00CC00CF09E
:104A78000DC00DF01200086E08380F0B3009066ED5
:104A88000838F00B076E8A9606C0C9FF9EA64FEF3E
:104A980025F051EF25F04AEF25F09E9607C0C9FF93
:104AA8009EA659EF25F05BEF25F054EF25F09E9672
:104AB8008A86120000018051811182118311D8B4B5
:104AC80068EF25F06AEF25F072EF25F0000E801BE5
:104AD800000E811B000E821B800E831B80C080F09D
:104AE80081C081F082C082F083C083F012006B80A5
:104AF8006BB081EF25F083EF25F07CEF25F0A49EC5
:104B08007C0EEFEC25F0800EEFEC25F0010EEFECBB
:104B180025F06B846BB493EF25F095EF25F08EEFBD
:104B280025F0120011C10AF012C10BF013C10CF0EC
:104B380014C10DF006C00AF007C00BF008C00CF055
:104B480009C00DF00D9E0AC006F00BC007F00CC09E
:104B580008F00DC009F01200D8FFDDFFFBFFF7FFDA
:104B6800F3FFD3FFC7FF3EFF2030180C06030103F5
:104B7800060C1830524C444C364C284C1A4C604C9D
:074B8800286E756C6C29001A
:104B9000D60E0001D86F000ED96F000ECC6F000E3C
:104BA000CD6FD4C0CEF0D5C0CFF0D80ED06F000EF0
:104BB000D16FF0EC23F0120006500802F3CF0AF098
:104BC000F4CF0BF006500902F3500B2607500802F1
:104BD000F3500B260AC006F00BC007F01200066E59
:104BE00006C06FFF6DB0F7EF25F0F9EF25F0F2EF9B
:104BF00025F0A4AEFEEF25F000EF26F0F9EF25F04A
:104C0000A49E1200066E9EA808EF26F00AEF26F07A
:104C100003EF26F006C0ADFF1200066E06B002D00C
:104C20008C9A01D08C8A1200066E06B002D08C9845
:104C300001D08C881200066E06B002D08B9801D08D
:104C40008B881200066E06B002D08C9601D08C863E
:104C50001200066E06B002D08C9401D08C84120033
:0E4C6000066E06B002D08C9C01D08C8C120027
:10FED600003C6C3636CF0750B98488083CABAA2A5A
:10FEE600BEA3858832DA0FC93F83F9223F0000009E
:10FEF6003F0000404B179ACC373F04B6BA9FAA2A58
:10FF06003D000000BFDB0FC940E4CB9640DB0F4944
:10FF160040DB0FC93F504F54313A252E3166504FC2
:10FF260054323A252E316600446F7374616C206A30
:10FF360073656D202573200A0020202020202020B4
:10FF46002020202020202020200042523A20313933
:10FF56003230302020202020202000506F7A6F720F
:10FF66002120486164212121202020005A6D6163EF
:10FF76006B6E6574652042544E322020005242302A
:10FF86002D41322C2042523A313932303000566FF0
:10FF96006C7479206E6120504F546563683A004B4B
:10FFA6006F6E6563202D206E6577206C696E650027
:10FFB600313A74722C323A73696E2C333A70696C2A
:10FFC600004D55534943003E252D2A730047414DA8
:10FFD60045004750494F0055415254002564200DB5
:10FFE60000696E66006E616E006C6C73004441437E
:0AFFF600004144430050574D000045
:020000040030CA
:04000000FF331F3C6F
:00000001FF
